{
	"Semaphore/.git/objects/08/SemaphoreVerifier.sol": {
		"SemaphoreVerifier": {
			"abi": [
				{
					"inputs": [
						{
							"internalType": "uint256[2]",
							"name": "_pA",
							"type": "uint256[2]"
						},
						{
							"internalType": "uint256[2][2]",
							"name": "_pB",
							"type": "uint256[2][2]"
						},
						{
							"internalType": "uint256[2]",
							"name": "_pC",
							"type": "uint256[2]"
						},
						{
							"internalType": "uint256[4]",
							"name": "_pubSignals",
							"type": "uint256[4]"
						},
						{
							"internalType": "uint256",
							"name": "merkleTreeDepth",
							"type": "uint256"
						}
					],
					"name": "verifyProof",
					"outputs": [
						{
							"internalType": "bool",
							"name": "",
							"type": "bool"
						}
					],
					"stateMutability": "view",
					"type": "function"
				}
			],
			"devdoc": {
				"kind": "dev",
				"methods": {},
				"version": 1
			},
			"evm": {
				"assembly": "    /* \"Semaphore/.git/objects/08/SemaphoreVerifier.sol\":194:22891  contract SemaphoreVerifier {... */\n  mstore(0x40, 0x80)\n    /* \"Semaphore/.git/objects/08/SemaphoreVerifier.sol\":2009:17669  uint256[14][MAX_DEPTH] VK_POINTS = [... */\n  mload(0x40)\n  dup1\n  0x0180\n  add\n  0x40\n  mstore\n  dup1\n  mload(0x40)\n  dup1\n  0x01c0\n  add\n  0x40\n  mstore\n  dup1\n    /* \"Semaphore/.git/objects/08/SemaphoreVerifier.sol\":2070:2145  563562783592406106461234396505774794044312891062077216951605541624542949349 */\n  0x013ef7196e97358e510c577b797bf6e3cd39a2c16b548d73bbe8f1b33c146fe5\n    /* \"Semaphore/.git/objects/08/SemaphoreVerifier.sol\":2009:17669  uint256[14][MAX_DEPTH] VK_POINTS = [... */\n  dup2\n  mstore\n  0x20\n  add\n    /* \"Semaphore/.git/objects/08/SemaphoreVerifier.sol\":2160:2237  16293410697967515504861065986355060225819302510590370360517024529684437085892 */\n  0x2405be5fc409b9bbe849cefa4670e2f2a885a05297a5bd61bbd1cda937472ec4\n    /* \"Semaphore/.git/objects/08/SemaphoreVerifier.sol\":2009:17669  uint256[14][MAX_DEPTH] VK_POINTS = [... */\n  dup2\n  mstore\n  0x20\n  add\n    /* \"Semaphore/.git/objects/08/SemaphoreVerifier.sol\":2252:2327  718666295291146285397081607986058864287612968465033527894198098928522749430 */\n  0x0196c02e6d88030071206cdef1ec0d569b136b27d825a0ab9eb951820c93e5f6\n    /* \"Semaphore/.git/objects/08/SemaphoreVerifier.sol\":2009:17669  uint256[14][MAX_DEPTH] VK_POINTS = [... */\n  dup2\n  mstore\n  0x20\n  add\n    /* \"Semaphore/.git/objects/08/SemaphoreVerifier.sol\":2342:2419  10971164449179097832515056670594147898894418081309026322805549037082528587660 */\n  0x184175828d0d3652055c9bcca5d8cdf7e8fc2360647fe9cad0ed421955561f8c\n    /* \"Semaphore/.git/objects/08/SemaphoreVerifier.sol\":2009:17669  uint256[14][MAX_DEPTH] VK_POINTS = [... */\n  dup2\n  mstore\n  0x20\n  add\n    /* \"Semaphore/.git/objects/08/SemaphoreVerifier.sol\":2434:2511  16397970494781113622140409380710514277504568512202481522431528914560031562762 */\n  0x2440ec222e2a1583c4dcde1937422ac002663b9648aa13bf91085826c7d29c0a\n    /* \"Semaphore/.git/objects/08/SemaphoreVerifier.sol\":2009:17669  uint256[14][MAX_DEPTH] VK_POINTS = [... */\n  dup2\n  mstore\n  0x20\n  add\n    /* \"Semaphore/.git/objects/08/SemaphoreVerifier.sol\":2526:2603  15987991045804318696151558137607070651882190737142560406194591976742796145195 */\n  0x2358e1db3e0934ca48af49ee922c8a08e9525d6d4ab69538fda8cab11930322b\n    /* \"Semaphore/.git/objects/08/SemaphoreVerifier.sol\":2009:17669  uint256[14][MAX_DEPTH] VK_POINTS = [... */\n  dup2\n  mstore\n  0x20\n  add\n    /* \"Semaphore/.git/objects/08/SemaphoreVerifier.sol\":2618:2695  19175554796060272870947844726785784415291967441071791144616572094703752022787 */\n  0x2a64fab9ec8500bf84dd3f79acdca3957477df7575323969ad5f43d12ca58b03\n    /* \"Semaphore/.git/objects/08/SemaphoreVerifier.sol\":2009:17669  uint256[14][MAX_DEPTH] VK_POINTS = [... */\n  dup2\n  mstore\n  0x20\n  add\n    /* \"Semaphore/.git/objects/08/SemaphoreVerifier.sol\":2710:2787  14708716857471570462880683190724447733812118518043273649838616424043548023127 */\n  0x2084d6b65d520a69aec4f77119ba07aa4ba30844716b3a3bc851d69b50a89957\n    /* \"Semaphore/.git/objects/08/SemaphoreVerifier.sol\":2009:17669  uint256[14][MAX_DEPTH] VK_POINTS = [... */\n  dup2\n  mstore\n  0x20\n  add\n    /* \"Semaphore/.git/objects/08/SemaphoreVerifier.sol\":2802:2878  5109703116431086866657790821388182053265093586387384935734011036204399393630 */\n  0x0b4bfd4e46ca962ce47287d8a6fcaac3de05dca8f56e676868a2cf9555fcfb5e\n    /* \"Semaphore/.git/objects/08/SemaphoreVerifier.sol\":2009:17669  uint256[14][MAX_DEPTH] VK_POINTS = [... */\n  dup2\n  mstore\n  0x20\n  add\n    /* \"Semaphore/.git/objects/08/SemaphoreVerifier.sol\":2893:2969  1612476077210311180626421664389270104678910550524363357381847966959374674423 */\n  0x0390a10dd59148d792af91ba00d8634cef3edeb0e31c9de0e77da89432bfa9f7\n    /* \"Semaphore/.git/objects/08/SemaphoreVerifier.sol\":2009:17669  uint256[14][MAX_DEPTH] VK_POINTS = [... */\n  dup2\n  mstore\n  0x20\n  add\n    /* \"Semaphore/.git/objects/08/SemaphoreVerifier.sol\":2984:3061  16028984344157742576452936855797086856968817024956118691418341585143424903639 */\n  0x237015692fac4c78242204d6a991ff50ed1e999db38fa500932386aa9f8c69d7\n    /* \"Semaphore/.git/objects/08/SemaphoreVerifier.sol\":2009:17669  uint256[14][MAX_DEPTH] VK_POINTS = [... */\n  dup2\n  mstore\n  0x20\n  add\n    /* \"Semaphore/.git/objects/08/SemaphoreVerifier.sol\":3076:3152  6905323418829609143361434077039383502192920586565275784934386988372483556465 */\n  0x0f444648f9e0d2ea670e01e9aebfb2e99b7a7948f45402932084f424d5eec471\n    /* \"Semaphore/.git/objects/08/SemaphoreVerifier.sol\":2009:17669  uint256[14][MAX_DEPTH] VK_POINTS = [... */\n  dup2\n  mstore\n  0x20\n  add\n    /* \"Semaphore/.git/objects/08/SemaphoreVerifier.sol\":3167:3243  5037234187699234788733084505200789125332575456459095878140727750253994537245 */\n  0x0b22f938508e2f9a1744f12d4cf18ea556c18aa543b2c40e9e95db3bd8fb711d\n    /* \"Semaphore/.git/objects/08/SemaphoreVerifier.sol\":2009:17669  uint256[14][MAX_DEPTH] VK_POINTS = [... */\n  dup2\n  mstore\n  0x20\n  add\n    /* \"Semaphore/.git/objects/08/SemaphoreVerifier.sol\":3258:3334  5152780378461098676484401284161685966625077837157208907964141131514955942959 */\n  0x0b645ecebab2fd4a623a41a5830884d1cb3e596a8618960d0760e74de4ffcc2f\n    /* \"Semaphore/.git/objects/08/SemaphoreVerifier.sol\":2009:17669  uint256[14][MAX_DEPTH] VK_POINTS = [... */\n  dup2\n  mstore\n  pop\n  dup2\n  mstore\n  0x20\n  add\n  mload(0x40)\n  dup1\n  0x01c0\n  add\n  0x40\n  mstore\n  dup1\n    /* \"Semaphore/.git/objects/08/SemaphoreVerifier.sol\":3371:3447  6925326031648378844726759441690273332175949886518827719224741736678266471462 */\n  0x0f4f987b1efdb56995efffd0b1b25eb3deebc1e06b38fd443ce1cb22fed38426\n    /* \"Semaphore/.git/objects/08/SemaphoreVerifier.sol\":2009:17669  uint256[14][MAX_DEPTH] VK_POINTS = [... */\n  dup2\n  mstore\n  0x20\n  add\n    /* \"Semaphore/.git/objects/08/SemaphoreVerifier.sol\":3462:3538  8087990171976409378525016197066789089596692733769545253942804888352233244331 */\n  0x11e1a3e4ed0a9bd9dca060de44d12105ba8b5f89ef20dfa230eeb2a9fdce46ab\n    /* \"Semaphore/.git/objects/08/SemaphoreVerifier.sol\":2009:17669  uint256[14][MAX_DEPTH] VK_POINTS = [... */\n  dup2\n  mstore\n  0x20\n  add\n    /* \"Semaphore/.git/objects/08/SemaphoreVerifier.sol\":3553:3630  10115242383701466910539784663900956956505212347433548599529944880163612117847 */\n  0x165d0638a737d6260b25608ae97698ef687aec5ab964d5d022ee37c7456dcb57\n    /* \"Semaphore/.git/objects/08/SemaphoreVerifier.sol\":2009:17669  uint256[14][MAX_DEPTH] VK_POINTS = [... */\n  dup2\n  mstore\n  0x20\n  add\n    /* \"Semaphore/.git/objects/08/SemaphoreVerifier.sol\":3645:3722  15618724583521291135890928658458637081479213437530496494788106479523123480134 */\n  0x2287e284e930bf3c0618fb4af91a5774581579aa7051f96cb26afb844030c646\n    /* \"Semaphore/.git/objects/08/SemaphoreVerifier.sol\":2009:17669  uint256[14][MAX_DEPTH] VK_POINTS = [... */\n  dup2\n  mstore\n  0x20\n  add\n    /* \"Semaphore/.git/objects/08/SemaphoreVerifier.sol\":3737:3814  19573269191775350978579562905764743103417752180580176229566975904395505694207 */\n  0x2b4613e8c07ef908a6adee2289eb6542814edf0cfdaf1b8d5610c5161913f5ff\n    /* \"Semaphore/.git/objects/08/SemaphoreVerifier.sol\":2009:17669  uint256[14][MAX_DEPTH] VK_POINTS = [... */\n  dup2\n  mstore\n  0x20\n  add\n    /* \"Semaphore/.git/objects/08/SemaphoreVerifier.sol\":3829:3905  2381522187377974692257359562587606852360557473353020907100590706767276986457 */\n  0x0543e4cf7447121dd4c27d03a5a84733cc1eb51f9eacdfcc90005084b5e6d059\n    /* \"Semaphore/.git/objects/08/SemaphoreVerifier.sol\":2009:17669  uint256[14][MAX_DEPTH] VK_POINTS = [... */\n  dup2\n  mstore\n  0x20\n  add\n    /* \"Semaphore/.git/objects/08/SemaphoreVerifier.sol\":3920:3996  3570865353993345507636525265023758855364727230473021611280650482974485897542 */\n  0x07e509c557d49250507bd434a77a23c92e4f6bffcbd541eeefd420b56cebe146\n    /* \"Semaphore/.git/objects/08/SemaphoreVerifier.sol\":2009:17669  uint256[14][MAX_DEPTH] VK_POINTS = [... */\n  dup2\n  mstore\n  0x20\n  add\n    /* \"Semaphore/.git/objects/08/SemaphoreVerifier.sol\":4011:4087  3026650225811133060402545160946181194870257210933662802529138266788423022235 */\n  0x06b105f855e8a78ca522d71decae7cd39434a3d6872afe8aeb9b95140d14369b\n    /* \"Semaphore/.git/objects/08/SemaphoreVerifier.sol\":2009:17669  uint256[14][MAX_DEPTH] VK_POINTS = [... */\n  dup2\n  mstore\n  0x20\n  add\n    /* \"Semaphore/.git/objects/08/SemaphoreVerifier.sol\":4102:4179  10948020004642082805202152014062303498984706484599503419636897666877701726029 */\n  0x18345c1764032ce292bf4c322d9b4ada01d197b0c029a6d56d3554d3575b9f4d\n    /* \"Semaphore/.git/objects/08/SemaphoreVerifier.sol\":2009:17669  uint256[14][MAX_DEPTH] VK_POINTS = [... */\n  dup2\n  mstore\n  0x20\n  add\n    /* \"Semaphore/.git/objects/08/SemaphoreVerifier.sol\":4194:4271  16425328653566008388486740080892552688012772956429074139489785673820307770702 */\n  0x24506814b04e3ca0efd80b32ee03488fbafc4c4c2d9ef41f265fce3839a8cd4e\n    /* \"Semaphore/.git/objects/08/SemaphoreVerifier.sol\":2009:17669  uint256[14][MAX_DEPTH] VK_POINTS = [... */\n  dup2\n  mstore\n  0x20\n  add\n    /* \"Semaphore/.git/objects/08/SemaphoreVerifier.sol\":4286:4363  20638502839000044414864636985783149953889799151008745227055624454042471377832 */\n  0x2da0fa88b6c7e6562539ea8717df39728b881def91795d75939d28948b6c2ba8\n    /* \"Semaphore/.git/objects/08/SemaphoreVerifier.sol\":2009:17669  uint256[14][MAX_DEPTH] VK_POINTS = [... */\n  dup2\n  mstore\n  0x20\n  add\n    /* \"Semaphore/.git/objects/08/SemaphoreVerifier.sol\":4378:4453  977321369609271151576827768083353705509746900519279122286818202637470656742 */\n  0x022924f05a80eb024c3256ed1e7ee1356e07fa6f61597231ffb48a69a1b1e8e6\n    /* \"Semaphore/.git/objects/08/SemaphoreVerifier.sol\":2009:17669  uint256[14][MAX_DEPTH] VK_POINTS = [... */\n  dup2\n  mstore\n  0x20\n  add\n    /* \"Semaphore/.git/objects/08/SemaphoreVerifier.sol\":4468:4545  18662986393280647182646025762677321210586855801774577114215804961111542726195 */\n  0x2942e03f3396f75a58c3ab94abb01638e68b33232a00f1251d7cc69200bdfe33\n    /* \"Semaphore/.git/objects/08/SemaphoreVerifier.sol\":2009:17669  uint256[14][MAX_DEPTH] VK_POINTS = [... */\n  dup2\n  mstore\n  0x20\n  add\n    /* \"Semaphore/.git/objects/08/SemaphoreVerifier.sol\":4560:4636  9182414327249389553719378979750943052880001176853490206379257023646169811116 */\n  0x144d0ff502082eda66045a529b01baf5368fb7cc1bf393b389b8ddb4209fc8ac\n    /* \"Semaphore/.git/objects/08/SemaphoreVerifier.sol\":2009:17669  uint256[14][MAX_DEPTH] VK_POINTS = [... */\n  dup2\n  mstore\n  pop\n  dup2\n  mstore\n  0x20\n  add\n  mload(0x40)\n  dup1\n  0x01c0\n  add\n  0x40\n  mstore\n  dup1\n    /* \"Semaphore/.git/objects/08/SemaphoreVerifier.sol\":4673:4749  7699900854308622607636895140107457213471038801393300399043779958706267744510 */\n  0x1105fd4c15b8a58d7b97e20859463291dd46b582db02245e446bf439c7bbe8fe\n    /* \"Semaphore/.git/objects/08/SemaphoreVerifier.sol\":2009:17669  uint256[14][MAX_DEPTH] VK_POINTS = [... */\n  dup2\n  mstore\n  0x20\n  add\n    /* \"Semaphore/.git/objects/08/SemaphoreVerifier.sol\":4764:4840  7699563868952902688273782470023919811229667532027732585467624469008534197561 */\n  0x1105cc789a725b7fec51c250d61a28b879670a441f6c3b517ace3ab51df7d539\n    /* \"Semaphore/.git/objects/08/SemaphoreVerifier.sol\":2009:17669  uint256[14][MAX_DEPTH] VK_POINTS = [... */\n  dup2\n  mstore\n  0x20\n  add\n    /* \"Semaphore/.git/objects/08/SemaphoreVerifier.sol\":4855:4931  8605006500231713390564760089884965869867818332514275728271802101761117177706 */\n  0x130642d65fa756a54c5e1ceabd2c06d86b14d2ed7430e0e196268d295df6c76a\n    /* \"Semaphore/.git/objects/08/SemaphoreVerifier.sol\":2009:17669  uint256[14][MAX_DEPTH] VK_POINTS = [... */\n  dup2\n  mstore\n  0x20\n  add\n    /* \"Semaphore/.git/objects/08/SemaphoreVerifier.sol\":4946:5023  15390497513810955087868026868634948499789494261604405008298272598684585331879 */\n  0x2206b6806756f52165d90c6d231b42f92c881f8bd777b05f8c44faf1555a8ca7\n    /* \"Semaphore/.git/objects/08/SemaphoreVerifier.sol\":2009:17669  uint256[14][MAX_DEPTH] VK_POINTS = [... */\n  dup2\n  mstore\n  0x20\n  add\n    /* \"Semaphore/.git/objects/08/SemaphoreVerifier.sol\":5038:5114  1172653041469601107707030355715854571110526375194334139771259673595104816259 */\n  0x0297b2b6bd8bbe44425c3eeecb10a403170c8b30fb3b82ddab710282ead16c83\n    /* \"Semaphore/.git/objects/08/SemaphoreVerifier.sol\":2009:17669  uint256[14][MAX_DEPTH] VK_POINTS = [... */\n  dup2\n  mstore\n  0x20\n  add\n    /* \"Semaphore/.git/objects/08/SemaphoreVerifier.sol\":5129:5204  139822645729727942447876327389754883087551266970976361358585992124005959663 */\n  0x4f23062ceb024a83e0ce73b6d6010a1aa93e268b487743d026d297ce0547ef\n    /* \"Semaphore/.git/objects/08/SemaphoreVerifier.sol\":2009:17669  uint256[14][MAX_DEPTH] VK_POINTS = [... */\n  dup2\n  mstore\n  0x20\n  add\n    /* \"Semaphore/.git/objects/08/SemaphoreVerifier.sol\":5219:5294  807568760006422352594797418374693945705914727214443753238278163089338607471 */\n  0x01c911561e000e67e8ab0f6723d51d1f5dec89542a2cda2dbe380783e03f276f\n    /* \"Semaphore/.git/objects/08/SemaphoreVerifier.sol\":2009:17669  uint256[14][MAX_DEPTH] VK_POINTS = [... */\n  dup2\n  mstore\n  0x20\n  add\n    /* \"Semaphore/.git/objects/08/SemaphoreVerifier.sol\":5309:5386  19362805143026565781098954744725161233661862485826387437200176803022106919133 */\n  0x2acef5974f8e14cb7bddc41daa6f53580dd42a9df7017d01d2ca4b8f702600dd\n    /* \"Semaphore/.git/objects/08/SemaphoreVerifier.sol\":2009:17669  uint256[14][MAX_DEPTH] VK_POINTS = [... */\n  dup2\n  mstore\n  0x20\n  add\n    /* \"Semaphore/.git/objects/08/SemaphoreVerifier.sol\":5401:5477  9457043262004277983171082100772969689099515860060732671699192102623198243288 */\n  0x14e87f2e58f15efda3cc2d3e9f83bbcfcdeb4974a54e5c55777011f9b792e9d8\n    /* \"Semaphore/.git/objects/08/SemaphoreVerifier.sol\":2009:17669  uint256[14][MAX_DEPTH] VK_POINTS = [... */\n  dup2\n  mstore\n  0x20\n  add\n    /* \"Semaphore/.git/objects/08/SemaphoreVerifier.sol\":5492:5569  19229090298682361289811638032020124933114889462217199961448135904896325661193 */\n  0x2a83478814788be4717b525824bb1ed69f4598d7b977590234806b68715a3209\n    /* \"Semaphore/.git/objects/08/SemaphoreVerifier.sol\":2009:17669  uint256[14][MAX_DEPTH] VK_POINTS = [... */\n  dup2\n  mstore\n  0x20\n  add\n    /* \"Semaphore/.git/objects/08/SemaphoreVerifier.sol\":5584:5661  18883326163102164343877677909116984239805709949130729675634413304023108763212 */\n  0x29bf95777f03da3719c1576cc963aa131ff8a8c7e7d7571bd6f499f6d02b3e4c\n    /* \"Semaphore/.git/objects/08/SemaphoreVerifier.sol\":2009:17669  uint256[14][MAX_DEPTH] VK_POINTS = [... */\n  dup2\n  mstore\n  0x20\n  add\n    /* \"Semaphore/.git/objects/08/SemaphoreVerifier.sol\":5676:5752  2795333364660917174391473381893559091159208514832297547909172862364581446206 */\n  0x062e1a45181ed3c3c1bec6e2ad2f36468ff233142af4af31325cdfa1f2dd423e\n    /* \"Semaphore/.git/objects/08/SemaphoreVerifier.sol\":2009:17669  uint256[14][MAX_DEPTH] VK_POINTS = [... */\n  dup2\n  mstore\n  0x20\n  add\n    /* \"Semaphore/.git/objects/08/SemaphoreVerifier.sol\":5767:5844  18012979848063967305324818138773222084850070233834350625943804711450349870116 */\n  0x27d2fc3c724c259029cd00dfcdee2dbfc356b420922ae33ceac7e8053cc71c24\n    /* \"Semaphore/.git/objects/08/SemaphoreVerifier.sol\":2009:17669  uint256[14][MAX_DEPTH] VK_POINTS = [... */\n  dup2\n  mstore\n  0x20\n  add\n    /* \"Semaphore/.git/objects/08/SemaphoreVerifier.sol\":5859:5936  11425098272720529401115253745902976848228234025625773037823969253767737500443 */\n  0x1942605fda94bf8b67ce81303e3594a3ae946b7b129412c4979577d0b7cfe31b\n    /* \"Semaphore/.git/objects/08/SemaphoreVerifier.sol\":2009:17669  uint256[14][MAX_DEPTH] VK_POINTS = [... */\n  dup2\n  mstore\n  pop\n  dup2\n  mstore\n  0x20\n  add\n  mload(0x40)\n  dup1\n  0x01c0\n  add\n  0x40\n  mstore\n  dup1\n    /* \"Semaphore/.git/objects/08/SemaphoreVerifier.sol\":5973:6049  9243647856126339588200227750973237380809101852206502177952556679680468734813 */\n  0x146fb822d3cb83ffdc1b4db22d6f94937a2424885d6d7039b56e54391e84535d\n    /* \"Semaphore/.git/objects/08/SemaphoreVerifier.sol\":2009:17669  uint256[14][MAX_DEPTH] VK_POINTS = [... */\n  dup2\n  mstore\n  0x20\n  add\n    /* \"Semaphore/.git/objects/08/SemaphoreVerifier.sol\":6064:6140  2561989864654045354260435368824127763249975523256535586391379695256700207392 */\n  0x05aa08eda3c5c049dc1a5915df0c2b67c3619da9650af2bd09e7b2617d804120\n    /* \"Semaphore/.git/objects/08/SemaphoreVerifier.sol\":2009:17669  uint256[14][MAX_DEPTH] VK_POINTS = [... */\n  dup2\n  mstore\n  0x20\n  add\n    /* \"Semaphore/.git/objects/08/SemaphoreVerifier.sol\":6155:6231  1308059969166897152269078839315249187046718124106168932020710683189419160756 */\n  0x02e455f0d4bda17e5d934aa338f0310c74550e1f8da686e30dc1560cb77bb4b4\n    /* \"Semaphore/.git/objects/08/SemaphoreVerifier.sol\":2009:17669  uint256[14][MAX_DEPTH] VK_POINTS = [... */\n  dup2\n  mstore\n  0x20\n  add\n    /* \"Semaphore/.git/objects/08/SemaphoreVerifier.sol\":6246:6323  18264861452415533737686303596832882667852638121244187636443702248458018416929 */\n  0x28618b94685412e5b97988cc831b8b4aeb3b545a8c8f8fb1fcf34ebe36cce921\n    /* \"Semaphore/.git/objects/08/SemaphoreVerifier.sol\":2009:17669  uint256[14][MAX_DEPTH] VK_POINTS = [... */\n  dup2\n  mstore\n  0x20\n  add\n    /* \"Semaphore/.git/objects/08/SemaphoreVerifier.sol\":6338:6414  5735580005765404165535708760854311053102182143614810924129912232734875728422 */\n  0x0cae392659f88489291a63eef467d5e0bd7c42320216762705adcb574fa43a26\n    /* \"Semaphore/.git/objects/08/SemaphoreVerifier.sol\":2009:17669  uint256[14][MAX_DEPTH] VK_POINTS = [... */\n  dup2\n  mstore\n  0x20\n  add\n    /* \"Semaphore/.git/objects/08/SemaphoreVerifier.sol\":6429:6506  12547270286864340931439010083179993915942911007015778927394042746771813715897 */\n  0x1bbd80d93947826138ab9feec5dbe6e3a5bb3f5e3d814bd53e72d211cc884fb9\n    /* \"Semaphore/.git/objects/08/SemaphoreVerifier.sol\":2009:17669  uint256[14][MAX_DEPTH] VK_POINTS = [... */\n  dup2\n  mstore\n  0x20\n  add\n    /* \"Semaphore/.git/objects/08/SemaphoreVerifier.sol\":6521:6598  17861179987982979247789643870162154315308943006677455616368767345181299723498 */\n  0x277d11d2b31a0054843d07c876991ec302c34cf7f493bd1db86b6e3ef73a4cea\n    /* \"Semaphore/.git/objects/08/SemaphoreVerifier.sol\":2009:17669  uint256[14][MAX_DEPTH] VK_POINTS = [... */\n  dup2\n  mstore\n  0x20\n  add\n    /* \"Semaphore/.git/objects/08/SemaphoreVerifier.sol\":6613:6690  12520843301982976970226379882714814545061255956743392202788539428471921045815 */\n  0x1bae8bd1e005ad0ba9e4359677c814fe054041b10361ce387a7356281ca5f137\n    /* \"Semaphore/.git/objects/08/SemaphoreVerifier.sol\":2009:17669  uint256[14][MAX_DEPTH] VK_POINTS = [... */\n  dup2\n  mstore\n  0x20\n  add\n    /* \"Semaphore/.git/objects/08/SemaphoreVerifier.sol\":6705:6780  709419095293140562723620898844593712074413125125086760533949250121053456086 */\n  0x01918458b77ddc49e149dd542b09dde77a473f9c0af990678e4b6421b89746d6\n    /* \"Semaphore/.git/objects/08/SemaphoreVerifier.sol\":2009:17669  uint256[14][MAX_DEPTH] VK_POINTS = [... */\n  dup2\n  mstore\n  0x20\n  add\n    /* \"Semaphore/.git/objects/08/SemaphoreVerifier.sol\":6795:6872  20254885558410038279405227446341995510955697359900050994091569463713580982280 */\n  0x2cc7dbe4f27e8b13baaa5dfaa61f221b6d841787e41dc4b484e12e54b4442008\n    /* \"Semaphore/.git/objects/08/SemaphoreVerifier.sol\":2009:17669  uint256[14][MAX_DEPTH] VK_POINTS = [... */\n  dup2\n  mstore\n  0x20\n  add\n    /* \"Semaphore/.git/objects/08/SemaphoreVerifier.sol\":6887:6963  8876829807505794597615690202974184696287415186921508358861381955321520402876 */\n  0x13a01b8d34c04dbdfd35e59960387931050b32d0a17f05eb3dfd0a494e5f31bc\n    /* \"Semaphore/.git/objects/08/SemaphoreVerifier.sol\":2009:17669  uint256[14][MAX_DEPTH] VK_POINTS = [... */\n  dup2\n  mstore\n  0x20\n  add\n    /* \"Semaphore/.git/objects/08/SemaphoreVerifier.sol\":6978:7054  9692396410060123455009190221005078571838194435772371581970098240972280778466 */\n  0x156db3b3ca7c27276bead97a9643b6a12666de3004c1478fee65d8fa04374ee2\n    /* \"Semaphore/.git/objects/08/SemaphoreVerifier.sol\":2009:17669  uint256[14][MAX_DEPTH] VK_POINTS = [... */\n  dup2\n  mstore\n  0x20\n  add\n    /* \"Semaphore/.git/objects/08/SemaphoreVerifier.sol\":7069:7146  11541729643712807778212647011796800767186857085220105751644556558522744760878 */\n  0x19846331d71e7b7512afbbde8d9fc48a75f86dd30e7ddc34e30b6e9fecdaea2e\n    /* \"Semaphore/.git/objects/08/SemaphoreVerifier.sol\":2009:17669  uint256[14][MAX_DEPTH] VK_POINTS = [... */\n  dup2\n  mstore\n  0x20\n  add\n    /* \"Semaphore/.git/objects/08/SemaphoreVerifier.sol\":7161:7237  7117533920695574619512162711113223946930183977424569115798612426749467545080 */\n  0x0fbc61a5f6b54b4372627c40e3a9dbca5607c92614a0fb7405a30418698dcdf8\n    /* \"Semaphore/.git/objects/08/SemaphoreVerifier.sol\":2009:17669  uint256[14][MAX_DEPTH] VK_POINTS = [... */\n  dup2\n  mstore\n  pop\n  dup2\n  mstore\n  0x20\n  add\n  mload(0x40)\n  dup1\n  0x01c0\n  add\n  0x40\n  mstore\n  dup1\n    /* \"Semaphore/.git/objects/08/SemaphoreVerifier.sol\":7274:7351  12554869896570109663558999106053541183136083706372178136870048170147558661370 */\n  0x1bc1cdf66a14f07180056d51b17e14fdb0587dd43cb34be6716b1e252adb1cfa\n    /* \"Semaphore/.git/objects/08/SemaphoreVerifier.sol\":2009:17669  uint256[14][MAX_DEPTH] VK_POINTS = [... */\n  dup2\n  mstore\n  0x20\n  add\n    /* \"Semaphore/.git/objects/08/SemaphoreVerifier.sol\":7366:7443  21307904757295729894500052152251151076177124351059746872940558537429181679313 */\n  0x2f1bd8c1d7195efb5bd5652c60cb5665222103196ec5fd17260f24147a5246d1\n    /* \"Semaphore/.git/objects/08/SemaphoreVerifier.sol\":2009:17669  uint256[14][MAX_DEPTH] VK_POINTS = [... */\n  dup2\n  mstore\n  0x20\n  add\n    /* \"Semaphore/.git/objects/08/SemaphoreVerifier.sol\":7458:7535  13447792161027167738515744919555311619301071111923271126707713963292614473975 */\n  0x1dbb2e3df7ee585ad22503c13ddcc0c89de2de8e99256ddc68cf582d79e038f7\n    /* \"Semaphore/.git/objects/08/SemaphoreVerifier.sol\":2009:17669  uint256[14][MAX_DEPTH] VK_POINTS = [... */\n  dup2\n  mstore\n  0x20\n  add\n    /* \"Semaphore/.git/objects/08/SemaphoreVerifier.sol\":7550:7627  11194665041440536766843756304212299788817698936187605770131686430625103172681 */\n  0x18bff4b4441669229b6cc7aadb911025f8eab818235854fc7f5f9ffb7ea55449\n    /* \"Semaphore/.git/objects/08/SemaphoreVerifier.sol\":2009:17669  uint256[14][MAX_DEPTH] VK_POINTS = [... */\n  dup2\n  mstore\n  0x20\n  add\n    /* \"Semaphore/.git/objects/08/SemaphoreVerifier.sol\":7642:7718  7022760843802757109079393624924627417630030139055381384837279305453559861026 */\n  0x0f86bde52a992c0d79ef3627e1b8b59173f58d06a3afecff95f8f4fff637cf22\n    /* \"Semaphore/.git/objects/08/SemaphoreVerifier.sol\":2009:17669  uint256[14][MAX_DEPTH] VK_POINTS = [... */\n  dup2\n  mstore\n  0x20\n  add\n    /* \"Semaphore/.git/objects/08/SemaphoreVerifier.sol\":7733:7810  14368180091281110030022253036601349874026580767275461373222397498585380849175 */\n  0x1fc41a0bb009782293fbec9b6eba20e2b8c663aa15a16abc6eed9d69e9308617\n    /* \"Semaphore/.git/objects/08/SemaphoreVerifier.sol\":2009:17669  uint256[14][MAX_DEPTH] VK_POINTS = [... */\n  dup2\n  mstore\n  0x20\n  add\n    /* \"Semaphore/.git/objects/08/SemaphoreVerifier.sol\":7825:7902  20362090815079102760789516334841889611927869342884580401494938701237909313479 */\n  0x2d0488f4ebe5a068b01133b98ebb80d78963f244b3aa8068ba6c80718b65d7c7\n    /* \"Semaphore/.git/objects/08/SemaphoreVerifier.sol\":2009:17669  uint256[14][MAX_DEPTH] VK_POINTS = [... */\n  dup2\n  mstore\n  0x20\n  add\n    /* \"Semaphore/.git/objects/08/SemaphoreVerifier.sol\":7917:7994  11683916255585393494577805363227207275174890005674166623110857790951330330248 */\n  0x19d4dcbc64b1fcc9dcf3db4c6ca7cef9900698f8bb6557ade9e5cf367beeb688\n    /* \"Semaphore/.git/objects/08/SemaphoreVerifier.sol\":2009:17669  uint256[14][MAX_DEPTH] VK_POINTS = [... */\n  dup2\n  mstore\n  0x20\n  add\n    /* \"Semaphore/.git/objects/08/SemaphoreVerifier.sol\":8009:8086  21680925564107543632769644144771629045807478787600735681275069556336841549441 */\n  0x2feef8108cc2379d73513a82eea70cd81a181c2e33ca89d0330ca838745d6681\n    /* \"Semaphore/.git/objects/08/SemaphoreVerifier.sol\":2009:17669  uint256[14][MAX_DEPTH] VK_POINTS = [... */\n  dup2\n  mstore\n  0x20\n  add\n    /* \"Semaphore/.git/objects/08/SemaphoreVerifier.sol\":8101:8177  1554686039880869088226596836931999292372497423378849142389700108361111176287 */\n  0x036febce371368756a43cd14d3a6af46d362a5c35e72804e6fe78b527104045f\n    /* \"Semaphore/.git/objects/08/SemaphoreVerifier.sol\":2009:17669  uint256[14][MAX_DEPTH] VK_POINTS = [... */\n  dup2\n  mstore\n  0x20\n  add\n    /* \"Semaphore/.git/objects/08/SemaphoreVerifier.sol\":8192:8268  9553151402225656007352139561853210183786116738154807824913092141416366824324 */\n  0x151ee45f65557c9fccff218169be14dc1b78cc4a90d3b0b9d506e5ec6d495b84\n    /* \"Semaphore/.git/objects/08/SemaphoreVerifier.sol\":2009:17669  uint256[14][MAX_DEPTH] VK_POINTS = [... */\n  dup2\n  mstore\n  0x20\n  add\n    /* \"Semaphore/.git/objects/08/SemaphoreVerifier.sol\":8283:8360  21774504332021003611111291017295441063483107704370481606906960187337904118400 */\n  0x3023eec5f70baff57dd0415700fd8b546f2637b0cad1cd2b1df1741021425a80\n    /* \"Semaphore/.git/objects/08/SemaphoreVerifier.sol\":2009:17669  uint256[14][MAX_DEPTH] VK_POINTS = [... */\n  dup2\n  mstore\n  0x20\n  add\n    /* \"Semaphore/.git/objects/08/SemaphoreVerifier.sol\":8375:8451  3472743162059388238264946309663113383560193397376658519781344886918012396958 */\n  0x07ad80c2f6f58260557ed72bbb230c6d289d83441306a803aabf029af042e59e\n    /* \"Semaphore/.git/objects/08/SemaphoreVerifier.sol\":2009:17669  uint256[14][MAX_DEPTH] VK_POINTS = [... */\n  dup2\n  mstore\n  0x20\n  add\n    /* \"Semaphore/.git/objects/08/SemaphoreVerifier.sol\":8466:8543  21850707327192737842691835772722844106916466129654852946865863108319178245521 */\n  0x304f0fe42620f00d880b9f1a56f71db31c431fe3be02c54c665efe9d8771c591\n    /* \"Semaphore/.git/objects/08/SemaphoreVerifier.sol\":2009:17669  uint256[14][MAX_DEPTH] VK_POINTS = [... */\n  dup2\n  mstore\n  pop\n  dup2\n  mstore\n  0x20\n  add\n  mload(0x40)\n  dup1\n  0x01c0\n  add\n  0x40\n  mstore\n  dup1\n    /* \"Semaphore/.git/objects/08/SemaphoreVerifier.sol\":8580:8656  6841243505372324564043525805425666596605335849634400049689614462868641599622 */\n  0x0f2001b0e2808cbe9fbe1ccdb7ed5af2c802913d179c5e1f5a220404b5d0d086\n    /* \"Semaphore/.git/objects/08/SemaphoreVerifier.sol\":2009:17669  uint256[14][MAX_DEPTH] VK_POINTS = [... */\n  dup2\n  mstore\n  0x20\n  add\n    /* \"Semaphore/.git/objects/08/SemaphoreVerifier.sol\":8671:8748  11706947284665470438085734275890584651957983546291282232304205898476084974953 */\n  0x19e1e5b8bd9467181560627b0129b48bbca4d2a563ce06dba1396a8cd096d569\n    /* \"Semaphore/.git/objects/08/SemaphoreVerifier.sol\":2009:17669  uint256[14][MAX_DEPTH] VK_POINTS = [... */\n  dup2\n  mstore\n  0x20\n  add\n    /* \"Semaphore/.git/objects/08/SemaphoreVerifier.sol\":8763:8839  8134420958061302592465696766566203845441024351721660066575866529624350946525 */\n  0x11fbeb4a7fcca72609e8e1afe73a7782b5110b95515c16ad922b02fcc9a674dd\n    /* \"Semaphore/.git/objects/08/SemaphoreVerifier.sol\":2009:17669  uint256[14][MAX_DEPTH] VK_POINTS = [... */\n  dup2\n  mstore\n  0x20\n  add\n    /* \"Semaphore/.git/objects/08/SemaphoreVerifier.sol\":8854:8930  2674642993002069213220912300725195098434544703961492590713058622848310061455 */\n  0x05e9cb5667c5dcbe735ffbf57e7476411903f06314f24a60a24c3889df82298f\n    /* \"Semaphore/.git/objects/08/SemaphoreVerifier.sol\":2009:17669  uint256[14][MAX_DEPTH] VK_POINTS = [... */\n  dup2\n  mstore\n  0x20\n  add\n    /* \"Semaphore/.git/objects/08/SemaphoreVerifier.sol\":8945:9022  14007544454490183581525584522132854274412440955138184221862170710084681738226 */\n  0x1ef7fd3c775a80711f137928f1ac39bbbb01a89943bc5c43739ec9173fe027f2\n    /* \"Semaphore/.git/objects/08/SemaphoreVerifier.sol\":2009:17669  uint256[14][MAX_DEPTH] VK_POINTS = [... */\n  dup2\n  mstore\n  0x20\n  add\n    /* \"Semaphore/.git/objects/08/SemaphoreVerifier.sol\":9037:9113  9427297140302346741340407818949601657384670126565058224960470754064287232598 */\n  0x14d7a93d5f26077e0a6eaaa4bd738bae57ff22aadf8a8473943b6f644f697256\n    /* \"Semaphore/.git/objects/08/SemaphoreVerifier.sol\":2009:17669  uint256[14][MAX_DEPTH] VK_POINTS = [... */\n  dup2\n  mstore\n  0x20\n  add\n    /* \"Semaphore/.git/objects/08/SemaphoreVerifier.sol\":9128:9204  9424279417196769259939653963004219272435595656090601392111859177294419276463 */\n  0x14d5f3ffccf62b2b26972a6d7dfcb776332b20433ddbb4f9a828e40f7b4d32af\n    /* \"Semaphore/.git/objects/08/SemaphoreVerifier.sol\":2009:17669  uint256[14][MAX_DEPTH] VK_POINTS = [... */\n  dup2\n  mstore\n  0x20\n  add\n    /* \"Semaphore/.git/objects/08/SemaphoreVerifier.sol\":9219:9295  5159704841441138198509282351301933053602549958584575945916187562678590534936 */\n  0x0b684a19560776462c22d8791f3e97bcfac812fa12ee8703030ff95c4bf27518\n    /* \"Semaphore/.git/objects/08/SemaphoreVerifier.sol\":2009:17669  uint256[14][MAX_DEPTH] VK_POINTS = [... */\n  dup2\n  mstore\n  0x20\n  add\n    /* \"Semaphore/.git/objects/08/SemaphoreVerifier.sol\":9310:9386  5934282708091541939003757621608766449985810436411564642900129758520734711260 */\n  0x0d1eaf5b352c9588c6c20031067dd28a5a363b4aeedbb4aeed3aa978dbc8fddc\n    /* \"Semaphore/.git/objects/08/SemaphoreVerifier.sol\":2009:17669  uint256[14][MAX_DEPTH] VK_POINTS = [... */\n  dup2\n  mstore\n  0x20\n  add\n    /* \"Semaphore/.git/objects/08/SemaphoreVerifier.sol\":9401:9477  6572936900512215029112509161886160866328777917297795430264727434969553346474 */\n  0x0e882683cb6b0d55e194c3d5708b62be8b91a9941142587ede47096e204c9faa\n    /* \"Semaphore/.git/objects/08/SemaphoreVerifier.sol\":2009:17669  uint256[14][MAX_DEPTH] VK_POINTS = [... */\n  dup2\n  mstore\n  0x20\n  add\n    /* \"Semaphore/.git/objects/08/SemaphoreVerifier.sol\":9492:9569  17332317297867087005634642159909283377570778576256008720318658354552654813365 */\n  0x2651be7344e6be5368f137de2166acaeda517815aec590822b47f98f577858b5\n    /* \"Semaphore/.git/objects/08/SemaphoreVerifier.sol\":2009:17669  uint256[14][MAX_DEPTH] VK_POINTS = [... */\n  dup2\n  mstore\n  0x20\n  add\n    /* \"Semaphore/.git/objects/08/SemaphoreVerifier.sol\":9584:9661  20469716791176463599463762213563135543375669917658488173798369718370224346075 */\n  0x2d4172fa3f220bdd4d4b3d69455897b30a51f27586a9b369a9536c51d00093db\n    /* \"Semaphore/.git/objects/08/SemaphoreVerifier.sol\":2009:17669  uint256[14][MAX_DEPTH] VK_POINTS = [... */\n  dup2\n  mstore\n  0x20\n  add\n    /* \"Semaphore/.git/objects/08/SemaphoreVerifier.sol\":9676:9753  11895216520141526042182770992519307655836464153974170586288146149131884093776 */\n  0x1a4c7436cd7c282eaf249163b2a726daa3fb2737e38da00f615a495036eee150\n    /* \"Semaphore/.git/objects/08/SemaphoreVerifier.sol\":2009:17669  uint256[14][MAX_DEPTH] VK_POINTS = [... */\n  dup2\n  mstore\n  0x20\n  add\n    /* \"Semaphore/.git/objects/08/SemaphoreVerifier.sol\":9768:9844  2345310584279491449819095573562431881564998414485162753036518957549727207513 */\n  0x052f661471df979be9aead5b150e64f05734858cebf8abdd31500ebe9daf5059\n    /* \"Semaphore/.git/objects/08/SemaphoreVerifier.sol\":2009:17669  uint256[14][MAX_DEPTH] VK_POINTS = [... */\n  dup2\n  mstore\n  pop\n  dup2\n  mstore\n  0x20\n  add\n  mload(0x40)\n  dup1\n  0x01c0\n  add\n  0x40\n  mstore\n  dup1\n    /* \"Semaphore/.git/objects/08/SemaphoreVerifier.sol\":9881:9958  16222168105567777760688113388791710300819703656136395550799888633073848798053 */\n  0x23dd6bf92585d187ac2d4671cf13f94d985feb5b3719c40ab35592d2f647cb65\n    /* \"Semaphore/.git/objects/08/SemaphoreVerifier.sol\":2009:17669  uint256[14][MAX_DEPTH] VK_POINTS = [... */\n  dup2\n  mstore\n  0x20\n  add\n    /* \"Semaphore/.git/objects/08/SemaphoreVerifier.sol\":9973:10050  14347453588631116202352669855016330076170847581618919999243717038742915487177 */\n  0x1fb85ef6f9fdc6083995ff6aad9ae22a98752a601abaf3d534cf980df6f795c9\n    /* \"Semaphore/.git/objects/08/SemaphoreVerifier.sol\":2009:17669  uint256[14][MAX_DEPTH] VK_POINTS = [... */\n  dup2\n  mstore\n  0x20\n  add\n    /* \"Semaphore/.git/objects/08/SemaphoreVerifier.sol\":10065:10141  1551977748690015855031859376084014992267998166583511614295554470740621685494 */\n  0x036e63661c990ad12eb950cd2e0584372457358ac5cc984ce91a87677c1672f6\n    /* \"Semaphore/.git/objects/08/SemaphoreVerifier.sol\":2009:17669  uint256[14][MAX_DEPTH] VK_POINTS = [... */\n  dup2\n  mstore\n  0x20\n  add\n    /* \"Semaphore/.git/objects/08/SemaphoreVerifier.sol\":10156:10232  5558376366205739247464101507558623934779699722049069497418188353860561540238 */\n  0x0c49edf60dbc9d2851dcc8c716e0c6d45d3497aa997c6eb957466cae69c0148e\n    /* \"Semaphore/.git/objects/08/SemaphoreVerifier.sol\":2009:17669  uint256[14][MAX_DEPTH] VK_POINTS = [... */\n  dup2\n  mstore\n  0x20\n  add\n    /* \"Semaphore/.git/objects/08/SemaphoreVerifier.sol\":10247:10324  15084362489402846752495176069529022447007294106313236924068931072406922960482 */\n  0x215972553fb8fff61a3121aafee6a99b3b8357e1f28bbd0239a4f4465edf9e62\n    /* \"Semaphore/.git/objects/08/SemaphoreVerifier.sol\":2009:17669  uint256[14][MAX_DEPTH] VK_POINTS = [... */\n  dup2\n  mstore\n  0x20\n  add\n    /* \"Semaphore/.git/objects/08/SemaphoreVerifier.sol\":10339:10416  17446301099629553693162731281967866078816607293341610477850995414321505446665 */\n  0x269241a97474c2eb2646670ae0caa1c92101a39b35992b7ec79e256ab1d32b09\n    /* \"Semaphore/.git/objects/08/SemaphoreVerifier.sol\":2009:17669  uint256[14][MAX_DEPTH] VK_POINTS = [... */\n  dup2\n  mstore\n  0x20\n  add\n    /* \"Semaphore/.git/objects/08/SemaphoreVerifier.sol\":10431:10508  15416633712259927998995598381829216728913683600537032862643171407716059372732 */\n  0x22158165e2541a0a6527743827c084bc86de22b85ecfb896314ade24b266dcbc\n    /* \"Semaphore/.git/objects/08/SemaphoreVerifier.sol\":2009:17669  uint256[14][MAX_DEPTH] VK_POINTS = [... */\n  dup2\n  mstore\n  0x20\n  add\n    /* \"Semaphore/.git/objects/08/SemaphoreVerifier.sol\":10523:10599  6910124994917236999728700744617337824847623550680442113266553962793201270115 */\n  0x0f46fdfd54e79b00e309b8dc467108870e7d88f634094b67a8cc39d8a0137d63\n    /* \"Semaphore/.git/objects/08/SemaphoreVerifier.sol\":2009:17669  uint256[14][MAX_DEPTH] VK_POINTS = [... */\n  dup2\n  mstore\n  0x20\n  add\n    /* \"Semaphore/.git/objects/08/SemaphoreVerifier.sol\":10614:10690  3240338086312503075747637551773566329150860621223080774242357236897458479365 */\n  0x0729f76399befc2699e621290467ead8869b064300743ff00e5d8f29c1f4e105\n    /* \"Semaphore/.git/objects/08/SemaphoreVerifier.sol\":2009:17669  uint256[14][MAX_DEPTH] VK_POINTS = [... */\n  dup2\n  mstore\n  0x20\n  add\n    /* \"Semaphore/.git/objects/08/SemaphoreVerifier.sol\":10705:10781  9706162939164863315053907226494918827393300584078535638283184502242772542378 */\n  0x15757e58bc3916c6838d401b015d3cb65334be4194b9a1b023db43def60463aa\n    /* \"Semaphore/.git/objects/08/SemaphoreVerifier.sol\":2009:17669  uint256[14][MAX_DEPTH] VK_POINTS = [... */\n  dup2\n  mstore\n  0x20\n  add\n    /* \"Semaphore/.git/objects/08/SemaphoreVerifier.sol\":10796:10872  3821371825593696440611637099905775310839636477646533943959149234595561019388 */\n  0x0872d1decba9a9852e202eba96f8a1ab09c7db0fd986416415785e24f49917fc\n    /* \"Semaphore/.git/objects/08/SemaphoreVerifier.sol\":2009:17669  uint256[14][MAX_DEPTH] VK_POINTS = [... */\n  dup2\n  mstore\n  0x20\n  add\n    /* \"Semaphore/.git/objects/08/SemaphoreVerifier.sol\":10887:10964  12220054708690507765048929995921680127285008492320123722886943219569231705313 */\n  0x1b044e4cdf43015374e1b202cfd5b7b1bc24c8000b03eb6ea6b47e27f798b4e1\n    /* \"Semaphore/.git/objects/08/SemaphoreVerifier.sol\":2009:17669  uint256[14][MAX_DEPTH] VK_POINTS = [... */\n  dup2\n  mstore\n  0x20\n  add\n    /* \"Semaphore/.git/objects/08/SemaphoreVerifier.sol\":10979:11056  16484014909498227505527128570845947338361237083477117662394990633734193572570 */\n  0x24719f2ee741477db930f10849677e3744c9a7bcd40725d59147122ae3c86ada\n    /* \"Semaphore/.git/objects/08/SemaphoreVerifier.sol\":2009:17669  uint256[14][MAX_DEPTH] VK_POINTS = [... */\n  dup2\n  mstore\n  0x20\n  add\n    /* \"Semaphore/.git/objects/08/SemaphoreVerifier.sol\":11071:11148  15639273550026538537711009501005182488432976272250651065072907504931158455474 */\n  0x229383e070bf106140ea30a9f70bae89db9e249f47d7fc7298645e78d35d74b2\n    /* \"Semaphore/.git/objects/08/SemaphoreVerifier.sol\":2009:17669  uint256[14][MAX_DEPTH] VK_POINTS = [... */\n  dup2\n  mstore\n  pop\n  dup2\n  mstore\n  0x20\n  add\n  mload(0x40)\n  dup1\n  0x01c0\n  add\n  0x40\n  mstore\n  dup1\n    /* \"Semaphore/.git/objects/08/SemaphoreVerifier.sol\":11185:11261  8039261311473792027408130340265108867783988336829815266149766357424909552805 */\n  0x11c60f8708f714a35e9802644cf964dea7b833fca39c3222b8a41d69192b8ca5\n    /* \"Semaphore/.git/objects/08/SemaphoreVerifier.sol\":2009:17669  uint256[14][MAX_DEPTH] VK_POINTS = [... */\n  dup2\n  mstore\n  0x20\n  add\n    /* \"Semaphore/.git/objects/08/SemaphoreVerifier.sol\":11276:11353  13742810756711208866393269789950822956196651488331544225304557369739035583007 */\n  0x1e6227bddd81fd0e8f005549131313a938f2719603381817aa49d400a124a21f\n    /* \"Semaphore/.git/objects/08/SemaphoreVerifier.sol\":2009:17669  uint256[14][MAX_DEPTH] VK_POINTS = [... */\n  dup2\n  mstore\n  0x20\n  add\n    /* \"Semaphore/.git/objects/08/SemaphoreVerifier.sol\":11368:11444  5732605965679620193714116075516176231919315490749768120227762344555213912038 */\n  0x0cac8a3d12db8c062984c3e0d60334aac8ebfa38427efe8b38b38d158aa677e6\n    /* \"Semaphore/.git/objects/08/SemaphoreVerifier.sol\":2009:17669  uint256[14][MAX_DEPTH] VK_POINTS = [... */\n  dup2\n  mstore\n  0x20\n  add\n    /* \"Semaphore/.git/objects/08/SemaphoreVerifier.sol\":11459:11535  1426283383724925735279168010737048062664480092231550167387716017170422478271 */\n  0x03273f6efecfc1cffb2e907fe7c96167b1ae08343f80a3aabbf770692ca8b5bf\n    /* \"Semaphore/.git/objects/08/SemaphoreVerifier.sol\":2009:17669  uint256[14][MAX_DEPTH] VK_POINTS = [... */\n  dup2\n  mstore\n  0x20\n  add\n    /* \"Semaphore/.git/objects/08/SemaphoreVerifier.sol\":11550:11626  7289543915982634578897897440956973302403422297539950338836810160596047457980 */\n  0x101dbc5349e77ef96db2867138a099319784843d19ccd6671d156d33ca3d6ebc\n    /* \"Semaphore/.git/objects/08/SemaphoreVerifier.sol\":2009:17669  uint256[14][MAX_DEPTH] VK_POINTS = [... */\n  dup2\n  mstore\n  0x20\n  add\n    /* \"Semaphore/.git/objects/08/SemaphoreVerifier.sol\":11641:11718  15177295033774438197517772642364420015492974487860823338193520175227862903717 */\n  0x218e0b68e696c429bd606de3a19b9ad4d9ebb49d46bb147071231ec5f65deba5\n    /* \"Semaphore/.git/objects/08/SemaphoreVerifier.sol\":2009:17669  uint256[14][MAX_DEPTH] VK_POINTS = [... */\n  dup2\n  mstore\n  0x20\n  add\n    /* \"Semaphore/.git/objects/08/SemaphoreVerifier.sol\":11733:11809  5412509155867259433944542755241941469706034032614068890113478300647952353475 */\n  0x0bf75f2284152eb39be5ed8fef968d1c3efc61ac1844cff901e2b78bc86e08c3\n    /* \"Semaphore/.git/objects/08/SemaphoreVerifier.sol\":2009:17669  uint256[14][MAX_DEPTH] VK_POINTS = [... */\n  dup2\n  mstore\n  0x20\n  add\n    /* \"Semaphore/.git/objects/08/SemaphoreVerifier.sol\":11824:11901  16755045912589178729548422106539306191579601567866216267685082373250783779841 */\n  0x250b05198a4e6d784d61b2aaea5a8c43e30e6d13163c6e3bd2d5d7a57f6a1c01\n    /* \"Semaphore/.git/objects/08/SemaphoreVerifier.sol\":2009:17669  uint256[14][MAX_DEPTH] VK_POINTS = [... */\n  dup2\n  mstore\n  0x20\n  add\n    /* \"Semaphore/.git/objects/08/SemaphoreVerifier.sol\":11916:11991  844425885324371282218176954530597075058496766373014736097970493596574863875 */\n  0x01dded98e05eea4b37305cd85f82652eeeff6b96b58425b45ce75ee38f86d203\n    /* \"Semaphore/.git/objects/08/SemaphoreVerifier.sol\":2009:17669  uint256[14][MAX_DEPTH] VK_POINTS = [... */\n  dup2\n  mstore\n  0x20\n  add\n    /* \"Semaphore/.git/objects/08/SemaphoreVerifier.sol\":12006:12083  12323478340077628423886836431146436403221716179764806398442271274194718652143 */\n  0x1b3ed770919c526c1f28d432c5d325d48595eb2ec421336d6e664f40825776ef\n    /* \"Semaphore/.git/objects/08/SemaphoreVerifier.sol\":2009:17669  uint256[14][MAX_DEPTH] VK_POINTS = [... */\n  dup2\n  mstore\n  0x20\n  add\n    /* \"Semaphore/.git/objects/08/SemaphoreVerifier.sol\":12098:12175  19468406721151512215981453048984639951787280312568894384216547824763527840472 */\n  0x2b0aba4b8ab317a7b430445baecf7f5987ced258efa0830622603934779d42d8\n    /* \"Semaphore/.git/objects/08/SemaphoreVerifier.sol\":2009:17669  uint256[14][MAX_DEPTH] VK_POINTS = [... */\n  dup2\n  mstore\n  0x20\n  add\n    /* \"Semaphore/.git/objects/08/SemaphoreVerifier.sol\":12190:12266  6512636337641737270183934024333064400224464644359645491020358650071524340464 */\n  0x0e6605839b92f86559928b0e5e58bd17ff393fc53dc2d5e6f3afe06b0d9072f0\n    /* \"Semaphore/.git/objects/08/SemaphoreVerifier.sol\":2009:17669  uint256[14][MAX_DEPTH] VK_POINTS = [... */\n  dup2\n  mstore\n  0x20\n  add\n    /* \"Semaphore/.git/objects/08/SemaphoreVerifier.sol\":12281:12357  8198878215192784492258585011520207242810327647198332623948351347768018051267 */\n  0x1220668f0b98e6bce306615f834b9675d2b55e943e11390044d0a4759b07a0c3\n    /* \"Semaphore/.git/objects/08/SemaphoreVerifier.sol\":2009:17669  uint256[14][MAX_DEPTH] VK_POINTS = [... */\n  dup2\n  mstore\n  0x20\n  add\n    /* \"Semaphore/.git/objects/08/SemaphoreVerifier.sol\":12372:12448  8014960150646978739731831763393714179490854831922196242908407049327430863238 */\n  0x11b84e82e20896a8e9147881f50da4e0f416841c54082d02b737a3a3a5840986\n    /* \"Semaphore/.git/objects/08/SemaphoreVerifier.sol\":2009:17669  uint256[14][MAX_DEPTH] VK_POINTS = [... */\n  dup2\n  mstore\n  pop\n  dup2\n  mstore\n  0x20\n  add\n  mload(0x40)\n  dup1\n  0x01c0\n  add\n  0x40\n  mstore\n  dup1\n    /* \"Semaphore/.git/objects/08/SemaphoreVerifier.sol\":12485:12562  12816421563768297608770270654146762017343826741755988834647936785087288245221 */\n  0x1c55d668f0fa8615d358a8e6ea0f77032084bd9731a10b3718ee42b6fdaefbe5\n    /* \"Semaphore/.git/objects/08/SemaphoreVerifier.sol\":2009:17669  uint256[14][MAX_DEPTH] VK_POINTS = [... */\n  dup2\n  mstore\n  0x20\n  add\n    /* \"Semaphore/.git/objects/08/SemaphoreVerifier.sol\":12577:12653  4869230832458710492613139050501069397194236257402947715710705773326736170245 */\n  0x0ac3e311875aa40fd753aad1507d6cb4e38d42ef65feb48ff137f1b21b461d05\n    /* \"Semaphore/.git/objects/08/SemaphoreVerifier.sol\":2009:17669  uint256[14][MAX_DEPTH] VK_POINTS = [... */\n  dup2\n  mstore\n  0x20\n  add\n    /* \"Semaphore/.git/objects/08/SemaphoreVerifier.sol\":12668:12745  18301439700961740613282752163964601039402055729651579152511810295028351855917 */\n  0x28763f6f0d6b8fa547ae8369793636b291ee8750cc430cefe97bfd4baac96d2d\n    /* \"Semaphore/.git/objects/08/SemaphoreVerifier.sol\":2009:17669  uint256[14][MAX_DEPTH] VK_POINTS = [... */\n  dup2\n  mstore\n  0x20\n  add\n    /* \"Semaphore/.git/objects/08/SemaphoreVerifier.sol\":12760:12837  11073344652802336528382437239976464979745376329678013840706100925574578891663 */\n  0x187b4a7cf2d4e3ffe2b0f9809d298b06821f9ef6731e24636d9a0f28794eeb8f\n    /* \"Semaphore/.git/objects/08/SemaphoreVerifier.sol\":2009:17669  uint256[14][MAX_DEPTH] VK_POINTS = [... */\n  dup2\n  mstore\n  0x20\n  add\n    /* \"Semaphore/.git/objects/08/SemaphoreVerifier.sol\":12852:12928  9107882721143487446664847981273782313316003453386555221878701631432129058401 */\n  0x1422e102170d9718b1a52839ffe6b9c5d14a607c7ecbbef752de37ee57651661\n    /* \"Semaphore/.git/objects/08/SemaphoreVerifier.sol\":2009:17669  uint256[14][MAX_DEPTH] VK_POINTS = [... */\n  dup2\n  mstore\n  0x20\n  add\n    /* \"Semaphore/.git/objects/08/SemaphoreVerifier.sol\":12943:13019  9441695541513726822451572070540177043748046411169636568582927338148104680158 */\n  0x14dfcf6fc14826c0fad5d5e96863a1ddeb61714b2980876766aa04484ccab2de\n    /* \"Semaphore/.git/objects/08/SemaphoreVerifier.sol\":2009:17669  uint256[14][MAX_DEPTH] VK_POINTS = [... */\n  dup2\n  mstore\n  0x20\n  add\n    /* \"Semaphore/.git/objects/08/SemaphoreVerifier.sol\":13034:13110  8987068930426301924419900826390508311526176863992306858982473479912439758010 */\n  0x13de803188ad0eb01bd75707816728e4edd0889f66729cd6dd74f9c435193cba\n    /* \"Semaphore/.git/objects/08/SemaphoreVerifier.sol\":2009:17669  uint256[14][MAX_DEPTH] VK_POINTS = [... */\n  dup2\n  mstore\n  0x20\n  add\n    /* \"Semaphore/.git/objects/08/SemaphoreVerifier.sol\":13125:13201  1725109031239210601724581840155988791039497876559382612372874257775877974323 */\n  0x03d0608a4af4381d7e8e55699bc86bbe7129ecc48139da64f482e369f7246933\n    /* \"Semaphore/.git/objects/08/SemaphoreVerifier.sol\":2009:17669  uint256[14][MAX_DEPTH] VK_POINTS = [... */\n  dup2\n  mstore\n  0x20\n  add\n    /* \"Semaphore/.git/objects/08/SemaphoreVerifier.sol\":13216:13293  18516110346729610211387987894593386281257834088357741109524145966500785499183 */\n  0x28efbf3fd955c09ee8a42f4bff0291c4ba84c475e56f1216e86cf2294c3d2c2f\n    /* \"Semaphore/.git/objects/08/SemaphoreVerifier.sol\":2009:17669  uint256[14][MAX_DEPTH] VK_POINTS = [... */\n  dup2\n  mstore\n  0x20\n  add\n    /* \"Semaphore/.git/objects/08/SemaphoreVerifier.sol\":13308:13383  114078214476076549461901405178268623018026929846201249476869510133510589766 */\n  0x4090e425df767152b89824be03c885a47d8dc4b8fb81dcd925c8ed2d104d46\n    /* \"Semaphore/.git/objects/08/SemaphoreVerifier.sol\":2009:17669  uint256[14][MAX_DEPTH] VK_POINTS = [... */\n  dup2\n  mstore\n  0x20\n  add\n    /* \"Semaphore/.git/objects/08/SemaphoreVerifier.sol\":13398:13475  15915940069177053049090451855582611051242699463952201407239272373068542013292 */\n  0x23301a53fc52d7c64110826687c60087a060ddefd664e271e51dadd4fc906f6c\n    /* \"Semaphore/.git/objects/08/SemaphoreVerifier.sol\":2009:17669  uint256[14][MAX_DEPTH] VK_POINTS = [... */\n  dup2\n  mstore\n  0x20\n  add\n    /* \"Semaphore/.git/objects/08/SemaphoreVerifier.sol\":13490:13566  9373936080407194259749015269175580128112032582312467763484971165406599176646 */\n  0x14b975b5a7edb7c1ff9d0a8bec341b8aa4f9a3010a84bf31be02c8b6a96de1c6\n    /* \"Semaphore/.git/objects/08/SemaphoreVerifier.sol\":2009:17669  uint256[14][MAX_DEPTH] VK_POINTS = [... */\n  dup2\n  mstore\n  0x20\n  add\n    /* \"Semaphore/.git/objects/08/SemaphoreVerifier.sol\":13581:13657  4922802633190996456945600288106639549790810185209505074744770090776471062338 */\n  0x0ae235220e7846e32c05a51710e86eb7a2003ecb46e14729a689c5143e3cc742\n    /* \"Semaphore/.git/objects/08/SemaphoreVerifier.sol\":2009:17669  uint256[14][MAX_DEPTH] VK_POINTS = [... */\n  dup2\n  mstore\n  0x20\n  add\n    /* \"Semaphore/.git/objects/08/SemaphoreVerifier.sol\":13672:13748  8883001810279320778962047313612748029483858862205749774979015238684570049088 */\n  0x13a399d18336d73804247f99d7ca7b73ae52c795d0528dcf88424ec64cd05a40\n    /* \"Semaphore/.git/objects/08/SemaphoreVerifier.sol\":2009:17669  uint256[14][MAX_DEPTH] VK_POINTS = [... */\n  dup2\n  mstore\n  pop\n  dup2\n  mstore\n  0x20\n  add\n  mload(0x40)\n  dup1\n  0x01c0\n  add\n  0x40\n  mstore\n  dup1\n    /* \"Semaphore/.git/objects/08/SemaphoreVerifier.sol\":13785:13862  10621957863293158040009666146187340406300006617270113507997717497098731431645 */\n  0x177bd0aa638195181175a48f43dad85a5c8d2f01c8a86df160f6470b2196a6dd\n    /* \"Semaphore/.git/objects/08/SemaphoreVerifier.sol\":2009:17669  uint256[14][MAX_DEPTH] VK_POINTS = [... */\n  dup2\n  mstore\n  0x20\n  add\n    /* \"Semaphore/.git/objects/08/SemaphoreVerifier.sol\":13877:13954  11544253490899949675932185200523769178642714850738952025947643180461452257027 */\n  0x1985d0e08910848c0ce0098a576cdb62d47c81e0feeb5e9283524c2fcfe16703\n    /* \"Semaphore/.git/objects/08/SemaphoreVerifier.sol\":2009:17669  uint256[14][MAX_DEPTH] VK_POINTS = [... */\n  dup2\n  mstore\n  0x20\n  add\n    /* \"Semaphore/.git/objects/08/SemaphoreVerifier.sol\":13969:14046  19367886286197174023585178612664391272570357530876044259219178006444442279835 */\n  0x2ad1d5cd62c1e648c9a0e4bb7896a75c987f3a8bb8c35afb58145d9783225f9b\n    /* \"Semaphore/.git/objects/08/SemaphoreVerifier.sol\":2009:17669  uint256[14][MAX_DEPTH] VK_POINTS = [... */\n  dup2\n  mstore\n  0x20\n  add\n    /* \"Semaphore/.git/objects/08/SemaphoreVerifier.sol\":14061:14135  49583159539136224825737189586941489049516773623689603831917260806184061698 */\n  0x1c10259a73e31d020da03a89bcc36653383cfec8b42dbe1761aae9d0794b02\n    /* \"Semaphore/.git/objects/08/SemaphoreVerifier.sol\":2009:17669  uint256[14][MAX_DEPTH] VK_POINTS = [... */\n  dup2\n  mstore\n  0x20\n  add\n    /* \"Semaphore/.git/objects/08/SemaphoreVerifier.sol\":14150:14227  14718035764669896417897962215694711502145567157050183561348015124983050763912 */\n  0x208a1cefd7f049abe5fe7f9e28181972b19e0c990235987e4c61af8e99897e88\n    /* \"Semaphore/.git/objects/08/SemaphoreVerifier.sol\":2009:17669  uint256[14][MAX_DEPTH] VK_POINTS = [... */\n  dup2\n  mstore\n  0x20\n  add\n    /* \"Semaphore/.git/objects/08/SemaphoreVerifier.sol\":14242:14319  16468329864686708461615593125586840110548434159129257976547738477143616225069 */\n  0x2468be9041a6e586e2b38f770ffd557f8d69bd6178885d69d5ebfb3d61a97f2d\n    /* \"Semaphore/.git/objects/08/SemaphoreVerifier.sol\":2009:17669  uint256[14][MAX_DEPTH] VK_POINTS = [... */\n  dup2\n  mstore\n  0x20\n  add\n    /* \"Semaphore/.git/objects/08/SemaphoreVerifier.sol\":14334:14411  19316680422470456517825967239402234468963225932355881906076897312088976727808 */\n  0x2ab4da8a56c29e6a298095d65b8d76fbf2eac0ce37ff65f026e9823a990f1f00\n    /* \"Semaphore/.git/objects/08/SemaphoreVerifier.sol\":2009:17669  uint256[14][MAX_DEPTH] VK_POINTS = [... */\n  dup2\n  mstore\n  0x20\n  add\n    /* \"Semaphore/.git/objects/08/SemaphoreVerifier.sol\":14426:14502  3793008941035953637072065313624049788550692955904011087840457148221740889857 */\n  0x0862c458efe128fd0acb55a0d916fd18758c55de4421fb967620912c8a113701\n    /* \"Semaphore/.git/objects/08/SemaphoreVerifier.sol\":2009:17669  uint256[14][MAX_DEPTH] VK_POINTS = [... */\n  dup2\n  mstore\n  0x20\n  add\n    /* \"Semaphore/.git/objects/08/SemaphoreVerifier.sol\":14517:14593  8994123619474927749524041243795236789619386871069943230512200348341409025802 */\n  0x13e27e5a7e766681d5e2803c7c9266a192dfb655fc5789be2b2cbfd86bc60f0a\n    /* \"Semaphore/.git/objects/08/SemaphoreVerifier.sol\":2009:17669  uint256[14][MAX_DEPTH] VK_POINTS = [... */\n  dup2\n  mstore\n  0x20\n  add\n    /* \"Semaphore/.git/objects/08/SemaphoreVerifier.sol\":14608:14684  2898455184193535874162795400065700362364113037155462125222703939894764399559 */\n  0x066877adf78ef454dceb57055e6be1d9f5103ca0cf1f9c6032c0c6c1ed806bc7\n    /* \"Semaphore/.git/objects/08/SemaphoreVerifier.sol\":2009:17669  uint256[14][MAX_DEPTH] VK_POINTS = [... */\n  dup2\n  mstore\n  0x20\n  add\n    /* \"Semaphore/.git/objects/08/SemaphoreVerifier.sol\":14699:14775  7006987736985681119096469806956612323700302986805047546691419062106874738669 */\n  0x0f7dd0841e4174177419f1d9dfa7fb25b755a1568fd55dc62c16d6224e4477ed\n    /* \"Semaphore/.git/objects/08/SemaphoreVerifier.sol\":2009:17669  uint256[14][MAX_DEPTH] VK_POINTS = [... */\n  dup2\n  mstore\n  0x20\n  add\n    /* \"Semaphore/.git/objects/08/SemaphoreVerifier.sol\":14790:14866  6578526693577992862738197741211972861837397562647850241473856881198749597774 */\n  0x0e8b506cbe28b71bbaf916e54990f3e1a61e3e34acb17084162ef7a15092404e\n    /* \"Semaphore/.git/objects/08/SemaphoreVerifier.sol\":2009:17669  uint256[14][MAX_DEPTH] VK_POINTS = [... */\n  dup2\n  mstore\n  0x20\n  add\n    /* \"Semaphore/.git/objects/08/SemaphoreVerifier.sol\":14881:14958  18253609658317686864081972526657430282945609846265497350129963610508303097865 */\n  0x285b2d4c2b36020176cbe6f1b9cdf31f8d0fdf99c9a25505a15a860fd2616009\n    /* \"Semaphore/.git/objects/08/SemaphoreVerifier.sol\":2009:17669  uint256[14][MAX_DEPTH] VK_POINTS = [... */\n  dup2\n  mstore\n  0x20\n  add\n    /* \"Semaphore/.git/objects/08/SemaphoreVerifier.sol\":14973:15050  20602454323920106770928127673050173555696255204782817307960073152139829286712 */\n  0x2d8c936ef9b48c5d75fb413b7cac72cff186ab0f4cb9dfa9197dba85fef59738\n    /* \"Semaphore/.git/objects/08/SemaphoreVerifier.sol\":2009:17669  uint256[14][MAX_DEPTH] VK_POINTS = [... */\n  dup2\n  mstore\n  pop\n  dup2\n  mstore\n  0x20\n  add\n  mload(0x40)\n  dup1\n  0x01c0\n  add\n  0x40\n  mstore\n  dup1\n    /* \"Semaphore/.git/objects/08/SemaphoreVerifier.sol\":15087:15163  6919690594446594824660388293695365136302375315018989420609208580270256193473 */\n  0x0f4c67f52343b883391b284231b1ab9f514b667923d2efe404c79ebb142a7fc1\n    /* \"Semaphore/.git/objects/08/SemaphoreVerifier.sol\":2009:17669  uint256[14][MAX_DEPTH] VK_POINTS = [... */\n  dup2\n  mstore\n  0x20\n  add\n    /* \"Semaphore/.git/objects/08/SemaphoreVerifier.sol\":15178:15255  20152340858374022568747410447956756883573367358669429548835673215400335225747 */\n  0x2c8dd21aa0556db4187df9dbccfe619a938d4d6971ab20c8fb8499ff18f9b393\n    /* \"Semaphore/.git/objects/08/SemaphoreVerifier.sol\":2009:17669  uint256[14][MAX_DEPTH] VK_POINTS = [... */\n  dup2\n  mstore\n  0x20\n  add\n    /* \"Semaphore/.git/objects/08/SemaphoreVerifier.sol\":15270:15347  11674218038035204128186342498577020603218612593894174060137243207689886423596 */\n  0x19cf5f8d82ef2fd726d4e61bfd25974d08a1d18f7940199b8ab90d7b9a56da2c\n    /* \"Semaphore/.git/objects/08/SemaphoreVerifier.sol\":2009:17669  uint256[14][MAX_DEPTH] VK_POINTS = [... */\n  dup2\n  mstore\n  0x20\n  add\n    /* \"Semaphore/.git/objects/08/SemaphoreVerifier.sol\":15362:15439  16509772385894559653132866836382733797078280267167499296517180188027714772070 */\n  0x24803334cd560fc2ce2976b89a87d17ace733b3e70f773d169383635d9ab9c66\n    /* \"Semaphore/.git/objects/08/SemaphoreVerifier.sol\":2009:17669  uint256[14][MAX_DEPTH] VK_POINTS = [... */\n  dup2\n  mstore\n  0x20\n  add\n    /* \"Semaphore/.git/objects/08/SemaphoreVerifier.sol\":15454:15531  18387700354891683161007139598833533459740755646851082725263944626765753998128 */\n  0x28a711d0889b002aa16bfd36ba33e294f44ac058a3b4a1e98cf2d0ea9ef3db30\n    /* \"Semaphore/.git/objects/08/SemaphoreVerifier.sol\":2009:17669  uint256[14][MAX_DEPTH] VK_POINTS = [... */\n  dup2\n  mstore\n  0x20\n  add\n    /* \"Semaphore/.git/objects/08/SemaphoreVerifier.sol\":15546:15622  8496770255291121655312305725645117658510206297162207504909146686627154245846 */\n  0x12c90064eb460c56b0a0cab9a5e72acf3d85ba15017e0348a9d6a88db8e838d6\n    /* \"Semaphore/.git/objects/08/SemaphoreVerifier.sol\":2009:17669  uint256[14][MAX_DEPTH] VK_POINTS = [... */\n  dup2\n  mstore\n  0x20\n  add\n    /* \"Semaphore/.git/objects/08/SemaphoreVerifier.sol\":15637:15713  3295351580633631545204707236418977224205703294426182202748223245617942752953 */\n  0x07491a578400d71cf7f42b0bd2a1178b243a88a8c11c98e0de05d959b393eeb9\n    /* \"Semaphore/.git/objects/08/SemaphoreVerifier.sol\":2009:17669  uint256[14][MAX_DEPTH] VK_POINTS = [... */\n  dup2\n  mstore\n  0x20\n  add\n    /* \"Semaphore/.git/objects/08/SemaphoreVerifier.sol\":15728:15805  11318533876720817956139762907441156918032396007060817178042936071438547629319 */\n  0x1906102ab9146ea3953f8110734966b84ff8689ee9f44caf0d1b6b96bdad3507\n    /* \"Semaphore/.git/objects/08/SemaphoreVerifier.sol\":2009:17669  uint256[14][MAX_DEPTH] VK_POINTS = [... */\n  dup2\n  mstore\n  0x20\n  add\n    /* \"Semaphore/.git/objects/08/SemaphoreVerifier.sol\":15820:15896  9798692489110933308397734193670030418121117030189402149994776248649813971130 */\n  0x15a9dd087e3877b0bc59a6af17b72b6476a73de3f54fbfa2d43a2e76e4f1d0ba\n    /* \"Semaphore/.git/objects/08/SemaphoreVerifier.sol\":2009:17669  uint256[14][MAX_DEPTH] VK_POINTS = [... */\n  dup2\n  mstore\n  0x20\n  add\n    /* \"Semaphore/.git/objects/08/SemaphoreVerifier.sol\":15911:15987  7253879530870754821836349446054636336833607432103959373798000294248292966203 */\n  0x10098ce1b8f6abdb6dcac4faf8eb9963a97ad0720a67e75835eaaab0a4d25f3b\n    /* \"Semaphore/.git/objects/08/SemaphoreVerifier.sol\":2009:17669  uint256[14][MAX_DEPTH] VK_POINTS = [... */\n  dup2\n  mstore\n  0x20\n  add\n    /* \"Semaphore/.git/objects/08/SemaphoreVerifier.sol\":16002:16079  21808645514001764351825515375665639285586999794992628373968527911077248645185 */\n  0x30374184c976db1e962f5646efacf55116cfc3ef1bf2d13969407f94ada63841\n    /* \"Semaphore/.git/objects/08/SemaphoreVerifier.sol\":2009:17669  uint256[14][MAX_DEPTH] VK_POINTS = [... */\n  dup2\n  mstore\n  0x20\n  add\n    /* \"Semaphore/.git/objects/08/SemaphoreVerifier.sol\":16094:16170  2859748802987042398453158245958377568437550705999358391809538153774651114865 */\n  0x06528f7a7e9e73b458fc680b8c59621d2da946c34455c8cb80ec70d77c018571\n    /* \"Semaphore/.git/objects/08/SemaphoreVerifier.sol\":2009:17669  uint256[14][MAX_DEPTH] VK_POINTS = [... */\n  dup2\n  mstore\n  0x20\n  add\n    /* \"Semaphore/.git/objects/08/SemaphoreVerifier.sol\":16185:16261  4373537692781319117201803895634857716202697229097770645380222493663057011429 */\n  0x09ab55a91a7063b85c45a4308bce56e874aa3977ee6921d6f3541a3c92d9e2e5\n    /* \"Semaphore/.git/objects/08/SemaphoreVerifier.sol\":2009:17669  uint256[14][MAX_DEPTH] VK_POINTS = [... */\n  dup2\n  mstore\n  0x20\n  add\n    /* \"Semaphore/.git/objects/08/SemaphoreVerifier.sol\":16276:16353  21723556418902236605356947828522543021755681613733490227407492902239152334538 */\n  0x300718e2d685750add78894c11638ba2d2fd7954d11cd5b5c8aa0f7cd38766ca\n    /* \"Semaphore/.git/objects/08/SemaphoreVerifier.sol\":2009:17669  uint256[14][MAX_DEPTH] VK_POINTS = [... */\n  dup2\n  mstore\n  pop\n  dup2\n  mstore\n  0x20\n  add\n  mload(0x40)\n  dup1\n  0x01c0\n  add\n  0x40\n  mstore\n  dup1\n    /* \"Semaphore/.git/objects/08/SemaphoreVerifier.sol\":16390:16466  3246325158773052647788911340476235648870186305670446321333841273770228016262 */\n  0x072d5adc75e4da51b8f796fc45a234d2f8ca4ca8708e0cd54174e9f63aff6486\n    /* \"Semaphore/.git/objects/08/SemaphoreVerifier.sol\":2009:17669  uint256[14][MAX_DEPTH] VK_POINTS = [... */\n  dup2\n  mstore\n  0x20\n  add\n    /* \"Semaphore/.git/objects/08/SemaphoreVerifier.sol\":16481:16558  21672319732433045166991956534762990382763080837755725716637027617201056105221 */\n  0x2fea19288315b9162b4b9947f38aa430d8cd885ed56b4bde5ce9c2714af7c305\n    /* \"Semaphore/.git/objects/08/SemaphoreVerifier.sol\":2009:17669  uint256[14][MAX_DEPTH] VK_POINTS = [... */\n  dup2\n  mstore\n  0x20\n  add\n    /* \"Semaphore/.git/objects/08/SemaphoreVerifier.sol\":16573:16649  1097625536358560225015844871776096852794298581720514105921271391131873344240 */\n  0x026d3be9e7f7f9092b632bba1165848d93bf6f2f1bf756d1dc42879a72e47af0\n    /* \"Semaphore/.git/objects/08/SemaphoreVerifier.sol\":2009:17669  uint256[14][MAX_DEPTH] VK_POINTS = [... */\n  dup2\n  mstore\n  0x20\n  add\n    /* \"Semaphore/.git/objects/08/SemaphoreVerifier.sol\":16664:16740  5332470123606111842725808071294486759248878958039162159296029608796276205941 */\n  0x0bca1235cef12479afd16ddcc8dbb4ecf1aa1e589f13141509804a38a3452975\n    /* \"Semaphore/.git/objects/08/SemaphoreVerifier.sol\":2009:17669  uint256[14][MAX_DEPTH] VK_POINTS = [... */\n  dup2\n  mstore\n  0x20\n  add\n    /* \"Semaphore/.git/objects/08/SemaphoreVerifier.sol\":16755:16831  4147129560663007063799754603731275683761368247704376766576071776957227165800 */\n  0x092b3130bdb7f9be5f33d3ac5fdac9ac2d853deee532b4c93f35850222556868\n    /* \"Semaphore/.git/objects/08/SemaphoreVerifier.sol\":2009:17669  uint256[14][MAX_DEPTH] VK_POINTS = [... */\n  dup2\n  mstore\n  0x20\n  add\n    /* \"Semaphore/.git/objects/08/SemaphoreVerifier.sol\":16846:16922  7032402220603422034618210155106646820962552774510253688945919060625670415308 */\n  0x0f8c32d7b52be36eefe7d264d66b3ee4c59255f16f9e239b46959dd40b4623cc\n    /* \"Semaphore/.git/objects/08/SemaphoreVerifier.sol\":2009:17669  uint256[14][MAX_DEPTH] VK_POINTS = [... */\n  dup2\n  mstore\n  0x20\n  add\n    /* \"Semaphore/.git/objects/08/SemaphoreVerifier.sol\":16937:17013  5241022678363371404039324538224070321660623527603509392150146296843642044363 */\n  0x0b96504f8b767e15046db623894abede0fcd6437af458769b4f49eb493a37fcb\n    /* \"Semaphore/.git/objects/08/SemaphoreVerifier.sol\":2009:17669  uint256[14][MAX_DEPTH] VK_POINTS = [... */\n  dup2\n  mstore\n  0x20\n  add\n    /* \"Semaphore/.git/objects/08/SemaphoreVerifier.sol\":17028:17104  5281273397025328620822441453790518717375265972202147684745427714882287252791 */\n  0x0bad1845ad553f1d7fecd0d97d73010d8fe475f3dea683e8eca65623d0653537\n    /* \"Semaphore/.git/objects/08/SemaphoreVerifier.sol\":2009:17669  uint256[14][MAX_DEPTH] VK_POINTS = [... */\n  dup2\n  mstore\n  0x20\n  add\n    /* \"Semaphore/.git/objects/08/SemaphoreVerifier.sol\":17119:17195  8109626675067152219533782552336308649905522111608563670382254454484448073029 */\n  0x11ede2d36debc21a2bd22d22400cb8b1cd14e846d5b6a273068f6137a6005545\n    /* \"Semaphore/.git/objects/08/SemaphoreVerifier.sol\":2009:17669  uint256[14][MAX_DEPTH] VK_POINTS = [... */\n  dup2\n  mstore\n  0x20\n  add\n    /* \"Semaphore/.git/objects/08/SemaphoreVerifier.sol\":17210:17286  4696661232179595878220108186097206302552300846640109174608389689072223809776 */\n  0x0a62374f4d0b8800bf6848c777d1259704de995e1469633e57a65e196e0070f0\n    /* \"Semaphore/.git/objects/08/SemaphoreVerifier.sol\":2009:17669  uint256[14][MAX_DEPTH] VK_POINTS = [... */\n  dup2\n  mstore\n  0x20\n  add\n    /* \"Semaphore/.git/objects/08/SemaphoreVerifier.sol\":17301:17378  13974026846148052806722306435446895222317781098029808723550029071117080027133 */\n  0x1ee504d746aa3bdafb86361d8f09d3a5509869996fe13bdad29f8fbd357f5ffd\n    /* \"Semaphore/.git/objects/08/SemaphoreVerifier.sol\":2009:17669  uint256[14][MAX_DEPTH] VK_POINTS = [... */\n  dup2\n  mstore\n  0x20\n  add\n    /* \"Semaphore/.git/objects/08/SemaphoreVerifier.sol\":17393:17470  14451415757463182353662034231421738047130904367363697865823311429455557043904 */\n  0x1ff336222321debd2161b0b1dbb66ddf92fd56050f82e244315b57af052e26c0\n    /* \"Semaphore/.git/objects/08/SemaphoreVerifier.sol\":2009:17669  uint256[14][MAX_DEPTH] VK_POINTS = [... */\n  dup2\n  mstore\n  0x20\n  add\n    /* \"Semaphore/.git/objects/08/SemaphoreVerifier.sol\":17485:17561  9490728148230530026163178051838213576627639298618884515939110001242292217290 */\n  0x14fb8fd0381cc9122e8d11e02ff39bd9f2168fad1e9bff2c858c97fe6759e5ca\n    /* \"Semaphore/.git/objects/08/SemaphoreVerifier.sol\":2009:17669  uint256[14][MAX_DEPTH] VK_POINTS = [... */\n  dup2\n  mstore\n  0x20\n  add\n    /* \"Semaphore/.git/objects/08/SemaphoreVerifier.sol\":17576:17651  227687333556127166330064214209948378192130717415165040791158610964406937909 */\n  0x80ddd094a23483e51116d6aed63f579212f84448aa3ed4ed57ace80af12935\n    /* \"Semaphore/.git/objects/08/SemaphoreVerifier.sol\":2009:17669  uint256[14][MAX_DEPTH] VK_POINTS = [... */\n  dup2\n  mstore\n  pop\n  dup2\n  mstore\n  pop\n  0x00\n  swap1\n  0x0c\n  tag_1\n  swap3\n  swap2\n  swap1\n  tag_2\n  jump\t// in\ntag_1:\n  pop\n    /* \"Semaphore/.git/objects/08/SemaphoreVerifier.sol\":194:22891  contract SemaphoreVerifier {... */\n  callvalue\n  dup1\n  iszero\n  tag_3\n  jumpi\n  0x00\n  dup1\n  revert\ntag_3:\n  pop\n  jump(tag_4)\ntag_2:\n  dup3\n  mul(0x0e, 0x0c)\n  dup2\n  add\n  swap3\n  dup3\n  iszero\n  tag_5\n  jumpi\n  swap2\n  0x20\n  mul\n  dup3\n  add\ntag_6:\n  dup3\n  dup2\n  gt\n  iszero\n  tag_7\n  jumpi\n  dup3\n  mload\n  dup3\n  swap1\n  0x0e\n  tag_8\n  swap3\n  swap2\n  swap1\n  tag_9\n  jump\t// in\ntag_8:\n  pop\n  swap2\n  0x20\n  add\n  swap2\n  swap1\n  0x0e\n  add\n  swap1\n  jump(tag_6)\ntag_7:\ntag_5:\n  pop\n  swap1\n  pop\n  tag_10\n  swap2\n  swap1\n  tag_11\n  jump\t// in\ntag_10:\n  pop\n  swap1\n  jump\t// out\ntag_9:\n  dup3\n  0x0e\n  dup2\n  add\n  swap3\n  dup3\n  iszero\n  tag_12\n  jumpi\n  swap2\n  0x20\n  mul\n  dup3\n  add\ntag_13:\n  dup3\n  dup2\n  gt\n  iszero\n  tag_14\n  jumpi\n  dup3\n  mload\n  dup3\n  sstore\n  swap2\n  0x20\n  add\n  swap2\n  swap1\n  0x01\n  add\n  swap1\n  jump(tag_13)\ntag_14:\ntag_12:\n  pop\n  swap1\n  pop\n  tag_15\n  swap2\n  swap1\n  tag_16\n  jump\t// in\ntag_15:\n  pop\n  swap1\n  jump\t// out\ntag_11:\ntag_17:\n  dup1\n  dup3\n  gt\n  iszero\n  tag_18\n  jumpi\n  0x00\n  dup2\n  dup2\n  tag_19\n  swap2\n  swap1\n  tag_20\n  jump\t// in\ntag_19:\n  pop\n  0x0e\n  add\n  jump(tag_17)\ntag_18:\n  pop\n  swap1\n  jump\t// out\ntag_16:\ntag_21:\n  dup1\n  dup3\n  gt\n  iszero\n  tag_22\n  jumpi\n  0x00\n  dup2\n  0x00\n  swap1\n  sstore\n  pop\n  0x01\n  add\n  jump(tag_21)\ntag_22:\n  pop\n  swap1\n  jump\t// out\ntag_20:\n  pop\n  dup1\n  0x0e\n  add\n  swap1\n  tag_23\n  swap2\n  swap1\n  tag_16\n  jump\t// in\ntag_23:\n  pop\n  jump\t// out\ntag_4:\n  dataSize(sub_0)\n  dup1\n  dataOffset(sub_0)\n  0x00\n  codecopy\n  0x00\n  return\nstop\n\nsub_0: assembly {\n        /* \"Semaphore/.git/objects/08/SemaphoreVerifier.sol\":194:22891  contract SemaphoreVerifier {... */\n      mstore(0x40, 0x80)\n      callvalue\n      dup1\n      iszero\n      tag_1\n      jumpi\n      0x00\n      dup1\n      revert\n    tag_1:\n      pop\n      jumpi(tag_2, lt(calldatasize, 0x04))\n      shr(0xe0, calldataload(0x00))\n      dup1\n      0xa23f0199\n      eq\n      tag_3\n      jumpi\n    tag_2:\n      0x00\n      dup1\n      revert\n        /* \"Semaphore/.git/objects/08/SemaphoreVerifier.sol\":17806:22888  function verifyProof(... */\n    tag_3:\n      tag_4\n      0x04\n      dup1\n      calldatasize\n      sub\n      dup2\n      add\n      swap1\n      tag_5\n      swap2\n      swap1\n      tag_6\n      jump\t// in\n    tag_5:\n      tag_7\n      jump\t// in\n    tag_4:\n      mload(0x40)\n      tag_8\n      swap2\n      swap1\n      tag_9\n      jump\t// in\n    tag_8:\n      mload(0x40)\n      dup1\n      swap2\n      sub\n      swap1\n      return\n    tag_7:\n        /* \"Semaphore/.git/objects/08/SemaphoreVerifier.sol\":18023:18027  bool */\n      0x00\n        /* \"Semaphore/.git/objects/08/SemaphoreVerifier.sol\":18040:18065  uint[14] memory _vkPoints */\n      dup1\n        /* \"Semaphore/.git/objects/08/SemaphoreVerifier.sol\":18068:18077  VK_POINTS */\n      0x00\n        /* \"Semaphore/.git/objects/08/SemaphoreVerifier.sol\":18096:18097  1 */\n      0x01\n        /* \"Semaphore/.git/objects/08/SemaphoreVerifier.sol\":18078:18093  merkleTreeDepth */\n      dup5\n        /* \"Semaphore/.git/objects/08/SemaphoreVerifier.sol\":18078:18097  merkleTreeDepth - 1 */\n      tag_11\n      swap2\n      swap1\n      tag_12\n      jump\t// in\n    tag_11:\n        /* \"Semaphore/.git/objects/08/SemaphoreVerifier.sol\":18068:18098  VK_POINTS[merkleTreeDepth - 1] */\n      0x0c\n      dup2\n      lt\n      tag_13\n      jumpi\n      tag_14\n      tag_15\n      jump\t// in\n    tag_14:\n    tag_13:\n      0x0e\n      mul\n      add\n        /* \"Semaphore/.git/objects/08/SemaphoreVerifier.sol\":18040:18098  uint[14] memory _vkPoints = VK_POINTS[merkleTreeDepth - 1] */\n      0x0e\n      dup1\n      0x20\n      mul\n      mload(0x40)\n      swap1\n      dup2\n      add\n      0x40\n      mstore\n      dup1\n      swap3\n      swap2\n      swap1\n      dup3\n      0x0e\n      dup1\n      iszero\n      tag_17\n      jumpi\n      0x20\n      mul\n      dup3\n      add\n      swap2\n    tag_18:\n      dup2\n      sload\n      dup2\n      mstore\n      0x20\n      add\n      swap1\n      0x01\n      add\n      swap1\n      dup1\n      dup4\n      gt\n      tag_18\n      jumpi\n    tag_17:\n      pop\n      pop\n      pop\n      pop\n      pop\n      swap1\n      pop\n        /* \"Semaphore/.git/objects/08/SemaphoreVerifier.sol\":18135:18303  function checkField(v) {... */\n      jump(tag_22)\n    tag_19:\n        /* \"Semaphore/.git/objects/08/SemaphoreVerifier.sol\":18193:18194  r */\n      0x30644e72e131a029b85045b68181585d2833e84879b9709143e1f593f0000001\n        /* \"Semaphore/.git/objects/08/SemaphoreVerifier.sol\":18190:18191  v */\n      dup2\n        /* \"Semaphore/.git/objects/08/SemaphoreVerifier.sol\":18187:18195  lt(v, r) */\n      lt\n        /* \"Semaphore/.git/objects/08/SemaphoreVerifier.sol\":18177:18288  if iszero(lt(v, r)) {... */\n      tag_24\n      jumpi\n        /* \"Semaphore/.git/objects/08/SemaphoreVerifier.sol\":18230:18231  0 */\n      0x00\n        /* \"Semaphore/.git/objects/08/SemaphoreVerifier.sol\":18227:18228  0 */\n      dup1\n        /* \"Semaphore/.git/objects/08/SemaphoreVerifier.sol\":18220:18232  mstore(0, 0) */\n      mstore\n        /* \"Semaphore/.git/objects/08/SemaphoreVerifier.sol\":18264:18268  0x20 */\n      0x20\n        /* \"Semaphore/.git/objects/08/SemaphoreVerifier.sol\":18261:18262  0 */\n      0x00\n        /* \"Semaphore/.git/objects/08/SemaphoreVerifier.sol\":18254:18269  return(0, 0x20) */\n      return\n        /* \"Semaphore/.git/objects/08/SemaphoreVerifier.sol\":18177:18288  if iszero(lt(v, r)) {... */\n    tag_24:\n        /* \"Semaphore/.git/objects/08/SemaphoreVerifier.sol\":18135:18303  function checkField(v) {... */\n      pop\n      jump\t// out\n        /* \"Semaphore/.git/objects/08/SemaphoreVerifier.sol\":18398:19159  function g1_mulAccC(pR, x, y, s) {... */\n    tag_20:\n        /* \"Semaphore/.git/objects/08/SemaphoreVerifier.sol\":18450:18461  let success */\n      0x00\n        /* \"Semaphore/.git/objects/08/SemaphoreVerifier.sol\":18496:18500  0x40 */\n      0x40\n        /* \"Semaphore/.git/objects/08/SemaphoreVerifier.sol\":18490:18501  mload(0x40) */\n      mload\n        /* \"Semaphore/.git/objects/08/SemaphoreVerifier.sol\":18531:18532  x */\n      dup4\n        /* \"Semaphore/.git/objects/08/SemaphoreVerifier.sol\":18526:18529  mIn */\n      dup2\n        /* \"Semaphore/.git/objects/08/SemaphoreVerifier.sol\":18519:18533  mstore(mIn, x) */\n      mstore\n        /* \"Semaphore/.git/objects/08/SemaphoreVerifier.sol\":18572:18573  y */\n      dup5\n        /* \"Semaphore/.git/objects/08/SemaphoreVerifier.sol\":18567:18569  32 */\n      0x20\n        /* \"Semaphore/.git/objects/08/SemaphoreVerifier.sol\":18562:18565  mIn */\n      dup3\n        /* \"Semaphore/.git/objects/08/SemaphoreVerifier.sol\":18558:18570  add(mIn, 32) */\n      add\n        /* \"Semaphore/.git/objects/08/SemaphoreVerifier.sol\":18551:18574  mstore(add(mIn, 32), y) */\n      mstore\n        /* \"Semaphore/.git/objects/08/SemaphoreVerifier.sol\":18613:18614  s */\n      dup6\n        /* \"Semaphore/.git/objects/08/SemaphoreVerifier.sol\":18608:18610  64 */\n      0x40\n        /* \"Semaphore/.git/objects/08/SemaphoreVerifier.sol\":18603:18606  mIn */\n      dup3\n        /* \"Semaphore/.git/objects/08/SemaphoreVerifier.sol\":18599:18611  add(mIn, 64) */\n      add\n        /* \"Semaphore/.git/objects/08/SemaphoreVerifier.sol\":18592:18615  mstore(add(mIn, 64), s) */\n      mstore\n        /* \"Semaphore/.git/objects/08/SemaphoreVerifier.sol\":18692:18694  64 */\n      0x40\n        /* \"Semaphore/.git/objects/08/SemaphoreVerifier.sol\":18687:18690  mIn */\n      dup2\n        /* \"Semaphore/.git/objects/08/SemaphoreVerifier.sol\":18683:18685  96 */\n      0x60\n        /* \"Semaphore/.git/objects/08/SemaphoreVerifier.sol\":18678:18681  mIn */\n      dup4\n        /* \"Semaphore/.git/objects/08/SemaphoreVerifier.sol\":18675:18676  7 */\n      0x07\n        /* \"Semaphore/.git/objects/08/SemaphoreVerifier.sol\":18668:18672  2000 */\n      0x07d0\n        /* \"Semaphore/.git/objects/08/SemaphoreVerifier.sol\":18661:18666  gas() */\n      gas\n        /* \"Semaphore/.git/objects/08/SemaphoreVerifier.sol\":18657:18673  sub(gas(), 2000) */\n      sub\n        /* \"Semaphore/.git/objects/08/SemaphoreVerifier.sol\":18646:18695  staticcall(sub(gas(), 2000), 7, mIn, 96, mIn, 64) */\n      staticcall\n        /* \"Semaphore/.git/objects/08/SemaphoreVerifier.sol\":18635:18695  success := staticcall(sub(gas(), 2000), 7, mIn, 96, mIn, 64) */\n      swap2\n      pop\n        /* \"Semaphore/.git/objects/08/SemaphoreVerifier.sol\":18725:18732  success */\n      dup2\n        /* \"Semaphore/.git/objects/08/SemaphoreVerifier.sol\":18715:18825  if iszero(success) {... */\n      tag_26\n      jumpi\n        /* \"Semaphore/.git/objects/08/SemaphoreVerifier.sol\":18767:18768  0 */\n      0x00\n        /* \"Semaphore/.git/objects/08/SemaphoreVerifier.sol\":18764:18765  0 */\n      dup1\n        /* \"Semaphore/.git/objects/08/SemaphoreVerifier.sol\":18757:18769  mstore(0, 0) */\n      mstore\n        /* \"Semaphore/.git/objects/08/SemaphoreVerifier.sol\":18801:18805  0x20 */\n      0x20\n        /* \"Semaphore/.git/objects/08/SemaphoreVerifier.sol\":18798:18799  0 */\n      0x00\n        /* \"Semaphore/.git/objects/08/SemaphoreVerifier.sol\":18791:18806  return(0, 0x20) */\n      return\n        /* \"Semaphore/.git/objects/08/SemaphoreVerifier.sol\":18715:18825  if iszero(success) {... */\n    tag_26:\n        /* \"Semaphore/.git/objects/08/SemaphoreVerifier.sol\":18872:18874  pR */\n      dup3\n        /* \"Semaphore/.git/objects/08/SemaphoreVerifier.sol\":18866:18875  mload(pR) */\n      mload\n        /* \"Semaphore/.git/objects/08/SemaphoreVerifier.sol\":18861:18863  64 */\n      0x40\n        /* \"Semaphore/.git/objects/08/SemaphoreVerifier.sol\":18856:18859  mIn */\n      dup3\n        /* \"Semaphore/.git/objects/08/SemaphoreVerifier.sol\":18852:18864  add(mIn, 64) */\n      add\n        /* \"Semaphore/.git/objects/08/SemaphoreVerifier.sol\":18845:18876  mstore(add(mIn, 64), mload(pR)) */\n      mstore\n        /* \"Semaphore/.git/objects/08/SemaphoreVerifier.sol\":18929:18931  32 */\n      0x20\n        /* \"Semaphore/.git/objects/08/SemaphoreVerifier.sol\":18925:18927  pR */\n      dup4\n        /* \"Semaphore/.git/objects/08/SemaphoreVerifier.sol\":18921:18932  add(pR, 32) */\n      add\n        /* \"Semaphore/.git/objects/08/SemaphoreVerifier.sol\":18915:18933  mload(add(pR, 32)) */\n      mload\n        /* \"Semaphore/.git/objects/08/SemaphoreVerifier.sol\":18910:18912  96 */\n      0x60\n        /* \"Semaphore/.git/objects/08/SemaphoreVerifier.sol\":18905:18908  mIn */\n      dup3\n        /* \"Semaphore/.git/objects/08/SemaphoreVerifier.sol\":18901:18913  add(mIn, 96) */\n      add\n        /* \"Semaphore/.git/objects/08/SemaphoreVerifier.sol\":18894:18934  mstore(add(mIn, 96), mload(add(pR, 32))) */\n      mstore\n        /* \"Semaphore/.git/objects/08/SemaphoreVerifier.sol\":19011:19013  64 */\n      0x40\n        /* \"Semaphore/.git/objects/08/SemaphoreVerifier.sol\":19007:19009  pR */\n      dup4\n        /* \"Semaphore/.git/objects/08/SemaphoreVerifier.sol\":19002:19005  128 */\n      0x80\n        /* \"Semaphore/.git/objects/08/SemaphoreVerifier.sol\":18997:19000  mIn */\n      dup4\n        /* \"Semaphore/.git/objects/08/SemaphoreVerifier.sol\":18994:18995  6 */\n      0x06\n        /* \"Semaphore/.git/objects/08/SemaphoreVerifier.sol\":18987:18991  2000 */\n      0x07d0\n        /* \"Semaphore/.git/objects/08/SemaphoreVerifier.sol\":18980:18985  gas() */\n      gas\n        /* \"Semaphore/.git/objects/08/SemaphoreVerifier.sol\":18976:18992  sub(gas(), 2000) */\n      sub\n        /* \"Semaphore/.git/objects/08/SemaphoreVerifier.sol\":18965:19014  staticcall(sub(gas(), 2000), 6, mIn, 128, pR, 64) */\n      staticcall\n        /* \"Semaphore/.git/objects/08/SemaphoreVerifier.sol\":18954:19014  success := staticcall(sub(gas(), 2000), 6, mIn, 128, pR, 64) */\n      swap2\n      pop\n        /* \"Semaphore/.git/objects/08/SemaphoreVerifier.sol\":19044:19051  success */\n      dup2\n        /* \"Semaphore/.git/objects/08/SemaphoreVerifier.sol\":19034:19144  if iszero(success) {... */\n      tag_27\n      jumpi\n        /* \"Semaphore/.git/objects/08/SemaphoreVerifier.sol\":19086:19087  0 */\n      0x00\n        /* \"Semaphore/.git/objects/08/SemaphoreVerifier.sol\":19083:19084  0 */\n      dup1\n        /* \"Semaphore/.git/objects/08/SemaphoreVerifier.sol\":19076:19088  mstore(0, 0) */\n      mstore\n        /* \"Semaphore/.git/objects/08/SemaphoreVerifier.sol\":19120:19124  0x20 */\n      0x20\n        /* \"Semaphore/.git/objects/08/SemaphoreVerifier.sol\":19117:19118  0 */\n      0x00\n        /* \"Semaphore/.git/objects/08/SemaphoreVerifier.sol\":19110:19125  return(0, 0x20) */\n      return\n        /* \"Semaphore/.git/objects/08/SemaphoreVerifier.sol\":19034:19144  if iszero(success) {... */\n    tag_27:\n        /* \"Semaphore/.git/objects/08/SemaphoreVerifier.sol\":18431:19159  {... */\n      pop\n      pop\n        /* \"Semaphore/.git/objects/08/SemaphoreVerifier.sol\":18398:19159  function g1_mulAccC(pR, x, y, s) {... */\n      pop\n      pop\n      pop\n      pop\n      jump\t// out\n        /* \"Semaphore/.git/objects/08/SemaphoreVerifier.sol\":19175:22228  function checkPairing(pA, pB, pC, pubSignals, pMem, vkPoints) -> isOk {... */\n    tag_21:\n        /* \"Semaphore/.git/objects/08/SemaphoreVerifier.sol\":19240:19244  isOk */\n      0x00\n        /* \"Semaphore/.git/objects/08/SemaphoreVerifier.sol\":19291:19299  pPairing */\n      0x80\n        /* \"Semaphore/.git/objects/08/SemaphoreVerifier.sol\":19285:19289  pMem */\n      dup7\n        /* \"Semaphore/.git/objects/08/SemaphoreVerifier.sol\":19281:19300  add(pMem, pPairing) */\n      add\n        /* \"Semaphore/.git/objects/08/SemaphoreVerifier.sol\":19340:19343  pVk */\n      0x00\n        /* \"Semaphore/.git/objects/08/SemaphoreVerifier.sol\":19334:19338  pMem */\n      dup8\n        /* \"Semaphore/.git/objects/08/SemaphoreVerifier.sol\":19330:19344  add(pMem, pVk) */\n      add\n        /* \"Semaphore/.git/objects/08/SemaphoreVerifier.sol\":19397:19400  128 */\n      0x80\n        /* \"Semaphore/.git/objects/08/SemaphoreVerifier.sol\":19387:19395  vkPoints */\n      dup10\n        /* \"Semaphore/.git/objects/08/SemaphoreVerifier.sol\":19383:19401  add(vkPoints, 128) */\n      add\n        /* \"Semaphore/.git/objects/08/SemaphoreVerifier.sol\":19377:19402  mload(add(vkPoints, 128)) */\n      mload\n        /* \"Semaphore/.git/objects/08/SemaphoreVerifier.sol\":19371:19375  _pVk */\n      dup2\n        /* \"Semaphore/.git/objects/08/SemaphoreVerifier.sol\":19364:19403  mstore(_pVk, mload(add(vkPoints, 128))) */\n      mstore\n        /* \"Semaphore/.git/objects/08/SemaphoreVerifier.sol\":19463:19466  160 */\n      0xa0\n        /* \"Semaphore/.git/objects/08/SemaphoreVerifier.sol\":19453:19461  vkPoints */\n      dup10\n        /* \"Semaphore/.git/objects/08/SemaphoreVerifier.sol\":19449:19467  add(vkPoints, 160) */\n      add\n        /* \"Semaphore/.git/objects/08/SemaphoreVerifier.sol\":19443:19468  mload(add(vkPoints, 160)) */\n      mload\n        /* \"Semaphore/.git/objects/08/SemaphoreVerifier.sol\":19438:19440  32 */\n      0x20\n        /* \"Semaphore/.git/objects/08/SemaphoreVerifier.sol\":19432:19436  _pVk */\n      dup3\n        /* \"Semaphore/.git/objects/08/SemaphoreVerifier.sol\":19428:19441  add(_pVk, 32) */\n      add\n        /* \"Semaphore/.git/objects/08/SemaphoreVerifier.sol\":19421:19469  mstore(add(_pVk, 32), mload(add(vkPoints, 160))) */\n      mstore\n        /* \"Semaphore/.git/objects/08/SemaphoreVerifier.sol\":19547:19651  g1_mulAccC(_pVk, mload(add(vkPoints, 192)), mload(add(vkPoints, 224)), calldataload(add(pubSignals, 0))) */\n      tag_29\n        /* \"Semaphore/.git/objects/08/SemaphoreVerifier.sol\":19647:19648  0 */\n      0x00\n        /* \"Semaphore/.git/objects/08/SemaphoreVerifier.sol\":19635:19645  pubSignals */\n      dup9\n        /* \"Semaphore/.git/objects/08/SemaphoreVerifier.sol\":19631:19649  add(pubSignals, 0) */\n      add\n        /* \"Semaphore/.git/objects/08/SemaphoreVerifier.sol\":19618:19650  calldataload(add(pubSignals, 0)) */\n      calldataload\n        /* \"Semaphore/.git/objects/08/SemaphoreVerifier.sol\":19611:19614  224 */\n      0xe0\n        /* \"Semaphore/.git/objects/08/SemaphoreVerifier.sol\":19601:19609  vkPoints */\n      dup12\n        /* \"Semaphore/.git/objects/08/SemaphoreVerifier.sol\":19597:19615  add(vkPoints, 224) */\n      add\n        /* \"Semaphore/.git/objects/08/SemaphoreVerifier.sol\":19591:19616  mload(add(vkPoints, 224)) */\n      mload\n        /* \"Semaphore/.git/objects/08/SemaphoreVerifier.sol\":19584:19587  192 */\n      0xc0\n        /* \"Semaphore/.git/objects/08/SemaphoreVerifier.sol\":19574:19582  vkPoints */\n      dup13\n        /* \"Semaphore/.git/objects/08/SemaphoreVerifier.sol\":19570:19588  add(vkPoints, 192) */\n      add\n        /* \"Semaphore/.git/objects/08/SemaphoreVerifier.sol\":19564:19589  mload(add(vkPoints, 192)) */\n      mload\n        /* \"Semaphore/.git/objects/08/SemaphoreVerifier.sol\":19558:19562  _pVk */\n      dup5\n        /* \"Semaphore/.git/objects/08/SemaphoreVerifier.sol\":19547:19651  g1_mulAccC(_pVk, mload(add(vkPoints, 192)), mload(add(vkPoints, 224)), calldataload(add(pubSignals, 0))) */\n      tag_20\n      jump\t// in\n    tag_29:\n        /* \"Semaphore/.git/objects/08/SemaphoreVerifier.sol\":19671:19879  g1_mulAccC(... */\n      tag_30\n        /* \"Semaphore/.git/objects/08/SemaphoreVerifier.sol\":19856:19858  32 */\n      0x20\n        /* \"Semaphore/.git/objects/08/SemaphoreVerifier.sol\":19844:19854  pubSignals */\n      dup9\n        /* \"Semaphore/.git/objects/08/SemaphoreVerifier.sol\":19840:19859  add(pubSignals, 32) */\n      add\n        /* \"Semaphore/.git/objects/08/SemaphoreVerifier.sol\":19827:19860  calldataload(add(pubSignals, 32)) */\n      calldataload\n        /* \"Semaphore/.git/objects/08/SemaphoreVerifier.sol\":19799:19802  288 */\n      0x0120\n        /* \"Semaphore/.git/objects/08/SemaphoreVerifier.sol\":19789:19797  vkPoints */\n      dup12\n        /* \"Semaphore/.git/objects/08/SemaphoreVerifier.sol\":19785:19803  add(vkPoints, 288) */\n      add\n        /* \"Semaphore/.git/objects/08/SemaphoreVerifier.sol\":19779:19804  mload(add(vkPoints, 288)) */\n      mload\n        /* \"Semaphore/.git/objects/08/SemaphoreVerifier.sol\":19751:19754  256 */\n      0x0100\n        /* \"Semaphore/.git/objects/08/SemaphoreVerifier.sol\":19741:19749  vkPoints */\n      dup13\n        /* \"Semaphore/.git/objects/08/SemaphoreVerifier.sol\":19737:19755  add(vkPoints, 256) */\n      add\n        /* \"Semaphore/.git/objects/08/SemaphoreVerifier.sol\":19731:19756  mload(add(vkPoints, 256)) */\n      mload\n        /* \"Semaphore/.git/objects/08/SemaphoreVerifier.sol\":19704:19708  _pVk */\n      dup5\n        /* \"Semaphore/.git/objects/08/SemaphoreVerifier.sol\":19671:19879  g1_mulAccC(... */\n      tag_20\n      jump\t// in\n    tag_30:\n        /* \"Semaphore/.git/objects/08/SemaphoreVerifier.sol\":19899:20107  g1_mulAccC(... */\n      tag_31\n        /* \"Semaphore/.git/objects/08/SemaphoreVerifier.sol\":20084:20086  64 */\n      0x40\n        /* \"Semaphore/.git/objects/08/SemaphoreVerifier.sol\":20072:20082  pubSignals */\n      dup9\n        /* \"Semaphore/.git/objects/08/SemaphoreVerifier.sol\":20068:20087  add(pubSignals, 64) */\n      add\n        /* \"Semaphore/.git/objects/08/SemaphoreVerifier.sol\":20055:20088  calldataload(add(pubSignals, 64)) */\n      calldataload\n        /* \"Semaphore/.git/objects/08/SemaphoreVerifier.sol\":20027:20030  352 */\n      0x0160\n        /* \"Semaphore/.git/objects/08/SemaphoreVerifier.sol\":20017:20025  vkPoints */\n      dup12\n        /* \"Semaphore/.git/objects/08/SemaphoreVerifier.sol\":20013:20031  add(vkPoints, 352) */\n      add\n        /* \"Semaphore/.git/objects/08/SemaphoreVerifier.sol\":20007:20032  mload(add(vkPoints, 352)) */\n      mload\n        /* \"Semaphore/.git/objects/08/SemaphoreVerifier.sol\":19979:19982  320 */\n      0x0140\n        /* \"Semaphore/.git/objects/08/SemaphoreVerifier.sol\":19969:19977  vkPoints */\n      dup13\n        /* \"Semaphore/.git/objects/08/SemaphoreVerifier.sol\":19965:19983  add(vkPoints, 320) */\n      add\n        /* \"Semaphore/.git/objects/08/SemaphoreVerifier.sol\":19959:19984  mload(add(vkPoints, 320)) */\n      mload\n        /* \"Semaphore/.git/objects/08/SemaphoreVerifier.sol\":19932:19936  _pVk */\n      dup5\n        /* \"Semaphore/.git/objects/08/SemaphoreVerifier.sol\":19899:20107  g1_mulAccC(... */\n      tag_20\n      jump\t// in\n    tag_31:\n        /* \"Semaphore/.git/objects/08/SemaphoreVerifier.sol\":20127:20335  g1_mulAccC(... */\n      tag_32\n        /* \"Semaphore/.git/objects/08/SemaphoreVerifier.sol\":20312:20314  96 */\n      0x60\n        /* \"Semaphore/.git/objects/08/SemaphoreVerifier.sol\":20300:20310  pubSignals */\n      dup9\n        /* \"Semaphore/.git/objects/08/SemaphoreVerifier.sol\":20296:20315  add(pubSignals, 96) */\n      add\n        /* \"Semaphore/.git/objects/08/SemaphoreVerifier.sol\":20283:20316  calldataload(add(pubSignals, 96)) */\n      calldataload\n        /* \"Semaphore/.git/objects/08/SemaphoreVerifier.sol\":20255:20258  416 */\n      0x01a0\n        /* \"Semaphore/.git/objects/08/SemaphoreVerifier.sol\":20245:20253  vkPoints */\n      dup12\n        /* \"Semaphore/.git/objects/08/SemaphoreVerifier.sol\":20241:20259  add(vkPoints, 416) */\n      add\n        /* \"Semaphore/.git/objects/08/SemaphoreVerifier.sol\":20235:20260  mload(add(vkPoints, 416)) */\n      mload\n        /* \"Semaphore/.git/objects/08/SemaphoreVerifier.sol\":20207:20210  384 */\n      0x0180\n        /* \"Semaphore/.git/objects/08/SemaphoreVerifier.sol\":20197:20205  vkPoints */\n      dup13\n        /* \"Semaphore/.git/objects/08/SemaphoreVerifier.sol\":20193:20211  add(vkPoints, 384) */\n      add\n        /* \"Semaphore/.git/objects/08/SemaphoreVerifier.sol\":20187:20212  mload(add(vkPoints, 384)) */\n      mload\n        /* \"Semaphore/.git/objects/08/SemaphoreVerifier.sol\":20160:20164  _pVk */\n      dup5\n        /* \"Semaphore/.git/objects/08/SemaphoreVerifier.sol\":20127:20335  g1_mulAccC(... */\n      tag_20\n      jump\t// in\n    tag_32:\n        /* \"Semaphore/.git/objects/08/SemaphoreVerifier.sol\":20409:20411  pA */\n      dup4\n        /* \"Semaphore/.git/objects/08/SemaphoreVerifier.sol\":20396:20412  calldataload(pA) */\n      calldataload\n        /* \"Semaphore/.git/objects/08/SemaphoreVerifier.sol\":20385:20394  _pPairing */\n      dup3\n        /* \"Semaphore/.git/objects/08/SemaphoreVerifier.sol\":20378:20413  mstore(_pPairing, calldataload(pA)) */\n      mstore\n        /* \"Semaphore/.git/objects/08/SemaphoreVerifier.sol\":20497:20498  q */\n      0x30644e72e131a029b85045b68181585d97816a916871ca8d3c208c16d87cfd47\n        /* \"Semaphore/.git/objects/08/SemaphoreVerifier.sol\":20490:20492  32 */\n      0x20\n        /* \"Semaphore/.git/objects/08/SemaphoreVerifier.sol\":20486:20488  pA */\n      dup6\n        /* \"Semaphore/.git/objects/08/SemaphoreVerifier.sol\":20482:20493  add(pA, 32) */\n      add\n        /* \"Semaphore/.git/objects/08/SemaphoreVerifier.sol\":20469:20494  calldataload(add(pA, 32)) */\n      calldataload\n        /* \"Semaphore/.git/objects/08/SemaphoreVerifier.sol\":20466:20467  q */\n      0x30644e72e131a029b85045b68181585d97816a916871ca8d3c208c16d87cfd47\n        /* \"Semaphore/.git/objects/08/SemaphoreVerifier.sol\":20462:20495  sub(q, calldataload(add(pA, 32))) */\n      sub\n        /* \"Semaphore/.git/objects/08/SemaphoreVerifier.sol\":20458:20499  mod(sub(q, calldataload(add(pA, 32))), q) */\n      mod\n        /* \"Semaphore/.git/objects/08/SemaphoreVerifier.sol\":20453:20455  32 */\n      0x20\n        /* \"Semaphore/.git/objects/08/SemaphoreVerifier.sol\":20442:20451  _pPairing */\n      dup4\n        /* \"Semaphore/.git/objects/08/SemaphoreVerifier.sol\":20438:20456  add(_pPairing, 32) */\n      add\n        /* \"Semaphore/.git/objects/08/SemaphoreVerifier.sol\":20431:20500  mstore(add(_pPairing, 32), mod(sub(q, calldataload(add(pA, 32))), q)) */\n      mstore\n        /* \"Semaphore/.git/objects/08/SemaphoreVerifier.sol\":20582:20584  pB */\n      dup5\n        /* \"Semaphore/.git/objects/08/SemaphoreVerifier.sol\":20569:20585  calldataload(pB) */\n      calldataload\n        /* \"Semaphore/.git/objects/08/SemaphoreVerifier.sol\":20564:20566  64 */\n      0x40\n        /* \"Semaphore/.git/objects/08/SemaphoreVerifier.sol\":20553:20562  _pPairing */\n      dup4\n        /* \"Semaphore/.git/objects/08/SemaphoreVerifier.sol\":20549:20567  add(_pPairing, 64) */\n      add\n        /* \"Semaphore/.git/objects/08/SemaphoreVerifier.sol\":20542:20586  mstore(add(_pPairing, 64), calldataload(pB)) */\n      mstore\n        /* \"Semaphore/.git/objects/08/SemaphoreVerifier.sol\":20652:20654  32 */\n      0x20\n        /* \"Semaphore/.git/objects/08/SemaphoreVerifier.sol\":20648:20650  pB */\n      dup6\n        /* \"Semaphore/.git/objects/08/SemaphoreVerifier.sol\":20644:20655  add(pB, 32) */\n      add\n        /* \"Semaphore/.git/objects/08/SemaphoreVerifier.sol\":20631:20656  calldataload(add(pB, 32)) */\n      calldataload\n        /* \"Semaphore/.git/objects/08/SemaphoreVerifier.sol\":20626:20628  96 */\n      0x60\n        /* \"Semaphore/.git/objects/08/SemaphoreVerifier.sol\":20615:20624  _pPairing */\n      dup4\n        /* \"Semaphore/.git/objects/08/SemaphoreVerifier.sol\":20611:20629  add(_pPairing, 96) */\n      add\n        /* \"Semaphore/.git/objects/08/SemaphoreVerifier.sol\":20604:20657  mstore(add(_pPairing, 96), calldataload(add(pB, 32))) */\n      mstore\n        /* \"Semaphore/.git/objects/08/SemaphoreVerifier.sol\":20724:20726  64 */\n      0x40\n        /* \"Semaphore/.git/objects/08/SemaphoreVerifier.sol\":20720:20722  pB */\n      dup6\n        /* \"Semaphore/.git/objects/08/SemaphoreVerifier.sol\":20716:20727  add(pB, 64) */\n      add\n        /* \"Semaphore/.git/objects/08/SemaphoreVerifier.sol\":20703:20728  calldataload(add(pB, 64)) */\n      calldataload\n        /* \"Semaphore/.git/objects/08/SemaphoreVerifier.sol\":20697:20700  128 */\n      0x80\n        /* \"Semaphore/.git/objects/08/SemaphoreVerifier.sol\":20686:20695  _pPairing */\n      dup4\n        /* \"Semaphore/.git/objects/08/SemaphoreVerifier.sol\":20682:20701  add(_pPairing, 128) */\n      add\n        /* \"Semaphore/.git/objects/08/SemaphoreVerifier.sol\":20675:20729  mstore(add(_pPairing, 128), calldataload(add(pB, 64))) */\n      mstore\n        /* \"Semaphore/.git/objects/08/SemaphoreVerifier.sol\":20796:20798  96 */\n      0x60\n        /* \"Semaphore/.git/objects/08/SemaphoreVerifier.sol\":20792:20794  pB */\n      dup6\n        /* \"Semaphore/.git/objects/08/SemaphoreVerifier.sol\":20788:20799  add(pB, 96) */\n      add\n        /* \"Semaphore/.git/objects/08/SemaphoreVerifier.sol\":20775:20800  calldataload(add(pB, 96)) */\n      calldataload\n        /* \"Semaphore/.git/objects/08/SemaphoreVerifier.sol\":20769:20772  160 */\n      0xa0\n        /* \"Semaphore/.git/objects/08/SemaphoreVerifier.sol\":20758:20767  _pPairing */\n      dup4\n        /* \"Semaphore/.git/objects/08/SemaphoreVerifier.sol\":20754:20773  add(_pPairing, 160) */\n      add\n        /* \"Semaphore/.git/objects/08/SemaphoreVerifier.sol\":20747:20801  mstore(add(_pPairing, 160), calldataload(add(pB, 96))) */\n      mstore\n        /* \"Semaphore/.git/objects/08/SemaphoreVerifier.sol\":20876:20882  alphax */\n      0x2d4d9aa7e302d9df41749d5507949d05dbea33fbb16c643b22f599a2be6df2e2\n        /* \"Semaphore/.git/objects/08/SemaphoreVerifier.sol\":20870:20873  192 */\n      0xc0\n        /* \"Semaphore/.git/objects/08/SemaphoreVerifier.sol\":20859:20868  _pPairing */\n      dup4\n        /* \"Semaphore/.git/objects/08/SemaphoreVerifier.sol\":20855:20874  add(_pPairing, 192) */\n      add\n        /* \"Semaphore/.git/objects/08/SemaphoreVerifier.sol\":20848:20883  mstore(add(_pPairing, 192), alphax) */\n      mstore\n        /* \"Semaphore/.git/objects/08/SemaphoreVerifier.sol\":20929:20935  alphay */\n      0x14bedd503c37ceb061d8ec60209fe345ce89830a19230301f076caff004d1926\n        /* \"Semaphore/.git/objects/08/SemaphoreVerifier.sol\":20923:20926  224 */\n      0xe0\n        /* \"Semaphore/.git/objects/08/SemaphoreVerifier.sol\":20912:20921  _pPairing */\n      dup4\n        /* \"Semaphore/.git/objects/08/SemaphoreVerifier.sol\":20908:20927  add(_pPairing, 224) */\n      add\n        /* \"Semaphore/.git/objects/08/SemaphoreVerifier.sol\":20901:20936  mstore(add(_pPairing, 224), alphay) */\n      mstore\n        /* \"Semaphore/.git/objects/08/SemaphoreVerifier.sol\":21010:21016  betax1 */\n      0x0967032fcbf776d1afc985f88877f182d38480a653f2decaa9794cbc3bf3060c\n        /* \"Semaphore/.git/objects/08/SemaphoreVerifier.sol\":21004:21007  256 */\n      0x0100\n        /* \"Semaphore/.git/objects/08/SemaphoreVerifier.sol\":20993:21002  _pPairing */\n      dup4\n        /* \"Semaphore/.git/objects/08/SemaphoreVerifier.sol\":20989:21008  add(_pPairing, 256) */\n      add\n        /* \"Semaphore/.git/objects/08/SemaphoreVerifier.sol\":20982:21017  mstore(add(_pPairing, 256), betax1) */\n      mstore\n        /* \"Semaphore/.git/objects/08/SemaphoreVerifier.sol\":21063:21069  betax2 */\n      0x0e187847ad4c798374d0d6732bf501847dd68bc0e071241e0213bc7fc13db7ab\n        /* \"Semaphore/.git/objects/08/SemaphoreVerifier.sol\":21057:21060  288 */\n      0x0120\n        /* \"Semaphore/.git/objects/08/SemaphoreVerifier.sol\":21046:21055  _pPairing */\n      dup4\n        /* \"Semaphore/.git/objects/08/SemaphoreVerifier.sol\":21042:21061  add(_pPairing, 288) */\n      add\n        /* \"Semaphore/.git/objects/08/SemaphoreVerifier.sol\":21035:21070  mstore(add(_pPairing, 288), betax2) */\n      mstore\n        /* \"Semaphore/.git/objects/08/SemaphoreVerifier.sol\":21116:21122  betay1 */\n      0x304cfbd1e08a704a99f5e847d93f8c3caafddec46b7a0d379da69a4d112346a7\n        /* \"Semaphore/.git/objects/08/SemaphoreVerifier.sol\":21110:21113  320 */\n      0x0140\n        /* \"Semaphore/.git/objects/08/SemaphoreVerifier.sol\":21099:21108  _pPairing */\n      dup4\n        /* \"Semaphore/.git/objects/08/SemaphoreVerifier.sol\":21095:21114  add(_pPairing, 320) */\n      add\n        /* \"Semaphore/.git/objects/08/SemaphoreVerifier.sol\":21088:21123  mstore(add(_pPairing, 320), betay1) */\n      mstore\n        /* \"Semaphore/.git/objects/08/SemaphoreVerifier.sol\":21169:21175  betay2 */\n      0x1739c1b1a457a8c7313123d24d2f9192f896b7c63eea05a9d57f06547ad0cec8\n        /* \"Semaphore/.git/objects/08/SemaphoreVerifier.sol\":21163:21166  352 */\n      0x0160\n        /* \"Semaphore/.git/objects/08/SemaphoreVerifier.sol\":21152:21161  _pPairing */\n      dup4\n        /* \"Semaphore/.git/objects/08/SemaphoreVerifier.sol\":21148:21167  add(_pPairing, 352) */\n      add\n        /* \"Semaphore/.git/objects/08/SemaphoreVerifier.sol\":21141:21176  mstore(add(_pPairing, 352), betay2) */\n      mstore\n        /* \"Semaphore/.git/objects/08/SemaphoreVerifier.sol\":21265:21268  pVk */\n      0x00\n        /* \"Semaphore/.git/objects/08/SemaphoreVerifier.sol\":21259:21263  pMem */\n      dup9\n        /* \"Semaphore/.git/objects/08/SemaphoreVerifier.sol\":21255:21269  add(pMem, pVk) */\n      add\n        /* \"Semaphore/.git/objects/08/SemaphoreVerifier.sol\":21249:21270  mload(add(pMem, pVk)) */\n      mload\n        /* \"Semaphore/.git/objects/08/SemaphoreVerifier.sol\":21243:21246  384 */\n      0x0180\n        /* \"Semaphore/.git/objects/08/SemaphoreVerifier.sol\":21232:21241  _pPairing */\n      dup4\n        /* \"Semaphore/.git/objects/08/SemaphoreVerifier.sol\":21228:21247  add(_pPairing, 384) */\n      add\n        /* \"Semaphore/.git/objects/08/SemaphoreVerifier.sol\":21221:21271  mstore(add(_pPairing, 384), mload(add(pMem, pVk))) */\n      mstore\n        /* \"Semaphore/.git/objects/08/SemaphoreVerifier.sol\":21342:21344  32 */\n      0x20\n        /* \"Semaphore/.git/objects/08/SemaphoreVerifier.sol\":21337:21340  pVk */\n      0x00\n        /* \"Semaphore/.git/objects/08/SemaphoreVerifier.sol\":21333:21345  add(pVk, 32) */\n      add\n        /* \"Semaphore/.git/objects/08/SemaphoreVerifier.sol\":21327:21331  pMem */\n      dup9\n        /* \"Semaphore/.git/objects/08/SemaphoreVerifier.sol\":21323:21346  add(pMem, add(pVk, 32)) */\n      add\n        /* \"Semaphore/.git/objects/08/SemaphoreVerifier.sol\":21317:21347  mload(add(pMem, add(pVk, 32))) */\n      mload\n        /* \"Semaphore/.git/objects/08/SemaphoreVerifier.sol\":21311:21314  416 */\n      0x01a0\n        /* \"Semaphore/.git/objects/08/SemaphoreVerifier.sol\":21300:21309  _pPairing */\n      dup4\n        /* \"Semaphore/.git/objects/08/SemaphoreVerifier.sol\":21296:21315  add(_pPairing, 416) */\n      add\n        /* \"Semaphore/.git/objects/08/SemaphoreVerifier.sol\":21289:21348  mstore(add(_pPairing, 416), mload(add(pMem, add(pVk, 32)))) */\n      mstore\n        /* \"Semaphore/.git/objects/08/SemaphoreVerifier.sol\":21423:21430  gammax1 */\n      0x198e9393920d483a7260bfb731fb5d25f1aa493335a9e71297e485b7aef312c2\n        /* \"Semaphore/.git/objects/08/SemaphoreVerifier.sol\":21417:21420  448 */\n      0x01c0\n        /* \"Semaphore/.git/objects/08/SemaphoreVerifier.sol\":21406:21415  _pPairing */\n      dup4\n        /* \"Semaphore/.git/objects/08/SemaphoreVerifier.sol\":21402:21421  add(_pPairing, 448) */\n      add\n        /* \"Semaphore/.git/objects/08/SemaphoreVerifier.sol\":21395:21431  mstore(add(_pPairing, 448), gammax1) */\n      mstore\n        /* \"Semaphore/.git/objects/08/SemaphoreVerifier.sol\":21477:21484  gammax2 */\n      0x1800deef121f1e76426a00665e5c4479674322d4f75edadd46debd5cd992f6ed\n        /* \"Semaphore/.git/objects/08/SemaphoreVerifier.sol\":21471:21474  480 */\n      0x01e0\n        /* \"Semaphore/.git/objects/08/SemaphoreVerifier.sol\":21460:21469  _pPairing */\n      dup4\n        /* \"Semaphore/.git/objects/08/SemaphoreVerifier.sol\":21456:21475  add(_pPairing, 480) */\n      add\n        /* \"Semaphore/.git/objects/08/SemaphoreVerifier.sol\":21449:21485  mstore(add(_pPairing, 480), gammax2) */\n      mstore\n        /* \"Semaphore/.git/objects/08/SemaphoreVerifier.sol\":21531:21538  gammay1 */\n      0x090689d0585ff075ec9e99ad690c3395bc4b313370b38ef355acdadcd122975b\n        /* \"Semaphore/.git/objects/08/SemaphoreVerifier.sol\":21525:21528  512 */\n      0x0200\n        /* \"Semaphore/.git/objects/08/SemaphoreVerifier.sol\":21514:21523  _pPairing */\n      dup4\n        /* \"Semaphore/.git/objects/08/SemaphoreVerifier.sol\":21510:21529  add(_pPairing, 512) */\n      add\n        /* \"Semaphore/.git/objects/08/SemaphoreVerifier.sol\":21503:21539  mstore(add(_pPairing, 512), gammay1) */\n      mstore\n        /* \"Semaphore/.git/objects/08/SemaphoreVerifier.sol\":21585:21592  gammay2 */\n      0x12c85ea5db8c6deb4aab71808dcb408fe3d1e7690c43d37b4ce6cc0166fa7daa\n        /* \"Semaphore/.git/objects/08/SemaphoreVerifier.sol\":21579:21582  544 */\n      0x0220\n        /* \"Semaphore/.git/objects/08/SemaphoreVerifier.sol\":21568:21577  _pPairing */\n      dup4\n        /* \"Semaphore/.git/objects/08/SemaphoreVerifier.sol\":21564:21583  add(_pPairing, 544) */\n      add\n        /* \"Semaphore/.git/objects/08/SemaphoreVerifier.sol\":21557:21593  mstore(add(_pPairing, 544), gammay2) */\n      mstore\n        /* \"Semaphore/.git/objects/08/SemaphoreVerifier.sol\":21676:21678  pC */\n      dup6\n        /* \"Semaphore/.git/objects/08/SemaphoreVerifier.sol\":21663:21679  calldataload(pC) */\n      calldataload\n        /* \"Semaphore/.git/objects/08/SemaphoreVerifier.sol\":21657:21660  576 */\n      0x0240\n        /* \"Semaphore/.git/objects/08/SemaphoreVerifier.sol\":21646:21655  _pPairing */\n      dup4\n        /* \"Semaphore/.git/objects/08/SemaphoreVerifier.sol\":21642:21661  add(_pPairing, 576) */\n      add\n        /* \"Semaphore/.git/objects/08/SemaphoreVerifier.sol\":21635:21680  mstore(add(_pPairing, 576), calldataload(pC)) */\n      mstore\n        /* \"Semaphore/.git/objects/08/SemaphoreVerifier.sol\":21747:21749  32 */\n      0x20\n        /* \"Semaphore/.git/objects/08/SemaphoreVerifier.sol\":21743:21745  pC */\n      dup7\n        /* \"Semaphore/.git/objects/08/SemaphoreVerifier.sol\":21739:21750  add(pC, 32) */\n      add\n        /* \"Semaphore/.git/objects/08/SemaphoreVerifier.sol\":21726:21751  calldataload(add(pC, 32)) */\n      calldataload\n        /* \"Semaphore/.git/objects/08/SemaphoreVerifier.sol\":21720:21723  608 */\n      0x0260\n        /* \"Semaphore/.git/objects/08/SemaphoreVerifier.sol\":21709:21718  _pPairing */\n      dup4\n        /* \"Semaphore/.git/objects/08/SemaphoreVerifier.sol\":21705:21724  add(_pPairing, 608) */\n      add\n        /* \"Semaphore/.git/objects/08/SemaphoreVerifier.sol\":21698:21752  mstore(add(_pPairing, 608), calldataload(add(pC, 32))) */\n      mstore\n        /* \"Semaphore/.git/objects/08/SemaphoreVerifier.sol\":21833:21841  vkPoints */\n      dup9\n        /* \"Semaphore/.git/objects/08/SemaphoreVerifier.sol\":21827:21842  mload(vkPoints) */\n      mload\n        /* \"Semaphore/.git/objects/08/SemaphoreVerifier.sol\":21821:21824  640 */\n      0x0280\n        /* \"Semaphore/.git/objects/08/SemaphoreVerifier.sol\":21810:21819  _pPairing */\n      dup4\n        /* \"Semaphore/.git/objects/08/SemaphoreVerifier.sol\":21806:21825  add(_pPairing, 640) */\n      add\n        /* \"Semaphore/.git/objects/08/SemaphoreVerifier.sol\":21799:21843  mstore(add(_pPairing, 640), mload(vkPoints)) */\n      mstore\n        /* \"Semaphore/.git/objects/08/SemaphoreVerifier.sol\":21909:21911  32 */\n      0x20\n        /* \"Semaphore/.git/objects/08/SemaphoreVerifier.sol\":21899:21907  vkPoints */\n      dup10\n        /* \"Semaphore/.git/objects/08/SemaphoreVerifier.sol\":21895:21912  add(vkPoints, 32) */\n      add\n        /* \"Semaphore/.git/objects/08/SemaphoreVerifier.sol\":21889:21913  mload(add(vkPoints, 32)) */\n      mload\n        /* \"Semaphore/.git/objects/08/SemaphoreVerifier.sol\":21883:21886  672 */\n      0x02a0\n        /* \"Semaphore/.git/objects/08/SemaphoreVerifier.sol\":21872:21881  _pPairing */\n      dup4\n        /* \"Semaphore/.git/objects/08/SemaphoreVerifier.sol\":21868:21887  add(_pPairing, 672) */\n      add\n        /* \"Semaphore/.git/objects/08/SemaphoreVerifier.sol\":21861:21914  mstore(add(_pPairing, 672), mload(add(vkPoints, 32))) */\n      mstore\n        /* \"Semaphore/.git/objects/08/SemaphoreVerifier.sol\":21980:21982  64 */\n      0x40\n        /* \"Semaphore/.git/objects/08/SemaphoreVerifier.sol\":21970:21978  vkPoints */\n      dup10\n        /* \"Semaphore/.git/objects/08/SemaphoreVerifier.sol\":21966:21983  add(vkPoints, 64) */\n      add\n        /* \"Semaphore/.git/objects/08/SemaphoreVerifier.sol\":21960:21984  mload(add(vkPoints, 64)) */\n      mload\n        /* \"Semaphore/.git/objects/08/SemaphoreVerifier.sol\":21954:21957  704 */\n      0x02c0\n        /* \"Semaphore/.git/objects/08/SemaphoreVerifier.sol\":21943:21952  _pPairing */\n      dup4\n        /* \"Semaphore/.git/objects/08/SemaphoreVerifier.sol\":21939:21958  add(_pPairing, 704) */\n      add\n        /* \"Semaphore/.git/objects/08/SemaphoreVerifier.sol\":21932:21985  mstore(add(_pPairing, 704), mload(add(vkPoints, 64))) */\n      mstore\n        /* \"Semaphore/.git/objects/08/SemaphoreVerifier.sol\":22051:22053  96 */\n      0x60\n        /* \"Semaphore/.git/objects/08/SemaphoreVerifier.sol\":22041:22049  vkPoints */\n      dup10\n        /* \"Semaphore/.git/objects/08/SemaphoreVerifier.sol\":22037:22054  add(vkPoints, 96) */\n      add\n        /* \"Semaphore/.git/objects/08/SemaphoreVerifier.sol\":22031:22055  mload(add(vkPoints, 96)) */\n      mload\n        /* \"Semaphore/.git/objects/08/SemaphoreVerifier.sol\":22025:22028  736 */\n      0x02e0\n        /* \"Semaphore/.git/objects/08/SemaphoreVerifier.sol\":22014:22023  _pPairing */\n      dup4\n        /* \"Semaphore/.git/objects/08/SemaphoreVerifier.sol\":22010:22029  add(_pPairing, 736) */\n      add\n        /* \"Semaphore/.git/objects/08/SemaphoreVerifier.sol\":22003:22056  mstore(add(_pPairing, 736), mload(add(vkPoints, 96))) */\n      mstore\n        /* \"Semaphore/.git/objects/08/SemaphoreVerifier.sol\":22150:22154  0x20 */\n      0x20\n        /* \"Semaphore/.git/objects/08/SemaphoreVerifier.sol\":22139:22148  _pPairing */\n      dup3\n        /* \"Semaphore/.git/objects/08/SemaphoreVerifier.sol\":22134:22137  768 */\n      0x0300\n        /* \"Semaphore/.git/objects/08/SemaphoreVerifier.sol\":22123:22132  _pPairing */\n      dup5\n        /* \"Semaphore/.git/objects/08/SemaphoreVerifier.sol\":22120:22121  8 */\n      0x08\n        /* \"Semaphore/.git/objects/08/SemaphoreVerifier.sol\":22113:22117  2000 */\n      0x07d0\n        /* \"Semaphore/.git/objects/08/SemaphoreVerifier.sol\":22106:22111  gas() */\n      gas\n        /* \"Semaphore/.git/objects/08/SemaphoreVerifier.sol\":22102:22118  sub(gas(), 2000) */\n      sub\n        /* \"Semaphore/.git/objects/08/SemaphoreVerifier.sol\":22091:22155  staticcall(sub(gas(), 2000), 8, _pPairing, 768, _pPairing, 0x20) */\n      staticcall\n        /* \"Semaphore/.git/objects/08/SemaphoreVerifier.sol\":22202:22211  _pPairing */\n      dup3\n        /* \"Semaphore/.git/objects/08/SemaphoreVerifier.sol\":22196:22212  mload(_pPairing) */\n      mload\n        /* \"Semaphore/.git/objects/08/SemaphoreVerifier.sol\":22187:22194  success */\n      dup2\n        /* \"Semaphore/.git/objects/08/SemaphoreVerifier.sol\":22183:22213  and(success, mload(_pPairing)) */\n      and\n        /* \"Semaphore/.git/objects/08/SemaphoreVerifier.sol\":22175:22213  isOk := and(success, mload(_pPairing)) */\n      swap4\n      pop\n        /* \"Semaphore/.git/objects/08/SemaphoreVerifier.sol\":19245:22228  {... */\n      pop\n      pop\n      pop\n        /* \"Semaphore/.git/objects/08/SemaphoreVerifier.sol\":19175:22228  function checkPairing(pA, pB, pC, pubSignals, pMem, vkPoints) -> isOk {... */\n      swap7\n      swap6\n      pop\n      pop\n      pop\n      pop\n      pop\n      pop\n      jump\t// out\n    tag_22:\n        /* \"Semaphore/.git/objects/08/SemaphoreVerifier.sol\":22262:22266  0x40 */\n      0x40\n        /* \"Semaphore/.git/objects/08/SemaphoreVerifier.sol\":22256:22267  mload(0x40) */\n      mload\n        /* \"Semaphore/.git/objects/08/SemaphoreVerifier.sol\":22304:22312  pLastMem */\n      0x0380\n        /* \"Semaphore/.git/objects/08/SemaphoreVerifier.sol\":22298:22302  pMem */\n      dup2\n        /* \"Semaphore/.git/objects/08/SemaphoreVerifier.sol\":22294:22313  add(pMem, pLastMem) */\n      add\n        /* \"Semaphore/.git/objects/08/SemaphoreVerifier.sol\":22288:22292  0x40 */\n      0x40\n        /* \"Semaphore/.git/objects/08/SemaphoreVerifier.sol\":22281:22314  mstore(0x40, add(pMem, pLastMem)) */\n      mstore\n        /* \"Semaphore/.git/objects/08/SemaphoreVerifier.sol\":22384:22429  checkField(calldataload(add(_pubSignals, 0))) */\n      tag_33\n        /* \"Semaphore/.git/objects/08/SemaphoreVerifier.sol\":22425:22426  0 */\n      0x00\n        /* \"Semaphore/.git/objects/08/SemaphoreVerifier.sol\":22412:22423  _pubSignals */\n      dup7\n        /* \"Semaphore/.git/objects/08/SemaphoreVerifier.sol\":22408:22427  add(_pubSignals, 0) */\n      add\n        /* \"Semaphore/.git/objects/08/SemaphoreVerifier.sol\":22395:22428  calldataload(add(_pubSignals, 0)) */\n      calldataload\n        /* \"Semaphore/.git/objects/08/SemaphoreVerifier.sol\":22384:22429  checkField(calldataload(add(_pubSignals, 0))) */\n      tag_19\n      jump\t// in\n    tag_33:\n        /* \"Semaphore/.git/objects/08/SemaphoreVerifier.sol\":22445:22491  checkField(calldataload(add(_pubSignals, 32))) */\n      tag_34\n        /* \"Semaphore/.git/objects/08/SemaphoreVerifier.sol\":22486:22488  32 */\n      0x20\n        /* \"Semaphore/.git/objects/08/SemaphoreVerifier.sol\":22473:22484  _pubSignals */\n      dup7\n        /* \"Semaphore/.git/objects/08/SemaphoreVerifier.sol\":22469:22489  add(_pubSignals, 32) */\n      add\n        /* \"Semaphore/.git/objects/08/SemaphoreVerifier.sol\":22456:22490  calldataload(add(_pubSignals, 32)) */\n      calldataload\n        /* \"Semaphore/.git/objects/08/SemaphoreVerifier.sol\":22445:22491  checkField(calldataload(add(_pubSignals, 32))) */\n      tag_19\n      jump\t// in\n    tag_34:\n        /* \"Semaphore/.git/objects/08/SemaphoreVerifier.sol\":22507:22553  checkField(calldataload(add(_pubSignals, 64))) */\n      tag_35\n        /* \"Semaphore/.git/objects/08/SemaphoreVerifier.sol\":22548:22550  64 */\n      0x40\n        /* \"Semaphore/.git/objects/08/SemaphoreVerifier.sol\":22535:22546  _pubSignals */\n      dup7\n        /* \"Semaphore/.git/objects/08/SemaphoreVerifier.sol\":22531:22551  add(_pubSignals, 64) */\n      add\n        /* \"Semaphore/.git/objects/08/SemaphoreVerifier.sol\":22518:22552  calldataload(add(_pubSignals, 64)) */\n      calldataload\n        /* \"Semaphore/.git/objects/08/SemaphoreVerifier.sol\":22507:22553  checkField(calldataload(add(_pubSignals, 64))) */\n      tag_19\n      jump\t// in\n    tag_35:\n        /* \"Semaphore/.git/objects/08/SemaphoreVerifier.sol\":22569:22615  checkField(calldataload(add(_pubSignals, 96))) */\n      tag_36\n        /* \"Semaphore/.git/objects/08/SemaphoreVerifier.sol\":22610:22612  96 */\n      0x60\n        /* \"Semaphore/.git/objects/08/SemaphoreVerifier.sol\":22597:22608  _pubSignals */\n      dup7\n        /* \"Semaphore/.git/objects/08/SemaphoreVerifier.sol\":22593:22613  add(_pubSignals, 96) */\n      add\n        /* \"Semaphore/.git/objects/08/SemaphoreVerifier.sol\":22580:22614  calldataload(add(_pubSignals, 96)) */\n      calldataload\n        /* \"Semaphore/.git/objects/08/SemaphoreVerifier.sol\":22569:22615  checkField(calldataload(add(_pubSignals, 96))) */\n      tag_19\n      jump\t// in\n    tag_36:\n        /* \"Semaphore/.git/objects/08/SemaphoreVerifier.sol\":22631:22678  checkField(calldataload(add(_pubSignals, 128))) */\n      tag_37\n        /* \"Semaphore/.git/objects/08/SemaphoreVerifier.sol\":22672:22675  128 */\n      0x80\n        /* \"Semaphore/.git/objects/08/SemaphoreVerifier.sol\":22659:22670  _pubSignals */\n      dup7\n        /* \"Semaphore/.git/objects/08/SemaphoreVerifier.sol\":22655:22676  add(_pubSignals, 128) */\n      add\n        /* \"Semaphore/.git/objects/08/SemaphoreVerifier.sol\":22642:22677  calldataload(add(_pubSignals, 128)) */\n      calldataload\n        /* \"Semaphore/.git/objects/08/SemaphoreVerifier.sol\":22631:22678  checkField(calldataload(add(_pubSignals, 128))) */\n      tag_19\n      jump\t// in\n    tag_37:\n        /* \"Semaphore/.git/objects/08/SemaphoreVerifier.sol\":22750:22807  checkPairing(_pA, _pB, _pC, _pubSignals, pMem, _vkPoints) */\n      tag_38\n        /* \"Semaphore/.git/objects/08/SemaphoreVerifier.sol\":22797:22806  _vkPoints */\n      dup3\n        /* \"Semaphore/.git/objects/08/SemaphoreVerifier.sol\":22791:22795  pMem */\n      dup3\n        /* \"Semaphore/.git/objects/08/SemaphoreVerifier.sol\":22778:22789  _pubSignals */\n      dup8\n        /* \"Semaphore/.git/objects/08/SemaphoreVerifier.sol\":22773:22776  _pC */\n      dup10\n        /* \"Semaphore/.git/objects/08/SemaphoreVerifier.sol\":22768:22771  _pB */\n      dup12\n        /* \"Semaphore/.git/objects/08/SemaphoreVerifier.sol\":22763:22766  _pA */\n      dup14\n        /* \"Semaphore/.git/objects/08/SemaphoreVerifier.sol\":22750:22807  checkPairing(_pA, _pB, _pC, _pubSignals, pMem, _vkPoints) */\n      tag_21\n      jump\t// in\n    tag_38:\n        /* \"Semaphore/.git/objects/08/SemaphoreVerifier.sol\":22833:22840  isValid */\n      dup1\n        /* \"Semaphore/.git/objects/08/SemaphoreVerifier.sol\":22830:22831  0 */\n      0x00\n        /* \"Semaphore/.git/objects/08/SemaphoreVerifier.sol\":22823:22841  mstore(0, isValid) */\n      mstore\n        /* \"Semaphore/.git/objects/08/SemaphoreVerifier.sol\":22865:22869  0x20 */\n      0x20\n        /* \"Semaphore/.git/objects/08/SemaphoreVerifier.sol\":22862:22863  0 */\n      0x00\n        /* \"Semaphore/.git/objects/08/SemaphoreVerifier.sol\":22855:22870  return(0, 0x20) */\n      return\n        /* \"#utility.yul\":88:205   */\n    tag_40:\n        /* \"#utility.yul\":197:198   */\n      0x00\n        /* \"#utility.yul\":194:195   */\n      dup1\n        /* \"#utility.yul\":187:199   */\n      revert\n        /* \"#utility.yul\":334:451   */\n    tag_42:\n        /* \"#utility.yul\":443:444   */\n      0x00\n        /* \"#utility.yul\":440:441   */\n      dup1\n        /* \"#utility.yul\":433:445   */\n      revert\n        /* \"#utility.yul\":475:724   */\n    tag_43:\n        /* \"#utility.yul\":546:554   */\n      0x00\n        /* \"#utility.yul\":577:583   */\n      dup2\n        /* \"#utility.yul\":565:583   */\n      swap1\n      pop\n        /* \"#utility.yul\":630:633   */\n      dup3\n        /* \"#utility.yul\":622:626   */\n      0x20\n        /* \"#utility.yul\":616:620   */\n      0x02\n        /* \"#utility.yul\":612:627   */\n      mul\n        /* \"#utility.yul\":602:610   */\n      dup3\n        /* \"#utility.yul\":598:628   */\n      add\n        /* \"#utility.yul\":595:634   */\n      gt\n        /* \"#utility.yul\":592:718   */\n      iszero\n      tag_58\n      jumpi\n        /* \"#utility.yul\":637:716   */\n      tag_59\n      tag_42\n      jump\t// in\n    tag_59:\n        /* \"#utility.yul\":592:718   */\n    tag_58:\n        /* \"#utility.yul\":475:724   */\n      swap3\n      swap2\n      pop\n      pop\n      jump\t// out\n        /* \"#utility.yul\":751:1025   */\n    tag_44:\n        /* \"#utility.yul\":847:855   */\n      0x00\n        /* \"#utility.yul\":878:884   */\n      dup2\n        /* \"#utility.yul\":866:884   */\n      swap1\n      pop\n        /* \"#utility.yul\":931:934   */\n      dup3\n        /* \"#utility.yul\":923:927   */\n      0x40\n        /* \"#utility.yul\":917:921   */\n      0x02\n        /* \"#utility.yul\":913:928   */\n      mul\n        /* \"#utility.yul\":903:911   */\n      dup3\n        /* \"#utility.yul\":899:929   */\n      add\n        /* \"#utility.yul\":896:935   */\n      gt\n        /* \"#utility.yul\":893:1019   */\n      iszero\n      tag_61\n      jumpi\n        /* \"#utility.yul\":938:1017   */\n      tag_62\n      tag_42\n      jump\t// in\n    tag_62:\n        /* \"#utility.yul\":893:1019   */\n    tag_61:\n        /* \"#utility.yul\":751:1025   */\n      swap3\n      swap2\n      pop\n      pop\n      jump\t// out\n        /* \"#utility.yul\":1049:1298   */\n    tag_45:\n        /* \"#utility.yul\":1120:1128   */\n      0x00\n        /* \"#utility.yul\":1151:1157   */\n      dup2\n        /* \"#utility.yul\":1139:1157   */\n      swap1\n      pop\n        /* \"#utility.yul\":1204:1207   */\n      dup3\n        /* \"#utility.yul\":1196:1200   */\n      0x20\n        /* \"#utility.yul\":1190:1194   */\n      0x04\n        /* \"#utility.yul\":1186:1201   */\n      mul\n        /* \"#utility.yul\":1176:1184   */\n      dup3\n        /* \"#utility.yul\":1172:1202   */\n      add\n        /* \"#utility.yul\":1169:1208   */\n      gt\n        /* \"#utility.yul\":1166:1292   */\n      iszero\n      tag_64\n      jumpi\n        /* \"#utility.yul\":1211:1290   */\n      tag_65\n      tag_42\n      jump\t// in\n    tag_65:\n        /* \"#utility.yul\":1166:1292   */\n    tag_64:\n        /* \"#utility.yul\":1049:1298   */\n      swap3\n      swap2\n      pop\n      pop\n      jump\t// out\n        /* \"#utility.yul\":1304:1381   */\n    tag_46:\n        /* \"#utility.yul\":1341:1348   */\n      0x00\n        /* \"#utility.yul\":1370:1375   */\n      dup2\n        /* \"#utility.yul\":1359:1375   */\n      swap1\n      pop\n        /* \"#utility.yul\":1304:1381   */\n      swap2\n      swap1\n      pop\n      jump\t// out\n        /* \"#utility.yul\":1387:1509   */\n    tag_47:\n        /* \"#utility.yul\":1460:1484   */\n      tag_68\n        /* \"#utility.yul\":1478:1483   */\n      dup2\n        /* \"#utility.yul\":1460:1484   */\n      tag_46\n      jump\t// in\n    tag_68:\n        /* \"#utility.yul\":1453:1458   */\n      dup2\n        /* \"#utility.yul\":1450:1485   */\n      eq\n        /* \"#utility.yul\":1440:1503   */\n      tag_69\n      jumpi\n        /* \"#utility.yul\":1499:1500   */\n      0x00\n        /* \"#utility.yul\":1496:1497   */\n      dup1\n        /* \"#utility.yul\":1489:1501   */\n      revert\n        /* \"#utility.yul\":1440:1503   */\n    tag_69:\n        /* \"#utility.yul\":1387:1509   */\n      pop\n      jump\t// out\n        /* \"#utility.yul\":1515:1654   */\n    tag_48:\n        /* \"#utility.yul\":1561:1566   */\n      0x00\n        /* \"#utility.yul\":1599:1605   */\n      dup2\n        /* \"#utility.yul\":1586:1606   */\n      calldataload\n        /* \"#utility.yul\":1577:1606   */\n      swap1\n      pop\n        /* \"#utility.yul\":1615:1648   */\n      tag_71\n        /* \"#utility.yul\":1642:1647   */\n      dup2\n        /* \"#utility.yul\":1615:1648   */\n      tag_47\n      jump\t// in\n    tag_71:\n        /* \"#utility.yul\":1515:1654   */\n      swap3\n      swap2\n      pop\n      pop\n      jump\t// out\n        /* \"#utility.yul\":1660:2823   */\n    tag_6:\n        /* \"#utility.yul\":1880:1886   */\n      0x00\n        /* \"#utility.yul\":1888:1894   */\n      dup1\n        /* \"#utility.yul\":1896:1902   */\n      0x00\n        /* \"#utility.yul\":1904:1910   */\n      dup1\n        /* \"#utility.yul\":1912:1918   */\n      0x00\n        /* \"#utility.yul\":1961:1964   */\n      0x01a0\n        /* \"#utility.yul\":1949:1958   */\n      dup7\n        /* \"#utility.yul\":1940:1947   */\n      dup9\n        /* \"#utility.yul\":1936:1959   */\n      sub\n        /* \"#utility.yul\":1932:1965   */\n      slt\n        /* \"#utility.yul\":1929:2049   */\n      iszero\n      tag_73\n      jumpi\n        /* \"#utility.yul\":1968:2047   */\n      tag_74\n      tag_40\n      jump\t// in\n    tag_74:\n        /* \"#utility.yul\":1929:2049   */\n    tag_73:\n        /* \"#utility.yul\":2088:2089   */\n      0x00\n        /* \"#utility.yul\":2113:2191   */\n      tag_75\n        /* \"#utility.yul\":2183:2190   */\n      dup9\n        /* \"#utility.yul\":2174:2180   */\n      dup3\n        /* \"#utility.yul\":2163:2172   */\n      dup10\n        /* \"#utility.yul\":2159:2181   */\n      add\n        /* \"#utility.yul\":2113:2191   */\n      tag_43\n      jump\t// in\n    tag_75:\n        /* \"#utility.yul\":2103:2191   */\n      swap6\n      pop\n        /* \"#utility.yul\":2059:2201   */\n      pop\n        /* \"#utility.yul\":2240:2242   */\n      0x40\n        /* \"#utility.yul\":2266:2369   */\n      tag_76\n        /* \"#utility.yul\":2361:2368   */\n      dup9\n        /* \"#utility.yul\":2352:2358   */\n      dup3\n        /* \"#utility.yul\":2341:2350   */\n      dup10\n        /* \"#utility.yul\":2337:2359   */\n      add\n        /* \"#utility.yul\":2266:2369   */\n      tag_44\n      jump\t// in\n    tag_76:\n        /* \"#utility.yul\":2256:2369   */\n      swap5\n      pop\n        /* \"#utility.yul\":2211:2379   */\n      pop\n        /* \"#utility.yul\":2418:2421   */\n      0xc0\n        /* \"#utility.yul\":2445:2523   */\n      tag_77\n        /* \"#utility.yul\":2515:2522   */\n      dup9\n        /* \"#utility.yul\":2506:2512   */\n      dup3\n        /* \"#utility.yul\":2495:2504   */\n      dup10\n        /* \"#utility.yul\":2491:2513   */\n      add\n        /* \"#utility.yul\":2445:2523   */\n      tag_43\n      jump\t// in\n    tag_77:\n        /* \"#utility.yul\":2435:2523   */\n      swap4\n      pop\n        /* \"#utility.yul\":2389:2533   */\n      pop\n        /* \"#utility.yul\":2572:2575   */\n      0x0100\n        /* \"#utility.yul\":2599:2677   */\n      tag_78\n        /* \"#utility.yul\":2669:2676   */\n      dup9\n        /* \"#utility.yul\":2660:2666   */\n      dup3\n        /* \"#utility.yul\":2649:2658   */\n      dup10\n        /* \"#utility.yul\":2645:2667   */\n      add\n        /* \"#utility.yul\":2599:2677   */\n      tag_45\n      jump\t// in\n    tag_78:\n        /* \"#utility.yul\":2589:2677   */\n      swap3\n      pop\n        /* \"#utility.yul\":2543:2687   */\n      pop\n        /* \"#utility.yul\":2726:2729   */\n      0x0180\n        /* \"#utility.yul\":2753:2806   */\n      tag_79\n        /* \"#utility.yul\":2798:2805   */\n      dup9\n        /* \"#utility.yul\":2789:2795   */\n      dup3\n        /* \"#utility.yul\":2778:2787   */\n      dup10\n        /* \"#utility.yul\":2774:2796   */\n      add\n        /* \"#utility.yul\":2753:2806   */\n      tag_48\n      jump\t// in\n    tag_79:\n        /* \"#utility.yul\":2743:2806   */\n      swap2\n      pop\n        /* \"#utility.yul\":2697:2816   */\n      pop\n        /* \"#utility.yul\":1660:2823   */\n      swap3\n      swap6\n      pop\n      swap3\n      swap6\n      swap1\n      swap4\n      pop\n      jump\t// out\n        /* \"#utility.yul\":2829:2919   */\n    tag_49:\n        /* \"#utility.yul\":2863:2870   */\n      0x00\n        /* \"#utility.yul\":2906:2911   */\n      dup2\n        /* \"#utility.yul\":2899:2912   */\n      iszero\n        /* \"#utility.yul\":2892:2913   */\n      iszero\n        /* \"#utility.yul\":2881:2913   */\n      swap1\n      pop\n        /* \"#utility.yul\":2829:2919   */\n      swap2\n      swap1\n      pop\n      jump\t// out\n        /* \"#utility.yul\":2925:3034   */\n    tag_50:\n        /* \"#utility.yul\":3006:3027   */\n      tag_82\n        /* \"#utility.yul\":3021:3026   */\n      dup2\n        /* \"#utility.yul\":3006:3027   */\n      tag_49\n      jump\t// in\n    tag_82:\n        /* \"#utility.yul\":3001:3004   */\n      dup3\n        /* \"#utility.yul\":2994:3028   */\n      mstore\n        /* \"#utility.yul\":2925:3034   */\n      pop\n      pop\n      jump\t// out\n        /* \"#utility.yul\":3040:3250   */\n    tag_9:\n        /* \"#utility.yul\":3127:3131   */\n      0x00\n        /* \"#utility.yul\":3165:3167   */\n      0x20\n        /* \"#utility.yul\":3154:3163   */\n      dup3\n        /* \"#utility.yul\":3150:3168   */\n      add\n        /* \"#utility.yul\":3142:3168   */\n      swap1\n      pop\n        /* \"#utility.yul\":3178:3243   */\n      tag_84\n        /* \"#utility.yul\":3240:3241   */\n      0x00\n        /* \"#utility.yul\":3229:3238   */\n      dup4\n        /* \"#utility.yul\":3225:3242   */\n      add\n        /* \"#utility.yul\":3216:3222   */\n      dup5\n        /* \"#utility.yul\":3178:3243   */\n      tag_50\n      jump\t// in\n    tag_84:\n        /* \"#utility.yul\":3040:3250   */\n      swap3\n      swap2\n      pop\n      pop\n      jump\t// out\n        /* \"#utility.yul\":3256:3436   */\n    tag_51:\n        /* \"#utility.yul\":3304:3381   */\n      0x4e487b7100000000000000000000000000000000000000000000000000000000\n        /* \"#utility.yul\":3301:3302   */\n      0x00\n        /* \"#utility.yul\":3294:3382   */\n      mstore\n        /* \"#utility.yul\":3401:3405   */\n      0x11\n        /* \"#utility.yul\":3398:3399   */\n      0x04\n        /* \"#utility.yul\":3391:3406   */\n      mstore\n        /* \"#utility.yul\":3425:3429   */\n      0x24\n        /* \"#utility.yul\":3422:3423   */\n      0x00\n        /* \"#utility.yul\":3415:3430   */\n      revert\n        /* \"#utility.yul\":3442:3636   */\n    tag_12:\n        /* \"#utility.yul\":3482:3486   */\n      0x00\n        /* \"#utility.yul\":3502:3522   */\n      tag_87\n        /* \"#utility.yul\":3520:3521   */\n      dup3\n        /* \"#utility.yul\":3502:3522   */\n      tag_46\n      jump\t// in\n    tag_87:\n        /* \"#utility.yul\":3497:3522   */\n      swap2\n      pop\n        /* \"#utility.yul\":3536:3556   */\n      tag_88\n        /* \"#utility.yul\":3554:3555   */\n      dup4\n        /* \"#utility.yul\":3536:3556   */\n      tag_46\n      jump\t// in\n    tag_88:\n        /* \"#utility.yul\":3531:3556   */\n      swap3\n      pop\n        /* \"#utility.yul\":3580:3581   */\n      dup3\n        /* \"#utility.yul\":3577:3578   */\n      dup3\n        /* \"#utility.yul\":3573:3582   */\n      sub\n        /* \"#utility.yul\":3565:3582   */\n      swap1\n      pop\n        /* \"#utility.yul\":3604:3605   */\n      dup2\n        /* \"#utility.yul\":3598:3602   */\n      dup2\n        /* \"#utility.yul\":3595:3606   */\n      gt\n        /* \"#utility.yul\":3592:3629   */\n      iszero\n      tag_89\n      jumpi\n        /* \"#utility.yul\":3609:3627   */\n      tag_90\n      tag_51\n      jump\t// in\n    tag_90:\n        /* \"#utility.yul\":3592:3629   */\n    tag_89:\n        /* \"#utility.yul\":3442:3636   */\n      swap3\n      swap2\n      pop\n      pop\n      jump\t// out\n        /* \"#utility.yul\":3642:3822   */\n    tag_15:\n        /* \"#utility.yul\":3690:3767   */\n      0x4e487b7100000000000000000000000000000000000000000000000000000000\n        /* \"#utility.yul\":3687:3688   */\n      0x00\n        /* \"#utility.yul\":3680:3768   */\n      mstore\n        /* \"#utility.yul\":3787:3791   */\n      0x32\n        /* \"#utility.yul\":3784:3785   */\n      0x04\n        /* \"#utility.yul\":3777:3792   */\n      mstore\n        /* \"#utility.yul\":3811:3815   */\n      0x24\n        /* \"#utility.yul\":3808:3809   */\n      0x00\n        /* \"#utility.yul\":3801:3816   */\n      revert\n\n    auxdata: 0xa264697066735822122021828c1bcaeb093b9f218662227d52b603db4ee789ee29e23d042ca46c06632564736f6c634300081a0033\n}\n",
				"bytecode": {
					"linkReferences": {},
					"object": "6080604052604051806101800160405280604051806101c001604052807f013ef7196e97358e510c577b797bf6e3cd39a2c16b548d73bbe8f1b33c146fe581526020017f2405be5fc409b9bbe849cefa4670e2f2a885a05297a5bd61bbd1cda937472ec481526020017f0196c02e6d88030071206cdef1ec0d569b136b27d825a0ab9eb951820c93e5f681526020017f184175828d0d3652055c9bcca5d8cdf7e8fc2360647fe9cad0ed421955561f8c81526020017f2440ec222e2a1583c4dcde1937422ac002663b9648aa13bf91085826c7d29c0a81526020017f2358e1db3e0934ca48af49ee922c8a08e9525d6d4ab69538fda8cab11930322b81526020017f2a64fab9ec8500bf84dd3f79acdca3957477df7575323969ad5f43d12ca58b0381526020017f2084d6b65d520a69aec4f77119ba07aa4ba30844716b3a3bc851d69b50a8995781526020017f0b4bfd4e46ca962ce47287d8a6fcaac3de05dca8f56e676868a2cf9555fcfb5e81526020017f0390a10dd59148d792af91ba00d8634cef3edeb0e31c9de0e77da89432bfa9f781526020017f237015692fac4c78242204d6a991ff50ed1e999db38fa500932386aa9f8c69d781526020017f0f444648f9e0d2ea670e01e9aebfb2e99b7a7948f45402932084f424d5eec47181526020017f0b22f938508e2f9a1744f12d4cf18ea556c18aa543b2c40e9e95db3bd8fb711d81526020017f0b645ecebab2fd4a623a41a5830884d1cb3e596a8618960d0760e74de4ffcc2f8152508152602001604051806101c001604052807f0f4f987b1efdb56995efffd0b1b25eb3deebc1e06b38fd443ce1cb22fed3842681526020017f11e1a3e4ed0a9bd9dca060de44d12105ba8b5f89ef20dfa230eeb2a9fdce46ab81526020017f165d0638a737d6260b25608ae97698ef687aec5ab964d5d022ee37c7456dcb5781526020017f2287e284e930bf3c0618fb4af91a5774581579aa7051f96cb26afb844030c64681526020017f2b4613e8c07ef908a6adee2289eb6542814edf0cfdaf1b8d5610c5161913f5ff81526020017f0543e4cf7447121dd4c27d03a5a84733cc1eb51f9eacdfcc90005084b5e6d05981526020017f07e509c557d49250507bd434a77a23c92e4f6bffcbd541eeefd420b56cebe14681526020017f06b105f855e8a78ca522d71decae7cd39434a3d6872afe8aeb9b95140d14369b81526020017f18345c1764032ce292bf4c322d9b4ada01d197b0c029a6d56d3554d3575b9f4d81526020017f24506814b04e3ca0efd80b32ee03488fbafc4c4c2d9ef41f265fce3839a8cd4e81526020017f2da0fa88b6c7e6562539ea8717df39728b881def91795d75939d28948b6c2ba881526020017f022924f05a80eb024c3256ed1e7ee1356e07fa6f61597231ffb48a69a1b1e8e681526020017f2942e03f3396f75a58c3ab94abb01638e68b33232a00f1251d7cc69200bdfe3381526020017f144d0ff502082eda66045a529b01baf5368fb7cc1bf393b389b8ddb4209fc8ac8152508152602001604051806101c001604052807f1105fd4c15b8a58d7b97e20859463291dd46b582db02245e446bf439c7bbe8fe81526020017f1105cc789a725b7fec51c250d61a28b879670a441f6c3b517ace3ab51df7d53981526020017f130642d65fa756a54c5e1ceabd2c06d86b14d2ed7430e0e196268d295df6c76a81526020017f2206b6806756f52165d90c6d231b42f92c881f8bd777b05f8c44faf1555a8ca781526020017f0297b2b6bd8bbe44425c3eeecb10a403170c8b30fb3b82ddab710282ead16c8381526020017e4f23062ceb024a83e0ce73b6d6010a1aa93e268b487743d026d297ce0547ef81526020017f01c911561e000e67e8ab0f6723d51d1f5dec89542a2cda2dbe380783e03f276f81526020017f2acef5974f8e14cb7bddc41daa6f53580dd42a9df7017d01d2ca4b8f702600dd81526020017f14e87f2e58f15efda3cc2d3e9f83bbcfcdeb4974a54e5c55777011f9b792e9d881526020017f2a83478814788be4717b525824bb1ed69f4598d7b977590234806b68715a320981526020017f29bf95777f03da3719c1576cc963aa131ff8a8c7e7d7571bd6f499f6d02b3e4c81526020017f062e1a45181ed3c3c1bec6e2ad2f36468ff233142af4af31325cdfa1f2dd423e81526020017f27d2fc3c724c259029cd00dfcdee2dbfc356b420922ae33ceac7e8053cc71c2481526020017f1942605fda94bf8b67ce81303e3594a3ae946b7b129412c4979577d0b7cfe31b8152508152602001604051806101c001604052807f146fb822d3cb83ffdc1b4db22d6f94937a2424885d6d7039b56e54391e84535d81526020017f05aa08eda3c5c049dc1a5915df0c2b67c3619da9650af2bd09e7b2617d80412081526020017f02e455f0d4bda17e5d934aa338f0310c74550e1f8da686e30dc1560cb77bb4b481526020017f28618b94685412e5b97988cc831b8b4aeb3b545a8c8f8fb1fcf34ebe36cce92181526020017f0cae392659f88489291a63eef467d5e0bd7c42320216762705adcb574fa43a2681526020017f1bbd80d93947826138ab9feec5dbe6e3a5bb3f5e3d814bd53e72d211cc884fb981526020017f277d11d2b31a0054843d07c876991ec302c34cf7f493bd1db86b6e3ef73a4cea81526020017f1bae8bd1e005ad0ba9e4359677c814fe054041b10361ce387a7356281ca5f13781526020017f01918458b77ddc49e149dd542b09dde77a473f9c0af990678e4b6421b89746d681526020017f2cc7dbe4f27e8b13baaa5dfaa61f221b6d841787e41dc4b484e12e54b444200881526020017f13a01b8d34c04dbdfd35e59960387931050b32d0a17f05eb3dfd0a494e5f31bc81526020017f156db3b3ca7c27276bead97a9643b6a12666de3004c1478fee65d8fa04374ee281526020017f19846331d71e7b7512afbbde8d9fc48a75f86dd30e7ddc34e30b6e9fecdaea2e81526020017f0fbc61a5f6b54b4372627c40e3a9dbca5607c92614a0fb7405a30418698dcdf88152508152602001604051806101c001604052807f1bc1cdf66a14f07180056d51b17e14fdb0587dd43cb34be6716b1e252adb1cfa81526020017f2f1bd8c1d7195efb5bd5652c60cb5665222103196ec5fd17260f24147a5246d181526020017f1dbb2e3df7ee585ad22503c13ddcc0c89de2de8e99256ddc68cf582d79e038f781526020017f18bff4b4441669229b6cc7aadb911025f8eab818235854fc7f5f9ffb7ea5544981526020017f0f86bde52a992c0d79ef3627e1b8b59173f58d06a3afecff95f8f4fff637cf2281526020017f1fc41a0bb009782293fbec9b6eba20e2b8c663aa15a16abc6eed9d69e930861781526020017f2d0488f4ebe5a068b01133b98ebb80d78963f244b3aa8068ba6c80718b65d7c781526020017f19d4dcbc64b1fcc9dcf3db4c6ca7cef9900698f8bb6557ade9e5cf367beeb68881526020017f2feef8108cc2379d73513a82eea70cd81a181c2e33ca89d0330ca838745d668181526020017f036febce371368756a43cd14d3a6af46d362a5c35e72804e6fe78b527104045f81526020017f151ee45f65557c9fccff218169be14dc1b78cc4a90d3b0b9d506e5ec6d495b8481526020017f3023eec5f70baff57dd0415700fd8b546f2637b0cad1cd2b1df1741021425a8081526020017f07ad80c2f6f58260557ed72bbb230c6d289d83441306a803aabf029af042e59e81526020017f304f0fe42620f00d880b9f1a56f71db31c431fe3be02c54c665efe9d8771c5918152508152602001604051806101c001604052807f0f2001b0e2808cbe9fbe1ccdb7ed5af2c802913d179c5e1f5a220404b5d0d08681526020017f19e1e5b8bd9467181560627b0129b48bbca4d2a563ce06dba1396a8cd096d56981526020017f11fbeb4a7fcca72609e8e1afe73a7782b5110b95515c16ad922b02fcc9a674dd81526020017f05e9cb5667c5dcbe735ffbf57e7476411903f06314f24a60a24c3889df82298f81526020017f1ef7fd3c775a80711f137928f1ac39bbbb01a89943bc5c43739ec9173fe027f281526020017f14d7a93d5f26077e0a6eaaa4bd738bae57ff22aadf8a8473943b6f644f69725681526020017f14d5f3ffccf62b2b26972a6d7dfcb776332b20433ddbb4f9a828e40f7b4d32af81526020017f0b684a19560776462c22d8791f3e97bcfac812fa12ee8703030ff95c4bf2751881526020017f0d1eaf5b352c9588c6c20031067dd28a5a363b4aeedbb4aeed3aa978dbc8fddc81526020017f0e882683cb6b0d55e194c3d5708b62be8b91a9941142587ede47096e204c9faa81526020017f2651be7344e6be5368f137de2166acaeda517815aec590822b47f98f577858b581526020017f2d4172fa3f220bdd4d4b3d69455897b30a51f27586a9b369a9536c51d00093db81526020017f1a4c7436cd7c282eaf249163b2a726daa3fb2737e38da00f615a495036eee15081526020017f052f661471df979be9aead5b150e64f05734858cebf8abdd31500ebe9daf50598152508152602001604051806101c001604052807f23dd6bf92585d187ac2d4671cf13f94d985feb5b3719c40ab35592d2f647cb6581526020017f1fb85ef6f9fdc6083995ff6aad9ae22a98752a601abaf3d534cf980df6f795c981526020017f036e63661c990ad12eb950cd2e0584372457358ac5cc984ce91a87677c1672f681526020017f0c49edf60dbc9d2851dcc8c716e0c6d45d3497aa997c6eb957466cae69c0148e81526020017f215972553fb8fff61a3121aafee6a99b3b8357e1f28bbd0239a4f4465edf9e6281526020017f269241a97474c2eb2646670ae0caa1c92101a39b35992b7ec79e256ab1d32b0981526020017f22158165e2541a0a6527743827c084bc86de22b85ecfb896314ade24b266dcbc81526020017f0f46fdfd54e79b00e309b8dc467108870e7d88f634094b67a8cc39d8a0137d6381526020017f0729f76399befc2699e621290467ead8869b064300743ff00e5d8f29c1f4e10581526020017f15757e58bc3916c6838d401b015d3cb65334be4194b9a1b023db43def60463aa81526020017f0872d1decba9a9852e202eba96f8a1ab09c7db0fd986416415785e24f49917fc81526020017f1b044e4cdf43015374e1b202cfd5b7b1bc24c8000b03eb6ea6b47e27f798b4e181526020017f24719f2ee741477db930f10849677e3744c9a7bcd40725d59147122ae3c86ada81526020017f229383e070bf106140ea30a9f70bae89db9e249f47d7fc7298645e78d35d74b28152508152602001604051806101c001604052807f11c60f8708f714a35e9802644cf964dea7b833fca39c3222b8a41d69192b8ca581526020017f1e6227bddd81fd0e8f005549131313a938f2719603381817aa49d400a124a21f81526020017f0cac8a3d12db8c062984c3e0d60334aac8ebfa38427efe8b38b38d158aa677e681526020017f03273f6efecfc1cffb2e907fe7c96167b1ae08343f80a3aabbf770692ca8b5bf81526020017f101dbc5349e77ef96db2867138a099319784843d19ccd6671d156d33ca3d6ebc81526020017f218e0b68e696c429bd606de3a19b9ad4d9ebb49d46bb147071231ec5f65deba581526020017f0bf75f2284152eb39be5ed8fef968d1c3efc61ac1844cff901e2b78bc86e08c381526020017f250b05198a4e6d784d61b2aaea5a8c43e30e6d13163c6e3bd2d5d7a57f6a1c0181526020017f01dded98e05eea4b37305cd85f82652eeeff6b96b58425b45ce75ee38f86d20381526020017f1b3ed770919c526c1f28d432c5d325d48595eb2ec421336d6e664f40825776ef81526020017f2b0aba4b8ab317a7b430445baecf7f5987ced258efa0830622603934779d42d881526020017f0e6605839b92f86559928b0e5e58bd17ff393fc53dc2d5e6f3afe06b0d9072f081526020017f1220668f0b98e6bce306615f834b9675d2b55e943e11390044d0a4759b07a0c381526020017f11b84e82e20896a8e9147881f50da4e0f416841c54082d02b737a3a3a58409868152508152602001604051806101c001604052807f1c55d668f0fa8615d358a8e6ea0f77032084bd9731a10b3718ee42b6fdaefbe581526020017f0ac3e311875aa40fd753aad1507d6cb4e38d42ef65feb48ff137f1b21b461d0581526020017f28763f6f0d6b8fa547ae8369793636b291ee8750cc430cefe97bfd4baac96d2d81526020017f187b4a7cf2d4e3ffe2b0f9809d298b06821f9ef6731e24636d9a0f28794eeb8f81526020017f1422e102170d9718b1a52839ffe6b9c5d14a607c7ecbbef752de37ee5765166181526020017f14dfcf6fc14826c0fad5d5e96863a1ddeb61714b2980876766aa04484ccab2de81526020017f13de803188ad0eb01bd75707816728e4edd0889f66729cd6dd74f9c435193cba81526020017f03d0608a4af4381d7e8e55699bc86bbe7129ecc48139da64f482e369f724693381526020017f28efbf3fd955c09ee8a42f4bff0291c4ba84c475e56f1216e86cf2294c3d2c2f81526020017e4090e425df767152b89824be03c885a47d8dc4b8fb81dcd925c8ed2d104d4681526020017f23301a53fc52d7c64110826687c60087a060ddefd664e271e51dadd4fc906f6c81526020017f14b975b5a7edb7c1ff9d0a8bec341b8aa4f9a3010a84bf31be02c8b6a96de1c681526020017f0ae235220e7846e32c05a51710e86eb7a2003ecb46e14729a689c5143e3cc74281526020017f13a399d18336d73804247f99d7ca7b73ae52c795d0528dcf88424ec64cd05a408152508152602001604051806101c001604052807f177bd0aa638195181175a48f43dad85a5c8d2f01c8a86df160f6470b2196a6dd81526020017f1985d0e08910848c0ce0098a576cdb62d47c81e0feeb5e9283524c2fcfe1670381526020017f2ad1d5cd62c1e648c9a0e4bb7896a75c987f3a8bb8c35afb58145d9783225f9b81526020017e1c10259a73e31d020da03a89bcc36653383cfec8b42dbe1761aae9d0794b0281526020017f208a1cefd7f049abe5fe7f9e28181972b19e0c990235987e4c61af8e99897e8881526020017f2468be9041a6e586e2b38f770ffd557f8d69bd6178885d69d5ebfb3d61a97f2d81526020017f2ab4da8a56c29e6a298095d65b8d76fbf2eac0ce37ff65f026e9823a990f1f0081526020017f0862c458efe128fd0acb55a0d916fd18758c55de4421fb967620912c8a11370181526020017f13e27e5a7e766681d5e2803c7c9266a192dfb655fc5789be2b2cbfd86bc60f0a81526020017f066877adf78ef454dceb57055e6be1d9f5103ca0cf1f9c6032c0c6c1ed806bc781526020017f0f7dd0841e4174177419f1d9dfa7fb25b755a1568fd55dc62c16d6224e4477ed81526020017f0e8b506cbe28b71bbaf916e54990f3e1a61e3e34acb17084162ef7a15092404e81526020017f285b2d4c2b36020176cbe6f1b9cdf31f8d0fdf99c9a25505a15a860fd261600981526020017f2d8c936ef9b48c5d75fb413b7cac72cff186ab0f4cb9dfa9197dba85fef597388152508152602001604051806101c001604052807f0f4c67f52343b883391b284231b1ab9f514b667923d2efe404c79ebb142a7fc181526020017f2c8dd21aa0556db4187df9dbccfe619a938d4d6971ab20c8fb8499ff18f9b39381526020017f19cf5f8d82ef2fd726d4e61bfd25974d08a1d18f7940199b8ab90d7b9a56da2c81526020017f24803334cd560fc2ce2976b89a87d17ace733b3e70f773d169383635d9ab9c6681526020017f28a711d0889b002aa16bfd36ba33e294f44ac058a3b4a1e98cf2d0ea9ef3db3081526020017f12c90064eb460c56b0a0cab9a5e72acf3d85ba15017e0348a9d6a88db8e838d681526020017f07491a578400d71cf7f42b0bd2a1178b243a88a8c11c98e0de05d959b393eeb981526020017f1906102ab9146ea3953f8110734966b84ff8689ee9f44caf0d1b6b96bdad350781526020017f15a9dd087e3877b0bc59a6af17b72b6476a73de3f54fbfa2d43a2e76e4f1d0ba81526020017f10098ce1b8f6abdb6dcac4faf8eb9963a97ad0720a67e75835eaaab0a4d25f3b81526020017f30374184c976db1e962f5646efacf55116cfc3ef1bf2d13969407f94ada6384181526020017f06528f7a7e9e73b458fc680b8c59621d2da946c34455c8cb80ec70d77c01857181526020017f09ab55a91a7063b85c45a4308bce56e874aa3977ee6921d6f3541a3c92d9e2e581526020017f300718e2d685750add78894c11638ba2d2fd7954d11cd5b5c8aa0f7cd38766ca8152508152602001604051806101c001604052807f072d5adc75e4da51b8f796fc45a234d2f8ca4ca8708e0cd54174e9f63aff648681526020017f2fea19288315b9162b4b9947f38aa430d8cd885ed56b4bde5ce9c2714af7c30581526020017f026d3be9e7f7f9092b632bba1165848d93bf6f2f1bf756d1dc42879a72e47af081526020017f0bca1235cef12479afd16ddcc8dbb4ecf1aa1e589f13141509804a38a345297581526020017f092b3130bdb7f9be5f33d3ac5fdac9ac2d853deee532b4c93f3585022255686881526020017f0f8c32d7b52be36eefe7d264d66b3ee4c59255f16f9e239b46959dd40b4623cc81526020017f0b96504f8b767e15046db623894abede0fcd6437af458769b4f49eb493a37fcb81526020017f0bad1845ad553f1d7fecd0d97d73010d8fe475f3dea683e8eca65623d065353781526020017f11ede2d36debc21a2bd22d22400cb8b1cd14e846d5b6a273068f6137a600554581526020017f0a62374f4d0b8800bf6848c777d1259704de995e1469633e57a65e196e0070f081526020017f1ee504d746aa3bdafb86361d8f09d3a5509869996fe13bdad29f8fbd357f5ffd81526020017f1ff336222321debd2161b0b1dbb66ddf92fd56050f82e244315b57af052e26c081526020017f14fb8fd0381cc9122e8d11e02ff39bd9f2168fad1e9bff2c858c97fe6759e5ca81526020017e80ddd094a23483e51116d6aed63f579212f84448aa3ed4ed57ace80af12935815250815250600090600c6119be9291906119d1565b503480156119cb57600080fd5b50611ab6565b82600c600e028101928215611a11579160200282015b82811115611a105782518290600e611a00929190611a22565b50916020019190600e01906119e7565b5b509050611a1e9190611a62565b5090565b82600e8101928215611a51579160200282015b82811115611a50578251825591602001919060010190611a35565b5b509050611a5e9190611a86565b5090565b5b80821115611a825760008181611a799190611aa3565b50600e01611a63565b5090565b5b80821115611a9f576000816000905550600101611a87565b5090565b5080600e0190611ab39190611a86565b50565b6106e280611ac56000396000f3fe608060405234801561001057600080fd5b506004361061002b5760003560e01c8063a23f019914610030575b600080fd5b61004a60048036038101906100459190610566565b610060565b60405161005791906105ff565b60405180910390f35b60008060006001846100729190610649565b600c81106100835761008261067d565b5b600e0201600e806020026040519081016040528092919082600e80156100be576020028201915b8154815260200190600101908083116100aa575b5050505050905061045c565b7f30644e72e131a029b85045b68181585d2833e84879b9709143e1f593f000000181106100fb576000805260206000f35b50565b600060405183815284602082015285604082015260408160608360076107d05a03fa915081610131576000805260206000f35b825160408201526020830151606082015260408360808360066107d05a03fa915081610161576000805260206000f35b505050505050565b600060808601600087016080890151815260a0890151602082015261019c600088013560e08b015160c08c0151846100fe565b6101b660208801356101208b01516101008c0151846100fe565b6101d060408801356101608b01516101408c0151846100fe565b6101ea60608801356101a08b01516101808c0151846100fe565b833582527f30644e72e131a029b85045b68181585d97816a916871ca8d3c208c16d87cfd4760208501357f30644e72e131a029b85045b68181585d97816a916871ca8d3c208c16d87cfd4703066020830152843560408301526020850135606083015260408501356080830152606085013560a08301527f2d4d9aa7e302d9df41749d5507949d05dbea33fbb16c643b22f599a2be6df2e260c08301527f14bedd503c37ceb061d8ec60209fe345ce89830a19230301f076caff004d192660e08301527f0967032fcbf776d1afc985f88877f182d38480a653f2decaa9794cbc3bf3060c6101008301527f0e187847ad4c798374d0d6732bf501847dd68bc0e071241e0213bc7fc13db7ab6101208301527f304cfbd1e08a704a99f5e847d93f8c3caafddec46b7a0d379da69a4d112346a76101408301527f1739c1b1a457a8c7313123d24d2f9192f896b7c63eea05a9d57f06547ad0cec8610160830152600088015161018083015260206000018801516101a08301527f198e9393920d483a7260bfb731fb5d25f1aa493335a9e71297e485b7aef312c26101c08301527f1800deef121f1e76426a00665e5c4479674322d4f75edadd46debd5cd992f6ed6101e08301527f090689d0585ff075ec9e99ad690c3395bc4b313370b38ef355acdadcd122975b6102008301527f12c85ea5db8c6deb4aab71808dcb408fe3d1e7690c43d37b4ce6cc0166fa7daa61022083015285356102408301526020860135610260830152885161028083015260208901516102a083015260408901516102c083015260608901516102e08301526020826103008460086107d05a03fa8251811693505050509695505050505050565b604051610380810160405261047460008601356100ca565b61048160208601356100ca565b61048e60408601356100ca565b61049b60608601356100ca565b6104a860808601356100ca565b6104b6828287898b8d610169565b8060005260206000f35b600080fd5b600080fd5b6000819050826020600202820111156104e6576104e56104c5565b5b92915050565b600081905082604060020282011115610508576105076104c5565b5b92915050565b60008190508260206004028201111561052a576105296104c5565b5b92915050565b6000819050919050565b61054381610530565b811461054e57600080fd5b50565b6000813590506105608161053a565b92915050565b60008060008060006101a08688031215610583576105826104c0565b5b6000610591888289016104ca565b95505060406105a2888289016104ec565b94505060c06105b3888289016104ca565b9350506101006105c58882890161050e565b9250506101806105d788828901610551565b9150509295509295909350565b60008115159050919050565b6105f9816105e4565b82525050565b600060208201905061061460008301846105f0565b92915050565b7f4e487b7100000000000000000000000000000000000000000000000000000000600052601160045260246000fd5b600061065482610530565b915061065f83610530565b92508282039050818111156106775761067661061a565b5b92915050565b7f4e487b7100000000000000000000000000000000000000000000000000000000600052603260045260246000fdfea264697066735822122021828c1bcaeb093b9f218662227d52b603db4ee789ee29e23d042ca46c06632564736f6c634300081a0033",
					"opcodes": "PUSH1 0x80 PUSH1 0x40 MSTORE PUSH1 0x40 MLOAD DUP1 PUSH2 0x180 ADD PUSH1 0x40 MSTORE DUP1 PUSH1 0x40 MLOAD DUP1 PUSH2 0x1C0 ADD PUSH1 0x40 MSTORE DUP1 PUSH32 0x13EF7196E97358E510C577B797BF6E3CD39A2C16B548D73BBE8F1B33C146FE5 DUP2 MSTORE PUSH1 0x20 ADD PUSH32 0x2405BE5FC409B9BBE849CEFA4670E2F2A885A05297A5BD61BBD1CDA937472EC4 DUP2 MSTORE PUSH1 0x20 ADD PUSH32 0x196C02E6D88030071206CDEF1EC0D569B136B27D825A0AB9EB951820C93E5F6 DUP2 MSTORE PUSH1 0x20 ADD PUSH32 0x184175828D0D3652055C9BCCA5D8CDF7E8FC2360647FE9CAD0ED421955561F8C DUP2 MSTORE PUSH1 0x20 ADD PUSH32 0x2440EC222E2A1583C4DCDE1937422AC002663B9648AA13BF91085826C7D29C0A DUP2 MSTORE PUSH1 0x20 ADD PUSH32 0x2358E1DB3E0934CA48AF49EE922C8A08E9525D6D4AB69538FDA8CAB11930322B DUP2 MSTORE PUSH1 0x20 ADD PUSH32 0x2A64FAB9EC8500BF84DD3F79ACDCA3957477DF7575323969AD5F43D12CA58B03 DUP2 MSTORE PUSH1 0x20 ADD PUSH32 0x2084D6B65D520A69AEC4F77119BA07AA4BA30844716B3A3BC851D69B50A89957 DUP2 MSTORE PUSH1 0x20 ADD PUSH32 0xB4BFD4E46CA962CE47287D8A6FCAAC3DE05DCA8F56E676868A2CF9555FCFB5E DUP2 MSTORE PUSH1 0x20 ADD PUSH32 0x390A10DD59148D792AF91BA00D8634CEF3EDEB0E31C9DE0E77DA89432BFA9F7 DUP2 MSTORE PUSH1 0x20 ADD PUSH32 0x237015692FAC4C78242204D6A991FF50ED1E999DB38FA500932386AA9F8C69D7 DUP2 MSTORE PUSH1 0x20 ADD PUSH32 0xF444648F9E0D2EA670E01E9AEBFB2E99B7A7948F45402932084F424D5EEC471 DUP2 MSTORE PUSH1 0x20 ADD PUSH32 0xB22F938508E2F9A1744F12D4CF18EA556C18AA543B2C40E9E95DB3BD8FB711D DUP2 MSTORE PUSH1 0x20 ADD PUSH32 0xB645ECEBAB2FD4A623A41A5830884D1CB3E596A8618960D0760E74DE4FFCC2F DUP2 MSTORE POP DUP2 MSTORE PUSH1 0x20 ADD PUSH1 0x40 MLOAD DUP1 PUSH2 0x1C0 ADD PUSH1 0x40 MSTORE DUP1 PUSH32 0xF4F987B1EFDB56995EFFFD0B1B25EB3DEEBC1E06B38FD443CE1CB22FED38426 DUP2 MSTORE PUSH1 0x20 ADD PUSH32 0x11E1A3E4ED0A9BD9DCA060DE44D12105BA8B5F89EF20DFA230EEB2A9FDCE46AB DUP2 MSTORE PUSH1 0x20 ADD PUSH32 0x165D0638A737D6260B25608AE97698EF687AEC5AB964D5D022EE37C7456DCB57 DUP2 MSTORE PUSH1 0x20 ADD PUSH32 0x2287E284E930BF3C0618FB4AF91A5774581579AA7051F96CB26AFB844030C646 DUP2 MSTORE PUSH1 0x20 ADD PUSH32 0x2B4613E8C07EF908A6ADEE2289EB6542814EDF0CFDAF1B8D5610C5161913F5FF DUP2 MSTORE PUSH1 0x20 ADD PUSH32 0x543E4CF7447121DD4C27D03A5A84733CC1EB51F9EACDFCC90005084B5E6D059 DUP2 MSTORE PUSH1 0x20 ADD PUSH32 0x7E509C557D49250507BD434A77A23C92E4F6BFFCBD541EEEFD420B56CEBE146 DUP2 MSTORE PUSH1 0x20 ADD PUSH32 0x6B105F855E8A78CA522D71DECAE7CD39434A3D6872AFE8AEB9B95140D14369B DUP2 MSTORE PUSH1 0x20 ADD PUSH32 0x18345C1764032CE292BF4C322D9B4ADA01D197B0C029A6D56D3554D3575B9F4D DUP2 MSTORE PUSH1 0x20 ADD PUSH32 0x24506814B04E3CA0EFD80B32EE03488FBAFC4C4C2D9EF41F265FCE3839A8CD4E DUP2 MSTORE PUSH1 0x20 ADD PUSH32 0x2DA0FA88B6C7E6562539EA8717DF39728B881DEF91795D75939D28948B6C2BA8 DUP2 MSTORE PUSH1 0x20 ADD PUSH32 0x22924F05A80EB024C3256ED1E7EE1356E07FA6F61597231FFB48A69A1B1E8E6 DUP2 MSTORE PUSH1 0x20 ADD PUSH32 0x2942E03F3396F75A58C3AB94ABB01638E68B33232A00F1251D7CC69200BDFE33 DUP2 MSTORE PUSH1 0x20 ADD PUSH32 0x144D0FF502082EDA66045A529B01BAF5368FB7CC1BF393B389B8DDB4209FC8AC DUP2 MSTORE POP DUP2 MSTORE PUSH1 0x20 ADD PUSH1 0x40 MLOAD DUP1 PUSH2 0x1C0 ADD PUSH1 0x40 MSTORE DUP1 PUSH32 0x1105FD4C15B8A58D7B97E20859463291DD46B582DB02245E446BF439C7BBE8FE DUP2 MSTORE PUSH1 0x20 ADD PUSH32 0x1105CC789A725B7FEC51C250D61A28B879670A441F6C3B517ACE3AB51DF7D539 DUP2 MSTORE PUSH1 0x20 ADD PUSH32 0x130642D65FA756A54C5E1CEABD2C06D86B14D2ED7430E0E196268D295DF6C76A DUP2 MSTORE PUSH1 0x20 ADD PUSH32 0x2206B6806756F52165D90C6D231B42F92C881F8BD777B05F8C44FAF1555A8CA7 DUP2 MSTORE PUSH1 0x20 ADD PUSH32 0x297B2B6BD8BBE44425C3EEECB10A403170C8B30FB3B82DDAB710282EAD16C83 DUP2 MSTORE PUSH1 0x20 ADD PUSH31 0x4F23062CEB024A83E0CE73B6D6010A1AA93E268B487743D026D297CE0547EF DUP2 MSTORE PUSH1 0x20 ADD PUSH32 0x1C911561E000E67E8AB0F6723D51D1F5DEC89542A2CDA2DBE380783E03F276F DUP2 MSTORE PUSH1 0x20 ADD PUSH32 0x2ACEF5974F8E14CB7BDDC41DAA6F53580DD42A9DF7017D01D2CA4B8F702600DD DUP2 MSTORE PUSH1 0x20 ADD PUSH32 0x14E87F2E58F15EFDA3CC2D3E9F83BBCFCDEB4974A54E5C55777011F9B792E9D8 DUP2 MSTORE PUSH1 0x20 ADD PUSH32 0x2A83478814788BE4717B525824BB1ED69F4598D7B977590234806B68715A3209 DUP2 MSTORE PUSH1 0x20 ADD PUSH32 0x29BF95777F03DA3719C1576CC963AA131FF8A8C7E7D7571BD6F499F6D02B3E4C DUP2 MSTORE PUSH1 0x20 ADD PUSH32 0x62E1A45181ED3C3C1BEC6E2AD2F36468FF233142AF4AF31325CDFA1F2DD423E DUP2 MSTORE PUSH1 0x20 ADD PUSH32 0x27D2FC3C724C259029CD00DFCDEE2DBFC356B420922AE33CEAC7E8053CC71C24 DUP2 MSTORE PUSH1 0x20 ADD PUSH32 0x1942605FDA94BF8B67CE81303E3594A3AE946B7B129412C4979577D0B7CFE31B DUP2 MSTORE POP DUP2 MSTORE PUSH1 0x20 ADD PUSH1 0x40 MLOAD DUP1 PUSH2 0x1C0 ADD PUSH1 0x40 MSTORE DUP1 PUSH32 0x146FB822D3CB83FFDC1B4DB22D6F94937A2424885D6D7039B56E54391E84535D DUP2 MSTORE PUSH1 0x20 ADD PUSH32 0x5AA08EDA3C5C049DC1A5915DF0C2B67C3619DA9650AF2BD09E7B2617D804120 DUP2 MSTORE PUSH1 0x20 ADD PUSH32 0x2E455F0D4BDA17E5D934AA338F0310C74550E1F8DA686E30DC1560CB77BB4B4 DUP2 MSTORE PUSH1 0x20 ADD PUSH32 0x28618B94685412E5B97988CC831B8B4AEB3B545A8C8F8FB1FCF34EBE36CCE921 DUP2 MSTORE PUSH1 0x20 ADD PUSH32 0xCAE392659F88489291A63EEF467D5E0BD7C42320216762705ADCB574FA43A26 DUP2 MSTORE PUSH1 0x20 ADD PUSH32 0x1BBD80D93947826138AB9FEEC5DBE6E3A5BB3F5E3D814BD53E72D211CC884FB9 DUP2 MSTORE PUSH1 0x20 ADD PUSH32 0x277D11D2B31A0054843D07C876991EC302C34CF7F493BD1DB86B6E3EF73A4CEA DUP2 MSTORE PUSH1 0x20 ADD PUSH32 0x1BAE8BD1E005AD0BA9E4359677C814FE054041B10361CE387A7356281CA5F137 DUP2 MSTORE PUSH1 0x20 ADD PUSH32 0x1918458B77DDC49E149DD542B09DDE77A473F9C0AF990678E4B6421B89746D6 DUP2 MSTORE PUSH1 0x20 ADD PUSH32 0x2CC7DBE4F27E8B13BAAA5DFAA61F221B6D841787E41DC4B484E12E54B4442008 DUP2 MSTORE PUSH1 0x20 ADD PUSH32 0x13A01B8D34C04DBDFD35E59960387931050B32D0A17F05EB3DFD0A494E5F31BC DUP2 MSTORE PUSH1 0x20 ADD PUSH32 0x156DB3B3CA7C27276BEAD97A9643B6A12666DE3004C1478FEE65D8FA04374EE2 DUP2 MSTORE PUSH1 0x20 ADD PUSH32 0x19846331D71E7B7512AFBBDE8D9FC48A75F86DD30E7DDC34E30B6E9FECDAEA2E DUP2 MSTORE PUSH1 0x20 ADD PUSH32 0xFBC61A5F6B54B4372627C40E3A9DBCA5607C92614A0FB7405A30418698DCDF8 DUP2 MSTORE POP DUP2 MSTORE PUSH1 0x20 ADD PUSH1 0x40 MLOAD DUP1 PUSH2 0x1C0 ADD PUSH1 0x40 MSTORE DUP1 PUSH32 0x1BC1CDF66A14F07180056D51B17E14FDB0587DD43CB34BE6716B1E252ADB1CFA DUP2 MSTORE PUSH1 0x20 ADD PUSH32 0x2F1BD8C1D7195EFB5BD5652C60CB5665222103196EC5FD17260F24147A5246D1 DUP2 MSTORE PUSH1 0x20 ADD PUSH32 0x1DBB2E3DF7EE585AD22503C13DDCC0C89DE2DE8E99256DDC68CF582D79E038F7 DUP2 MSTORE PUSH1 0x20 ADD PUSH32 0x18BFF4B4441669229B6CC7AADB911025F8EAB818235854FC7F5F9FFB7EA55449 DUP2 MSTORE PUSH1 0x20 ADD PUSH32 0xF86BDE52A992C0D79EF3627E1B8B59173F58D06A3AFECFF95F8F4FFF637CF22 DUP2 MSTORE PUSH1 0x20 ADD PUSH32 0x1FC41A0BB009782293FBEC9B6EBA20E2B8C663AA15A16ABC6EED9D69E9308617 DUP2 MSTORE PUSH1 0x20 ADD PUSH32 0x2D0488F4EBE5A068B01133B98EBB80D78963F244B3AA8068BA6C80718B65D7C7 DUP2 MSTORE PUSH1 0x20 ADD PUSH32 0x19D4DCBC64B1FCC9DCF3DB4C6CA7CEF9900698F8BB6557ADE9E5CF367BEEB688 DUP2 MSTORE PUSH1 0x20 ADD PUSH32 0x2FEEF8108CC2379D73513A82EEA70CD81A181C2E33CA89D0330CA838745D6681 DUP2 MSTORE PUSH1 0x20 ADD PUSH32 0x36FEBCE371368756A43CD14D3A6AF46D362A5C35E72804E6FE78B527104045F DUP2 MSTORE PUSH1 0x20 ADD PUSH32 0x151EE45F65557C9FCCFF218169BE14DC1B78CC4A90D3B0B9D506E5EC6D495B84 DUP2 MSTORE PUSH1 0x20 ADD PUSH32 0x3023EEC5F70BAFF57DD0415700FD8B546F2637B0CAD1CD2B1DF1741021425A80 DUP2 MSTORE PUSH1 0x20 ADD PUSH32 0x7AD80C2F6F58260557ED72BBB230C6D289D83441306A803AABF029AF042E59E DUP2 MSTORE PUSH1 0x20 ADD PUSH32 0x304F0FE42620F00D880B9F1A56F71DB31C431FE3BE02C54C665EFE9D8771C591 DUP2 MSTORE POP DUP2 MSTORE PUSH1 0x20 ADD PUSH1 0x40 MLOAD DUP1 PUSH2 0x1C0 ADD PUSH1 0x40 MSTORE DUP1 PUSH32 0xF2001B0E2808CBE9FBE1CCDB7ED5AF2C802913D179C5E1F5A220404B5D0D086 DUP2 MSTORE PUSH1 0x20 ADD PUSH32 0x19E1E5B8BD9467181560627B0129B48BBCA4D2A563CE06DBA1396A8CD096D569 DUP2 MSTORE PUSH1 0x20 ADD PUSH32 0x11FBEB4A7FCCA72609E8E1AFE73A7782B5110B95515C16AD922B02FCC9A674DD DUP2 MSTORE PUSH1 0x20 ADD PUSH32 0x5E9CB5667C5DCBE735FFBF57E7476411903F06314F24A60A24C3889DF82298F DUP2 MSTORE PUSH1 0x20 ADD PUSH32 0x1EF7FD3C775A80711F137928F1AC39BBBB01A89943BC5C43739EC9173FE027F2 DUP2 MSTORE PUSH1 0x20 ADD PUSH32 0x14D7A93D5F26077E0A6EAAA4BD738BAE57FF22AADF8A8473943B6F644F697256 DUP2 MSTORE PUSH1 0x20 ADD PUSH32 0x14D5F3FFCCF62B2B26972A6D7DFCB776332B20433DDBB4F9A828E40F7B4D32AF DUP2 MSTORE PUSH1 0x20 ADD PUSH32 0xB684A19560776462C22D8791F3E97BCFAC812FA12EE8703030FF95C4BF27518 DUP2 MSTORE PUSH1 0x20 ADD PUSH32 0xD1EAF5B352C9588C6C20031067DD28A5A363B4AEEDBB4AEED3AA978DBC8FDDC DUP2 MSTORE PUSH1 0x20 ADD PUSH32 0xE882683CB6B0D55E194C3D5708B62BE8B91A9941142587EDE47096E204C9FAA DUP2 MSTORE PUSH1 0x20 ADD PUSH32 0x2651BE7344E6BE5368F137DE2166ACAEDA517815AEC590822B47F98F577858B5 DUP2 MSTORE PUSH1 0x20 ADD PUSH32 0x2D4172FA3F220BDD4D4B3D69455897B30A51F27586A9B369A9536C51D00093DB DUP2 MSTORE PUSH1 0x20 ADD PUSH32 0x1A4C7436CD7C282EAF249163B2A726DAA3FB2737E38DA00F615A495036EEE150 DUP2 MSTORE PUSH1 0x20 ADD PUSH32 0x52F661471DF979BE9AEAD5B150E64F05734858CEBF8ABDD31500EBE9DAF5059 DUP2 MSTORE POP DUP2 MSTORE PUSH1 0x20 ADD PUSH1 0x40 MLOAD DUP1 PUSH2 0x1C0 ADD PUSH1 0x40 MSTORE DUP1 PUSH32 0x23DD6BF92585D187AC2D4671CF13F94D985FEB5B3719C40AB35592D2F647CB65 DUP2 MSTORE PUSH1 0x20 ADD PUSH32 0x1FB85EF6F9FDC6083995FF6AAD9AE22A98752A601ABAF3D534CF980DF6F795C9 DUP2 MSTORE PUSH1 0x20 ADD PUSH32 0x36E63661C990AD12EB950CD2E0584372457358AC5CC984CE91A87677C1672F6 DUP2 MSTORE PUSH1 0x20 ADD PUSH32 0xC49EDF60DBC9D2851DCC8C716E0C6D45D3497AA997C6EB957466CAE69C0148E DUP2 MSTORE PUSH1 0x20 ADD PUSH32 0x215972553FB8FFF61A3121AAFEE6A99B3B8357E1F28BBD0239A4F4465EDF9E62 DUP2 MSTORE PUSH1 0x20 ADD PUSH32 0x269241A97474C2EB2646670AE0CAA1C92101A39B35992B7EC79E256AB1D32B09 DUP2 MSTORE PUSH1 0x20 ADD PUSH32 0x22158165E2541A0A6527743827C084BC86DE22B85ECFB896314ADE24B266DCBC DUP2 MSTORE PUSH1 0x20 ADD PUSH32 0xF46FDFD54E79B00E309B8DC467108870E7D88F634094B67A8CC39D8A0137D63 DUP2 MSTORE PUSH1 0x20 ADD PUSH32 0x729F76399BEFC2699E621290467EAD8869B064300743FF00E5D8F29C1F4E105 DUP2 MSTORE PUSH1 0x20 ADD PUSH32 0x15757E58BC3916C6838D401B015D3CB65334BE4194B9A1B023DB43DEF60463AA DUP2 MSTORE PUSH1 0x20 ADD PUSH32 0x872D1DECBA9A9852E202EBA96F8A1AB09C7DB0FD986416415785E24F49917FC DUP2 MSTORE PUSH1 0x20 ADD PUSH32 0x1B044E4CDF43015374E1B202CFD5B7B1BC24C8000B03EB6EA6B47E27F798B4E1 DUP2 MSTORE PUSH1 0x20 ADD PUSH32 0x24719F2EE741477DB930F10849677E3744C9A7BCD40725D59147122AE3C86ADA DUP2 MSTORE PUSH1 0x20 ADD PUSH32 0x229383E070BF106140EA30A9F70BAE89DB9E249F47D7FC7298645E78D35D74B2 DUP2 MSTORE POP DUP2 MSTORE PUSH1 0x20 ADD PUSH1 0x40 MLOAD DUP1 PUSH2 0x1C0 ADD PUSH1 0x40 MSTORE DUP1 PUSH32 0x11C60F8708F714A35E9802644CF964DEA7B833FCA39C3222B8A41D69192B8CA5 DUP2 MSTORE PUSH1 0x20 ADD PUSH32 0x1E6227BDDD81FD0E8F005549131313A938F2719603381817AA49D400A124A21F DUP2 MSTORE PUSH1 0x20 ADD PUSH32 0xCAC8A3D12DB8C062984C3E0D60334AAC8EBFA38427EFE8B38B38D158AA677E6 DUP2 MSTORE PUSH1 0x20 ADD PUSH32 0x3273F6EFECFC1CFFB2E907FE7C96167B1AE08343F80A3AABBF770692CA8B5BF DUP2 MSTORE PUSH1 0x20 ADD PUSH32 0x101DBC5349E77EF96DB2867138A099319784843D19CCD6671D156D33CA3D6EBC DUP2 MSTORE PUSH1 0x20 ADD PUSH32 0x218E0B68E696C429BD606DE3A19B9AD4D9EBB49D46BB147071231EC5F65DEBA5 DUP2 MSTORE PUSH1 0x20 ADD PUSH32 0xBF75F2284152EB39BE5ED8FEF968D1C3EFC61AC1844CFF901E2B78BC86E08C3 DUP2 MSTORE PUSH1 0x20 ADD PUSH32 0x250B05198A4E6D784D61B2AAEA5A8C43E30E6D13163C6E3BD2D5D7A57F6A1C01 DUP2 MSTORE PUSH1 0x20 ADD PUSH32 0x1DDED98E05EEA4B37305CD85F82652EEEFF6B96B58425B45CE75EE38F86D203 DUP2 MSTORE PUSH1 0x20 ADD PUSH32 0x1B3ED770919C526C1F28D432C5D325D48595EB2EC421336D6E664F40825776EF DUP2 MSTORE PUSH1 0x20 ADD PUSH32 0x2B0ABA4B8AB317A7B430445BAECF7F5987CED258EFA0830622603934779D42D8 DUP2 MSTORE PUSH1 0x20 ADD PUSH32 0xE6605839B92F86559928B0E5E58BD17FF393FC53DC2D5E6F3AFE06B0D9072F0 DUP2 MSTORE PUSH1 0x20 ADD PUSH32 0x1220668F0B98E6BCE306615F834B9675D2B55E943E11390044D0A4759B07A0C3 DUP2 MSTORE PUSH1 0x20 ADD PUSH32 0x11B84E82E20896A8E9147881F50DA4E0F416841C54082D02B737A3A3A5840986 DUP2 MSTORE POP DUP2 MSTORE PUSH1 0x20 ADD PUSH1 0x40 MLOAD DUP1 PUSH2 0x1C0 ADD PUSH1 0x40 MSTORE DUP1 PUSH32 0x1C55D668F0FA8615D358A8E6EA0F77032084BD9731A10B3718EE42B6FDAEFBE5 DUP2 MSTORE PUSH1 0x20 ADD PUSH32 0xAC3E311875AA40FD753AAD1507D6CB4E38D42EF65FEB48FF137F1B21B461D05 DUP2 MSTORE PUSH1 0x20 ADD PUSH32 0x28763F6F0D6B8FA547AE8369793636B291EE8750CC430CEFE97BFD4BAAC96D2D DUP2 MSTORE PUSH1 0x20 ADD PUSH32 0x187B4A7CF2D4E3FFE2B0F9809D298B06821F9EF6731E24636D9A0F28794EEB8F DUP2 MSTORE PUSH1 0x20 ADD PUSH32 0x1422E102170D9718B1A52839FFE6B9C5D14A607C7ECBBEF752DE37EE57651661 DUP2 MSTORE PUSH1 0x20 ADD PUSH32 0x14DFCF6FC14826C0FAD5D5E96863A1DDEB61714B2980876766AA04484CCAB2DE DUP2 MSTORE PUSH1 0x20 ADD PUSH32 0x13DE803188AD0EB01BD75707816728E4EDD0889F66729CD6DD74F9C435193CBA DUP2 MSTORE PUSH1 0x20 ADD PUSH32 0x3D0608A4AF4381D7E8E55699BC86BBE7129ECC48139DA64F482E369F7246933 DUP2 MSTORE PUSH1 0x20 ADD PUSH32 0x28EFBF3FD955C09EE8A42F4BFF0291C4BA84C475E56F1216E86CF2294C3D2C2F DUP2 MSTORE PUSH1 0x20 ADD PUSH31 0x4090E425DF767152B89824BE03C885A47D8DC4B8FB81DCD925C8ED2D104D46 DUP2 MSTORE PUSH1 0x20 ADD PUSH32 0x23301A53FC52D7C64110826687C60087A060DDEFD664E271E51DADD4FC906F6C DUP2 MSTORE PUSH1 0x20 ADD PUSH32 0x14B975B5A7EDB7C1FF9D0A8BEC341B8AA4F9A3010A84BF31BE02C8B6A96DE1C6 DUP2 MSTORE PUSH1 0x20 ADD PUSH32 0xAE235220E7846E32C05A51710E86EB7A2003ECB46E14729A689C5143E3CC742 DUP2 MSTORE PUSH1 0x20 ADD PUSH32 0x13A399D18336D73804247F99D7CA7B73AE52C795D0528DCF88424EC64CD05A40 DUP2 MSTORE POP DUP2 MSTORE PUSH1 0x20 ADD PUSH1 0x40 MLOAD DUP1 PUSH2 0x1C0 ADD PUSH1 0x40 MSTORE DUP1 PUSH32 0x177BD0AA638195181175A48F43DAD85A5C8D2F01C8A86DF160F6470B2196A6DD DUP2 MSTORE PUSH1 0x20 ADD PUSH32 0x1985D0E08910848C0CE0098A576CDB62D47C81E0FEEB5E9283524C2FCFE16703 DUP2 MSTORE PUSH1 0x20 ADD PUSH32 0x2AD1D5CD62C1E648C9A0E4BB7896A75C987F3A8BB8C35AFB58145D9783225F9B DUP2 MSTORE PUSH1 0x20 ADD PUSH31 0x1C10259A73E31D020DA03A89BCC36653383CFEC8B42DBE1761AAE9D0794B02 DUP2 MSTORE PUSH1 0x20 ADD PUSH32 0x208A1CEFD7F049ABE5FE7F9E28181972B19E0C990235987E4C61AF8E99897E88 DUP2 MSTORE PUSH1 0x20 ADD PUSH32 0x2468BE9041A6E586E2B38F770FFD557F8D69BD6178885D69D5EBFB3D61A97F2D DUP2 MSTORE PUSH1 0x20 ADD PUSH32 0x2AB4DA8A56C29E6A298095D65B8D76FBF2EAC0CE37FF65F026E9823A990F1F00 DUP2 MSTORE PUSH1 0x20 ADD PUSH32 0x862C458EFE128FD0ACB55A0D916FD18758C55DE4421FB967620912C8A113701 DUP2 MSTORE PUSH1 0x20 ADD PUSH32 0x13E27E5A7E766681D5E2803C7C9266A192DFB655FC5789BE2B2CBFD86BC60F0A DUP2 MSTORE PUSH1 0x20 ADD PUSH32 0x66877ADF78EF454DCEB57055E6BE1D9F5103CA0CF1F9C6032C0C6C1ED806BC7 DUP2 MSTORE PUSH1 0x20 ADD PUSH32 0xF7DD0841E4174177419F1D9DFA7FB25B755A1568FD55DC62C16D6224E4477ED DUP2 MSTORE PUSH1 0x20 ADD PUSH32 0xE8B506CBE28B71BBAF916E54990F3E1A61E3E34ACB17084162EF7A15092404E DUP2 MSTORE PUSH1 0x20 ADD PUSH32 0x285B2D4C2B36020176CBE6F1B9CDF31F8D0FDF99C9A25505A15A860FD2616009 DUP2 MSTORE PUSH1 0x20 ADD PUSH32 0x2D8C936EF9B48C5D75FB413B7CAC72CFF186AB0F4CB9DFA9197DBA85FEF59738 DUP2 MSTORE POP DUP2 MSTORE PUSH1 0x20 ADD PUSH1 0x40 MLOAD DUP1 PUSH2 0x1C0 ADD PUSH1 0x40 MSTORE DUP1 PUSH32 0xF4C67F52343B883391B284231B1AB9F514B667923D2EFE404C79EBB142A7FC1 DUP2 MSTORE PUSH1 0x20 ADD PUSH32 0x2C8DD21AA0556DB4187DF9DBCCFE619A938D4D6971AB20C8FB8499FF18F9B393 DUP2 MSTORE PUSH1 0x20 ADD PUSH32 0x19CF5F8D82EF2FD726D4E61BFD25974D08A1D18F7940199B8AB90D7B9A56DA2C DUP2 MSTORE PUSH1 0x20 ADD PUSH32 0x24803334CD560FC2CE2976B89A87D17ACE733B3E70F773D169383635D9AB9C66 DUP2 MSTORE PUSH1 0x20 ADD PUSH32 0x28A711D0889B002AA16BFD36BA33E294F44AC058A3B4A1E98CF2D0EA9EF3DB30 DUP2 MSTORE PUSH1 0x20 ADD PUSH32 0x12C90064EB460C56B0A0CAB9A5E72ACF3D85BA15017E0348A9D6A88DB8E838D6 DUP2 MSTORE PUSH1 0x20 ADD PUSH32 0x7491A578400D71CF7F42B0BD2A1178B243A88A8C11C98E0DE05D959B393EEB9 DUP2 MSTORE PUSH1 0x20 ADD PUSH32 0x1906102AB9146EA3953F8110734966B84FF8689EE9F44CAF0D1B6B96BDAD3507 DUP2 MSTORE PUSH1 0x20 ADD PUSH32 0x15A9DD087E3877B0BC59A6AF17B72B6476A73DE3F54FBFA2D43A2E76E4F1D0BA DUP2 MSTORE PUSH1 0x20 ADD PUSH32 0x10098CE1B8F6ABDB6DCAC4FAF8EB9963A97AD0720A67E75835EAAAB0A4D25F3B DUP2 MSTORE PUSH1 0x20 ADD PUSH32 0x30374184C976DB1E962F5646EFACF55116CFC3EF1BF2D13969407F94ADA63841 DUP2 MSTORE PUSH1 0x20 ADD PUSH32 0x6528F7A7E9E73B458FC680B8C59621D2DA946C34455C8CB80EC70D77C018571 DUP2 MSTORE PUSH1 0x20 ADD PUSH32 0x9AB55A91A7063B85C45A4308BCE56E874AA3977EE6921D6F3541A3C92D9E2E5 DUP2 MSTORE PUSH1 0x20 ADD PUSH32 0x300718E2D685750ADD78894C11638BA2D2FD7954D11CD5B5C8AA0F7CD38766CA DUP2 MSTORE POP DUP2 MSTORE PUSH1 0x20 ADD PUSH1 0x40 MLOAD DUP1 PUSH2 0x1C0 ADD PUSH1 0x40 MSTORE DUP1 PUSH32 0x72D5ADC75E4DA51B8F796FC45A234D2F8CA4CA8708E0CD54174E9F63AFF6486 DUP2 MSTORE PUSH1 0x20 ADD PUSH32 0x2FEA19288315B9162B4B9947F38AA430D8CD885ED56B4BDE5CE9C2714AF7C305 DUP2 MSTORE PUSH1 0x20 ADD PUSH32 0x26D3BE9E7F7F9092B632BBA1165848D93BF6F2F1BF756D1DC42879A72E47AF0 DUP2 MSTORE PUSH1 0x20 ADD PUSH32 0xBCA1235CEF12479AFD16DDCC8DBB4ECF1AA1E589F13141509804A38A3452975 DUP2 MSTORE PUSH1 0x20 ADD PUSH32 0x92B3130BDB7F9BE5F33D3AC5FDAC9AC2D853DEEE532B4C93F35850222556868 DUP2 MSTORE PUSH1 0x20 ADD PUSH32 0xF8C32D7B52BE36EEFE7D264D66B3EE4C59255F16F9E239B46959DD40B4623CC DUP2 MSTORE PUSH1 0x20 ADD PUSH32 0xB96504F8B767E15046DB623894ABEDE0FCD6437AF458769B4F49EB493A37FCB DUP2 MSTORE PUSH1 0x20 ADD PUSH32 0xBAD1845AD553F1D7FECD0D97D73010D8FE475F3DEA683E8ECA65623D0653537 DUP2 MSTORE PUSH1 0x20 ADD PUSH32 0x11EDE2D36DEBC21A2BD22D22400CB8B1CD14E846D5B6A273068F6137A6005545 DUP2 MSTORE PUSH1 0x20 ADD PUSH32 0xA62374F4D0B8800BF6848C777D1259704DE995E1469633E57A65E196E0070F0 DUP2 MSTORE PUSH1 0x20 ADD PUSH32 0x1EE504D746AA3BDAFB86361D8F09D3A5509869996FE13BDAD29F8FBD357F5FFD DUP2 MSTORE PUSH1 0x20 ADD PUSH32 0x1FF336222321DEBD2161B0B1DBB66DDF92FD56050F82E244315B57AF052E26C0 DUP2 MSTORE PUSH1 0x20 ADD PUSH32 0x14FB8FD0381CC9122E8D11E02FF39BD9F2168FAD1E9BFF2C858C97FE6759E5CA DUP2 MSTORE PUSH1 0x20 ADD PUSH31 0x80DDD094A23483E51116D6AED63F579212F84448AA3ED4ED57ACE80AF12935 DUP2 MSTORE POP DUP2 MSTORE POP PUSH1 0x0 SWAP1 PUSH1 0xC PUSH2 0x19BE SWAP3 SWAP2 SWAP1 PUSH2 0x19D1 JUMP JUMPDEST POP CALLVALUE DUP1 ISZERO PUSH2 0x19CB JUMPI PUSH1 0x0 DUP1 REVERT JUMPDEST POP PUSH2 0x1AB6 JUMP JUMPDEST DUP3 PUSH1 0xC PUSH1 0xE MUL DUP2 ADD SWAP3 DUP3 ISZERO PUSH2 0x1A11 JUMPI SWAP2 PUSH1 0x20 MUL DUP3 ADD JUMPDEST DUP3 DUP2 GT ISZERO PUSH2 0x1A10 JUMPI DUP3 MLOAD DUP3 SWAP1 PUSH1 0xE PUSH2 0x1A00 SWAP3 SWAP2 SWAP1 PUSH2 0x1A22 JUMP JUMPDEST POP SWAP2 PUSH1 0x20 ADD SWAP2 SWAP1 PUSH1 0xE ADD SWAP1 PUSH2 0x19E7 JUMP JUMPDEST JUMPDEST POP SWAP1 POP PUSH2 0x1A1E SWAP2 SWAP1 PUSH2 0x1A62 JUMP JUMPDEST POP SWAP1 JUMP JUMPDEST DUP3 PUSH1 0xE DUP2 ADD SWAP3 DUP3 ISZERO PUSH2 0x1A51 JUMPI SWAP2 PUSH1 0x20 MUL DUP3 ADD JUMPDEST DUP3 DUP2 GT ISZERO PUSH2 0x1A50 JUMPI DUP3 MLOAD DUP3 SSTORE SWAP2 PUSH1 0x20 ADD SWAP2 SWAP1 PUSH1 0x1 ADD SWAP1 PUSH2 0x1A35 JUMP JUMPDEST JUMPDEST POP SWAP1 POP PUSH2 0x1A5E SWAP2 SWAP1 PUSH2 0x1A86 JUMP JUMPDEST POP SWAP1 JUMP JUMPDEST JUMPDEST DUP1 DUP3 GT ISZERO PUSH2 0x1A82 JUMPI PUSH1 0x0 DUP2 DUP2 PUSH2 0x1A79 SWAP2 SWAP1 PUSH2 0x1AA3 JUMP JUMPDEST POP PUSH1 0xE ADD PUSH2 0x1A63 JUMP JUMPDEST POP SWAP1 JUMP JUMPDEST JUMPDEST DUP1 DUP3 GT ISZERO PUSH2 0x1A9F JUMPI PUSH1 0x0 DUP2 PUSH1 0x0 SWAP1 SSTORE POP PUSH1 0x1 ADD PUSH2 0x1A87 JUMP JUMPDEST POP SWAP1 JUMP JUMPDEST POP DUP1 PUSH1 0xE ADD SWAP1 PUSH2 0x1AB3 SWAP2 SWAP1 PUSH2 0x1A86 JUMP JUMPDEST POP JUMP JUMPDEST PUSH2 0x6E2 DUP1 PUSH2 0x1AC5 PUSH1 0x0 CODECOPY PUSH1 0x0 RETURN INVALID PUSH1 0x80 PUSH1 0x40 MSTORE CALLVALUE DUP1 ISZERO PUSH2 0x10 JUMPI PUSH1 0x0 DUP1 REVERT JUMPDEST POP PUSH1 0x4 CALLDATASIZE LT PUSH2 0x2B JUMPI PUSH1 0x0 CALLDATALOAD PUSH1 0xE0 SHR DUP1 PUSH4 0xA23F0199 EQ PUSH2 0x30 JUMPI JUMPDEST PUSH1 0x0 DUP1 REVERT JUMPDEST PUSH2 0x4A PUSH1 0x4 DUP1 CALLDATASIZE SUB DUP2 ADD SWAP1 PUSH2 0x45 SWAP2 SWAP1 PUSH2 0x566 JUMP JUMPDEST PUSH2 0x60 JUMP JUMPDEST PUSH1 0x40 MLOAD PUSH2 0x57 SWAP2 SWAP1 PUSH2 0x5FF JUMP JUMPDEST PUSH1 0x40 MLOAD DUP1 SWAP2 SUB SWAP1 RETURN JUMPDEST PUSH1 0x0 DUP1 PUSH1 0x0 PUSH1 0x1 DUP5 PUSH2 0x72 SWAP2 SWAP1 PUSH2 0x649 JUMP JUMPDEST PUSH1 0xC DUP2 LT PUSH2 0x83 JUMPI PUSH2 0x82 PUSH2 0x67D JUMP JUMPDEST JUMPDEST PUSH1 0xE MUL ADD PUSH1 0xE DUP1 PUSH1 0x20 MUL PUSH1 0x40 MLOAD SWAP1 DUP2 ADD PUSH1 0x40 MSTORE DUP1 SWAP3 SWAP2 SWAP1 DUP3 PUSH1 0xE DUP1 ISZERO PUSH2 0xBE JUMPI PUSH1 0x20 MUL DUP3 ADD SWAP2 JUMPDEST DUP2 SLOAD DUP2 MSTORE PUSH1 0x20 ADD SWAP1 PUSH1 0x1 ADD SWAP1 DUP1 DUP4 GT PUSH2 0xAA JUMPI JUMPDEST POP POP POP POP POP SWAP1 POP PUSH2 0x45C JUMP JUMPDEST PUSH32 0x30644E72E131A029B85045B68181585D2833E84879B9709143E1F593F0000001 DUP2 LT PUSH2 0xFB JUMPI PUSH1 0x0 DUP1 MSTORE PUSH1 0x20 PUSH1 0x0 RETURN JUMPDEST POP JUMP JUMPDEST PUSH1 0x0 PUSH1 0x40 MLOAD DUP4 DUP2 MSTORE DUP5 PUSH1 0x20 DUP3 ADD MSTORE DUP6 PUSH1 0x40 DUP3 ADD MSTORE PUSH1 0x40 DUP2 PUSH1 0x60 DUP4 PUSH1 0x7 PUSH2 0x7D0 GAS SUB STATICCALL SWAP2 POP DUP2 PUSH2 0x131 JUMPI PUSH1 0x0 DUP1 MSTORE PUSH1 0x20 PUSH1 0x0 RETURN JUMPDEST DUP3 MLOAD PUSH1 0x40 DUP3 ADD MSTORE PUSH1 0x20 DUP4 ADD MLOAD PUSH1 0x60 DUP3 ADD MSTORE PUSH1 0x40 DUP4 PUSH1 0x80 DUP4 PUSH1 0x6 PUSH2 0x7D0 GAS SUB STATICCALL SWAP2 POP DUP2 PUSH2 0x161 JUMPI PUSH1 0x0 DUP1 MSTORE PUSH1 0x20 PUSH1 0x0 RETURN JUMPDEST POP POP POP POP POP POP JUMP JUMPDEST PUSH1 0x0 PUSH1 0x80 DUP7 ADD PUSH1 0x0 DUP8 ADD PUSH1 0x80 DUP10 ADD MLOAD DUP2 MSTORE PUSH1 0xA0 DUP10 ADD MLOAD PUSH1 0x20 DUP3 ADD MSTORE PUSH2 0x19C PUSH1 0x0 DUP9 ADD CALLDATALOAD PUSH1 0xE0 DUP12 ADD MLOAD PUSH1 0xC0 DUP13 ADD MLOAD DUP5 PUSH2 0xFE JUMP JUMPDEST PUSH2 0x1B6 PUSH1 0x20 DUP9 ADD CALLDATALOAD PUSH2 0x120 DUP12 ADD MLOAD PUSH2 0x100 DUP13 ADD MLOAD DUP5 PUSH2 0xFE JUMP JUMPDEST PUSH2 0x1D0 PUSH1 0x40 DUP9 ADD CALLDATALOAD PUSH2 0x160 DUP12 ADD MLOAD PUSH2 0x140 DUP13 ADD MLOAD DUP5 PUSH2 0xFE JUMP JUMPDEST PUSH2 0x1EA PUSH1 0x60 DUP9 ADD CALLDATALOAD PUSH2 0x1A0 DUP12 ADD MLOAD PUSH2 0x180 DUP13 ADD MLOAD DUP5 PUSH2 0xFE JUMP JUMPDEST DUP4 CALLDATALOAD DUP3 MSTORE PUSH32 0x30644E72E131A029B85045B68181585D97816A916871CA8D3C208C16D87CFD47 PUSH1 0x20 DUP6 ADD CALLDATALOAD PUSH32 0x30644E72E131A029B85045B68181585D97816A916871CA8D3C208C16D87CFD47 SUB MOD PUSH1 0x20 DUP4 ADD MSTORE DUP5 CALLDATALOAD PUSH1 0x40 DUP4 ADD MSTORE PUSH1 0x20 DUP6 ADD CALLDATALOAD PUSH1 0x60 DUP4 ADD MSTORE PUSH1 0x40 DUP6 ADD CALLDATALOAD PUSH1 0x80 DUP4 ADD MSTORE PUSH1 0x60 DUP6 ADD CALLDATALOAD PUSH1 0xA0 DUP4 ADD MSTORE PUSH32 0x2D4D9AA7E302D9DF41749D5507949D05DBEA33FBB16C643B22F599A2BE6DF2E2 PUSH1 0xC0 DUP4 ADD MSTORE PUSH32 0x14BEDD503C37CEB061D8EC60209FE345CE89830A19230301F076CAFF004D1926 PUSH1 0xE0 DUP4 ADD MSTORE PUSH32 0x967032FCBF776D1AFC985F88877F182D38480A653F2DECAA9794CBC3BF3060C PUSH2 0x100 DUP4 ADD MSTORE PUSH32 0xE187847AD4C798374D0D6732BF501847DD68BC0E071241E0213BC7FC13DB7AB PUSH2 0x120 DUP4 ADD MSTORE PUSH32 0x304CFBD1E08A704A99F5E847D93F8C3CAAFDDEC46B7A0D379DA69A4D112346A7 PUSH2 0x140 DUP4 ADD MSTORE PUSH32 0x1739C1B1A457A8C7313123D24D2F9192F896B7C63EEA05A9D57F06547AD0CEC8 PUSH2 0x160 DUP4 ADD MSTORE PUSH1 0x0 DUP9 ADD MLOAD PUSH2 0x180 DUP4 ADD MSTORE PUSH1 0x20 PUSH1 0x0 ADD DUP9 ADD MLOAD PUSH2 0x1A0 DUP4 ADD MSTORE PUSH32 0x198E9393920D483A7260BFB731FB5D25F1AA493335A9E71297E485B7AEF312C2 PUSH2 0x1C0 DUP4 ADD MSTORE PUSH32 0x1800DEEF121F1E76426A00665E5C4479674322D4F75EDADD46DEBD5CD992F6ED PUSH2 0x1E0 DUP4 ADD MSTORE PUSH32 0x90689D0585FF075EC9E99AD690C3395BC4B313370B38EF355ACDADCD122975B PUSH2 0x200 DUP4 ADD MSTORE PUSH32 0x12C85EA5DB8C6DEB4AAB71808DCB408FE3D1E7690C43D37B4CE6CC0166FA7DAA PUSH2 0x220 DUP4 ADD MSTORE DUP6 CALLDATALOAD PUSH2 0x240 DUP4 ADD MSTORE PUSH1 0x20 DUP7 ADD CALLDATALOAD PUSH2 0x260 DUP4 ADD MSTORE DUP9 MLOAD PUSH2 0x280 DUP4 ADD MSTORE PUSH1 0x20 DUP10 ADD MLOAD PUSH2 0x2A0 DUP4 ADD MSTORE PUSH1 0x40 DUP10 ADD MLOAD PUSH2 0x2C0 DUP4 ADD MSTORE PUSH1 0x60 DUP10 ADD MLOAD PUSH2 0x2E0 DUP4 ADD MSTORE PUSH1 0x20 DUP3 PUSH2 0x300 DUP5 PUSH1 0x8 PUSH2 0x7D0 GAS SUB STATICCALL DUP3 MLOAD DUP2 AND SWAP4 POP POP POP POP SWAP7 SWAP6 POP POP POP POP POP POP JUMP JUMPDEST PUSH1 0x40 MLOAD PUSH2 0x380 DUP2 ADD PUSH1 0x40 MSTORE PUSH2 0x474 PUSH1 0x0 DUP7 ADD CALLDATALOAD PUSH2 0xCA JUMP JUMPDEST PUSH2 0x481 PUSH1 0x20 DUP7 ADD CALLDATALOAD PUSH2 0xCA JUMP JUMPDEST PUSH2 0x48E PUSH1 0x40 DUP7 ADD CALLDATALOAD PUSH2 0xCA JUMP JUMPDEST PUSH2 0x49B PUSH1 0x60 DUP7 ADD CALLDATALOAD PUSH2 0xCA JUMP JUMPDEST PUSH2 0x4A8 PUSH1 0x80 DUP7 ADD CALLDATALOAD PUSH2 0xCA JUMP JUMPDEST PUSH2 0x4B6 DUP3 DUP3 DUP8 DUP10 DUP12 DUP14 PUSH2 0x169 JUMP JUMPDEST DUP1 PUSH1 0x0 MSTORE PUSH1 0x20 PUSH1 0x0 RETURN JUMPDEST PUSH1 0x0 DUP1 REVERT JUMPDEST PUSH1 0x0 DUP1 REVERT JUMPDEST PUSH1 0x0 DUP2 SWAP1 POP DUP3 PUSH1 0x20 PUSH1 0x2 MUL DUP3 ADD GT ISZERO PUSH2 0x4E6 JUMPI PUSH2 0x4E5 PUSH2 0x4C5 JUMP JUMPDEST JUMPDEST SWAP3 SWAP2 POP POP JUMP JUMPDEST PUSH1 0x0 DUP2 SWAP1 POP DUP3 PUSH1 0x40 PUSH1 0x2 MUL DUP3 ADD GT ISZERO PUSH2 0x508 JUMPI PUSH2 0x507 PUSH2 0x4C5 JUMP JUMPDEST JUMPDEST SWAP3 SWAP2 POP POP JUMP JUMPDEST PUSH1 0x0 DUP2 SWAP1 POP DUP3 PUSH1 0x20 PUSH1 0x4 MUL DUP3 ADD GT ISZERO PUSH2 0x52A JUMPI PUSH2 0x529 PUSH2 0x4C5 JUMP JUMPDEST JUMPDEST SWAP3 SWAP2 POP POP JUMP JUMPDEST PUSH1 0x0 DUP2 SWAP1 POP SWAP2 SWAP1 POP JUMP JUMPDEST PUSH2 0x543 DUP2 PUSH2 0x530 JUMP JUMPDEST DUP2 EQ PUSH2 0x54E JUMPI PUSH1 0x0 DUP1 REVERT JUMPDEST POP JUMP JUMPDEST PUSH1 0x0 DUP2 CALLDATALOAD SWAP1 POP PUSH2 0x560 DUP2 PUSH2 0x53A JUMP JUMPDEST SWAP3 SWAP2 POP POP JUMP JUMPDEST PUSH1 0x0 DUP1 PUSH1 0x0 DUP1 PUSH1 0x0 PUSH2 0x1A0 DUP7 DUP9 SUB SLT ISZERO PUSH2 0x583 JUMPI PUSH2 0x582 PUSH2 0x4C0 JUMP JUMPDEST JUMPDEST PUSH1 0x0 PUSH2 0x591 DUP9 DUP3 DUP10 ADD PUSH2 0x4CA JUMP JUMPDEST SWAP6 POP POP PUSH1 0x40 PUSH2 0x5A2 DUP9 DUP3 DUP10 ADD PUSH2 0x4EC JUMP JUMPDEST SWAP5 POP POP PUSH1 0xC0 PUSH2 0x5B3 DUP9 DUP3 DUP10 ADD PUSH2 0x4CA JUMP JUMPDEST SWAP4 POP POP PUSH2 0x100 PUSH2 0x5C5 DUP9 DUP3 DUP10 ADD PUSH2 0x50E JUMP JUMPDEST SWAP3 POP POP PUSH2 0x180 PUSH2 0x5D7 DUP9 DUP3 DUP10 ADD PUSH2 0x551 JUMP JUMPDEST SWAP2 POP POP SWAP3 SWAP6 POP SWAP3 SWAP6 SWAP1 SWAP4 POP JUMP JUMPDEST PUSH1 0x0 DUP2 ISZERO ISZERO SWAP1 POP SWAP2 SWAP1 POP JUMP JUMPDEST PUSH2 0x5F9 DUP2 PUSH2 0x5E4 JUMP JUMPDEST DUP3 MSTORE POP POP JUMP JUMPDEST PUSH1 0x0 PUSH1 0x20 DUP3 ADD SWAP1 POP PUSH2 0x614 PUSH1 0x0 DUP4 ADD DUP5 PUSH2 0x5F0 JUMP JUMPDEST SWAP3 SWAP2 POP POP JUMP JUMPDEST PUSH32 0x4E487B7100000000000000000000000000000000000000000000000000000000 PUSH1 0x0 MSTORE PUSH1 0x11 PUSH1 0x4 MSTORE PUSH1 0x24 PUSH1 0x0 REVERT JUMPDEST PUSH1 0x0 PUSH2 0x654 DUP3 PUSH2 0x530 JUMP JUMPDEST SWAP2 POP PUSH2 0x65F DUP4 PUSH2 0x530 JUMP JUMPDEST SWAP3 POP DUP3 DUP3 SUB SWAP1 POP DUP2 DUP2 GT ISZERO PUSH2 0x677 JUMPI PUSH2 0x676 PUSH2 0x61A JUMP JUMPDEST JUMPDEST SWAP3 SWAP2 POP POP JUMP JUMPDEST PUSH32 0x4E487B7100000000000000000000000000000000000000000000000000000000 PUSH1 0x0 MSTORE PUSH1 0x32 PUSH1 0x4 MSTORE PUSH1 0x24 PUSH1 0x0 REVERT INVALID LOG2 PUSH5 0x6970667358 0x22 SLT KECCAK256 0x21 DUP3 DUP13 SHL 0xCA 0xEB MULMOD EXTCODESIZE SWAP16 0x21 DUP7 PUSH3 0x227D52 0xB6 SUB 0xDB 0x4E 0xE7 DUP10 0xEE 0x29 0xE2 RETURNDATASIZE DIV 0x2C LOG4 PUSH13 0x6632564736F6C634300081A00 CALLER "
				},
				"gasEstimates": {
					"creation": {
						"codeDepositCost": "352400",
						"executionCost": "infinite",
						"totalCost": "infinite"
					},
					"external": {
						"verifyProof(uint256[2],uint256[2][2],uint256[2],uint256[4],uint256)": "infinite"
					}
				},
				"methodIdentifiers": {
					"verifyProof(uint256[2],uint256[2][2],uint256[2],uint256[4],uint256)": "a23f0199"
				}
			},
			"storageLayout": {
				"storage": [
					{
						"astId": 236,
						"contract": "Semaphore/.git/objects/08/SemaphoreVerifier.sol:SemaphoreVerifier",
						"label": "VK_POINTS",
						"offset": 0,
						"slot": "0",
						"type": "t_array(t_array(t_uint256)14_storage)12_storage"
					}
				],
				"types": {
					"t_array(t_array(t_uint256)14_storage)12_storage": {
						"base": "t_array(t_uint256)14_storage",
						"encoding": "inplace",
						"label": "uint256[14][12]",
						"numberOfBytes": "5376"
					},
					"t_array(t_uint256)14_storage": {
						"base": "t_uint256",
						"encoding": "inplace",
						"label": "uint256[14]",
						"numberOfBytes": "448"
					},
					"t_uint256": {
						"encoding": "inplace",
						"label": "uint256",
						"numberOfBytes": "32"
					}
				}
			},
			"userdoc": {
				"kind": "user",
				"methods": {},
				"version": 1
			}
		}
	}
}