{
	"poseidon-solidity/PoseidonT3.sol": {
		"PoseidonT3": {
			"abi": [
				{
					"inputs": [
						{
							"internalType": "uint256[2]",
							"name": "",
							"type": "uint256[2]"
						}
					],
					"name": "hash",
					"outputs": [
						{
							"internalType": "uint256",
							"name": "",
							"type": "uint256"
						}
					],
					"stateMutability": "pure",
					"type": "function"
				}
			],
			"devdoc": {
				"kind": "dev",
				"methods": {},
				"version": 1
			},
			"evm": {
				"assembly": "    /* \"poseidon-solidity/PoseidonT3.sol\":59:44164  library PoseidonT3 {... */\n  dataSize(sub_0)\n  dataOffset(sub_0)\n  0x0b\n  dup3\n  dup3\n  dup3\n  codecopy\n  dup1\n  mload\n  0x00\n  byte\n  0x73\n  eq\n  tag_1\n  jumpi\n  mstore(0x00, 0x4e487b7100000000000000000000000000000000000000000000000000000000)\n  mstore(0x04, 0x00)\n  revert(0x00, 0x24)\ntag_1:\n  mstore(0x00, address)\n  0x73\n  dup2\n  mstore8\n  dup3\n  dup2\n  return\nstop\n\nsub_0: assembly {\n        /* \"poseidon-solidity/PoseidonT3.sol\":59:44164  library PoseidonT3 {... */\n      eq(address, deployTimeAddress())\n      mstore(0x40, 0x80)\n      jumpi(tag_1, lt(calldatasize, 0x04))\n      shr(0xe0, calldataload(0x00))\n      dup1\n      0x561558fe\n      eq\n      tag_2\n      jumpi\n    tag_1:\n      0x00\n      dup1\n      revert\n        /* \"poseidon-solidity/PoseidonT3.sol\":877:44162  function hash(uint[2] memory) public pure returns (uint) {... */\n    tag_2:\n      tag_3\n      0x04\n      dup1\n      calldatasize\n      sub\n      dup2\n      add\n      swap1\n      tag_4\n      swap2\n      swap1\n      tag_5\n      jump\t// in\n    tag_4:\n      tag_6\n      jump\t// in\n    tag_3:\n      mload(0x40)\n      tag_7\n      swap2\n      swap1\n      tag_8\n      jump\t// in\n    tag_7:\n      mload(0x40)\n      dup1\n      swap2\n      sub\n      swap1\n      return\n    tag_6:\n        /* \"poseidon-solidity/PoseidonT3.sol\":928:932  uint */\n      0x00\n        /* \"poseidon-solidity/PoseidonT3.sol\":966:1043  21888242871839275222246405745257275088548364400416034343698204186575808495617 */\n      0x30644e72e131a029b85045b68181585d2833e84879b9709143e1f593f0000001\n        /* \"poseidon-solidity/PoseidonT3.sol\":1061:1127  0x2b90bba00fca0589f617e7dcbfe82e0df706ab640ceb247b791a93b74e36736d */\n      0x2b90bba00fca0589f617e7dcbfe82e0df706ab640ceb247b791a93b74e36736d\n        /* \"poseidon-solidity/PoseidonT3.sol\":1145:1211  0x101071f0032379b697315876690f053d148d4e109f5fb065c8aacc55a0f89bfa */\n      0x101071f0032379b697315876690f053d148d4e109f5fb065c8aacc55a0f89bfa\n        /* \"poseidon-solidity/PoseidonT3.sol\":1229:1295  0x19a3fc0a56702bf417ba7fee3802593fa644470307043f7773279cd71d25d5e0 */\n      0x19a3fc0a56702bf417ba7fee3802593fa644470307043f7773279cd71d25d5e0\n        /* \"poseidon-solidity/PoseidonT3.sol\":1379:1445  0x00f1445235f2148c5986587169fc1bcd887b08d4d00868df5696fff40956e864 */\n      0xf1445235f2148c5986587169fc1bcd887b08d4d00868df5696fff40956e864\n        /* \"poseidon-solidity/PoseidonT3.sol\":1375:1376  F */\n      dup5\n        /* \"poseidon-solidity/PoseidonT3.sol\":1368:1372  0x80 */\n      0x80\n        /* \"poseidon-solidity/PoseidonT3.sol\":1362:1373  mload(0x80) */\n      mload\n        /* \"poseidon-solidity/PoseidonT3.sol\":1358:1377  mod(mload(0x80), F) */\n      mod\n        /* \"poseidon-solidity/PoseidonT3.sol\":1354:1446  add(mod(mload(0x80), F), 0x00f1445235f2148c5986587169fc1bcd887b08d4d00868df5696fff40956e864) */\n      add\n        /* \"poseidon-solidity/PoseidonT3.sol\":1492:1558  0x08dff3487e8ac99e1f29a058d0fa80b930c728730b7ab36ce879f3890ecf73f5 */\n      0x08dff3487e8ac99e1f29a058d0fa80b930c728730b7ab36ce879f3890ecf73f5\n        /* \"poseidon-solidity/PoseidonT3.sol\":1488:1489  F */\n      dup6\n        /* \"poseidon-solidity/PoseidonT3.sol\":1481:1485  0xa0 */\n      0xa0\n        /* \"poseidon-solidity/PoseidonT3.sol\":1475:1486  mload(0xa0) */\n      mload\n        /* \"poseidon-solidity/PoseidonT3.sol\":1471:1490  mod(mload(0xa0), F) */\n      mod\n        /* \"poseidon-solidity/PoseidonT3.sol\":1467:1559  add(mod(mload(0xa0), F), 0x08dff3487e8ac99e1f29a058d0fa80b930c728730b7ab36ce879f3890ecf73f5) */\n      add\n        /* \"poseidon-solidity/PoseidonT3.sol\":1605:1606  F */\n      dup6\n        /* \"poseidon-solidity/PoseidonT3.sol\":1597:1603  state1 */\n      dup3\n        /* \"poseidon-solidity/PoseidonT3.sol\":1589:1595  state1 */\n      dup4\n        /* \"poseidon-solidity/PoseidonT3.sol\":1582:1607  mulmod(state1, state1, F) */\n      mulmod\n        /* \"poseidon-solidity/PoseidonT3.sol\":1670:1671  F */\n      dup7\n        /* \"poseidon-solidity/PoseidonT3.sol\":1662:1668  state1 */\n      dup4\n        /* \"poseidon-solidity/PoseidonT3.sol\":1658:1659  F */\n      dup9\n        /* \"poseidon-solidity/PoseidonT3.sol\":1648:1656  scratch0 */\n      dup4\n        /* \"poseidon-solidity/PoseidonT3.sol\":1638:1646  scratch0 */\n      dup5\n        /* \"poseidon-solidity/PoseidonT3.sol\":1631:1660  mulmod(scratch0, scratch0, F) */\n      mulmod\n        /* \"poseidon-solidity/PoseidonT3.sol\":1624:1672  mulmod(mulmod(scratch0, scratch0, F), state1, F) */\n      mulmod\n        /* \"poseidon-solidity/PoseidonT3.sol\":1614:1672  state1 := mulmod(mulmod(scratch0, scratch0, F), state1, F) */\n      swap3\n      pop\n        /* \"poseidon-solidity/PoseidonT3.sol\":1714:1715  F */\n      dup7\n        /* \"poseidon-solidity/PoseidonT3.sol\":1706:1712  state2 */\n      dup3\n        /* \"poseidon-solidity/PoseidonT3.sol\":1698:1704  state2 */\n      dup4\n        /* \"poseidon-solidity/PoseidonT3.sol\":1691:1716  mulmod(state2, state2, F) */\n      mulmod\n        /* \"poseidon-solidity/PoseidonT3.sol\":1679:1716  scratch0 := mulmod(state2, state2, F) */\n      swap1\n      pop\n        /* \"poseidon-solidity/PoseidonT3.sol\":1779:1780  F */\n      dup7\n        /* \"poseidon-solidity/PoseidonT3.sol\":1771:1777  state2 */\n      dup3\n        /* \"poseidon-solidity/PoseidonT3.sol\":1767:1768  F */\n      dup9\n        /* \"poseidon-solidity/PoseidonT3.sol\":1757:1765  scratch0 */\n      dup4\n        /* \"poseidon-solidity/PoseidonT3.sol\":1747:1755  scratch0 */\n      dup5\n        /* \"poseidon-solidity/PoseidonT3.sol\":1740:1769  mulmod(scratch0, scratch0, F) */\n      mulmod\n        /* \"poseidon-solidity/PoseidonT3.sol\":1733:1781  mulmod(mulmod(scratch0, scratch0, F), state2, F) */\n      mulmod\n        /* \"poseidon-solidity/PoseidonT3.sol\":1723:1781  state2 := mulmod(mulmod(scratch0, scratch0, F), state2, F) */\n      swap2\n      pop\n        /* \"poseidon-solidity/PoseidonT3.sol\":2021:2022  F */\n      dup7\n        /* \"poseidon-solidity/PoseidonT3.sol\":2016:2019  M20 */\n      dup7\n        /* \"poseidon-solidity/PoseidonT3.sol\":2008:2014  state2 */\n      dup4\n        /* \"poseidon-solidity/PoseidonT3.sol\":2001:2023  mulmod(state2, M20, F) */\n      mulmod\n        /* \"poseidon-solidity/PoseidonT3.sol\":1996:1997  F */\n      dup8\n        /* \"poseidon-solidity/PoseidonT3.sol\":1991:1994  M10 */\n      0x16ed41e13bb9c0c66ae119424fddbcbc9314dc9fdbdeea55d6c64543dc4903e0\n        /* \"poseidon-solidity/PoseidonT3.sol\":1983:1989  state1 */\n      dup6\n        /* \"poseidon-solidity/PoseidonT3.sol\":1976:1998  mulmod(state1, M10, F) */\n      mulmod\n        /* \"poseidon-solidity/PoseidonT3.sol\":1897:1974  15452833169820924772166449970675545095234312153403844297388521437673434406763 */\n      0x2229fe5e63f56eef4bfba02c26292de10ac2b2b045e6184acff16e4660c05f6b\n        /* \"poseidon-solidity/PoseidonT3.sol\":1893:1999  add(15452833169820924772166449970675545095234312153403844297388521437673434406763, mulmod(state1, M10, F)) */\n      add\n        /* \"poseidon-solidity/PoseidonT3.sol\":1889:2024  add(add(15452833169820924772166449970675545095234312153403844297388521437673434406763, mulmod(state1, M10, F)), mulmod(state2, M20, F)) */\n      add\n        /* \"poseidon-solidity/PoseidonT3.sol\":1813:1879  0x2f27be690fdaee46c3ce28f7532b13c856c35342c84bda6e20966310fadc01d0 */\n      0x2f27be690fdaee46c3ce28f7532b13c856c35342c84bda6e20966310fadc01d0\n        /* \"poseidon-solidity/PoseidonT3.sol\":1800:2032  add(... */\n      add\n        /* \"poseidon-solidity/PoseidonT3.sol\":1788:2032  scratch0 := add(... */\n      swap1\n      pop\n        /* \"poseidon-solidity/PoseidonT3.sol\":2276:2277  F */\n      dup7\n        /* \"poseidon-solidity/PoseidonT3.sol\":2271:2274  M21 */\n      dup6\n        /* \"poseidon-solidity/PoseidonT3.sol\":2263:2269  state2 */\n      dup4\n        /* \"poseidon-solidity/PoseidonT3.sol\":2256:2278  mulmod(state2, M21, F) */\n      mulmod\n        /* \"poseidon-solidity/PoseidonT3.sol\":2251:2252  F */\n      dup8\n        /* \"poseidon-solidity/PoseidonT3.sol\":2246:2249  M11 */\n      0x2e2419f9ec02ec394c9871c832963dc1b89d743c8c7b964029b2311687b1fe23\n        /* \"poseidon-solidity/PoseidonT3.sol\":2238:2244  state1 */\n      dup6\n        /* \"poseidon-solidity/PoseidonT3.sol\":2231:2253  mulmod(state1, M11, F) */\n      mulmod\n        /* \"poseidon-solidity/PoseidonT3.sol\":2152:2229  18674271267752038776579386132900109523609358935013267566297499497165104279117 */\n      0x2949435275a29cdbffe3e4101a45669873f9408a5d11e21b4ec6edf8501eee4d\n        /* \"poseidon-solidity/PoseidonT3.sol\":2148:2254  add(18674271267752038776579386132900109523609358935013267566297499497165104279117, mulmod(state1, M11, F)) */\n      add\n        /* \"poseidon-solidity/PoseidonT3.sol\":2144:2279  add(add(18674271267752038776579386132900109523609358935013267566297499497165104279117, mulmod(state1, M11, F)), mulmod(state2, M21, F)) */\n      add\n        /* \"poseidon-solidity/PoseidonT3.sol\":2068:2134  0x2b2ae1acf68b7b8d2416bebf3d4f6234b763fe04b8043ee48b8327bebca16cf2 */\n      0x2b2ae1acf68b7b8d2416bebf3d4f6234b763fe04b8043ee48b8327bebca16cf2\n        /* \"poseidon-solidity/PoseidonT3.sol\":2055:2287  add(... */\n      add\n        /* \"poseidon-solidity/PoseidonT3.sol\":2531:2532  F */\n      dup8\n        /* \"poseidon-solidity/PoseidonT3.sol\":2526:2529  M22 */\n      dup6\n        /* \"poseidon-solidity/PoseidonT3.sol\":2518:2524  state2 */\n      dup5\n        /* \"poseidon-solidity/PoseidonT3.sol\":2511:2533  mulmod(state2, M22, F) */\n      mulmod\n        /* \"poseidon-solidity/PoseidonT3.sol\":2506:2507  F */\n      dup9\n        /* \"poseidon-solidity/PoseidonT3.sol\":2501:2504  M12 */\n      0x176cc029695ad02582a70eff08a6fd99d057e12e58e7d7b6b16cdfabc8ee2911\n        /* \"poseidon-solidity/PoseidonT3.sol\":2493:2499  state1 */\n      dup7\n        /* \"poseidon-solidity/PoseidonT3.sol\":2486:2508  mulmod(state1, M12, F) */\n      mulmod\n        /* \"poseidon-solidity/PoseidonT3.sol\":2407:2484  14817777843080276494683266178512808687156649753153012854386334860566696099579 */\n      0x20c290a7269657965092ef5700a447f5bc2c41dfca932f527cb2600ac9bcfefb\n        /* \"poseidon-solidity/PoseidonT3.sol\":2403:2509  add(14817777843080276494683266178512808687156649753153012854386334860566696099579, mulmod(state1, M12, F)) */\n      add\n        /* \"poseidon-solidity/PoseidonT3.sol\":2399:2534  add(add(14817777843080276494683266178512808687156649753153012854386334860566696099579, mulmod(state1, M12, F)), mulmod(state2, M22, F)) */\n      add\n        /* \"poseidon-solidity/PoseidonT3.sol\":2323:2389  0x0319d062072bef7ecca5eac06f97d4d55952c175ab6b03eae64b44c7dbf11cfa */\n      0x0319d062072bef7ecca5eac06f97d4d55952c175ab6b03eae64b44c7dbf11cfa\n        /* \"poseidon-solidity/PoseidonT3.sol\":2310:2542  add(... */\n      add\n        /* \"poseidon-solidity/PoseidonT3.sol\":2590:2591  F */\n      dup9\n        /* \"poseidon-solidity/PoseidonT3.sol\":2580:2588  scratch0 */\n      dup4\n        /* \"poseidon-solidity/PoseidonT3.sol\":2570:2578  scratch0 */\n      dup5\n        /* \"poseidon-solidity/PoseidonT3.sol\":2563:2592  mulmod(scratch0, scratch0, F) */\n      mulmod\n        /* \"poseidon-solidity/PoseidonT3.sol\":2655:2656  F */\n      dup10\n        /* \"poseidon-solidity/PoseidonT3.sol\":2645:2653  scratch0 */\n      dup5\n        /* \"poseidon-solidity/PoseidonT3.sol\":2641:2642  F */\n      dup12\n        /* \"poseidon-solidity/PoseidonT3.sol\":2633:2639  state0 */\n      dup4\n        /* \"poseidon-solidity/PoseidonT3.sol\":2625:2631  state0 */\n      dup5\n        /* \"poseidon-solidity/PoseidonT3.sol\":2618:2643  mulmod(state0, state0, F) */\n      mulmod\n        /* \"poseidon-solidity/PoseidonT3.sol\":2611:2657  mulmod(mulmod(state0, state0, F), scratch0, F) */\n      mulmod\n        /* \"poseidon-solidity/PoseidonT3.sol\":2599:2657  scratch0 := mulmod(mulmod(state0, state0, F), scratch0, F) */\n      swap4\n      pop\n        /* \"poseidon-solidity/PoseidonT3.sol\":2701:2702  F */\n      dup10\n        /* \"poseidon-solidity/PoseidonT3.sol\":2691:2699  scratch1 */\n      dup4\n        /* \"poseidon-solidity/PoseidonT3.sol\":2681:2689  scratch1 */\n      dup5\n        /* \"poseidon-solidity/PoseidonT3.sol\":2674:2703  mulmod(scratch1, scratch1, F) */\n      mulmod\n        /* \"poseidon-solidity/PoseidonT3.sol\":2664:2703  state0 := mulmod(scratch1, scratch1, F) */\n      swap1\n      pop\n        /* \"poseidon-solidity/PoseidonT3.sol\":2766:2767  F */\n      dup10\n        /* \"poseidon-solidity/PoseidonT3.sol\":2756:2764  scratch1 */\n      dup4\n        /* \"poseidon-solidity/PoseidonT3.sol\":2752:2753  F */\n      dup12\n        /* \"poseidon-solidity/PoseidonT3.sol\":2744:2750  state0 */\n      dup4\n        /* \"poseidon-solidity/PoseidonT3.sol\":2736:2742  state0 */\n      dup5\n        /* \"poseidon-solidity/PoseidonT3.sol\":2729:2754  mulmod(state0, state0, F) */\n      mulmod\n        /* \"poseidon-solidity/PoseidonT3.sol\":2722:2768  mulmod(mulmod(state0, state0, F), scratch1, F) */\n      mulmod\n        /* \"poseidon-solidity/PoseidonT3.sol\":2710:2768  scratch1 := mulmod(mulmod(state0, state0, F), scratch1, F) */\n      swap3\n      pop\n        /* \"poseidon-solidity/PoseidonT3.sol\":2812:2813  F */\n      dup10\n        /* \"poseidon-solidity/PoseidonT3.sol\":2802:2810  scratch2 */\n      dup3\n        /* \"poseidon-solidity/PoseidonT3.sol\":2792:2800  scratch2 */\n      dup4\n        /* \"poseidon-solidity/PoseidonT3.sol\":2785:2814  mulmod(scratch2, scratch2, F) */\n      mulmod\n        /* \"poseidon-solidity/PoseidonT3.sol\":2775:2814  state0 := mulmod(scratch2, scratch2, F) */\n      swap1\n      pop\n        /* \"poseidon-solidity/PoseidonT3.sol\":2877:2878  F */\n      dup10\n        /* \"poseidon-solidity/PoseidonT3.sol\":2867:2875  scratch2 */\n      dup3\n        /* \"poseidon-solidity/PoseidonT3.sol\":2863:2864  F */\n      dup12\n        /* \"poseidon-solidity/PoseidonT3.sol\":2855:2861  state0 */\n      dup4\n        /* \"poseidon-solidity/PoseidonT3.sol\":2847:2853  state0 */\n      dup5\n        /* \"poseidon-solidity/PoseidonT3.sol\":2840:2865  mulmod(state0, state0, F) */\n      mulmod\n        /* \"poseidon-solidity/PoseidonT3.sol\":2833:2879  mulmod(mulmod(state0, state0, F), scratch2, F) */\n      mulmod\n        /* \"poseidon-solidity/PoseidonT3.sol\":2821:2879  scratch2 := mulmod(mulmod(state0, state0, F), scratch2, F) */\n      swap2\n      pop\n        /* \"poseidon-solidity/PoseidonT3.sol\":3051:3052  F */\n      dup10\n        /* \"poseidon-solidity/PoseidonT3.sol\":3046:3049  M20 */\n      dup10\n        /* \"poseidon-solidity/PoseidonT3.sol\":3036:3044  scratch2 */\n      dup4\n        /* \"poseidon-solidity/PoseidonT3.sol\":3029:3053  mulmod(scratch2, M20, F) */\n      mulmod\n        /* \"poseidon-solidity/PoseidonT3.sol\":3024:3025  F */\n      dup11\n        /* \"poseidon-solidity/PoseidonT3.sol\":3019:3022  M10 */\n      0x16ed41e13bb9c0c66ae119424fddbcbc9314dc9fdbdeea55d6c64543dc4903e0\n        /* \"poseidon-solidity/PoseidonT3.sol\":3009:3017  scratch1 */\n      dup6\n        /* \"poseidon-solidity/PoseidonT3.sol\":3002:3026  mulmod(scratch1, M10, F) */\n      mulmod\n        /* \"poseidon-solidity/PoseidonT3.sol\":2998:2999  F */\n      dup12\n        /* \"poseidon-solidity/PoseidonT3.sol\":2993:2996  M00 */\n      0x109b7f411ba0e4c9b2b70caf5c36a7b194be7c11ad24378bfedb68592ba8118b\n        /* \"poseidon-solidity/PoseidonT3.sol\":2983:2991  scratch0 */\n      dup8\n        /* \"poseidon-solidity/PoseidonT3.sol\":2976:3000  mulmod(scratch0, M00, F) */\n      mulmod\n        /* \"poseidon-solidity/PoseidonT3.sol\":2972:3027  add(mulmod(scratch0, M00, F), mulmod(scratch1, M10, F)) */\n      add\n        /* \"poseidon-solidity/PoseidonT3.sol\":2968:3054  add(add(mulmod(scratch0, M00, F), mulmod(scratch1, M10, F)), mulmod(scratch2, M20, F)) */\n      add\n        /* \"poseidon-solidity/PoseidonT3.sol\":2900:2966  0x28813dcaebaeaa828a376df87af4a63bc8b7bf27ad49c6298ef7b387bf28526d */\n      0x28813dcaebaeaa828a376df87af4a63bc8b7bf27ad49c6298ef7b387bf28526d\n        /* \"poseidon-solidity/PoseidonT3.sol\":2896:3055  add(0x28813dcaebaeaa828a376df87af4a63bc8b7bf27ad49c6298ef7b387bf28526d, add(add(mulmod(scratch0, M00, F), mulmod(scratch1, M10, F)), mulmod(scratch2, M20, F))) */\n      add\n        /* \"poseidon-solidity/PoseidonT3.sol\":2886:3055  state0 := add(0x28813dcaebaeaa828a376df87af4a63bc8b7bf27ad49c6298ef7b387bf28526d, add(add(mulmod(scratch0, M00, F), mulmod(scratch1, M10, F)), mulmod(scratch2, M20, F))) */\n      swap1\n      pop\n        /* \"poseidon-solidity/PoseidonT3.sol\":3227:3228  F */\n      dup10\n        /* \"poseidon-solidity/PoseidonT3.sol\":3222:3225  M21 */\n      dup9\n        /* \"poseidon-solidity/PoseidonT3.sol\":3212:3220  scratch2 */\n      dup4\n        /* \"poseidon-solidity/PoseidonT3.sol\":3205:3229  mulmod(scratch2, M21, F) */\n      mulmod\n        /* \"poseidon-solidity/PoseidonT3.sol\":3200:3201  F */\n      dup11\n        /* \"poseidon-solidity/PoseidonT3.sol\":3195:3198  M11 */\n      0x2e2419f9ec02ec394c9871c832963dc1b89d743c8c7b964029b2311687b1fe23\n        /* \"poseidon-solidity/PoseidonT3.sol\":3185:3193  scratch1 */\n      dup6\n        /* \"poseidon-solidity/PoseidonT3.sol\":3178:3202  mulmod(scratch1, M11, F) */\n      mulmod\n        /* \"poseidon-solidity/PoseidonT3.sol\":3174:3175  F */\n      dup12\n        /* \"poseidon-solidity/PoseidonT3.sol\":3169:3172  M01 */\n      0x2969f27eed31a480b9c36c764379dbca2cc8fdd1415c3dded62940bcde0bd771\n        /* \"poseidon-solidity/PoseidonT3.sol\":3159:3167  scratch0 */\n      dup8\n        /* \"poseidon-solidity/PoseidonT3.sol\":3152:3176  mulmod(scratch0, M01, F) */\n      mulmod\n        /* \"poseidon-solidity/PoseidonT3.sol\":3148:3203  add(mulmod(scratch0, M01, F), mulmod(scratch1, M11, F)) */\n      add\n        /* \"poseidon-solidity/PoseidonT3.sol\":3144:3230  add(add(mulmod(scratch0, M01, F), mulmod(scratch1, M11, F)), mulmod(scratch2, M21, F)) */\n      add\n        /* \"poseidon-solidity/PoseidonT3.sol\":3076:3142  0x2727673b2ccbc903f181bf38e1c1d40d2033865200c352bc150928adddf9cb78 */\n      0x2727673b2ccbc903f181bf38e1c1d40d2033865200c352bc150928adddf9cb78\n        /* \"poseidon-solidity/PoseidonT3.sol\":3072:3231  add(0x2727673b2ccbc903f181bf38e1c1d40d2033865200c352bc150928adddf9cb78, add(add(mulmod(scratch0, M01, F), mulmod(scratch1, M11, F)), mulmod(scratch2, M21, F))) */\n      add\n        /* \"poseidon-solidity/PoseidonT3.sol\":3062:3231  state1 := add(0x2727673b2ccbc903f181bf38e1c1d40d2033865200c352bc150928adddf9cb78, add(add(mulmod(scratch0, M01, F), mulmod(scratch1, M11, F)), mulmod(scratch2, M21, F))) */\n      swap6\n      pop\n        /* \"poseidon-solidity/PoseidonT3.sol\":3403:3404  F */\n      dup10\n        /* \"poseidon-solidity/PoseidonT3.sol\":3398:3401  M22 */\n      dup8\n        /* \"poseidon-solidity/PoseidonT3.sol\":3388:3396  scratch2 */\n      dup4\n        /* \"poseidon-solidity/PoseidonT3.sol\":3381:3405  mulmod(scratch2, M22, F) */\n      mulmod\n        /* \"poseidon-solidity/PoseidonT3.sol\":3376:3377  F */\n      dup11\n        /* \"poseidon-solidity/PoseidonT3.sol\":3371:3374  M12 */\n      0x176cc029695ad02582a70eff08a6fd99d057e12e58e7d7b6b16cdfabc8ee2911\n        /* \"poseidon-solidity/PoseidonT3.sol\":3361:3369  scratch1 */\n      dup6\n        /* \"poseidon-solidity/PoseidonT3.sol\":3354:3378  mulmod(scratch1, M12, F) */\n      mulmod\n        /* \"poseidon-solidity/PoseidonT3.sol\":3350:3351  F */\n      dup12\n        /* \"poseidon-solidity/PoseidonT3.sol\":3345:3348  M02 */\n      0x143021ec686a3f330d5f9e654638065ce6cd79e28c5b3753326244ee65a1b1a7\n        /* \"poseidon-solidity/PoseidonT3.sol\":3335:3343  scratch0 */\n      dup8\n        /* \"poseidon-solidity/PoseidonT3.sol\":3328:3352  mulmod(scratch0, M02, F) */\n      mulmod\n        /* \"poseidon-solidity/PoseidonT3.sol\":3324:3379  add(mulmod(scratch0, M02, F), mulmod(scratch1, M12, F)) */\n      add\n        /* \"poseidon-solidity/PoseidonT3.sol\":3320:3406  add(add(mulmod(scratch0, M02, F), mulmod(scratch1, M12, F)), mulmod(scratch2, M22, F)) */\n      add\n        /* \"poseidon-solidity/PoseidonT3.sol\":3252:3318  0x234ec45ca27727c2e74abd2b2a1494cd6efbd43e340587d6b8fb9e31e65cc632 */\n      0x234ec45ca27727c2e74abd2b2a1494cd6efbd43e340587d6b8fb9e31e65cc632\n        /* \"poseidon-solidity/PoseidonT3.sol\":3248:3407  add(0x234ec45ca27727c2e74abd2b2a1494cd6efbd43e340587d6b8fb9e31e65cc632, add(add(mulmod(scratch0, M02, F), mulmod(scratch1, M12, F)), mulmod(scratch2, M22, F))) */\n      add\n        /* \"poseidon-solidity/PoseidonT3.sol\":3238:3407  state2 := add(0x234ec45ca27727c2e74abd2b2a1494cd6efbd43e340587d6b8fb9e31e65cc632, add(add(mulmod(scratch0, M02, F), mulmod(scratch1, M12, F)), mulmod(scratch2, M22, F))) */\n      swap5\n      pop\n        /* \"poseidon-solidity/PoseidonT3.sol\":3449:3450  F */\n      dup10\n        /* \"poseidon-solidity/PoseidonT3.sol\":3441:3447  state0 */\n      dup2\n        /* \"poseidon-solidity/PoseidonT3.sol\":3433:3439  state0 */\n      dup3\n        /* \"poseidon-solidity/PoseidonT3.sol\":3426:3451  mulmod(state0, state0, F) */\n      mulmod\n        /* \"poseidon-solidity/PoseidonT3.sol\":3414:3451  scratch0 := mulmod(state0, state0, F) */\n      swap4\n      pop\n        /* \"poseidon-solidity/PoseidonT3.sol\":3514:3515  F */\n      dup10\n        /* \"poseidon-solidity/PoseidonT3.sol\":3506:3512  state0 */\n      dup2\n        /* \"poseidon-solidity/PoseidonT3.sol\":3502:3503  F */\n      dup12\n        /* \"poseidon-solidity/PoseidonT3.sol\":3492:3500  scratch0 */\n      dup7\n        /* \"poseidon-solidity/PoseidonT3.sol\":3482:3490  scratch0 */\n      dup8\n        /* \"poseidon-solidity/PoseidonT3.sol\":3475:3504  mulmod(scratch0, scratch0, F) */\n      mulmod\n        /* \"poseidon-solidity/PoseidonT3.sol\":3468:3516  mulmod(mulmod(scratch0, scratch0, F), state0, F) */\n      mulmod\n        /* \"poseidon-solidity/PoseidonT3.sol\":3458:3516  state0 := mulmod(mulmod(scratch0, scratch0, F), state0, F) */\n      swap1\n      pop\n        /* \"poseidon-solidity/PoseidonT3.sol\":3558:3559  F */\n      dup10\n        /* \"poseidon-solidity/PoseidonT3.sol\":3550:3556  state1 */\n      dup7\n        /* \"poseidon-solidity/PoseidonT3.sol\":3542:3548  state1 */\n      dup8\n        /* \"poseidon-solidity/PoseidonT3.sol\":3535:3560  mulmod(state1, state1, F) */\n      mulmod\n        /* \"poseidon-solidity/PoseidonT3.sol\":3523:3560  scratch0 := mulmod(state1, state1, F) */\n      swap4\n      pop\n        /* \"poseidon-solidity/PoseidonT3.sol\":3623:3624  F */\n      dup10\n        /* \"poseidon-solidity/PoseidonT3.sol\":3615:3621  state1 */\n      dup7\n        /* \"poseidon-solidity/PoseidonT3.sol\":3611:3612  F */\n      dup12\n        /* \"poseidon-solidity/PoseidonT3.sol\":3601:3609  scratch0 */\n      dup7\n        /* \"poseidon-solidity/PoseidonT3.sol\":3591:3599  scratch0 */\n      dup8\n        /* \"poseidon-solidity/PoseidonT3.sol\":3584:3613  mulmod(scratch0, scratch0, F) */\n      mulmod\n        /* \"poseidon-solidity/PoseidonT3.sol\":3577:3625  mulmod(mulmod(scratch0, scratch0, F), state1, F) */\n      mulmod\n        /* \"poseidon-solidity/PoseidonT3.sol\":3567:3625  state1 := mulmod(mulmod(scratch0, scratch0, F), state1, F) */\n      swap6\n      pop\n        /* \"poseidon-solidity/PoseidonT3.sol\":3667:3668  F */\n      dup10\n        /* \"poseidon-solidity/PoseidonT3.sol\":3659:3665  state2 */\n      dup6\n        /* \"poseidon-solidity/PoseidonT3.sol\":3651:3657  state2 */\n      dup7\n        /* \"poseidon-solidity/PoseidonT3.sol\":3644:3669  mulmod(state2, state2, F) */\n      mulmod\n        /* \"poseidon-solidity/PoseidonT3.sol\":3632:3669  scratch0 := mulmod(state2, state2, F) */\n      swap4\n      pop\n        /* \"poseidon-solidity/PoseidonT3.sol\":3732:3733  F */\n      dup10\n        /* \"poseidon-solidity/PoseidonT3.sol\":3724:3730  state2 */\n      dup6\n        /* \"poseidon-solidity/PoseidonT3.sol\":3720:3721  F */\n      dup12\n        /* \"poseidon-solidity/PoseidonT3.sol\":3710:3718  scratch0 */\n      dup7\n        /* \"poseidon-solidity/PoseidonT3.sol\":3700:3708  scratch0 */\n      dup8\n        /* \"poseidon-solidity/PoseidonT3.sol\":3693:3722  mulmod(scratch0, scratch0, F) */\n      mulmod\n        /* \"poseidon-solidity/PoseidonT3.sol\":3686:3734  mulmod(mulmod(scratch0, scratch0, F), state2, F) */\n      mulmod\n        /* \"poseidon-solidity/PoseidonT3.sol\":3676:3734  state2 := mulmod(mulmod(scratch0, scratch0, F), state2, F) */\n      swap5\n      pop\n        /* \"poseidon-solidity/PoseidonT3.sol\":3902:3903  F */\n      dup10\n        /* \"poseidon-solidity/PoseidonT3.sol\":3897:3900  M20 */\n      dup10\n        /* \"poseidon-solidity/PoseidonT3.sol\":3889:3895  state2 */\n      dup7\n        /* \"poseidon-solidity/PoseidonT3.sol\":3882:3904  mulmod(state2, M20, F) */\n      mulmod\n        /* \"poseidon-solidity/PoseidonT3.sol\":3877:3878  F */\n      dup11\n        /* \"poseidon-solidity/PoseidonT3.sol\":3872:3875  M10 */\n      0x16ed41e13bb9c0c66ae119424fddbcbc9314dc9fdbdeea55d6c64543dc4903e0\n        /* \"poseidon-solidity/PoseidonT3.sol\":3864:3870  state1 */\n      dup9\n        /* \"poseidon-solidity/PoseidonT3.sol\":3857:3879  mulmod(state1, M10, F) */\n      mulmod\n        /* \"poseidon-solidity/PoseidonT3.sol\":3853:3854  F */\n      dup12\n        /* \"poseidon-solidity/PoseidonT3.sol\":3848:3851  M00 */\n      0x109b7f411ba0e4c9b2b70caf5c36a7b194be7c11ad24378bfedb68592ba8118b\n        /* \"poseidon-solidity/PoseidonT3.sol\":3840:3846  state0 */\n      dup5\n        /* \"poseidon-solidity/PoseidonT3.sol\":3833:3855  mulmod(state0, M00, F) */\n      mulmod\n        /* \"poseidon-solidity/PoseidonT3.sol\":3829:3880  add(mulmod(state0, M00, F), mulmod(state1, M10, F)) */\n      add\n        /* \"poseidon-solidity/PoseidonT3.sol\":3825:3905  add(add(mulmod(state0, M00, F), mulmod(state1, M10, F)), mulmod(state2, M20, F)) */\n      add\n        /* \"poseidon-solidity/PoseidonT3.sol\":3757:3823  0x15b52534031ae18f7f862cb2cf7cf760ab10a8150a337b1ccd99ff6e8797d428 */\n      0x15b52534031ae18f7f862cb2cf7cf760ab10a8150a337b1ccd99ff6e8797d428\n        /* \"poseidon-solidity/PoseidonT3.sol\":3753:3906  add(0x15b52534031ae18f7f862cb2cf7cf760ab10a8150a337b1ccd99ff6e8797d428, add(add(mulmod(state0, M00, F), mulmod(state1, M10, F)), mulmod(state2, M20, F))) */\n      add\n        /* \"poseidon-solidity/PoseidonT3.sol\":3741:3906  scratch0 := add(0x15b52534031ae18f7f862cb2cf7cf760ab10a8150a337b1ccd99ff6e8797d428, add(add(mulmod(state0, M00, F), mulmod(state1, M10, F)), mulmod(state2, M20, F))) */\n      swap4\n      pop\n        /* \"poseidon-solidity/PoseidonT3.sol\":4074:4075  F */\n      dup10\n        /* \"poseidon-solidity/PoseidonT3.sol\":4069:4072  M21 */\n      dup9\n        /* \"poseidon-solidity/PoseidonT3.sol\":4061:4067  state2 */\n      dup7\n        /* \"poseidon-solidity/PoseidonT3.sol\":4054:4076  mulmod(state2, M21, F) */\n      mulmod\n        /* \"poseidon-solidity/PoseidonT3.sol\":4049:4050  F */\n      dup11\n        /* \"poseidon-solidity/PoseidonT3.sol\":4044:4047  M11 */\n      0x2e2419f9ec02ec394c9871c832963dc1b89d743c8c7b964029b2311687b1fe23\n        /* \"poseidon-solidity/PoseidonT3.sol\":4036:4042  state1 */\n      dup9\n        /* \"poseidon-solidity/PoseidonT3.sol\":4029:4051  mulmod(state1, M11, F) */\n      mulmod\n        /* \"poseidon-solidity/PoseidonT3.sol\":4025:4026  F */\n      dup12\n        /* \"poseidon-solidity/PoseidonT3.sol\":4020:4023  M01 */\n      0x2969f27eed31a480b9c36c764379dbca2cc8fdd1415c3dded62940bcde0bd771\n        /* \"poseidon-solidity/PoseidonT3.sol\":4012:4018  state0 */\n      dup5\n        /* \"poseidon-solidity/PoseidonT3.sol\":4005:4027  mulmod(state0, M01, F) */\n      mulmod\n        /* \"poseidon-solidity/PoseidonT3.sol\":4001:4052  add(mulmod(state0, M01, F), mulmod(state1, M11, F)) */\n      add\n        /* \"poseidon-solidity/PoseidonT3.sol\":3997:4077  add(add(mulmod(state0, M01, F), mulmod(state1, M11, F)), mulmod(state2, M21, F)) */\n      add\n        /* \"poseidon-solidity/PoseidonT3.sol\":3929:3995  0x0dc8fad6d9e4b35f5ed9a3d186b79ce38e0e8a8d1b58b132d701d4eecf68d1f6 */\n      0x0dc8fad6d9e4b35f5ed9a3d186b79ce38e0e8a8d1b58b132d701d4eecf68d1f6\n        /* \"poseidon-solidity/PoseidonT3.sol\":3925:4078  add(0x0dc8fad6d9e4b35f5ed9a3d186b79ce38e0e8a8d1b58b132d701d4eecf68d1f6, add(add(mulmod(state0, M01, F), mulmod(state1, M11, F)), mulmod(state2, M21, F))) */\n      add\n        /* \"poseidon-solidity/PoseidonT3.sol\":3913:4078  scratch1 := add(0x0dc8fad6d9e4b35f5ed9a3d186b79ce38e0e8a8d1b58b132d701d4eecf68d1f6, add(add(mulmod(state0, M01, F), mulmod(state1, M11, F)), mulmod(state2, M21, F))) */\n      swap3\n      pop\n        /* \"poseidon-solidity/PoseidonT3.sol\":4246:4247  F */\n      dup10\n        /* \"poseidon-solidity/PoseidonT3.sol\":4241:4244  M22 */\n      dup8\n        /* \"poseidon-solidity/PoseidonT3.sol\":4233:4239  state2 */\n      dup7\n        /* \"poseidon-solidity/PoseidonT3.sol\":4226:4248  mulmod(state2, M22, F) */\n      mulmod\n        /* \"poseidon-solidity/PoseidonT3.sol\":4221:4222  F */\n      dup11\n        /* \"poseidon-solidity/PoseidonT3.sol\":4216:4219  M12 */\n      0x176cc029695ad02582a70eff08a6fd99d057e12e58e7d7b6b16cdfabc8ee2911\n        /* \"poseidon-solidity/PoseidonT3.sol\":4208:4214  state1 */\n      dup9\n        /* \"poseidon-solidity/PoseidonT3.sol\":4201:4223  mulmod(state1, M12, F) */\n      mulmod\n        /* \"poseidon-solidity/PoseidonT3.sol\":4197:4198  F */\n      dup12\n        /* \"poseidon-solidity/PoseidonT3.sol\":4192:4195  M02 */\n      0x143021ec686a3f330d5f9e654638065ce6cd79e28c5b3753326244ee65a1b1a7\n        /* \"poseidon-solidity/PoseidonT3.sol\":4184:4190  state0 */\n      dup5\n        /* \"poseidon-solidity/PoseidonT3.sol\":4177:4199  mulmod(state0, M02, F) */\n      mulmod\n        /* \"poseidon-solidity/PoseidonT3.sol\":4173:4224  add(mulmod(state0, M02, F), mulmod(state1, M12, F)) */\n      add\n        /* \"poseidon-solidity/PoseidonT3.sol\":4169:4249  add(add(mulmod(state0, M02, F), mulmod(state1, M12, F)), mulmod(state2, M22, F)) */\n      add\n        /* \"poseidon-solidity/PoseidonT3.sol\":4101:4167  0x1bcd95ffc211fbca600f705fad3fb567ea4eb378f62e1fec97805518a47e4d9c */\n      0x1bcd95ffc211fbca600f705fad3fb567ea4eb378f62e1fec97805518a47e4d9c\n        /* \"poseidon-solidity/PoseidonT3.sol\":4097:4250  add(0x1bcd95ffc211fbca600f705fad3fb567ea4eb378f62e1fec97805518a47e4d9c, add(add(mulmod(state0, M02, F), mulmod(state1, M12, F)), mulmod(state2, M22, F))) */\n      add\n        /* \"poseidon-solidity/PoseidonT3.sol\":4085:4250  scratch2 := add(0x1bcd95ffc211fbca600f705fad3fb567ea4eb378f62e1fec97805518a47e4d9c, add(add(mulmod(state0, M02, F), mulmod(state1, M12, F)), mulmod(state2, M22, F))) */\n      swap2\n      pop\n        /* \"poseidon-solidity/PoseidonT3.sol\":4294:4295  F */\n      dup10\n        /* \"poseidon-solidity/PoseidonT3.sol\":4284:4292  scratch0 */\n      dup5\n        /* \"poseidon-solidity/PoseidonT3.sol\":4274:4282  scratch0 */\n      dup6\n        /* \"poseidon-solidity/PoseidonT3.sol\":4267:4296  mulmod(scratch0, scratch0, F) */\n      mulmod\n        /* \"poseidon-solidity/PoseidonT3.sol\":4257:4296  state0 := mulmod(scratch0, scratch0, F) */\n      swap1\n      pop\n        /* \"poseidon-solidity/PoseidonT3.sol\":4359:4360  F */\n      dup10\n        /* \"poseidon-solidity/PoseidonT3.sol\":4349:4357  scratch0 */\n      dup5\n        /* \"poseidon-solidity/PoseidonT3.sol\":4345:4346  F */\n      dup12\n        /* \"poseidon-solidity/PoseidonT3.sol\":4337:4343  state0 */\n      dup4\n        /* \"poseidon-solidity/PoseidonT3.sol\":4329:4335  state0 */\n      dup5\n        /* \"poseidon-solidity/PoseidonT3.sol\":4322:4347  mulmod(state0, state0, F) */\n      mulmod\n        /* \"poseidon-solidity/PoseidonT3.sol\":4315:4361  mulmod(mulmod(state0, state0, F), scratch0, F) */\n      mulmod\n        /* \"poseidon-solidity/PoseidonT3.sol\":4303:4361  scratch0 := mulmod(mulmod(state0, state0, F), scratch0, F) */\n      swap4\n      pop\n        /* \"poseidon-solidity/PoseidonT3.sol\":4405:4406  F */\n      dup10\n        /* \"poseidon-solidity/PoseidonT3.sol\":4395:4403  scratch1 */\n      dup4\n        /* \"poseidon-solidity/PoseidonT3.sol\":4385:4393  scratch1 */\n      dup5\n        /* \"poseidon-solidity/PoseidonT3.sol\":4378:4407  mulmod(scratch1, scratch1, F) */\n      mulmod\n        /* \"poseidon-solidity/PoseidonT3.sol\":4368:4407  state0 := mulmod(scratch1, scratch1, F) */\n      swap1\n      pop\n        /* \"poseidon-solidity/PoseidonT3.sol\":4470:4471  F */\n      dup10\n        /* \"poseidon-solidity/PoseidonT3.sol\":4460:4468  scratch1 */\n      dup4\n        /* \"poseidon-solidity/PoseidonT3.sol\":4456:4457  F */\n      dup12\n        /* \"poseidon-solidity/PoseidonT3.sol\":4448:4454  state0 */\n      dup4\n        /* \"poseidon-solidity/PoseidonT3.sol\":4440:4446  state0 */\n      dup5\n        /* \"poseidon-solidity/PoseidonT3.sol\":4433:4458  mulmod(state0, state0, F) */\n      mulmod\n        /* \"poseidon-solidity/PoseidonT3.sol\":4426:4472  mulmod(mulmod(state0, state0, F), scratch1, F) */\n      mulmod\n        /* \"poseidon-solidity/PoseidonT3.sol\":4414:4472  scratch1 := mulmod(mulmod(state0, state0, F), scratch1, F) */\n      swap3\n      pop\n        /* \"poseidon-solidity/PoseidonT3.sol\":4516:4517  F */\n      dup10\n        /* \"poseidon-solidity/PoseidonT3.sol\":4506:4514  scratch2 */\n      dup3\n        /* \"poseidon-solidity/PoseidonT3.sol\":4496:4504  scratch2 */\n      dup4\n        /* \"poseidon-solidity/PoseidonT3.sol\":4489:4518  mulmod(scratch2, scratch2, F) */\n      mulmod\n        /* \"poseidon-solidity/PoseidonT3.sol\":4479:4518  state0 := mulmod(scratch2, scratch2, F) */\n      swap1\n      pop\n        /* \"poseidon-solidity/PoseidonT3.sol\":4581:4582  F */\n      dup10\n        /* \"poseidon-solidity/PoseidonT3.sol\":4571:4579  scratch2 */\n      dup3\n        /* \"poseidon-solidity/PoseidonT3.sol\":4567:4568  F */\n      dup12\n        /* \"poseidon-solidity/PoseidonT3.sol\":4559:4565  state0 */\n      dup4\n        /* \"poseidon-solidity/PoseidonT3.sol\":4551:4557  state0 */\n      dup5\n        /* \"poseidon-solidity/PoseidonT3.sol\":4544:4569  mulmod(state0, state0, F) */\n      mulmod\n        /* \"poseidon-solidity/PoseidonT3.sol\":4537:4583  mulmod(mulmod(state0, state0, F), scratch2, F) */\n      mulmod\n        /* \"poseidon-solidity/PoseidonT3.sol\":4525:4583  scratch2 := mulmod(mulmod(state0, state0, F), scratch2, F) */\n      swap2\n      pop\n        /* \"poseidon-solidity/PoseidonT3.sol\":4755:4756  F */\n      dup10\n        /* \"poseidon-solidity/PoseidonT3.sol\":4750:4753  M20 */\n      dup10\n        /* \"poseidon-solidity/PoseidonT3.sol\":4740:4748  scratch2 */\n      dup4\n        /* \"poseidon-solidity/PoseidonT3.sol\":4733:4757  mulmod(scratch2, M20, F) */\n      mulmod\n        /* \"poseidon-solidity/PoseidonT3.sol\":4728:4729  F */\n      dup11\n        /* \"poseidon-solidity/PoseidonT3.sol\":4723:4726  M10 */\n      0x16ed41e13bb9c0c66ae119424fddbcbc9314dc9fdbdeea55d6c64543dc4903e0\n        /* \"poseidon-solidity/PoseidonT3.sol\":4713:4721  scratch1 */\n      dup6\n        /* \"poseidon-solidity/PoseidonT3.sol\":4706:4730  mulmod(scratch1, M10, F) */\n      mulmod\n        /* \"poseidon-solidity/PoseidonT3.sol\":4702:4703  F */\n      dup12\n        /* \"poseidon-solidity/PoseidonT3.sol\":4697:4700  M00 */\n      0x109b7f411ba0e4c9b2b70caf5c36a7b194be7c11ad24378bfedb68592ba8118b\n        /* \"poseidon-solidity/PoseidonT3.sol\":4687:4695  scratch0 */\n      dup8\n        /* \"poseidon-solidity/PoseidonT3.sol\":4680:4704  mulmod(scratch0, M00, F) */\n      mulmod\n        /* \"poseidon-solidity/PoseidonT3.sol\":4676:4731  add(mulmod(scratch0, M00, F), mulmod(scratch1, M10, F)) */\n      add\n        /* \"poseidon-solidity/PoseidonT3.sol\":4672:4758  add(add(mulmod(scratch0, M00, F), mulmod(scratch1, M10, F)), mulmod(scratch2, M20, F)) */\n      add\n        /* \"poseidon-solidity/PoseidonT3.sol\":4604:4670  0x10520b0ab721cadfe9eff81b016fc34dc76da36c2578937817cb978d069de559 */\n      0x10520b0ab721cadfe9eff81b016fc34dc76da36c2578937817cb978d069de559\n        /* \"poseidon-solidity/PoseidonT3.sol\":4600:4759  add(0x10520b0ab721cadfe9eff81b016fc34dc76da36c2578937817cb978d069de559, add(add(mulmod(scratch0, M00, F), mulmod(scratch1, M10, F)), mulmod(scratch2, M20, F))) */\n      add\n        /* \"poseidon-solidity/PoseidonT3.sol\":4590:4759  state0 := add(0x10520b0ab721cadfe9eff81b016fc34dc76da36c2578937817cb978d069de559, add(add(mulmod(scratch0, M00, F), mulmod(scratch1, M10, F)), mulmod(scratch2, M20, F))) */\n      swap1\n      pop\n        /* \"poseidon-solidity/PoseidonT3.sol\":4931:4932  F */\n      dup10\n        /* \"poseidon-solidity/PoseidonT3.sol\":4926:4929  M21 */\n      dup9\n        /* \"poseidon-solidity/PoseidonT3.sol\":4916:4924  scratch2 */\n      dup4\n        /* \"poseidon-solidity/PoseidonT3.sol\":4909:4933  mulmod(scratch2, M21, F) */\n      mulmod\n        /* \"poseidon-solidity/PoseidonT3.sol\":4904:4905  F */\n      dup11\n        /* \"poseidon-solidity/PoseidonT3.sol\":4899:4902  M11 */\n      0x2e2419f9ec02ec394c9871c832963dc1b89d743c8c7b964029b2311687b1fe23\n        /* \"poseidon-solidity/PoseidonT3.sol\":4889:4897  scratch1 */\n      dup6\n        /* \"poseidon-solidity/PoseidonT3.sol\":4882:4906  mulmod(scratch1, M11, F) */\n      mulmod\n        /* \"poseidon-solidity/PoseidonT3.sol\":4878:4879  F */\n      dup12\n        /* \"poseidon-solidity/PoseidonT3.sol\":4873:4876  M01 */\n      0x2969f27eed31a480b9c36c764379dbca2cc8fdd1415c3dded62940bcde0bd771\n        /* \"poseidon-solidity/PoseidonT3.sol\":4863:4871  scratch0 */\n      dup8\n        /* \"poseidon-solidity/PoseidonT3.sol\":4856:4880  mulmod(scratch0, M01, F) */\n      mulmod\n        /* \"poseidon-solidity/PoseidonT3.sol\":4852:4907  add(mulmod(scratch0, M01, F), mulmod(scratch1, M11, F)) */\n      add\n        /* \"poseidon-solidity/PoseidonT3.sol\":4848:4934  add(add(mulmod(scratch0, M01, F), mulmod(scratch1, M11, F)), mulmod(scratch2, M21, F)) */\n      add\n        /* \"poseidon-solidity/PoseidonT3.sol\":4780:4846  0x1f6d48149b8e7f7d9b257d8ed5fbbaf42932498075fed0ace88a9eb81f5627f6 */\n      0x1f6d48149b8e7f7d9b257d8ed5fbbaf42932498075fed0ace88a9eb81f5627f6\n        /* \"poseidon-solidity/PoseidonT3.sol\":4776:4935  add(0x1f6d48149b8e7f7d9b257d8ed5fbbaf42932498075fed0ace88a9eb81f5627f6, add(add(mulmod(scratch0, M01, F), mulmod(scratch1, M11, F)), mulmod(scratch2, M21, F))) */\n      add\n        /* \"poseidon-solidity/PoseidonT3.sol\":4766:4935  state1 := add(0x1f6d48149b8e7f7d9b257d8ed5fbbaf42932498075fed0ace88a9eb81f5627f6, add(add(mulmod(scratch0, M01, F), mulmod(scratch1, M11, F)), mulmod(scratch2, M21, F))) */\n      swap6\n      pop\n        /* \"poseidon-solidity/PoseidonT3.sol\":5107:5108  F */\n      dup10\n        /* \"poseidon-solidity/PoseidonT3.sol\":5102:5105  M22 */\n      dup8\n        /* \"poseidon-solidity/PoseidonT3.sol\":5092:5100  scratch2 */\n      dup4\n        /* \"poseidon-solidity/PoseidonT3.sol\":5085:5109  mulmod(scratch2, M22, F) */\n      mulmod\n        /* \"poseidon-solidity/PoseidonT3.sol\":5080:5081  F */\n      dup11\n        /* \"poseidon-solidity/PoseidonT3.sol\":5075:5078  M12 */\n      0x176cc029695ad02582a70eff08a6fd99d057e12e58e7d7b6b16cdfabc8ee2911\n        /* \"poseidon-solidity/PoseidonT3.sol\":5065:5073  scratch1 */\n      dup6\n        /* \"poseidon-solidity/PoseidonT3.sol\":5058:5082  mulmod(scratch1, M12, F) */\n      mulmod\n        /* \"poseidon-solidity/PoseidonT3.sol\":5054:5055  F */\n      dup12\n        /* \"poseidon-solidity/PoseidonT3.sol\":5049:5052  M02 */\n      0x143021ec686a3f330d5f9e654638065ce6cd79e28c5b3753326244ee65a1b1a7\n        /* \"poseidon-solidity/PoseidonT3.sol\":5039:5047  scratch0 */\n      dup8\n        /* \"poseidon-solidity/PoseidonT3.sol\":5032:5056  mulmod(scratch0, M02, F) */\n      mulmod\n        /* \"poseidon-solidity/PoseidonT3.sol\":5028:5083  add(mulmod(scratch0, M02, F), mulmod(scratch1, M12, F)) */\n      add\n        /* \"poseidon-solidity/PoseidonT3.sol\":5024:5110  add(add(mulmod(scratch0, M02, F), mulmod(scratch1, M12, F)), mulmod(scratch2, M22, F)) */\n      add\n        /* \"poseidon-solidity/PoseidonT3.sol\":4956:5022  0x1d9655f652309014d29e00ef35a2089bfff8dc1c816f0dc9ca34bdb5460c8705 */\n      0x1d9655f652309014d29e00ef35a2089bfff8dc1c816f0dc9ca34bdb5460c8705\n        /* \"poseidon-solidity/PoseidonT3.sol\":4952:5111  add(0x1d9655f652309014d29e00ef35a2089bfff8dc1c816f0dc9ca34bdb5460c8705, add(add(mulmod(scratch0, M02, F), mulmod(scratch1, M12, F)), mulmod(scratch2, M22, F))) */\n      add\n        /* \"poseidon-solidity/PoseidonT3.sol\":4942:5111  state2 := add(0x1d9655f652309014d29e00ef35a2089bfff8dc1c816f0dc9ca34bdb5460c8705, add(add(mulmod(scratch0, M02, F), mulmod(scratch1, M12, F)), mulmod(scratch2, M22, F))) */\n      swap5\n      pop\n        /* \"poseidon-solidity/PoseidonT3.sol\":5153:5154  F */\n      dup10\n        /* \"poseidon-solidity/PoseidonT3.sol\":5145:5151  state0 */\n      dup2\n        /* \"poseidon-solidity/PoseidonT3.sol\":5137:5143  state0 */\n      dup3\n        /* \"poseidon-solidity/PoseidonT3.sol\":5130:5155  mulmod(state0, state0, F) */\n      mulmod\n        /* \"poseidon-solidity/PoseidonT3.sol\":5118:5155  scratch0 := mulmod(state0, state0, F) */\n      swap4\n      pop\n        /* \"poseidon-solidity/PoseidonT3.sol\":5218:5219  F */\n      dup10\n        /* \"poseidon-solidity/PoseidonT3.sol\":5210:5216  state0 */\n      dup2\n        /* \"poseidon-solidity/PoseidonT3.sol\":5206:5207  F */\n      dup12\n        /* \"poseidon-solidity/PoseidonT3.sol\":5196:5204  scratch0 */\n      dup7\n        /* \"poseidon-solidity/PoseidonT3.sol\":5186:5194  scratch0 */\n      dup8\n        /* \"poseidon-solidity/PoseidonT3.sol\":5179:5208  mulmod(scratch0, scratch0, F) */\n      mulmod\n        /* \"poseidon-solidity/PoseidonT3.sol\":5172:5220  mulmod(mulmod(scratch0, scratch0, F), state0, F) */\n      mulmod\n        /* \"poseidon-solidity/PoseidonT3.sol\":5162:5220  state0 := mulmod(mulmod(scratch0, scratch0, F), state0, F) */\n      swap1\n      pop\n        /* \"poseidon-solidity/PoseidonT3.sol\":5388:5389  F */\n      dup10\n        /* \"poseidon-solidity/PoseidonT3.sol\":5383:5386  M20 */\n      dup10\n        /* \"poseidon-solidity/PoseidonT3.sol\":5375:5381  state2 */\n      dup7\n        /* \"poseidon-solidity/PoseidonT3.sol\":5368:5390  mulmod(state2, M20, F) */\n      mulmod\n        /* \"poseidon-solidity/PoseidonT3.sol\":5363:5364  F */\n      dup11\n        /* \"poseidon-solidity/PoseidonT3.sol\":5358:5361  M10 */\n      0x16ed41e13bb9c0c66ae119424fddbcbc9314dc9fdbdeea55d6c64543dc4903e0\n        /* \"poseidon-solidity/PoseidonT3.sol\":5350:5356  state1 */\n      dup9\n        /* \"poseidon-solidity/PoseidonT3.sol\":5343:5365  mulmod(state1, M10, F) */\n      mulmod\n        /* \"poseidon-solidity/PoseidonT3.sol\":5339:5340  F */\n      dup12\n        /* \"poseidon-solidity/PoseidonT3.sol\":5334:5337  M00 */\n      0x109b7f411ba0e4c9b2b70caf5c36a7b194be7c11ad24378bfedb68592ba8118b\n        /* \"poseidon-solidity/PoseidonT3.sol\":5326:5332  state0 */\n      dup5\n        /* \"poseidon-solidity/PoseidonT3.sol\":5319:5341  mulmod(state0, M00, F) */\n      mulmod\n        /* \"poseidon-solidity/PoseidonT3.sol\":5315:5366  add(mulmod(state0, M00, F), mulmod(state1, M10, F)) */\n      add\n        /* \"poseidon-solidity/PoseidonT3.sol\":5311:5391  add(add(mulmod(state0, M00, F), mulmod(state1, M10, F)), mulmod(state2, M20, F)) */\n      add\n        /* \"poseidon-solidity/PoseidonT3.sol\":5243:5309  0x04df5a56ff95bcafb051f7b1cd43a99ba731ff67e47032058fe3d4185697cc7d */\n      0x04df5a56ff95bcafb051f7b1cd43a99ba731ff67e47032058fe3d4185697cc7d\n        /* \"poseidon-solidity/PoseidonT3.sol\":5239:5392  add(0x04df5a56ff95bcafb051f7b1cd43a99ba731ff67e47032058fe3d4185697cc7d, add(add(mulmod(state0, M00, F), mulmod(state1, M10, F)), mulmod(state2, M20, F))) */\n      add\n        /* \"poseidon-solidity/PoseidonT3.sol\":5227:5392  scratch0 := add(0x04df5a56ff95bcafb051f7b1cd43a99ba731ff67e47032058fe3d4185697cc7d, add(add(mulmod(state0, M00, F), mulmod(state1, M10, F)), mulmod(state2, M20, F))) */\n      swap4\n      pop\n        /* \"poseidon-solidity/PoseidonT3.sol\":5560:5561  F */\n      dup10\n        /* \"poseidon-solidity/PoseidonT3.sol\":5555:5558  M21 */\n      dup9\n        /* \"poseidon-solidity/PoseidonT3.sol\":5547:5553  state2 */\n      dup7\n        /* \"poseidon-solidity/PoseidonT3.sol\":5540:5562  mulmod(state2, M21, F) */\n      mulmod\n        /* \"poseidon-solidity/PoseidonT3.sol\":5535:5536  F */\n      dup11\n        /* \"poseidon-solidity/PoseidonT3.sol\":5530:5533  M11 */\n      0x2e2419f9ec02ec394c9871c832963dc1b89d743c8c7b964029b2311687b1fe23\n        /* \"poseidon-solidity/PoseidonT3.sol\":5522:5528  state1 */\n      dup9\n        /* \"poseidon-solidity/PoseidonT3.sol\":5515:5537  mulmod(state1, M11, F) */\n      mulmod\n        /* \"poseidon-solidity/PoseidonT3.sol\":5511:5512  F */\n      dup12\n        /* \"poseidon-solidity/PoseidonT3.sol\":5506:5509  M01 */\n      0x2969f27eed31a480b9c36c764379dbca2cc8fdd1415c3dded62940bcde0bd771\n        /* \"poseidon-solidity/PoseidonT3.sol\":5498:5504  state0 */\n      dup5\n        /* \"poseidon-solidity/PoseidonT3.sol\":5491:5513  mulmod(state0, M01, F) */\n      mulmod\n        /* \"poseidon-solidity/PoseidonT3.sol\":5487:5538  add(mulmod(state0, M01, F), mulmod(state1, M11, F)) */\n      add\n        /* \"poseidon-solidity/PoseidonT3.sol\":5483:5563  add(add(mulmod(state0, M01, F), mulmod(state1, M11, F)), mulmod(state2, M21, F)) */\n      add\n        /* \"poseidon-solidity/PoseidonT3.sol\":5415:5481  0x0672d995f8fff640151b3d290cedaf148690a10a8c8424a7f6ec282b6e4be828 */\n      0x0672d995f8fff640151b3d290cedaf148690a10a8c8424a7f6ec282b6e4be828\n        /* \"poseidon-solidity/PoseidonT3.sol\":5411:5564  add(0x0672d995f8fff640151b3d290cedaf148690a10a8c8424a7f6ec282b6e4be828, add(add(mulmod(state0, M01, F), mulmod(state1, M11, F)), mulmod(state2, M21, F))) */\n      add\n        /* \"poseidon-solidity/PoseidonT3.sol\":5399:5564  scratch1 := add(0x0672d995f8fff640151b3d290cedaf148690a10a8c8424a7f6ec282b6e4be828, add(add(mulmod(state0, M01, F), mulmod(state1, M11, F)), mulmod(state2, M21, F))) */\n      swap3\n      pop\n        /* \"poseidon-solidity/PoseidonT3.sol\":5732:5733  F */\n      dup10\n        /* \"poseidon-solidity/PoseidonT3.sol\":5727:5730  M22 */\n      dup8\n        /* \"poseidon-solidity/PoseidonT3.sol\":5719:5725  state2 */\n      dup7\n        /* \"poseidon-solidity/PoseidonT3.sol\":5712:5734  mulmod(state2, M22, F) */\n      mulmod\n        /* \"poseidon-solidity/PoseidonT3.sol\":5707:5708  F */\n      dup11\n        /* \"poseidon-solidity/PoseidonT3.sol\":5702:5705  M12 */\n      0x176cc029695ad02582a70eff08a6fd99d057e12e58e7d7b6b16cdfabc8ee2911\n        /* \"poseidon-solidity/PoseidonT3.sol\":5694:5700  state1 */\n      dup9\n        /* \"poseidon-solidity/PoseidonT3.sol\":5687:5709  mulmod(state1, M12, F) */\n      mulmod\n        /* \"poseidon-solidity/PoseidonT3.sol\":5683:5684  F */\n      dup12\n        /* \"poseidon-solidity/PoseidonT3.sol\":5678:5681  M02 */\n      0x143021ec686a3f330d5f9e654638065ce6cd79e28c5b3753326244ee65a1b1a7\n        /* \"poseidon-solidity/PoseidonT3.sol\":5670:5676  state0 */\n      dup5\n        /* \"poseidon-solidity/PoseidonT3.sol\":5663:5685  mulmod(state0, M02, F) */\n      mulmod\n        /* \"poseidon-solidity/PoseidonT3.sol\":5659:5710  add(mulmod(state0, M02, F), mulmod(state1, M12, F)) */\n      add\n        /* \"poseidon-solidity/PoseidonT3.sol\":5655:5735  add(add(mulmod(state0, M02, F), mulmod(state1, M12, F)), mulmod(state2, M22, F)) */\n      add\n        /* \"poseidon-solidity/PoseidonT3.sol\":5587:5653  0x099952b414884454b21200d7ffafdd5f0c9a9dcc06f2708e9fc1d8209b5c75b9 */\n      0x099952b414884454b21200d7ffafdd5f0c9a9dcc06f2708e9fc1d8209b5c75b9\n        /* \"poseidon-solidity/PoseidonT3.sol\":5583:5736  add(0x099952b414884454b21200d7ffafdd5f0c9a9dcc06f2708e9fc1d8209b5c75b9, add(add(mulmod(state0, M02, F), mulmod(state1, M12, F)), mulmod(state2, M22, F))) */\n      add\n        /* \"poseidon-solidity/PoseidonT3.sol\":5571:5736  scratch2 := add(0x099952b414884454b21200d7ffafdd5f0c9a9dcc06f2708e9fc1d8209b5c75b9, add(add(mulmod(state0, M02, F), mulmod(state1, M12, F)), mulmod(state2, M22, F))) */\n      swap2\n      pop\n        /* \"poseidon-solidity/PoseidonT3.sol\":5780:5781  F */\n      dup10\n        /* \"poseidon-solidity/PoseidonT3.sol\":5770:5778  scratch0 */\n      dup5\n        /* \"poseidon-solidity/PoseidonT3.sol\":5760:5768  scratch0 */\n      dup6\n        /* \"poseidon-solidity/PoseidonT3.sol\":5753:5782  mulmod(scratch0, scratch0, F) */\n      mulmod\n        /* \"poseidon-solidity/PoseidonT3.sol\":5743:5782  state0 := mulmod(scratch0, scratch0, F) */\n      swap1\n      pop\n        /* \"poseidon-solidity/PoseidonT3.sol\":5845:5846  F */\n      dup10\n        /* \"poseidon-solidity/PoseidonT3.sol\":5835:5843  scratch0 */\n      dup5\n        /* \"poseidon-solidity/PoseidonT3.sol\":5831:5832  F */\n      dup12\n        /* \"poseidon-solidity/PoseidonT3.sol\":5823:5829  state0 */\n      dup4\n        /* \"poseidon-solidity/PoseidonT3.sol\":5815:5821  state0 */\n      dup5\n        /* \"poseidon-solidity/PoseidonT3.sol\":5808:5833  mulmod(state0, state0, F) */\n      mulmod\n        /* \"poseidon-solidity/PoseidonT3.sol\":5801:5847  mulmod(mulmod(state0, state0, F), scratch0, F) */\n      mulmod\n        /* \"poseidon-solidity/PoseidonT3.sol\":5789:5847  scratch0 := mulmod(mulmod(state0, state0, F), scratch0, F) */\n      swap4\n      pop\n        /* \"poseidon-solidity/PoseidonT3.sol\":6019:6020  F */\n      dup10\n        /* \"poseidon-solidity/PoseidonT3.sol\":6014:6017  M20 */\n      dup10\n        /* \"poseidon-solidity/PoseidonT3.sol\":6004:6012  scratch2 */\n      dup4\n        /* \"poseidon-solidity/PoseidonT3.sol\":5997:6021  mulmod(scratch2, M20, F) */\n      mulmod\n        /* \"poseidon-solidity/PoseidonT3.sol\":5992:5993  F */\n      dup11\n        /* \"poseidon-solidity/PoseidonT3.sol\":5987:5990  M10 */\n      0x16ed41e13bb9c0c66ae119424fddbcbc9314dc9fdbdeea55d6c64543dc4903e0\n        /* \"poseidon-solidity/PoseidonT3.sol\":5977:5985  scratch1 */\n      dup6\n        /* \"poseidon-solidity/PoseidonT3.sol\":5970:5994  mulmod(scratch1, M10, F) */\n      mulmod\n        /* \"poseidon-solidity/PoseidonT3.sol\":5966:5967  F */\n      dup12\n        /* \"poseidon-solidity/PoseidonT3.sol\":5961:5964  M00 */\n      0x109b7f411ba0e4c9b2b70caf5c36a7b194be7c11ad24378bfedb68592ba8118b\n        /* \"poseidon-solidity/PoseidonT3.sol\":5951:5959  scratch0 */\n      dup8\n        /* \"poseidon-solidity/PoseidonT3.sol\":5944:5968  mulmod(scratch0, M00, F) */\n      mulmod\n        /* \"poseidon-solidity/PoseidonT3.sol\":5940:5995  add(mulmod(scratch0, M00, F), mulmod(scratch1, M10, F)) */\n      add\n        /* \"poseidon-solidity/PoseidonT3.sol\":5936:6022  add(add(mulmod(scratch0, M00, F), mulmod(scratch1, M10, F)), mulmod(scratch2, M20, F)) */\n      add\n        /* \"poseidon-solidity/PoseidonT3.sol\":5868:5934  0x052cba2255dfd00c7c483143ba8d469448e43586a9b4cd9183fd0e843a6b9fa6 */\n      0x052cba2255dfd00c7c483143ba8d469448e43586a9b4cd9183fd0e843a6b9fa6\n        /* \"poseidon-solidity/PoseidonT3.sol\":5864:6023  add(0x052cba2255dfd00c7c483143ba8d469448e43586a9b4cd9183fd0e843a6b9fa6, add(add(mulmod(scratch0, M00, F), mulmod(scratch1, M10, F)), mulmod(scratch2, M20, F))) */\n      add\n        /* \"poseidon-solidity/PoseidonT3.sol\":5854:6023  state0 := add(0x052cba2255dfd00c7c483143ba8d469448e43586a9b4cd9183fd0e843a6b9fa6, add(add(mulmod(scratch0, M00, F), mulmod(scratch1, M10, F)), mulmod(scratch2, M20, F))) */\n      swap1\n      pop\n        /* \"poseidon-solidity/PoseidonT3.sol\":6195:6196  F */\n      dup10\n        /* \"poseidon-solidity/PoseidonT3.sol\":6190:6193  M21 */\n      dup9\n        /* \"poseidon-solidity/PoseidonT3.sol\":6180:6188  scratch2 */\n      dup4\n        /* \"poseidon-solidity/PoseidonT3.sol\":6173:6197  mulmod(scratch2, M21, F) */\n      mulmod\n        /* \"poseidon-solidity/PoseidonT3.sol\":6168:6169  F */\n      dup11\n        /* \"poseidon-solidity/PoseidonT3.sol\":6163:6166  M11 */\n      0x2e2419f9ec02ec394c9871c832963dc1b89d743c8c7b964029b2311687b1fe23\n        /* \"poseidon-solidity/PoseidonT3.sol\":6153:6161  scratch1 */\n      dup6\n        /* \"poseidon-solidity/PoseidonT3.sol\":6146:6170  mulmod(scratch1, M11, F) */\n      mulmod\n        /* \"poseidon-solidity/PoseidonT3.sol\":6142:6143  F */\n      dup12\n        /* \"poseidon-solidity/PoseidonT3.sol\":6137:6140  M01 */\n      0x2969f27eed31a480b9c36c764379dbca2cc8fdd1415c3dded62940bcde0bd771\n        /* \"poseidon-solidity/PoseidonT3.sol\":6127:6135  scratch0 */\n      dup8\n        /* \"poseidon-solidity/PoseidonT3.sol\":6120:6144  mulmod(scratch0, M01, F) */\n      mulmod\n        /* \"poseidon-solidity/PoseidonT3.sol\":6116:6171  add(mulmod(scratch0, M01, F), mulmod(scratch1, M11, F)) */\n      add\n        /* \"poseidon-solidity/PoseidonT3.sol\":6112:6198  add(add(mulmod(scratch0, M01, F), mulmod(scratch1, M11, F)), mulmod(scratch2, M21, F)) */\n      add\n        /* \"poseidon-solidity/PoseidonT3.sol\":6044:6110  0x0b8badee690adb8eb0bd74712b7999af82de55707251ad7716077cb93c464ddc */\n      0x0b8badee690adb8eb0bd74712b7999af82de55707251ad7716077cb93c464ddc\n        /* \"poseidon-solidity/PoseidonT3.sol\":6040:6199  add(0x0b8badee690adb8eb0bd74712b7999af82de55707251ad7716077cb93c464ddc, add(add(mulmod(scratch0, M01, F), mulmod(scratch1, M11, F)), mulmod(scratch2, M21, F))) */\n      add\n        /* \"poseidon-solidity/PoseidonT3.sol\":6030:6199  state1 := add(0x0b8badee690adb8eb0bd74712b7999af82de55707251ad7716077cb93c464ddc, add(add(mulmod(scratch0, M01, F), mulmod(scratch1, M11, F)), mulmod(scratch2, M21, F))) */\n      swap6\n      pop\n        /* \"poseidon-solidity/PoseidonT3.sol\":6371:6372  F */\n      dup10\n        /* \"poseidon-solidity/PoseidonT3.sol\":6366:6369  M22 */\n      dup8\n        /* \"poseidon-solidity/PoseidonT3.sol\":6356:6364  scratch2 */\n      dup4\n        /* \"poseidon-solidity/PoseidonT3.sol\":6349:6373  mulmod(scratch2, M22, F) */\n      mulmod\n        /* \"poseidon-solidity/PoseidonT3.sol\":6344:6345  F */\n      dup11\n        /* \"poseidon-solidity/PoseidonT3.sol\":6339:6342  M12 */\n      0x176cc029695ad02582a70eff08a6fd99d057e12e58e7d7b6b16cdfabc8ee2911\n        /* \"poseidon-solidity/PoseidonT3.sol\":6329:6337  scratch1 */\n      dup6\n        /* \"poseidon-solidity/PoseidonT3.sol\":6322:6346  mulmod(scratch1, M12, F) */\n      mulmod\n        /* \"poseidon-solidity/PoseidonT3.sol\":6318:6319  F */\n      dup12\n        /* \"poseidon-solidity/PoseidonT3.sol\":6313:6316  M02 */\n      0x143021ec686a3f330d5f9e654638065ce6cd79e28c5b3753326244ee65a1b1a7\n        /* \"poseidon-solidity/PoseidonT3.sol\":6303:6311  scratch0 */\n      dup8\n        /* \"poseidon-solidity/PoseidonT3.sol\":6296:6320  mulmod(scratch0, M02, F) */\n      mulmod\n        /* \"poseidon-solidity/PoseidonT3.sol\":6292:6347  add(mulmod(scratch0, M02, F), mulmod(scratch1, M12, F)) */\n      add\n        /* \"poseidon-solidity/PoseidonT3.sol\":6288:6374  add(add(mulmod(scratch0, M02, F), mulmod(scratch1, M12, F)), mulmod(scratch2, M22, F)) */\n      add\n        /* \"poseidon-solidity/PoseidonT3.sol\":6220:6286  0x119b1590f13307af5a1ee651020c07c749c15d60683a8050b963d0a8e4b2bdd1 */\n      0x119b1590f13307af5a1ee651020c07c749c15d60683a8050b963d0a8e4b2bdd1\n        /* \"poseidon-solidity/PoseidonT3.sol\":6216:6375  add(0x119b1590f13307af5a1ee651020c07c749c15d60683a8050b963d0a8e4b2bdd1, add(add(mulmod(scratch0, M02, F), mulmod(scratch1, M12, F)), mulmod(scratch2, M22, F))) */\n      add\n        /* \"poseidon-solidity/PoseidonT3.sol\":6206:6375  state2 := add(0x119b1590f13307af5a1ee651020c07c749c15d60683a8050b963d0a8e4b2bdd1, add(add(mulmod(scratch0, M02, F), mulmod(scratch1, M12, F)), mulmod(scratch2, M22, F))) */\n      swap5\n      pop\n        /* \"poseidon-solidity/PoseidonT3.sol\":6417:6418  F */\n      dup10\n        /* \"poseidon-solidity/PoseidonT3.sol\":6409:6415  state0 */\n      dup2\n        /* \"poseidon-solidity/PoseidonT3.sol\":6401:6407  state0 */\n      dup3\n        /* \"poseidon-solidity/PoseidonT3.sol\":6394:6419  mulmod(state0, state0, F) */\n      mulmod\n        /* \"poseidon-solidity/PoseidonT3.sol\":6382:6419  scratch0 := mulmod(state0, state0, F) */\n      swap4\n      pop\n        /* \"poseidon-solidity/PoseidonT3.sol\":6482:6483  F */\n      dup10\n        /* \"poseidon-solidity/PoseidonT3.sol\":6474:6480  state0 */\n      dup2\n        /* \"poseidon-solidity/PoseidonT3.sol\":6470:6471  F */\n      dup12\n        /* \"poseidon-solidity/PoseidonT3.sol\":6460:6468  scratch0 */\n      dup7\n        /* \"poseidon-solidity/PoseidonT3.sol\":6450:6458  scratch0 */\n      dup8\n        /* \"poseidon-solidity/PoseidonT3.sol\":6443:6472  mulmod(scratch0, scratch0, F) */\n      mulmod\n        /* \"poseidon-solidity/PoseidonT3.sol\":6436:6484  mulmod(mulmod(scratch0, scratch0, F), state0, F) */\n      mulmod\n        /* \"poseidon-solidity/PoseidonT3.sol\":6426:6484  state0 := mulmod(mulmod(scratch0, scratch0, F), state0, F) */\n      swap1\n      pop\n        /* \"poseidon-solidity/PoseidonT3.sol\":6652:6653  F */\n      dup10\n        /* \"poseidon-solidity/PoseidonT3.sol\":6647:6650  M20 */\n      dup10\n        /* \"poseidon-solidity/PoseidonT3.sol\":6639:6645  state2 */\n      dup7\n        /* \"poseidon-solidity/PoseidonT3.sol\":6632:6654  mulmod(state2, M20, F) */\n      mulmod\n        /* \"poseidon-solidity/PoseidonT3.sol\":6627:6628  F */\n      dup11\n        /* \"poseidon-solidity/PoseidonT3.sol\":6622:6625  M10 */\n      0x16ed41e13bb9c0c66ae119424fddbcbc9314dc9fdbdeea55d6c64543dc4903e0\n        /* \"poseidon-solidity/PoseidonT3.sol\":6614:6620  state1 */\n      dup9\n        /* \"poseidon-solidity/PoseidonT3.sol\":6607:6629  mulmod(state1, M10, F) */\n      mulmod\n        /* \"poseidon-solidity/PoseidonT3.sol\":6603:6604  F */\n      dup12\n        /* \"poseidon-solidity/PoseidonT3.sol\":6598:6601  M00 */\n      0x109b7f411ba0e4c9b2b70caf5c36a7b194be7c11ad24378bfedb68592ba8118b\n        /* \"poseidon-solidity/PoseidonT3.sol\":6590:6596  state0 */\n      dup5\n        /* \"poseidon-solidity/PoseidonT3.sol\":6583:6605  mulmod(state0, M00, F) */\n      mulmod\n        /* \"poseidon-solidity/PoseidonT3.sol\":6579:6630  add(mulmod(state0, M00, F), mulmod(state1, M10, F)) */\n      add\n        /* \"poseidon-solidity/PoseidonT3.sol\":6575:6655  add(add(mulmod(state0, M00, F), mulmod(state1, M10, F)), mulmod(state2, M20, F)) */\n      add\n        /* \"poseidon-solidity/PoseidonT3.sol\":6507:6573  0x03150b7cd6d5d17b2529d36be0f67b832c4acfc884ef4ee5ce15be0bfb4a8d09 */\n      0x03150b7cd6d5d17b2529d36be0f67b832c4acfc884ef4ee5ce15be0bfb4a8d09\n        /* \"poseidon-solidity/PoseidonT3.sol\":6503:6656  add(0x03150b7cd6d5d17b2529d36be0f67b832c4acfc884ef4ee5ce15be0bfb4a8d09, add(add(mulmod(state0, M00, F), mulmod(state1, M10, F)), mulmod(state2, M20, F))) */\n      add\n        /* \"poseidon-solidity/PoseidonT3.sol\":6491:6656  scratch0 := add(0x03150b7cd6d5d17b2529d36be0f67b832c4acfc884ef4ee5ce15be0bfb4a8d09, add(add(mulmod(state0, M00, F), mulmod(state1, M10, F)), mulmod(state2, M20, F))) */\n      swap4\n      pop\n        /* \"poseidon-solidity/PoseidonT3.sol\":6824:6825  F */\n      dup10\n        /* \"poseidon-solidity/PoseidonT3.sol\":6819:6822  M21 */\n      dup9\n        /* \"poseidon-solidity/PoseidonT3.sol\":6811:6817  state2 */\n      dup7\n        /* \"poseidon-solidity/PoseidonT3.sol\":6804:6826  mulmod(state2, M21, F) */\n      mulmod\n        /* \"poseidon-solidity/PoseidonT3.sol\":6799:6800  F */\n      dup11\n        /* \"poseidon-solidity/PoseidonT3.sol\":6794:6797  M11 */\n      0x2e2419f9ec02ec394c9871c832963dc1b89d743c8c7b964029b2311687b1fe23\n        /* \"poseidon-solidity/PoseidonT3.sol\":6786:6792  state1 */\n      dup9\n        /* \"poseidon-solidity/PoseidonT3.sol\":6779:6801  mulmod(state1, M11, F) */\n      mulmod\n        /* \"poseidon-solidity/PoseidonT3.sol\":6775:6776  F */\n      dup12\n        /* \"poseidon-solidity/PoseidonT3.sol\":6770:6773  M01 */\n      0x2969f27eed31a480b9c36c764379dbca2cc8fdd1415c3dded62940bcde0bd771\n        /* \"poseidon-solidity/PoseidonT3.sol\":6762:6768  state0 */\n      dup5\n        /* \"poseidon-solidity/PoseidonT3.sol\":6755:6777  mulmod(state0, M01, F) */\n      mulmod\n        /* \"poseidon-solidity/PoseidonT3.sol\":6751:6802  add(mulmod(state0, M01, F), mulmod(state1, M11, F)) */\n      add\n        /* \"poseidon-solidity/PoseidonT3.sol\":6747:6827  add(add(mulmod(state0, M01, F), mulmod(state1, M11, F)), mulmod(state2, M21, F)) */\n      add\n        /* \"poseidon-solidity/PoseidonT3.sol\":6679:6745  0x2cc6182c5e14546e3cf1951f173912355374efb83d80898abe69cb317c9ea565 */\n      0x2cc6182c5e14546e3cf1951f173912355374efb83d80898abe69cb317c9ea565\n        /* \"poseidon-solidity/PoseidonT3.sol\":6675:6828  add(0x2cc6182c5e14546e3cf1951f173912355374efb83d80898abe69cb317c9ea565, add(add(mulmod(state0, M01, F), mulmod(state1, M11, F)), mulmod(state2, M21, F))) */\n      add\n        /* \"poseidon-solidity/PoseidonT3.sol\":6663:6828  scratch1 := add(0x2cc6182c5e14546e3cf1951f173912355374efb83d80898abe69cb317c9ea565, add(add(mulmod(state0, M01, F), mulmod(state1, M11, F)), mulmod(state2, M21, F))) */\n      swap3\n      pop\n        /* \"poseidon-solidity/PoseidonT3.sol\":6996:6997  F */\n      dup10\n        /* \"poseidon-solidity/PoseidonT3.sol\":6991:6994  M22 */\n      dup8\n        /* \"poseidon-solidity/PoseidonT3.sol\":6983:6989  state2 */\n      dup7\n        /* \"poseidon-solidity/PoseidonT3.sol\":6976:6998  mulmod(state2, M22, F) */\n      mulmod\n        /* \"poseidon-solidity/PoseidonT3.sol\":6971:6972  F */\n      dup11\n        /* \"poseidon-solidity/PoseidonT3.sol\":6966:6969  M12 */\n      0x176cc029695ad02582a70eff08a6fd99d057e12e58e7d7b6b16cdfabc8ee2911\n        /* \"poseidon-solidity/PoseidonT3.sol\":6958:6964  state1 */\n      dup9\n        /* \"poseidon-solidity/PoseidonT3.sol\":6951:6973  mulmod(state1, M12, F) */\n      mulmod\n        /* \"poseidon-solidity/PoseidonT3.sol\":6947:6948  F */\n      dup12\n        /* \"poseidon-solidity/PoseidonT3.sol\":6942:6945  M02 */\n      0x143021ec686a3f330d5f9e654638065ce6cd79e28c5b3753326244ee65a1b1a7\n        /* \"poseidon-solidity/PoseidonT3.sol\":6934:6940  state0 */\n      dup5\n        /* \"poseidon-solidity/PoseidonT3.sol\":6927:6949  mulmod(state0, M02, F) */\n      mulmod\n        /* \"poseidon-solidity/PoseidonT3.sol\":6923:6974  add(mulmod(state0, M02, F), mulmod(state1, M12, F)) */\n      add\n        /* \"poseidon-solidity/PoseidonT3.sol\":6919:6999  add(add(mulmod(state0, M02, F), mulmod(state1, M12, F)), mulmod(state2, M22, F)) */\n      add\n        /* \"poseidon-solidity/PoseidonT3.sol\":6851:6917  0x005032551e6378c450cfe129a404b3764218cadedac14e2b92d2cd73111bf0f9 */\n      0x5032551e6378c450cfe129a404b3764218cadedac14e2b92d2cd73111bf0f9\n        /* \"poseidon-solidity/PoseidonT3.sol\":6847:7000  add(0x005032551e6378c450cfe129a404b3764218cadedac14e2b92d2cd73111bf0f9, add(add(mulmod(state0, M02, F), mulmod(state1, M12, F)), mulmod(state2, M22, F))) */\n      add\n        /* \"poseidon-solidity/PoseidonT3.sol\":6835:7000  scratch2 := add(0x005032551e6378c450cfe129a404b3764218cadedac14e2b92d2cd73111bf0f9, add(add(mulmod(state0, M02, F), mulmod(state1, M12, F)), mulmod(state2, M22, F))) */\n      swap2\n      pop\n        /* \"poseidon-solidity/PoseidonT3.sol\":7044:7045  F */\n      dup10\n        /* \"poseidon-solidity/PoseidonT3.sol\":7034:7042  scratch0 */\n      dup5\n        /* \"poseidon-solidity/PoseidonT3.sol\":7024:7032  scratch0 */\n      dup6\n        /* \"poseidon-solidity/PoseidonT3.sol\":7017:7046  mulmod(scratch0, scratch0, F) */\n      mulmod\n        /* \"poseidon-solidity/PoseidonT3.sol\":7007:7046  state0 := mulmod(scratch0, scratch0, F) */\n      swap1\n      pop\n        /* \"poseidon-solidity/PoseidonT3.sol\":7109:7110  F */\n      dup10\n        /* \"poseidon-solidity/PoseidonT3.sol\":7099:7107  scratch0 */\n      dup5\n        /* \"poseidon-solidity/PoseidonT3.sol\":7095:7096  F */\n      dup12\n        /* \"poseidon-solidity/PoseidonT3.sol\":7087:7093  state0 */\n      dup4\n        /* \"poseidon-solidity/PoseidonT3.sol\":7079:7085  state0 */\n      dup5\n        /* \"poseidon-solidity/PoseidonT3.sol\":7072:7097  mulmod(state0, state0, F) */\n      mulmod\n        /* \"poseidon-solidity/PoseidonT3.sol\":7065:7111  mulmod(mulmod(state0, state0, F), scratch0, F) */\n      mulmod\n        /* \"poseidon-solidity/PoseidonT3.sol\":7053:7111  scratch0 := mulmod(mulmod(state0, state0, F), scratch0, F) */\n      swap4\n      pop\n        /* \"poseidon-solidity/PoseidonT3.sol\":7283:7284  F */\n      dup10\n        /* \"poseidon-solidity/PoseidonT3.sol\":7278:7281  M20 */\n      dup10\n        /* \"poseidon-solidity/PoseidonT3.sol\":7268:7276  scratch2 */\n      dup4\n        /* \"poseidon-solidity/PoseidonT3.sol\":7261:7285  mulmod(scratch2, M20, F) */\n      mulmod\n        /* \"poseidon-solidity/PoseidonT3.sol\":7256:7257  F */\n      dup11\n        /* \"poseidon-solidity/PoseidonT3.sol\":7251:7254  M10 */\n      0x16ed41e13bb9c0c66ae119424fddbcbc9314dc9fdbdeea55d6c64543dc4903e0\n        /* \"poseidon-solidity/PoseidonT3.sol\":7241:7249  scratch1 */\n      dup6\n        /* \"poseidon-solidity/PoseidonT3.sol\":7234:7258  mulmod(scratch1, M10, F) */\n      mulmod\n        /* \"poseidon-solidity/PoseidonT3.sol\":7230:7231  F */\n      dup12\n        /* \"poseidon-solidity/PoseidonT3.sol\":7225:7228  M00 */\n      0x109b7f411ba0e4c9b2b70caf5c36a7b194be7c11ad24378bfedb68592ba8118b\n        /* \"poseidon-solidity/PoseidonT3.sol\":7215:7223  scratch0 */\n      dup8\n        /* \"poseidon-solidity/PoseidonT3.sol\":7208:7232  mulmod(scratch0, M00, F) */\n      mulmod\n        /* \"poseidon-solidity/PoseidonT3.sol\":7204:7259  add(mulmod(scratch0, M00, F), mulmod(scratch1, M10, F)) */\n      add\n        /* \"poseidon-solidity/PoseidonT3.sol\":7200:7286  add(add(mulmod(scratch0, M00, F), mulmod(scratch1, M10, F)), mulmod(scratch2, M20, F)) */\n      add\n        /* \"poseidon-solidity/PoseidonT3.sol\":7132:7198  0x233237e3289baa34bb147e972ebcb9516469c399fcc069fb88f9da2cc28276b5 */\n      0x233237e3289baa34bb147e972ebcb9516469c399fcc069fb88f9da2cc28276b5\n        /* \"poseidon-solidity/PoseidonT3.sol\":7128:7287  add(0x233237e3289baa34bb147e972ebcb9516469c399fcc069fb88f9da2cc28276b5, add(add(mulmod(scratch0, M00, F), mulmod(scratch1, M10, F)), mulmod(scratch2, M20, F))) */\n      add\n        /* \"poseidon-solidity/PoseidonT3.sol\":7118:7287  state0 := add(0x233237e3289baa34bb147e972ebcb9516469c399fcc069fb88f9da2cc28276b5, add(add(mulmod(scratch0, M00, F), mulmod(scratch1, M10, F)), mulmod(scratch2, M20, F))) */\n      swap1\n      pop\n        /* \"poseidon-solidity/PoseidonT3.sol\":7459:7460  F */\n      dup10\n        /* \"poseidon-solidity/PoseidonT3.sol\":7454:7457  M21 */\n      dup9\n        /* \"poseidon-solidity/PoseidonT3.sol\":7444:7452  scratch2 */\n      dup4\n        /* \"poseidon-solidity/PoseidonT3.sol\":7437:7461  mulmod(scratch2, M21, F) */\n      mulmod\n        /* \"poseidon-solidity/PoseidonT3.sol\":7432:7433  F */\n      dup11\n        /* \"poseidon-solidity/PoseidonT3.sol\":7427:7430  M11 */\n      0x2e2419f9ec02ec394c9871c832963dc1b89d743c8c7b964029b2311687b1fe23\n        /* \"poseidon-solidity/PoseidonT3.sol\":7417:7425  scratch1 */\n      dup6\n        /* \"poseidon-solidity/PoseidonT3.sol\":7410:7434  mulmod(scratch1, M11, F) */\n      mulmod\n        /* \"poseidon-solidity/PoseidonT3.sol\":7406:7407  F */\n      dup12\n        /* \"poseidon-solidity/PoseidonT3.sol\":7401:7404  M01 */\n      0x2969f27eed31a480b9c36c764379dbca2cc8fdd1415c3dded62940bcde0bd771\n        /* \"poseidon-solidity/PoseidonT3.sol\":7391:7399  scratch0 */\n      dup8\n        /* \"poseidon-solidity/PoseidonT3.sol\":7384:7408  mulmod(scratch0, M01, F) */\n      mulmod\n        /* \"poseidon-solidity/PoseidonT3.sol\":7380:7435  add(mulmod(scratch0, M01, F), mulmod(scratch1, M11, F)) */\n      add\n        /* \"poseidon-solidity/PoseidonT3.sol\":7376:7462  add(add(mulmod(scratch0, M01, F), mulmod(scratch1, M11, F)), mulmod(scratch2, M21, F)) */\n      add\n        /* \"poseidon-solidity/PoseidonT3.sol\":7308:7374  0x05c8f4f4ebd4a6e3c980d31674bfbe6323037f21b34ae5a4e80c2d4c24d60280 */\n      0x05c8f4f4ebd4a6e3c980d31674bfbe6323037f21b34ae5a4e80c2d4c24d60280\n        /* \"poseidon-solidity/PoseidonT3.sol\":7304:7463  add(0x05c8f4f4ebd4a6e3c980d31674bfbe6323037f21b34ae5a4e80c2d4c24d60280, add(add(mulmod(scratch0, M01, F), mulmod(scratch1, M11, F)), mulmod(scratch2, M21, F))) */\n      add\n        /* \"poseidon-solidity/PoseidonT3.sol\":7294:7463  state1 := add(0x05c8f4f4ebd4a6e3c980d31674bfbe6323037f21b34ae5a4e80c2d4c24d60280, add(add(mulmod(scratch0, M01, F), mulmod(scratch1, M11, F)), mulmod(scratch2, M21, F))) */\n      swap6\n      pop\n        /* \"poseidon-solidity/PoseidonT3.sol\":7635:7636  F */\n      dup10\n        /* \"poseidon-solidity/PoseidonT3.sol\":7630:7633  M22 */\n      dup8\n        /* \"poseidon-solidity/PoseidonT3.sol\":7620:7628  scratch2 */\n      dup4\n        /* \"poseidon-solidity/PoseidonT3.sol\":7613:7637  mulmod(scratch2, M22, F) */\n      mulmod\n        /* \"poseidon-solidity/PoseidonT3.sol\":7608:7609  F */\n      dup11\n        /* \"poseidon-solidity/PoseidonT3.sol\":7603:7606  M12 */\n      0x176cc029695ad02582a70eff08a6fd99d057e12e58e7d7b6b16cdfabc8ee2911\n        /* \"poseidon-solidity/PoseidonT3.sol\":7593:7601  scratch1 */\n      dup6\n        /* \"poseidon-solidity/PoseidonT3.sol\":7586:7610  mulmod(scratch1, M12, F) */\n      mulmod\n        /* \"poseidon-solidity/PoseidonT3.sol\":7582:7583  F */\n      dup12\n        /* \"poseidon-solidity/PoseidonT3.sol\":7577:7580  M02 */\n      0x143021ec686a3f330d5f9e654638065ce6cd79e28c5b3753326244ee65a1b1a7\n        /* \"poseidon-solidity/PoseidonT3.sol\":7567:7575  scratch0 */\n      dup8\n        /* \"poseidon-solidity/PoseidonT3.sol\":7560:7584  mulmod(scratch0, M02, F) */\n      mulmod\n        /* \"poseidon-solidity/PoseidonT3.sol\":7556:7611  add(mulmod(scratch0, M02, F), mulmod(scratch1, M12, F)) */\n      add\n        /* \"poseidon-solidity/PoseidonT3.sol\":7552:7638  add(add(mulmod(scratch0, M02, F), mulmod(scratch1, M12, F)), mulmod(scratch2, M22, F)) */\n      add\n        /* \"poseidon-solidity/PoseidonT3.sol\":7484:7550  0x0a7b1db13042d396ba05d818a319f25252bcf35ef3aeed91ee1f09b2590fc65b */\n      0x0a7b1db13042d396ba05d818a319f25252bcf35ef3aeed91ee1f09b2590fc65b\n        /* \"poseidon-solidity/PoseidonT3.sol\":7480:7639  add(0x0a7b1db13042d396ba05d818a319f25252bcf35ef3aeed91ee1f09b2590fc65b, add(add(mulmod(scratch0, M02, F), mulmod(scratch1, M12, F)), mulmod(scratch2, M22, F))) */\n      add\n        /* \"poseidon-solidity/PoseidonT3.sol\":7470:7639  state2 := add(0x0a7b1db13042d396ba05d818a319f25252bcf35ef3aeed91ee1f09b2590fc65b, add(add(mulmod(scratch0, M02, F), mulmod(scratch1, M12, F)), mulmod(scratch2, M22, F))) */\n      swap5\n      pop\n        /* \"poseidon-solidity/PoseidonT3.sol\":7681:7682  F */\n      dup10\n        /* \"poseidon-solidity/PoseidonT3.sol\":7673:7679  state0 */\n      dup2\n        /* \"poseidon-solidity/PoseidonT3.sol\":7665:7671  state0 */\n      dup3\n        /* \"poseidon-solidity/PoseidonT3.sol\":7658:7683  mulmod(state0, state0, F) */\n      mulmod\n        /* \"poseidon-solidity/PoseidonT3.sol\":7646:7683  scratch0 := mulmod(state0, state0, F) */\n      swap4\n      pop\n        /* \"poseidon-solidity/PoseidonT3.sol\":7746:7747  F */\n      dup10\n        /* \"poseidon-solidity/PoseidonT3.sol\":7738:7744  state0 */\n      dup2\n        /* \"poseidon-solidity/PoseidonT3.sol\":7734:7735  F */\n      dup12\n        /* \"poseidon-solidity/PoseidonT3.sol\":7724:7732  scratch0 */\n      dup7\n        /* \"poseidon-solidity/PoseidonT3.sol\":7714:7722  scratch0 */\n      dup8\n        /* \"poseidon-solidity/PoseidonT3.sol\":7707:7736  mulmod(scratch0, scratch0, F) */\n      mulmod\n        /* \"poseidon-solidity/PoseidonT3.sol\":7700:7748  mulmod(mulmod(scratch0, scratch0, F), state0, F) */\n      mulmod\n        /* \"poseidon-solidity/PoseidonT3.sol\":7690:7748  state0 := mulmod(mulmod(scratch0, scratch0, F), state0, F) */\n      swap1\n      pop\n        /* \"poseidon-solidity/PoseidonT3.sol\":7916:7917  F */\n      dup10\n        /* \"poseidon-solidity/PoseidonT3.sol\":7911:7914  M20 */\n      dup10\n        /* \"poseidon-solidity/PoseidonT3.sol\":7903:7909  state2 */\n      dup7\n        /* \"poseidon-solidity/PoseidonT3.sol\":7896:7918  mulmod(state2, M20, F) */\n      mulmod\n        /* \"poseidon-solidity/PoseidonT3.sol\":7891:7892  F */\n      dup11\n        /* \"poseidon-solidity/PoseidonT3.sol\":7886:7889  M10 */\n      0x16ed41e13bb9c0c66ae119424fddbcbc9314dc9fdbdeea55d6c64543dc4903e0\n        /* \"poseidon-solidity/PoseidonT3.sol\":7878:7884  state1 */\n      dup9\n        /* \"poseidon-solidity/PoseidonT3.sol\":7871:7893  mulmod(state1, M10, F) */\n      mulmod\n        /* \"poseidon-solidity/PoseidonT3.sol\":7867:7868  F */\n      dup12\n        /* \"poseidon-solidity/PoseidonT3.sol\":7862:7865  M00 */\n      0x109b7f411ba0e4c9b2b70caf5c36a7b194be7c11ad24378bfedb68592ba8118b\n        /* \"poseidon-solidity/PoseidonT3.sol\":7854:7860  state0 */\n      dup5\n        /* \"poseidon-solidity/PoseidonT3.sol\":7847:7869  mulmod(state0, M00, F) */\n      mulmod\n        /* \"poseidon-solidity/PoseidonT3.sol\":7843:7894  add(mulmod(state0, M00, F), mulmod(state1, M10, F)) */\n      add\n        /* \"poseidon-solidity/PoseidonT3.sol\":7839:7919  add(add(mulmod(state0, M00, F), mulmod(state1, M10, F)), mulmod(state2, M20, F)) */\n      add\n        /* \"poseidon-solidity/PoseidonT3.sol\":7771:7837  0x2a73b71f9b210cf5b14296572c9d32dbf156e2b086ff47dc5df542365a404ec0 */\n      0x2a73b71f9b210cf5b14296572c9d32dbf156e2b086ff47dc5df542365a404ec0\n        /* \"poseidon-solidity/PoseidonT3.sol\":7767:7920  add(0x2a73b71f9b210cf5b14296572c9d32dbf156e2b086ff47dc5df542365a404ec0, add(add(mulmod(state0, M00, F), mulmod(state1, M10, F)), mulmod(state2, M20, F))) */\n      add\n        /* \"poseidon-solidity/PoseidonT3.sol\":7755:7920  scratch0 := add(0x2a73b71f9b210cf5b14296572c9d32dbf156e2b086ff47dc5df542365a404ec0, add(add(mulmod(state0, M00, F), mulmod(state1, M10, F)), mulmod(state2, M20, F))) */\n      swap4\n      pop\n        /* \"poseidon-solidity/PoseidonT3.sol\":8088:8089  F */\n      dup10\n        /* \"poseidon-solidity/PoseidonT3.sol\":8083:8086  M21 */\n      dup9\n        /* \"poseidon-solidity/PoseidonT3.sol\":8075:8081  state2 */\n      dup7\n        /* \"poseidon-solidity/PoseidonT3.sol\":8068:8090  mulmod(state2, M21, F) */\n      mulmod\n        /* \"poseidon-solidity/PoseidonT3.sol\":8063:8064  F */\n      dup11\n        /* \"poseidon-solidity/PoseidonT3.sol\":8058:8061  M11 */\n      0x2e2419f9ec02ec394c9871c832963dc1b89d743c8c7b964029b2311687b1fe23\n        /* \"poseidon-solidity/PoseidonT3.sol\":8050:8056  state1 */\n      dup9\n        /* \"poseidon-solidity/PoseidonT3.sol\":8043:8065  mulmod(state1, M11, F) */\n      mulmod\n        /* \"poseidon-solidity/PoseidonT3.sol\":8039:8040  F */\n      dup12\n        /* \"poseidon-solidity/PoseidonT3.sol\":8034:8037  M01 */\n      0x2969f27eed31a480b9c36c764379dbca2cc8fdd1415c3dded62940bcde0bd771\n        /* \"poseidon-solidity/PoseidonT3.sol\":8026:8032  state0 */\n      dup5\n        /* \"poseidon-solidity/PoseidonT3.sol\":8019:8041  mulmod(state0, M01, F) */\n      mulmod\n        /* \"poseidon-solidity/PoseidonT3.sol\":8015:8066  add(mulmod(state0, M01, F), mulmod(state1, M11, F)) */\n      add\n        /* \"poseidon-solidity/PoseidonT3.sol\":8011:8091  add(add(mulmod(state0, M01, F), mulmod(state1, M11, F)), mulmod(state2, M21, F)) */\n      add\n        /* \"poseidon-solidity/PoseidonT3.sol\":7943:8009  0x1ac9b0417abcc9a1935107e9ffc91dc3ec18f2c4dbe7f22976a760bb5c50c460 */\n      0x1ac9b0417abcc9a1935107e9ffc91dc3ec18f2c4dbe7f22976a760bb5c50c460\n        /* \"poseidon-solidity/PoseidonT3.sol\":7939:8092  add(0x1ac9b0417abcc9a1935107e9ffc91dc3ec18f2c4dbe7f22976a760bb5c50c460, add(add(mulmod(state0, M01, F), mulmod(state1, M11, F)), mulmod(state2, M21, F))) */\n      add\n        /* \"poseidon-solidity/PoseidonT3.sol\":7927:8092  scratch1 := add(0x1ac9b0417abcc9a1935107e9ffc91dc3ec18f2c4dbe7f22976a760bb5c50c460, add(add(mulmod(state0, M01, F), mulmod(state1, M11, F)), mulmod(state2, M21, F))) */\n      swap3\n      pop\n        /* \"poseidon-solidity/PoseidonT3.sol\":8260:8261  F */\n      dup10\n        /* \"poseidon-solidity/PoseidonT3.sol\":8255:8258  M22 */\n      dup8\n        /* \"poseidon-solidity/PoseidonT3.sol\":8247:8253  state2 */\n      dup7\n        /* \"poseidon-solidity/PoseidonT3.sol\":8240:8262  mulmod(state2, M22, F) */\n      mulmod\n        /* \"poseidon-solidity/PoseidonT3.sol\":8235:8236  F */\n      dup11\n        /* \"poseidon-solidity/PoseidonT3.sol\":8230:8233  M12 */\n      0x176cc029695ad02582a70eff08a6fd99d057e12e58e7d7b6b16cdfabc8ee2911\n        /* \"poseidon-solidity/PoseidonT3.sol\":8222:8228  state1 */\n      dup9\n        /* \"poseidon-solidity/PoseidonT3.sol\":8215:8237  mulmod(state1, M12, F) */\n      mulmod\n        /* \"poseidon-solidity/PoseidonT3.sol\":8211:8212  F */\n      dup12\n        /* \"poseidon-solidity/PoseidonT3.sol\":8206:8209  M02 */\n      0x143021ec686a3f330d5f9e654638065ce6cd79e28c5b3753326244ee65a1b1a7\n        /* \"poseidon-solidity/PoseidonT3.sol\":8198:8204  state0 */\n      dup5\n        /* \"poseidon-solidity/PoseidonT3.sol\":8191:8213  mulmod(state0, M02, F) */\n      mulmod\n        /* \"poseidon-solidity/PoseidonT3.sol\":8187:8238  add(mulmod(state0, M02, F), mulmod(state1, M12, F)) */\n      add\n        /* \"poseidon-solidity/PoseidonT3.sol\":8183:8263  add(add(mulmod(state0, M02, F), mulmod(state1, M12, F)), mulmod(state2, M22, F)) */\n      add\n        /* \"poseidon-solidity/PoseidonT3.sol\":8115:8181  0x12c0339ae08374823fabb076707ef479269f3e4d6cb104349015ee046dc93fc0 */\n      0x12c0339ae08374823fabb076707ef479269f3e4d6cb104349015ee046dc93fc0\n        /* \"poseidon-solidity/PoseidonT3.sol\":8111:8264  add(0x12c0339ae08374823fabb076707ef479269f3e4d6cb104349015ee046dc93fc0, add(add(mulmod(state0, M02, F), mulmod(state1, M12, F)), mulmod(state2, M22, F))) */\n      add\n        /* \"poseidon-solidity/PoseidonT3.sol\":8099:8264  scratch2 := add(0x12c0339ae08374823fabb076707ef479269f3e4d6cb104349015ee046dc93fc0, add(add(mulmod(state0, M02, F), mulmod(state1, M12, F)), mulmod(state2, M22, F))) */\n      swap2\n      pop\n        /* \"poseidon-solidity/PoseidonT3.sol\":8308:8309  F */\n      dup10\n        /* \"poseidon-solidity/PoseidonT3.sol\":8298:8306  scratch0 */\n      dup5\n        /* \"poseidon-solidity/PoseidonT3.sol\":8288:8296  scratch0 */\n      dup6\n        /* \"poseidon-solidity/PoseidonT3.sol\":8281:8310  mulmod(scratch0, scratch0, F) */\n      mulmod\n        /* \"poseidon-solidity/PoseidonT3.sol\":8271:8310  state0 := mulmod(scratch0, scratch0, F) */\n      swap1\n      pop\n        /* \"poseidon-solidity/PoseidonT3.sol\":8373:8374  F */\n      dup10\n        /* \"poseidon-solidity/PoseidonT3.sol\":8363:8371  scratch0 */\n      dup5\n        /* \"poseidon-solidity/PoseidonT3.sol\":8359:8360  F */\n      dup12\n        /* \"poseidon-solidity/PoseidonT3.sol\":8351:8357  state0 */\n      dup4\n        /* \"poseidon-solidity/PoseidonT3.sol\":8343:8349  state0 */\n      dup5\n        /* \"poseidon-solidity/PoseidonT3.sol\":8336:8361  mulmod(state0, state0, F) */\n      mulmod\n        /* \"poseidon-solidity/PoseidonT3.sol\":8329:8375  mulmod(mulmod(state0, state0, F), scratch0, F) */\n      mulmod\n        /* \"poseidon-solidity/PoseidonT3.sol\":8317:8375  scratch0 := mulmod(mulmod(state0, state0, F), scratch0, F) */\n      swap4\n      pop\n        /* \"poseidon-solidity/PoseidonT3.sol\":8547:8548  F */\n      dup10\n        /* \"poseidon-solidity/PoseidonT3.sol\":8542:8545  M20 */\n      dup10\n        /* \"poseidon-solidity/PoseidonT3.sol\":8532:8540  scratch2 */\n      dup4\n        /* \"poseidon-solidity/PoseidonT3.sol\":8525:8549  mulmod(scratch2, M20, F) */\n      mulmod\n        /* \"poseidon-solidity/PoseidonT3.sol\":8520:8521  F */\n      dup11\n        /* \"poseidon-solidity/PoseidonT3.sol\":8515:8518  M10 */\n      0x16ed41e13bb9c0c66ae119424fddbcbc9314dc9fdbdeea55d6c64543dc4903e0\n        /* \"poseidon-solidity/PoseidonT3.sol\":8505:8513  scratch1 */\n      dup6\n        /* \"poseidon-solidity/PoseidonT3.sol\":8498:8522  mulmod(scratch1, M10, F) */\n      mulmod\n        /* \"poseidon-solidity/PoseidonT3.sol\":8494:8495  F */\n      dup12\n        /* \"poseidon-solidity/PoseidonT3.sol\":8489:8492  M00 */\n      0x109b7f411ba0e4c9b2b70caf5c36a7b194be7c11ad24378bfedb68592ba8118b\n        /* \"poseidon-solidity/PoseidonT3.sol\":8479:8487  scratch0 */\n      dup8\n        /* \"poseidon-solidity/PoseidonT3.sol\":8472:8496  mulmod(scratch0, M00, F) */\n      mulmod\n        /* \"poseidon-solidity/PoseidonT3.sol\":8468:8523  add(mulmod(scratch0, M00, F), mulmod(scratch1, M10, F)) */\n      add\n        /* \"poseidon-solidity/PoseidonT3.sol\":8464:8550  add(add(mulmod(scratch0, M00, F), mulmod(scratch1, M10, F)), mulmod(scratch2, M20, F)) */\n      add\n        /* \"poseidon-solidity/PoseidonT3.sol\":8396:8462  0x0b7475b102a165ad7f5b18db4e1e704f52900aa3253baac68246682e56e9a28e */\n      0x0b7475b102a165ad7f5b18db4e1e704f52900aa3253baac68246682e56e9a28e\n        /* \"poseidon-solidity/PoseidonT3.sol\":8392:8551  add(0x0b7475b102a165ad7f5b18db4e1e704f52900aa3253baac68246682e56e9a28e, add(add(mulmod(scratch0, M00, F), mulmod(scratch1, M10, F)), mulmod(scratch2, M20, F))) */\n      add\n        /* \"poseidon-solidity/PoseidonT3.sol\":8382:8551  state0 := add(0x0b7475b102a165ad7f5b18db4e1e704f52900aa3253baac68246682e56e9a28e, add(add(mulmod(scratch0, M00, F), mulmod(scratch1, M10, F)), mulmod(scratch2, M20, F))) */\n      swap1\n      pop\n        /* \"poseidon-solidity/PoseidonT3.sol\":8723:8724  F */\n      dup10\n        /* \"poseidon-solidity/PoseidonT3.sol\":8718:8721  M21 */\n      dup9\n        /* \"poseidon-solidity/PoseidonT3.sol\":8708:8716  scratch2 */\n      dup4\n        /* \"poseidon-solidity/PoseidonT3.sol\":8701:8725  mulmod(scratch2, M21, F) */\n      mulmod\n        /* \"poseidon-solidity/PoseidonT3.sol\":8696:8697  F */\n      dup11\n        /* \"poseidon-solidity/PoseidonT3.sol\":8691:8694  M11 */\n      0x2e2419f9ec02ec394c9871c832963dc1b89d743c8c7b964029b2311687b1fe23\n        /* \"poseidon-solidity/PoseidonT3.sol\":8681:8689  scratch1 */\n      dup6\n        /* \"poseidon-solidity/PoseidonT3.sol\":8674:8698  mulmod(scratch1, M11, F) */\n      mulmod\n        /* \"poseidon-solidity/PoseidonT3.sol\":8670:8671  F */\n      dup12\n        /* \"poseidon-solidity/PoseidonT3.sol\":8665:8668  M01 */\n      0x2969f27eed31a480b9c36c764379dbca2cc8fdd1415c3dded62940bcde0bd771\n        /* \"poseidon-solidity/PoseidonT3.sol\":8655:8663  scratch0 */\n      dup8\n        /* \"poseidon-solidity/PoseidonT3.sol\":8648:8672  mulmod(scratch0, M01, F) */\n      mulmod\n        /* \"poseidon-solidity/PoseidonT3.sol\":8644:8699  add(mulmod(scratch0, M01, F), mulmod(scratch1, M11, F)) */\n      add\n        /* \"poseidon-solidity/PoseidonT3.sol\":8640:8726  add(add(mulmod(scratch0, M01, F), mulmod(scratch1, M11, F)), mulmod(scratch2, M21, F)) */\n      add\n        /* \"poseidon-solidity/PoseidonT3.sol\":8572:8638  0x037c2849e191ca3edb1c5e49f6e8b8917c843e379366f2ea32ab3aa88d7f8448 */\n      0x037c2849e191ca3edb1c5e49f6e8b8917c843e379366f2ea32ab3aa88d7f8448\n        /* \"poseidon-solidity/PoseidonT3.sol\":8568:8727  add(0x037c2849e191ca3edb1c5e49f6e8b8917c843e379366f2ea32ab3aa88d7f8448, add(add(mulmod(scratch0, M01, F), mulmod(scratch1, M11, F)), mulmod(scratch2, M21, F))) */\n      add\n        /* \"poseidon-solidity/PoseidonT3.sol\":8558:8727  state1 := add(0x037c2849e191ca3edb1c5e49f6e8b8917c843e379366f2ea32ab3aa88d7f8448, add(add(mulmod(scratch0, M01, F), mulmod(scratch1, M11, F)), mulmod(scratch2, M21, F))) */\n      swap6\n      pop\n        /* \"poseidon-solidity/PoseidonT3.sol\":8899:8900  F */\n      dup10\n        /* \"poseidon-solidity/PoseidonT3.sol\":8894:8897  M22 */\n      dup8\n        /* \"poseidon-solidity/PoseidonT3.sol\":8884:8892  scratch2 */\n      dup4\n        /* \"poseidon-solidity/PoseidonT3.sol\":8877:8901  mulmod(scratch2, M22, F) */\n      mulmod\n        /* \"poseidon-solidity/PoseidonT3.sol\":8872:8873  F */\n      dup11\n        /* \"poseidon-solidity/PoseidonT3.sol\":8867:8870  M12 */\n      0x176cc029695ad02582a70eff08a6fd99d057e12e58e7d7b6b16cdfabc8ee2911\n        /* \"poseidon-solidity/PoseidonT3.sol\":8857:8865  scratch1 */\n      dup6\n        /* \"poseidon-solidity/PoseidonT3.sol\":8850:8874  mulmod(scratch1, M12, F) */\n      mulmod\n        /* \"poseidon-solidity/PoseidonT3.sol\":8846:8847  F */\n      dup12\n        /* \"poseidon-solidity/PoseidonT3.sol\":8841:8844  M02 */\n      0x143021ec686a3f330d5f9e654638065ce6cd79e28c5b3753326244ee65a1b1a7\n        /* \"poseidon-solidity/PoseidonT3.sol\":8831:8839  scratch0 */\n      dup8\n        /* \"poseidon-solidity/PoseidonT3.sol\":8824:8848  mulmod(scratch0, M02, F) */\n      mulmod\n        /* \"poseidon-solidity/PoseidonT3.sol\":8820:8875  add(mulmod(scratch0, M02, F), mulmod(scratch1, M12, F)) */\n      add\n        /* \"poseidon-solidity/PoseidonT3.sol\":8816:8902  add(add(mulmod(scratch0, M02, F), mulmod(scratch1, M12, F)), mulmod(scratch2, M22, F)) */\n      add\n        /* \"poseidon-solidity/PoseidonT3.sol\":8748:8814  0x05a6811f8556f014e92674661e217e9bd5206c5c93a07dc145fdb176a716346f */\n      0x05a6811f8556f014e92674661e217e9bd5206c5c93a07dc145fdb176a716346f\n        /* \"poseidon-solidity/PoseidonT3.sol\":8744:8903  add(0x05a6811f8556f014e92674661e217e9bd5206c5c93a07dc145fdb176a716346f, add(add(mulmod(scratch0, M02, F), mulmod(scratch1, M12, F)), mulmod(scratch2, M22, F))) */\n      add\n        /* \"poseidon-solidity/PoseidonT3.sol\":8734:8903  state2 := add(0x05a6811f8556f014e92674661e217e9bd5206c5c93a07dc145fdb176a716346f, add(add(mulmod(scratch0, M02, F), mulmod(scratch1, M12, F)), mulmod(scratch2, M22, F))) */\n      swap5\n      pop\n        /* \"poseidon-solidity/PoseidonT3.sol\":8945:8946  F */\n      dup10\n        /* \"poseidon-solidity/PoseidonT3.sol\":8937:8943  state0 */\n      dup2\n        /* \"poseidon-solidity/PoseidonT3.sol\":8929:8935  state0 */\n      dup3\n        /* \"poseidon-solidity/PoseidonT3.sol\":8922:8947  mulmod(state0, state0, F) */\n      mulmod\n        /* \"poseidon-solidity/PoseidonT3.sol\":8910:8947  scratch0 := mulmod(state0, state0, F) */\n      swap4\n      pop\n        /* \"poseidon-solidity/PoseidonT3.sol\":9010:9011  F */\n      dup10\n        /* \"poseidon-solidity/PoseidonT3.sol\":9002:9008  state0 */\n      dup2\n        /* \"poseidon-solidity/PoseidonT3.sol\":8998:8999  F */\n      dup12\n        /* \"poseidon-solidity/PoseidonT3.sol\":8988:8996  scratch0 */\n      dup7\n        /* \"poseidon-solidity/PoseidonT3.sol\":8978:8986  scratch0 */\n      dup8\n        /* \"poseidon-solidity/PoseidonT3.sol\":8971:9000  mulmod(scratch0, scratch0, F) */\n      mulmod\n        /* \"poseidon-solidity/PoseidonT3.sol\":8964:9012  mulmod(mulmod(scratch0, scratch0, F), state0, F) */\n      mulmod\n        /* \"poseidon-solidity/PoseidonT3.sol\":8954:9012  state0 := mulmod(mulmod(scratch0, scratch0, F), state0, F) */\n      swap1\n      pop\n        /* \"poseidon-solidity/PoseidonT3.sol\":9180:9181  F */\n      dup10\n        /* \"poseidon-solidity/PoseidonT3.sol\":9175:9178  M20 */\n      dup10\n        /* \"poseidon-solidity/PoseidonT3.sol\":9167:9173  state2 */\n      dup7\n        /* \"poseidon-solidity/PoseidonT3.sol\":9160:9182  mulmod(state2, M20, F) */\n      mulmod\n        /* \"poseidon-solidity/PoseidonT3.sol\":9155:9156  F */\n      dup11\n        /* \"poseidon-solidity/PoseidonT3.sol\":9150:9153  M10 */\n      0x16ed41e13bb9c0c66ae119424fddbcbc9314dc9fdbdeea55d6c64543dc4903e0\n        /* \"poseidon-solidity/PoseidonT3.sol\":9142:9148  state1 */\n      dup9\n        /* \"poseidon-solidity/PoseidonT3.sol\":9135:9157  mulmod(state1, M10, F) */\n      mulmod\n        /* \"poseidon-solidity/PoseidonT3.sol\":9131:9132  F */\n      dup12\n        /* \"poseidon-solidity/PoseidonT3.sol\":9126:9129  M00 */\n      0x109b7f411ba0e4c9b2b70caf5c36a7b194be7c11ad24378bfedb68592ba8118b\n        /* \"poseidon-solidity/PoseidonT3.sol\":9118:9124  state0 */\n      dup5\n        /* \"poseidon-solidity/PoseidonT3.sol\":9111:9133  mulmod(state0, M00, F) */\n      mulmod\n        /* \"poseidon-solidity/PoseidonT3.sol\":9107:9158  add(mulmod(state0, M00, F), mulmod(state1, M10, F)) */\n      add\n        /* \"poseidon-solidity/PoseidonT3.sol\":9103:9183  add(add(mulmod(state0, M00, F), mulmod(state1, M10, F)), mulmod(state2, M20, F)) */\n      add\n        /* \"poseidon-solidity/PoseidonT3.sol\":9035:9101  0x29a795e7d98028946e947b75d54e9f044076e87a7b2883b47b675ef5f38bd66e */\n      0x29a795e7d98028946e947b75d54e9f044076e87a7b2883b47b675ef5f38bd66e\n        /* \"poseidon-solidity/PoseidonT3.sol\":9031:9184  add(0x29a795e7d98028946e947b75d54e9f044076e87a7b2883b47b675ef5f38bd66e, add(add(mulmod(state0, M00, F), mulmod(state1, M10, F)), mulmod(state2, M20, F))) */\n      add\n        /* \"poseidon-solidity/PoseidonT3.sol\":9019:9184  scratch0 := add(0x29a795e7d98028946e947b75d54e9f044076e87a7b2883b47b675ef5f38bd66e, add(add(mulmod(state0, M00, F), mulmod(state1, M10, F)), mulmod(state2, M20, F))) */\n      swap4\n      pop\n        /* \"poseidon-solidity/PoseidonT3.sol\":9352:9353  F */\n      dup10\n        /* \"poseidon-solidity/PoseidonT3.sol\":9347:9350  M21 */\n      dup9\n        /* \"poseidon-solidity/PoseidonT3.sol\":9339:9345  state2 */\n      dup7\n        /* \"poseidon-solidity/PoseidonT3.sol\":9332:9354  mulmod(state2, M21, F) */\n      mulmod\n        /* \"poseidon-solidity/PoseidonT3.sol\":9327:9328  F */\n      dup11\n        /* \"poseidon-solidity/PoseidonT3.sol\":9322:9325  M11 */\n      0x2e2419f9ec02ec394c9871c832963dc1b89d743c8c7b964029b2311687b1fe23\n        /* \"poseidon-solidity/PoseidonT3.sol\":9314:9320  state1 */\n      dup9\n        /* \"poseidon-solidity/PoseidonT3.sol\":9307:9329  mulmod(state1, M11, F) */\n      mulmod\n        /* \"poseidon-solidity/PoseidonT3.sol\":9303:9304  F */\n      dup12\n        /* \"poseidon-solidity/PoseidonT3.sol\":9298:9301  M01 */\n      0x2969f27eed31a480b9c36c764379dbca2cc8fdd1415c3dded62940bcde0bd771\n        /* \"poseidon-solidity/PoseidonT3.sol\":9290:9296  state0 */\n      dup5\n        /* \"poseidon-solidity/PoseidonT3.sol\":9283:9305  mulmod(state0, M01, F) */\n      mulmod\n        /* \"poseidon-solidity/PoseidonT3.sol\":9279:9330  add(mulmod(state0, M01, F), mulmod(state1, M11, F)) */\n      add\n        /* \"poseidon-solidity/PoseidonT3.sol\":9275:9355  add(add(mulmod(state0, M01, F), mulmod(state1, M11, F)), mulmod(state2, M21, F)) */\n      add\n        /* \"poseidon-solidity/PoseidonT3.sol\":9207:9273  0x20439a0c84b322eb45a3857afc18f5826e8c7382c8a1585c507be199981fd22f */\n      0x20439a0c84b322eb45a3857afc18f5826e8c7382c8a1585c507be199981fd22f\n        /* \"poseidon-solidity/PoseidonT3.sol\":9203:9356  add(0x20439a0c84b322eb45a3857afc18f5826e8c7382c8a1585c507be199981fd22f, add(add(mulmod(state0, M01, F), mulmod(state1, M11, F)), mulmod(state2, M21, F))) */\n      add\n        /* \"poseidon-solidity/PoseidonT3.sol\":9191:9356  scratch1 := add(0x20439a0c84b322eb45a3857afc18f5826e8c7382c8a1585c507be199981fd22f, add(add(mulmod(state0, M01, F), mulmod(state1, M11, F)), mulmod(state2, M21, F))) */\n      swap3\n      pop\n        /* \"poseidon-solidity/PoseidonT3.sol\":9524:9525  F */\n      dup10\n        /* \"poseidon-solidity/PoseidonT3.sol\":9519:9522  M22 */\n      dup8\n        /* \"poseidon-solidity/PoseidonT3.sol\":9511:9517  state2 */\n      dup7\n        /* \"poseidon-solidity/PoseidonT3.sol\":9504:9526  mulmod(state2, M22, F) */\n      mulmod\n        /* \"poseidon-solidity/PoseidonT3.sol\":9499:9500  F */\n      dup11\n        /* \"poseidon-solidity/PoseidonT3.sol\":9494:9497  M12 */\n      0x176cc029695ad02582a70eff08a6fd99d057e12e58e7d7b6b16cdfabc8ee2911\n        /* \"poseidon-solidity/PoseidonT3.sol\":9486:9492  state1 */\n      dup9\n        /* \"poseidon-solidity/PoseidonT3.sol\":9479:9501  mulmod(state1, M12, F) */\n      mulmod\n        /* \"poseidon-solidity/PoseidonT3.sol\":9475:9476  F */\n      dup12\n        /* \"poseidon-solidity/PoseidonT3.sol\":9470:9473  M02 */\n      0x143021ec686a3f330d5f9e654638065ce6cd79e28c5b3753326244ee65a1b1a7\n        /* \"poseidon-solidity/PoseidonT3.sol\":9462:9468  state0 */\n      dup5\n        /* \"poseidon-solidity/PoseidonT3.sol\":9455:9477  mulmod(state0, M02, F) */\n      mulmod\n        /* \"poseidon-solidity/PoseidonT3.sol\":9451:9502  add(mulmod(state0, M02, F), mulmod(state1, M12, F)) */\n      add\n        /* \"poseidon-solidity/PoseidonT3.sol\":9447:9527  add(add(mulmod(state0, M02, F), mulmod(state1, M12, F)), mulmod(state2, M22, F)) */\n      add\n        /* \"poseidon-solidity/PoseidonT3.sol\":9379:9445  0x2e0ba8d94d9ecf4a94ec2050c7371ff1bb50f27799a84b6d4a2a6f2a0982c887 */\n      0x2e0ba8d94d9ecf4a94ec2050c7371ff1bb50f27799a84b6d4a2a6f2a0982c887\n        /* \"poseidon-solidity/PoseidonT3.sol\":9375:9528  add(0x2e0ba8d94d9ecf4a94ec2050c7371ff1bb50f27799a84b6d4a2a6f2a0982c887, add(add(mulmod(state0, M02, F), mulmod(state1, M12, F)), mulmod(state2, M22, F))) */\n      add\n        /* \"poseidon-solidity/PoseidonT3.sol\":9363:9528  scratch2 := add(0x2e0ba8d94d9ecf4a94ec2050c7371ff1bb50f27799a84b6d4a2a6f2a0982c887, add(add(mulmod(state0, M02, F), mulmod(state1, M12, F)), mulmod(state2, M22, F))) */\n      swap2\n      pop\n        /* \"poseidon-solidity/PoseidonT3.sol\":9572:9573  F */\n      dup10\n        /* \"poseidon-solidity/PoseidonT3.sol\":9562:9570  scratch0 */\n      dup5\n        /* \"poseidon-solidity/PoseidonT3.sol\":9552:9560  scratch0 */\n      dup6\n        /* \"poseidon-solidity/PoseidonT3.sol\":9545:9574  mulmod(scratch0, scratch0, F) */\n      mulmod\n        /* \"poseidon-solidity/PoseidonT3.sol\":9535:9574  state0 := mulmod(scratch0, scratch0, F) */\n      swap1\n      pop\n        /* \"poseidon-solidity/PoseidonT3.sol\":9637:9638  F */\n      dup10\n        /* \"poseidon-solidity/PoseidonT3.sol\":9627:9635  scratch0 */\n      dup5\n        /* \"poseidon-solidity/PoseidonT3.sol\":9623:9624  F */\n      dup12\n        /* \"poseidon-solidity/PoseidonT3.sol\":9615:9621  state0 */\n      dup4\n        /* \"poseidon-solidity/PoseidonT3.sol\":9607:9613  state0 */\n      dup5\n        /* \"poseidon-solidity/PoseidonT3.sol\":9600:9625  mulmod(state0, state0, F) */\n      mulmod\n        /* \"poseidon-solidity/PoseidonT3.sol\":9593:9639  mulmod(mulmod(state0, state0, F), scratch0, F) */\n      mulmod\n        /* \"poseidon-solidity/PoseidonT3.sol\":9581:9639  scratch0 := mulmod(mulmod(state0, state0, F), scratch0, F) */\n      swap4\n      pop\n        /* \"poseidon-solidity/PoseidonT3.sol\":9811:9812  F */\n      dup10\n        /* \"poseidon-solidity/PoseidonT3.sol\":9806:9809  M20 */\n      dup10\n        /* \"poseidon-solidity/PoseidonT3.sol\":9796:9804  scratch2 */\n      dup4\n        /* \"poseidon-solidity/PoseidonT3.sol\":9789:9813  mulmod(scratch2, M20, F) */\n      mulmod\n        /* \"poseidon-solidity/PoseidonT3.sol\":9784:9785  F */\n      dup11\n        /* \"poseidon-solidity/PoseidonT3.sol\":9779:9782  M10 */\n      0x16ed41e13bb9c0c66ae119424fddbcbc9314dc9fdbdeea55d6c64543dc4903e0\n        /* \"poseidon-solidity/PoseidonT3.sol\":9769:9777  scratch1 */\n      dup6\n        /* \"poseidon-solidity/PoseidonT3.sol\":9762:9786  mulmod(scratch1, M10, F) */\n      mulmod\n        /* \"poseidon-solidity/PoseidonT3.sol\":9758:9759  F */\n      dup12\n        /* \"poseidon-solidity/PoseidonT3.sol\":9753:9756  M00 */\n      0x109b7f411ba0e4c9b2b70caf5c36a7b194be7c11ad24378bfedb68592ba8118b\n        /* \"poseidon-solidity/PoseidonT3.sol\":9743:9751  scratch0 */\n      dup8\n        /* \"poseidon-solidity/PoseidonT3.sol\":9736:9760  mulmod(scratch0, M00, F) */\n      mulmod\n        /* \"poseidon-solidity/PoseidonT3.sol\":9732:9787  add(mulmod(scratch0, M00, F), mulmod(scratch1, M10, F)) */\n      add\n        /* \"poseidon-solidity/PoseidonT3.sol\":9728:9814  add(add(mulmod(scratch0, M00, F), mulmod(scratch1, M10, F)), mulmod(scratch2, M20, F)) */\n      add\n        /* \"poseidon-solidity/PoseidonT3.sol\":9660:9726  0x143fd115ce08fb27ca38eb7cce822b4517822cd2109048d2e6d0ddcca17d71c8 */\n      0x143fd115ce08fb27ca38eb7cce822b4517822cd2109048d2e6d0ddcca17d71c8\n        /* \"poseidon-solidity/PoseidonT3.sol\":9656:9815  add(0x143fd115ce08fb27ca38eb7cce822b4517822cd2109048d2e6d0ddcca17d71c8, add(add(mulmod(scratch0, M00, F), mulmod(scratch1, M10, F)), mulmod(scratch2, M20, F))) */\n      add\n        /* \"poseidon-solidity/PoseidonT3.sol\":9646:9815  state0 := add(0x143fd115ce08fb27ca38eb7cce822b4517822cd2109048d2e6d0ddcca17d71c8, add(add(mulmod(scratch0, M00, F), mulmod(scratch1, M10, F)), mulmod(scratch2, M20, F))) */\n      swap1\n      pop\n        /* \"poseidon-solidity/PoseidonT3.sol\":9987:9988  F */\n      dup10\n        /* \"poseidon-solidity/PoseidonT3.sol\":9982:9985  M21 */\n      dup9\n        /* \"poseidon-solidity/PoseidonT3.sol\":9972:9980  scratch2 */\n      dup4\n        /* \"poseidon-solidity/PoseidonT3.sol\":9965:9989  mulmod(scratch2, M21, F) */\n      mulmod\n        /* \"poseidon-solidity/PoseidonT3.sol\":9960:9961  F */\n      dup11\n        /* \"poseidon-solidity/PoseidonT3.sol\":9955:9958  M11 */\n      0x2e2419f9ec02ec394c9871c832963dc1b89d743c8c7b964029b2311687b1fe23\n        /* \"poseidon-solidity/PoseidonT3.sol\":9945:9953  scratch1 */\n      dup6\n        /* \"poseidon-solidity/PoseidonT3.sol\":9938:9962  mulmod(scratch1, M11, F) */\n      mulmod\n        /* \"poseidon-solidity/PoseidonT3.sol\":9934:9935  F */\n      dup12\n        /* \"poseidon-solidity/PoseidonT3.sol\":9929:9932  M01 */\n      0x2969f27eed31a480b9c36c764379dbca2cc8fdd1415c3dded62940bcde0bd771\n        /* \"poseidon-solidity/PoseidonT3.sol\":9919:9927  scratch0 */\n      dup8\n        /* \"poseidon-solidity/PoseidonT3.sol\":9912:9936  mulmod(scratch0, M01, F) */\n      mulmod\n        /* \"poseidon-solidity/PoseidonT3.sol\":9908:9963  add(mulmod(scratch0, M01, F), mulmod(scratch1, M11, F)) */\n      add\n        /* \"poseidon-solidity/PoseidonT3.sol\":9904:9990  add(add(mulmod(scratch0, M01, F), mulmod(scratch1, M11, F)), mulmod(scratch2, M21, F)) */\n      add\n        /* \"poseidon-solidity/PoseidonT3.sol\":9836:9902  0x0c64cbecb1c734b857968dbbdcf813cdf8611659323dbcbfc84323623be9caf1 */\n      0x0c64cbecb1c734b857968dbbdcf813cdf8611659323dbcbfc84323623be9caf1\n        /* \"poseidon-solidity/PoseidonT3.sol\":9832:9991  add(0x0c64cbecb1c734b857968dbbdcf813cdf8611659323dbcbfc84323623be9caf1, add(add(mulmod(scratch0, M01, F), mulmod(scratch1, M11, F)), mulmod(scratch2, M21, F))) */\n      add\n        /* \"poseidon-solidity/PoseidonT3.sol\":9822:9991  state1 := add(0x0c64cbecb1c734b857968dbbdcf813cdf8611659323dbcbfc84323623be9caf1, add(add(mulmod(scratch0, M01, F), mulmod(scratch1, M11, F)), mulmod(scratch2, M21, F))) */\n      swap6\n      pop\n        /* \"poseidon-solidity/PoseidonT3.sol\":10163:10164  F */\n      dup10\n        /* \"poseidon-solidity/PoseidonT3.sol\":10158:10161  M22 */\n      dup8\n        /* \"poseidon-solidity/PoseidonT3.sol\":10148:10156  scratch2 */\n      dup4\n        /* \"poseidon-solidity/PoseidonT3.sol\":10141:10165  mulmod(scratch2, M22, F) */\n      mulmod\n        /* \"poseidon-solidity/PoseidonT3.sol\":10136:10137  F */\n      dup11\n        /* \"poseidon-solidity/PoseidonT3.sol\":10131:10134  M12 */\n      0x176cc029695ad02582a70eff08a6fd99d057e12e58e7d7b6b16cdfabc8ee2911\n        /* \"poseidon-solidity/PoseidonT3.sol\":10121:10129  scratch1 */\n      dup6\n        /* \"poseidon-solidity/PoseidonT3.sol\":10114:10138  mulmod(scratch1, M12, F) */\n      mulmod\n        /* \"poseidon-solidity/PoseidonT3.sol\":10110:10111  F */\n      dup12\n        /* \"poseidon-solidity/PoseidonT3.sol\":10105:10108  M02 */\n      0x143021ec686a3f330d5f9e654638065ce6cd79e28c5b3753326244ee65a1b1a7\n        /* \"poseidon-solidity/PoseidonT3.sol\":10095:10103  scratch0 */\n      dup8\n        /* \"poseidon-solidity/PoseidonT3.sol\":10088:10112  mulmod(scratch0, M02, F) */\n      mulmod\n        /* \"poseidon-solidity/PoseidonT3.sol\":10084:10139  add(mulmod(scratch0, M02, F), mulmod(scratch1, M12, F)) */\n      add\n        /* \"poseidon-solidity/PoseidonT3.sol\":10080:10166  add(add(mulmod(scratch0, M02, F), mulmod(scratch1, M12, F)), mulmod(scratch2, M22, F)) */\n      add\n        /* \"poseidon-solidity/PoseidonT3.sol\":10012:10078  0x028a305847c683f646fca925c163ff5ae74f348d62c2b670f1426cef9403da53 */\n      0x028a305847c683f646fca925c163ff5ae74f348d62c2b670f1426cef9403da53\n        /* \"poseidon-solidity/PoseidonT3.sol\":10008:10167  add(0x028a305847c683f646fca925c163ff5ae74f348d62c2b670f1426cef9403da53, add(add(mulmod(scratch0, M02, F), mulmod(scratch1, M12, F)), mulmod(scratch2, M22, F))) */\n      add\n        /* \"poseidon-solidity/PoseidonT3.sol\":9998:10167  state2 := add(0x028a305847c683f646fca925c163ff5ae74f348d62c2b670f1426cef9403da53, add(add(mulmod(scratch0, M02, F), mulmod(scratch1, M12, F)), mulmod(scratch2, M22, F))) */\n      swap5\n      pop\n        /* \"poseidon-solidity/PoseidonT3.sol\":10209:10210  F */\n      dup10\n        /* \"poseidon-solidity/PoseidonT3.sol\":10201:10207  state0 */\n      dup2\n        /* \"poseidon-solidity/PoseidonT3.sol\":10193:10199  state0 */\n      dup3\n        /* \"poseidon-solidity/PoseidonT3.sol\":10186:10211  mulmod(state0, state0, F) */\n      mulmod\n        /* \"poseidon-solidity/PoseidonT3.sol\":10174:10211  scratch0 := mulmod(state0, state0, F) */\n      swap4\n      pop\n        /* \"poseidon-solidity/PoseidonT3.sol\":10274:10275  F */\n      dup10\n        /* \"poseidon-solidity/PoseidonT3.sol\":10266:10272  state0 */\n      dup2\n        /* \"poseidon-solidity/PoseidonT3.sol\":10262:10263  F */\n      dup12\n        /* \"poseidon-solidity/PoseidonT3.sol\":10252:10260  scratch0 */\n      dup7\n        /* \"poseidon-solidity/PoseidonT3.sol\":10242:10250  scratch0 */\n      dup8\n        /* \"poseidon-solidity/PoseidonT3.sol\":10235:10264  mulmod(scratch0, scratch0, F) */\n      mulmod\n        /* \"poseidon-solidity/PoseidonT3.sol\":10228:10276  mulmod(mulmod(scratch0, scratch0, F), state0, F) */\n      mulmod\n        /* \"poseidon-solidity/PoseidonT3.sol\":10218:10276  state0 := mulmod(mulmod(scratch0, scratch0, F), state0, F) */\n      swap1\n      pop\n        /* \"poseidon-solidity/PoseidonT3.sol\":10444:10445  F */\n      dup10\n        /* \"poseidon-solidity/PoseidonT3.sol\":10439:10442  M20 */\n      dup10\n        /* \"poseidon-solidity/PoseidonT3.sol\":10431:10437  state2 */\n      dup7\n        /* \"poseidon-solidity/PoseidonT3.sol\":10424:10446  mulmod(state2, M20, F) */\n      mulmod\n        /* \"poseidon-solidity/PoseidonT3.sol\":10419:10420  F */\n      dup11\n        /* \"poseidon-solidity/PoseidonT3.sol\":10414:10417  M10 */\n      0x16ed41e13bb9c0c66ae119424fddbcbc9314dc9fdbdeea55d6c64543dc4903e0\n        /* \"poseidon-solidity/PoseidonT3.sol\":10406:10412  state1 */\n      dup9\n        /* \"poseidon-solidity/PoseidonT3.sol\":10399:10421  mulmod(state1, M10, F) */\n      mulmod\n        /* \"poseidon-solidity/PoseidonT3.sol\":10395:10396  F */\n      dup12\n        /* \"poseidon-solidity/PoseidonT3.sol\":10390:10393  M00 */\n      0x109b7f411ba0e4c9b2b70caf5c36a7b194be7c11ad24378bfedb68592ba8118b\n        /* \"poseidon-solidity/PoseidonT3.sol\":10382:10388  state0 */\n      dup5\n        /* \"poseidon-solidity/PoseidonT3.sol\":10375:10397  mulmod(state0, M00, F) */\n      mulmod\n        /* \"poseidon-solidity/PoseidonT3.sol\":10371:10422  add(mulmod(state0, M00, F), mulmod(state1, M10, F)) */\n      add\n        /* \"poseidon-solidity/PoseidonT3.sol\":10367:10447  add(add(mulmod(state0, M00, F), mulmod(state1, M10, F)), mulmod(state2, M20, F)) */\n      add\n        /* \"poseidon-solidity/PoseidonT3.sol\":10299:10365  0x2e4ef510ff0b6fda5fa940ab4c4380f26a6bcb64d89427b824d6755b5db9e30c */\n      0x2e4ef510ff0b6fda5fa940ab4c4380f26a6bcb64d89427b824d6755b5db9e30c\n        /* \"poseidon-solidity/PoseidonT3.sol\":10295:10448  add(0x2e4ef510ff0b6fda5fa940ab4c4380f26a6bcb64d89427b824d6755b5db9e30c, add(add(mulmod(state0, M00, F), mulmod(state1, M10, F)), mulmod(state2, M20, F))) */\n      add\n        /* \"poseidon-solidity/PoseidonT3.sol\":10283:10448  scratch0 := add(0x2e4ef510ff0b6fda5fa940ab4c4380f26a6bcb64d89427b824d6755b5db9e30c, add(add(mulmod(state0, M00, F), mulmod(state1, M10, F)), mulmod(state2, M20, F))) */\n      swap4\n      pop\n        /* \"poseidon-solidity/PoseidonT3.sol\":10616:10617  F */\n      dup10\n        /* \"poseidon-solidity/PoseidonT3.sol\":10611:10614  M21 */\n      dup9\n        /* \"poseidon-solidity/PoseidonT3.sol\":10603:10609  state2 */\n      dup7\n        /* \"poseidon-solidity/PoseidonT3.sol\":10596:10618  mulmod(state2, M21, F) */\n      mulmod\n        /* \"poseidon-solidity/PoseidonT3.sol\":10591:10592  F */\n      dup11\n        /* \"poseidon-solidity/PoseidonT3.sol\":10586:10589  M11 */\n      0x2e2419f9ec02ec394c9871c832963dc1b89d743c8c7b964029b2311687b1fe23\n        /* \"poseidon-solidity/PoseidonT3.sol\":10578:10584  state1 */\n      dup9\n        /* \"poseidon-solidity/PoseidonT3.sol\":10571:10593  mulmod(state1, M11, F) */\n      mulmod\n        /* \"poseidon-solidity/PoseidonT3.sol\":10567:10568  F */\n      dup12\n        /* \"poseidon-solidity/PoseidonT3.sol\":10562:10565  M01 */\n      0x2969f27eed31a480b9c36c764379dbca2cc8fdd1415c3dded62940bcde0bd771\n        /* \"poseidon-solidity/PoseidonT3.sol\":10554:10560  state0 */\n      dup5\n        /* \"poseidon-solidity/PoseidonT3.sol\":10547:10569  mulmod(state0, M01, F) */\n      mulmod\n        /* \"poseidon-solidity/PoseidonT3.sol\":10543:10594  add(mulmod(state0, M01, F), mulmod(state1, M11, F)) */\n      add\n        /* \"poseidon-solidity/PoseidonT3.sol\":10539:10619  add(add(mulmod(state0, M01, F), mulmod(state1, M11, F)), mulmod(state2, M21, F)) */\n      add\n        /* \"poseidon-solidity/PoseidonT3.sol\":10471:10537  0x0081c95bc43384e663d79270c956ce3b8925b4f6d033b078b96384f50579400e */\n      0x81c95bc43384e663d79270c956ce3b8925b4f6d033b078b96384f50579400e\n        /* \"poseidon-solidity/PoseidonT3.sol\":10467:10620  add(0x0081c95bc43384e663d79270c956ce3b8925b4f6d033b078b96384f50579400e, add(add(mulmod(state0, M01, F), mulmod(state1, M11, F)), mulmod(state2, M21, F))) */\n      add\n        /* \"poseidon-solidity/PoseidonT3.sol\":10455:10620  scratch1 := add(0x0081c95bc43384e663d79270c956ce3b8925b4f6d033b078b96384f50579400e, add(add(mulmod(state0, M01, F), mulmod(state1, M11, F)), mulmod(state2, M21, F))) */\n      swap3\n      pop\n        /* \"poseidon-solidity/PoseidonT3.sol\":10788:10789  F */\n      dup10\n        /* \"poseidon-solidity/PoseidonT3.sol\":10783:10786  M22 */\n      dup8\n        /* \"poseidon-solidity/PoseidonT3.sol\":10775:10781  state2 */\n      dup7\n        /* \"poseidon-solidity/PoseidonT3.sol\":10768:10790  mulmod(state2, M22, F) */\n      mulmod\n        /* \"poseidon-solidity/PoseidonT3.sol\":10763:10764  F */\n      dup11\n        /* \"poseidon-solidity/PoseidonT3.sol\":10758:10761  M12 */\n      0x176cc029695ad02582a70eff08a6fd99d057e12e58e7d7b6b16cdfabc8ee2911\n        /* \"poseidon-solidity/PoseidonT3.sol\":10750:10756  state1 */\n      dup9\n        /* \"poseidon-solidity/PoseidonT3.sol\":10743:10765  mulmod(state1, M12, F) */\n      mulmod\n        /* \"poseidon-solidity/PoseidonT3.sol\":10739:10740  F */\n      dup12\n        /* \"poseidon-solidity/PoseidonT3.sol\":10734:10737  M02 */\n      0x143021ec686a3f330d5f9e654638065ce6cd79e28c5b3753326244ee65a1b1a7\n        /* \"poseidon-solidity/PoseidonT3.sol\":10726:10732  state0 */\n      dup5\n        /* \"poseidon-solidity/PoseidonT3.sol\":10719:10741  mulmod(state0, M02, F) */\n      mulmod\n        /* \"poseidon-solidity/PoseidonT3.sol\":10715:10766  add(mulmod(state0, M02, F), mulmod(state1, M12, F)) */\n      add\n        /* \"poseidon-solidity/PoseidonT3.sol\":10711:10791  add(add(mulmod(state0, M02, F), mulmod(state1, M12, F)), mulmod(state2, M22, F)) */\n      add\n        /* \"poseidon-solidity/PoseidonT3.sol\":10643:10709  0x2ed5f0c91cbd9749187e2fade687e05ee2491b349c039a0bba8a9f4023a0bb38 */\n      0x2ed5f0c91cbd9749187e2fade687e05ee2491b349c039a0bba8a9f4023a0bb38\n        /* \"poseidon-solidity/PoseidonT3.sol\":10639:10792  add(0x2ed5f0c91cbd9749187e2fade687e05ee2491b349c039a0bba8a9f4023a0bb38, add(add(mulmod(state0, M02, F), mulmod(state1, M12, F)), mulmod(state2, M22, F))) */\n      add\n        /* \"poseidon-solidity/PoseidonT3.sol\":10627:10792  scratch2 := add(0x2ed5f0c91cbd9749187e2fade687e05ee2491b349c039a0bba8a9f4023a0bb38, add(add(mulmod(state0, M02, F), mulmod(state1, M12, F)), mulmod(state2, M22, F))) */\n      swap2\n      pop\n        /* \"poseidon-solidity/PoseidonT3.sol\":10836:10837  F */\n      dup10\n        /* \"poseidon-solidity/PoseidonT3.sol\":10826:10834  scratch0 */\n      dup5\n        /* \"poseidon-solidity/PoseidonT3.sol\":10816:10824  scratch0 */\n      dup6\n        /* \"poseidon-solidity/PoseidonT3.sol\":10809:10838  mulmod(scratch0, scratch0, F) */\n      mulmod\n        /* \"poseidon-solidity/PoseidonT3.sol\":10799:10838  state0 := mulmod(scratch0, scratch0, F) */\n      swap1\n      pop\n        /* \"poseidon-solidity/PoseidonT3.sol\":10901:10902  F */\n      dup10\n        /* \"poseidon-solidity/PoseidonT3.sol\":10891:10899  scratch0 */\n      dup5\n        /* \"poseidon-solidity/PoseidonT3.sol\":10887:10888  F */\n      dup12\n        /* \"poseidon-solidity/PoseidonT3.sol\":10879:10885  state0 */\n      dup4\n        /* \"poseidon-solidity/PoseidonT3.sol\":10871:10877  state0 */\n      dup5\n        /* \"poseidon-solidity/PoseidonT3.sol\":10864:10889  mulmod(state0, state0, F) */\n      mulmod\n        /* \"poseidon-solidity/PoseidonT3.sol\":10857:10903  mulmod(mulmod(state0, state0, F), scratch0, F) */\n      mulmod\n        /* \"poseidon-solidity/PoseidonT3.sol\":10845:10903  scratch0 := mulmod(mulmod(state0, state0, F), scratch0, F) */\n      swap4\n      pop\n        /* \"poseidon-solidity/PoseidonT3.sol\":11075:11076  F */\n      dup10\n        /* \"poseidon-solidity/PoseidonT3.sol\":11070:11073  M20 */\n      dup10\n        /* \"poseidon-solidity/PoseidonT3.sol\":11060:11068  scratch2 */\n      dup4\n        /* \"poseidon-solidity/PoseidonT3.sol\":11053:11077  mulmod(scratch2, M20, F) */\n      mulmod\n        /* \"poseidon-solidity/PoseidonT3.sol\":11048:11049  F */\n      dup11\n        /* \"poseidon-solidity/PoseidonT3.sol\":11043:11046  M10 */\n      0x16ed41e13bb9c0c66ae119424fddbcbc9314dc9fdbdeea55d6c64543dc4903e0\n        /* \"poseidon-solidity/PoseidonT3.sol\":11033:11041  scratch1 */\n      dup6\n        /* \"poseidon-solidity/PoseidonT3.sol\":11026:11050  mulmod(scratch1, M10, F) */\n      mulmod\n        /* \"poseidon-solidity/PoseidonT3.sol\":11022:11023  F */\n      dup12\n        /* \"poseidon-solidity/PoseidonT3.sol\":11017:11020  M00 */\n      0x109b7f411ba0e4c9b2b70caf5c36a7b194be7c11ad24378bfedb68592ba8118b\n        /* \"poseidon-solidity/PoseidonT3.sol\":11007:11015  scratch0 */\n      dup8\n        /* \"poseidon-solidity/PoseidonT3.sol\":11000:11024  mulmod(scratch0, M00, F) */\n      mulmod\n        /* \"poseidon-solidity/PoseidonT3.sol\":10996:11051  add(mulmod(scratch0, M00, F), mulmod(scratch1, M10, F)) */\n      add\n        /* \"poseidon-solidity/PoseidonT3.sol\":10992:11078  add(add(mulmod(scratch0, M00, F), mulmod(scratch1, M10, F)), mulmod(scratch2, M20, F)) */\n      add\n        /* \"poseidon-solidity/PoseidonT3.sol\":10924:10990  0x30509991f88da3504bbf374ed5aae2f03448a22c76234c8c990f01f33a735206 */\n      0x30509991f88da3504bbf374ed5aae2f03448a22c76234c8c990f01f33a735206\n        /* \"poseidon-solidity/PoseidonT3.sol\":10920:11079  add(0x30509991f88da3504bbf374ed5aae2f03448a22c76234c8c990f01f33a735206, add(add(mulmod(scratch0, M00, F), mulmod(scratch1, M10, F)), mulmod(scratch2, M20, F))) */\n      add\n        /* \"poseidon-solidity/PoseidonT3.sol\":10910:11079  state0 := add(0x30509991f88da3504bbf374ed5aae2f03448a22c76234c8c990f01f33a735206, add(add(mulmod(scratch0, M00, F), mulmod(scratch1, M10, F)), mulmod(scratch2, M20, F))) */\n      swap1\n      pop\n        /* \"poseidon-solidity/PoseidonT3.sol\":11251:11252  F */\n      dup10\n        /* \"poseidon-solidity/PoseidonT3.sol\":11246:11249  M21 */\n      dup9\n        /* \"poseidon-solidity/PoseidonT3.sol\":11236:11244  scratch2 */\n      dup4\n        /* \"poseidon-solidity/PoseidonT3.sol\":11229:11253  mulmod(scratch2, M21, F) */\n      mulmod\n        /* \"poseidon-solidity/PoseidonT3.sol\":11224:11225  F */\n      dup11\n        /* \"poseidon-solidity/PoseidonT3.sol\":11219:11222  M11 */\n      0x2e2419f9ec02ec394c9871c832963dc1b89d743c8c7b964029b2311687b1fe23\n        /* \"poseidon-solidity/PoseidonT3.sol\":11209:11217  scratch1 */\n      dup6\n        /* \"poseidon-solidity/PoseidonT3.sol\":11202:11226  mulmod(scratch1, M11, F) */\n      mulmod\n        /* \"poseidon-solidity/PoseidonT3.sol\":11198:11199  F */\n      dup12\n        /* \"poseidon-solidity/PoseidonT3.sol\":11193:11196  M01 */\n      0x2969f27eed31a480b9c36c764379dbca2cc8fdd1415c3dded62940bcde0bd771\n        /* \"poseidon-solidity/PoseidonT3.sol\":11183:11191  scratch0 */\n      dup8\n        /* \"poseidon-solidity/PoseidonT3.sol\":11176:11200  mulmod(scratch0, M01, F) */\n      mulmod\n        /* \"poseidon-solidity/PoseidonT3.sol\":11172:11227  add(mulmod(scratch0, M01, F), mulmod(scratch1, M11, F)) */\n      add\n        /* \"poseidon-solidity/PoseidonT3.sol\":11168:11254  add(add(mulmod(scratch0, M01, F), mulmod(scratch1, M11, F)), mulmod(scratch2, M21, F)) */\n      add\n        /* \"poseidon-solidity/PoseidonT3.sol\":11100:11166  0x1c3f20fd55409a53221b7c4d49a356b9f0a1119fb2067b41a7529094424ec6ad */\n      0x1c3f20fd55409a53221b7c4d49a356b9f0a1119fb2067b41a7529094424ec6ad\n        /* \"poseidon-solidity/PoseidonT3.sol\":11096:11255  add(0x1c3f20fd55409a53221b7c4d49a356b9f0a1119fb2067b41a7529094424ec6ad, add(add(mulmod(scratch0, M01, F), mulmod(scratch1, M11, F)), mulmod(scratch2, M21, F))) */\n      add\n        /* \"poseidon-solidity/PoseidonT3.sol\":11086:11255  state1 := add(0x1c3f20fd55409a53221b7c4d49a356b9f0a1119fb2067b41a7529094424ec6ad, add(add(mulmod(scratch0, M01, F), mulmod(scratch1, M11, F)), mulmod(scratch2, M21, F))) */\n      swap6\n      pop\n        /* \"poseidon-solidity/PoseidonT3.sol\":11427:11428  F */\n      dup10\n        /* \"poseidon-solidity/PoseidonT3.sol\":11422:11425  M22 */\n      dup8\n        /* \"poseidon-solidity/PoseidonT3.sol\":11412:11420  scratch2 */\n      dup4\n        /* \"poseidon-solidity/PoseidonT3.sol\":11405:11429  mulmod(scratch2, M22, F) */\n      mulmod\n        /* \"poseidon-solidity/PoseidonT3.sol\":11400:11401  F */\n      dup11\n        /* \"poseidon-solidity/PoseidonT3.sol\":11395:11398  M12 */\n      0x176cc029695ad02582a70eff08a6fd99d057e12e58e7d7b6b16cdfabc8ee2911\n        /* \"poseidon-solidity/PoseidonT3.sol\":11385:11393  scratch1 */\n      dup6\n        /* \"poseidon-solidity/PoseidonT3.sol\":11378:11402  mulmod(scratch1, M12, F) */\n      mulmod\n        /* \"poseidon-solidity/PoseidonT3.sol\":11374:11375  F */\n      dup12\n        /* \"poseidon-solidity/PoseidonT3.sol\":11369:11372  M02 */\n      0x143021ec686a3f330d5f9e654638065ce6cd79e28c5b3753326244ee65a1b1a7\n        /* \"poseidon-solidity/PoseidonT3.sol\":11359:11367  scratch0 */\n      dup8\n        /* \"poseidon-solidity/PoseidonT3.sol\":11352:11376  mulmod(scratch0, M02, F) */\n      mulmod\n        /* \"poseidon-solidity/PoseidonT3.sol\":11348:11403  add(mulmod(scratch0, M02, F), mulmod(scratch1, M12, F)) */\n      add\n        /* \"poseidon-solidity/PoseidonT3.sol\":11344:11430  add(add(mulmod(scratch0, M02, F), mulmod(scratch1, M12, F)), mulmod(scratch2, M22, F)) */\n      add\n        /* \"poseidon-solidity/PoseidonT3.sol\":11276:11342  0x10b4e7f3ab5df003049514459b6e18eec46bb2213e8e131e170887b47ddcb96c */\n      0x10b4e7f3ab5df003049514459b6e18eec46bb2213e8e131e170887b47ddcb96c\n        /* \"poseidon-solidity/PoseidonT3.sol\":11272:11431  add(0x10b4e7f3ab5df003049514459b6e18eec46bb2213e8e131e170887b47ddcb96c, add(add(mulmod(scratch0, M02, F), mulmod(scratch1, M12, F)), mulmod(scratch2, M22, F))) */\n      add\n        /* \"poseidon-solidity/PoseidonT3.sol\":11262:11431  state2 := add(0x10b4e7f3ab5df003049514459b6e18eec46bb2213e8e131e170887b47ddcb96c, add(add(mulmod(scratch0, M02, F), mulmod(scratch1, M12, F)), mulmod(scratch2, M22, F))) */\n      swap5\n      pop\n        /* \"poseidon-solidity/PoseidonT3.sol\":11473:11474  F */\n      dup10\n        /* \"poseidon-solidity/PoseidonT3.sol\":11465:11471  state0 */\n      dup2\n        /* \"poseidon-solidity/PoseidonT3.sol\":11457:11463  state0 */\n      dup3\n        /* \"poseidon-solidity/PoseidonT3.sol\":11450:11475  mulmod(state0, state0, F) */\n      mulmod\n        /* \"poseidon-solidity/PoseidonT3.sol\":11438:11475  scratch0 := mulmod(state0, state0, F) */\n      swap4\n      pop\n        /* \"poseidon-solidity/PoseidonT3.sol\":11538:11539  F */\n      dup10\n        /* \"poseidon-solidity/PoseidonT3.sol\":11530:11536  state0 */\n      dup2\n        /* \"poseidon-solidity/PoseidonT3.sol\":11526:11527  F */\n      dup12\n        /* \"poseidon-solidity/PoseidonT3.sol\":11516:11524  scratch0 */\n      dup7\n        /* \"poseidon-solidity/PoseidonT3.sol\":11506:11514  scratch0 */\n      dup8\n        /* \"poseidon-solidity/PoseidonT3.sol\":11499:11528  mulmod(scratch0, scratch0, F) */\n      mulmod\n        /* \"poseidon-solidity/PoseidonT3.sol\":11492:11540  mulmod(mulmod(scratch0, scratch0, F), state0, F) */\n      mulmod\n        /* \"poseidon-solidity/PoseidonT3.sol\":11482:11540  state0 := mulmod(mulmod(scratch0, scratch0, F), state0, F) */\n      swap1\n      pop\n        /* \"poseidon-solidity/PoseidonT3.sol\":11708:11709  F */\n      dup10\n        /* \"poseidon-solidity/PoseidonT3.sol\":11703:11706  M20 */\n      dup10\n        /* \"poseidon-solidity/PoseidonT3.sol\":11695:11701  state2 */\n      dup7\n        /* \"poseidon-solidity/PoseidonT3.sol\":11688:11710  mulmod(state2, M20, F) */\n      mulmod\n        /* \"poseidon-solidity/PoseidonT3.sol\":11683:11684  F */\n      dup11\n        /* \"poseidon-solidity/PoseidonT3.sol\":11678:11681  M10 */\n      0x16ed41e13bb9c0c66ae119424fddbcbc9314dc9fdbdeea55d6c64543dc4903e0\n        /* \"poseidon-solidity/PoseidonT3.sol\":11670:11676  state1 */\n      dup9\n        /* \"poseidon-solidity/PoseidonT3.sol\":11663:11685  mulmod(state1, M10, F) */\n      mulmod\n        /* \"poseidon-solidity/PoseidonT3.sol\":11659:11660  F */\n      dup12\n        /* \"poseidon-solidity/PoseidonT3.sol\":11654:11657  M00 */\n      0x109b7f411ba0e4c9b2b70caf5c36a7b194be7c11ad24378bfedb68592ba8118b\n        /* \"poseidon-solidity/PoseidonT3.sol\":11646:11652  state0 */\n      dup5\n        /* \"poseidon-solidity/PoseidonT3.sol\":11639:11661  mulmod(state0, M00, F) */\n      mulmod\n        /* \"poseidon-solidity/PoseidonT3.sol\":11635:11686  add(mulmod(state0, M00, F), mulmod(state1, M10, F)) */\n      add\n        /* \"poseidon-solidity/PoseidonT3.sol\":11631:11711  add(add(mulmod(state0, M00, F), mulmod(state1, M10, F)), mulmod(state2, M20, F)) */\n      add\n        /* \"poseidon-solidity/PoseidonT3.sol\":11563:11629  0x2a1982979c3ff7f43ddd543d891c2abddd80f804c077d775039aa3502e43adef */\n      0x2a1982979c3ff7f43ddd543d891c2abddd80f804c077d775039aa3502e43adef\n        /* \"poseidon-solidity/PoseidonT3.sol\":11559:11712  add(0x2a1982979c3ff7f43ddd543d891c2abddd80f804c077d775039aa3502e43adef, add(add(mulmod(state0, M00, F), mulmod(state1, M10, F)), mulmod(state2, M20, F))) */\n      add\n        /* \"poseidon-solidity/PoseidonT3.sol\":11547:11712  scratch0 := add(0x2a1982979c3ff7f43ddd543d891c2abddd80f804c077d775039aa3502e43adef, add(add(mulmod(state0, M00, F), mulmod(state1, M10, F)), mulmod(state2, M20, F))) */\n      swap4\n      pop\n        /* \"poseidon-solidity/PoseidonT3.sol\":11880:11881  F */\n      dup10\n        /* \"poseidon-solidity/PoseidonT3.sol\":11875:11878  M21 */\n      dup9\n        /* \"poseidon-solidity/PoseidonT3.sol\":11867:11873  state2 */\n      dup7\n        /* \"poseidon-solidity/PoseidonT3.sol\":11860:11882  mulmod(state2, M21, F) */\n      mulmod\n        /* \"poseidon-solidity/PoseidonT3.sol\":11855:11856  F */\n      dup11\n        /* \"poseidon-solidity/PoseidonT3.sol\":11850:11853  M11 */\n      0x2e2419f9ec02ec394c9871c832963dc1b89d743c8c7b964029b2311687b1fe23\n        /* \"poseidon-solidity/PoseidonT3.sol\":11842:11848  state1 */\n      dup9\n        /* \"poseidon-solidity/PoseidonT3.sol\":11835:11857  mulmod(state1, M11, F) */\n      mulmod\n        /* \"poseidon-solidity/PoseidonT3.sol\":11831:11832  F */\n      dup12\n        /* \"poseidon-solidity/PoseidonT3.sol\":11826:11829  M01 */\n      0x2969f27eed31a480b9c36c764379dbca2cc8fdd1415c3dded62940bcde0bd771\n        /* \"poseidon-solidity/PoseidonT3.sol\":11818:11824  state0 */\n      dup5\n        /* \"poseidon-solidity/PoseidonT3.sol\":11811:11833  mulmod(state0, M01, F) */\n      mulmod\n        /* \"poseidon-solidity/PoseidonT3.sol\":11807:11858  add(mulmod(state0, M01, F), mulmod(state1, M11, F)) */\n      add\n        /* \"poseidon-solidity/PoseidonT3.sol\":11803:11883  add(add(mulmod(state0, M01, F), mulmod(state1, M11, F)), mulmod(state2, M21, F)) */\n      add\n        /* \"poseidon-solidity/PoseidonT3.sol\":11735:11801  0x1c74ee64f15e1db6feddbead56d6d55dba431ebc396c9af95cad0f1315bd5c91 */\n      0x1c74ee64f15e1db6feddbead56d6d55dba431ebc396c9af95cad0f1315bd5c91\n        /* \"poseidon-solidity/PoseidonT3.sol\":11731:11884  add(0x1c74ee64f15e1db6feddbead56d6d55dba431ebc396c9af95cad0f1315bd5c91, add(add(mulmod(state0, M01, F), mulmod(state1, M11, F)), mulmod(state2, M21, F))) */\n      add\n        /* \"poseidon-solidity/PoseidonT3.sol\":11719:11884  scratch1 := add(0x1c74ee64f15e1db6feddbead56d6d55dba431ebc396c9af95cad0f1315bd5c91, add(add(mulmod(state0, M01, F), mulmod(state1, M11, F)), mulmod(state2, M21, F))) */\n      swap3\n      pop\n        /* \"poseidon-solidity/PoseidonT3.sol\":12052:12053  F */\n      dup10\n        /* \"poseidon-solidity/PoseidonT3.sol\":12047:12050  M22 */\n      dup8\n        /* \"poseidon-solidity/PoseidonT3.sol\":12039:12045  state2 */\n      dup7\n        /* \"poseidon-solidity/PoseidonT3.sol\":12032:12054  mulmod(state2, M22, F) */\n      mulmod\n        /* \"poseidon-solidity/PoseidonT3.sol\":12027:12028  F */\n      dup11\n        /* \"poseidon-solidity/PoseidonT3.sol\":12022:12025  M12 */\n      0x176cc029695ad02582a70eff08a6fd99d057e12e58e7d7b6b16cdfabc8ee2911\n        /* \"poseidon-solidity/PoseidonT3.sol\":12014:12020  state1 */\n      dup9\n        /* \"poseidon-solidity/PoseidonT3.sol\":12007:12029  mulmod(state1, M12, F) */\n      mulmod\n        /* \"poseidon-solidity/PoseidonT3.sol\":12003:12004  F */\n      dup12\n        /* \"poseidon-solidity/PoseidonT3.sol\":11998:12001  M02 */\n      0x143021ec686a3f330d5f9e654638065ce6cd79e28c5b3753326244ee65a1b1a7\n        /* \"poseidon-solidity/PoseidonT3.sol\":11990:11996  state0 */\n      dup5\n        /* \"poseidon-solidity/PoseidonT3.sol\":11983:12005  mulmod(state0, M02, F) */\n      mulmod\n        /* \"poseidon-solidity/PoseidonT3.sol\":11979:12030  add(mulmod(state0, M02, F), mulmod(state1, M12, F)) */\n      add\n        /* \"poseidon-solidity/PoseidonT3.sol\":11975:12055  add(add(mulmod(state0, M02, F), mulmod(state1, M12, F)), mulmod(state2, M22, F)) */\n      add\n        /* \"poseidon-solidity/PoseidonT3.sol\":11907:11973  0x07533ec850ba7f98eab9303cace01b4b9e4f2e8b82708cfa9c2fe45a0ae146a0 */\n      0x07533ec850ba7f98eab9303cace01b4b9e4f2e8b82708cfa9c2fe45a0ae146a0\n        /* \"poseidon-solidity/PoseidonT3.sol\":11903:12056  add(0x07533ec850ba7f98eab9303cace01b4b9e4f2e8b82708cfa9c2fe45a0ae146a0, add(add(mulmod(state0, M02, F), mulmod(state1, M12, F)), mulmod(state2, M22, F))) */\n      add\n        /* \"poseidon-solidity/PoseidonT3.sol\":11891:12056  scratch2 := add(0x07533ec850ba7f98eab9303cace01b4b9e4f2e8b82708cfa9c2fe45a0ae146a0, add(add(mulmod(state0, M02, F), mulmod(state1, M12, F)), mulmod(state2, M22, F))) */\n      swap2\n      pop\n        /* \"poseidon-solidity/PoseidonT3.sol\":12100:12101  F */\n      dup10\n        /* \"poseidon-solidity/PoseidonT3.sol\":12090:12098  scratch0 */\n      dup5\n        /* \"poseidon-solidity/PoseidonT3.sol\":12080:12088  scratch0 */\n      dup6\n        /* \"poseidon-solidity/PoseidonT3.sol\":12073:12102  mulmod(scratch0, scratch0, F) */\n      mulmod\n        /* \"poseidon-solidity/PoseidonT3.sol\":12063:12102  state0 := mulmod(scratch0, scratch0, F) */\n      swap1\n      pop\n        /* \"poseidon-solidity/PoseidonT3.sol\":12165:12166  F */\n      dup10\n        /* \"poseidon-solidity/PoseidonT3.sol\":12155:12163  scratch0 */\n      dup5\n        /* \"poseidon-solidity/PoseidonT3.sol\":12151:12152  F */\n      dup12\n        /* \"poseidon-solidity/PoseidonT3.sol\":12143:12149  state0 */\n      dup4\n        /* \"poseidon-solidity/PoseidonT3.sol\":12135:12141  state0 */\n      dup5\n        /* \"poseidon-solidity/PoseidonT3.sol\":12128:12153  mulmod(state0, state0, F) */\n      mulmod\n        /* \"poseidon-solidity/PoseidonT3.sol\":12121:12167  mulmod(mulmod(state0, state0, F), scratch0, F) */\n      mulmod\n        /* \"poseidon-solidity/PoseidonT3.sol\":12109:12167  scratch0 := mulmod(mulmod(state0, state0, F), scratch0, F) */\n      swap4\n      pop\n        /* \"poseidon-solidity/PoseidonT3.sol\":12339:12340  F */\n      dup10\n        /* \"poseidon-solidity/PoseidonT3.sol\":12334:12337  M20 */\n      dup10\n        /* \"poseidon-solidity/PoseidonT3.sol\":12324:12332  scratch2 */\n      dup4\n        /* \"poseidon-solidity/PoseidonT3.sol\":12317:12341  mulmod(scratch2, M20, F) */\n      mulmod\n        /* \"poseidon-solidity/PoseidonT3.sol\":12312:12313  F */\n      dup11\n        /* \"poseidon-solidity/PoseidonT3.sol\":12307:12310  M10 */\n      0x16ed41e13bb9c0c66ae119424fddbcbc9314dc9fdbdeea55d6c64543dc4903e0\n        /* \"poseidon-solidity/PoseidonT3.sol\":12297:12305  scratch1 */\n      dup6\n        /* \"poseidon-solidity/PoseidonT3.sol\":12290:12314  mulmod(scratch1, M10, F) */\n      mulmod\n        /* \"poseidon-solidity/PoseidonT3.sol\":12286:12287  F */\n      dup12\n        /* \"poseidon-solidity/PoseidonT3.sol\":12281:12284  M00 */\n      0x109b7f411ba0e4c9b2b70caf5c36a7b194be7c11ad24378bfedb68592ba8118b\n        /* \"poseidon-solidity/PoseidonT3.sol\":12271:12279  scratch0 */\n      dup8\n        /* \"poseidon-solidity/PoseidonT3.sol\":12264:12288  mulmod(scratch0, M00, F) */\n      mulmod\n        /* \"poseidon-solidity/PoseidonT3.sol\":12260:12315  add(mulmod(scratch0, M00, F), mulmod(scratch1, M10, F)) */\n      add\n        /* \"poseidon-solidity/PoseidonT3.sol\":12256:12342  add(add(mulmod(scratch0, M00, F), mulmod(scratch1, M10, F)), mulmod(scratch2, M20, F)) */\n      add\n        /* \"poseidon-solidity/PoseidonT3.sol\":12188:12254  0x21576b438e500449a151e4eeaf17b154285c68f42d42c1808a11abf3764c0750 */\n      0x21576b438e500449a151e4eeaf17b154285c68f42d42c1808a11abf3764c0750\n        /* \"poseidon-solidity/PoseidonT3.sol\":12184:12343  add(0x21576b438e500449a151e4eeaf17b154285c68f42d42c1808a11abf3764c0750, add(add(mulmod(scratch0, M00, F), mulmod(scratch1, M10, F)), mulmod(scratch2, M20, F))) */\n      add\n        /* \"poseidon-solidity/PoseidonT3.sol\":12174:12343  state0 := add(0x21576b438e500449a151e4eeaf17b154285c68f42d42c1808a11abf3764c0750, add(add(mulmod(scratch0, M00, F), mulmod(scratch1, M10, F)), mulmod(scratch2, M20, F))) */\n      swap1\n      pop\n        /* \"poseidon-solidity/PoseidonT3.sol\":12515:12516  F */\n      dup10\n        /* \"poseidon-solidity/PoseidonT3.sol\":12510:12513  M21 */\n      dup9\n        /* \"poseidon-solidity/PoseidonT3.sol\":12500:12508  scratch2 */\n      dup4\n        /* \"poseidon-solidity/PoseidonT3.sol\":12493:12517  mulmod(scratch2, M21, F) */\n      mulmod\n        /* \"poseidon-solidity/PoseidonT3.sol\":12488:12489  F */\n      dup11\n        /* \"poseidon-solidity/PoseidonT3.sol\":12483:12486  M11 */\n      0x2e2419f9ec02ec394c9871c832963dc1b89d743c8c7b964029b2311687b1fe23\n        /* \"poseidon-solidity/PoseidonT3.sol\":12473:12481  scratch1 */\n      dup6\n        /* \"poseidon-solidity/PoseidonT3.sol\":12466:12490  mulmod(scratch1, M11, F) */\n      mulmod\n        /* \"poseidon-solidity/PoseidonT3.sol\":12462:12463  F */\n      dup12\n        /* \"poseidon-solidity/PoseidonT3.sol\":12457:12460  M01 */\n      0x2969f27eed31a480b9c36c764379dbca2cc8fdd1415c3dded62940bcde0bd771\n        /* \"poseidon-solidity/PoseidonT3.sol\":12447:12455  scratch0 */\n      dup8\n        /* \"poseidon-solidity/PoseidonT3.sol\":12440:12464  mulmod(scratch0, M01, F) */\n      mulmod\n        /* \"poseidon-solidity/PoseidonT3.sol\":12436:12491  add(mulmod(scratch0, M01, F), mulmod(scratch1, M11, F)) */\n      add\n        /* \"poseidon-solidity/PoseidonT3.sol\":12432:12518  add(add(mulmod(scratch0, M01, F), mulmod(scratch1, M11, F)), mulmod(scratch2, M21, F)) */\n      add\n        /* \"poseidon-solidity/PoseidonT3.sol\":12364:12430  0x2f17c0559b8fe79608ad5ca193d62f10bce8384c815f0906743d6930836d4a9e */\n      0x2f17c0559b8fe79608ad5ca193d62f10bce8384c815f0906743d6930836d4a9e\n        /* \"poseidon-solidity/PoseidonT3.sol\":12360:12519  add(0x2f17c0559b8fe79608ad5ca193d62f10bce8384c815f0906743d6930836d4a9e, add(add(mulmod(scratch0, M01, F), mulmod(scratch1, M11, F)), mulmod(scratch2, M21, F))) */\n      add\n        /* \"poseidon-solidity/PoseidonT3.sol\":12350:12519  state1 := add(0x2f17c0559b8fe79608ad5ca193d62f10bce8384c815f0906743d6930836d4a9e, add(add(mulmod(scratch0, M01, F), mulmod(scratch1, M11, F)), mulmod(scratch2, M21, F))) */\n      swap6\n      pop\n        /* \"poseidon-solidity/PoseidonT3.sol\":12691:12692  F */\n      dup10\n        /* \"poseidon-solidity/PoseidonT3.sol\":12686:12689  M22 */\n      dup8\n        /* \"poseidon-solidity/PoseidonT3.sol\":12676:12684  scratch2 */\n      dup4\n        /* \"poseidon-solidity/PoseidonT3.sol\":12669:12693  mulmod(scratch2, M22, F) */\n      mulmod\n        /* \"poseidon-solidity/PoseidonT3.sol\":12664:12665  F */\n      dup11\n        /* \"poseidon-solidity/PoseidonT3.sol\":12659:12662  M12 */\n      0x176cc029695ad02582a70eff08a6fd99d057e12e58e7d7b6b16cdfabc8ee2911\n        /* \"poseidon-solidity/PoseidonT3.sol\":12649:12657  scratch1 */\n      dup6\n        /* \"poseidon-solidity/PoseidonT3.sol\":12642:12666  mulmod(scratch1, M12, F) */\n      mulmod\n        /* \"poseidon-solidity/PoseidonT3.sol\":12638:12639  F */\n      dup12\n        /* \"poseidon-solidity/PoseidonT3.sol\":12633:12636  M02 */\n      0x143021ec686a3f330d5f9e654638065ce6cd79e28c5b3753326244ee65a1b1a7\n        /* \"poseidon-solidity/PoseidonT3.sol\":12623:12631  scratch0 */\n      dup8\n        /* \"poseidon-solidity/PoseidonT3.sol\":12616:12640  mulmod(scratch0, M02, F) */\n      mulmod\n        /* \"poseidon-solidity/PoseidonT3.sol\":12612:12667  add(mulmod(scratch0, M02, F), mulmod(scratch1, M12, F)) */\n      add\n        /* \"poseidon-solidity/PoseidonT3.sol\":12608:12694  add(add(mulmod(scratch0, M02, F), mulmod(scratch1, M12, F)), mulmod(scratch2, M22, F)) */\n      add\n        /* \"poseidon-solidity/PoseidonT3.sol\":12540:12606  0x2d477e3862d07708a79e8aae946170bc9775a4201318474ae665b0b1b7e2730e */\n      0x2d477e3862d07708a79e8aae946170bc9775a4201318474ae665b0b1b7e2730e\n        /* \"poseidon-solidity/PoseidonT3.sol\":12536:12695  add(0x2d477e3862d07708a79e8aae946170bc9775a4201318474ae665b0b1b7e2730e, add(add(mulmod(scratch0, M02, F), mulmod(scratch1, M12, F)), mulmod(scratch2, M22, F))) */\n      add\n        /* \"poseidon-solidity/PoseidonT3.sol\":12526:12695  state2 := add(0x2d477e3862d07708a79e8aae946170bc9775a4201318474ae665b0b1b7e2730e, add(add(mulmod(scratch0, M02, F), mulmod(scratch1, M12, F)), mulmod(scratch2, M22, F))) */\n      swap5\n      pop\n        /* \"poseidon-solidity/PoseidonT3.sol\":12737:12738  F */\n      dup10\n        /* \"poseidon-solidity/PoseidonT3.sol\":12729:12735  state0 */\n      dup2\n        /* \"poseidon-solidity/PoseidonT3.sol\":12721:12727  state0 */\n      dup3\n        /* \"poseidon-solidity/PoseidonT3.sol\":12714:12739  mulmod(state0, state0, F) */\n      mulmod\n        /* \"poseidon-solidity/PoseidonT3.sol\":12702:12739  scratch0 := mulmod(state0, state0, F) */\n      swap4\n      pop\n        /* \"poseidon-solidity/PoseidonT3.sol\":12802:12803  F */\n      dup10\n        /* \"poseidon-solidity/PoseidonT3.sol\":12794:12800  state0 */\n      dup2\n        /* \"poseidon-solidity/PoseidonT3.sol\":12790:12791  F */\n      dup12\n        /* \"poseidon-solidity/PoseidonT3.sol\":12780:12788  scratch0 */\n      dup7\n        /* \"poseidon-solidity/PoseidonT3.sol\":12770:12778  scratch0 */\n      dup8\n        /* \"poseidon-solidity/PoseidonT3.sol\":12763:12792  mulmod(scratch0, scratch0, F) */\n      mulmod\n        /* \"poseidon-solidity/PoseidonT3.sol\":12756:12804  mulmod(mulmod(scratch0, scratch0, F), state0, F) */\n      mulmod\n        /* \"poseidon-solidity/PoseidonT3.sol\":12746:12804  state0 := mulmod(mulmod(scratch0, scratch0, F), state0, F) */\n      swap1\n      pop\n        /* \"poseidon-solidity/PoseidonT3.sol\":12972:12973  F */\n      dup10\n        /* \"poseidon-solidity/PoseidonT3.sol\":12967:12970  M20 */\n      dup10\n        /* \"poseidon-solidity/PoseidonT3.sol\":12959:12965  state2 */\n      dup7\n        /* \"poseidon-solidity/PoseidonT3.sol\":12952:12974  mulmod(state2, M20, F) */\n      mulmod\n        /* \"poseidon-solidity/PoseidonT3.sol\":12947:12948  F */\n      dup11\n        /* \"poseidon-solidity/PoseidonT3.sol\":12942:12945  M10 */\n      0x16ed41e13bb9c0c66ae119424fddbcbc9314dc9fdbdeea55d6c64543dc4903e0\n        /* \"poseidon-solidity/PoseidonT3.sol\":12934:12940  state1 */\n      dup9\n        /* \"poseidon-solidity/PoseidonT3.sol\":12927:12949  mulmod(state1, M10, F) */\n      mulmod\n        /* \"poseidon-solidity/PoseidonT3.sol\":12923:12924  F */\n      dup12\n        /* \"poseidon-solidity/PoseidonT3.sol\":12918:12921  M00 */\n      0x109b7f411ba0e4c9b2b70caf5c36a7b194be7c11ad24378bfedb68592ba8118b\n        /* \"poseidon-solidity/PoseidonT3.sol\":12910:12916  state0 */\n      dup5\n        /* \"poseidon-solidity/PoseidonT3.sol\":12903:12925  mulmod(state0, M00, F) */\n      mulmod\n        /* \"poseidon-solidity/PoseidonT3.sol\":12899:12950  add(mulmod(state0, M00, F), mulmod(state1, M10, F)) */\n      add\n        /* \"poseidon-solidity/PoseidonT3.sol\":12895:12975  add(add(mulmod(state0, M00, F), mulmod(state1, M10, F)), mulmod(state2, M20, F)) */\n      add\n        /* \"poseidon-solidity/PoseidonT3.sol\":12827:12893  0x162f5243967064c390e095577984f291afba2266c38f5abcd89be0f5b2747eab */\n      0x162f5243967064c390e095577984f291afba2266c38f5abcd89be0f5b2747eab\n        /* \"poseidon-solidity/PoseidonT3.sol\":12823:12976  add(0x162f5243967064c390e095577984f291afba2266c38f5abcd89be0f5b2747eab, add(add(mulmod(state0, M00, F), mulmod(state1, M10, F)), mulmod(state2, M20, F))) */\n      add\n        /* \"poseidon-solidity/PoseidonT3.sol\":12811:12976  scratch0 := add(0x162f5243967064c390e095577984f291afba2266c38f5abcd89be0f5b2747eab, add(add(mulmod(state0, M00, F), mulmod(state1, M10, F)), mulmod(state2, M20, F))) */\n      swap4\n      pop\n        /* \"poseidon-solidity/PoseidonT3.sol\":13144:13145  F */\n      dup10\n        /* \"poseidon-solidity/PoseidonT3.sol\":13139:13142  M21 */\n      dup9\n        /* \"poseidon-solidity/PoseidonT3.sol\":13131:13137  state2 */\n      dup7\n        /* \"poseidon-solidity/PoseidonT3.sol\":13124:13146  mulmod(state2, M21, F) */\n      mulmod\n        /* \"poseidon-solidity/PoseidonT3.sol\":13119:13120  F */\n      dup11\n        /* \"poseidon-solidity/PoseidonT3.sol\":13114:13117  M11 */\n      0x2e2419f9ec02ec394c9871c832963dc1b89d743c8c7b964029b2311687b1fe23\n        /* \"poseidon-solidity/PoseidonT3.sol\":13106:13112  state1 */\n      dup9\n        /* \"poseidon-solidity/PoseidonT3.sol\":13099:13121  mulmod(state1, M11, F) */\n      mulmod\n        /* \"poseidon-solidity/PoseidonT3.sol\":13095:13096  F */\n      dup12\n        /* \"poseidon-solidity/PoseidonT3.sol\":13090:13093  M01 */\n      0x2969f27eed31a480b9c36c764379dbca2cc8fdd1415c3dded62940bcde0bd771\n        /* \"poseidon-solidity/PoseidonT3.sol\":13082:13088  state0 */\n      dup5\n        /* \"poseidon-solidity/PoseidonT3.sol\":13075:13097  mulmod(state0, M01, F) */\n      mulmod\n        /* \"poseidon-solidity/PoseidonT3.sol\":13071:13122  add(mulmod(state0, M01, F), mulmod(state1, M11, F)) */\n      add\n        /* \"poseidon-solidity/PoseidonT3.sol\":13067:13147  add(add(mulmod(state0, M01, F), mulmod(state1, M11, F)), mulmod(state2, M21, F)) */\n      add\n        /* \"poseidon-solidity/PoseidonT3.sol\":12999:13065  0x2b4cb233ede9ba48264ecd2c8ae50d1ad7a8596a87f29f8a7777a70092393311 */\n      0x2b4cb233ede9ba48264ecd2c8ae50d1ad7a8596a87f29f8a7777a70092393311\n        /* \"poseidon-solidity/PoseidonT3.sol\":12995:13148  add(0x2b4cb233ede9ba48264ecd2c8ae50d1ad7a8596a87f29f8a7777a70092393311, add(add(mulmod(state0, M01, F), mulmod(state1, M11, F)), mulmod(state2, M21, F))) */\n      add\n        /* \"poseidon-solidity/PoseidonT3.sol\":12983:13148  scratch1 := add(0x2b4cb233ede9ba48264ecd2c8ae50d1ad7a8596a87f29f8a7777a70092393311, add(add(mulmod(state0, M01, F), mulmod(state1, M11, F)), mulmod(state2, M21, F))) */\n      swap3\n      pop\n        /* \"poseidon-solidity/PoseidonT3.sol\":13316:13317  F */\n      dup10\n        /* \"poseidon-solidity/PoseidonT3.sol\":13311:13314  M22 */\n      dup8\n        /* \"poseidon-solidity/PoseidonT3.sol\":13303:13309  state2 */\n      dup7\n        /* \"poseidon-solidity/PoseidonT3.sol\":13296:13318  mulmod(state2, M22, F) */\n      mulmod\n        /* \"poseidon-solidity/PoseidonT3.sol\":13291:13292  F */\n      dup11\n        /* \"poseidon-solidity/PoseidonT3.sol\":13286:13289  M12 */\n      0x176cc029695ad02582a70eff08a6fd99d057e12e58e7d7b6b16cdfabc8ee2911\n        /* \"poseidon-solidity/PoseidonT3.sol\":13278:13284  state1 */\n      dup9\n        /* \"poseidon-solidity/PoseidonT3.sol\":13271:13293  mulmod(state1, M12, F) */\n      mulmod\n        /* \"poseidon-solidity/PoseidonT3.sol\":13267:13268  F */\n      dup12\n        /* \"poseidon-solidity/PoseidonT3.sol\":13262:13265  M02 */\n      0x143021ec686a3f330d5f9e654638065ce6cd79e28c5b3753326244ee65a1b1a7\n        /* \"poseidon-solidity/PoseidonT3.sol\":13254:13260  state0 */\n      dup5\n        /* \"poseidon-solidity/PoseidonT3.sol\":13247:13269  mulmod(state0, M02, F) */\n      mulmod\n        /* \"poseidon-solidity/PoseidonT3.sol\":13243:13294  add(mulmod(state0, M02, F), mulmod(state1, M12, F)) */\n      add\n        /* \"poseidon-solidity/PoseidonT3.sol\":13239:13319  add(add(mulmod(state0, M02, F), mulmod(state1, M12, F)), mulmod(state2, M22, F)) */\n      add\n        /* \"poseidon-solidity/PoseidonT3.sol\":13171:13237  0x2c8fbcb2dd8573dc1dbaf8f4622854776db2eece6d85c4cf4254e7c35e03b07a */\n      0x2c8fbcb2dd8573dc1dbaf8f4622854776db2eece6d85c4cf4254e7c35e03b07a\n        /* \"poseidon-solidity/PoseidonT3.sol\":13167:13320  add(0x2c8fbcb2dd8573dc1dbaf8f4622854776db2eece6d85c4cf4254e7c35e03b07a, add(add(mulmod(state0, M02, F), mulmod(state1, M12, F)), mulmod(state2, M22, F))) */\n      add\n        /* \"poseidon-solidity/PoseidonT3.sol\":13155:13320  scratch2 := add(0x2c8fbcb2dd8573dc1dbaf8f4622854776db2eece6d85c4cf4254e7c35e03b07a, add(add(mulmod(state0, M02, F), mulmod(state1, M12, F)), mulmod(state2, M22, F))) */\n      swap2\n      pop\n        /* \"poseidon-solidity/PoseidonT3.sol\":13364:13365  F */\n      dup10\n        /* \"poseidon-solidity/PoseidonT3.sol\":13354:13362  scratch0 */\n      dup5\n        /* \"poseidon-solidity/PoseidonT3.sol\":13344:13352  scratch0 */\n      dup6\n        /* \"poseidon-solidity/PoseidonT3.sol\":13337:13366  mulmod(scratch0, scratch0, F) */\n      mulmod\n        /* \"poseidon-solidity/PoseidonT3.sol\":13327:13366  state0 := mulmod(scratch0, scratch0, F) */\n      swap1\n      pop\n        /* \"poseidon-solidity/PoseidonT3.sol\":13429:13430  F */\n      dup10\n        /* \"poseidon-solidity/PoseidonT3.sol\":13419:13427  scratch0 */\n      dup5\n        /* \"poseidon-solidity/PoseidonT3.sol\":13415:13416  F */\n      dup12\n        /* \"poseidon-solidity/PoseidonT3.sol\":13407:13413  state0 */\n      dup4\n        /* \"poseidon-solidity/PoseidonT3.sol\":13399:13405  state0 */\n      dup5\n        /* \"poseidon-solidity/PoseidonT3.sol\":13392:13417  mulmod(state0, state0, F) */\n      mulmod\n        /* \"poseidon-solidity/PoseidonT3.sol\":13385:13431  mulmod(mulmod(state0, state0, F), scratch0, F) */\n      mulmod\n        /* \"poseidon-solidity/PoseidonT3.sol\":13373:13431  scratch0 := mulmod(mulmod(state0, state0, F), scratch0, F) */\n      swap4\n      pop\n        /* \"poseidon-solidity/PoseidonT3.sol\":13603:13604  F */\n      dup10\n        /* \"poseidon-solidity/PoseidonT3.sol\":13598:13601  M20 */\n      dup10\n        /* \"poseidon-solidity/PoseidonT3.sol\":13588:13596  scratch2 */\n      dup4\n        /* \"poseidon-solidity/PoseidonT3.sol\":13581:13605  mulmod(scratch2, M20, F) */\n      mulmod\n        /* \"poseidon-solidity/PoseidonT3.sol\":13576:13577  F */\n      dup11\n        /* \"poseidon-solidity/PoseidonT3.sol\":13571:13574  M10 */\n      0x16ed41e13bb9c0c66ae119424fddbcbc9314dc9fdbdeea55d6c64543dc4903e0\n        /* \"poseidon-solidity/PoseidonT3.sol\":13561:13569  scratch1 */\n      dup6\n        /* \"poseidon-solidity/PoseidonT3.sol\":13554:13578  mulmod(scratch1, M10, F) */\n      mulmod\n        /* \"poseidon-solidity/PoseidonT3.sol\":13550:13551  F */\n      dup12\n        /* \"poseidon-solidity/PoseidonT3.sol\":13545:13548  M00 */\n      0x109b7f411ba0e4c9b2b70caf5c36a7b194be7c11ad24378bfedb68592ba8118b\n        /* \"poseidon-solidity/PoseidonT3.sol\":13535:13543  scratch0 */\n      dup8\n        /* \"poseidon-solidity/PoseidonT3.sol\":13528:13552  mulmod(scratch0, M00, F) */\n      mulmod\n        /* \"poseidon-solidity/PoseidonT3.sol\":13524:13579  add(mulmod(scratch0, M00, F), mulmod(scratch1, M10, F)) */\n      add\n        /* \"poseidon-solidity/PoseidonT3.sol\":13520:13606  add(add(mulmod(scratch0, M00, F), mulmod(scratch1, M10, F)), mulmod(scratch2, M20, F)) */\n      add\n        /* \"poseidon-solidity/PoseidonT3.sol\":13452:13518  0x1d6f347725e4816af2ff453f0cd56b199e1b61e9f601e9ade5e88db870949da9 */\n      0x1d6f347725e4816af2ff453f0cd56b199e1b61e9f601e9ade5e88db870949da9\n        /* \"poseidon-solidity/PoseidonT3.sol\":13448:13607  add(0x1d6f347725e4816af2ff453f0cd56b199e1b61e9f601e9ade5e88db870949da9, add(add(mulmod(scratch0, M00, F), mulmod(scratch1, M10, F)), mulmod(scratch2, M20, F))) */\n      add\n        /* \"poseidon-solidity/PoseidonT3.sol\":13438:13607  state0 := add(0x1d6f347725e4816af2ff453f0cd56b199e1b61e9f601e9ade5e88db870949da9, add(add(mulmod(scratch0, M00, F), mulmod(scratch1, M10, F)), mulmod(scratch2, M20, F))) */\n      swap1\n      pop\n        /* \"poseidon-solidity/PoseidonT3.sol\":13779:13780  F */\n      dup10\n        /* \"poseidon-solidity/PoseidonT3.sol\":13774:13777  M21 */\n      dup9\n        /* \"poseidon-solidity/PoseidonT3.sol\":13764:13772  scratch2 */\n      dup4\n        /* \"poseidon-solidity/PoseidonT3.sol\":13757:13781  mulmod(scratch2, M21, F) */\n      mulmod\n        /* \"poseidon-solidity/PoseidonT3.sol\":13752:13753  F */\n      dup11\n        /* \"poseidon-solidity/PoseidonT3.sol\":13747:13750  M11 */\n      0x2e2419f9ec02ec394c9871c832963dc1b89d743c8c7b964029b2311687b1fe23\n        /* \"poseidon-solidity/PoseidonT3.sol\":13737:13745  scratch1 */\n      dup6\n        /* \"poseidon-solidity/PoseidonT3.sol\":13730:13754  mulmod(scratch1, M11, F) */\n      mulmod\n        /* \"poseidon-solidity/PoseidonT3.sol\":13726:13727  F */\n      dup12\n        /* \"poseidon-solidity/PoseidonT3.sol\":13721:13724  M01 */\n      0x2969f27eed31a480b9c36c764379dbca2cc8fdd1415c3dded62940bcde0bd771\n        /* \"poseidon-solidity/PoseidonT3.sol\":13711:13719  scratch0 */\n      dup8\n        /* \"poseidon-solidity/PoseidonT3.sol\":13704:13728  mulmod(scratch0, M01, F) */\n      mulmod\n        /* \"poseidon-solidity/PoseidonT3.sol\":13700:13755  add(mulmod(scratch0, M01, F), mulmod(scratch1, M11, F)) */\n      add\n        /* \"poseidon-solidity/PoseidonT3.sol\":13696:13782  add(add(mulmod(scratch0, M01, F), mulmod(scratch1, M11, F)), mulmod(scratch2, M21, F)) */\n      add\n        /* \"poseidon-solidity/PoseidonT3.sol\":13628:13694  0x204b0c397f4ebe71ebc2d8b3df5b913df9e6ac02b68d31324cd49af5c4565529 */\n      0x204b0c397f4ebe71ebc2d8b3df5b913df9e6ac02b68d31324cd49af5c4565529\n        /* \"poseidon-solidity/PoseidonT3.sol\":13624:13783  add(0x204b0c397f4ebe71ebc2d8b3df5b913df9e6ac02b68d31324cd49af5c4565529, add(add(mulmod(scratch0, M01, F), mulmod(scratch1, M11, F)), mulmod(scratch2, M21, F))) */\n      add\n        /* \"poseidon-solidity/PoseidonT3.sol\":13614:13783  state1 := add(0x204b0c397f4ebe71ebc2d8b3df5b913df9e6ac02b68d31324cd49af5c4565529, add(add(mulmod(scratch0, M01, F), mulmod(scratch1, M11, F)), mulmod(scratch2, M21, F))) */\n      swap6\n      pop\n        /* \"poseidon-solidity/PoseidonT3.sol\":13955:13956  F */\n      dup10\n        /* \"poseidon-solidity/PoseidonT3.sol\":13950:13953  M22 */\n      dup8\n        /* \"poseidon-solidity/PoseidonT3.sol\":13940:13948  scratch2 */\n      dup4\n        /* \"poseidon-solidity/PoseidonT3.sol\":13933:13957  mulmod(scratch2, M22, F) */\n      mulmod\n        /* \"poseidon-solidity/PoseidonT3.sol\":13928:13929  F */\n      dup11\n        /* \"poseidon-solidity/PoseidonT3.sol\":13923:13926  M12 */\n      0x176cc029695ad02582a70eff08a6fd99d057e12e58e7d7b6b16cdfabc8ee2911\n        /* \"poseidon-solidity/PoseidonT3.sol\":13913:13921  scratch1 */\n      dup6\n        /* \"poseidon-solidity/PoseidonT3.sol\":13906:13930  mulmod(scratch1, M12, F) */\n      mulmod\n        /* \"poseidon-solidity/PoseidonT3.sol\":13902:13903  F */\n      dup12\n        /* \"poseidon-solidity/PoseidonT3.sol\":13897:13900  M02 */\n      0x143021ec686a3f330d5f9e654638065ce6cd79e28c5b3753326244ee65a1b1a7\n        /* \"poseidon-solidity/PoseidonT3.sol\":13887:13895  scratch0 */\n      dup8\n        /* \"poseidon-solidity/PoseidonT3.sol\":13880:13904  mulmod(scratch0, M02, F) */\n      mulmod\n        /* \"poseidon-solidity/PoseidonT3.sol\":13876:13931  add(mulmod(scratch0, M02, F), mulmod(scratch1, M12, F)) */\n      add\n        /* \"poseidon-solidity/PoseidonT3.sol\":13872:13958  add(add(mulmod(scratch0, M02, F), mulmod(scratch1, M12, F)), mulmod(scratch2, M22, F)) */\n      add\n        /* \"poseidon-solidity/PoseidonT3.sol\":13804:13870  0x0c4cb9dc3c4fd8174f1149b3c63c3c2f9ecb827cd7dc25534ff8fb75bc79c502 */\n      0x0c4cb9dc3c4fd8174f1149b3c63c3c2f9ecb827cd7dc25534ff8fb75bc79c502\n        /* \"poseidon-solidity/PoseidonT3.sol\":13800:13959  add(0x0c4cb9dc3c4fd8174f1149b3c63c3c2f9ecb827cd7dc25534ff8fb75bc79c502, add(add(mulmod(scratch0, M02, F), mulmod(scratch1, M12, F)), mulmod(scratch2, M22, F))) */\n      add\n        /* \"poseidon-solidity/PoseidonT3.sol\":13790:13959  state2 := add(0x0c4cb9dc3c4fd8174f1149b3c63c3c2f9ecb827cd7dc25534ff8fb75bc79c502, add(add(mulmod(scratch0, M02, F), mulmod(scratch1, M12, F)), mulmod(scratch2, M22, F))) */\n      swap5\n      pop\n        /* \"poseidon-solidity/PoseidonT3.sol\":14001:14002  F */\n      dup10\n        /* \"poseidon-solidity/PoseidonT3.sol\":13993:13999  state0 */\n      dup2\n        /* \"poseidon-solidity/PoseidonT3.sol\":13985:13991  state0 */\n      dup3\n        /* \"poseidon-solidity/PoseidonT3.sol\":13978:14003  mulmod(state0, state0, F) */\n      mulmod\n        /* \"poseidon-solidity/PoseidonT3.sol\":13966:14003  scratch0 := mulmod(state0, state0, F) */\n      swap4\n      pop\n        /* \"poseidon-solidity/PoseidonT3.sol\":14066:14067  F */\n      dup10\n        /* \"poseidon-solidity/PoseidonT3.sol\":14058:14064  state0 */\n      dup2\n        /* \"poseidon-solidity/PoseidonT3.sol\":14054:14055  F */\n      dup12\n        /* \"poseidon-solidity/PoseidonT3.sol\":14044:14052  scratch0 */\n      dup7\n        /* \"poseidon-solidity/PoseidonT3.sol\":14034:14042  scratch0 */\n      dup8\n        /* \"poseidon-solidity/PoseidonT3.sol\":14027:14056  mulmod(scratch0, scratch0, F) */\n      mulmod\n        /* \"poseidon-solidity/PoseidonT3.sol\":14020:14068  mulmod(mulmod(scratch0, scratch0, F), state0, F) */\n      mulmod\n        /* \"poseidon-solidity/PoseidonT3.sol\":14010:14068  state0 := mulmod(mulmod(scratch0, scratch0, F), state0, F) */\n      swap1\n      pop\n        /* \"poseidon-solidity/PoseidonT3.sol\":14236:14237  F */\n      dup10\n        /* \"poseidon-solidity/PoseidonT3.sol\":14231:14234  M20 */\n      dup10\n        /* \"poseidon-solidity/PoseidonT3.sol\":14223:14229  state2 */\n      dup7\n        /* \"poseidon-solidity/PoseidonT3.sol\":14216:14238  mulmod(state2, M20, F) */\n      mulmod\n        /* \"poseidon-solidity/PoseidonT3.sol\":14211:14212  F */\n      dup11\n        /* \"poseidon-solidity/PoseidonT3.sol\":14206:14209  M10 */\n      0x16ed41e13bb9c0c66ae119424fddbcbc9314dc9fdbdeea55d6c64543dc4903e0\n        /* \"poseidon-solidity/PoseidonT3.sol\":14198:14204  state1 */\n      dup9\n        /* \"poseidon-solidity/PoseidonT3.sol\":14191:14213  mulmod(state1, M10, F) */\n      mulmod\n        /* \"poseidon-solidity/PoseidonT3.sol\":14187:14188  F */\n      dup12\n        /* \"poseidon-solidity/PoseidonT3.sol\":14182:14185  M00 */\n      0x109b7f411ba0e4c9b2b70caf5c36a7b194be7c11ad24378bfedb68592ba8118b\n        /* \"poseidon-solidity/PoseidonT3.sol\":14174:14180  state0 */\n      dup5\n        /* \"poseidon-solidity/PoseidonT3.sol\":14167:14189  mulmod(state0, M00, F) */\n      mulmod\n        /* \"poseidon-solidity/PoseidonT3.sol\":14163:14214  add(mulmod(state0, M00, F), mulmod(state1, M10, F)) */\n      add\n        /* \"poseidon-solidity/PoseidonT3.sol\":14159:14239  add(add(mulmod(state0, M00, F), mulmod(state1, M10, F)), mulmod(state2, M20, F)) */\n      add\n        /* \"poseidon-solidity/PoseidonT3.sol\":14091:14157  0x174ad61a1448c899a25416474f4930301e5c49475279e0639a616ddc45bc7b54 */\n      0x174ad61a1448c899a25416474f4930301e5c49475279e0639a616ddc45bc7b54\n        /* \"poseidon-solidity/PoseidonT3.sol\":14087:14240  add(0x174ad61a1448c899a25416474f4930301e5c49475279e0639a616ddc45bc7b54, add(add(mulmod(state0, M00, F), mulmod(state1, M10, F)), mulmod(state2, M20, F))) */\n      add\n        /* \"poseidon-solidity/PoseidonT3.sol\":14075:14240  scratch0 := add(0x174ad61a1448c899a25416474f4930301e5c49475279e0639a616ddc45bc7b54, add(add(mulmod(state0, M00, F), mulmod(state1, M10, F)), mulmod(state2, M20, F))) */\n      swap4\n      pop\n        /* \"poseidon-solidity/PoseidonT3.sol\":14408:14409  F */\n      dup10\n        /* \"poseidon-solidity/PoseidonT3.sol\":14403:14406  M21 */\n      dup9\n        /* \"poseidon-solidity/PoseidonT3.sol\":14395:14401  state2 */\n      dup7\n        /* \"poseidon-solidity/PoseidonT3.sol\":14388:14410  mulmod(state2, M21, F) */\n      mulmod\n        /* \"poseidon-solidity/PoseidonT3.sol\":14383:14384  F */\n      dup11\n        /* \"poseidon-solidity/PoseidonT3.sol\":14378:14381  M11 */\n      0x2e2419f9ec02ec394c9871c832963dc1b89d743c8c7b964029b2311687b1fe23\n        /* \"poseidon-solidity/PoseidonT3.sol\":14370:14376  state1 */\n      dup9\n        /* \"poseidon-solidity/PoseidonT3.sol\":14363:14385  mulmod(state1, M11, F) */\n      mulmod\n        /* \"poseidon-solidity/PoseidonT3.sol\":14359:14360  F */\n      dup12\n        /* \"poseidon-solidity/PoseidonT3.sol\":14354:14357  M01 */\n      0x2969f27eed31a480b9c36c764379dbca2cc8fdd1415c3dded62940bcde0bd771\n        /* \"poseidon-solidity/PoseidonT3.sol\":14346:14352  state0 */\n      dup5\n        /* \"poseidon-solidity/PoseidonT3.sol\":14339:14361  mulmod(state0, M01, F) */\n      mulmod\n        /* \"poseidon-solidity/PoseidonT3.sol\":14335:14386  add(mulmod(state0, M01, F), mulmod(state1, M11, F)) */\n      add\n        /* \"poseidon-solidity/PoseidonT3.sol\":14331:14411  add(add(mulmod(state0, M01, F), mulmod(state1, M11, F)), mulmod(state2, M21, F)) */\n      add\n        /* \"poseidon-solidity/PoseidonT3.sol\":14263:14329  0x1a96177bcf4d8d89f759df4ec2f3cde2eaaa28c177cc0fa13a9816d49a38d2ef */\n      0x1a96177bcf4d8d89f759df4ec2f3cde2eaaa28c177cc0fa13a9816d49a38d2ef\n        /* \"poseidon-solidity/PoseidonT3.sol\":14259:14412  add(0x1a96177bcf4d8d89f759df4ec2f3cde2eaaa28c177cc0fa13a9816d49a38d2ef, add(add(mulmod(state0, M01, F), mulmod(state1, M11, F)), mulmod(state2, M21, F))) */\n      add\n        /* \"poseidon-solidity/PoseidonT3.sol\":14247:14412  scratch1 := add(0x1a96177bcf4d8d89f759df4ec2f3cde2eaaa28c177cc0fa13a9816d49a38d2ef, add(add(mulmod(state0, M01, F), mulmod(state1, M11, F)), mulmod(state2, M21, F))) */\n      swap3\n      pop\n        /* \"poseidon-solidity/PoseidonT3.sol\":14580:14581  F */\n      dup10\n        /* \"poseidon-solidity/PoseidonT3.sol\":14575:14578  M22 */\n      dup8\n        /* \"poseidon-solidity/PoseidonT3.sol\":14567:14573  state2 */\n      dup7\n        /* \"poseidon-solidity/PoseidonT3.sol\":14560:14582  mulmod(state2, M22, F) */\n      mulmod\n        /* \"poseidon-solidity/PoseidonT3.sol\":14555:14556  F */\n      dup11\n        /* \"poseidon-solidity/PoseidonT3.sol\":14550:14553  M12 */\n      0x176cc029695ad02582a70eff08a6fd99d057e12e58e7d7b6b16cdfabc8ee2911\n        /* \"poseidon-solidity/PoseidonT3.sol\":14542:14548  state1 */\n      dup9\n        /* \"poseidon-solidity/PoseidonT3.sol\":14535:14557  mulmod(state1, M12, F) */\n      mulmod\n        /* \"poseidon-solidity/PoseidonT3.sol\":14531:14532  F */\n      dup12\n        /* \"poseidon-solidity/PoseidonT3.sol\":14526:14529  M02 */\n      0x143021ec686a3f330d5f9e654638065ce6cd79e28c5b3753326244ee65a1b1a7\n        /* \"poseidon-solidity/PoseidonT3.sol\":14518:14524  state0 */\n      dup5\n        /* \"poseidon-solidity/PoseidonT3.sol\":14511:14533  mulmod(state0, M02, F) */\n      mulmod\n        /* \"poseidon-solidity/PoseidonT3.sol\":14507:14558  add(mulmod(state0, M02, F), mulmod(state1, M12, F)) */\n      add\n        /* \"poseidon-solidity/PoseidonT3.sol\":14503:14583  add(add(mulmod(state0, M02, F), mulmod(state1, M12, F)), mulmod(state2, M22, F)) */\n      add\n        /* \"poseidon-solidity/PoseidonT3.sol\":14435:14501  0x066d04b24331d71cd0ef8054bc60c4ff05202c126a233c1a8242ace360b8a30a */\n      0x066d04b24331d71cd0ef8054bc60c4ff05202c126a233c1a8242ace360b8a30a\n        /* \"poseidon-solidity/PoseidonT3.sol\":14431:14584  add(0x066d04b24331d71cd0ef8054bc60c4ff05202c126a233c1a8242ace360b8a30a, add(add(mulmod(state0, M02, F), mulmod(state1, M12, F)), mulmod(state2, M22, F))) */\n      add\n        /* \"poseidon-solidity/PoseidonT3.sol\":14419:14584  scratch2 := add(0x066d04b24331d71cd0ef8054bc60c4ff05202c126a233c1a8242ace360b8a30a, add(add(mulmod(state0, M02, F), mulmod(state1, M12, F)), mulmod(state2, M22, F))) */\n      swap2\n      pop\n        /* \"poseidon-solidity/PoseidonT3.sol\":14628:14629  F */\n      dup10\n        /* \"poseidon-solidity/PoseidonT3.sol\":14618:14626  scratch0 */\n      dup5\n        /* \"poseidon-solidity/PoseidonT3.sol\":14608:14616  scratch0 */\n      dup6\n        /* \"poseidon-solidity/PoseidonT3.sol\":14601:14630  mulmod(scratch0, scratch0, F) */\n      mulmod\n        /* \"poseidon-solidity/PoseidonT3.sol\":14591:14630  state0 := mulmod(scratch0, scratch0, F) */\n      swap1\n      pop\n        /* \"poseidon-solidity/PoseidonT3.sol\":14693:14694  F */\n      dup10\n        /* \"poseidon-solidity/PoseidonT3.sol\":14683:14691  scratch0 */\n      dup5\n        /* \"poseidon-solidity/PoseidonT3.sol\":14679:14680  F */\n      dup12\n        /* \"poseidon-solidity/PoseidonT3.sol\":14671:14677  state0 */\n      dup4\n        /* \"poseidon-solidity/PoseidonT3.sol\":14663:14669  state0 */\n      dup5\n        /* \"poseidon-solidity/PoseidonT3.sol\":14656:14681  mulmod(state0, state0, F) */\n      mulmod\n        /* \"poseidon-solidity/PoseidonT3.sol\":14649:14695  mulmod(mulmod(state0, state0, F), scratch0, F) */\n      mulmod\n        /* \"poseidon-solidity/PoseidonT3.sol\":14637:14695  scratch0 := mulmod(mulmod(state0, state0, F), scratch0, F) */\n      swap4\n      pop\n        /* \"poseidon-solidity/PoseidonT3.sol\":14867:14868  F */\n      dup10\n        /* \"poseidon-solidity/PoseidonT3.sol\":14862:14865  M20 */\n      dup10\n        /* \"poseidon-solidity/PoseidonT3.sol\":14852:14860  scratch2 */\n      dup4\n        /* \"poseidon-solidity/PoseidonT3.sol\":14845:14869  mulmod(scratch2, M20, F) */\n      mulmod\n        /* \"poseidon-solidity/PoseidonT3.sol\":14840:14841  F */\n      dup11\n        /* \"poseidon-solidity/PoseidonT3.sol\":14835:14838  M10 */\n      0x16ed41e13bb9c0c66ae119424fddbcbc9314dc9fdbdeea55d6c64543dc4903e0\n        /* \"poseidon-solidity/PoseidonT3.sol\":14825:14833  scratch1 */\n      dup6\n        /* \"poseidon-solidity/PoseidonT3.sol\":14818:14842  mulmod(scratch1, M10, F) */\n      mulmod\n        /* \"poseidon-solidity/PoseidonT3.sol\":14814:14815  F */\n      dup12\n        /* \"poseidon-solidity/PoseidonT3.sol\":14809:14812  M00 */\n      0x109b7f411ba0e4c9b2b70caf5c36a7b194be7c11ad24378bfedb68592ba8118b\n        /* \"poseidon-solidity/PoseidonT3.sol\":14799:14807  scratch0 */\n      dup8\n        /* \"poseidon-solidity/PoseidonT3.sol\":14792:14816  mulmod(scratch0, M00, F) */\n      mulmod\n        /* \"poseidon-solidity/PoseidonT3.sol\":14788:14843  add(mulmod(scratch0, M00, F), mulmod(scratch1, M10, F)) */\n      add\n        /* \"poseidon-solidity/PoseidonT3.sol\":14784:14870  add(add(mulmod(scratch0, M00, F), mulmod(scratch1, M10, F)), mulmod(scratch2, M20, F)) */\n      add\n        /* \"poseidon-solidity/PoseidonT3.sol\":14716:14782  0x2a4c4fc6ec0b0cf52195782871c6dd3b381cc65f72e02ad527037a62aa1bd804 */\n      0x2a4c4fc6ec0b0cf52195782871c6dd3b381cc65f72e02ad527037a62aa1bd804\n        /* \"poseidon-solidity/PoseidonT3.sol\":14712:14871  add(0x2a4c4fc6ec0b0cf52195782871c6dd3b381cc65f72e02ad527037a62aa1bd804, add(add(mulmod(scratch0, M00, F), mulmod(scratch1, M10, F)), mulmod(scratch2, M20, F))) */\n      add\n        /* \"poseidon-solidity/PoseidonT3.sol\":14702:14871  state0 := add(0x2a4c4fc6ec0b0cf52195782871c6dd3b381cc65f72e02ad527037a62aa1bd804, add(add(mulmod(scratch0, M00, F), mulmod(scratch1, M10, F)), mulmod(scratch2, M20, F))) */\n      swap1\n      pop\n        /* \"poseidon-solidity/PoseidonT3.sol\":15043:15044  F */\n      dup10\n        /* \"poseidon-solidity/PoseidonT3.sol\":15038:15041  M21 */\n      dup9\n        /* \"poseidon-solidity/PoseidonT3.sol\":15028:15036  scratch2 */\n      dup4\n        /* \"poseidon-solidity/PoseidonT3.sol\":15021:15045  mulmod(scratch2, M21, F) */\n      mulmod\n        /* \"poseidon-solidity/PoseidonT3.sol\":15016:15017  F */\n      dup11\n        /* \"poseidon-solidity/PoseidonT3.sol\":15011:15014  M11 */\n      0x2e2419f9ec02ec394c9871c832963dc1b89d743c8c7b964029b2311687b1fe23\n        /* \"poseidon-solidity/PoseidonT3.sol\":15001:15009  scratch1 */\n      dup6\n        /* \"poseidon-solidity/PoseidonT3.sol\":14994:15018  mulmod(scratch1, M11, F) */\n      mulmod\n        /* \"poseidon-solidity/PoseidonT3.sol\":14990:14991  F */\n      dup12\n        /* \"poseidon-solidity/PoseidonT3.sol\":14985:14988  M01 */\n      0x2969f27eed31a480b9c36c764379dbca2cc8fdd1415c3dded62940bcde0bd771\n        /* \"poseidon-solidity/PoseidonT3.sol\":14975:14983  scratch0 */\n      dup8\n        /* \"poseidon-solidity/PoseidonT3.sol\":14968:14992  mulmod(scratch0, M01, F) */\n      mulmod\n        /* \"poseidon-solidity/PoseidonT3.sol\":14964:15019  add(mulmod(scratch0, M01, F), mulmod(scratch1, M11, F)) */\n      add\n        /* \"poseidon-solidity/PoseidonT3.sol\":14960:15046  add(add(mulmod(scratch0, M01, F), mulmod(scratch1, M11, F)), mulmod(scratch2, M21, F)) */\n      add\n        /* \"poseidon-solidity/PoseidonT3.sol\":14892:14958  0x13ab2d136ccf37d447e9f2e14a7cedc95e727f8446f6d9d7e55afc01219fd649 */\n      0x13ab2d136ccf37d447e9f2e14a7cedc95e727f8446f6d9d7e55afc01219fd649\n        /* \"poseidon-solidity/PoseidonT3.sol\":14888:15047  add(0x13ab2d136ccf37d447e9f2e14a7cedc95e727f8446f6d9d7e55afc01219fd649, add(add(mulmod(scratch0, M01, F), mulmod(scratch1, M11, F)), mulmod(scratch2, M21, F))) */\n      add\n        /* \"poseidon-solidity/PoseidonT3.sol\":14878:15047  state1 := add(0x13ab2d136ccf37d447e9f2e14a7cedc95e727f8446f6d9d7e55afc01219fd649, add(add(mulmod(scratch0, M01, F), mulmod(scratch1, M11, F)), mulmod(scratch2, M21, F))) */\n      swap6\n      pop\n        /* \"poseidon-solidity/PoseidonT3.sol\":15219:15220  F */\n      dup10\n        /* \"poseidon-solidity/PoseidonT3.sol\":15214:15217  M22 */\n      dup8\n        /* \"poseidon-solidity/PoseidonT3.sol\":15204:15212  scratch2 */\n      dup4\n        /* \"poseidon-solidity/PoseidonT3.sol\":15197:15221  mulmod(scratch2, M22, F) */\n      mulmod\n        /* \"poseidon-solidity/PoseidonT3.sol\":15192:15193  F */\n      dup11\n        /* \"poseidon-solidity/PoseidonT3.sol\":15187:15190  M12 */\n      0x176cc029695ad02582a70eff08a6fd99d057e12e58e7d7b6b16cdfabc8ee2911\n        /* \"poseidon-solidity/PoseidonT3.sol\":15177:15185  scratch1 */\n      dup6\n        /* \"poseidon-solidity/PoseidonT3.sol\":15170:15194  mulmod(scratch1, M12, F) */\n      mulmod\n        /* \"poseidon-solidity/PoseidonT3.sol\":15166:15167  F */\n      dup12\n        /* \"poseidon-solidity/PoseidonT3.sol\":15161:15164  M02 */\n      0x143021ec686a3f330d5f9e654638065ce6cd79e28c5b3753326244ee65a1b1a7\n        /* \"poseidon-solidity/PoseidonT3.sol\":15151:15159  scratch0 */\n      dup8\n        /* \"poseidon-solidity/PoseidonT3.sol\":15144:15168  mulmod(scratch0, M02, F) */\n      mulmod\n        /* \"poseidon-solidity/PoseidonT3.sol\":15140:15195  add(mulmod(scratch0, M02, F), mulmod(scratch1, M12, F)) */\n      add\n        /* \"poseidon-solidity/PoseidonT3.sol\":15136:15222  add(add(mulmod(scratch0, M02, F), mulmod(scratch1, M12, F)), mulmod(scratch2, M22, F)) */\n      add\n        /* \"poseidon-solidity/PoseidonT3.sol\":15068:15134  0x1121552fca26061619d24d843dc82769c1b04fcec26f55194c2e3e869acc6a9a */\n      0x1121552fca26061619d24d843dc82769c1b04fcec26f55194c2e3e869acc6a9a\n        /* \"poseidon-solidity/PoseidonT3.sol\":15064:15223  add(0x1121552fca26061619d24d843dc82769c1b04fcec26f55194c2e3e869acc6a9a, add(add(mulmod(scratch0, M02, F), mulmod(scratch1, M12, F)), mulmod(scratch2, M22, F))) */\n      add\n        /* \"poseidon-solidity/PoseidonT3.sol\":15054:15223  state2 := add(0x1121552fca26061619d24d843dc82769c1b04fcec26f55194c2e3e869acc6a9a, add(add(mulmod(scratch0, M02, F), mulmod(scratch1, M12, F)), mulmod(scratch2, M22, F))) */\n      swap5\n      pop\n        /* \"poseidon-solidity/PoseidonT3.sol\":15265:15266  F */\n      dup10\n        /* \"poseidon-solidity/PoseidonT3.sol\":15257:15263  state0 */\n      dup2\n        /* \"poseidon-solidity/PoseidonT3.sol\":15249:15255  state0 */\n      dup3\n        /* \"poseidon-solidity/PoseidonT3.sol\":15242:15267  mulmod(state0, state0, F) */\n      mulmod\n        /* \"poseidon-solidity/PoseidonT3.sol\":15230:15267  scratch0 := mulmod(state0, state0, F) */\n      swap4\n      pop\n        /* \"poseidon-solidity/PoseidonT3.sol\":15330:15331  F */\n      dup10\n        /* \"poseidon-solidity/PoseidonT3.sol\":15322:15328  state0 */\n      dup2\n        /* \"poseidon-solidity/PoseidonT3.sol\":15318:15319  F */\n      dup12\n        /* \"poseidon-solidity/PoseidonT3.sol\":15308:15316  scratch0 */\n      dup7\n        /* \"poseidon-solidity/PoseidonT3.sol\":15298:15306  scratch0 */\n      dup8\n        /* \"poseidon-solidity/PoseidonT3.sol\":15291:15320  mulmod(scratch0, scratch0, F) */\n      mulmod\n        /* \"poseidon-solidity/PoseidonT3.sol\":15284:15332  mulmod(mulmod(scratch0, scratch0, F), state0, F) */\n      mulmod\n        /* \"poseidon-solidity/PoseidonT3.sol\":15274:15332  state0 := mulmod(mulmod(scratch0, scratch0, F), state0, F) */\n      swap1\n      pop\n        /* \"poseidon-solidity/PoseidonT3.sol\":15500:15501  F */\n      dup10\n        /* \"poseidon-solidity/PoseidonT3.sol\":15495:15498  M20 */\n      dup10\n        /* \"poseidon-solidity/PoseidonT3.sol\":15487:15493  state2 */\n      dup7\n        /* \"poseidon-solidity/PoseidonT3.sol\":15480:15502  mulmod(state2, M20, F) */\n      mulmod\n        /* \"poseidon-solidity/PoseidonT3.sol\":15475:15476  F */\n      dup11\n        /* \"poseidon-solidity/PoseidonT3.sol\":15470:15473  M10 */\n      0x16ed41e13bb9c0c66ae119424fddbcbc9314dc9fdbdeea55d6c64543dc4903e0\n        /* \"poseidon-solidity/PoseidonT3.sol\":15462:15468  state1 */\n      dup9\n        /* \"poseidon-solidity/PoseidonT3.sol\":15455:15477  mulmod(state1, M10, F) */\n      mulmod\n        /* \"poseidon-solidity/PoseidonT3.sol\":15451:15452  F */\n      dup12\n        /* \"poseidon-solidity/PoseidonT3.sol\":15446:15449  M00 */\n      0x109b7f411ba0e4c9b2b70caf5c36a7b194be7c11ad24378bfedb68592ba8118b\n        /* \"poseidon-solidity/PoseidonT3.sol\":15438:15444  state0 */\n      dup5\n        /* \"poseidon-solidity/PoseidonT3.sol\":15431:15453  mulmod(state0, M00, F) */\n      mulmod\n        /* \"poseidon-solidity/PoseidonT3.sol\":15427:15478  add(mulmod(state0, M00, F), mulmod(state1, M10, F)) */\n      add\n        /* \"poseidon-solidity/PoseidonT3.sol\":15423:15503  add(add(mulmod(state0, M00, F), mulmod(state1, M10, F)), mulmod(state2, M20, F)) */\n      add\n        /* \"poseidon-solidity/PoseidonT3.sol\":15355:15421  0x00ef653322b13d6c889bc81715c37d77a6cd267d595c4a8909a5546c7c97cff1 */\n      0xef653322b13d6c889bc81715c37d77a6cd267d595c4a8909a5546c7c97cff1\n        /* \"poseidon-solidity/PoseidonT3.sol\":15351:15504  add(0x00ef653322b13d6c889bc81715c37d77a6cd267d595c4a8909a5546c7c97cff1, add(add(mulmod(state0, M00, F), mulmod(state1, M10, F)), mulmod(state2, M20, F))) */\n      add\n        /* \"poseidon-solidity/PoseidonT3.sol\":15339:15504  scratch0 := add(0x00ef653322b13d6c889bc81715c37d77a6cd267d595c4a8909a5546c7c97cff1, add(add(mulmod(state0, M00, F), mulmod(state1, M10, F)), mulmod(state2, M20, F))) */\n      swap4\n      pop\n        /* \"poseidon-solidity/PoseidonT3.sol\":15672:15673  F */\n      dup10\n        /* \"poseidon-solidity/PoseidonT3.sol\":15667:15670  M21 */\n      dup9\n        /* \"poseidon-solidity/PoseidonT3.sol\":15659:15665  state2 */\n      dup7\n        /* \"poseidon-solidity/PoseidonT3.sol\":15652:15674  mulmod(state2, M21, F) */\n      mulmod\n        /* \"poseidon-solidity/PoseidonT3.sol\":15647:15648  F */\n      dup11\n        /* \"poseidon-solidity/PoseidonT3.sol\":15642:15645  M11 */\n      0x2e2419f9ec02ec394c9871c832963dc1b89d743c8c7b964029b2311687b1fe23\n        /* \"poseidon-solidity/PoseidonT3.sol\":15634:15640  state1 */\n      dup9\n        /* \"poseidon-solidity/PoseidonT3.sol\":15627:15649  mulmod(state1, M11, F) */\n      mulmod\n        /* \"poseidon-solidity/PoseidonT3.sol\":15623:15624  F */\n      dup12\n        /* \"poseidon-solidity/PoseidonT3.sol\":15618:15621  M01 */\n      0x2969f27eed31a480b9c36c764379dbca2cc8fdd1415c3dded62940bcde0bd771\n        /* \"poseidon-solidity/PoseidonT3.sol\":15610:15616  state0 */\n      dup5\n        /* \"poseidon-solidity/PoseidonT3.sol\":15603:15625  mulmod(state0, M01, F) */\n      mulmod\n        /* \"poseidon-solidity/PoseidonT3.sol\":15599:15650  add(mulmod(state0, M01, F), mulmod(state1, M11, F)) */\n      add\n        /* \"poseidon-solidity/PoseidonT3.sol\":15595:15675  add(add(mulmod(state0, M01, F), mulmod(state1, M11, F)), mulmod(state2, M21, F)) */\n      add\n        /* \"poseidon-solidity/PoseidonT3.sol\":15527:15593  0x0e25483e45a665208b261d8ba74051e6400c776d652595d9845aca35d8a397d3 */\n      0x0e25483e45a665208b261d8ba74051e6400c776d652595d9845aca35d8a397d3\n        /* \"poseidon-solidity/PoseidonT3.sol\":15523:15676  add(0x0e25483e45a665208b261d8ba74051e6400c776d652595d9845aca35d8a397d3, add(add(mulmod(state0, M01, F), mulmod(state1, M11, F)), mulmod(state2, M21, F))) */\n      add\n        /* \"poseidon-solidity/PoseidonT3.sol\":15511:15676  scratch1 := add(0x0e25483e45a665208b261d8ba74051e6400c776d652595d9845aca35d8a397d3, add(add(mulmod(state0, M01, F), mulmod(state1, M11, F)), mulmod(state2, M21, F))) */\n      swap3\n      pop\n        /* \"poseidon-solidity/PoseidonT3.sol\":15844:15845  F */\n      dup10\n        /* \"poseidon-solidity/PoseidonT3.sol\":15839:15842  M22 */\n      dup8\n        /* \"poseidon-solidity/PoseidonT3.sol\":15831:15837  state2 */\n      dup7\n        /* \"poseidon-solidity/PoseidonT3.sol\":15824:15846  mulmod(state2, M22, F) */\n      mulmod\n        /* \"poseidon-solidity/PoseidonT3.sol\":15819:15820  F */\n      dup11\n        /* \"poseidon-solidity/PoseidonT3.sol\":15814:15817  M12 */\n      0x176cc029695ad02582a70eff08a6fd99d057e12e58e7d7b6b16cdfabc8ee2911\n        /* \"poseidon-solidity/PoseidonT3.sol\":15806:15812  state1 */\n      dup9\n        /* \"poseidon-solidity/PoseidonT3.sol\":15799:15821  mulmod(state1, M12, F) */\n      mulmod\n        /* \"poseidon-solidity/PoseidonT3.sol\":15795:15796  F */\n      dup12\n        /* \"poseidon-solidity/PoseidonT3.sol\":15790:15793  M02 */\n      0x143021ec686a3f330d5f9e654638065ce6cd79e28c5b3753326244ee65a1b1a7\n        /* \"poseidon-solidity/PoseidonT3.sol\":15782:15788  state0 */\n      dup5\n        /* \"poseidon-solidity/PoseidonT3.sol\":15775:15797  mulmod(state0, M02, F) */\n      mulmod\n        /* \"poseidon-solidity/PoseidonT3.sol\":15771:15822  add(mulmod(state0, M02, F), mulmod(state1, M12, F)) */\n      add\n        /* \"poseidon-solidity/PoseidonT3.sol\":15767:15847  add(add(mulmod(state0, M02, F), mulmod(state1, M12, F)), mulmod(state2, M22, F)) */\n      add\n        /* \"poseidon-solidity/PoseidonT3.sol\":15699:15765  0x29f536dcb9dd7682245264659e15d88e395ac3d4dde92d8c46448db979eeba89 */\n      0x29f536dcb9dd7682245264659e15d88e395ac3d4dde92d8c46448db979eeba89\n        /* \"poseidon-solidity/PoseidonT3.sol\":15695:15848  add(0x29f536dcb9dd7682245264659e15d88e395ac3d4dde92d8c46448db979eeba89, add(add(mulmod(state0, M02, F), mulmod(state1, M12, F)), mulmod(state2, M22, F))) */\n      add\n        /* \"poseidon-solidity/PoseidonT3.sol\":15683:15848  scratch2 := add(0x29f536dcb9dd7682245264659e15d88e395ac3d4dde92d8c46448db979eeba89, add(add(mulmod(state0, M02, F), mulmod(state1, M12, F)), mulmod(state2, M22, F))) */\n      swap2\n      pop\n        /* \"poseidon-solidity/PoseidonT3.sol\":15892:15893  F */\n      dup10\n        /* \"poseidon-solidity/PoseidonT3.sol\":15882:15890  scratch0 */\n      dup5\n        /* \"poseidon-solidity/PoseidonT3.sol\":15872:15880  scratch0 */\n      dup6\n        /* \"poseidon-solidity/PoseidonT3.sol\":15865:15894  mulmod(scratch0, scratch0, F) */\n      mulmod\n        /* \"poseidon-solidity/PoseidonT3.sol\":15855:15894  state0 := mulmod(scratch0, scratch0, F) */\n      swap1\n      pop\n        /* \"poseidon-solidity/PoseidonT3.sol\":15957:15958  F */\n      dup10\n        /* \"poseidon-solidity/PoseidonT3.sol\":15947:15955  scratch0 */\n      dup5\n        /* \"poseidon-solidity/PoseidonT3.sol\":15943:15944  F */\n      dup12\n        /* \"poseidon-solidity/PoseidonT3.sol\":15935:15941  state0 */\n      dup4\n        /* \"poseidon-solidity/PoseidonT3.sol\":15927:15933  state0 */\n      dup5\n        /* \"poseidon-solidity/PoseidonT3.sol\":15920:15945  mulmod(state0, state0, F) */\n      mulmod\n        /* \"poseidon-solidity/PoseidonT3.sol\":15913:15959  mulmod(mulmod(state0, state0, F), scratch0, F) */\n      mulmod\n        /* \"poseidon-solidity/PoseidonT3.sol\":15901:15959  scratch0 := mulmod(mulmod(state0, state0, F), scratch0, F) */\n      swap4\n      pop\n        /* \"poseidon-solidity/PoseidonT3.sol\":16131:16132  F */\n      dup10\n        /* \"poseidon-solidity/PoseidonT3.sol\":16126:16129  M20 */\n      dup10\n        /* \"poseidon-solidity/PoseidonT3.sol\":16116:16124  scratch2 */\n      dup4\n        /* \"poseidon-solidity/PoseidonT3.sol\":16109:16133  mulmod(scratch2, M20, F) */\n      mulmod\n        /* \"poseidon-solidity/PoseidonT3.sol\":16104:16105  F */\n      dup11\n        /* \"poseidon-solidity/PoseidonT3.sol\":16099:16102  M10 */\n      0x16ed41e13bb9c0c66ae119424fddbcbc9314dc9fdbdeea55d6c64543dc4903e0\n        /* \"poseidon-solidity/PoseidonT3.sol\":16089:16097  scratch1 */\n      dup6\n        /* \"poseidon-solidity/PoseidonT3.sol\":16082:16106  mulmod(scratch1, M10, F) */\n      mulmod\n        /* \"poseidon-solidity/PoseidonT3.sol\":16078:16079  F */\n      dup12\n        /* \"poseidon-solidity/PoseidonT3.sol\":16073:16076  M00 */\n      0x109b7f411ba0e4c9b2b70caf5c36a7b194be7c11ad24378bfedb68592ba8118b\n        /* \"poseidon-solidity/PoseidonT3.sol\":16063:16071  scratch0 */\n      dup8\n        /* \"poseidon-solidity/PoseidonT3.sol\":16056:16080  mulmod(scratch0, M00, F) */\n      mulmod\n        /* \"poseidon-solidity/PoseidonT3.sol\":16052:16107  add(mulmod(scratch0, M00, F), mulmod(scratch1, M10, F)) */\n      add\n        /* \"poseidon-solidity/PoseidonT3.sol\":16048:16134  add(add(mulmod(scratch0, M00, F), mulmod(scratch1, M10, F)), mulmod(scratch2, M20, F)) */\n      add\n        /* \"poseidon-solidity/PoseidonT3.sol\":15980:16046  0x2a56ef9f2c53febadfda33575dbdbd885a124e2780bbea170e456baace0fa5be */\n      0x2a56ef9f2c53febadfda33575dbdbd885a124e2780bbea170e456baace0fa5be\n        /* \"poseidon-solidity/PoseidonT3.sol\":15976:16135  add(0x2a56ef9f2c53febadfda33575dbdbd885a124e2780bbea170e456baace0fa5be, add(add(mulmod(scratch0, M00, F), mulmod(scratch1, M10, F)), mulmod(scratch2, M20, F))) */\n      add\n        /* \"poseidon-solidity/PoseidonT3.sol\":15966:16135  state0 := add(0x2a56ef9f2c53febadfda33575dbdbd885a124e2780bbea170e456baace0fa5be, add(add(mulmod(scratch0, M00, F), mulmod(scratch1, M10, F)), mulmod(scratch2, M20, F))) */\n      swap1\n      pop\n        /* \"poseidon-solidity/PoseidonT3.sol\":16307:16308  F */\n      dup10\n        /* \"poseidon-solidity/PoseidonT3.sol\":16302:16305  M21 */\n      dup9\n        /* \"poseidon-solidity/PoseidonT3.sol\":16292:16300  scratch2 */\n      dup4\n        /* \"poseidon-solidity/PoseidonT3.sol\":16285:16309  mulmod(scratch2, M21, F) */\n      mulmod\n        /* \"poseidon-solidity/PoseidonT3.sol\":16280:16281  F */\n      dup11\n        /* \"poseidon-solidity/PoseidonT3.sol\":16275:16278  M11 */\n      0x2e2419f9ec02ec394c9871c832963dc1b89d743c8c7b964029b2311687b1fe23\n        /* \"poseidon-solidity/PoseidonT3.sol\":16265:16273  scratch1 */\n      dup6\n        /* \"poseidon-solidity/PoseidonT3.sol\":16258:16282  mulmod(scratch1, M11, F) */\n      mulmod\n        /* \"poseidon-solidity/PoseidonT3.sol\":16254:16255  F */\n      dup12\n        /* \"poseidon-solidity/PoseidonT3.sol\":16249:16252  M01 */\n      0x2969f27eed31a480b9c36c764379dbca2cc8fdd1415c3dded62940bcde0bd771\n        /* \"poseidon-solidity/PoseidonT3.sol\":16239:16247  scratch0 */\n      dup8\n        /* \"poseidon-solidity/PoseidonT3.sol\":16232:16256  mulmod(scratch0, M01, F) */\n      mulmod\n        /* \"poseidon-solidity/PoseidonT3.sol\":16228:16283  add(mulmod(scratch0, M01, F), mulmod(scratch1, M11, F)) */\n      add\n        /* \"poseidon-solidity/PoseidonT3.sol\":16224:16310  add(add(mulmod(scratch0, M01, F), mulmod(scratch1, M11, F)), mulmod(scratch2, M21, F)) */\n      add\n        /* \"poseidon-solidity/PoseidonT3.sol\":16156:16222  0x1c8361c78eb5cf5decfb7a2d17b5c409f2ae2999a46762e8ee416240a8cb9af1 */\n      0x1c8361c78eb5cf5decfb7a2d17b5c409f2ae2999a46762e8ee416240a8cb9af1\n        /* \"poseidon-solidity/PoseidonT3.sol\":16152:16311  add(0x1c8361c78eb5cf5decfb7a2d17b5c409f2ae2999a46762e8ee416240a8cb9af1, add(add(mulmod(scratch0, M01, F), mulmod(scratch1, M11, F)), mulmod(scratch2, M21, F))) */\n      add\n        /* \"poseidon-solidity/PoseidonT3.sol\":16142:16311  state1 := add(0x1c8361c78eb5cf5decfb7a2d17b5c409f2ae2999a46762e8ee416240a8cb9af1, add(add(mulmod(scratch0, M01, F), mulmod(scratch1, M11, F)), mulmod(scratch2, M21, F))) */\n      swap6\n      pop\n        /* \"poseidon-solidity/PoseidonT3.sol\":16483:16484  F */\n      dup10\n        /* \"poseidon-solidity/PoseidonT3.sol\":16478:16481  M22 */\n      dup8\n        /* \"poseidon-solidity/PoseidonT3.sol\":16468:16476  scratch2 */\n      dup4\n        /* \"poseidon-solidity/PoseidonT3.sol\":16461:16485  mulmod(scratch2, M22, F) */\n      mulmod\n        /* \"poseidon-solidity/PoseidonT3.sol\":16456:16457  F */\n      dup11\n        /* \"poseidon-solidity/PoseidonT3.sol\":16451:16454  M12 */\n      0x176cc029695ad02582a70eff08a6fd99d057e12e58e7d7b6b16cdfabc8ee2911\n        /* \"poseidon-solidity/PoseidonT3.sol\":16441:16449  scratch1 */\n      dup6\n        /* \"poseidon-solidity/PoseidonT3.sol\":16434:16458  mulmod(scratch1, M12, F) */\n      mulmod\n        /* \"poseidon-solidity/PoseidonT3.sol\":16430:16431  F */\n      dup12\n        /* \"poseidon-solidity/PoseidonT3.sol\":16425:16428  M02 */\n      0x143021ec686a3f330d5f9e654638065ce6cd79e28c5b3753326244ee65a1b1a7\n        /* \"poseidon-solidity/PoseidonT3.sol\":16415:16423  scratch0 */\n      dup8\n        /* \"poseidon-solidity/PoseidonT3.sol\":16408:16432  mulmod(scratch0, M02, F) */\n      mulmod\n        /* \"poseidon-solidity/PoseidonT3.sol\":16404:16459  add(mulmod(scratch0, M02, F), mulmod(scratch1, M12, F)) */\n      add\n        /* \"poseidon-solidity/PoseidonT3.sol\":16400:16486  add(add(mulmod(scratch0, M02, F), mulmod(scratch1, M12, F)), mulmod(scratch2, M22, F)) */\n      add\n        /* \"poseidon-solidity/PoseidonT3.sol\":16332:16398  0x151aff5f38b20a0fc0473089aaf0206b83e8e68a764507bfd3d0ab4be74319c5 */\n      0x151aff5f38b20a0fc0473089aaf0206b83e8e68a764507bfd3d0ab4be74319c5\n        /* \"poseidon-solidity/PoseidonT3.sol\":16328:16487  add(0x151aff5f38b20a0fc0473089aaf0206b83e8e68a764507bfd3d0ab4be74319c5, add(add(mulmod(scratch0, M02, F), mulmod(scratch1, M12, F)), mulmod(scratch2, M22, F))) */\n      add\n        /* \"poseidon-solidity/PoseidonT3.sol\":16318:16487  state2 := add(0x151aff5f38b20a0fc0473089aaf0206b83e8e68a764507bfd3d0ab4be74319c5, add(add(mulmod(scratch0, M02, F), mulmod(scratch1, M12, F)), mulmod(scratch2, M22, F))) */\n      swap5\n      pop\n        /* \"poseidon-solidity/PoseidonT3.sol\":16529:16530  F */\n      dup10\n        /* \"poseidon-solidity/PoseidonT3.sol\":16521:16527  state0 */\n      dup2\n        /* \"poseidon-solidity/PoseidonT3.sol\":16513:16519  state0 */\n      dup3\n        /* \"poseidon-solidity/PoseidonT3.sol\":16506:16531  mulmod(state0, state0, F) */\n      mulmod\n        /* \"poseidon-solidity/PoseidonT3.sol\":16494:16531  scratch0 := mulmod(state0, state0, F) */\n      swap4\n      pop\n        /* \"poseidon-solidity/PoseidonT3.sol\":16594:16595  F */\n      dup10\n        /* \"poseidon-solidity/PoseidonT3.sol\":16586:16592  state0 */\n      dup2\n        /* \"poseidon-solidity/PoseidonT3.sol\":16582:16583  F */\n      dup12\n        /* \"poseidon-solidity/PoseidonT3.sol\":16572:16580  scratch0 */\n      dup7\n        /* \"poseidon-solidity/PoseidonT3.sol\":16562:16570  scratch0 */\n      dup8\n        /* \"poseidon-solidity/PoseidonT3.sol\":16555:16584  mulmod(scratch0, scratch0, F) */\n      mulmod\n        /* \"poseidon-solidity/PoseidonT3.sol\":16548:16596  mulmod(mulmod(scratch0, scratch0, F), state0, F) */\n      mulmod\n        /* \"poseidon-solidity/PoseidonT3.sol\":16538:16596  state0 := mulmod(mulmod(scratch0, scratch0, F), state0, F) */\n      swap1\n      pop\n        /* \"poseidon-solidity/PoseidonT3.sol\":16764:16765  F */\n      dup10\n        /* \"poseidon-solidity/PoseidonT3.sol\":16759:16762  M20 */\n      dup10\n        /* \"poseidon-solidity/PoseidonT3.sol\":16751:16757  state2 */\n      dup7\n        /* \"poseidon-solidity/PoseidonT3.sol\":16744:16766  mulmod(state2, M20, F) */\n      mulmod\n        /* \"poseidon-solidity/PoseidonT3.sol\":16739:16740  F */\n      dup11\n        /* \"poseidon-solidity/PoseidonT3.sol\":16734:16737  M10 */\n      0x16ed41e13bb9c0c66ae119424fddbcbc9314dc9fdbdeea55d6c64543dc4903e0\n        /* \"poseidon-solidity/PoseidonT3.sol\":16726:16732  state1 */\n      dup9\n        /* \"poseidon-solidity/PoseidonT3.sol\":16719:16741  mulmod(state1, M10, F) */\n      mulmod\n        /* \"poseidon-solidity/PoseidonT3.sol\":16715:16716  F */\n      dup12\n        /* \"poseidon-solidity/PoseidonT3.sol\":16710:16713  M00 */\n      0x109b7f411ba0e4c9b2b70caf5c36a7b194be7c11ad24378bfedb68592ba8118b\n        /* \"poseidon-solidity/PoseidonT3.sol\":16702:16708  state0 */\n      dup5\n        /* \"poseidon-solidity/PoseidonT3.sol\":16695:16717  mulmod(state0, M00, F) */\n      mulmod\n        /* \"poseidon-solidity/PoseidonT3.sol\":16691:16742  add(mulmod(state0, M00, F), mulmod(state1, M10, F)) */\n      add\n        /* \"poseidon-solidity/PoseidonT3.sol\":16687:16767  add(add(mulmod(state0, M00, F), mulmod(state1, M10, F)), mulmod(state2, M20, F)) */\n      add\n        /* \"poseidon-solidity/PoseidonT3.sol\":16619:16685  0x04c6187e41ed881dc1b239c88f7f9d43a9f52fc8c8b6cdd1e76e47615b51f100 */\n      0x04c6187e41ed881dc1b239c88f7f9d43a9f52fc8c8b6cdd1e76e47615b51f100\n        /* \"poseidon-solidity/PoseidonT3.sol\":16615:16768  add(0x04c6187e41ed881dc1b239c88f7f9d43a9f52fc8c8b6cdd1e76e47615b51f100, add(add(mulmod(state0, M00, F), mulmod(state1, M10, F)), mulmod(state2, M20, F))) */\n      add\n        /* \"poseidon-solidity/PoseidonT3.sol\":16603:16768  scratch0 := add(0x04c6187e41ed881dc1b239c88f7f9d43a9f52fc8c8b6cdd1e76e47615b51f100, add(add(mulmod(state0, M00, F), mulmod(state1, M10, F)), mulmod(state2, M20, F))) */\n      swap4\n      pop\n        /* \"poseidon-solidity/PoseidonT3.sol\":16936:16937  F */\n      dup10\n        /* \"poseidon-solidity/PoseidonT3.sol\":16931:16934  M21 */\n      dup9\n        /* \"poseidon-solidity/PoseidonT3.sol\":16923:16929  state2 */\n      dup7\n        /* \"poseidon-solidity/PoseidonT3.sol\":16916:16938  mulmod(state2, M21, F) */\n      mulmod\n        /* \"poseidon-solidity/PoseidonT3.sol\":16911:16912  F */\n      dup11\n        /* \"poseidon-solidity/PoseidonT3.sol\":16906:16909  M11 */\n      0x2e2419f9ec02ec394c9871c832963dc1b89d743c8c7b964029b2311687b1fe23\n        /* \"poseidon-solidity/PoseidonT3.sol\":16898:16904  state1 */\n      dup9\n        /* \"poseidon-solidity/PoseidonT3.sol\":16891:16913  mulmod(state1, M11, F) */\n      mulmod\n        /* \"poseidon-solidity/PoseidonT3.sol\":16887:16888  F */\n      dup12\n        /* \"poseidon-solidity/PoseidonT3.sol\":16882:16885  M01 */\n      0x2969f27eed31a480b9c36c764379dbca2cc8fdd1415c3dded62940bcde0bd771\n        /* \"poseidon-solidity/PoseidonT3.sol\":16874:16880  state0 */\n      dup5\n        /* \"poseidon-solidity/PoseidonT3.sol\":16867:16889  mulmod(state0, M01, F) */\n      mulmod\n        /* \"poseidon-solidity/PoseidonT3.sol\":16863:16914  add(mulmod(state0, M01, F), mulmod(state1, M11, F)) */\n      add\n        /* \"poseidon-solidity/PoseidonT3.sol\":16859:16939  add(add(mulmod(state0, M01, F), mulmod(state1, M11, F)), mulmod(state2, M21, F)) */\n      add\n        /* \"poseidon-solidity/PoseidonT3.sol\":16791:16857  0x13b37bd80f4d27fb10d84331f6fb6d534b81c61ed15776449e801b7ddc9c2967 */\n      0x13b37bd80f4d27fb10d84331f6fb6d534b81c61ed15776449e801b7ddc9c2967\n        /* \"poseidon-solidity/PoseidonT3.sol\":16787:16940  add(0x13b37bd80f4d27fb10d84331f6fb6d534b81c61ed15776449e801b7ddc9c2967, add(add(mulmod(state0, M01, F), mulmod(state1, M11, F)), mulmod(state2, M21, F))) */\n      add\n        /* \"poseidon-solidity/PoseidonT3.sol\":16775:16940  scratch1 := add(0x13b37bd80f4d27fb10d84331f6fb6d534b81c61ed15776449e801b7ddc9c2967, add(add(mulmod(state0, M01, F), mulmod(state1, M11, F)), mulmod(state2, M21, F))) */\n      swap3\n      pop\n        /* \"poseidon-solidity/PoseidonT3.sol\":17108:17109  F */\n      dup10\n        /* \"poseidon-solidity/PoseidonT3.sol\":17103:17106  M22 */\n      dup8\n        /* \"poseidon-solidity/PoseidonT3.sol\":17095:17101  state2 */\n      dup7\n        /* \"poseidon-solidity/PoseidonT3.sol\":17088:17110  mulmod(state2, M22, F) */\n      mulmod\n        /* \"poseidon-solidity/PoseidonT3.sol\":17083:17084  F */\n      dup11\n        /* \"poseidon-solidity/PoseidonT3.sol\":17078:17081  M12 */\n      0x176cc029695ad02582a70eff08a6fd99d057e12e58e7d7b6b16cdfabc8ee2911\n        /* \"poseidon-solidity/PoseidonT3.sol\":17070:17076  state1 */\n      dup9\n        /* \"poseidon-solidity/PoseidonT3.sol\":17063:17085  mulmod(state1, M12, F) */\n      mulmod\n        /* \"poseidon-solidity/PoseidonT3.sol\":17059:17060  F */\n      dup12\n        /* \"poseidon-solidity/PoseidonT3.sol\":17054:17057  M02 */\n      0x143021ec686a3f330d5f9e654638065ce6cd79e28c5b3753326244ee65a1b1a7\n        /* \"poseidon-solidity/PoseidonT3.sol\":17046:17052  state0 */\n      dup5\n        /* \"poseidon-solidity/PoseidonT3.sol\":17039:17061  mulmod(state0, M02, F) */\n      mulmod\n        /* \"poseidon-solidity/PoseidonT3.sol\":17035:17086  add(mulmod(state0, M02, F), mulmod(state1, M12, F)) */\n      add\n        /* \"poseidon-solidity/PoseidonT3.sol\":17031:17111  add(add(mulmod(state0, M02, F), mulmod(state1, M12, F)), mulmod(state2, M22, F)) */\n      add\n        /* \"poseidon-solidity/PoseidonT3.sol\":16963:17029  0x01a5c536273c2d9df578bfbd32c17b7a2ce3664c2a52032c9321ceb1c4e8a8e4 */\n      0x01a5c536273c2d9df578bfbd32c17b7a2ce3664c2a52032c9321ceb1c4e8a8e4\n        /* \"poseidon-solidity/PoseidonT3.sol\":16959:17112  add(0x01a5c536273c2d9df578bfbd32c17b7a2ce3664c2a52032c9321ceb1c4e8a8e4, add(add(mulmod(state0, M02, F), mulmod(state1, M12, F)), mulmod(state2, M22, F))) */\n      add\n        /* \"poseidon-solidity/PoseidonT3.sol\":16947:17112  scratch2 := add(0x01a5c536273c2d9df578bfbd32c17b7a2ce3664c2a52032c9321ceb1c4e8a8e4, add(add(mulmod(state0, M02, F), mulmod(state1, M12, F)), mulmod(state2, M22, F))) */\n      swap2\n      pop\n        /* \"poseidon-solidity/PoseidonT3.sol\":17156:17157  F */\n      dup10\n        /* \"poseidon-solidity/PoseidonT3.sol\":17146:17154  scratch0 */\n      dup5\n        /* \"poseidon-solidity/PoseidonT3.sol\":17136:17144  scratch0 */\n      dup6\n        /* \"poseidon-solidity/PoseidonT3.sol\":17129:17158  mulmod(scratch0, scratch0, F) */\n      mulmod\n        /* \"poseidon-solidity/PoseidonT3.sol\":17119:17158  state0 := mulmod(scratch0, scratch0, F) */\n      swap1\n      pop\n        /* \"poseidon-solidity/PoseidonT3.sol\":17221:17222  F */\n      dup10\n        /* \"poseidon-solidity/PoseidonT3.sol\":17211:17219  scratch0 */\n      dup5\n        /* \"poseidon-solidity/PoseidonT3.sol\":17207:17208  F */\n      dup12\n        /* \"poseidon-solidity/PoseidonT3.sol\":17199:17205  state0 */\n      dup4\n        /* \"poseidon-solidity/PoseidonT3.sol\":17191:17197  state0 */\n      dup5\n        /* \"poseidon-solidity/PoseidonT3.sol\":17184:17209  mulmod(state0, state0, F) */\n      mulmod\n        /* \"poseidon-solidity/PoseidonT3.sol\":17177:17223  mulmod(mulmod(state0, state0, F), scratch0, F) */\n      mulmod\n        /* \"poseidon-solidity/PoseidonT3.sol\":17165:17223  scratch0 := mulmod(mulmod(state0, state0, F), scratch0, F) */\n      swap4\n      pop\n        /* \"poseidon-solidity/PoseidonT3.sol\":17395:17396  F */\n      dup10\n        /* \"poseidon-solidity/PoseidonT3.sol\":17390:17393  M20 */\n      dup10\n        /* \"poseidon-solidity/PoseidonT3.sol\":17380:17388  scratch2 */\n      dup4\n        /* \"poseidon-solidity/PoseidonT3.sol\":17373:17397  mulmod(scratch2, M20, F) */\n      mulmod\n        /* \"poseidon-solidity/PoseidonT3.sol\":17368:17369  F */\n      dup11\n        /* \"poseidon-solidity/PoseidonT3.sol\":17363:17366  M10 */\n      0x16ed41e13bb9c0c66ae119424fddbcbc9314dc9fdbdeea55d6c64543dc4903e0\n        /* \"poseidon-solidity/PoseidonT3.sol\":17353:17361  scratch1 */\n      dup6\n        /* \"poseidon-solidity/PoseidonT3.sol\":17346:17370  mulmod(scratch1, M10, F) */\n      mulmod\n        /* \"poseidon-solidity/PoseidonT3.sol\":17342:17343  F */\n      dup12\n        /* \"poseidon-solidity/PoseidonT3.sol\":17337:17340  M00 */\n      0x109b7f411ba0e4c9b2b70caf5c36a7b194be7c11ad24378bfedb68592ba8118b\n        /* \"poseidon-solidity/PoseidonT3.sol\":17327:17335  scratch0 */\n      dup8\n        /* \"poseidon-solidity/PoseidonT3.sol\":17320:17344  mulmod(scratch0, M00, F) */\n      mulmod\n        /* \"poseidon-solidity/PoseidonT3.sol\":17316:17371  add(mulmod(scratch0, M00, F), mulmod(scratch1, M10, F)) */\n      add\n        /* \"poseidon-solidity/PoseidonT3.sol\":17312:17398  add(add(mulmod(scratch0, M00, F), mulmod(scratch1, M10, F)), mulmod(scratch2, M20, F)) */\n      add\n        /* \"poseidon-solidity/PoseidonT3.sol\":17244:17310  0x2ab3561834ca73835ad05f5d7acb950b4a9a2c666b9726da832239065b7c3b02 */\n      0x2ab3561834ca73835ad05f5d7acb950b4a9a2c666b9726da832239065b7c3b02\n        /* \"poseidon-solidity/PoseidonT3.sol\":17240:17399  add(0x2ab3561834ca73835ad05f5d7acb950b4a9a2c666b9726da832239065b7c3b02, add(add(mulmod(scratch0, M00, F), mulmod(scratch1, M10, F)), mulmod(scratch2, M20, F))) */\n      add\n        /* \"poseidon-solidity/PoseidonT3.sol\":17230:17399  state0 := add(0x2ab3561834ca73835ad05f5d7acb950b4a9a2c666b9726da832239065b7c3b02, add(add(mulmod(scratch0, M00, F), mulmod(scratch1, M10, F)), mulmod(scratch2, M20, F))) */\n      swap1\n      pop\n        /* \"poseidon-solidity/PoseidonT3.sol\":17571:17572  F */\n      dup10\n        /* \"poseidon-solidity/PoseidonT3.sol\":17566:17569  M21 */\n      dup9\n        /* \"poseidon-solidity/PoseidonT3.sol\":17556:17564  scratch2 */\n      dup4\n        /* \"poseidon-solidity/PoseidonT3.sol\":17549:17573  mulmod(scratch2, M21, F) */\n      mulmod\n        /* \"poseidon-solidity/PoseidonT3.sol\":17544:17545  F */\n      dup11\n        /* \"poseidon-solidity/PoseidonT3.sol\":17539:17542  M11 */\n      0x2e2419f9ec02ec394c9871c832963dc1b89d743c8c7b964029b2311687b1fe23\n        /* \"poseidon-solidity/PoseidonT3.sol\":17529:17537  scratch1 */\n      dup6\n        /* \"poseidon-solidity/PoseidonT3.sol\":17522:17546  mulmod(scratch1, M11, F) */\n      mulmod\n        /* \"poseidon-solidity/PoseidonT3.sol\":17518:17519  F */\n      dup12\n        /* \"poseidon-solidity/PoseidonT3.sol\":17513:17516  M01 */\n      0x2969f27eed31a480b9c36c764379dbca2cc8fdd1415c3dded62940bcde0bd771\n        /* \"poseidon-solidity/PoseidonT3.sol\":17503:17511  scratch0 */\n      dup8\n        /* \"poseidon-solidity/PoseidonT3.sol\":17496:17520  mulmod(scratch0, M01, F) */\n      mulmod\n        /* \"poseidon-solidity/PoseidonT3.sol\":17492:17547  add(mulmod(scratch0, M01, F), mulmod(scratch1, M11, F)) */\n      add\n        /* \"poseidon-solidity/PoseidonT3.sol\":17488:17574  add(add(mulmod(scratch0, M01, F), mulmod(scratch1, M11, F)), mulmod(scratch2, M21, F)) */\n      add\n        /* \"poseidon-solidity/PoseidonT3.sol\":17420:17486  0x1d4d8ec291e720db200fe6d686c0d613acaf6af4e95d3bf69f7ed516a597b646 */\n      0x1d4d8ec291e720db200fe6d686c0d613acaf6af4e95d3bf69f7ed516a597b646\n        /* \"poseidon-solidity/PoseidonT3.sol\":17416:17575  add(0x1d4d8ec291e720db200fe6d686c0d613acaf6af4e95d3bf69f7ed516a597b646, add(add(mulmod(scratch0, M01, F), mulmod(scratch1, M11, F)), mulmod(scratch2, M21, F))) */\n      add\n        /* \"poseidon-solidity/PoseidonT3.sol\":17406:17575  state1 := add(0x1d4d8ec291e720db200fe6d686c0d613acaf6af4e95d3bf69f7ed516a597b646, add(add(mulmod(scratch0, M01, F), mulmod(scratch1, M11, F)), mulmod(scratch2, M21, F))) */\n      swap6\n      pop\n        /* \"poseidon-solidity/PoseidonT3.sol\":17747:17748  F */\n      dup10\n        /* \"poseidon-solidity/PoseidonT3.sol\":17742:17745  M22 */\n      dup8\n        /* \"poseidon-solidity/PoseidonT3.sol\":17732:17740  scratch2 */\n      dup4\n        /* \"poseidon-solidity/PoseidonT3.sol\":17725:17749  mulmod(scratch2, M22, F) */\n      mulmod\n        /* \"poseidon-solidity/PoseidonT3.sol\":17720:17721  F */\n      dup11\n        /* \"poseidon-solidity/PoseidonT3.sol\":17715:17718  M12 */\n      0x176cc029695ad02582a70eff08a6fd99d057e12e58e7d7b6b16cdfabc8ee2911\n        /* \"poseidon-solidity/PoseidonT3.sol\":17705:17713  scratch1 */\n      dup6\n        /* \"poseidon-solidity/PoseidonT3.sol\":17698:17722  mulmod(scratch1, M12, F) */\n      mulmod\n        /* \"poseidon-solidity/PoseidonT3.sol\":17694:17695  F */\n      dup12\n        /* \"poseidon-solidity/PoseidonT3.sol\":17689:17692  M02 */\n      0x143021ec686a3f330d5f9e654638065ce6cd79e28c5b3753326244ee65a1b1a7\n        /* \"poseidon-solidity/PoseidonT3.sol\":17679:17687  scratch0 */\n      dup8\n        /* \"poseidon-solidity/PoseidonT3.sol\":17672:17696  mulmod(scratch0, M02, F) */\n      mulmod\n        /* \"poseidon-solidity/PoseidonT3.sol\":17668:17723  add(mulmod(scratch0, M02, F), mulmod(scratch1, M12, F)) */\n      add\n        /* \"poseidon-solidity/PoseidonT3.sol\":17664:17750  add(add(mulmod(scratch0, M02, F), mulmod(scratch1, M12, F)), mulmod(scratch2, M22, F)) */\n      add\n        /* \"poseidon-solidity/PoseidonT3.sol\":17596:17662  0x041294d2cc484d228f5784fe7919fd2bb925351240a04b711514c9c80b65af1d */\n      0x041294d2cc484d228f5784fe7919fd2bb925351240a04b711514c9c80b65af1d\n        /* \"poseidon-solidity/PoseidonT3.sol\":17592:17751  add(0x041294d2cc484d228f5784fe7919fd2bb925351240a04b711514c9c80b65af1d, add(add(mulmod(scratch0, M02, F), mulmod(scratch1, M12, F)), mulmod(scratch2, M22, F))) */\n      add\n        /* \"poseidon-solidity/PoseidonT3.sol\":17582:17751  state2 := add(0x041294d2cc484d228f5784fe7919fd2bb925351240a04b711514c9c80b65af1d, add(add(mulmod(scratch0, M02, F), mulmod(scratch1, M12, F)), mulmod(scratch2, M22, F))) */\n      swap5\n      pop\n        /* \"poseidon-solidity/PoseidonT3.sol\":17793:17794  F */\n      dup10\n        /* \"poseidon-solidity/PoseidonT3.sol\":17785:17791  state0 */\n      dup2\n        /* \"poseidon-solidity/PoseidonT3.sol\":17777:17783  state0 */\n      dup3\n        /* \"poseidon-solidity/PoseidonT3.sol\":17770:17795  mulmod(state0, state0, F) */\n      mulmod\n        /* \"poseidon-solidity/PoseidonT3.sol\":17758:17795  scratch0 := mulmod(state0, state0, F) */\n      swap4\n      pop\n        /* \"poseidon-solidity/PoseidonT3.sol\":17858:17859  F */\n      dup10\n        /* \"poseidon-solidity/PoseidonT3.sol\":17850:17856  state0 */\n      dup2\n        /* \"poseidon-solidity/PoseidonT3.sol\":17846:17847  F */\n      dup12\n        /* \"poseidon-solidity/PoseidonT3.sol\":17836:17844  scratch0 */\n      dup7\n        /* \"poseidon-solidity/PoseidonT3.sol\":17826:17834  scratch0 */\n      dup8\n        /* \"poseidon-solidity/PoseidonT3.sol\":17819:17848  mulmod(scratch0, scratch0, F) */\n      mulmod\n        /* \"poseidon-solidity/PoseidonT3.sol\":17812:17860  mulmod(mulmod(scratch0, scratch0, F), state0, F) */\n      mulmod\n        /* \"poseidon-solidity/PoseidonT3.sol\":17802:17860  state0 := mulmod(mulmod(scratch0, scratch0, F), state0, F) */\n      swap1\n      pop\n        /* \"poseidon-solidity/PoseidonT3.sol\":18028:18029  F */\n      dup10\n        /* \"poseidon-solidity/PoseidonT3.sol\":18023:18026  M20 */\n      dup10\n        /* \"poseidon-solidity/PoseidonT3.sol\":18015:18021  state2 */\n      dup7\n        /* \"poseidon-solidity/PoseidonT3.sol\":18008:18030  mulmod(state2, M20, F) */\n      mulmod\n        /* \"poseidon-solidity/PoseidonT3.sol\":18003:18004  F */\n      dup11\n        /* \"poseidon-solidity/PoseidonT3.sol\":17998:18001  M10 */\n      0x16ed41e13bb9c0c66ae119424fddbcbc9314dc9fdbdeea55d6c64543dc4903e0\n        /* \"poseidon-solidity/PoseidonT3.sol\":17990:17996  state1 */\n      dup9\n        /* \"poseidon-solidity/PoseidonT3.sol\":17983:18005  mulmod(state1, M10, F) */\n      mulmod\n        /* \"poseidon-solidity/PoseidonT3.sol\":17979:17980  F */\n      dup12\n        /* \"poseidon-solidity/PoseidonT3.sol\":17974:17977  M00 */\n      0x109b7f411ba0e4c9b2b70caf5c36a7b194be7c11ad24378bfedb68592ba8118b\n        /* \"poseidon-solidity/PoseidonT3.sol\":17966:17972  state0 */\n      dup5\n        /* \"poseidon-solidity/PoseidonT3.sol\":17959:17981  mulmod(state0, M00, F) */\n      mulmod\n        /* \"poseidon-solidity/PoseidonT3.sol\":17955:18006  add(mulmod(state0, M00, F), mulmod(state1, M10, F)) */\n      add\n        /* \"poseidon-solidity/PoseidonT3.sol\":17951:18031  add(add(mulmod(state0, M00, F), mulmod(state1, M10, F)), mulmod(state2, M20, F)) */\n      add\n        /* \"poseidon-solidity/PoseidonT3.sol\":17883:17949  0x154ac98e01708c611c4fa715991f004898f57939d126e392042971dd90e81fc6 */\n      0x154ac98e01708c611c4fa715991f004898f57939d126e392042971dd90e81fc6\n        /* \"poseidon-solidity/PoseidonT3.sol\":17879:18032  add(0x154ac98e01708c611c4fa715991f004898f57939d126e392042971dd90e81fc6, add(add(mulmod(state0, M00, F), mulmod(state1, M10, F)), mulmod(state2, M20, F))) */\n      add\n        /* \"poseidon-solidity/PoseidonT3.sol\":17867:18032  scratch0 := add(0x154ac98e01708c611c4fa715991f004898f57939d126e392042971dd90e81fc6, add(add(mulmod(state0, M00, F), mulmod(state1, M10, F)), mulmod(state2, M20, F))) */\n      swap4\n      pop\n        /* \"poseidon-solidity/PoseidonT3.sol\":18200:18201  F */\n      dup10\n        /* \"poseidon-solidity/PoseidonT3.sol\":18195:18198  M21 */\n      dup9\n        /* \"poseidon-solidity/PoseidonT3.sol\":18187:18193  state2 */\n      dup7\n        /* \"poseidon-solidity/PoseidonT3.sol\":18180:18202  mulmod(state2, M21, F) */\n      mulmod\n        /* \"poseidon-solidity/PoseidonT3.sol\":18175:18176  F */\n      dup11\n        /* \"poseidon-solidity/PoseidonT3.sol\":18170:18173  M11 */\n      0x2e2419f9ec02ec394c9871c832963dc1b89d743c8c7b964029b2311687b1fe23\n        /* \"poseidon-solidity/PoseidonT3.sol\":18162:18168  state1 */\n      dup9\n        /* \"poseidon-solidity/PoseidonT3.sol\":18155:18177  mulmod(state1, M11, F) */\n      mulmod\n        /* \"poseidon-solidity/PoseidonT3.sol\":18151:18152  F */\n      dup12\n        /* \"poseidon-solidity/PoseidonT3.sol\":18146:18149  M01 */\n      0x2969f27eed31a480b9c36c764379dbca2cc8fdd1415c3dded62940bcde0bd771\n        /* \"poseidon-solidity/PoseidonT3.sol\":18138:18144  state0 */\n      dup5\n        /* \"poseidon-solidity/PoseidonT3.sol\":18131:18153  mulmod(state0, M01, F) */\n      mulmod\n        /* \"poseidon-solidity/PoseidonT3.sol\":18127:18178  add(mulmod(state0, M01, F), mulmod(state1, M11, F)) */\n      add\n        /* \"poseidon-solidity/PoseidonT3.sol\":18123:18203  add(add(mulmod(state0, M01, F), mulmod(state1, M11, F)), mulmod(state2, M21, F)) */\n      add\n        /* \"poseidon-solidity/PoseidonT3.sol\":18055:18121  0x0b339d8acca7d4f83eedd84093aef51050b3684c88f8b0b04524563bc6ea4da4 */\n      0x0b339d8acca7d4f83eedd84093aef51050b3684c88f8b0b04524563bc6ea4da4\n        /* \"poseidon-solidity/PoseidonT3.sol\":18051:18204  add(0x0b339d8acca7d4f83eedd84093aef51050b3684c88f8b0b04524563bc6ea4da4, add(add(mulmod(state0, M01, F), mulmod(state1, M11, F)), mulmod(state2, M21, F))) */\n      add\n        /* \"poseidon-solidity/PoseidonT3.sol\":18039:18204  scratch1 := add(0x0b339d8acca7d4f83eedd84093aef51050b3684c88f8b0b04524563bc6ea4da4, add(add(mulmod(state0, M01, F), mulmod(state1, M11, F)), mulmod(state2, M21, F))) */\n      swap3\n      pop\n        /* \"poseidon-solidity/PoseidonT3.sol\":18372:18373  F */\n      dup10\n        /* \"poseidon-solidity/PoseidonT3.sol\":18367:18370  M22 */\n      dup8\n        /* \"poseidon-solidity/PoseidonT3.sol\":18359:18365  state2 */\n      dup7\n        /* \"poseidon-solidity/PoseidonT3.sol\":18352:18374  mulmod(state2, M22, F) */\n      mulmod\n        /* \"poseidon-solidity/PoseidonT3.sol\":18347:18348  F */\n      dup11\n        /* \"poseidon-solidity/PoseidonT3.sol\":18342:18345  M12 */\n      0x176cc029695ad02582a70eff08a6fd99d057e12e58e7d7b6b16cdfabc8ee2911\n        /* \"poseidon-solidity/PoseidonT3.sol\":18334:18340  state1 */\n      dup9\n        /* \"poseidon-solidity/PoseidonT3.sol\":18327:18349  mulmod(state1, M12, F) */\n      mulmod\n        /* \"poseidon-solidity/PoseidonT3.sol\":18323:18324  F */\n      dup12\n        /* \"poseidon-solidity/PoseidonT3.sol\":18318:18321  M02 */\n      0x143021ec686a3f330d5f9e654638065ce6cd79e28c5b3753326244ee65a1b1a7\n        /* \"poseidon-solidity/PoseidonT3.sol\":18310:18316  state0 */\n      dup5\n        /* \"poseidon-solidity/PoseidonT3.sol\":18303:18325  mulmod(state0, M02, F) */\n      mulmod\n        /* \"poseidon-solidity/PoseidonT3.sol\":18299:18350  add(mulmod(state0, M02, F), mulmod(state1, M12, F)) */\n      add\n        /* \"poseidon-solidity/PoseidonT3.sol\":18295:18375  add(add(mulmod(state0, M02, F), mulmod(state1, M12, F)), mulmod(state2, M22, F)) */\n      add\n        /* \"poseidon-solidity/PoseidonT3.sol\":18227:18293  0x0955e49e6610c94254a4f84cfbab344598f0e71eaff4a7dd81ed95b50839c82e */\n      0x0955e49e6610c94254a4f84cfbab344598f0e71eaff4a7dd81ed95b50839c82e\n        /* \"poseidon-solidity/PoseidonT3.sol\":18223:18376  add(0x0955e49e6610c94254a4f84cfbab344598f0e71eaff4a7dd81ed95b50839c82e, add(add(mulmod(state0, M02, F), mulmod(state1, M12, F)), mulmod(state2, M22, F))) */\n      add\n        /* \"poseidon-solidity/PoseidonT3.sol\":18211:18376  scratch2 := add(0x0955e49e6610c94254a4f84cfbab344598f0e71eaff4a7dd81ed95b50839c82e, add(add(mulmod(state0, M02, F), mulmod(state1, M12, F)), mulmod(state2, M22, F))) */\n      swap2\n      pop\n        /* \"poseidon-solidity/PoseidonT3.sol\":18420:18421  F */\n      dup10\n        /* \"poseidon-solidity/PoseidonT3.sol\":18410:18418  scratch0 */\n      dup5\n        /* \"poseidon-solidity/PoseidonT3.sol\":18400:18408  scratch0 */\n      dup6\n        /* \"poseidon-solidity/PoseidonT3.sol\":18393:18422  mulmod(scratch0, scratch0, F) */\n      mulmod\n        /* \"poseidon-solidity/PoseidonT3.sol\":18383:18422  state0 := mulmod(scratch0, scratch0, F) */\n      swap1\n      pop\n        /* \"poseidon-solidity/PoseidonT3.sol\":18485:18486  F */\n      dup10\n        /* \"poseidon-solidity/PoseidonT3.sol\":18475:18483  scratch0 */\n      dup5\n        /* \"poseidon-solidity/PoseidonT3.sol\":18471:18472  F */\n      dup12\n        /* \"poseidon-solidity/PoseidonT3.sol\":18463:18469  state0 */\n      dup4\n        /* \"poseidon-solidity/PoseidonT3.sol\":18455:18461  state0 */\n      dup5\n        /* \"poseidon-solidity/PoseidonT3.sol\":18448:18473  mulmod(state0, state0, F) */\n      mulmod\n        /* \"poseidon-solidity/PoseidonT3.sol\":18441:18487  mulmod(mulmod(state0, state0, F), scratch0, F) */\n      mulmod\n        /* \"poseidon-solidity/PoseidonT3.sol\":18429:18487  scratch0 := mulmod(mulmod(state0, state0, F), scratch0, F) */\n      swap4\n      pop\n        /* \"poseidon-solidity/PoseidonT3.sol\":18659:18660  F */\n      dup10\n        /* \"poseidon-solidity/PoseidonT3.sol\":18654:18657  M20 */\n      dup10\n        /* \"poseidon-solidity/PoseidonT3.sol\":18644:18652  scratch2 */\n      dup4\n        /* \"poseidon-solidity/PoseidonT3.sol\":18637:18661  mulmod(scratch2, M20, F) */\n      mulmod\n        /* \"poseidon-solidity/PoseidonT3.sol\":18632:18633  F */\n      dup11\n        /* \"poseidon-solidity/PoseidonT3.sol\":18627:18630  M10 */\n      0x16ed41e13bb9c0c66ae119424fddbcbc9314dc9fdbdeea55d6c64543dc4903e0\n        /* \"poseidon-solidity/PoseidonT3.sol\":18617:18625  scratch1 */\n      dup6\n        /* \"poseidon-solidity/PoseidonT3.sol\":18610:18634  mulmod(scratch1, M10, F) */\n      mulmod\n        /* \"poseidon-solidity/PoseidonT3.sol\":18606:18607  F */\n      dup12\n        /* \"poseidon-solidity/PoseidonT3.sol\":18601:18604  M00 */\n      0x109b7f411ba0e4c9b2b70caf5c36a7b194be7c11ad24378bfedb68592ba8118b\n        /* \"poseidon-solidity/PoseidonT3.sol\":18591:18599  scratch0 */\n      dup8\n        /* \"poseidon-solidity/PoseidonT3.sol\":18584:18608  mulmod(scratch0, M00, F) */\n      mulmod\n        /* \"poseidon-solidity/PoseidonT3.sol\":18580:18635  add(mulmod(scratch0, M00, F), mulmod(scratch1, M10, F)) */\n      add\n        /* \"poseidon-solidity/PoseidonT3.sol\":18576:18662  add(add(mulmod(scratch0, M00, F), mulmod(scratch1, M10, F)), mulmod(scratch2, M20, F)) */\n      add\n        /* \"poseidon-solidity/PoseidonT3.sol\":18508:18574  0x06746a6156eba54426b9e22206f15abca9a6f41e6f535c6f3525401ea0654626 */\n      0x06746a6156eba54426b9e22206f15abca9a6f41e6f535c6f3525401ea0654626\n        /* \"poseidon-solidity/PoseidonT3.sol\":18504:18663  add(0x06746a6156eba54426b9e22206f15abca9a6f41e6f535c6f3525401ea0654626, add(add(mulmod(scratch0, M00, F), mulmod(scratch1, M10, F)), mulmod(scratch2, M20, F))) */\n      add\n        /* \"poseidon-solidity/PoseidonT3.sol\":18494:18663  state0 := add(0x06746a6156eba54426b9e22206f15abca9a6f41e6f535c6f3525401ea0654626, add(add(mulmod(scratch0, M00, F), mulmod(scratch1, M10, F)), mulmod(scratch2, M20, F))) */\n      swap1\n      pop\n        /* \"poseidon-solidity/PoseidonT3.sol\":18835:18836  F */\n      dup10\n        /* \"poseidon-solidity/PoseidonT3.sol\":18830:18833  M21 */\n      dup9\n        /* \"poseidon-solidity/PoseidonT3.sol\":18820:18828  scratch2 */\n      dup4\n        /* \"poseidon-solidity/PoseidonT3.sol\":18813:18837  mulmod(scratch2, M21, F) */\n      mulmod\n        /* \"poseidon-solidity/PoseidonT3.sol\":18808:18809  F */\n      dup11\n        /* \"poseidon-solidity/PoseidonT3.sol\":18803:18806  M11 */\n      0x2e2419f9ec02ec394c9871c832963dc1b89d743c8c7b964029b2311687b1fe23\n        /* \"poseidon-solidity/PoseidonT3.sol\":18793:18801  scratch1 */\n      dup6\n        /* \"poseidon-solidity/PoseidonT3.sol\":18786:18810  mulmod(scratch1, M11, F) */\n      mulmod\n        /* \"poseidon-solidity/PoseidonT3.sol\":18782:18783  F */\n      dup12\n        /* \"poseidon-solidity/PoseidonT3.sol\":18777:18780  M01 */\n      0x2969f27eed31a480b9c36c764379dbca2cc8fdd1415c3dded62940bcde0bd771\n        /* \"poseidon-solidity/PoseidonT3.sol\":18767:18775  scratch0 */\n      dup8\n        /* \"poseidon-solidity/PoseidonT3.sol\":18760:18784  mulmod(scratch0, M01, F) */\n      mulmod\n        /* \"poseidon-solidity/PoseidonT3.sol\":18756:18811  add(mulmod(scratch0, M01, F), mulmod(scratch1, M11, F)) */\n      add\n        /* \"poseidon-solidity/PoseidonT3.sol\":18752:18838  add(add(mulmod(scratch0, M01, F), mulmod(scratch1, M11, F)), mulmod(scratch2, M21, F)) */\n      add\n        /* \"poseidon-solidity/PoseidonT3.sol\":18684:18750  0x0f18f5a0ecd1423c496f3820c549c27838e5790e2bd0a196ac917c7ff32077fb */\n      0x0f18f5a0ecd1423c496f3820c549c27838e5790e2bd0a196ac917c7ff32077fb\n        /* \"poseidon-solidity/PoseidonT3.sol\":18680:18839  add(0x0f18f5a0ecd1423c496f3820c549c27838e5790e2bd0a196ac917c7ff32077fb, add(add(mulmod(scratch0, M01, F), mulmod(scratch1, M11, F)), mulmod(scratch2, M21, F))) */\n      add\n        /* \"poseidon-solidity/PoseidonT3.sol\":18670:18839  state1 := add(0x0f18f5a0ecd1423c496f3820c549c27838e5790e2bd0a196ac917c7ff32077fb, add(add(mulmod(scratch0, M01, F), mulmod(scratch1, M11, F)), mulmod(scratch2, M21, F))) */\n      swap6\n      pop\n        /* \"poseidon-solidity/PoseidonT3.sol\":19011:19012  F */\n      dup10\n        /* \"poseidon-solidity/PoseidonT3.sol\":19006:19009  M22 */\n      dup8\n        /* \"poseidon-solidity/PoseidonT3.sol\":18996:19004  scratch2 */\n      dup4\n        /* \"poseidon-solidity/PoseidonT3.sol\":18989:19013  mulmod(scratch2, M22, F) */\n      mulmod\n        /* \"poseidon-solidity/PoseidonT3.sol\":18984:18985  F */\n      dup11\n        /* \"poseidon-solidity/PoseidonT3.sol\":18979:18982  M12 */\n      0x176cc029695ad02582a70eff08a6fd99d057e12e58e7d7b6b16cdfabc8ee2911\n        /* \"poseidon-solidity/PoseidonT3.sol\":18969:18977  scratch1 */\n      dup6\n        /* \"poseidon-solidity/PoseidonT3.sol\":18962:18986  mulmod(scratch1, M12, F) */\n      mulmod\n        /* \"poseidon-solidity/PoseidonT3.sol\":18958:18959  F */\n      dup12\n        /* \"poseidon-solidity/PoseidonT3.sol\":18953:18956  M02 */\n      0x143021ec686a3f330d5f9e654638065ce6cd79e28c5b3753326244ee65a1b1a7\n        /* \"poseidon-solidity/PoseidonT3.sol\":18943:18951  scratch0 */\n      dup8\n        /* \"poseidon-solidity/PoseidonT3.sol\":18936:18960  mulmod(scratch0, M02, F) */\n      mulmod\n        /* \"poseidon-solidity/PoseidonT3.sol\":18932:18987  add(mulmod(scratch0, M02, F), mulmod(scratch1, M12, F)) */\n      add\n        /* \"poseidon-solidity/PoseidonT3.sol\":18928:19014  add(add(mulmod(scratch0, M02, F), mulmod(scratch1, M12, F)), mulmod(scratch2, M22, F)) */\n      add\n        /* \"poseidon-solidity/PoseidonT3.sol\":18860:18926  0x04f6eeca1751f7308ac59eff5beb261e4bb563583ede7bc92a738223d6f76e13 */\n      0x04f6eeca1751f7308ac59eff5beb261e4bb563583ede7bc92a738223d6f76e13\n        /* \"poseidon-solidity/PoseidonT3.sol\":18856:19015  add(0x04f6eeca1751f7308ac59eff5beb261e4bb563583ede7bc92a738223d6f76e13, add(add(mulmod(scratch0, M02, F), mulmod(scratch1, M12, F)), mulmod(scratch2, M22, F))) */\n      add\n        /* \"poseidon-solidity/PoseidonT3.sol\":18846:19015  state2 := add(0x04f6eeca1751f7308ac59eff5beb261e4bb563583ede7bc92a738223d6f76e13, add(add(mulmod(scratch0, M02, F), mulmod(scratch1, M12, F)), mulmod(scratch2, M22, F))) */\n      swap5\n      pop\n        /* \"poseidon-solidity/PoseidonT3.sol\":19057:19058  F */\n      dup10\n        /* \"poseidon-solidity/PoseidonT3.sol\":19049:19055  state0 */\n      dup2\n        /* \"poseidon-solidity/PoseidonT3.sol\":19041:19047  state0 */\n      dup3\n        /* \"poseidon-solidity/PoseidonT3.sol\":19034:19059  mulmod(state0, state0, F) */\n      mulmod\n        /* \"poseidon-solidity/PoseidonT3.sol\":19022:19059  scratch0 := mulmod(state0, state0, F) */\n      swap4\n      pop\n        /* \"poseidon-solidity/PoseidonT3.sol\":19122:19123  F */\n      dup10\n        /* \"poseidon-solidity/PoseidonT3.sol\":19114:19120  state0 */\n      dup2\n        /* \"poseidon-solidity/PoseidonT3.sol\":19110:19111  F */\n      dup12\n        /* \"poseidon-solidity/PoseidonT3.sol\":19100:19108  scratch0 */\n      dup7\n        /* \"poseidon-solidity/PoseidonT3.sol\":19090:19098  scratch0 */\n      dup8\n        /* \"poseidon-solidity/PoseidonT3.sol\":19083:19112  mulmod(scratch0, scratch0, F) */\n      mulmod\n        /* \"poseidon-solidity/PoseidonT3.sol\":19076:19124  mulmod(mulmod(scratch0, scratch0, F), state0, F) */\n      mulmod\n        /* \"poseidon-solidity/PoseidonT3.sol\":19066:19124  state0 := mulmod(mulmod(scratch0, scratch0, F), state0, F) */\n      swap1\n      pop\n        /* \"poseidon-solidity/PoseidonT3.sol\":19292:19293  F */\n      dup10\n        /* \"poseidon-solidity/PoseidonT3.sol\":19287:19290  M20 */\n      dup10\n        /* \"poseidon-solidity/PoseidonT3.sol\":19279:19285  state2 */\n      dup7\n        /* \"poseidon-solidity/PoseidonT3.sol\":19272:19294  mulmod(state2, M20, F) */\n      mulmod\n        /* \"poseidon-solidity/PoseidonT3.sol\":19267:19268  F */\n      dup11\n        /* \"poseidon-solidity/PoseidonT3.sol\":19262:19265  M10 */\n      0x16ed41e13bb9c0c66ae119424fddbcbc9314dc9fdbdeea55d6c64543dc4903e0\n        /* \"poseidon-solidity/PoseidonT3.sol\":19254:19260  state1 */\n      dup9\n        /* \"poseidon-solidity/PoseidonT3.sol\":19247:19269  mulmod(state1, M10, F) */\n      mulmod\n        /* \"poseidon-solidity/PoseidonT3.sol\":19243:19244  F */\n      dup12\n        /* \"poseidon-solidity/PoseidonT3.sol\":19238:19241  M00 */\n      0x109b7f411ba0e4c9b2b70caf5c36a7b194be7c11ad24378bfedb68592ba8118b\n        /* \"poseidon-solidity/PoseidonT3.sol\":19230:19236  state0 */\n      dup5\n        /* \"poseidon-solidity/PoseidonT3.sol\":19223:19245  mulmod(state0, M00, F) */\n      mulmod\n        /* \"poseidon-solidity/PoseidonT3.sol\":19219:19270  add(mulmod(state0, M00, F), mulmod(state1, M10, F)) */\n      add\n        /* \"poseidon-solidity/PoseidonT3.sol\":19215:19295  add(add(mulmod(state0, M00, F), mulmod(state1, M10, F)), mulmod(state2, M20, F)) */\n      add\n        /* \"poseidon-solidity/PoseidonT3.sol\":19147:19213  0x2b56973364c4c4f5c1a3ec4da3cdce038811eb116fb3e45bc1768d26fc0b3758 */\n      0x2b56973364c4c4f5c1a3ec4da3cdce038811eb116fb3e45bc1768d26fc0b3758\n        /* \"poseidon-solidity/PoseidonT3.sol\":19143:19296  add(0x2b56973364c4c4f5c1a3ec4da3cdce038811eb116fb3e45bc1768d26fc0b3758, add(add(mulmod(state0, M00, F), mulmod(state1, M10, F)), mulmod(state2, M20, F))) */\n      add\n        /* \"poseidon-solidity/PoseidonT3.sol\":19131:19296  scratch0 := add(0x2b56973364c4c4f5c1a3ec4da3cdce038811eb116fb3e45bc1768d26fc0b3758, add(add(mulmod(state0, M00, F), mulmod(state1, M10, F)), mulmod(state2, M20, F))) */\n      swap4\n      pop\n        /* \"poseidon-solidity/PoseidonT3.sol\":19464:19465  F */\n      dup10\n        /* \"poseidon-solidity/PoseidonT3.sol\":19459:19462  M21 */\n      dup9\n        /* \"poseidon-solidity/PoseidonT3.sol\":19451:19457  state2 */\n      dup7\n        /* \"poseidon-solidity/PoseidonT3.sol\":19444:19466  mulmod(state2, M21, F) */\n      mulmod\n        /* \"poseidon-solidity/PoseidonT3.sol\":19439:19440  F */\n      dup11\n        /* \"poseidon-solidity/PoseidonT3.sol\":19434:19437  M11 */\n      0x2e2419f9ec02ec394c9871c832963dc1b89d743c8c7b964029b2311687b1fe23\n        /* \"poseidon-solidity/PoseidonT3.sol\":19426:19432  state1 */\n      dup9\n        /* \"poseidon-solidity/PoseidonT3.sol\":19419:19441  mulmod(state1, M11, F) */\n      mulmod\n        /* \"poseidon-solidity/PoseidonT3.sol\":19415:19416  F */\n      dup12\n        /* \"poseidon-solidity/PoseidonT3.sol\":19410:19413  M01 */\n      0x2969f27eed31a480b9c36c764379dbca2cc8fdd1415c3dded62940bcde0bd771\n        /* \"poseidon-solidity/PoseidonT3.sol\":19402:19408  state0 */\n      dup5\n        /* \"poseidon-solidity/PoseidonT3.sol\":19395:19417  mulmod(state0, M01, F) */\n      mulmod\n        /* \"poseidon-solidity/PoseidonT3.sol\":19391:19442  add(mulmod(state0, M01, F), mulmod(state1, M11, F)) */\n      add\n        /* \"poseidon-solidity/PoseidonT3.sol\":19387:19467  add(add(mulmod(state0, M01, F), mulmod(state1, M11, F)), mulmod(state2, M21, F)) */\n      add\n        /* \"poseidon-solidity/PoseidonT3.sol\":19319:19385  0x123769dd49d5b054dcd76b89804b1bcb8e1392b385716a5d83feb65d437f29ef */\n      0x123769dd49d5b054dcd76b89804b1bcb8e1392b385716a5d83feb65d437f29ef\n        /* \"poseidon-solidity/PoseidonT3.sol\":19315:19468  add(0x123769dd49d5b054dcd76b89804b1bcb8e1392b385716a5d83feb65d437f29ef, add(add(mulmod(state0, M01, F), mulmod(state1, M11, F)), mulmod(state2, M21, F))) */\n      add\n        /* \"poseidon-solidity/PoseidonT3.sol\":19303:19468  scratch1 := add(0x123769dd49d5b054dcd76b89804b1bcb8e1392b385716a5d83feb65d437f29ef, add(add(mulmod(state0, M01, F), mulmod(state1, M11, F)), mulmod(state2, M21, F))) */\n      swap3\n      pop\n        /* \"poseidon-solidity/PoseidonT3.sol\":19636:19637  F */\n      dup10\n        /* \"poseidon-solidity/PoseidonT3.sol\":19631:19634  M22 */\n      dup8\n        /* \"poseidon-solidity/PoseidonT3.sol\":19623:19629  state2 */\n      dup7\n        /* \"poseidon-solidity/PoseidonT3.sol\":19616:19638  mulmod(state2, M22, F) */\n      mulmod\n        /* \"poseidon-solidity/PoseidonT3.sol\":19611:19612  F */\n      dup11\n        /* \"poseidon-solidity/PoseidonT3.sol\":19606:19609  M12 */\n      0x176cc029695ad02582a70eff08a6fd99d057e12e58e7d7b6b16cdfabc8ee2911\n        /* \"poseidon-solidity/PoseidonT3.sol\":19598:19604  state1 */\n      dup9\n        /* \"poseidon-solidity/PoseidonT3.sol\":19591:19613  mulmod(state1, M12, F) */\n      mulmod\n        /* \"poseidon-solidity/PoseidonT3.sol\":19587:19588  F */\n      dup12\n        /* \"poseidon-solidity/PoseidonT3.sol\":19582:19585  M02 */\n      0x143021ec686a3f330d5f9e654638065ce6cd79e28c5b3753326244ee65a1b1a7\n        /* \"poseidon-solidity/PoseidonT3.sol\":19574:19580  state0 */\n      dup5\n        /* \"poseidon-solidity/PoseidonT3.sol\":19567:19589  mulmod(state0, M02, F) */\n      mulmod\n        /* \"poseidon-solidity/PoseidonT3.sol\":19563:19614  add(mulmod(state0, M02, F), mulmod(state1, M12, F)) */\n      add\n        /* \"poseidon-solidity/PoseidonT3.sol\":19559:19639  add(add(mulmod(state0, M02, F), mulmod(state1, M12, F)), mulmod(state2, M22, F)) */\n      add\n        /* \"poseidon-solidity/PoseidonT3.sol\":19491:19557  0x2147b424fc48c80a88ee52b91169aacea989f6446471150994257b2fb01c63e9 */\n      0x2147b424fc48c80a88ee52b91169aacea989f6446471150994257b2fb01c63e9\n        /* \"poseidon-solidity/PoseidonT3.sol\":19487:19640  add(0x2147b424fc48c80a88ee52b91169aacea989f6446471150994257b2fb01c63e9, add(add(mulmod(state0, M02, F), mulmod(state1, M12, F)), mulmod(state2, M22, F))) */\n      add\n        /* \"poseidon-solidity/PoseidonT3.sol\":19475:19640  scratch2 := add(0x2147b424fc48c80a88ee52b91169aacea989f6446471150994257b2fb01c63e9, add(add(mulmod(state0, M02, F), mulmod(state1, M12, F)), mulmod(state2, M22, F))) */\n      swap2\n      pop\n        /* \"poseidon-solidity/PoseidonT3.sol\":19684:19685  F */\n      dup10\n        /* \"poseidon-solidity/PoseidonT3.sol\":19674:19682  scratch0 */\n      dup5\n        /* \"poseidon-solidity/PoseidonT3.sol\":19664:19672  scratch0 */\n      dup6\n        /* \"poseidon-solidity/PoseidonT3.sol\":19657:19686  mulmod(scratch0, scratch0, F) */\n      mulmod\n        /* \"poseidon-solidity/PoseidonT3.sol\":19647:19686  state0 := mulmod(scratch0, scratch0, F) */\n      swap1\n      pop\n        /* \"poseidon-solidity/PoseidonT3.sol\":19749:19750  F */\n      dup10\n        /* \"poseidon-solidity/PoseidonT3.sol\":19739:19747  scratch0 */\n      dup5\n        /* \"poseidon-solidity/PoseidonT3.sol\":19735:19736  F */\n      dup12\n        /* \"poseidon-solidity/PoseidonT3.sol\":19727:19733  state0 */\n      dup4\n        /* \"poseidon-solidity/PoseidonT3.sol\":19719:19725  state0 */\n      dup5\n        /* \"poseidon-solidity/PoseidonT3.sol\":19712:19737  mulmod(state0, state0, F) */\n      mulmod\n        /* \"poseidon-solidity/PoseidonT3.sol\":19705:19751  mulmod(mulmod(state0, state0, F), scratch0, F) */\n      mulmod\n        /* \"poseidon-solidity/PoseidonT3.sol\":19693:19751  scratch0 := mulmod(mulmod(state0, state0, F), scratch0, F) */\n      swap4\n      pop\n        /* \"poseidon-solidity/PoseidonT3.sol\":19923:19924  F */\n      dup10\n        /* \"poseidon-solidity/PoseidonT3.sol\":19918:19921  M20 */\n      dup10\n        /* \"poseidon-solidity/PoseidonT3.sol\":19908:19916  scratch2 */\n      dup4\n        /* \"poseidon-solidity/PoseidonT3.sol\":19901:19925  mulmod(scratch2, M20, F) */\n      mulmod\n        /* \"poseidon-solidity/PoseidonT3.sol\":19896:19897  F */\n      dup11\n        /* \"poseidon-solidity/PoseidonT3.sol\":19891:19894  M10 */\n      0x16ed41e13bb9c0c66ae119424fddbcbc9314dc9fdbdeea55d6c64543dc4903e0\n        /* \"poseidon-solidity/PoseidonT3.sol\":19881:19889  scratch1 */\n      dup6\n        /* \"poseidon-solidity/PoseidonT3.sol\":19874:19898  mulmod(scratch1, M10, F) */\n      mulmod\n        /* \"poseidon-solidity/PoseidonT3.sol\":19870:19871  F */\n      dup12\n        /* \"poseidon-solidity/PoseidonT3.sol\":19865:19868  M00 */\n      0x109b7f411ba0e4c9b2b70caf5c36a7b194be7c11ad24378bfedb68592ba8118b\n        /* \"poseidon-solidity/PoseidonT3.sol\":19855:19863  scratch0 */\n      dup8\n        /* \"poseidon-solidity/PoseidonT3.sol\":19848:19872  mulmod(scratch0, M00, F) */\n      mulmod\n        /* \"poseidon-solidity/PoseidonT3.sol\":19844:19899  add(mulmod(scratch0, M00, F), mulmod(scratch1, M10, F)) */\n      add\n        /* \"poseidon-solidity/PoseidonT3.sol\":19840:19926  add(add(mulmod(scratch0, M00, F), mulmod(scratch1, M10, F)), mulmod(scratch2, M20, F)) */\n      add\n        /* \"poseidon-solidity/PoseidonT3.sol\":19772:19838  0x0fdc1f58548b85701a6c5505ea332a29647e6f34ad4243c2ea54ad897cebe54d */\n      0x0fdc1f58548b85701a6c5505ea332a29647e6f34ad4243c2ea54ad897cebe54d\n        /* \"poseidon-solidity/PoseidonT3.sol\":19768:19927  add(0x0fdc1f58548b85701a6c5505ea332a29647e6f34ad4243c2ea54ad897cebe54d, add(add(mulmod(scratch0, M00, F), mulmod(scratch1, M10, F)), mulmod(scratch2, M20, F))) */\n      add\n        /* \"poseidon-solidity/PoseidonT3.sol\":19758:19927  state0 := add(0x0fdc1f58548b85701a6c5505ea332a29647e6f34ad4243c2ea54ad897cebe54d, add(add(mulmod(scratch0, M00, F), mulmod(scratch1, M10, F)), mulmod(scratch2, M20, F))) */\n      swap1\n      pop\n        /* \"poseidon-solidity/PoseidonT3.sol\":20099:20100  F */\n      dup10\n        /* \"poseidon-solidity/PoseidonT3.sol\":20094:20097  M21 */\n      dup9\n        /* \"poseidon-solidity/PoseidonT3.sol\":20084:20092  scratch2 */\n      dup4\n        /* \"poseidon-solidity/PoseidonT3.sol\":20077:20101  mulmod(scratch2, M21, F) */\n      mulmod\n        /* \"poseidon-solidity/PoseidonT3.sol\":20072:20073  F */\n      dup11\n        /* \"poseidon-solidity/PoseidonT3.sol\":20067:20070  M11 */\n      0x2e2419f9ec02ec394c9871c832963dc1b89d743c8c7b964029b2311687b1fe23\n        /* \"poseidon-solidity/PoseidonT3.sol\":20057:20065  scratch1 */\n      dup6\n        /* \"poseidon-solidity/PoseidonT3.sol\":20050:20074  mulmod(scratch1, M11, F) */\n      mulmod\n        /* \"poseidon-solidity/PoseidonT3.sol\":20046:20047  F */\n      dup12\n        /* \"poseidon-solidity/PoseidonT3.sol\":20041:20044  M01 */\n      0x2969f27eed31a480b9c36c764379dbca2cc8fdd1415c3dded62940bcde0bd771\n        /* \"poseidon-solidity/PoseidonT3.sol\":20031:20039  scratch0 */\n      dup8\n        /* \"poseidon-solidity/PoseidonT3.sol\":20024:20048  mulmod(scratch0, M01, F) */\n      mulmod\n        /* \"poseidon-solidity/PoseidonT3.sol\":20020:20075  add(mulmod(scratch0, M01, F), mulmod(scratch1, M11, F)) */\n      add\n        /* \"poseidon-solidity/PoseidonT3.sol\":20016:20102  add(add(mulmod(scratch0, M01, F), mulmod(scratch1, M11, F)), mulmod(scratch2, M21, F)) */\n      add\n        /* \"poseidon-solidity/PoseidonT3.sol\":19948:20014  0x12373a8251fea004df68abcf0f7786d4bceff28c5dbbe0c3944f685cc0a0b1f2 */\n      0x12373a8251fea004df68abcf0f7786d4bceff28c5dbbe0c3944f685cc0a0b1f2\n        /* \"poseidon-solidity/PoseidonT3.sol\":19944:20103  add(0x12373a8251fea004df68abcf0f7786d4bceff28c5dbbe0c3944f685cc0a0b1f2, add(add(mulmod(scratch0, M01, F), mulmod(scratch1, M11, F)), mulmod(scratch2, M21, F))) */\n      add\n        /* \"poseidon-solidity/PoseidonT3.sol\":19934:20103  state1 := add(0x12373a8251fea004df68abcf0f7786d4bceff28c5dbbe0c3944f685cc0a0b1f2, add(add(mulmod(scratch0, M01, F), mulmod(scratch1, M11, F)), mulmod(scratch2, M21, F))) */\n      swap6\n      pop\n        /* \"poseidon-solidity/PoseidonT3.sol\":20275:20276  F */\n      dup10\n        /* \"poseidon-solidity/PoseidonT3.sol\":20270:20273  M22 */\n      dup8\n        /* \"poseidon-solidity/PoseidonT3.sol\":20260:20268  scratch2 */\n      dup4\n        /* \"poseidon-solidity/PoseidonT3.sol\":20253:20277  mulmod(scratch2, M22, F) */\n      mulmod\n        /* \"poseidon-solidity/PoseidonT3.sol\":20248:20249  F */\n      dup11\n        /* \"poseidon-solidity/PoseidonT3.sol\":20243:20246  M12 */\n      0x176cc029695ad02582a70eff08a6fd99d057e12e58e7d7b6b16cdfabc8ee2911\n        /* \"poseidon-solidity/PoseidonT3.sol\":20233:20241  scratch1 */\n      dup6\n        /* \"poseidon-solidity/PoseidonT3.sol\":20226:20250  mulmod(scratch1, M12, F) */\n      mulmod\n        /* \"poseidon-solidity/PoseidonT3.sol\":20222:20223  F */\n      dup12\n        /* \"poseidon-solidity/PoseidonT3.sol\":20217:20220  M02 */\n      0x143021ec686a3f330d5f9e654638065ce6cd79e28c5b3753326244ee65a1b1a7\n        /* \"poseidon-solidity/PoseidonT3.sol\":20207:20215  scratch0 */\n      dup8\n        /* \"poseidon-solidity/PoseidonT3.sol\":20200:20224  mulmod(scratch0, M02, F) */\n      mulmod\n        /* \"poseidon-solidity/PoseidonT3.sol\":20196:20251  add(mulmod(scratch0, M02, F), mulmod(scratch1, M12, F)) */\n      add\n        /* \"poseidon-solidity/PoseidonT3.sol\":20192:20278  add(add(mulmod(scratch0, M02, F), mulmod(scratch1, M12, F)), mulmod(scratch2, M22, F)) */\n      add\n        /* \"poseidon-solidity/PoseidonT3.sol\":20124:20190  0x21e4f4ea5f35f85bad7ea52ff742c9e8a642756b6af44203dd8a1f35c1a90035 */\n      0x21e4f4ea5f35f85bad7ea52ff742c9e8a642756b6af44203dd8a1f35c1a90035\n        /* \"poseidon-solidity/PoseidonT3.sol\":20120:20279  add(0x21e4f4ea5f35f85bad7ea52ff742c9e8a642756b6af44203dd8a1f35c1a90035, add(add(mulmod(scratch0, M02, F), mulmod(scratch1, M12, F)), mulmod(scratch2, M22, F))) */\n      add\n        /* \"poseidon-solidity/PoseidonT3.sol\":20110:20279  state2 := add(0x21e4f4ea5f35f85bad7ea52ff742c9e8a642756b6af44203dd8a1f35c1a90035, add(add(mulmod(scratch0, M02, F), mulmod(scratch1, M12, F)), mulmod(scratch2, M22, F))) */\n      swap5\n      pop\n        /* \"poseidon-solidity/PoseidonT3.sol\":20321:20322  F */\n      dup10\n        /* \"poseidon-solidity/PoseidonT3.sol\":20313:20319  state0 */\n      dup2\n        /* \"poseidon-solidity/PoseidonT3.sol\":20305:20311  state0 */\n      dup3\n        /* \"poseidon-solidity/PoseidonT3.sol\":20298:20323  mulmod(state0, state0, F) */\n      mulmod\n        /* \"poseidon-solidity/PoseidonT3.sol\":20286:20323  scratch0 := mulmod(state0, state0, F) */\n      swap4\n      pop\n        /* \"poseidon-solidity/PoseidonT3.sol\":20386:20387  F */\n      dup10\n        /* \"poseidon-solidity/PoseidonT3.sol\":20378:20384  state0 */\n      dup2\n        /* \"poseidon-solidity/PoseidonT3.sol\":20374:20375  F */\n      dup12\n        /* \"poseidon-solidity/PoseidonT3.sol\":20364:20372  scratch0 */\n      dup7\n        /* \"poseidon-solidity/PoseidonT3.sol\":20354:20362  scratch0 */\n      dup8\n        /* \"poseidon-solidity/PoseidonT3.sol\":20347:20376  mulmod(scratch0, scratch0, F) */\n      mulmod\n        /* \"poseidon-solidity/PoseidonT3.sol\":20340:20388  mulmod(mulmod(scratch0, scratch0, F), state0, F) */\n      mulmod\n        /* \"poseidon-solidity/PoseidonT3.sol\":20330:20388  state0 := mulmod(mulmod(scratch0, scratch0, F), state0, F) */\n      swap1\n      pop\n        /* \"poseidon-solidity/PoseidonT3.sol\":20556:20557  F */\n      dup10\n        /* \"poseidon-solidity/PoseidonT3.sol\":20551:20554  M20 */\n      dup10\n        /* \"poseidon-solidity/PoseidonT3.sol\":20543:20549  state2 */\n      dup7\n        /* \"poseidon-solidity/PoseidonT3.sol\":20536:20558  mulmod(state2, M20, F) */\n      mulmod\n        /* \"poseidon-solidity/PoseidonT3.sol\":20531:20532  F */\n      dup11\n        /* \"poseidon-solidity/PoseidonT3.sol\":20526:20529  M10 */\n      0x16ed41e13bb9c0c66ae119424fddbcbc9314dc9fdbdeea55d6c64543dc4903e0\n        /* \"poseidon-solidity/PoseidonT3.sol\":20518:20524  state1 */\n      dup9\n        /* \"poseidon-solidity/PoseidonT3.sol\":20511:20533  mulmod(state1, M10, F) */\n      mulmod\n        /* \"poseidon-solidity/PoseidonT3.sol\":20507:20508  F */\n      dup12\n        /* \"poseidon-solidity/PoseidonT3.sol\":20502:20505  M00 */\n      0x109b7f411ba0e4c9b2b70caf5c36a7b194be7c11ad24378bfedb68592ba8118b\n        /* \"poseidon-solidity/PoseidonT3.sol\":20494:20500  state0 */\n      dup5\n        /* \"poseidon-solidity/PoseidonT3.sol\":20487:20509  mulmod(state0, M00, F) */\n      mulmod\n        /* \"poseidon-solidity/PoseidonT3.sol\":20483:20534  add(mulmod(state0, M00, F), mulmod(state1, M10, F)) */\n      add\n        /* \"poseidon-solidity/PoseidonT3.sol\":20479:20559  add(add(mulmod(state0, M00, F), mulmod(state1, M10, F)), mulmod(state2, M20, F)) */\n      add\n        /* \"poseidon-solidity/PoseidonT3.sol\":20411:20477  0x16243916d69d2ca3dfb4722224d4c462b57366492f45e90d8a81934f1bc3b147 */\n      0x16243916d69d2ca3dfb4722224d4c462b57366492f45e90d8a81934f1bc3b147\n        /* \"poseidon-solidity/PoseidonT3.sol\":20407:20560  add(0x16243916d69d2ca3dfb4722224d4c462b57366492f45e90d8a81934f1bc3b147, add(add(mulmod(state0, M00, F), mulmod(state1, M10, F)), mulmod(state2, M20, F))) */\n      add\n        /* \"poseidon-solidity/PoseidonT3.sol\":20395:20560  scratch0 := add(0x16243916d69d2ca3dfb4722224d4c462b57366492f45e90d8a81934f1bc3b147, add(add(mulmod(state0, M00, F), mulmod(state1, M10, F)), mulmod(state2, M20, F))) */\n      swap4\n      pop\n        /* \"poseidon-solidity/PoseidonT3.sol\":20728:20729  F */\n      dup10\n        /* \"poseidon-solidity/PoseidonT3.sol\":20723:20726  M21 */\n      dup9\n        /* \"poseidon-solidity/PoseidonT3.sol\":20715:20721  state2 */\n      dup7\n        /* \"poseidon-solidity/PoseidonT3.sol\":20708:20730  mulmod(state2, M21, F) */\n      mulmod\n        /* \"poseidon-solidity/PoseidonT3.sol\":20703:20704  F */\n      dup11\n        /* \"poseidon-solidity/PoseidonT3.sol\":20698:20701  M11 */\n      0x2e2419f9ec02ec394c9871c832963dc1b89d743c8c7b964029b2311687b1fe23\n        /* \"poseidon-solidity/PoseidonT3.sol\":20690:20696  state1 */\n      dup9\n        /* \"poseidon-solidity/PoseidonT3.sol\":20683:20705  mulmod(state1, M11, F) */\n      mulmod\n        /* \"poseidon-solidity/PoseidonT3.sol\":20679:20680  F */\n      dup12\n        /* \"poseidon-solidity/PoseidonT3.sol\":20674:20677  M01 */\n      0x2969f27eed31a480b9c36c764379dbca2cc8fdd1415c3dded62940bcde0bd771\n        /* \"poseidon-solidity/PoseidonT3.sol\":20666:20672  state0 */\n      dup5\n        /* \"poseidon-solidity/PoseidonT3.sol\":20659:20681  mulmod(state0, M01, F) */\n      mulmod\n        /* \"poseidon-solidity/PoseidonT3.sol\":20655:20706  add(mulmod(state0, M01, F), mulmod(state1, M11, F)) */\n      add\n        /* \"poseidon-solidity/PoseidonT3.sol\":20651:20731  add(add(mulmod(state0, M01, F), mulmod(state1, M11, F)), mulmod(state2, M21, F)) */\n      add\n        /* \"poseidon-solidity/PoseidonT3.sol\":20583:20649  0x1efbe46dd7a578b4f66f9adbc88b4378abc21566e1a0453ca13a4159cac04ac2 */\n      0x1efbe46dd7a578b4f66f9adbc88b4378abc21566e1a0453ca13a4159cac04ac2\n        /* \"poseidon-solidity/PoseidonT3.sol\":20579:20732  add(0x1efbe46dd7a578b4f66f9adbc88b4378abc21566e1a0453ca13a4159cac04ac2, add(add(mulmod(state0, M01, F), mulmod(state1, M11, F)), mulmod(state2, M21, F))) */\n      add\n        /* \"poseidon-solidity/PoseidonT3.sol\":20567:20732  scratch1 := add(0x1efbe46dd7a578b4f66f9adbc88b4378abc21566e1a0453ca13a4159cac04ac2, add(add(mulmod(state0, M01, F), mulmod(state1, M11, F)), mulmod(state2, M21, F))) */\n      swap3\n      pop\n        /* \"poseidon-solidity/PoseidonT3.sol\":20900:20901  F */\n      dup10\n        /* \"poseidon-solidity/PoseidonT3.sol\":20895:20898  M22 */\n      dup8\n        /* \"poseidon-solidity/PoseidonT3.sol\":20887:20893  state2 */\n      dup7\n        /* \"poseidon-solidity/PoseidonT3.sol\":20880:20902  mulmod(state2, M22, F) */\n      mulmod\n        /* \"poseidon-solidity/PoseidonT3.sol\":20875:20876  F */\n      dup11\n        /* \"poseidon-solidity/PoseidonT3.sol\":20870:20873  M12 */\n      0x176cc029695ad02582a70eff08a6fd99d057e12e58e7d7b6b16cdfabc8ee2911\n        /* \"poseidon-solidity/PoseidonT3.sol\":20862:20868  state1 */\n      dup9\n        /* \"poseidon-solidity/PoseidonT3.sol\":20855:20877  mulmod(state1, M12, F) */\n      mulmod\n        /* \"poseidon-solidity/PoseidonT3.sol\":20851:20852  F */\n      dup12\n        /* \"poseidon-solidity/PoseidonT3.sol\":20846:20849  M02 */\n      0x143021ec686a3f330d5f9e654638065ce6cd79e28c5b3753326244ee65a1b1a7\n        /* \"poseidon-solidity/PoseidonT3.sol\":20838:20844  state0 */\n      dup5\n        /* \"poseidon-solidity/PoseidonT3.sol\":20831:20853  mulmod(state0, M02, F) */\n      mulmod\n        /* \"poseidon-solidity/PoseidonT3.sol\":20827:20878  add(mulmod(state0, M02, F), mulmod(state1, M12, F)) */\n      add\n        /* \"poseidon-solidity/PoseidonT3.sol\":20823:20903  add(add(mulmod(state0, M02, F), mulmod(state1, M12, F)), mulmod(state2, M22, F)) */\n      add\n        /* \"poseidon-solidity/PoseidonT3.sol\":20755:20821  0x07ea5e8537cf5dd08886020e23a7f387d468d5525be66f853b672cc96a88969a */\n      0x07ea5e8537cf5dd08886020e23a7f387d468d5525be66f853b672cc96a88969a\n        /* \"poseidon-solidity/PoseidonT3.sol\":20751:20904  add(0x07ea5e8537cf5dd08886020e23a7f387d468d5525be66f853b672cc96a88969a, add(add(mulmod(state0, M02, F), mulmod(state1, M12, F)), mulmod(state2, M22, F))) */\n      add\n        /* \"poseidon-solidity/PoseidonT3.sol\":20739:20904  scratch2 := add(0x07ea5e8537cf5dd08886020e23a7f387d468d5525be66f853b672cc96a88969a, add(add(mulmod(state0, M02, F), mulmod(state1, M12, F)), mulmod(state2, M22, F))) */\n      swap2\n      pop\n        /* \"poseidon-solidity/PoseidonT3.sol\":20948:20949  F */\n      dup10\n        /* \"poseidon-solidity/PoseidonT3.sol\":20938:20946  scratch0 */\n      dup5\n        /* \"poseidon-solidity/PoseidonT3.sol\":20928:20936  scratch0 */\n      dup6\n        /* \"poseidon-solidity/PoseidonT3.sol\":20921:20950  mulmod(scratch0, scratch0, F) */\n      mulmod\n        /* \"poseidon-solidity/PoseidonT3.sol\":20911:20950  state0 := mulmod(scratch0, scratch0, F) */\n      swap1\n      pop\n        /* \"poseidon-solidity/PoseidonT3.sol\":21013:21014  F */\n      dup10\n        /* \"poseidon-solidity/PoseidonT3.sol\":21003:21011  scratch0 */\n      dup5\n        /* \"poseidon-solidity/PoseidonT3.sol\":20999:21000  F */\n      dup12\n        /* \"poseidon-solidity/PoseidonT3.sol\":20991:20997  state0 */\n      dup4\n        /* \"poseidon-solidity/PoseidonT3.sol\":20983:20989  state0 */\n      dup5\n        /* \"poseidon-solidity/PoseidonT3.sol\":20976:21001  mulmod(state0, state0, F) */\n      mulmod\n        /* \"poseidon-solidity/PoseidonT3.sol\":20969:21015  mulmod(mulmod(state0, state0, F), scratch0, F) */\n      mulmod\n        /* \"poseidon-solidity/PoseidonT3.sol\":20957:21015  scratch0 := mulmod(mulmod(state0, state0, F), scratch0, F) */\n      swap4\n      pop\n        /* \"poseidon-solidity/PoseidonT3.sol\":21187:21188  F */\n      dup10\n        /* \"poseidon-solidity/PoseidonT3.sol\":21182:21185  M20 */\n      dup10\n        /* \"poseidon-solidity/PoseidonT3.sol\":21172:21180  scratch2 */\n      dup4\n        /* \"poseidon-solidity/PoseidonT3.sol\":21165:21189  mulmod(scratch2, M20, F) */\n      mulmod\n        /* \"poseidon-solidity/PoseidonT3.sol\":21160:21161  F */\n      dup11\n        /* \"poseidon-solidity/PoseidonT3.sol\":21155:21158  M10 */\n      0x16ed41e13bb9c0c66ae119424fddbcbc9314dc9fdbdeea55d6c64543dc4903e0\n        /* \"poseidon-solidity/PoseidonT3.sol\":21145:21153  scratch1 */\n      dup6\n        /* \"poseidon-solidity/PoseidonT3.sol\":21138:21162  mulmod(scratch1, M10, F) */\n      mulmod\n        /* \"poseidon-solidity/PoseidonT3.sol\":21134:21135  F */\n      dup12\n        /* \"poseidon-solidity/PoseidonT3.sol\":21129:21132  M00 */\n      0x109b7f411ba0e4c9b2b70caf5c36a7b194be7c11ad24378bfedb68592ba8118b\n        /* \"poseidon-solidity/PoseidonT3.sol\":21119:21127  scratch0 */\n      dup8\n        /* \"poseidon-solidity/PoseidonT3.sol\":21112:21136  mulmod(scratch0, M00, F) */\n      mulmod\n        /* \"poseidon-solidity/PoseidonT3.sol\":21108:21163  add(mulmod(scratch0, M00, F), mulmod(scratch1, M10, F)) */\n      add\n        /* \"poseidon-solidity/PoseidonT3.sol\":21104:21190  add(add(mulmod(scratch0, M00, F), mulmod(scratch1, M10, F)), mulmod(scratch2, M20, F)) */\n      add\n        /* \"poseidon-solidity/PoseidonT3.sol\":21036:21102  0x05a8c4f9968b8aa3b7b478a30f9a5b63650f19a75e7ce11ca9fe16c0b76c00bc */\n      0x05a8c4f9968b8aa3b7b478a30f9a5b63650f19a75e7ce11ca9fe16c0b76c00bc\n        /* \"poseidon-solidity/PoseidonT3.sol\":21032:21191  add(0x05a8c4f9968b8aa3b7b478a30f9a5b63650f19a75e7ce11ca9fe16c0b76c00bc, add(add(mulmod(scratch0, M00, F), mulmod(scratch1, M10, F)), mulmod(scratch2, M20, F))) */\n      add\n        /* \"poseidon-solidity/PoseidonT3.sol\":21022:21191  state0 := add(0x05a8c4f9968b8aa3b7b478a30f9a5b63650f19a75e7ce11ca9fe16c0b76c00bc, add(add(mulmod(scratch0, M00, F), mulmod(scratch1, M10, F)), mulmod(scratch2, M20, F))) */\n      swap1\n      pop\n        /* \"poseidon-solidity/PoseidonT3.sol\":21363:21364  F */\n      dup10\n        /* \"poseidon-solidity/PoseidonT3.sol\":21358:21361  M21 */\n      dup9\n        /* \"poseidon-solidity/PoseidonT3.sol\":21348:21356  scratch2 */\n      dup4\n        /* \"poseidon-solidity/PoseidonT3.sol\":21341:21365  mulmod(scratch2, M21, F) */\n      mulmod\n        /* \"poseidon-solidity/PoseidonT3.sol\":21336:21337  F */\n      dup11\n        /* \"poseidon-solidity/PoseidonT3.sol\":21331:21334  M11 */\n      0x2e2419f9ec02ec394c9871c832963dc1b89d743c8c7b964029b2311687b1fe23\n        /* \"poseidon-solidity/PoseidonT3.sol\":21321:21329  scratch1 */\n      dup6\n        /* \"poseidon-solidity/PoseidonT3.sol\":21314:21338  mulmod(scratch1, M11, F) */\n      mulmod\n        /* \"poseidon-solidity/PoseidonT3.sol\":21310:21311  F */\n      dup12\n        /* \"poseidon-solidity/PoseidonT3.sol\":21305:21308  M01 */\n      0x2969f27eed31a480b9c36c764379dbca2cc8fdd1415c3dded62940bcde0bd771\n        /* \"poseidon-solidity/PoseidonT3.sol\":21295:21303  scratch0 */\n      dup8\n        /* \"poseidon-solidity/PoseidonT3.sol\":21288:21312  mulmod(scratch0, M01, F) */\n      mulmod\n        /* \"poseidon-solidity/PoseidonT3.sol\":21284:21339  add(mulmod(scratch0, M01, F), mulmod(scratch1, M11, F)) */\n      add\n        /* \"poseidon-solidity/PoseidonT3.sol\":21280:21366  add(add(mulmod(scratch0, M01, F), mulmod(scratch1, M11, F)), mulmod(scratch2, M21, F)) */\n      add\n        /* \"poseidon-solidity/PoseidonT3.sol\":21212:21278  0x20f057712cc21654fbfe59bd345e8dac3f7818c701b9c7882d9d57b72a32e83f */\n      0x20f057712cc21654fbfe59bd345e8dac3f7818c701b9c7882d9d57b72a32e83f\n        /* \"poseidon-solidity/PoseidonT3.sol\":21208:21367  add(0x20f057712cc21654fbfe59bd345e8dac3f7818c701b9c7882d9d57b72a32e83f, add(add(mulmod(scratch0, M01, F), mulmod(scratch1, M11, F)), mulmod(scratch2, M21, F))) */\n      add\n        /* \"poseidon-solidity/PoseidonT3.sol\":21198:21367  state1 := add(0x20f057712cc21654fbfe59bd345e8dac3f7818c701b9c7882d9d57b72a32e83f, add(add(mulmod(scratch0, M01, F), mulmod(scratch1, M11, F)), mulmod(scratch2, M21, F))) */\n      swap6\n      pop\n        /* \"poseidon-solidity/PoseidonT3.sol\":21539:21540  F */\n      dup10\n        /* \"poseidon-solidity/PoseidonT3.sol\":21534:21537  M22 */\n      dup8\n        /* \"poseidon-solidity/PoseidonT3.sol\":21524:21532  scratch2 */\n      dup4\n        /* \"poseidon-solidity/PoseidonT3.sol\":21517:21541  mulmod(scratch2, M22, F) */\n      mulmod\n        /* \"poseidon-solidity/PoseidonT3.sol\":21512:21513  F */\n      dup11\n        /* \"poseidon-solidity/PoseidonT3.sol\":21507:21510  M12 */\n      0x176cc029695ad02582a70eff08a6fd99d057e12e58e7d7b6b16cdfabc8ee2911\n        /* \"poseidon-solidity/PoseidonT3.sol\":21497:21505  scratch1 */\n      dup6\n        /* \"poseidon-solidity/PoseidonT3.sol\":21490:21514  mulmod(scratch1, M12, F) */\n      mulmod\n        /* \"poseidon-solidity/PoseidonT3.sol\":21486:21487  F */\n      dup12\n        /* \"poseidon-solidity/PoseidonT3.sol\":21481:21484  M02 */\n      0x143021ec686a3f330d5f9e654638065ce6cd79e28c5b3753326244ee65a1b1a7\n        /* \"poseidon-solidity/PoseidonT3.sol\":21471:21479  scratch0 */\n      dup8\n        /* \"poseidon-solidity/PoseidonT3.sol\":21464:21488  mulmod(scratch0, M02, F) */\n      mulmod\n        /* \"poseidon-solidity/PoseidonT3.sol\":21460:21515  add(mulmod(scratch0, M02, F), mulmod(scratch1, M12, F)) */\n      add\n        /* \"poseidon-solidity/PoseidonT3.sol\":21456:21542  add(add(mulmod(scratch0, M02, F), mulmod(scratch1, M12, F)), mulmod(scratch2, M22, F)) */\n      add\n        /* \"poseidon-solidity/PoseidonT3.sol\":21388:21454  0x04a12ededa9dfd689672f8c67fee31636dcd8e88d01d49019bd90b33eb33db69 */\n      0x04a12ededa9dfd689672f8c67fee31636dcd8e88d01d49019bd90b33eb33db69\n        /* \"poseidon-solidity/PoseidonT3.sol\":21384:21543  add(0x04a12ededa9dfd689672f8c67fee31636dcd8e88d01d49019bd90b33eb33db69, add(add(mulmod(scratch0, M02, F), mulmod(scratch1, M12, F)), mulmod(scratch2, M22, F))) */\n      add\n        /* \"poseidon-solidity/PoseidonT3.sol\":21374:21543  state2 := add(0x04a12ededa9dfd689672f8c67fee31636dcd8e88d01d49019bd90b33eb33db69, add(add(mulmod(scratch0, M02, F), mulmod(scratch1, M12, F)), mulmod(scratch2, M22, F))) */\n      swap5\n      pop\n        /* \"poseidon-solidity/PoseidonT3.sol\":21585:21586  F */\n      dup10\n        /* \"poseidon-solidity/PoseidonT3.sol\":21577:21583  state0 */\n      dup2\n        /* \"poseidon-solidity/PoseidonT3.sol\":21569:21575  state0 */\n      dup3\n        /* \"poseidon-solidity/PoseidonT3.sol\":21562:21587  mulmod(state0, state0, F) */\n      mulmod\n        /* \"poseidon-solidity/PoseidonT3.sol\":21550:21587  scratch0 := mulmod(state0, state0, F) */\n      swap4\n      pop\n        /* \"poseidon-solidity/PoseidonT3.sol\":21650:21651  F */\n      dup10\n        /* \"poseidon-solidity/PoseidonT3.sol\":21642:21648  state0 */\n      dup2\n        /* \"poseidon-solidity/PoseidonT3.sol\":21638:21639  F */\n      dup12\n        /* \"poseidon-solidity/PoseidonT3.sol\":21628:21636  scratch0 */\n      dup7\n        /* \"poseidon-solidity/PoseidonT3.sol\":21618:21626  scratch0 */\n      dup8\n        /* \"poseidon-solidity/PoseidonT3.sol\":21611:21640  mulmod(scratch0, scratch0, F) */\n      mulmod\n        /* \"poseidon-solidity/PoseidonT3.sol\":21604:21652  mulmod(mulmod(scratch0, scratch0, F), state0, F) */\n      mulmod\n        /* \"poseidon-solidity/PoseidonT3.sol\":21594:21652  state0 := mulmod(mulmod(scratch0, scratch0, F), state0, F) */\n      swap1\n      pop\n        /* \"poseidon-solidity/PoseidonT3.sol\":21820:21821  F */\n      dup10\n        /* \"poseidon-solidity/PoseidonT3.sol\":21815:21818  M20 */\n      dup10\n        /* \"poseidon-solidity/PoseidonT3.sol\":21807:21813  state2 */\n      dup7\n        /* \"poseidon-solidity/PoseidonT3.sol\":21800:21822  mulmod(state2, M20, F) */\n      mulmod\n        /* \"poseidon-solidity/PoseidonT3.sol\":21795:21796  F */\n      dup11\n        /* \"poseidon-solidity/PoseidonT3.sol\":21790:21793  M10 */\n      0x16ed41e13bb9c0c66ae119424fddbcbc9314dc9fdbdeea55d6c64543dc4903e0\n        /* \"poseidon-solidity/PoseidonT3.sol\":21782:21788  state1 */\n      dup9\n        /* \"poseidon-solidity/PoseidonT3.sol\":21775:21797  mulmod(state1, M10, F) */\n      mulmod\n        /* \"poseidon-solidity/PoseidonT3.sol\":21771:21772  F */\n      dup12\n        /* \"poseidon-solidity/PoseidonT3.sol\":21766:21769  M00 */\n      0x109b7f411ba0e4c9b2b70caf5c36a7b194be7c11ad24378bfedb68592ba8118b\n        /* \"poseidon-solidity/PoseidonT3.sol\":21758:21764  state0 */\n      dup5\n        /* \"poseidon-solidity/PoseidonT3.sol\":21751:21773  mulmod(state0, M00, F) */\n      mulmod\n        /* \"poseidon-solidity/PoseidonT3.sol\":21747:21798  add(mulmod(state0, M00, F), mulmod(state1, M10, F)) */\n      add\n        /* \"poseidon-solidity/PoseidonT3.sol\":21743:21823  add(add(mulmod(state0, M00, F), mulmod(state1, M10, F)), mulmod(state2, M20, F)) */\n      add\n        /* \"poseidon-solidity/PoseidonT3.sol\":21675:21741  0x27e88d8c15f37dcee44f1e5425a51decbd136ce5091a6767e49ec9544ccd101a */\n      0x27e88d8c15f37dcee44f1e5425a51decbd136ce5091a6767e49ec9544ccd101a\n        /* \"poseidon-solidity/PoseidonT3.sol\":21671:21824  add(0x27e88d8c15f37dcee44f1e5425a51decbd136ce5091a6767e49ec9544ccd101a, add(add(mulmod(state0, M00, F), mulmod(state1, M10, F)), mulmod(state2, M20, F))) */\n      add\n        /* \"poseidon-solidity/PoseidonT3.sol\":21659:21824  scratch0 := add(0x27e88d8c15f37dcee44f1e5425a51decbd136ce5091a6767e49ec9544ccd101a, add(add(mulmod(state0, M00, F), mulmod(state1, M10, F)), mulmod(state2, M20, F))) */\n      swap4\n      pop\n        /* \"poseidon-solidity/PoseidonT3.sol\":21992:21993  F */\n      dup10\n        /* \"poseidon-solidity/PoseidonT3.sol\":21987:21990  M21 */\n      dup9\n        /* \"poseidon-solidity/PoseidonT3.sol\":21979:21985  state2 */\n      dup7\n        /* \"poseidon-solidity/PoseidonT3.sol\":21972:21994  mulmod(state2, M21, F) */\n      mulmod\n        /* \"poseidon-solidity/PoseidonT3.sol\":21967:21968  F */\n      dup11\n        /* \"poseidon-solidity/PoseidonT3.sol\":21962:21965  M11 */\n      0x2e2419f9ec02ec394c9871c832963dc1b89d743c8c7b964029b2311687b1fe23\n        /* \"poseidon-solidity/PoseidonT3.sol\":21954:21960  state1 */\n      dup9\n        /* \"poseidon-solidity/PoseidonT3.sol\":21947:21969  mulmod(state1, M11, F) */\n      mulmod\n        /* \"poseidon-solidity/PoseidonT3.sol\":21943:21944  F */\n      dup12\n        /* \"poseidon-solidity/PoseidonT3.sol\":21938:21941  M01 */\n      0x2969f27eed31a480b9c36c764379dbca2cc8fdd1415c3dded62940bcde0bd771\n        /* \"poseidon-solidity/PoseidonT3.sol\":21930:21936  state0 */\n      dup5\n        /* \"poseidon-solidity/PoseidonT3.sol\":21923:21945  mulmod(state0, M01, F) */\n      mulmod\n        /* \"poseidon-solidity/PoseidonT3.sol\":21919:21970  add(mulmod(state0, M01, F), mulmod(state1, M11, F)) */\n      add\n        /* \"poseidon-solidity/PoseidonT3.sol\":21915:21995  add(add(mulmod(state0, M01, F), mulmod(state1, M11, F)), mulmod(state2, M21, F)) */\n      add\n        /* \"poseidon-solidity/PoseidonT3.sol\":21847:21913  0x2feed17b84285ed9b8a5c8c5e95a41f66e096619a7703223176c41ee433de4d1 */\n      0x2feed17b84285ed9b8a5c8c5e95a41f66e096619a7703223176c41ee433de4d1\n        /* \"poseidon-solidity/PoseidonT3.sol\":21843:21996  add(0x2feed17b84285ed9b8a5c8c5e95a41f66e096619a7703223176c41ee433de4d1, add(add(mulmod(state0, M01, F), mulmod(state1, M11, F)), mulmod(state2, M21, F))) */\n      add\n        /* \"poseidon-solidity/PoseidonT3.sol\":21831:21996  scratch1 := add(0x2feed17b84285ed9b8a5c8c5e95a41f66e096619a7703223176c41ee433de4d1, add(add(mulmod(state0, M01, F), mulmod(state1, M11, F)), mulmod(state2, M21, F))) */\n      swap3\n      pop\n        /* \"poseidon-solidity/PoseidonT3.sol\":22164:22165  F */\n      dup10\n        /* \"poseidon-solidity/PoseidonT3.sol\":22159:22162  M22 */\n      dup8\n        /* \"poseidon-solidity/PoseidonT3.sol\":22151:22157  state2 */\n      dup7\n        /* \"poseidon-solidity/PoseidonT3.sol\":22144:22166  mulmod(state2, M22, F) */\n      mulmod\n        /* \"poseidon-solidity/PoseidonT3.sol\":22139:22140  F */\n      dup11\n        /* \"poseidon-solidity/PoseidonT3.sol\":22134:22137  M12 */\n      0x176cc029695ad02582a70eff08a6fd99d057e12e58e7d7b6b16cdfabc8ee2911\n        /* \"poseidon-solidity/PoseidonT3.sol\":22126:22132  state1 */\n      dup9\n        /* \"poseidon-solidity/PoseidonT3.sol\":22119:22141  mulmod(state1, M12, F) */\n      mulmod\n        /* \"poseidon-solidity/PoseidonT3.sol\":22115:22116  F */\n      dup12\n        /* \"poseidon-solidity/PoseidonT3.sol\":22110:22113  M02 */\n      0x143021ec686a3f330d5f9e654638065ce6cd79e28c5b3753326244ee65a1b1a7\n        /* \"poseidon-solidity/PoseidonT3.sol\":22102:22108  state0 */\n      dup5\n        /* \"poseidon-solidity/PoseidonT3.sol\":22095:22117  mulmod(state0, M02, F) */\n      mulmod\n        /* \"poseidon-solidity/PoseidonT3.sol\":22091:22142  add(mulmod(state0, M02, F), mulmod(state1, M12, F)) */\n      add\n        /* \"poseidon-solidity/PoseidonT3.sol\":22087:22167  add(add(mulmod(state0, M02, F), mulmod(state1, M12, F)), mulmod(state2, M22, F)) */\n      add\n        /* \"poseidon-solidity/PoseidonT3.sol\":22019:22085  0x1ed7cc76edf45c7c404241420f729cf394e5942911312a0d6972b8bd53aff2b8 */\n      0x1ed7cc76edf45c7c404241420f729cf394e5942911312a0d6972b8bd53aff2b8\n        /* \"poseidon-solidity/PoseidonT3.sol\":22015:22168  add(0x1ed7cc76edf45c7c404241420f729cf394e5942911312a0d6972b8bd53aff2b8, add(add(mulmod(state0, M02, F), mulmod(state1, M12, F)), mulmod(state2, M22, F))) */\n      add\n        /* \"poseidon-solidity/PoseidonT3.sol\":22003:22168  scratch2 := add(0x1ed7cc76edf45c7c404241420f729cf394e5942911312a0d6972b8bd53aff2b8, add(add(mulmod(state0, M02, F), mulmod(state1, M12, F)), mulmod(state2, M22, F))) */\n      swap2\n      pop\n        /* \"poseidon-solidity/PoseidonT3.sol\":22212:22213  F */\n      dup10\n        /* \"poseidon-solidity/PoseidonT3.sol\":22202:22210  scratch0 */\n      dup5\n        /* \"poseidon-solidity/PoseidonT3.sol\":22192:22200  scratch0 */\n      dup6\n        /* \"poseidon-solidity/PoseidonT3.sol\":22185:22214  mulmod(scratch0, scratch0, F) */\n      mulmod\n        /* \"poseidon-solidity/PoseidonT3.sol\":22175:22214  state0 := mulmod(scratch0, scratch0, F) */\n      swap1\n      pop\n        /* \"poseidon-solidity/PoseidonT3.sol\":22277:22278  F */\n      dup10\n        /* \"poseidon-solidity/PoseidonT3.sol\":22267:22275  scratch0 */\n      dup5\n        /* \"poseidon-solidity/PoseidonT3.sol\":22263:22264  F */\n      dup12\n        /* \"poseidon-solidity/PoseidonT3.sol\":22255:22261  state0 */\n      dup4\n        /* \"poseidon-solidity/PoseidonT3.sol\":22247:22253  state0 */\n      dup5\n        /* \"poseidon-solidity/PoseidonT3.sol\":22240:22265  mulmod(state0, state0, F) */\n      mulmod\n        /* \"poseidon-solidity/PoseidonT3.sol\":22233:22279  mulmod(mulmod(state0, state0, F), scratch0, F) */\n      mulmod\n        /* \"poseidon-solidity/PoseidonT3.sol\":22221:22279  scratch0 := mulmod(mulmod(state0, state0, F), scratch0, F) */\n      swap4\n      pop\n        /* \"poseidon-solidity/PoseidonT3.sol\":22451:22452  F */\n      dup10\n        /* \"poseidon-solidity/PoseidonT3.sol\":22446:22449  M20 */\n      dup10\n        /* \"poseidon-solidity/PoseidonT3.sol\":22436:22444  scratch2 */\n      dup4\n        /* \"poseidon-solidity/PoseidonT3.sol\":22429:22453  mulmod(scratch2, M20, F) */\n      mulmod\n        /* \"poseidon-solidity/PoseidonT3.sol\":22424:22425  F */\n      dup11\n        /* \"poseidon-solidity/PoseidonT3.sol\":22419:22422  M10 */\n      0x16ed41e13bb9c0c66ae119424fddbcbc9314dc9fdbdeea55d6c64543dc4903e0\n        /* \"poseidon-solidity/PoseidonT3.sol\":22409:22417  scratch1 */\n      dup6\n        /* \"poseidon-solidity/PoseidonT3.sol\":22402:22426  mulmod(scratch1, M10, F) */\n      mulmod\n        /* \"poseidon-solidity/PoseidonT3.sol\":22398:22399  F */\n      dup12\n        /* \"poseidon-solidity/PoseidonT3.sol\":22393:22396  M00 */\n      0x109b7f411ba0e4c9b2b70caf5c36a7b194be7c11ad24378bfedb68592ba8118b\n        /* \"poseidon-solidity/PoseidonT3.sol\":22383:22391  scratch0 */\n      dup8\n        /* \"poseidon-solidity/PoseidonT3.sol\":22376:22400  mulmod(scratch0, M00, F) */\n      mulmod\n        /* \"poseidon-solidity/PoseidonT3.sol\":22372:22427  add(mulmod(scratch0, M00, F), mulmod(scratch1, M10, F)) */\n      add\n        /* \"poseidon-solidity/PoseidonT3.sol\":22368:22454  add(add(mulmod(scratch0, M00, F), mulmod(scratch1, M10, F)), mulmod(scratch2, M20, F)) */\n      add\n        /* \"poseidon-solidity/PoseidonT3.sol\":22300:22366  0x15742e99b9bfa323157ff8c586f5660eac6783476144cdcadf2874be45466b1a */\n      0x15742e99b9bfa323157ff8c586f5660eac6783476144cdcadf2874be45466b1a\n        /* \"poseidon-solidity/PoseidonT3.sol\":22296:22455  add(0x15742e99b9bfa323157ff8c586f5660eac6783476144cdcadf2874be45466b1a, add(add(mulmod(scratch0, M00, F), mulmod(scratch1, M10, F)), mulmod(scratch2, M20, F))) */\n      add\n        /* \"poseidon-solidity/PoseidonT3.sol\":22286:22455  state0 := add(0x15742e99b9bfa323157ff8c586f5660eac6783476144cdcadf2874be45466b1a, add(add(mulmod(scratch0, M00, F), mulmod(scratch1, M10, F)), mulmod(scratch2, M20, F))) */\n      swap1\n      pop\n        /* \"poseidon-solidity/PoseidonT3.sol\":22627:22628  F */\n      dup10\n        /* \"poseidon-solidity/PoseidonT3.sol\":22622:22625  M21 */\n      dup9\n        /* \"poseidon-solidity/PoseidonT3.sol\":22612:22620  scratch2 */\n      dup4\n        /* \"poseidon-solidity/PoseidonT3.sol\":22605:22629  mulmod(scratch2, M21, F) */\n      mulmod\n        /* \"poseidon-solidity/PoseidonT3.sol\":22600:22601  F */\n      dup11\n        /* \"poseidon-solidity/PoseidonT3.sol\":22595:22598  M11 */\n      0x2e2419f9ec02ec394c9871c832963dc1b89d743c8c7b964029b2311687b1fe23\n        /* \"poseidon-solidity/PoseidonT3.sol\":22585:22593  scratch1 */\n      dup6\n        /* \"poseidon-solidity/PoseidonT3.sol\":22578:22602  mulmod(scratch1, M11, F) */\n      mulmod\n        /* \"poseidon-solidity/PoseidonT3.sol\":22574:22575  F */\n      dup12\n        /* \"poseidon-solidity/PoseidonT3.sol\":22569:22572  M01 */\n      0x2969f27eed31a480b9c36c764379dbca2cc8fdd1415c3dded62940bcde0bd771\n        /* \"poseidon-solidity/PoseidonT3.sol\":22559:22567  scratch0 */\n      dup8\n        /* \"poseidon-solidity/PoseidonT3.sol\":22552:22576  mulmod(scratch0, M01, F) */\n      mulmod\n        /* \"poseidon-solidity/PoseidonT3.sol\":22548:22603  add(mulmod(scratch0, M01, F), mulmod(scratch1, M11, F)) */\n      add\n        /* \"poseidon-solidity/PoseidonT3.sol\":22544:22630  add(add(mulmod(scratch0, M01, F), mulmod(scratch1, M11, F)), mulmod(scratch2, M21, F)) */\n      add\n        /* \"poseidon-solidity/PoseidonT3.sol\":22476:22542  0x1aac285387f65e82c895fc6887ddf40577107454c6ec0317284f033f27d0c785 */\n      0x1aac285387f65e82c895fc6887ddf40577107454c6ec0317284f033f27d0c785\n        /* \"poseidon-solidity/PoseidonT3.sol\":22472:22631  add(0x1aac285387f65e82c895fc6887ddf40577107454c6ec0317284f033f27d0c785, add(add(mulmod(scratch0, M01, F), mulmod(scratch1, M11, F)), mulmod(scratch2, M21, F))) */\n      add\n        /* \"poseidon-solidity/PoseidonT3.sol\":22462:22631  state1 := add(0x1aac285387f65e82c895fc6887ddf40577107454c6ec0317284f033f27d0c785, add(add(mulmod(scratch0, M01, F), mulmod(scratch1, M11, F)), mulmod(scratch2, M21, F))) */\n      swap6\n      pop\n        /* \"poseidon-solidity/PoseidonT3.sol\":22803:22804  F */\n      dup10\n        /* \"poseidon-solidity/PoseidonT3.sol\":22798:22801  M22 */\n      dup8\n        /* \"poseidon-solidity/PoseidonT3.sol\":22788:22796  scratch2 */\n      dup4\n        /* \"poseidon-solidity/PoseidonT3.sol\":22781:22805  mulmod(scratch2, M22, F) */\n      mulmod\n        /* \"poseidon-solidity/PoseidonT3.sol\":22776:22777  F */\n      dup11\n        /* \"poseidon-solidity/PoseidonT3.sol\":22771:22774  M12 */\n      0x176cc029695ad02582a70eff08a6fd99d057e12e58e7d7b6b16cdfabc8ee2911\n        /* \"poseidon-solidity/PoseidonT3.sol\":22761:22769  scratch1 */\n      dup6\n        /* \"poseidon-solidity/PoseidonT3.sol\":22754:22778  mulmod(scratch1, M12, F) */\n      mulmod\n        /* \"poseidon-solidity/PoseidonT3.sol\":22750:22751  F */\n      dup12\n        /* \"poseidon-solidity/PoseidonT3.sol\":22745:22748  M02 */\n      0x143021ec686a3f330d5f9e654638065ce6cd79e28c5b3753326244ee65a1b1a7\n        /* \"poseidon-solidity/PoseidonT3.sol\":22735:22743  scratch0 */\n      dup8\n        /* \"poseidon-solidity/PoseidonT3.sol\":22728:22752  mulmod(scratch0, M02, F) */\n      mulmod\n        /* \"poseidon-solidity/PoseidonT3.sol\":22724:22779  add(mulmod(scratch0, M02, F), mulmod(scratch1, M12, F)) */\n      add\n        /* \"poseidon-solidity/PoseidonT3.sol\":22720:22806  add(add(mulmod(scratch0, M02, F), mulmod(scratch1, M12, F)), mulmod(scratch2, M22, F)) */\n      add\n        /* \"poseidon-solidity/PoseidonT3.sol\":22652:22718  0x25851c3c845d4790f9ddadbdb6057357832e2e7a49775f71ec75a96554d67c77 */\n      0x25851c3c845d4790f9ddadbdb6057357832e2e7a49775f71ec75a96554d67c77\n        /* \"poseidon-solidity/PoseidonT3.sol\":22648:22807  add(0x25851c3c845d4790f9ddadbdb6057357832e2e7a49775f71ec75a96554d67c77, add(add(mulmod(scratch0, M02, F), mulmod(scratch1, M12, F)), mulmod(scratch2, M22, F))) */\n      add\n        /* \"poseidon-solidity/PoseidonT3.sol\":22638:22807  state2 := add(0x25851c3c845d4790f9ddadbdb6057357832e2e7a49775f71ec75a96554d67c77, add(add(mulmod(scratch0, M02, F), mulmod(scratch1, M12, F)), mulmod(scratch2, M22, F))) */\n      swap5\n      pop\n        /* \"poseidon-solidity/PoseidonT3.sol\":22849:22850  F */\n      dup10\n        /* \"poseidon-solidity/PoseidonT3.sol\":22841:22847  state0 */\n      dup2\n        /* \"poseidon-solidity/PoseidonT3.sol\":22833:22839  state0 */\n      dup3\n        /* \"poseidon-solidity/PoseidonT3.sol\":22826:22851  mulmod(state0, state0, F) */\n      mulmod\n        /* \"poseidon-solidity/PoseidonT3.sol\":22814:22851  scratch0 := mulmod(state0, state0, F) */\n      swap4\n      pop\n        /* \"poseidon-solidity/PoseidonT3.sol\":22914:22915  F */\n      dup10\n        /* \"poseidon-solidity/PoseidonT3.sol\":22906:22912  state0 */\n      dup2\n        /* \"poseidon-solidity/PoseidonT3.sol\":22902:22903  F */\n      dup12\n        /* \"poseidon-solidity/PoseidonT3.sol\":22892:22900  scratch0 */\n      dup7\n        /* \"poseidon-solidity/PoseidonT3.sol\":22882:22890  scratch0 */\n      dup8\n        /* \"poseidon-solidity/PoseidonT3.sol\":22875:22904  mulmod(scratch0, scratch0, F) */\n      mulmod\n        /* \"poseidon-solidity/PoseidonT3.sol\":22868:22916  mulmod(mulmod(scratch0, scratch0, F), state0, F) */\n      mulmod\n        /* \"poseidon-solidity/PoseidonT3.sol\":22858:22916  state0 := mulmod(mulmod(scratch0, scratch0, F), state0, F) */\n      swap1\n      pop\n        /* \"poseidon-solidity/PoseidonT3.sol\":23084:23085  F */\n      dup10\n        /* \"poseidon-solidity/PoseidonT3.sol\":23079:23082  M20 */\n      dup10\n        /* \"poseidon-solidity/PoseidonT3.sol\":23071:23077  state2 */\n      dup7\n        /* \"poseidon-solidity/PoseidonT3.sol\":23064:23086  mulmod(state2, M20, F) */\n      mulmod\n        /* \"poseidon-solidity/PoseidonT3.sol\":23059:23060  F */\n      dup11\n        /* \"poseidon-solidity/PoseidonT3.sol\":23054:23057  M10 */\n      0x16ed41e13bb9c0c66ae119424fddbcbc9314dc9fdbdeea55d6c64543dc4903e0\n        /* \"poseidon-solidity/PoseidonT3.sol\":23046:23052  state1 */\n      dup9\n        /* \"poseidon-solidity/PoseidonT3.sol\":23039:23061  mulmod(state1, M10, F) */\n      mulmod\n        /* \"poseidon-solidity/PoseidonT3.sol\":23035:23036  F */\n      dup12\n        /* \"poseidon-solidity/PoseidonT3.sol\":23030:23033  M00 */\n      0x109b7f411ba0e4c9b2b70caf5c36a7b194be7c11ad24378bfedb68592ba8118b\n        /* \"poseidon-solidity/PoseidonT3.sol\":23022:23028  state0 */\n      dup5\n        /* \"poseidon-solidity/PoseidonT3.sol\":23015:23037  mulmod(state0, M00, F) */\n      mulmod\n        /* \"poseidon-solidity/PoseidonT3.sol\":23011:23062  add(mulmod(state0, M00, F), mulmod(state1, M10, F)) */\n      add\n        /* \"poseidon-solidity/PoseidonT3.sol\":23007:23087  add(add(mulmod(state0, M00, F), mulmod(state1, M10, F)), mulmod(state2, M20, F)) */\n      add\n        /* \"poseidon-solidity/PoseidonT3.sol\":22939:23005  0x15a5821565cc2ec2ce78457db197edf353b7ebba2c5523370ddccc3d9f146a67 */\n      0x15a5821565cc2ec2ce78457db197edf353b7ebba2c5523370ddccc3d9f146a67\n        /* \"poseidon-solidity/PoseidonT3.sol\":22935:23088  add(0x15a5821565cc2ec2ce78457db197edf353b7ebba2c5523370ddccc3d9f146a67, add(add(mulmod(state0, M00, F), mulmod(state1, M10, F)), mulmod(state2, M20, F))) */\n      add\n        /* \"poseidon-solidity/PoseidonT3.sol\":22923:23088  scratch0 := add(0x15a5821565cc2ec2ce78457db197edf353b7ebba2c5523370ddccc3d9f146a67, add(add(mulmod(state0, M00, F), mulmod(state1, M10, F)), mulmod(state2, M20, F))) */\n      swap4\n      pop\n        /* \"poseidon-solidity/PoseidonT3.sol\":23256:23257  F */\n      dup10\n        /* \"poseidon-solidity/PoseidonT3.sol\":23251:23254  M21 */\n      dup9\n        /* \"poseidon-solidity/PoseidonT3.sol\":23243:23249  state2 */\n      dup7\n        /* \"poseidon-solidity/PoseidonT3.sol\":23236:23258  mulmod(state2, M21, F) */\n      mulmod\n        /* \"poseidon-solidity/PoseidonT3.sol\":23231:23232  F */\n      dup11\n        /* \"poseidon-solidity/PoseidonT3.sol\":23226:23229  M11 */\n      0x2e2419f9ec02ec394c9871c832963dc1b89d743c8c7b964029b2311687b1fe23\n        /* \"poseidon-solidity/PoseidonT3.sol\":23218:23224  state1 */\n      dup9\n        /* \"poseidon-solidity/PoseidonT3.sol\":23211:23233  mulmod(state1, M11, F) */\n      mulmod\n        /* \"poseidon-solidity/PoseidonT3.sol\":23207:23208  F */\n      dup12\n        /* \"poseidon-solidity/PoseidonT3.sol\":23202:23205  M01 */\n      0x2969f27eed31a480b9c36c764379dbca2cc8fdd1415c3dded62940bcde0bd771\n        /* \"poseidon-solidity/PoseidonT3.sol\":23194:23200  state0 */\n      dup5\n        /* \"poseidon-solidity/PoseidonT3.sol\":23187:23209  mulmod(state0, M01, F) */\n      mulmod\n        /* \"poseidon-solidity/PoseidonT3.sol\":23183:23234  add(mulmod(state0, M01, F), mulmod(state1, M11, F)) */\n      add\n        /* \"poseidon-solidity/PoseidonT3.sol\":23179:23259  add(add(mulmod(state0, M01, F), mulmod(state1, M11, F)), mulmod(state2, M21, F)) */\n      add\n        /* \"poseidon-solidity/PoseidonT3.sol\":23111:23177  0x2411d57a4813b9980efa7e31a1db5966dcf64f36044277502f15485f28c71727 */\n      0x2411d57a4813b9980efa7e31a1db5966dcf64f36044277502f15485f28c71727\n        /* \"poseidon-solidity/PoseidonT3.sol\":23107:23260  add(0x2411d57a4813b9980efa7e31a1db5966dcf64f36044277502f15485f28c71727, add(add(mulmod(state0, M01, F), mulmod(state1, M11, F)), mulmod(state2, M21, F))) */\n      add\n        /* \"poseidon-solidity/PoseidonT3.sol\":23095:23260  scratch1 := add(0x2411d57a4813b9980efa7e31a1db5966dcf64f36044277502f15485f28c71727, add(add(mulmod(state0, M01, F), mulmod(state1, M11, F)), mulmod(state2, M21, F))) */\n      swap3\n      pop\n        /* \"poseidon-solidity/PoseidonT3.sol\":23428:23429  F */\n      dup10\n        /* \"poseidon-solidity/PoseidonT3.sol\":23423:23426  M22 */\n      dup8\n        /* \"poseidon-solidity/PoseidonT3.sol\":23415:23421  state2 */\n      dup7\n        /* \"poseidon-solidity/PoseidonT3.sol\":23408:23430  mulmod(state2, M22, F) */\n      mulmod\n        /* \"poseidon-solidity/PoseidonT3.sol\":23403:23404  F */\n      dup11\n        /* \"poseidon-solidity/PoseidonT3.sol\":23398:23401  M12 */\n      0x176cc029695ad02582a70eff08a6fd99d057e12e58e7d7b6b16cdfabc8ee2911\n        /* \"poseidon-solidity/PoseidonT3.sol\":23390:23396  state1 */\n      dup9\n        /* \"poseidon-solidity/PoseidonT3.sol\":23383:23405  mulmod(state1, M12, F) */\n      mulmod\n        /* \"poseidon-solidity/PoseidonT3.sol\":23379:23380  F */\n      dup12\n        /* \"poseidon-solidity/PoseidonT3.sol\":23374:23377  M02 */\n      0x143021ec686a3f330d5f9e654638065ce6cd79e28c5b3753326244ee65a1b1a7\n        /* \"poseidon-solidity/PoseidonT3.sol\":23366:23372  state0 */\n      dup5\n        /* \"poseidon-solidity/PoseidonT3.sol\":23359:23381  mulmod(state0, M02, F) */\n      mulmod\n        /* \"poseidon-solidity/PoseidonT3.sol\":23355:23406  add(mulmod(state0, M02, F), mulmod(state1, M12, F)) */\n      add\n        /* \"poseidon-solidity/PoseidonT3.sol\":23351:23431  add(add(mulmod(state0, M02, F), mulmod(state1, M12, F)), mulmod(state2, M22, F)) */\n      add\n        /* \"poseidon-solidity/PoseidonT3.sol\":23283:23349  0x002e6f8d6520cd4713e335b8c0b6d2e647e9a98e12f4cd2558828b5ef6cb4c9b */\n      0x2e6f8d6520cd4713e335b8c0b6d2e647e9a98e12f4cd2558828b5ef6cb4c9b\n        /* \"poseidon-solidity/PoseidonT3.sol\":23279:23432  add(0x002e6f8d6520cd4713e335b8c0b6d2e647e9a98e12f4cd2558828b5ef6cb4c9b, add(add(mulmod(state0, M02, F), mulmod(state1, M12, F)), mulmod(state2, M22, F))) */\n      add\n        /* \"poseidon-solidity/PoseidonT3.sol\":23267:23432  scratch2 := add(0x002e6f8d6520cd4713e335b8c0b6d2e647e9a98e12f4cd2558828b5ef6cb4c9b, add(add(mulmod(state0, M02, F), mulmod(state1, M12, F)), mulmod(state2, M22, F))) */\n      swap2\n      pop\n        /* \"poseidon-solidity/PoseidonT3.sol\":23476:23477  F */\n      dup10\n        /* \"poseidon-solidity/PoseidonT3.sol\":23466:23474  scratch0 */\n      dup5\n        /* \"poseidon-solidity/PoseidonT3.sol\":23456:23464  scratch0 */\n      dup6\n        /* \"poseidon-solidity/PoseidonT3.sol\":23449:23478  mulmod(scratch0, scratch0, F) */\n      mulmod\n        /* \"poseidon-solidity/PoseidonT3.sol\":23439:23478  state0 := mulmod(scratch0, scratch0, F) */\n      swap1\n      pop\n        /* \"poseidon-solidity/PoseidonT3.sol\":23541:23542  F */\n      dup10\n        /* \"poseidon-solidity/PoseidonT3.sol\":23531:23539  scratch0 */\n      dup5\n        /* \"poseidon-solidity/PoseidonT3.sol\":23527:23528  F */\n      dup12\n        /* \"poseidon-solidity/PoseidonT3.sol\":23519:23525  state0 */\n      dup4\n        /* \"poseidon-solidity/PoseidonT3.sol\":23511:23517  state0 */\n      dup5\n        /* \"poseidon-solidity/PoseidonT3.sol\":23504:23529  mulmod(state0, state0, F) */\n      mulmod\n        /* \"poseidon-solidity/PoseidonT3.sol\":23497:23543  mulmod(mulmod(state0, state0, F), scratch0, F) */\n      mulmod\n        /* \"poseidon-solidity/PoseidonT3.sol\":23485:23543  scratch0 := mulmod(mulmod(state0, state0, F), scratch0, F) */\n      swap4\n      pop\n        /* \"poseidon-solidity/PoseidonT3.sol\":23715:23716  F */\n      dup10\n        /* \"poseidon-solidity/PoseidonT3.sol\":23710:23713  M20 */\n      dup10\n        /* \"poseidon-solidity/PoseidonT3.sol\":23700:23708  scratch2 */\n      dup4\n        /* \"poseidon-solidity/PoseidonT3.sol\":23693:23717  mulmod(scratch2, M20, F) */\n      mulmod\n        /* \"poseidon-solidity/PoseidonT3.sol\":23688:23689  F */\n      dup11\n        /* \"poseidon-solidity/PoseidonT3.sol\":23683:23686  M10 */\n      0x16ed41e13bb9c0c66ae119424fddbcbc9314dc9fdbdeea55d6c64543dc4903e0\n        /* \"poseidon-solidity/PoseidonT3.sol\":23673:23681  scratch1 */\n      dup6\n        /* \"poseidon-solidity/PoseidonT3.sol\":23666:23690  mulmod(scratch1, M10, F) */\n      mulmod\n        /* \"poseidon-solidity/PoseidonT3.sol\":23662:23663  F */\n      dup12\n        /* \"poseidon-solidity/PoseidonT3.sol\":23657:23660  M00 */\n      0x109b7f411ba0e4c9b2b70caf5c36a7b194be7c11ad24378bfedb68592ba8118b\n        /* \"poseidon-solidity/PoseidonT3.sol\":23647:23655  scratch0 */\n      dup8\n        /* \"poseidon-solidity/PoseidonT3.sol\":23640:23664  mulmod(scratch0, M00, F) */\n      mulmod\n        /* \"poseidon-solidity/PoseidonT3.sol\":23636:23691  add(mulmod(scratch0, M00, F), mulmod(scratch1, M10, F)) */\n      add\n        /* \"poseidon-solidity/PoseidonT3.sol\":23632:23718  add(add(mulmod(scratch0, M00, F), mulmod(scratch1, M10, F)), mulmod(scratch2, M20, F)) */\n      add\n        /* \"poseidon-solidity/PoseidonT3.sol\":23564:23630  0x2ff7bc8f4380cde997da00b616b0fcd1af8f0e91e2fe1ed7398834609e0315d2 */\n      0x2ff7bc8f4380cde997da00b616b0fcd1af8f0e91e2fe1ed7398834609e0315d2\n        /* \"poseidon-solidity/PoseidonT3.sol\":23560:23719  add(0x2ff7bc8f4380cde997da00b616b0fcd1af8f0e91e2fe1ed7398834609e0315d2, add(add(mulmod(scratch0, M00, F), mulmod(scratch1, M10, F)), mulmod(scratch2, M20, F))) */\n      add\n        /* \"poseidon-solidity/PoseidonT3.sol\":23550:23719  state0 := add(0x2ff7bc8f4380cde997da00b616b0fcd1af8f0e91e2fe1ed7398834609e0315d2, add(add(mulmod(scratch0, M00, F), mulmod(scratch1, M10, F)), mulmod(scratch2, M20, F))) */\n      swap1\n      pop\n        /* \"poseidon-solidity/PoseidonT3.sol\":23891:23892  F */\n      dup10\n        /* \"poseidon-solidity/PoseidonT3.sol\":23886:23889  M21 */\n      dup9\n        /* \"poseidon-solidity/PoseidonT3.sol\":23876:23884  scratch2 */\n      dup4\n        /* \"poseidon-solidity/PoseidonT3.sol\":23869:23893  mulmod(scratch2, M21, F) */\n      mulmod\n        /* \"poseidon-solidity/PoseidonT3.sol\":23864:23865  F */\n      dup11\n        /* \"poseidon-solidity/PoseidonT3.sol\":23859:23862  M11 */\n      0x2e2419f9ec02ec394c9871c832963dc1b89d743c8c7b964029b2311687b1fe23\n        /* \"poseidon-solidity/PoseidonT3.sol\":23849:23857  scratch1 */\n      dup6\n        /* \"poseidon-solidity/PoseidonT3.sol\":23842:23866  mulmod(scratch1, M11, F) */\n      mulmod\n        /* \"poseidon-solidity/PoseidonT3.sol\":23838:23839  F */\n      dup12\n        /* \"poseidon-solidity/PoseidonT3.sol\":23833:23836  M01 */\n      0x2969f27eed31a480b9c36c764379dbca2cc8fdd1415c3dded62940bcde0bd771\n        /* \"poseidon-solidity/PoseidonT3.sol\":23823:23831  scratch0 */\n      dup8\n        /* \"poseidon-solidity/PoseidonT3.sol\":23816:23840  mulmod(scratch0, M01, F) */\n      mulmod\n        /* \"poseidon-solidity/PoseidonT3.sol\":23812:23867  add(mulmod(scratch0, M01, F), mulmod(scratch1, M11, F)) */\n      add\n        /* \"poseidon-solidity/PoseidonT3.sol\":23808:23894  add(add(mulmod(scratch0, M01, F), mulmod(scratch1, M11, F)), mulmod(scratch2, M21, F)) */\n      add\n        /* \"poseidon-solidity/PoseidonT3.sol\":23740:23806  0x00b9831b948525595ee02724471bcd182e9521f6b7bb68f1e93be4febb0d3cbe */\n      0xb9831b948525595ee02724471bcd182e9521f6b7bb68f1e93be4febb0d3cbe\n        /* \"poseidon-solidity/PoseidonT3.sol\":23736:23895  add(0x00b9831b948525595ee02724471bcd182e9521f6b7bb68f1e93be4febb0d3cbe, add(add(mulmod(scratch0, M01, F), mulmod(scratch1, M11, F)), mulmod(scratch2, M21, F))) */\n      add\n        /* \"poseidon-solidity/PoseidonT3.sol\":23726:23895  state1 := add(0x00b9831b948525595ee02724471bcd182e9521f6b7bb68f1e93be4febb0d3cbe, add(add(mulmod(scratch0, M01, F), mulmod(scratch1, M11, F)), mulmod(scratch2, M21, F))) */\n      swap6\n      pop\n        /* \"poseidon-solidity/PoseidonT3.sol\":24067:24068  F */\n      dup10\n        /* \"poseidon-solidity/PoseidonT3.sol\":24062:24065  M22 */\n      dup8\n        /* \"poseidon-solidity/PoseidonT3.sol\":24052:24060  scratch2 */\n      dup4\n        /* \"poseidon-solidity/PoseidonT3.sol\":24045:24069  mulmod(scratch2, M22, F) */\n      mulmod\n        /* \"poseidon-solidity/PoseidonT3.sol\":24040:24041  F */\n      dup11\n        /* \"poseidon-solidity/PoseidonT3.sol\":24035:24038  M12 */\n      0x176cc029695ad02582a70eff08a6fd99d057e12e58e7d7b6b16cdfabc8ee2911\n        /* \"poseidon-solidity/PoseidonT3.sol\":24025:24033  scratch1 */\n      dup6\n        /* \"poseidon-solidity/PoseidonT3.sol\":24018:24042  mulmod(scratch1, M12, F) */\n      mulmod\n        /* \"poseidon-solidity/PoseidonT3.sol\":24014:24015  F */\n      dup12\n        /* \"poseidon-solidity/PoseidonT3.sol\":24009:24012  M02 */\n      0x143021ec686a3f330d5f9e654638065ce6cd79e28c5b3753326244ee65a1b1a7\n        /* \"poseidon-solidity/PoseidonT3.sol\":23999:24007  scratch0 */\n      dup8\n        /* \"poseidon-solidity/PoseidonT3.sol\":23992:24016  mulmod(scratch0, M02, F) */\n      mulmod\n        /* \"poseidon-solidity/PoseidonT3.sol\":23988:24043  add(mulmod(scratch0, M02, F), mulmod(scratch1, M12, F)) */\n      add\n        /* \"poseidon-solidity/PoseidonT3.sol\":23984:24070  add(add(mulmod(scratch0, M02, F), mulmod(scratch1, M12, F)), mulmod(scratch2, M22, F)) */\n      add\n        /* \"poseidon-solidity/PoseidonT3.sol\":23916:23982  0x0a2f53768b8ebf6a86913b0e57c04e011ca408648a4743a87d77adbf0c9c3512 */\n      0x0a2f53768b8ebf6a86913b0e57c04e011ca408648a4743a87d77adbf0c9c3512\n        /* \"poseidon-solidity/PoseidonT3.sol\":23912:24071  add(0x0a2f53768b8ebf6a86913b0e57c04e011ca408648a4743a87d77adbf0c9c3512, add(add(mulmod(scratch0, M02, F), mulmod(scratch1, M12, F)), mulmod(scratch2, M22, F))) */\n      add\n        /* \"poseidon-solidity/PoseidonT3.sol\":23902:24071  state2 := add(0x0a2f53768b8ebf6a86913b0e57c04e011ca408648a4743a87d77adbf0c9c3512, add(add(mulmod(scratch0, M02, F), mulmod(scratch1, M12, F)), mulmod(scratch2, M22, F))) */\n      swap5\n      pop\n        /* \"poseidon-solidity/PoseidonT3.sol\":24113:24114  F */\n      dup10\n        /* \"poseidon-solidity/PoseidonT3.sol\":24105:24111  state0 */\n      dup2\n        /* \"poseidon-solidity/PoseidonT3.sol\":24097:24103  state0 */\n      dup3\n        /* \"poseidon-solidity/PoseidonT3.sol\":24090:24115  mulmod(state0, state0, F) */\n      mulmod\n        /* \"poseidon-solidity/PoseidonT3.sol\":24078:24115  scratch0 := mulmod(state0, state0, F) */\n      swap4\n      pop\n        /* \"poseidon-solidity/PoseidonT3.sol\":24178:24179  F */\n      dup10\n        /* \"poseidon-solidity/PoseidonT3.sol\":24170:24176  state0 */\n      dup2\n        /* \"poseidon-solidity/PoseidonT3.sol\":24166:24167  F */\n      dup12\n        /* \"poseidon-solidity/PoseidonT3.sol\":24156:24164  scratch0 */\n      dup7\n        /* \"poseidon-solidity/PoseidonT3.sol\":24146:24154  scratch0 */\n      dup8\n        /* \"poseidon-solidity/PoseidonT3.sol\":24139:24168  mulmod(scratch0, scratch0, F) */\n      mulmod\n        /* \"poseidon-solidity/PoseidonT3.sol\":24132:24180  mulmod(mulmod(scratch0, scratch0, F), state0, F) */\n      mulmod\n        /* \"poseidon-solidity/PoseidonT3.sol\":24122:24180  state0 := mulmod(mulmod(scratch0, scratch0, F), state0, F) */\n      swap1\n      pop\n        /* \"poseidon-solidity/PoseidonT3.sol\":24348:24349  F */\n      dup10\n        /* \"poseidon-solidity/PoseidonT3.sol\":24343:24346  M20 */\n      dup10\n        /* \"poseidon-solidity/PoseidonT3.sol\":24335:24341  state2 */\n      dup7\n        /* \"poseidon-solidity/PoseidonT3.sol\":24328:24350  mulmod(state2, M20, F) */\n      mulmod\n        /* \"poseidon-solidity/PoseidonT3.sol\":24323:24324  F */\n      dup11\n        /* \"poseidon-solidity/PoseidonT3.sol\":24318:24321  M10 */\n      0x16ed41e13bb9c0c66ae119424fddbcbc9314dc9fdbdeea55d6c64543dc4903e0\n        /* \"poseidon-solidity/PoseidonT3.sol\":24310:24316  state1 */\n      dup9\n        /* \"poseidon-solidity/PoseidonT3.sol\":24303:24325  mulmod(state1, M10, F) */\n      mulmod\n        /* \"poseidon-solidity/PoseidonT3.sol\":24299:24300  F */\n      dup12\n        /* \"poseidon-solidity/PoseidonT3.sol\":24294:24297  M00 */\n      0x109b7f411ba0e4c9b2b70caf5c36a7b194be7c11ad24378bfedb68592ba8118b\n        /* \"poseidon-solidity/PoseidonT3.sol\":24286:24292  state0 */\n      dup5\n        /* \"poseidon-solidity/PoseidonT3.sol\":24279:24301  mulmod(state0, M00, F) */\n      mulmod\n        /* \"poseidon-solidity/PoseidonT3.sol\":24275:24326  add(mulmod(state0, M00, F), mulmod(state1, M10, F)) */\n      add\n        /* \"poseidon-solidity/PoseidonT3.sol\":24271:24351  add(add(mulmod(state0, M00, F), mulmod(state1, M10, F)), mulmod(state2, M20, F)) */\n      add\n        /* \"poseidon-solidity/PoseidonT3.sol\":24203:24269  0x00248156142fd0373a479f91ff239e960f599ff7e94be69b7f2a290305e1198d */\n      0x248156142fd0373a479f91ff239e960f599ff7e94be69b7f2a290305e1198d\n        /* \"poseidon-solidity/PoseidonT3.sol\":24199:24352  add(0x00248156142fd0373a479f91ff239e960f599ff7e94be69b7f2a290305e1198d, add(add(mulmod(state0, M00, F), mulmod(state1, M10, F)), mulmod(state2, M20, F))) */\n      add\n        /* \"poseidon-solidity/PoseidonT3.sol\":24187:24352  scratch0 := add(0x00248156142fd0373a479f91ff239e960f599ff7e94be69b7f2a290305e1198d, add(add(mulmod(state0, M00, F), mulmod(state1, M10, F)), mulmod(state2, M20, F))) */\n      swap4\n      pop\n        /* \"poseidon-solidity/PoseidonT3.sol\":24520:24521  F */\n      dup10\n        /* \"poseidon-solidity/PoseidonT3.sol\":24515:24518  M21 */\n      dup9\n        /* \"poseidon-solidity/PoseidonT3.sol\":24507:24513  state2 */\n      dup7\n        /* \"poseidon-solidity/PoseidonT3.sol\":24500:24522  mulmod(state2, M21, F) */\n      mulmod\n        /* \"poseidon-solidity/PoseidonT3.sol\":24495:24496  F */\n      dup11\n        /* \"poseidon-solidity/PoseidonT3.sol\":24490:24493  M11 */\n      0x2e2419f9ec02ec394c9871c832963dc1b89d743c8c7b964029b2311687b1fe23\n        /* \"poseidon-solidity/PoseidonT3.sol\":24482:24488  state1 */\n      dup9\n        /* \"poseidon-solidity/PoseidonT3.sol\":24475:24497  mulmod(state1, M11, F) */\n      mulmod\n        /* \"poseidon-solidity/PoseidonT3.sol\":24471:24472  F */\n      dup12\n        /* \"poseidon-solidity/PoseidonT3.sol\":24466:24469  M01 */\n      0x2969f27eed31a480b9c36c764379dbca2cc8fdd1415c3dded62940bcde0bd771\n        /* \"poseidon-solidity/PoseidonT3.sol\":24458:24464  state0 */\n      dup5\n        /* \"poseidon-solidity/PoseidonT3.sol\":24451:24473  mulmod(state0, M01, F) */\n      mulmod\n        /* \"poseidon-solidity/PoseidonT3.sol\":24447:24498  add(mulmod(state0, M01, F), mulmod(state1, M11, F)) */\n      add\n        /* \"poseidon-solidity/PoseidonT3.sol\":24443:24523  add(add(mulmod(state0, M01, F), mulmod(state1, M11, F)), mulmod(state2, M21, F)) */\n      add\n        /* \"poseidon-solidity/PoseidonT3.sol\":24375:24441  0x171d5620b87bfb1328cf8c02ab3f0c9a397196aa6a542c2350eb512a2b2bcda9 */\n      0x171d5620b87bfb1328cf8c02ab3f0c9a397196aa6a542c2350eb512a2b2bcda9\n        /* \"poseidon-solidity/PoseidonT3.sol\":24371:24524  add(0x171d5620b87bfb1328cf8c02ab3f0c9a397196aa6a542c2350eb512a2b2bcda9, add(add(mulmod(state0, M01, F), mulmod(state1, M11, F)), mulmod(state2, M21, F))) */\n      add\n        /* \"poseidon-solidity/PoseidonT3.sol\":24359:24524  scratch1 := add(0x171d5620b87bfb1328cf8c02ab3f0c9a397196aa6a542c2350eb512a2b2bcda9, add(add(mulmod(state0, M01, F), mulmod(state1, M11, F)), mulmod(state2, M21, F))) */\n      swap3\n      pop\n        /* \"poseidon-solidity/PoseidonT3.sol\":24692:24693  F */\n      dup10\n        /* \"poseidon-solidity/PoseidonT3.sol\":24687:24690  M22 */\n      dup8\n        /* \"poseidon-solidity/PoseidonT3.sol\":24679:24685  state2 */\n      dup7\n        /* \"poseidon-solidity/PoseidonT3.sol\":24672:24694  mulmod(state2, M22, F) */\n      mulmod\n        /* \"poseidon-solidity/PoseidonT3.sol\":24667:24668  F */\n      dup11\n        /* \"poseidon-solidity/PoseidonT3.sol\":24662:24665  M12 */\n      0x176cc029695ad02582a70eff08a6fd99d057e12e58e7d7b6b16cdfabc8ee2911\n        /* \"poseidon-solidity/PoseidonT3.sol\":24654:24660  state1 */\n      dup9\n        /* \"poseidon-solidity/PoseidonT3.sol\":24647:24669  mulmod(state1, M12, F) */\n      mulmod\n        /* \"poseidon-solidity/PoseidonT3.sol\":24643:24644  F */\n      dup12\n        /* \"poseidon-solidity/PoseidonT3.sol\":24638:24641  M02 */\n      0x143021ec686a3f330d5f9e654638065ce6cd79e28c5b3753326244ee65a1b1a7\n        /* \"poseidon-solidity/PoseidonT3.sol\":24630:24636  state0 */\n      dup5\n        /* \"poseidon-solidity/PoseidonT3.sol\":24623:24645  mulmod(state0, M02, F) */\n      mulmod\n        /* \"poseidon-solidity/PoseidonT3.sol\":24619:24670  add(mulmod(state0, M02, F), mulmod(state1, M12, F)) */\n      add\n        /* \"poseidon-solidity/PoseidonT3.sol\":24615:24695  add(add(mulmod(state0, M02, F), mulmod(state1, M12, F)), mulmod(state2, M22, F)) */\n      add\n        /* \"poseidon-solidity/PoseidonT3.sol\":24547:24613  0x170a4f55536f7dc970087c7c10d6fad760c952172dd54dd99d1045e4ec34a808 */\n      0x170a4f55536f7dc970087c7c10d6fad760c952172dd54dd99d1045e4ec34a808\n        /* \"poseidon-solidity/PoseidonT3.sol\":24543:24696  add(0x170a4f55536f7dc970087c7c10d6fad760c952172dd54dd99d1045e4ec34a808, add(add(mulmod(state0, M02, F), mulmod(state1, M12, F)), mulmod(state2, M22, F))) */\n      add\n        /* \"poseidon-solidity/PoseidonT3.sol\":24531:24696  scratch2 := add(0x170a4f55536f7dc970087c7c10d6fad760c952172dd54dd99d1045e4ec34a808, add(add(mulmod(state0, M02, F), mulmod(state1, M12, F)), mulmod(state2, M22, F))) */\n      swap2\n      pop\n        /* \"poseidon-solidity/PoseidonT3.sol\":24740:24741  F */\n      dup10\n        /* \"poseidon-solidity/PoseidonT3.sol\":24730:24738  scratch0 */\n      dup5\n        /* \"poseidon-solidity/PoseidonT3.sol\":24720:24728  scratch0 */\n      dup6\n        /* \"poseidon-solidity/PoseidonT3.sol\":24713:24742  mulmod(scratch0, scratch0, F) */\n      mulmod\n        /* \"poseidon-solidity/PoseidonT3.sol\":24703:24742  state0 := mulmod(scratch0, scratch0, F) */\n      swap1\n      pop\n        /* \"poseidon-solidity/PoseidonT3.sol\":24805:24806  F */\n      dup10\n        /* \"poseidon-solidity/PoseidonT3.sol\":24795:24803  scratch0 */\n      dup5\n        /* \"poseidon-solidity/PoseidonT3.sol\":24791:24792  F */\n      dup12\n        /* \"poseidon-solidity/PoseidonT3.sol\":24783:24789  state0 */\n      dup4\n        /* \"poseidon-solidity/PoseidonT3.sol\":24775:24781  state0 */\n      dup5\n        /* \"poseidon-solidity/PoseidonT3.sol\":24768:24793  mulmod(state0, state0, F) */\n      mulmod\n        /* \"poseidon-solidity/PoseidonT3.sol\":24761:24807  mulmod(mulmod(state0, state0, F), scratch0, F) */\n      mulmod\n        /* \"poseidon-solidity/PoseidonT3.sol\":24749:24807  scratch0 := mulmod(mulmod(state0, state0, F), scratch0, F) */\n      swap4\n      pop\n        /* \"poseidon-solidity/PoseidonT3.sol\":24979:24980  F */\n      dup10\n        /* \"poseidon-solidity/PoseidonT3.sol\":24974:24977  M20 */\n      dup10\n        /* \"poseidon-solidity/PoseidonT3.sol\":24964:24972  scratch2 */\n      dup4\n        /* \"poseidon-solidity/PoseidonT3.sol\":24957:24981  mulmod(scratch2, M20, F) */\n      mulmod\n        /* \"poseidon-solidity/PoseidonT3.sol\":24952:24953  F */\n      dup11\n        /* \"poseidon-solidity/PoseidonT3.sol\":24947:24950  M10 */\n      0x16ed41e13bb9c0c66ae119424fddbcbc9314dc9fdbdeea55d6c64543dc4903e0\n        /* \"poseidon-solidity/PoseidonT3.sol\":24937:24945  scratch1 */\n      dup6\n        /* \"poseidon-solidity/PoseidonT3.sol\":24930:24954  mulmod(scratch1, M10, F) */\n      mulmod\n        /* \"poseidon-solidity/PoseidonT3.sol\":24926:24927  F */\n      dup12\n        /* \"poseidon-solidity/PoseidonT3.sol\":24921:24924  M00 */\n      0x109b7f411ba0e4c9b2b70caf5c36a7b194be7c11ad24378bfedb68592ba8118b\n        /* \"poseidon-solidity/PoseidonT3.sol\":24911:24919  scratch0 */\n      dup8\n        /* \"poseidon-solidity/PoseidonT3.sol\":24904:24928  mulmod(scratch0, M00, F) */\n      mulmod\n        /* \"poseidon-solidity/PoseidonT3.sol\":24900:24955  add(mulmod(scratch0, M00, F), mulmod(scratch1, M10, F)) */\n      add\n        /* \"poseidon-solidity/PoseidonT3.sol\":24896:24982  add(add(mulmod(scratch0, M00, F), mulmod(scratch1, M10, F)), mulmod(scratch2, M20, F)) */\n      add\n        /* \"poseidon-solidity/PoseidonT3.sol\":24828:24894  0x29aba33f799fe66c2ef3134aea04336ecc37e38c1cd211ba482eca17e2dbfae1 */\n      0x29aba33f799fe66c2ef3134aea04336ecc37e38c1cd211ba482eca17e2dbfae1\n        /* \"poseidon-solidity/PoseidonT3.sol\":24824:24983  add(0x29aba33f799fe66c2ef3134aea04336ecc37e38c1cd211ba482eca17e2dbfae1, add(add(mulmod(scratch0, M00, F), mulmod(scratch1, M10, F)), mulmod(scratch2, M20, F))) */\n      add\n        /* \"poseidon-solidity/PoseidonT3.sol\":24814:24983  state0 := add(0x29aba33f799fe66c2ef3134aea04336ecc37e38c1cd211ba482eca17e2dbfae1, add(add(mulmod(scratch0, M00, F), mulmod(scratch1, M10, F)), mulmod(scratch2, M20, F))) */\n      swap1\n      pop\n        /* \"poseidon-solidity/PoseidonT3.sol\":25155:25156  F */\n      dup10\n        /* \"poseidon-solidity/PoseidonT3.sol\":25150:25153  M21 */\n      dup9\n        /* \"poseidon-solidity/PoseidonT3.sol\":25140:25148  scratch2 */\n      dup4\n        /* \"poseidon-solidity/PoseidonT3.sol\":25133:25157  mulmod(scratch2, M21, F) */\n      mulmod\n        /* \"poseidon-solidity/PoseidonT3.sol\":25128:25129  F */\n      dup11\n        /* \"poseidon-solidity/PoseidonT3.sol\":25123:25126  M11 */\n      0x2e2419f9ec02ec394c9871c832963dc1b89d743c8c7b964029b2311687b1fe23\n        /* \"poseidon-solidity/PoseidonT3.sol\":25113:25121  scratch1 */\n      dup6\n        /* \"poseidon-solidity/PoseidonT3.sol\":25106:25130  mulmod(scratch1, M11, F) */\n      mulmod\n        /* \"poseidon-solidity/PoseidonT3.sol\":25102:25103  F */\n      dup12\n        /* \"poseidon-solidity/PoseidonT3.sol\":25097:25100  M01 */\n      0x2969f27eed31a480b9c36c764379dbca2cc8fdd1415c3dded62940bcde0bd771\n        /* \"poseidon-solidity/PoseidonT3.sol\":25087:25095  scratch0 */\n      dup8\n        /* \"poseidon-solidity/PoseidonT3.sol\":25080:25104  mulmod(scratch0, M01, F) */\n      mulmod\n        /* \"poseidon-solidity/PoseidonT3.sol\":25076:25131  add(mulmod(scratch0, M01, F), mulmod(scratch1, M11, F)) */\n      add\n        /* \"poseidon-solidity/PoseidonT3.sol\":25072:25158  add(add(mulmod(scratch0, M01, F), mulmod(scratch1, M11, F)), mulmod(scratch2, M21, F)) */\n      add\n        /* \"poseidon-solidity/PoseidonT3.sol\":25004:25070  0x1e9bc179a4fdd758fdd1bb1945088d47e70d114a03f6a0e8b5ba650369e64973 */\n      0x1e9bc179a4fdd758fdd1bb1945088d47e70d114a03f6a0e8b5ba650369e64973\n        /* \"poseidon-solidity/PoseidonT3.sol\":25000:25159  add(0x1e9bc179a4fdd758fdd1bb1945088d47e70d114a03f6a0e8b5ba650369e64973, add(add(mulmod(scratch0, M01, F), mulmod(scratch1, M11, F)), mulmod(scratch2, M21, F))) */\n      add\n        /* \"poseidon-solidity/PoseidonT3.sol\":24990:25159  state1 := add(0x1e9bc179a4fdd758fdd1bb1945088d47e70d114a03f6a0e8b5ba650369e64973, add(add(mulmod(scratch0, M01, F), mulmod(scratch1, M11, F)), mulmod(scratch2, M21, F))) */\n      swap6\n      pop\n        /* \"poseidon-solidity/PoseidonT3.sol\":25331:25332  F */\n      dup10\n        /* \"poseidon-solidity/PoseidonT3.sol\":25326:25329  M22 */\n      dup8\n        /* \"poseidon-solidity/PoseidonT3.sol\":25316:25324  scratch2 */\n      dup4\n        /* \"poseidon-solidity/PoseidonT3.sol\":25309:25333  mulmod(scratch2, M22, F) */\n      mulmod\n        /* \"poseidon-solidity/PoseidonT3.sol\":25304:25305  F */\n      dup11\n        /* \"poseidon-solidity/PoseidonT3.sol\":25299:25302  M12 */\n      0x176cc029695ad02582a70eff08a6fd99d057e12e58e7d7b6b16cdfabc8ee2911\n        /* \"poseidon-solidity/PoseidonT3.sol\":25289:25297  scratch1 */\n      dup6\n        /* \"poseidon-solidity/PoseidonT3.sol\":25282:25306  mulmod(scratch1, M12, F) */\n      mulmod\n        /* \"poseidon-solidity/PoseidonT3.sol\":25278:25279  F */\n      dup12\n        /* \"poseidon-solidity/PoseidonT3.sol\":25273:25276  M02 */\n      0x143021ec686a3f330d5f9e654638065ce6cd79e28c5b3753326244ee65a1b1a7\n        /* \"poseidon-solidity/PoseidonT3.sol\":25263:25271  scratch0 */\n      dup8\n        /* \"poseidon-solidity/PoseidonT3.sol\":25256:25280  mulmod(scratch0, M02, F) */\n      mulmod\n        /* \"poseidon-solidity/PoseidonT3.sol\":25252:25307  add(mulmod(scratch0, M02, F), mulmod(scratch1, M12, F)) */\n      add\n        /* \"poseidon-solidity/PoseidonT3.sol\":25248:25334  add(add(mulmod(scratch0, M02, F), mulmod(scratch1, M12, F)), mulmod(scratch2, M22, F)) */\n      add\n        /* \"poseidon-solidity/PoseidonT3.sol\":25180:25246  0x1dd269799b660fad58f7f4892dfb0b5afeaad869a9c4b44f9c9e1c43bdaf8f09 */\n      0x1dd269799b660fad58f7f4892dfb0b5afeaad869a9c4b44f9c9e1c43bdaf8f09\n        /* \"poseidon-solidity/PoseidonT3.sol\":25176:25335  add(0x1dd269799b660fad58f7f4892dfb0b5afeaad869a9c4b44f9c9e1c43bdaf8f09, add(add(mulmod(scratch0, M02, F), mulmod(scratch1, M12, F)), mulmod(scratch2, M22, F))) */\n      add\n        /* \"poseidon-solidity/PoseidonT3.sol\":25166:25335  state2 := add(0x1dd269799b660fad58f7f4892dfb0b5afeaad869a9c4b44f9c9e1c43bdaf8f09, add(add(mulmod(scratch0, M02, F), mulmod(scratch1, M12, F)), mulmod(scratch2, M22, F))) */\n      swap5\n      pop\n        /* \"poseidon-solidity/PoseidonT3.sol\":25377:25378  F */\n      dup10\n        /* \"poseidon-solidity/PoseidonT3.sol\":25369:25375  state0 */\n      dup2\n        /* \"poseidon-solidity/PoseidonT3.sol\":25361:25367  state0 */\n      dup3\n        /* \"poseidon-solidity/PoseidonT3.sol\":25354:25379  mulmod(state0, state0, F) */\n      mulmod\n        /* \"poseidon-solidity/PoseidonT3.sol\":25342:25379  scratch0 := mulmod(state0, state0, F) */\n      swap4\n      pop\n        /* \"poseidon-solidity/PoseidonT3.sol\":25442:25443  F */\n      dup10\n        /* \"poseidon-solidity/PoseidonT3.sol\":25434:25440  state0 */\n      dup2\n        /* \"poseidon-solidity/PoseidonT3.sol\":25430:25431  F */\n      dup12\n        /* \"poseidon-solidity/PoseidonT3.sol\":25420:25428  scratch0 */\n      dup7\n        /* \"poseidon-solidity/PoseidonT3.sol\":25410:25418  scratch0 */\n      dup8\n        /* \"poseidon-solidity/PoseidonT3.sol\":25403:25432  mulmod(scratch0, scratch0, F) */\n      mulmod\n        /* \"poseidon-solidity/PoseidonT3.sol\":25396:25444  mulmod(mulmod(scratch0, scratch0, F), state0, F) */\n      mulmod\n        /* \"poseidon-solidity/PoseidonT3.sol\":25386:25444  state0 := mulmod(mulmod(scratch0, scratch0, F), state0, F) */\n      swap1\n      pop\n        /* \"poseidon-solidity/PoseidonT3.sol\":25612:25613  F */\n      dup10\n        /* \"poseidon-solidity/PoseidonT3.sol\":25607:25610  M20 */\n      dup10\n        /* \"poseidon-solidity/PoseidonT3.sol\":25599:25605  state2 */\n      dup7\n        /* \"poseidon-solidity/PoseidonT3.sol\":25592:25614  mulmod(state2, M20, F) */\n      mulmod\n        /* \"poseidon-solidity/PoseidonT3.sol\":25587:25588  F */\n      dup11\n        /* \"poseidon-solidity/PoseidonT3.sol\":25582:25585  M10 */\n      0x16ed41e13bb9c0c66ae119424fddbcbc9314dc9fdbdeea55d6c64543dc4903e0\n        /* \"poseidon-solidity/PoseidonT3.sol\":25574:25580  state1 */\n      dup9\n        /* \"poseidon-solidity/PoseidonT3.sol\":25567:25589  mulmod(state1, M10, F) */\n      mulmod\n        /* \"poseidon-solidity/PoseidonT3.sol\":25563:25564  F */\n      dup12\n        /* \"poseidon-solidity/PoseidonT3.sol\":25558:25561  M00 */\n      0x109b7f411ba0e4c9b2b70caf5c36a7b194be7c11ad24378bfedb68592ba8118b\n        /* \"poseidon-solidity/PoseidonT3.sol\":25550:25556  state0 */\n      dup5\n        /* \"poseidon-solidity/PoseidonT3.sol\":25543:25565  mulmod(state0, M00, F) */\n      mulmod\n        /* \"poseidon-solidity/PoseidonT3.sol\":25539:25590  add(mulmod(state0, M00, F), mulmod(state1, M10, F)) */\n      add\n        /* \"poseidon-solidity/PoseidonT3.sol\":25535:25615  add(add(mulmod(state0, M00, F), mulmod(state1, M10, F)), mulmod(state2, M20, F)) */\n      add\n        /* \"poseidon-solidity/PoseidonT3.sol\":25467:25533  0x22cdbc8b70117ad1401181d02e15459e7ccd426fe869c7c95d1dd2cb0f24af38 */\n      0x22cdbc8b70117ad1401181d02e15459e7ccd426fe869c7c95d1dd2cb0f24af38\n        /* \"poseidon-solidity/PoseidonT3.sol\":25463:25616  add(0x22cdbc8b70117ad1401181d02e15459e7ccd426fe869c7c95d1dd2cb0f24af38, add(add(mulmod(state0, M00, F), mulmod(state1, M10, F)), mulmod(state2, M20, F))) */\n      add\n        /* \"poseidon-solidity/PoseidonT3.sol\":25451:25616  scratch0 := add(0x22cdbc8b70117ad1401181d02e15459e7ccd426fe869c7c95d1dd2cb0f24af38, add(add(mulmod(state0, M00, F), mulmod(state1, M10, F)), mulmod(state2, M20, F))) */\n      swap4\n      pop\n        /* \"poseidon-solidity/PoseidonT3.sol\":25784:25785  F */\n      dup10\n        /* \"poseidon-solidity/PoseidonT3.sol\":25779:25782  M21 */\n      dup9\n        /* \"poseidon-solidity/PoseidonT3.sol\":25771:25777  state2 */\n      dup7\n        /* \"poseidon-solidity/PoseidonT3.sol\":25764:25786  mulmod(state2, M21, F) */\n      mulmod\n        /* \"poseidon-solidity/PoseidonT3.sol\":25759:25760  F */\n      dup11\n        /* \"poseidon-solidity/PoseidonT3.sol\":25754:25757  M11 */\n      0x2e2419f9ec02ec394c9871c832963dc1b89d743c8c7b964029b2311687b1fe23\n        /* \"poseidon-solidity/PoseidonT3.sol\":25746:25752  state1 */\n      dup9\n        /* \"poseidon-solidity/PoseidonT3.sol\":25739:25761  mulmod(state1, M11, F) */\n      mulmod\n        /* \"poseidon-solidity/PoseidonT3.sol\":25735:25736  F */\n      dup12\n        /* \"poseidon-solidity/PoseidonT3.sol\":25730:25733  M01 */\n      0x2969f27eed31a480b9c36c764379dbca2cc8fdd1415c3dded62940bcde0bd771\n        /* \"poseidon-solidity/PoseidonT3.sol\":25722:25728  state0 */\n      dup5\n        /* \"poseidon-solidity/PoseidonT3.sol\":25715:25737  mulmod(state0, M01, F) */\n      mulmod\n        /* \"poseidon-solidity/PoseidonT3.sol\":25711:25762  add(mulmod(state0, M01, F), mulmod(state1, M11, F)) */\n      add\n        /* \"poseidon-solidity/PoseidonT3.sol\":25707:25787  add(add(mulmod(state0, M01, F), mulmod(state1, M11, F)), mulmod(state2, M21, F)) */\n      add\n        /* \"poseidon-solidity/PoseidonT3.sol\":25639:25705  0x0ef042e454771c533a9f57a55c503fcefd3150f52ed94a7cd5ba93b9c7dacefd */\n      0x0ef042e454771c533a9f57a55c503fcefd3150f52ed94a7cd5ba93b9c7dacefd\n        /* \"poseidon-solidity/PoseidonT3.sol\":25635:25788  add(0x0ef042e454771c533a9f57a55c503fcefd3150f52ed94a7cd5ba93b9c7dacefd, add(add(mulmod(state0, M01, F), mulmod(state1, M11, F)), mulmod(state2, M21, F))) */\n      add\n        /* \"poseidon-solidity/PoseidonT3.sol\":25623:25788  scratch1 := add(0x0ef042e454771c533a9f57a55c503fcefd3150f52ed94a7cd5ba93b9c7dacefd, add(add(mulmod(state0, M01, F), mulmod(state1, M11, F)), mulmod(state2, M21, F))) */\n      swap3\n      pop\n        /* \"poseidon-solidity/PoseidonT3.sol\":25956:25957  F */\n      dup10\n        /* \"poseidon-solidity/PoseidonT3.sol\":25951:25954  M22 */\n      dup8\n        /* \"poseidon-solidity/PoseidonT3.sol\":25943:25949  state2 */\n      dup7\n        /* \"poseidon-solidity/PoseidonT3.sol\":25936:25958  mulmod(state2, M22, F) */\n      mulmod\n        /* \"poseidon-solidity/PoseidonT3.sol\":25931:25932  F */\n      dup11\n        /* \"poseidon-solidity/PoseidonT3.sol\":25926:25929  M12 */\n      0x176cc029695ad02582a70eff08a6fd99d057e12e58e7d7b6b16cdfabc8ee2911\n        /* \"poseidon-solidity/PoseidonT3.sol\":25918:25924  state1 */\n      dup9\n        /* \"poseidon-solidity/PoseidonT3.sol\":25911:25933  mulmod(state1, M12, F) */\n      mulmod\n        /* \"poseidon-solidity/PoseidonT3.sol\":25907:25908  F */\n      dup12\n        /* \"poseidon-solidity/PoseidonT3.sol\":25902:25905  M02 */\n      0x143021ec686a3f330d5f9e654638065ce6cd79e28c5b3753326244ee65a1b1a7\n        /* \"poseidon-solidity/PoseidonT3.sol\":25894:25900  state0 */\n      dup5\n        /* \"poseidon-solidity/PoseidonT3.sol\":25887:25909  mulmod(state0, M02, F) */\n      mulmod\n        /* \"poseidon-solidity/PoseidonT3.sol\":25883:25934  add(mulmod(state0, M02, F), mulmod(state1, M12, F)) */\n      add\n        /* \"poseidon-solidity/PoseidonT3.sol\":25879:25959  add(add(mulmod(state0, M02, F), mulmod(state1, M12, F)), mulmod(state2, M22, F)) */\n      add\n        /* \"poseidon-solidity/PoseidonT3.sol\":25811:25877  0x11609e06ad6c8fe2f287f3036037e8851318e8b08a0359a03b304ffca62e8284 */\n      0x11609e06ad6c8fe2f287f3036037e8851318e8b08a0359a03b304ffca62e8284\n        /* \"poseidon-solidity/PoseidonT3.sol\":25807:25960  add(0x11609e06ad6c8fe2f287f3036037e8851318e8b08a0359a03b304ffca62e8284, add(add(mulmod(state0, M02, F), mulmod(state1, M12, F)), mulmod(state2, M22, F))) */\n      add\n        /* \"poseidon-solidity/PoseidonT3.sol\":25795:25960  scratch2 := add(0x11609e06ad6c8fe2f287f3036037e8851318e8b08a0359a03b304ffca62e8284, add(add(mulmod(state0, M02, F), mulmod(state1, M12, F)), mulmod(state2, M22, F))) */\n      swap2\n      pop\n        /* \"poseidon-solidity/PoseidonT3.sol\":26004:26005  F */\n      dup10\n        /* \"poseidon-solidity/PoseidonT3.sol\":25994:26002  scratch0 */\n      dup5\n        /* \"poseidon-solidity/PoseidonT3.sol\":25984:25992  scratch0 */\n      dup6\n        /* \"poseidon-solidity/PoseidonT3.sol\":25977:26006  mulmod(scratch0, scratch0, F) */\n      mulmod\n        /* \"poseidon-solidity/PoseidonT3.sol\":25967:26006  state0 := mulmod(scratch0, scratch0, F) */\n      swap1\n      pop\n        /* \"poseidon-solidity/PoseidonT3.sol\":26069:26070  F */\n      dup10\n        /* \"poseidon-solidity/PoseidonT3.sol\":26059:26067  scratch0 */\n      dup5\n        /* \"poseidon-solidity/PoseidonT3.sol\":26055:26056  F */\n      dup12\n        /* \"poseidon-solidity/PoseidonT3.sol\":26047:26053  state0 */\n      dup4\n        /* \"poseidon-solidity/PoseidonT3.sol\":26039:26045  state0 */\n      dup5\n        /* \"poseidon-solidity/PoseidonT3.sol\":26032:26057  mulmod(state0, state0, F) */\n      mulmod\n        /* \"poseidon-solidity/PoseidonT3.sol\":26025:26071  mulmod(mulmod(state0, state0, F), scratch0, F) */\n      mulmod\n        /* \"poseidon-solidity/PoseidonT3.sol\":26013:26071  scratch0 := mulmod(mulmod(state0, state0, F), scratch0, F) */\n      swap4\n      pop\n        /* \"poseidon-solidity/PoseidonT3.sol\":26243:26244  F */\n      dup10\n        /* \"poseidon-solidity/PoseidonT3.sol\":26238:26241  M20 */\n      dup10\n        /* \"poseidon-solidity/PoseidonT3.sol\":26228:26236  scratch2 */\n      dup4\n        /* \"poseidon-solidity/PoseidonT3.sol\":26221:26245  mulmod(scratch2, M20, F) */\n      mulmod\n        /* \"poseidon-solidity/PoseidonT3.sol\":26216:26217  F */\n      dup11\n        /* \"poseidon-solidity/PoseidonT3.sol\":26211:26214  M10 */\n      0x16ed41e13bb9c0c66ae119424fddbcbc9314dc9fdbdeea55d6c64543dc4903e0\n        /* \"poseidon-solidity/PoseidonT3.sol\":26201:26209  scratch1 */\n      dup6\n        /* \"poseidon-solidity/PoseidonT3.sol\":26194:26218  mulmod(scratch1, M10, F) */\n      mulmod\n        /* \"poseidon-solidity/PoseidonT3.sol\":26190:26191  F */\n      dup12\n        /* \"poseidon-solidity/PoseidonT3.sol\":26185:26188  M00 */\n      0x109b7f411ba0e4c9b2b70caf5c36a7b194be7c11ad24378bfedb68592ba8118b\n        /* \"poseidon-solidity/PoseidonT3.sol\":26175:26183  scratch0 */\n      dup8\n        /* \"poseidon-solidity/PoseidonT3.sol\":26168:26192  mulmod(scratch0, M00, F) */\n      mulmod\n        /* \"poseidon-solidity/PoseidonT3.sol\":26164:26219  add(mulmod(scratch0, M00, F), mulmod(scratch1, M10, F)) */\n      add\n        /* \"poseidon-solidity/PoseidonT3.sol\":26160:26246  add(add(mulmod(scratch0, M00, F), mulmod(scratch1, M10, F)), mulmod(scratch2, M20, F)) */\n      add\n        /* \"poseidon-solidity/PoseidonT3.sol\":26092:26158  0x1166d9e554616dba9e753eea427c17b7fecd58c076dfe42708b08f5b783aa9af */\n      0x1166d9e554616dba9e753eea427c17b7fecd58c076dfe42708b08f5b783aa9af\n        /* \"poseidon-solidity/PoseidonT3.sol\":26088:26247  add(0x1166d9e554616dba9e753eea427c17b7fecd58c076dfe42708b08f5b783aa9af, add(add(mulmod(scratch0, M00, F), mulmod(scratch1, M10, F)), mulmod(scratch2, M20, F))) */\n      add\n        /* \"poseidon-solidity/PoseidonT3.sol\":26078:26247  state0 := add(0x1166d9e554616dba9e753eea427c17b7fecd58c076dfe42708b08f5b783aa9af, add(add(mulmod(scratch0, M00, F), mulmod(scratch1, M10, F)), mulmod(scratch2, M20, F))) */\n      swap1\n      pop\n        /* \"poseidon-solidity/PoseidonT3.sol\":26419:26420  F */\n      dup10\n        /* \"poseidon-solidity/PoseidonT3.sol\":26414:26417  M21 */\n      dup9\n        /* \"poseidon-solidity/PoseidonT3.sol\":26404:26412  scratch2 */\n      dup4\n        /* \"poseidon-solidity/PoseidonT3.sol\":26397:26421  mulmod(scratch2, M21, F) */\n      mulmod\n        /* \"poseidon-solidity/PoseidonT3.sol\":26392:26393  F */\n      dup11\n        /* \"poseidon-solidity/PoseidonT3.sol\":26387:26390  M11 */\n      0x2e2419f9ec02ec394c9871c832963dc1b89d743c8c7b964029b2311687b1fe23\n        /* \"poseidon-solidity/PoseidonT3.sol\":26377:26385  scratch1 */\n      dup6\n        /* \"poseidon-solidity/PoseidonT3.sol\":26370:26394  mulmod(scratch1, M11, F) */\n      mulmod\n        /* \"poseidon-solidity/PoseidonT3.sol\":26366:26367  F */\n      dup12\n        /* \"poseidon-solidity/PoseidonT3.sol\":26361:26364  M01 */\n      0x2969f27eed31a480b9c36c764379dbca2cc8fdd1415c3dded62940bcde0bd771\n        /* \"poseidon-solidity/PoseidonT3.sol\":26351:26359  scratch0 */\n      dup8\n        /* \"poseidon-solidity/PoseidonT3.sol\":26344:26368  mulmod(scratch0, M01, F) */\n      mulmod\n        /* \"poseidon-solidity/PoseidonT3.sol\":26340:26395  add(mulmod(scratch0, M01, F), mulmod(scratch1, M11, F)) */\n      add\n        /* \"poseidon-solidity/PoseidonT3.sol\":26336:26422  add(add(mulmod(scratch0, M01, F), mulmod(scratch1, M11, F)), mulmod(scratch2, M21, F)) */\n      add\n        /* \"poseidon-solidity/PoseidonT3.sol\":26268:26334  0x2de52989431a859593413026354413db177fbf4cd2ac0b56f855a888357ee466 */\n      0x2de52989431a859593413026354413db177fbf4cd2ac0b56f855a888357ee466\n        /* \"poseidon-solidity/PoseidonT3.sol\":26264:26423  add(0x2de52989431a859593413026354413db177fbf4cd2ac0b56f855a888357ee466, add(add(mulmod(scratch0, M01, F), mulmod(scratch1, M11, F)), mulmod(scratch2, M21, F))) */\n      add\n        /* \"poseidon-solidity/PoseidonT3.sol\":26254:26423  state1 := add(0x2de52989431a859593413026354413db177fbf4cd2ac0b56f855a888357ee466, add(add(mulmod(scratch0, M01, F), mulmod(scratch1, M11, F)), mulmod(scratch2, M21, F))) */\n      swap6\n      pop\n        /* \"poseidon-solidity/PoseidonT3.sol\":26595:26596  F */\n      dup10\n        /* \"poseidon-solidity/PoseidonT3.sol\":26590:26593  M22 */\n      dup8\n        /* \"poseidon-solidity/PoseidonT3.sol\":26580:26588  scratch2 */\n      dup4\n        /* \"poseidon-solidity/PoseidonT3.sol\":26573:26597  mulmod(scratch2, M22, F) */\n      mulmod\n        /* \"poseidon-solidity/PoseidonT3.sol\":26568:26569  F */\n      dup11\n        /* \"poseidon-solidity/PoseidonT3.sol\":26563:26566  M12 */\n      0x176cc029695ad02582a70eff08a6fd99d057e12e58e7d7b6b16cdfabc8ee2911\n        /* \"poseidon-solidity/PoseidonT3.sol\":26553:26561  scratch1 */\n      dup6\n        /* \"poseidon-solidity/PoseidonT3.sol\":26546:26570  mulmod(scratch1, M12, F) */\n      mulmod\n        /* \"poseidon-solidity/PoseidonT3.sol\":26542:26543  F */\n      dup12\n        /* \"poseidon-solidity/PoseidonT3.sol\":26537:26540  M02 */\n      0x143021ec686a3f330d5f9e654638065ce6cd79e28c5b3753326244ee65a1b1a7\n        /* \"poseidon-solidity/PoseidonT3.sol\":26527:26535  scratch0 */\n      dup8\n        /* \"poseidon-solidity/PoseidonT3.sol\":26520:26544  mulmod(scratch0, M02, F) */\n      mulmod\n        /* \"poseidon-solidity/PoseidonT3.sol\":26516:26571  add(mulmod(scratch0, M02, F), mulmod(scratch1, M12, F)) */\n      add\n        /* \"poseidon-solidity/PoseidonT3.sol\":26512:26598  add(add(mulmod(scratch0, M02, F), mulmod(scratch1, M12, F)), mulmod(scratch2, M22, F)) */\n      add\n        /* \"poseidon-solidity/PoseidonT3.sol\":26444:26510  0x3006eb4ffc7a85819a6da492f3a8ac1df51aee5b17b8e89d74bf01cf5f71e9ad */\n      0x3006eb4ffc7a85819a6da492f3a8ac1df51aee5b17b8e89d74bf01cf5f71e9ad\n        /* \"poseidon-solidity/PoseidonT3.sol\":26440:26599  add(0x3006eb4ffc7a85819a6da492f3a8ac1df51aee5b17b8e89d74bf01cf5f71e9ad, add(add(mulmod(scratch0, M02, F), mulmod(scratch1, M12, F)), mulmod(scratch2, M22, F))) */\n      add\n        /* \"poseidon-solidity/PoseidonT3.sol\":26430:26599  state2 := add(0x3006eb4ffc7a85819a6da492f3a8ac1df51aee5b17b8e89d74bf01cf5f71e9ad, add(add(mulmod(scratch0, M02, F), mulmod(scratch1, M12, F)), mulmod(scratch2, M22, F))) */\n      swap5\n      pop\n        /* \"poseidon-solidity/PoseidonT3.sol\":26641:26642  F */\n      dup10\n        /* \"poseidon-solidity/PoseidonT3.sol\":26633:26639  state0 */\n      dup2\n        /* \"poseidon-solidity/PoseidonT3.sol\":26625:26631  state0 */\n      dup3\n        /* \"poseidon-solidity/PoseidonT3.sol\":26618:26643  mulmod(state0, state0, F) */\n      mulmod\n        /* \"poseidon-solidity/PoseidonT3.sol\":26606:26643  scratch0 := mulmod(state0, state0, F) */\n      swap4\n      pop\n        /* \"poseidon-solidity/PoseidonT3.sol\":26706:26707  F */\n      dup10\n        /* \"poseidon-solidity/PoseidonT3.sol\":26698:26704  state0 */\n      dup2\n        /* \"poseidon-solidity/PoseidonT3.sol\":26694:26695  F */\n      dup12\n        /* \"poseidon-solidity/PoseidonT3.sol\":26684:26692  scratch0 */\n      dup7\n        /* \"poseidon-solidity/PoseidonT3.sol\":26674:26682  scratch0 */\n      dup8\n        /* \"poseidon-solidity/PoseidonT3.sol\":26667:26696  mulmod(scratch0, scratch0, F) */\n      mulmod\n        /* \"poseidon-solidity/PoseidonT3.sol\":26660:26708  mulmod(mulmod(scratch0, scratch0, F), state0, F) */\n      mulmod\n        /* \"poseidon-solidity/PoseidonT3.sol\":26650:26708  state0 := mulmod(mulmod(scratch0, scratch0, F), state0, F) */\n      swap1\n      pop\n        /* \"poseidon-solidity/PoseidonT3.sol\":26876:26877  F */\n      dup10\n        /* \"poseidon-solidity/PoseidonT3.sol\":26871:26874  M20 */\n      dup10\n        /* \"poseidon-solidity/PoseidonT3.sol\":26863:26869  state2 */\n      dup7\n        /* \"poseidon-solidity/PoseidonT3.sol\":26856:26878  mulmod(state2, M20, F) */\n      mulmod\n        /* \"poseidon-solidity/PoseidonT3.sol\":26851:26852  F */\n      dup11\n        /* \"poseidon-solidity/PoseidonT3.sol\":26846:26849  M10 */\n      0x16ed41e13bb9c0c66ae119424fddbcbc9314dc9fdbdeea55d6c64543dc4903e0\n        /* \"poseidon-solidity/PoseidonT3.sol\":26838:26844  state1 */\n      dup9\n        /* \"poseidon-solidity/PoseidonT3.sol\":26831:26853  mulmod(state1, M10, F) */\n      mulmod\n        /* \"poseidon-solidity/PoseidonT3.sol\":26827:26828  F */\n      dup12\n        /* \"poseidon-solidity/PoseidonT3.sol\":26822:26825  M00 */\n      0x109b7f411ba0e4c9b2b70caf5c36a7b194be7c11ad24378bfedb68592ba8118b\n        /* \"poseidon-solidity/PoseidonT3.sol\":26814:26820  state0 */\n      dup5\n        /* \"poseidon-solidity/PoseidonT3.sol\":26807:26829  mulmod(state0, M00, F) */\n      mulmod\n        /* \"poseidon-solidity/PoseidonT3.sol\":26803:26854  add(mulmod(state0, M00, F), mulmod(state1, M10, F)) */\n      add\n        /* \"poseidon-solidity/PoseidonT3.sol\":26799:26879  add(add(mulmod(state0, M00, F), mulmod(state1, M10, F)), mulmod(state2, M20, F)) */\n      add\n        /* \"poseidon-solidity/PoseidonT3.sol\":26731:26797  0x2af41fbb61ba8a80fdcf6fff9e3f6f422993fe8f0a4639f962344c8225145086 */\n      0x2af41fbb61ba8a80fdcf6fff9e3f6f422993fe8f0a4639f962344c8225145086\n        /* \"poseidon-solidity/PoseidonT3.sol\":26727:26880  add(0x2af41fbb61ba8a80fdcf6fff9e3f6f422993fe8f0a4639f962344c8225145086, add(add(mulmod(state0, M00, F), mulmod(state1, M10, F)), mulmod(state2, M20, F))) */\n      add\n        /* \"poseidon-solidity/PoseidonT3.sol\":26715:26880  scratch0 := add(0x2af41fbb61ba8a80fdcf6fff9e3f6f422993fe8f0a4639f962344c8225145086, add(add(mulmod(state0, M00, F), mulmod(state1, M10, F)), mulmod(state2, M20, F))) */\n      swap4\n      pop\n        /* \"poseidon-solidity/PoseidonT3.sol\":27048:27049  F */\n      dup10\n        /* \"poseidon-solidity/PoseidonT3.sol\":27043:27046  M21 */\n      dup9\n        /* \"poseidon-solidity/PoseidonT3.sol\":27035:27041  state2 */\n      dup7\n        /* \"poseidon-solidity/PoseidonT3.sol\":27028:27050  mulmod(state2, M21, F) */\n      mulmod\n        /* \"poseidon-solidity/PoseidonT3.sol\":27023:27024  F */\n      dup11\n        /* \"poseidon-solidity/PoseidonT3.sol\":27018:27021  M11 */\n      0x2e2419f9ec02ec394c9871c832963dc1b89d743c8c7b964029b2311687b1fe23\n        /* \"poseidon-solidity/PoseidonT3.sol\":27010:27016  state1 */\n      dup9\n        /* \"poseidon-solidity/PoseidonT3.sol\":27003:27025  mulmod(state1, M11, F) */\n      mulmod\n        /* \"poseidon-solidity/PoseidonT3.sol\":26999:27000  F */\n      dup12\n        /* \"poseidon-solidity/PoseidonT3.sol\":26994:26997  M01 */\n      0x2969f27eed31a480b9c36c764379dbca2cc8fdd1415c3dded62940bcde0bd771\n        /* \"poseidon-solidity/PoseidonT3.sol\":26986:26992  state0 */\n      dup5\n        /* \"poseidon-solidity/PoseidonT3.sol\":26979:27001  mulmod(state0, M01, F) */\n      mulmod\n        /* \"poseidon-solidity/PoseidonT3.sol\":26975:27026  add(mulmod(state0, M01, F), mulmod(state1, M11, F)) */\n      add\n        /* \"poseidon-solidity/PoseidonT3.sol\":26971:27051  add(add(mulmod(state0, M01, F), mulmod(state1, M11, F)), mulmod(state2, M21, F)) */\n      add\n        /* \"poseidon-solidity/PoseidonT3.sol\":26903:26969  0x119e684de476155fe5a6b41a8ebc85db8718ab27889e85e781b214bace4827c3 */\n      0x119e684de476155fe5a6b41a8ebc85db8718ab27889e85e781b214bace4827c3\n        /* \"poseidon-solidity/PoseidonT3.sol\":26899:27052  add(0x119e684de476155fe5a6b41a8ebc85db8718ab27889e85e781b214bace4827c3, add(add(mulmod(state0, M01, F), mulmod(state1, M11, F)), mulmod(state2, M21, F))) */\n      add\n        /* \"poseidon-solidity/PoseidonT3.sol\":26887:27052  scratch1 := add(0x119e684de476155fe5a6b41a8ebc85db8718ab27889e85e781b214bace4827c3, add(add(mulmod(state0, M01, F), mulmod(state1, M11, F)), mulmod(state2, M21, F))) */\n      swap3\n      pop\n        /* \"poseidon-solidity/PoseidonT3.sol\":27220:27221  F */\n      dup10\n        /* \"poseidon-solidity/PoseidonT3.sol\":27215:27218  M22 */\n      dup8\n        /* \"poseidon-solidity/PoseidonT3.sol\":27207:27213  state2 */\n      dup7\n        /* \"poseidon-solidity/PoseidonT3.sol\":27200:27222  mulmod(state2, M22, F) */\n      mulmod\n        /* \"poseidon-solidity/PoseidonT3.sol\":27195:27196  F */\n      dup11\n        /* \"poseidon-solidity/PoseidonT3.sol\":27190:27193  M12 */\n      0x176cc029695ad02582a70eff08a6fd99d057e12e58e7d7b6b16cdfabc8ee2911\n        /* \"poseidon-solidity/PoseidonT3.sol\":27182:27188  state1 */\n      dup9\n        /* \"poseidon-solidity/PoseidonT3.sol\":27175:27197  mulmod(state1, M12, F) */\n      mulmod\n        /* \"poseidon-solidity/PoseidonT3.sol\":27171:27172  F */\n      dup12\n        /* \"poseidon-solidity/PoseidonT3.sol\":27166:27169  M02 */\n      0x143021ec686a3f330d5f9e654638065ce6cd79e28c5b3753326244ee65a1b1a7\n        /* \"poseidon-solidity/PoseidonT3.sol\":27158:27164  state0 */\n      dup5\n        /* \"poseidon-solidity/PoseidonT3.sol\":27151:27173  mulmod(state0, M02, F) */\n      mulmod\n        /* \"poseidon-solidity/PoseidonT3.sol\":27147:27198  add(mulmod(state0, M02, F), mulmod(state1, M12, F)) */\n      add\n        /* \"poseidon-solidity/PoseidonT3.sol\":27143:27223  add(add(mulmod(state0, M02, F), mulmod(state1, M12, F)), mulmod(state2, M22, F)) */\n      add\n        /* \"poseidon-solidity/PoseidonT3.sol\":27075:27141  0x1835b786e2e8925e188bea59ae363537b51248c23828f047cff784b97b3fd800 */\n      0x1835b786e2e8925e188bea59ae363537b51248c23828f047cff784b97b3fd800\n        /* \"poseidon-solidity/PoseidonT3.sol\":27071:27224  add(0x1835b786e2e8925e188bea59ae363537b51248c23828f047cff784b97b3fd800, add(add(mulmod(state0, M02, F), mulmod(state1, M12, F)), mulmod(state2, M22, F))) */\n      add\n        /* \"poseidon-solidity/PoseidonT3.sol\":27059:27224  scratch2 := add(0x1835b786e2e8925e188bea59ae363537b51248c23828f047cff784b97b3fd800, add(add(mulmod(state0, M02, F), mulmod(state1, M12, F)), mulmod(state2, M22, F))) */\n      swap2\n      pop\n        /* \"poseidon-solidity/PoseidonT3.sol\":27268:27269  F */\n      dup10\n        /* \"poseidon-solidity/PoseidonT3.sol\":27258:27266  scratch0 */\n      dup5\n        /* \"poseidon-solidity/PoseidonT3.sol\":27248:27256  scratch0 */\n      dup6\n        /* \"poseidon-solidity/PoseidonT3.sol\":27241:27270  mulmod(scratch0, scratch0, F) */\n      mulmod\n        /* \"poseidon-solidity/PoseidonT3.sol\":27231:27270  state0 := mulmod(scratch0, scratch0, F) */\n      swap1\n      pop\n        /* \"poseidon-solidity/PoseidonT3.sol\":27333:27334  F */\n      dup10\n        /* \"poseidon-solidity/PoseidonT3.sol\":27323:27331  scratch0 */\n      dup5\n        /* \"poseidon-solidity/PoseidonT3.sol\":27319:27320  F */\n      dup12\n        /* \"poseidon-solidity/PoseidonT3.sol\":27311:27317  state0 */\n      dup4\n        /* \"poseidon-solidity/PoseidonT3.sol\":27303:27309  state0 */\n      dup5\n        /* \"poseidon-solidity/PoseidonT3.sol\":27296:27321  mulmod(state0, state0, F) */\n      mulmod\n        /* \"poseidon-solidity/PoseidonT3.sol\":27289:27335  mulmod(mulmod(state0, state0, F), scratch0, F) */\n      mulmod\n        /* \"poseidon-solidity/PoseidonT3.sol\":27277:27335  scratch0 := mulmod(mulmod(state0, state0, F), scratch0, F) */\n      swap4\n      pop\n        /* \"poseidon-solidity/PoseidonT3.sol\":27507:27508  F */\n      dup10\n        /* \"poseidon-solidity/PoseidonT3.sol\":27502:27505  M20 */\n      dup10\n        /* \"poseidon-solidity/PoseidonT3.sol\":27492:27500  scratch2 */\n      dup4\n        /* \"poseidon-solidity/PoseidonT3.sol\":27485:27509  mulmod(scratch2, M20, F) */\n      mulmod\n        /* \"poseidon-solidity/PoseidonT3.sol\":27480:27481  F */\n      dup11\n        /* \"poseidon-solidity/PoseidonT3.sol\":27475:27478  M10 */\n      0x16ed41e13bb9c0c66ae119424fddbcbc9314dc9fdbdeea55d6c64543dc4903e0\n        /* \"poseidon-solidity/PoseidonT3.sol\":27465:27473  scratch1 */\n      dup6\n        /* \"poseidon-solidity/PoseidonT3.sol\":27458:27482  mulmod(scratch1, M10, F) */\n      mulmod\n        /* \"poseidon-solidity/PoseidonT3.sol\":27454:27455  F */\n      dup12\n        /* \"poseidon-solidity/PoseidonT3.sol\":27449:27452  M00 */\n      0x109b7f411ba0e4c9b2b70caf5c36a7b194be7c11ad24378bfedb68592ba8118b\n        /* \"poseidon-solidity/PoseidonT3.sol\":27439:27447  scratch0 */\n      dup8\n        /* \"poseidon-solidity/PoseidonT3.sol\":27432:27456  mulmod(scratch0, M00, F) */\n      mulmod\n        /* \"poseidon-solidity/PoseidonT3.sol\":27428:27483  add(mulmod(scratch0, M00, F), mulmod(scratch1, M10, F)) */\n      add\n        /* \"poseidon-solidity/PoseidonT3.sol\":27424:27510  add(add(mulmod(scratch0, M00, F), mulmod(scratch1, M10, F)), mulmod(scratch2, M20, F)) */\n      add\n        /* \"poseidon-solidity/PoseidonT3.sol\":27356:27422  0x28201a34c594dfa34d794996c6433a20d152bac2a7905c926c40e285ab32eeb6 */\n      0x28201a34c594dfa34d794996c6433a20d152bac2a7905c926c40e285ab32eeb6\n        /* \"poseidon-solidity/PoseidonT3.sol\":27352:27511  add(0x28201a34c594dfa34d794996c6433a20d152bac2a7905c926c40e285ab32eeb6, add(add(mulmod(scratch0, M00, F), mulmod(scratch1, M10, F)), mulmod(scratch2, M20, F))) */\n      add\n        /* \"poseidon-solidity/PoseidonT3.sol\":27342:27511  state0 := add(0x28201a34c594dfa34d794996c6433a20d152bac2a7905c926c40e285ab32eeb6, add(add(mulmod(scratch0, M00, F), mulmod(scratch1, M10, F)), mulmod(scratch2, M20, F))) */\n      swap1\n      pop\n        /* \"poseidon-solidity/PoseidonT3.sol\":27683:27684  F */\n      dup10\n        /* \"poseidon-solidity/PoseidonT3.sol\":27678:27681  M21 */\n      dup9\n        /* \"poseidon-solidity/PoseidonT3.sol\":27668:27676  scratch2 */\n      dup4\n        /* \"poseidon-solidity/PoseidonT3.sol\":27661:27685  mulmod(scratch2, M21, F) */\n      mulmod\n        /* \"poseidon-solidity/PoseidonT3.sol\":27656:27657  F */\n      dup11\n        /* \"poseidon-solidity/PoseidonT3.sol\":27651:27654  M11 */\n      0x2e2419f9ec02ec394c9871c832963dc1b89d743c8c7b964029b2311687b1fe23\n        /* \"poseidon-solidity/PoseidonT3.sol\":27641:27649  scratch1 */\n      dup6\n        /* \"poseidon-solidity/PoseidonT3.sol\":27634:27658  mulmod(scratch1, M11, F) */\n      mulmod\n        /* \"poseidon-solidity/PoseidonT3.sol\":27630:27631  F */\n      dup12\n        /* \"poseidon-solidity/PoseidonT3.sol\":27625:27628  M01 */\n      0x2969f27eed31a480b9c36c764379dbca2cc8fdd1415c3dded62940bcde0bd771\n        /* \"poseidon-solidity/PoseidonT3.sol\":27615:27623  scratch0 */\n      dup8\n        /* \"poseidon-solidity/PoseidonT3.sol\":27608:27632  mulmod(scratch0, M01, F) */\n      mulmod\n        /* \"poseidon-solidity/PoseidonT3.sol\":27604:27659  add(mulmod(scratch0, M01, F), mulmod(scratch1, M11, F)) */\n      add\n        /* \"poseidon-solidity/PoseidonT3.sol\":27600:27686  add(add(mulmod(scratch0, M01, F), mulmod(scratch1, M11, F)), mulmod(scratch2, M21, F)) */\n      add\n        /* \"poseidon-solidity/PoseidonT3.sol\":27532:27598  0x083efd7a27d1751094e80fefaf78b000864c82eb571187724a761f88c22cc4e7 */\n      0x083efd7a27d1751094e80fefaf78b000864c82eb571187724a761f88c22cc4e7\n        /* \"poseidon-solidity/PoseidonT3.sol\":27528:27687  add(0x083efd7a27d1751094e80fefaf78b000864c82eb571187724a761f88c22cc4e7, add(add(mulmod(scratch0, M01, F), mulmod(scratch1, M11, F)), mulmod(scratch2, M21, F))) */\n      add\n        /* \"poseidon-solidity/PoseidonT3.sol\":27518:27687  state1 := add(0x083efd7a27d1751094e80fefaf78b000864c82eb571187724a761f88c22cc4e7, add(add(mulmod(scratch0, M01, F), mulmod(scratch1, M11, F)), mulmod(scratch2, M21, F))) */\n      swap6\n      pop\n        /* \"poseidon-solidity/PoseidonT3.sol\":27859:27860  F */\n      dup10\n        /* \"poseidon-solidity/PoseidonT3.sol\":27854:27857  M22 */\n      dup8\n        /* \"poseidon-solidity/PoseidonT3.sol\":27844:27852  scratch2 */\n      dup4\n        /* \"poseidon-solidity/PoseidonT3.sol\":27837:27861  mulmod(scratch2, M22, F) */\n      mulmod\n        /* \"poseidon-solidity/PoseidonT3.sol\":27832:27833  F */\n      dup11\n        /* \"poseidon-solidity/PoseidonT3.sol\":27827:27830  M12 */\n      0x176cc029695ad02582a70eff08a6fd99d057e12e58e7d7b6b16cdfabc8ee2911\n        /* \"poseidon-solidity/PoseidonT3.sol\":27817:27825  scratch1 */\n      dup6\n        /* \"poseidon-solidity/PoseidonT3.sol\":27810:27834  mulmod(scratch1, M12, F) */\n      mulmod\n        /* \"poseidon-solidity/PoseidonT3.sol\":27806:27807  F */\n      dup12\n        /* \"poseidon-solidity/PoseidonT3.sol\":27801:27804  M02 */\n      0x143021ec686a3f330d5f9e654638065ce6cd79e28c5b3753326244ee65a1b1a7\n        /* \"poseidon-solidity/PoseidonT3.sol\":27791:27799  scratch0 */\n      dup8\n        /* \"poseidon-solidity/PoseidonT3.sol\":27784:27808  mulmod(scratch0, M02, F) */\n      mulmod\n        /* \"poseidon-solidity/PoseidonT3.sol\":27780:27835  add(mulmod(scratch0, M02, F), mulmod(scratch1, M12, F)) */\n      add\n        /* \"poseidon-solidity/PoseidonT3.sol\":27776:27862  add(add(mulmod(scratch0, M02, F), mulmod(scratch1, M12, F)), mulmod(scratch2, M22, F)) */\n      add\n        /* \"poseidon-solidity/PoseidonT3.sol\":27708:27774  0x0b6f88a3577199526158e61ceea27be811c16df7774dd8519e079564f61fd13b */\n      0x0b6f88a3577199526158e61ceea27be811c16df7774dd8519e079564f61fd13b\n        /* \"poseidon-solidity/PoseidonT3.sol\":27704:27863  add(0x0b6f88a3577199526158e61ceea27be811c16df7774dd8519e079564f61fd13b, add(add(mulmod(scratch0, M02, F), mulmod(scratch1, M12, F)), mulmod(scratch2, M22, F))) */\n      add\n        /* \"poseidon-solidity/PoseidonT3.sol\":27694:27863  state2 := add(0x0b6f88a3577199526158e61ceea27be811c16df7774dd8519e079564f61fd13b, add(add(mulmod(scratch0, M02, F), mulmod(scratch1, M12, F)), mulmod(scratch2, M22, F))) */\n      swap5\n      pop\n        /* \"poseidon-solidity/PoseidonT3.sol\":27905:27906  F */\n      dup10\n        /* \"poseidon-solidity/PoseidonT3.sol\":27897:27903  state0 */\n      dup2\n        /* \"poseidon-solidity/PoseidonT3.sol\":27889:27895  state0 */\n      dup3\n        /* \"poseidon-solidity/PoseidonT3.sol\":27882:27907  mulmod(state0, state0, F) */\n      mulmod\n        /* \"poseidon-solidity/PoseidonT3.sol\":27870:27907  scratch0 := mulmod(state0, state0, F) */\n      swap4\n      pop\n        /* \"poseidon-solidity/PoseidonT3.sol\":27970:27971  F */\n      dup10\n        /* \"poseidon-solidity/PoseidonT3.sol\":27962:27968  state0 */\n      dup2\n        /* \"poseidon-solidity/PoseidonT3.sol\":27958:27959  F */\n      dup12\n        /* \"poseidon-solidity/PoseidonT3.sol\":27948:27956  scratch0 */\n      dup7\n        /* \"poseidon-solidity/PoseidonT3.sol\":27938:27946  scratch0 */\n      dup8\n        /* \"poseidon-solidity/PoseidonT3.sol\":27931:27960  mulmod(scratch0, scratch0, F) */\n      mulmod\n        /* \"poseidon-solidity/PoseidonT3.sol\":27924:27972  mulmod(mulmod(scratch0, scratch0, F), state0, F) */\n      mulmod\n        /* \"poseidon-solidity/PoseidonT3.sol\":27914:27972  state0 := mulmod(mulmod(scratch0, scratch0, F), state0, F) */\n      swap1\n      pop\n        /* \"poseidon-solidity/PoseidonT3.sol\":28140:28141  F */\n      dup10\n        /* \"poseidon-solidity/PoseidonT3.sol\":28135:28138  M20 */\n      dup10\n        /* \"poseidon-solidity/PoseidonT3.sol\":28127:28133  state2 */\n      dup7\n        /* \"poseidon-solidity/PoseidonT3.sol\":28120:28142  mulmod(state2, M20, F) */\n      mulmod\n        /* \"poseidon-solidity/PoseidonT3.sol\":28115:28116  F */\n      dup11\n        /* \"poseidon-solidity/PoseidonT3.sol\":28110:28113  M10 */\n      0x16ed41e13bb9c0c66ae119424fddbcbc9314dc9fdbdeea55d6c64543dc4903e0\n        /* \"poseidon-solidity/PoseidonT3.sol\":28102:28108  state1 */\n      dup9\n        /* \"poseidon-solidity/PoseidonT3.sol\":28095:28117  mulmod(state1, M10, F) */\n      mulmod\n        /* \"poseidon-solidity/PoseidonT3.sol\":28091:28092  F */\n      dup12\n        /* \"poseidon-solidity/PoseidonT3.sol\":28086:28089  M00 */\n      0x109b7f411ba0e4c9b2b70caf5c36a7b194be7c11ad24378bfedb68592ba8118b\n        /* \"poseidon-solidity/PoseidonT3.sol\":28078:28084  state0 */\n      dup5\n        /* \"poseidon-solidity/PoseidonT3.sol\":28071:28093  mulmod(state0, M00, F) */\n      mulmod\n        /* \"poseidon-solidity/PoseidonT3.sol\":28067:28118  add(mulmod(state0, M00, F), mulmod(state1, M10, F)) */\n      add\n        /* \"poseidon-solidity/PoseidonT3.sol\":28063:28143  add(add(mulmod(state0, M00, F), mulmod(state1, M10, F)), mulmod(state2, M20, F)) */\n      add\n        /* \"poseidon-solidity/PoseidonT3.sol\":27995:28061  0x0ec868e6d15e51d9644f66e1d6471a94589511ca00d29e1014390e6ee4254f5b */\n      0x0ec868e6d15e51d9644f66e1d6471a94589511ca00d29e1014390e6ee4254f5b\n        /* \"poseidon-solidity/PoseidonT3.sol\":27991:28144  add(0x0ec868e6d15e51d9644f66e1d6471a94589511ca00d29e1014390e6ee4254f5b, add(add(mulmod(state0, M00, F), mulmod(state1, M10, F)), mulmod(state2, M20, F))) */\n      add\n        /* \"poseidon-solidity/PoseidonT3.sol\":27979:28144  scratch0 := add(0x0ec868e6d15e51d9644f66e1d6471a94589511ca00d29e1014390e6ee4254f5b, add(add(mulmod(state0, M00, F), mulmod(state1, M10, F)), mulmod(state2, M20, F))) */\n      swap4\n      pop\n        /* \"poseidon-solidity/PoseidonT3.sol\":28312:28313  F */\n      dup10\n        /* \"poseidon-solidity/PoseidonT3.sol\":28307:28310  M21 */\n      dup9\n        /* \"poseidon-solidity/PoseidonT3.sol\":28299:28305  state2 */\n      dup7\n        /* \"poseidon-solidity/PoseidonT3.sol\":28292:28314  mulmod(state2, M21, F) */\n      mulmod\n        /* \"poseidon-solidity/PoseidonT3.sol\":28287:28288  F */\n      dup11\n        /* \"poseidon-solidity/PoseidonT3.sol\":28282:28285  M11 */\n      0x2e2419f9ec02ec394c9871c832963dc1b89d743c8c7b964029b2311687b1fe23\n        /* \"poseidon-solidity/PoseidonT3.sol\":28274:28280  state1 */\n      dup9\n        /* \"poseidon-solidity/PoseidonT3.sol\":28267:28289  mulmod(state1, M11, F) */\n      mulmod\n        /* \"poseidon-solidity/PoseidonT3.sol\":28263:28264  F */\n      dup12\n        /* \"poseidon-solidity/PoseidonT3.sol\":28258:28261  M01 */\n      0x2969f27eed31a480b9c36c764379dbca2cc8fdd1415c3dded62940bcde0bd771\n        /* \"poseidon-solidity/PoseidonT3.sol\":28250:28256  state0 */\n      dup5\n        /* \"poseidon-solidity/PoseidonT3.sol\":28243:28265  mulmod(state0, M01, F) */\n      mulmod\n        /* \"poseidon-solidity/PoseidonT3.sol\":28239:28290  add(mulmod(state0, M01, F), mulmod(state1, M11, F)) */\n      add\n        /* \"poseidon-solidity/PoseidonT3.sol\":28235:28315  add(add(mulmod(state0, M01, F), mulmod(state1, M11, F)), mulmod(state2, M21, F)) */\n      add\n        /* \"poseidon-solidity/PoseidonT3.sol\":28167:28233  0x2af33e3f866771271ac0c9b3ed2e1142ecd3e74b939cd40d00d937ab84c98591 */\n      0x2af33e3f866771271ac0c9b3ed2e1142ecd3e74b939cd40d00d937ab84c98591\n        /* \"poseidon-solidity/PoseidonT3.sol\":28163:28316  add(0x2af33e3f866771271ac0c9b3ed2e1142ecd3e74b939cd40d00d937ab84c98591, add(add(mulmod(state0, M01, F), mulmod(state1, M11, F)), mulmod(state2, M21, F))) */\n      add\n        /* \"poseidon-solidity/PoseidonT3.sol\":28151:28316  scratch1 := add(0x2af33e3f866771271ac0c9b3ed2e1142ecd3e74b939cd40d00d937ab84c98591, add(add(mulmod(state0, M01, F), mulmod(state1, M11, F)), mulmod(state2, M21, F))) */\n      swap3\n      pop\n        /* \"poseidon-solidity/PoseidonT3.sol\":28484:28485  F */\n      dup10\n        /* \"poseidon-solidity/PoseidonT3.sol\":28479:28482  M22 */\n      dup8\n        /* \"poseidon-solidity/PoseidonT3.sol\":28471:28477  state2 */\n      dup7\n        /* \"poseidon-solidity/PoseidonT3.sol\":28464:28486  mulmod(state2, M22, F) */\n      mulmod\n        /* \"poseidon-solidity/PoseidonT3.sol\":28459:28460  F */\n      dup11\n        /* \"poseidon-solidity/PoseidonT3.sol\":28454:28457  M12 */\n      0x176cc029695ad02582a70eff08a6fd99d057e12e58e7d7b6b16cdfabc8ee2911\n        /* \"poseidon-solidity/PoseidonT3.sol\":28446:28452  state1 */\n      dup9\n        /* \"poseidon-solidity/PoseidonT3.sol\":28439:28461  mulmod(state1, M12, F) */\n      mulmod\n        /* \"poseidon-solidity/PoseidonT3.sol\":28435:28436  F */\n      dup12\n        /* \"poseidon-solidity/PoseidonT3.sol\":28430:28433  M02 */\n      0x143021ec686a3f330d5f9e654638065ce6cd79e28c5b3753326244ee65a1b1a7\n        /* \"poseidon-solidity/PoseidonT3.sol\":28422:28428  state0 */\n      dup5\n        /* \"poseidon-solidity/PoseidonT3.sol\":28415:28437  mulmod(state0, M02, F) */\n      mulmod\n        /* \"poseidon-solidity/PoseidonT3.sol\":28411:28462  add(mulmod(state0, M02, F), mulmod(state1, M12, F)) */\n      add\n        /* \"poseidon-solidity/PoseidonT3.sol\":28407:28487  add(add(mulmod(state0, M02, F), mulmod(state1, M12, F)), mulmod(state2, M22, F)) */\n      add\n        /* \"poseidon-solidity/PoseidonT3.sol\":28339:28405  0x0b520211f904b5e7d09b5d961c6ace7734568c547dd6858b364ce5e47951f178 */\n      0x0b520211f904b5e7d09b5d961c6ace7734568c547dd6858b364ce5e47951f178\n        /* \"poseidon-solidity/PoseidonT3.sol\":28335:28488  add(0x0b520211f904b5e7d09b5d961c6ace7734568c547dd6858b364ce5e47951f178, add(add(mulmod(state0, M02, F), mulmod(state1, M12, F)), mulmod(state2, M22, F))) */\n      add\n        /* \"poseidon-solidity/PoseidonT3.sol\":28323:28488  scratch2 := add(0x0b520211f904b5e7d09b5d961c6ace7734568c547dd6858b364ce5e47951f178, add(add(mulmod(state0, M02, F), mulmod(state1, M12, F)), mulmod(state2, M22, F))) */\n      swap2\n      pop\n        /* \"poseidon-solidity/PoseidonT3.sol\":28532:28533  F */\n      dup10\n        /* \"poseidon-solidity/PoseidonT3.sol\":28522:28530  scratch0 */\n      dup5\n        /* \"poseidon-solidity/PoseidonT3.sol\":28512:28520  scratch0 */\n      dup6\n        /* \"poseidon-solidity/PoseidonT3.sol\":28505:28534  mulmod(scratch0, scratch0, F) */\n      mulmod\n        /* \"poseidon-solidity/PoseidonT3.sol\":28495:28534  state0 := mulmod(scratch0, scratch0, F) */\n      swap1\n      pop\n        /* \"poseidon-solidity/PoseidonT3.sol\":28597:28598  F */\n      dup10\n        /* \"poseidon-solidity/PoseidonT3.sol\":28587:28595  scratch0 */\n      dup5\n        /* \"poseidon-solidity/PoseidonT3.sol\":28583:28584  F */\n      dup12\n        /* \"poseidon-solidity/PoseidonT3.sol\":28575:28581  state0 */\n      dup4\n        /* \"poseidon-solidity/PoseidonT3.sol\":28567:28573  state0 */\n      dup5\n        /* \"poseidon-solidity/PoseidonT3.sol\":28560:28585  mulmod(state0, state0, F) */\n      mulmod\n        /* \"poseidon-solidity/PoseidonT3.sol\":28553:28599  mulmod(mulmod(state0, state0, F), scratch0, F) */\n      mulmod\n        /* \"poseidon-solidity/PoseidonT3.sol\":28541:28599  scratch0 := mulmod(mulmod(state0, state0, F), scratch0, F) */\n      swap4\n      pop\n        /* \"poseidon-solidity/PoseidonT3.sol\":28771:28772  F */\n      dup10\n        /* \"poseidon-solidity/PoseidonT3.sol\":28766:28769  M20 */\n      dup10\n        /* \"poseidon-solidity/PoseidonT3.sol\":28756:28764  scratch2 */\n      dup4\n        /* \"poseidon-solidity/PoseidonT3.sol\":28749:28773  mulmod(scratch2, M20, F) */\n      mulmod\n        /* \"poseidon-solidity/PoseidonT3.sol\":28744:28745  F */\n      dup11\n        /* \"poseidon-solidity/PoseidonT3.sol\":28739:28742  M10 */\n      0x16ed41e13bb9c0c66ae119424fddbcbc9314dc9fdbdeea55d6c64543dc4903e0\n        /* \"poseidon-solidity/PoseidonT3.sol\":28729:28737  scratch1 */\n      dup6\n        /* \"poseidon-solidity/PoseidonT3.sol\":28722:28746  mulmod(scratch1, M10, F) */\n      mulmod\n        /* \"poseidon-solidity/PoseidonT3.sol\":28718:28719  F */\n      dup12\n        /* \"poseidon-solidity/PoseidonT3.sol\":28713:28716  M00 */\n      0x109b7f411ba0e4c9b2b70caf5c36a7b194be7c11ad24378bfedb68592ba8118b\n        /* \"poseidon-solidity/PoseidonT3.sol\":28703:28711  scratch0 */\n      dup8\n        /* \"poseidon-solidity/PoseidonT3.sol\":28696:28720  mulmod(scratch0, M00, F) */\n      mulmod\n        /* \"poseidon-solidity/PoseidonT3.sol\":28692:28747  add(mulmod(scratch0, M00, F), mulmod(scratch1, M10, F)) */\n      add\n        /* \"poseidon-solidity/PoseidonT3.sol\":28688:28774  add(add(mulmod(scratch0, M00, F), mulmod(scratch1, M10, F)), mulmod(scratch2, M20, F)) */\n      add\n        /* \"poseidon-solidity/PoseidonT3.sol\":28620:28686  0x0b2d722d0919a1aad8db58f10062a92ea0c56ac4270e822cca228620188a1d40 */\n      0x0b2d722d0919a1aad8db58f10062a92ea0c56ac4270e822cca228620188a1d40\n        /* \"poseidon-solidity/PoseidonT3.sol\":28616:28775  add(0x0b2d722d0919a1aad8db58f10062a92ea0c56ac4270e822cca228620188a1d40, add(add(mulmod(scratch0, M00, F), mulmod(scratch1, M10, F)), mulmod(scratch2, M20, F))) */\n      add\n        /* \"poseidon-solidity/PoseidonT3.sol\":28606:28775  state0 := add(0x0b2d722d0919a1aad8db58f10062a92ea0c56ac4270e822cca228620188a1d40, add(add(mulmod(scratch0, M00, F), mulmod(scratch1, M10, F)), mulmod(scratch2, M20, F))) */\n      swap1\n      pop\n        /* \"poseidon-solidity/PoseidonT3.sol\":28947:28948  F */\n      dup10\n        /* \"poseidon-solidity/PoseidonT3.sol\":28942:28945  M21 */\n      dup9\n        /* \"poseidon-solidity/PoseidonT3.sol\":28932:28940  scratch2 */\n      dup4\n        /* \"poseidon-solidity/PoseidonT3.sol\":28925:28949  mulmod(scratch2, M21, F) */\n      mulmod\n        /* \"poseidon-solidity/PoseidonT3.sol\":28920:28921  F */\n      dup11\n        /* \"poseidon-solidity/PoseidonT3.sol\":28915:28918  M11 */\n      0x2e2419f9ec02ec394c9871c832963dc1b89d743c8c7b964029b2311687b1fe23\n        /* \"poseidon-solidity/PoseidonT3.sol\":28905:28913  scratch1 */\n      dup6\n        /* \"poseidon-solidity/PoseidonT3.sol\":28898:28922  mulmod(scratch1, M11, F) */\n      mulmod\n        /* \"poseidon-solidity/PoseidonT3.sol\":28894:28895  F */\n      dup12\n        /* \"poseidon-solidity/PoseidonT3.sol\":28889:28892  M01 */\n      0x2969f27eed31a480b9c36c764379dbca2cc8fdd1415c3dded62940bcde0bd771\n        /* \"poseidon-solidity/PoseidonT3.sol\":28879:28887  scratch0 */\n      dup8\n        /* \"poseidon-solidity/PoseidonT3.sol\":28872:28896  mulmod(scratch0, M01, F) */\n      mulmod\n        /* \"poseidon-solidity/PoseidonT3.sol\":28868:28923  add(mulmod(scratch0, M01, F), mulmod(scratch1, M11, F)) */\n      add\n        /* \"poseidon-solidity/PoseidonT3.sol\":28864:28950  add(add(mulmod(scratch0, M01, F), mulmod(scratch1, M11, F)), mulmod(scratch2, M21, F)) */\n      add\n        /* \"poseidon-solidity/PoseidonT3.sol\":28796:28862  0x1f790d4d7f8cf094d980ceb37c2453e957b54a9991ca38bbe0061d1ed6e562d4 */\n      0x1f790d4d7f8cf094d980ceb37c2453e957b54a9991ca38bbe0061d1ed6e562d4\n        /* \"poseidon-solidity/PoseidonT3.sol\":28792:28951  add(0x1f790d4d7f8cf094d980ceb37c2453e957b54a9991ca38bbe0061d1ed6e562d4, add(add(mulmod(scratch0, M01, F), mulmod(scratch1, M11, F)), mulmod(scratch2, M21, F))) */\n      add\n        /* \"poseidon-solidity/PoseidonT3.sol\":28782:28951  state1 := add(0x1f790d4d7f8cf094d980ceb37c2453e957b54a9991ca38bbe0061d1ed6e562d4, add(add(mulmod(scratch0, M01, F), mulmod(scratch1, M11, F)), mulmod(scratch2, M21, F))) */\n      swap6\n      pop\n        /* \"poseidon-solidity/PoseidonT3.sol\":29123:29124  F */\n      dup10\n        /* \"poseidon-solidity/PoseidonT3.sol\":29118:29121  M22 */\n      dup8\n        /* \"poseidon-solidity/PoseidonT3.sol\":29108:29116  scratch2 */\n      dup4\n        /* \"poseidon-solidity/PoseidonT3.sol\":29101:29125  mulmod(scratch2, M22, F) */\n      mulmod\n        /* \"poseidon-solidity/PoseidonT3.sol\":29096:29097  F */\n      dup11\n        /* \"poseidon-solidity/PoseidonT3.sol\":29091:29094  M12 */\n      0x176cc029695ad02582a70eff08a6fd99d057e12e58e7d7b6b16cdfabc8ee2911\n        /* \"poseidon-solidity/PoseidonT3.sol\":29081:29089  scratch1 */\n      dup6\n        /* \"poseidon-solidity/PoseidonT3.sol\":29074:29098  mulmod(scratch1, M12, F) */\n      mulmod\n        /* \"poseidon-solidity/PoseidonT3.sol\":29070:29071  F */\n      dup12\n        /* \"poseidon-solidity/PoseidonT3.sol\":29065:29068  M02 */\n      0x143021ec686a3f330d5f9e654638065ce6cd79e28c5b3753326244ee65a1b1a7\n        /* \"poseidon-solidity/PoseidonT3.sol\":29055:29063  scratch0 */\n      dup8\n        /* \"poseidon-solidity/PoseidonT3.sol\":29048:29072  mulmod(scratch0, M02, F) */\n      mulmod\n        /* \"poseidon-solidity/PoseidonT3.sol\":29044:29099  add(mulmod(scratch0, M02, F), mulmod(scratch1, M12, F)) */\n      add\n        /* \"poseidon-solidity/PoseidonT3.sol\":29040:29126  add(add(mulmod(scratch0, M02, F), mulmod(scratch1, M12, F)), mulmod(scratch2, M22, F)) */\n      add\n        /* \"poseidon-solidity/PoseidonT3.sol\":28972:29038  0x0171eb95dfbf7d1eaea97cd385f780150885c16235a2a6a8da92ceb01e504233 */\n      0x0171eb95dfbf7d1eaea97cd385f780150885c16235a2a6a8da92ceb01e504233\n        /* \"poseidon-solidity/PoseidonT3.sol\":28968:29127  add(0x0171eb95dfbf7d1eaea97cd385f780150885c16235a2a6a8da92ceb01e504233, add(add(mulmod(scratch0, M02, F), mulmod(scratch1, M12, F)), mulmod(scratch2, M22, F))) */\n      add\n        /* \"poseidon-solidity/PoseidonT3.sol\":28958:29127  state2 := add(0x0171eb95dfbf7d1eaea97cd385f780150885c16235a2a6a8da92ceb01e504233, add(add(mulmod(scratch0, M02, F), mulmod(scratch1, M12, F)), mulmod(scratch2, M22, F))) */\n      swap5\n      pop\n        /* \"poseidon-solidity/PoseidonT3.sol\":29169:29170  F */\n      dup10\n        /* \"poseidon-solidity/PoseidonT3.sol\":29161:29167  state0 */\n      dup2\n        /* \"poseidon-solidity/PoseidonT3.sol\":29153:29159  state0 */\n      dup3\n        /* \"poseidon-solidity/PoseidonT3.sol\":29146:29171  mulmod(state0, state0, F) */\n      mulmod\n        /* \"poseidon-solidity/PoseidonT3.sol\":29134:29171  scratch0 := mulmod(state0, state0, F) */\n      swap4\n      pop\n        /* \"poseidon-solidity/PoseidonT3.sol\":29234:29235  F */\n      dup10\n        /* \"poseidon-solidity/PoseidonT3.sol\":29226:29232  state0 */\n      dup2\n        /* \"poseidon-solidity/PoseidonT3.sol\":29222:29223  F */\n      dup12\n        /* \"poseidon-solidity/PoseidonT3.sol\":29212:29220  scratch0 */\n      dup7\n        /* \"poseidon-solidity/PoseidonT3.sol\":29202:29210  scratch0 */\n      dup8\n        /* \"poseidon-solidity/PoseidonT3.sol\":29195:29224  mulmod(scratch0, scratch0, F) */\n      mulmod\n        /* \"poseidon-solidity/PoseidonT3.sol\":29188:29236  mulmod(mulmod(scratch0, scratch0, F), state0, F) */\n      mulmod\n        /* \"poseidon-solidity/PoseidonT3.sol\":29178:29236  state0 := mulmod(mulmod(scratch0, scratch0, F), state0, F) */\n      swap1\n      pop\n        /* \"poseidon-solidity/PoseidonT3.sol\":29404:29405  F */\n      dup10\n        /* \"poseidon-solidity/PoseidonT3.sol\":29399:29402  M20 */\n      dup10\n        /* \"poseidon-solidity/PoseidonT3.sol\":29391:29397  state2 */\n      dup7\n        /* \"poseidon-solidity/PoseidonT3.sol\":29384:29406  mulmod(state2, M20, F) */\n      mulmod\n        /* \"poseidon-solidity/PoseidonT3.sol\":29379:29380  F */\n      dup11\n        /* \"poseidon-solidity/PoseidonT3.sol\":29374:29377  M10 */\n      0x16ed41e13bb9c0c66ae119424fddbcbc9314dc9fdbdeea55d6c64543dc4903e0\n        /* \"poseidon-solidity/PoseidonT3.sol\":29366:29372  state1 */\n      dup9\n        /* \"poseidon-solidity/PoseidonT3.sol\":29359:29381  mulmod(state1, M10, F) */\n      mulmod\n        /* \"poseidon-solidity/PoseidonT3.sol\":29355:29356  F */\n      dup12\n        /* \"poseidon-solidity/PoseidonT3.sol\":29350:29353  M00 */\n      0x109b7f411ba0e4c9b2b70caf5c36a7b194be7c11ad24378bfedb68592ba8118b\n        /* \"poseidon-solidity/PoseidonT3.sol\":29342:29348  state0 */\n      dup5\n        /* \"poseidon-solidity/PoseidonT3.sol\":29335:29357  mulmod(state0, M00, F) */\n      mulmod\n        /* \"poseidon-solidity/PoseidonT3.sol\":29331:29382  add(mulmod(state0, M00, F), mulmod(state1, M10, F)) */\n      add\n        /* \"poseidon-solidity/PoseidonT3.sol\":29327:29407  add(add(mulmod(state0, M00, F), mulmod(state1, M10, F)), mulmod(state2, M20, F)) */\n      add\n        /* \"poseidon-solidity/PoseidonT3.sol\":29259:29325  0x0c2d0e3b5fd57549329bf6885da66b9b790b40defd2c8650762305381b168873 */\n      0x0c2d0e3b5fd57549329bf6885da66b9b790b40defd2c8650762305381b168873\n        /* \"poseidon-solidity/PoseidonT3.sol\":29255:29408  add(0x0c2d0e3b5fd57549329bf6885da66b9b790b40defd2c8650762305381b168873, add(add(mulmod(state0, M00, F), mulmod(state1, M10, F)), mulmod(state2, M20, F))) */\n      add\n        /* \"poseidon-solidity/PoseidonT3.sol\":29243:29408  scratch0 := add(0x0c2d0e3b5fd57549329bf6885da66b9b790b40defd2c8650762305381b168873, add(add(mulmod(state0, M00, F), mulmod(state1, M10, F)), mulmod(state2, M20, F))) */\n      swap4\n      pop\n        /* \"poseidon-solidity/PoseidonT3.sol\":29576:29577  F */\n      dup10\n        /* \"poseidon-solidity/PoseidonT3.sol\":29571:29574  M21 */\n      dup9\n        /* \"poseidon-solidity/PoseidonT3.sol\":29563:29569  state2 */\n      dup7\n        /* \"poseidon-solidity/PoseidonT3.sol\":29556:29578  mulmod(state2, M21, F) */\n      mulmod\n        /* \"poseidon-solidity/PoseidonT3.sol\":29551:29552  F */\n      dup11\n        /* \"poseidon-solidity/PoseidonT3.sol\":29546:29549  M11 */\n      0x2e2419f9ec02ec394c9871c832963dc1b89d743c8c7b964029b2311687b1fe23\n        /* \"poseidon-solidity/PoseidonT3.sol\":29538:29544  state1 */\n      dup9\n        /* \"poseidon-solidity/PoseidonT3.sol\":29531:29553  mulmod(state1, M11, F) */\n      mulmod\n        /* \"poseidon-solidity/PoseidonT3.sol\":29527:29528  F */\n      dup12\n        /* \"poseidon-solidity/PoseidonT3.sol\":29522:29525  M01 */\n      0x2969f27eed31a480b9c36c764379dbca2cc8fdd1415c3dded62940bcde0bd771\n        /* \"poseidon-solidity/PoseidonT3.sol\":29514:29520  state0 */\n      dup5\n        /* \"poseidon-solidity/PoseidonT3.sol\":29507:29529  mulmod(state0, M01, F) */\n      mulmod\n        /* \"poseidon-solidity/PoseidonT3.sol\":29503:29554  add(mulmod(state0, M01, F), mulmod(state1, M11, F)) */\n      add\n        /* \"poseidon-solidity/PoseidonT3.sol\":29499:29579  add(add(mulmod(state0, M01, F), mulmod(state1, M11, F)), mulmod(state2, M21, F)) */\n      add\n        /* \"poseidon-solidity/PoseidonT3.sol\":29431:29497  0x1162fb28689c27154e5a8228b4e72b377cbcafa589e283c35d3803054407a18d */\n      0x1162fb28689c27154e5a8228b4e72b377cbcafa589e283c35d3803054407a18d\n        /* \"poseidon-solidity/PoseidonT3.sol\":29427:29580  add(0x1162fb28689c27154e5a8228b4e72b377cbcafa589e283c35d3803054407a18d, add(add(mulmod(state0, M01, F), mulmod(state1, M11, F)), mulmod(state2, M21, F))) */\n      add\n        /* \"poseidon-solidity/PoseidonT3.sol\":29415:29580  scratch1 := add(0x1162fb28689c27154e5a8228b4e72b377cbcafa589e283c35d3803054407a18d, add(add(mulmod(state0, M01, F), mulmod(state1, M11, F)), mulmod(state2, M21, F))) */\n      swap3\n      pop\n        /* \"poseidon-solidity/PoseidonT3.sol\":29748:29749  F */\n      dup10\n        /* \"poseidon-solidity/PoseidonT3.sol\":29743:29746  M22 */\n      dup8\n        /* \"poseidon-solidity/PoseidonT3.sol\":29735:29741  state2 */\n      dup7\n        /* \"poseidon-solidity/PoseidonT3.sol\":29728:29750  mulmod(state2, M22, F) */\n      mulmod\n        /* \"poseidon-solidity/PoseidonT3.sol\":29723:29724  F */\n      dup11\n        /* \"poseidon-solidity/PoseidonT3.sol\":29718:29721  M12 */\n      0x176cc029695ad02582a70eff08a6fd99d057e12e58e7d7b6b16cdfabc8ee2911\n        /* \"poseidon-solidity/PoseidonT3.sol\":29710:29716  state1 */\n      dup9\n        /* \"poseidon-solidity/PoseidonT3.sol\":29703:29725  mulmod(state1, M12, F) */\n      mulmod\n        /* \"poseidon-solidity/PoseidonT3.sol\":29699:29700  F */\n      dup12\n        /* \"poseidon-solidity/PoseidonT3.sol\":29694:29697  M02 */\n      0x143021ec686a3f330d5f9e654638065ce6cd79e28c5b3753326244ee65a1b1a7\n        /* \"poseidon-solidity/PoseidonT3.sol\":29686:29692  state0 */\n      dup5\n        /* \"poseidon-solidity/PoseidonT3.sol\":29679:29701  mulmod(state0, M02, F) */\n      mulmod\n        /* \"poseidon-solidity/PoseidonT3.sol\":29675:29726  add(mulmod(state0, M02, F), mulmod(state1, M12, F)) */\n      add\n        /* \"poseidon-solidity/PoseidonT3.sol\":29671:29751  add(add(mulmod(state0, M02, F), mulmod(state1, M12, F)), mulmod(state2, M22, F)) */\n      add\n        /* \"poseidon-solidity/PoseidonT3.sol\":29603:29669  0x2f1459b65dee441b64ad386a91e8310f282c5a92a89e19921623ef8249711bc0 */\n      0x2f1459b65dee441b64ad386a91e8310f282c5a92a89e19921623ef8249711bc0\n        /* \"poseidon-solidity/PoseidonT3.sol\":29599:29752  add(0x2f1459b65dee441b64ad386a91e8310f282c5a92a89e19921623ef8249711bc0, add(add(mulmod(state0, M02, F), mulmod(state1, M12, F)), mulmod(state2, M22, F))) */\n      add\n        /* \"poseidon-solidity/PoseidonT3.sol\":29587:29752  scratch2 := add(0x2f1459b65dee441b64ad386a91e8310f282c5a92a89e19921623ef8249711bc0, add(add(mulmod(state0, M02, F), mulmod(state1, M12, F)), mulmod(state2, M22, F))) */\n      swap2\n      pop\n        /* \"poseidon-solidity/PoseidonT3.sol\":29796:29797  F */\n      dup10\n        /* \"poseidon-solidity/PoseidonT3.sol\":29786:29794  scratch0 */\n      dup5\n        /* \"poseidon-solidity/PoseidonT3.sol\":29776:29784  scratch0 */\n      dup6\n        /* \"poseidon-solidity/PoseidonT3.sol\":29769:29798  mulmod(scratch0, scratch0, F) */\n      mulmod\n        /* \"poseidon-solidity/PoseidonT3.sol\":29759:29798  state0 := mulmod(scratch0, scratch0, F) */\n      swap1\n      pop\n        /* \"poseidon-solidity/PoseidonT3.sol\":29861:29862  F */\n      dup10\n        /* \"poseidon-solidity/PoseidonT3.sol\":29851:29859  scratch0 */\n      dup5\n        /* \"poseidon-solidity/PoseidonT3.sol\":29847:29848  F */\n      dup12\n        /* \"poseidon-solidity/PoseidonT3.sol\":29839:29845  state0 */\n      dup4\n        /* \"poseidon-solidity/PoseidonT3.sol\":29831:29837  state0 */\n      dup5\n        /* \"poseidon-solidity/PoseidonT3.sol\":29824:29849  mulmod(state0, state0, F) */\n      mulmod\n        /* \"poseidon-solidity/PoseidonT3.sol\":29817:29863  mulmod(mulmod(state0, state0, F), scratch0, F) */\n      mulmod\n        /* \"poseidon-solidity/PoseidonT3.sol\":29805:29863  scratch0 := mulmod(mulmod(state0, state0, F), scratch0, F) */\n      swap4\n      pop\n        /* \"poseidon-solidity/PoseidonT3.sol\":30035:30036  F */\n      dup10\n        /* \"poseidon-solidity/PoseidonT3.sol\":30030:30033  M20 */\n      dup10\n        /* \"poseidon-solidity/PoseidonT3.sol\":30020:30028  scratch2 */\n      dup4\n        /* \"poseidon-solidity/PoseidonT3.sol\":30013:30037  mulmod(scratch2, M20, F) */\n      mulmod\n        /* \"poseidon-solidity/PoseidonT3.sol\":30008:30009  F */\n      dup11\n        /* \"poseidon-solidity/PoseidonT3.sol\":30003:30006  M10 */\n      0x16ed41e13bb9c0c66ae119424fddbcbc9314dc9fdbdeea55d6c64543dc4903e0\n        /* \"poseidon-solidity/PoseidonT3.sol\":29993:30001  scratch1 */\n      dup6\n        /* \"poseidon-solidity/PoseidonT3.sol\":29986:30010  mulmod(scratch1, M10, F) */\n      mulmod\n        /* \"poseidon-solidity/PoseidonT3.sol\":29982:29983  F */\n      dup12\n        /* \"poseidon-solidity/PoseidonT3.sol\":29977:29980  M00 */\n      0x109b7f411ba0e4c9b2b70caf5c36a7b194be7c11ad24378bfedb68592ba8118b\n        /* \"poseidon-solidity/PoseidonT3.sol\":29967:29975  scratch0 */\n      dup8\n        /* \"poseidon-solidity/PoseidonT3.sol\":29960:29984  mulmod(scratch0, M00, F) */\n      mulmod\n        /* \"poseidon-solidity/PoseidonT3.sol\":29956:30011  add(mulmod(scratch0, M00, F), mulmod(scratch1, M10, F)) */\n      add\n        /* \"poseidon-solidity/PoseidonT3.sol\":29952:30038  add(add(mulmod(scratch0, M00, F), mulmod(scratch1, M10, F)), mulmod(scratch2, M20, F)) */\n      add\n        /* \"poseidon-solidity/PoseidonT3.sol\":29884:29950  0x1e6ff3216b688c3d996d74367d5cd4c1bc489d46754eb712c243f70d1b53cfbb */\n      0x1e6ff3216b688c3d996d74367d5cd4c1bc489d46754eb712c243f70d1b53cfbb\n        /* \"poseidon-solidity/PoseidonT3.sol\":29880:30039  add(0x1e6ff3216b688c3d996d74367d5cd4c1bc489d46754eb712c243f70d1b53cfbb, add(add(mulmod(scratch0, M00, F), mulmod(scratch1, M10, F)), mulmod(scratch2, M20, F))) */\n      add\n        /* \"poseidon-solidity/PoseidonT3.sol\":29870:30039  state0 := add(0x1e6ff3216b688c3d996d74367d5cd4c1bc489d46754eb712c243f70d1b53cfbb, add(add(mulmod(scratch0, M00, F), mulmod(scratch1, M10, F)), mulmod(scratch2, M20, F))) */\n      swap1\n      pop\n        /* \"poseidon-solidity/PoseidonT3.sol\":30211:30212  F */\n      dup10\n        /* \"poseidon-solidity/PoseidonT3.sol\":30206:30209  M21 */\n      dup9\n        /* \"poseidon-solidity/PoseidonT3.sol\":30196:30204  scratch2 */\n      dup4\n        /* \"poseidon-solidity/PoseidonT3.sol\":30189:30213  mulmod(scratch2, M21, F) */\n      mulmod\n        /* \"poseidon-solidity/PoseidonT3.sol\":30184:30185  F */\n      dup11\n        /* \"poseidon-solidity/PoseidonT3.sol\":30179:30182  M11 */\n      0x2e2419f9ec02ec394c9871c832963dc1b89d743c8c7b964029b2311687b1fe23\n        /* \"poseidon-solidity/PoseidonT3.sol\":30169:30177  scratch1 */\n      dup6\n        /* \"poseidon-solidity/PoseidonT3.sol\":30162:30186  mulmod(scratch1, M11, F) */\n      mulmod\n        /* \"poseidon-solidity/PoseidonT3.sol\":30158:30159  F */\n      dup12\n        /* \"poseidon-solidity/PoseidonT3.sol\":30153:30156  M01 */\n      0x2969f27eed31a480b9c36c764379dbca2cc8fdd1415c3dded62940bcde0bd771\n        /* \"poseidon-solidity/PoseidonT3.sol\":30143:30151  scratch0 */\n      dup8\n        /* \"poseidon-solidity/PoseidonT3.sol\":30136:30160  mulmod(scratch0, M01, F) */\n      mulmod\n        /* \"poseidon-solidity/PoseidonT3.sol\":30132:30187  add(mulmod(scratch0, M01, F), mulmod(scratch1, M11, F)) */\n      add\n        /* \"poseidon-solidity/PoseidonT3.sol\":30128:30214  add(add(mulmod(scratch0, M01, F), mulmod(scratch1, M11, F)), mulmod(scratch2, M21, F)) */\n      add\n        /* \"poseidon-solidity/PoseidonT3.sol\":30060:30126  0x01ca8be73832b8d0681487d27d157802d741a6f36cdc2a0576881f9326478875 */\n      0x01ca8be73832b8d0681487d27d157802d741a6f36cdc2a0576881f9326478875\n        /* \"poseidon-solidity/PoseidonT3.sol\":30056:30215  add(0x01ca8be73832b8d0681487d27d157802d741a6f36cdc2a0576881f9326478875, add(add(mulmod(scratch0, M01, F), mulmod(scratch1, M11, F)), mulmod(scratch2, M21, F))) */\n      add\n        /* \"poseidon-solidity/PoseidonT3.sol\":30046:30215  state1 := add(0x01ca8be73832b8d0681487d27d157802d741a6f36cdc2a0576881f9326478875, add(add(mulmod(scratch0, M01, F), mulmod(scratch1, M11, F)), mulmod(scratch2, M21, F))) */\n      swap6\n      pop\n        /* \"poseidon-solidity/PoseidonT3.sol\":30387:30388  F */\n      dup10\n        /* \"poseidon-solidity/PoseidonT3.sol\":30382:30385  M22 */\n      dup8\n        /* \"poseidon-solidity/PoseidonT3.sol\":30372:30380  scratch2 */\n      dup4\n        /* \"poseidon-solidity/PoseidonT3.sol\":30365:30389  mulmod(scratch2, M22, F) */\n      mulmod\n        /* \"poseidon-solidity/PoseidonT3.sol\":30360:30361  F */\n      dup11\n        /* \"poseidon-solidity/PoseidonT3.sol\":30355:30358  M12 */\n      0x176cc029695ad02582a70eff08a6fd99d057e12e58e7d7b6b16cdfabc8ee2911\n        /* \"poseidon-solidity/PoseidonT3.sol\":30345:30353  scratch1 */\n      dup6\n        /* \"poseidon-solidity/PoseidonT3.sol\":30338:30362  mulmod(scratch1, M12, F) */\n      mulmod\n        /* \"poseidon-solidity/PoseidonT3.sol\":30334:30335  F */\n      dup12\n        /* \"poseidon-solidity/PoseidonT3.sol\":30329:30332  M02 */\n      0x143021ec686a3f330d5f9e654638065ce6cd79e28c5b3753326244ee65a1b1a7\n        /* \"poseidon-solidity/PoseidonT3.sol\":30319:30327  scratch0 */\n      dup8\n        /* \"poseidon-solidity/PoseidonT3.sol\":30312:30336  mulmod(scratch0, M02, F) */\n      mulmod\n        /* \"poseidon-solidity/PoseidonT3.sol\":30308:30363  add(mulmod(scratch0, M02, F), mulmod(scratch1, M12, F)) */\n      add\n        /* \"poseidon-solidity/PoseidonT3.sol\":30304:30390  add(add(mulmod(scratch0, M02, F), mulmod(scratch1, M12, F)), mulmod(scratch2, M22, F)) */\n      add\n        /* \"poseidon-solidity/PoseidonT3.sol\":30236:30302  0x1f7735706ffe9fc586f976d5bdf223dc680286080b10cea00b9b5de315f9650e */\n      0x1f7735706ffe9fc586f976d5bdf223dc680286080b10cea00b9b5de315f9650e\n        /* \"poseidon-solidity/PoseidonT3.sol\":30232:30391  add(0x1f7735706ffe9fc586f976d5bdf223dc680286080b10cea00b9b5de315f9650e, add(add(mulmod(scratch0, M02, F), mulmod(scratch1, M12, F)), mulmod(scratch2, M22, F))) */\n      add\n        /* \"poseidon-solidity/PoseidonT3.sol\":30222:30391  state2 := add(0x1f7735706ffe9fc586f976d5bdf223dc680286080b10cea00b9b5de315f9650e, add(add(mulmod(scratch0, M02, F), mulmod(scratch1, M12, F)), mulmod(scratch2, M22, F))) */\n      swap5\n      pop\n        /* \"poseidon-solidity/PoseidonT3.sol\":30433:30434  F */\n      dup10\n        /* \"poseidon-solidity/PoseidonT3.sol\":30425:30431  state0 */\n      dup2\n        /* \"poseidon-solidity/PoseidonT3.sol\":30417:30423  state0 */\n      dup3\n        /* \"poseidon-solidity/PoseidonT3.sol\":30410:30435  mulmod(state0, state0, F) */\n      mulmod\n        /* \"poseidon-solidity/PoseidonT3.sol\":30398:30435  scratch0 := mulmod(state0, state0, F) */\n      swap4\n      pop\n        /* \"poseidon-solidity/PoseidonT3.sol\":30498:30499  F */\n      dup10\n        /* \"poseidon-solidity/PoseidonT3.sol\":30490:30496  state0 */\n      dup2\n        /* \"poseidon-solidity/PoseidonT3.sol\":30486:30487  F */\n      dup12\n        /* \"poseidon-solidity/PoseidonT3.sol\":30476:30484  scratch0 */\n      dup7\n        /* \"poseidon-solidity/PoseidonT3.sol\":30466:30474  scratch0 */\n      dup8\n        /* \"poseidon-solidity/PoseidonT3.sol\":30459:30488  mulmod(scratch0, scratch0, F) */\n      mulmod\n        /* \"poseidon-solidity/PoseidonT3.sol\":30452:30500  mulmod(mulmod(scratch0, scratch0, F), state0, F) */\n      mulmod\n        /* \"poseidon-solidity/PoseidonT3.sol\":30442:30500  state0 := mulmod(mulmod(scratch0, scratch0, F), state0, F) */\n      swap1\n      pop\n        /* \"poseidon-solidity/PoseidonT3.sol\":30668:30669  F */\n      dup10\n        /* \"poseidon-solidity/PoseidonT3.sol\":30663:30666  M20 */\n      dup10\n        /* \"poseidon-solidity/PoseidonT3.sol\":30655:30661  state2 */\n      dup7\n        /* \"poseidon-solidity/PoseidonT3.sol\":30648:30670  mulmod(state2, M20, F) */\n      mulmod\n        /* \"poseidon-solidity/PoseidonT3.sol\":30643:30644  F */\n      dup11\n        /* \"poseidon-solidity/PoseidonT3.sol\":30638:30641  M10 */\n      0x16ed41e13bb9c0c66ae119424fddbcbc9314dc9fdbdeea55d6c64543dc4903e0\n        /* \"poseidon-solidity/PoseidonT3.sol\":30630:30636  state1 */\n      dup9\n        /* \"poseidon-solidity/PoseidonT3.sol\":30623:30645  mulmod(state1, M10, F) */\n      mulmod\n        /* \"poseidon-solidity/PoseidonT3.sol\":30619:30620  F */\n      dup12\n        /* \"poseidon-solidity/PoseidonT3.sol\":30614:30617  M00 */\n      0x109b7f411ba0e4c9b2b70caf5c36a7b194be7c11ad24378bfedb68592ba8118b\n        /* \"poseidon-solidity/PoseidonT3.sol\":30606:30612  state0 */\n      dup5\n        /* \"poseidon-solidity/PoseidonT3.sol\":30599:30621  mulmod(state0, M00, F) */\n      mulmod\n        /* \"poseidon-solidity/PoseidonT3.sol\":30595:30646  add(mulmod(state0, M00, F), mulmod(state1, M10, F)) */\n      add\n        /* \"poseidon-solidity/PoseidonT3.sol\":30591:30671  add(add(mulmod(state0, M00, F), mulmod(state1, M10, F)), mulmod(state2, M20, F)) */\n      add\n        /* \"poseidon-solidity/PoseidonT3.sol\":30523:30589  0x2522b60f4ea3307640a0c2dce041fba921ac10a3d5f096ef4745ca838285f019 */\n      0x2522b60f4ea3307640a0c2dce041fba921ac10a3d5f096ef4745ca838285f019\n        /* \"poseidon-solidity/PoseidonT3.sol\":30519:30672  add(0x2522b60f4ea3307640a0c2dce041fba921ac10a3d5f096ef4745ca838285f019, add(add(mulmod(state0, M00, F), mulmod(state1, M10, F)), mulmod(state2, M20, F))) */\n      add\n        /* \"poseidon-solidity/PoseidonT3.sol\":30507:30672  scratch0 := add(0x2522b60f4ea3307640a0c2dce041fba921ac10a3d5f096ef4745ca838285f019, add(add(mulmod(state0, M00, F), mulmod(state1, M10, F)), mulmod(state2, M20, F))) */\n      swap4\n      pop\n        /* \"poseidon-solidity/PoseidonT3.sol\":30840:30841  F */\n      dup10\n        /* \"poseidon-solidity/PoseidonT3.sol\":30835:30838  M21 */\n      dup9\n        /* \"poseidon-solidity/PoseidonT3.sol\":30827:30833  state2 */\n      dup7\n        /* \"poseidon-solidity/PoseidonT3.sol\":30820:30842  mulmod(state2, M21, F) */\n      mulmod\n        /* \"poseidon-solidity/PoseidonT3.sol\":30815:30816  F */\n      dup11\n        /* \"poseidon-solidity/PoseidonT3.sol\":30810:30813  M11 */\n      0x2e2419f9ec02ec394c9871c832963dc1b89d743c8c7b964029b2311687b1fe23\n        /* \"poseidon-solidity/PoseidonT3.sol\":30802:30808  state1 */\n      dup9\n        /* \"poseidon-solidity/PoseidonT3.sol\":30795:30817  mulmod(state1, M11, F) */\n      mulmod\n        /* \"poseidon-solidity/PoseidonT3.sol\":30791:30792  F */\n      dup12\n        /* \"poseidon-solidity/PoseidonT3.sol\":30786:30789  M01 */\n      0x2969f27eed31a480b9c36c764379dbca2cc8fdd1415c3dded62940bcde0bd771\n        /* \"poseidon-solidity/PoseidonT3.sol\":30778:30784  state0 */\n      dup5\n        /* \"poseidon-solidity/PoseidonT3.sol\":30771:30793  mulmod(state0, M01, F) */\n      mulmod\n        /* \"poseidon-solidity/PoseidonT3.sol\":30767:30818  add(mulmod(state0, M01, F), mulmod(state1, M11, F)) */\n      add\n        /* \"poseidon-solidity/PoseidonT3.sol\":30763:30843  add(add(mulmod(state0, M01, F), mulmod(state1, M11, F)), mulmod(state2, M21, F)) */\n      add\n        /* \"poseidon-solidity/PoseidonT3.sol\":30695:30761  0x23f0bee001b1029d5255075ddc957f833418cad4f52b6c3f8ce16c235572575b */\n      0x23f0bee001b1029d5255075ddc957f833418cad4f52b6c3f8ce16c235572575b\n        /* \"poseidon-solidity/PoseidonT3.sol\":30691:30844  add(0x23f0bee001b1029d5255075ddc957f833418cad4f52b6c3f8ce16c235572575b, add(add(mulmod(state0, M01, F), mulmod(state1, M11, F)), mulmod(state2, M21, F))) */\n      add\n        /* \"poseidon-solidity/PoseidonT3.sol\":30679:30844  scratch1 := add(0x23f0bee001b1029d5255075ddc957f833418cad4f52b6c3f8ce16c235572575b, add(add(mulmod(state0, M01, F), mulmod(state1, M11, F)), mulmod(state2, M21, F))) */\n      swap3\n      pop\n        /* \"poseidon-solidity/PoseidonT3.sol\":31012:31013  F */\n      dup10\n        /* \"poseidon-solidity/PoseidonT3.sol\":31007:31010  M22 */\n      dup8\n        /* \"poseidon-solidity/PoseidonT3.sol\":30999:31005  state2 */\n      dup7\n        /* \"poseidon-solidity/PoseidonT3.sol\":30992:31014  mulmod(state2, M22, F) */\n      mulmod\n        /* \"poseidon-solidity/PoseidonT3.sol\":30987:30988  F */\n      dup11\n        /* \"poseidon-solidity/PoseidonT3.sol\":30982:30985  M12 */\n      0x176cc029695ad02582a70eff08a6fd99d057e12e58e7d7b6b16cdfabc8ee2911\n        /* \"poseidon-solidity/PoseidonT3.sol\":30974:30980  state1 */\n      dup9\n        /* \"poseidon-solidity/PoseidonT3.sol\":30967:30989  mulmod(state1, M12, F) */\n      mulmod\n        /* \"poseidon-solidity/PoseidonT3.sol\":30963:30964  F */\n      dup12\n        /* \"poseidon-solidity/PoseidonT3.sol\":30958:30961  M02 */\n      0x143021ec686a3f330d5f9e654638065ce6cd79e28c5b3753326244ee65a1b1a7\n        /* \"poseidon-solidity/PoseidonT3.sol\":30950:30956  state0 */\n      dup5\n        /* \"poseidon-solidity/PoseidonT3.sol\":30943:30965  mulmod(state0, M02, F) */\n      mulmod\n        /* \"poseidon-solidity/PoseidonT3.sol\":30939:30990  add(mulmod(state0, M02, F), mulmod(state1, M12, F)) */\n      add\n        /* \"poseidon-solidity/PoseidonT3.sol\":30935:31015  add(add(mulmod(state0, M02, F), mulmod(state1, M12, F)), mulmod(state2, M22, F)) */\n      add\n        /* \"poseidon-solidity/PoseidonT3.sol\":30867:30933  0x2bc1ae8b8ddbb81fcaac2d44555ed5685d142633e9df905f66d9401093082d59 */\n      0x2bc1ae8b8ddbb81fcaac2d44555ed5685d142633e9df905f66d9401093082d59\n        /* \"poseidon-solidity/PoseidonT3.sol\":30863:31016  add(0x2bc1ae8b8ddbb81fcaac2d44555ed5685d142633e9df905f66d9401093082d59, add(add(mulmod(state0, M02, F), mulmod(state1, M12, F)), mulmod(state2, M22, F))) */\n      add\n        /* \"poseidon-solidity/PoseidonT3.sol\":30851:31016  scratch2 := add(0x2bc1ae8b8ddbb81fcaac2d44555ed5685d142633e9df905f66d9401093082d59, add(add(mulmod(state0, M02, F), mulmod(state1, M12, F)), mulmod(state2, M22, F))) */\n      swap2\n      pop\n        /* \"poseidon-solidity/PoseidonT3.sol\":31060:31061  F */\n      dup10\n        /* \"poseidon-solidity/PoseidonT3.sol\":31050:31058  scratch0 */\n      dup5\n        /* \"poseidon-solidity/PoseidonT3.sol\":31040:31048  scratch0 */\n      dup6\n        /* \"poseidon-solidity/PoseidonT3.sol\":31033:31062  mulmod(scratch0, scratch0, F) */\n      mulmod\n        /* \"poseidon-solidity/PoseidonT3.sol\":31023:31062  state0 := mulmod(scratch0, scratch0, F) */\n      swap1\n      pop\n        /* \"poseidon-solidity/PoseidonT3.sol\":31125:31126  F */\n      dup10\n        /* \"poseidon-solidity/PoseidonT3.sol\":31115:31123  scratch0 */\n      dup5\n        /* \"poseidon-solidity/PoseidonT3.sol\":31111:31112  F */\n      dup12\n        /* \"poseidon-solidity/PoseidonT3.sol\":31103:31109  state0 */\n      dup4\n        /* \"poseidon-solidity/PoseidonT3.sol\":31095:31101  state0 */\n      dup5\n        /* \"poseidon-solidity/PoseidonT3.sol\":31088:31113  mulmod(state0, state0, F) */\n      mulmod\n        /* \"poseidon-solidity/PoseidonT3.sol\":31081:31127  mulmod(mulmod(state0, state0, F), scratch0, F) */\n      mulmod\n        /* \"poseidon-solidity/PoseidonT3.sol\":31069:31127  scratch0 := mulmod(mulmod(state0, state0, F), scratch0, F) */\n      swap4\n      pop\n        /* \"poseidon-solidity/PoseidonT3.sol\":31299:31300  F */\n      dup10\n        /* \"poseidon-solidity/PoseidonT3.sol\":31294:31297  M20 */\n      dup10\n        /* \"poseidon-solidity/PoseidonT3.sol\":31284:31292  scratch2 */\n      dup4\n        /* \"poseidon-solidity/PoseidonT3.sol\":31277:31301  mulmod(scratch2, M20, F) */\n      mulmod\n        /* \"poseidon-solidity/PoseidonT3.sol\":31272:31273  F */\n      dup11\n        /* \"poseidon-solidity/PoseidonT3.sol\":31267:31270  M10 */\n      0x16ed41e13bb9c0c66ae119424fddbcbc9314dc9fdbdeea55d6c64543dc4903e0\n        /* \"poseidon-solidity/PoseidonT3.sol\":31257:31265  scratch1 */\n      dup6\n        /* \"poseidon-solidity/PoseidonT3.sol\":31250:31274  mulmod(scratch1, M10, F) */\n      mulmod\n        /* \"poseidon-solidity/PoseidonT3.sol\":31246:31247  F */\n      dup12\n        /* \"poseidon-solidity/PoseidonT3.sol\":31241:31244  M00 */\n      0x109b7f411ba0e4c9b2b70caf5c36a7b194be7c11ad24378bfedb68592ba8118b\n        /* \"poseidon-solidity/PoseidonT3.sol\":31231:31239  scratch0 */\n      dup8\n        /* \"poseidon-solidity/PoseidonT3.sol\":31224:31248  mulmod(scratch0, M00, F) */\n      mulmod\n        /* \"poseidon-solidity/PoseidonT3.sol\":31220:31275  add(mulmod(scratch0, M00, F), mulmod(scratch1, M10, F)) */\n      add\n        /* \"poseidon-solidity/PoseidonT3.sol\":31216:31302  add(add(mulmod(scratch0, M00, F), mulmod(scratch1, M10, F)), mulmod(scratch2, M20, F)) */\n      add\n        /* \"poseidon-solidity/PoseidonT3.sol\":31148:31214  0x0f9406b8296564a37304507b8dba3ed162371273a07b1fc98011fcd6ad72205f */\n      0x0f9406b8296564a37304507b8dba3ed162371273a07b1fc98011fcd6ad72205f\n        /* \"poseidon-solidity/PoseidonT3.sol\":31144:31303  add(0x0f9406b8296564a37304507b8dba3ed162371273a07b1fc98011fcd6ad72205f, add(add(mulmod(scratch0, M00, F), mulmod(scratch1, M10, F)), mulmod(scratch2, M20, F))) */\n      add\n        /* \"poseidon-solidity/PoseidonT3.sol\":31134:31303  state0 := add(0x0f9406b8296564a37304507b8dba3ed162371273a07b1fc98011fcd6ad72205f, add(add(mulmod(scratch0, M00, F), mulmod(scratch1, M10, F)), mulmod(scratch2, M20, F))) */\n      swap1\n      pop\n        /* \"poseidon-solidity/PoseidonT3.sol\":31475:31476  F */\n      dup10\n        /* \"poseidon-solidity/PoseidonT3.sol\":31470:31473  M21 */\n      dup9\n        /* \"poseidon-solidity/PoseidonT3.sol\":31460:31468  scratch2 */\n      dup4\n        /* \"poseidon-solidity/PoseidonT3.sol\":31453:31477  mulmod(scratch2, M21, F) */\n      mulmod\n        /* \"poseidon-solidity/PoseidonT3.sol\":31448:31449  F */\n      dup11\n        /* \"poseidon-solidity/PoseidonT3.sol\":31443:31446  M11 */\n      0x2e2419f9ec02ec394c9871c832963dc1b89d743c8c7b964029b2311687b1fe23\n        /* \"poseidon-solidity/PoseidonT3.sol\":31433:31441  scratch1 */\n      dup6\n        /* \"poseidon-solidity/PoseidonT3.sol\":31426:31450  mulmod(scratch1, M11, F) */\n      mulmod\n        /* \"poseidon-solidity/PoseidonT3.sol\":31422:31423  F */\n      dup12\n        /* \"poseidon-solidity/PoseidonT3.sol\":31417:31420  M01 */\n      0x2969f27eed31a480b9c36c764379dbca2cc8fdd1415c3dded62940bcde0bd771\n        /* \"poseidon-solidity/PoseidonT3.sol\":31407:31415  scratch0 */\n      dup8\n        /* \"poseidon-solidity/PoseidonT3.sol\":31400:31424  mulmod(scratch0, M01, F) */\n      mulmod\n        /* \"poseidon-solidity/PoseidonT3.sol\":31396:31451  add(mulmod(scratch0, M01, F), mulmod(scratch1, M11, F)) */\n      add\n        /* \"poseidon-solidity/PoseidonT3.sol\":31392:31478  add(add(mulmod(scratch0, M01, F), mulmod(scratch1, M11, F)), mulmod(scratch2, M21, F)) */\n      add\n        /* \"poseidon-solidity/PoseidonT3.sol\":31324:31390  0x2360a8eb0cc7defa67b72998de90714e17e75b174a52ee4acb126c8cd995f0a8 */\n      0x2360a8eb0cc7defa67b72998de90714e17e75b174a52ee4acb126c8cd995f0a8\n        /* \"poseidon-solidity/PoseidonT3.sol\":31320:31479  add(0x2360a8eb0cc7defa67b72998de90714e17e75b174a52ee4acb126c8cd995f0a8, add(add(mulmod(scratch0, M01, F), mulmod(scratch1, M11, F)), mulmod(scratch2, M21, F))) */\n      add\n        /* \"poseidon-solidity/PoseidonT3.sol\":31310:31479  state1 := add(0x2360a8eb0cc7defa67b72998de90714e17e75b174a52ee4acb126c8cd995f0a8, add(add(mulmod(scratch0, M01, F), mulmod(scratch1, M11, F)), mulmod(scratch2, M21, F))) */\n      swap6\n      pop\n        /* \"poseidon-solidity/PoseidonT3.sol\":31651:31652  F */\n      dup10\n        /* \"poseidon-solidity/PoseidonT3.sol\":31646:31649  M22 */\n      dup8\n        /* \"poseidon-solidity/PoseidonT3.sol\":31636:31644  scratch2 */\n      dup4\n        /* \"poseidon-solidity/PoseidonT3.sol\":31629:31653  mulmod(scratch2, M22, F) */\n      mulmod\n        /* \"poseidon-solidity/PoseidonT3.sol\":31624:31625  F */\n      dup11\n        /* \"poseidon-solidity/PoseidonT3.sol\":31619:31622  M12 */\n      0x176cc029695ad02582a70eff08a6fd99d057e12e58e7d7b6b16cdfabc8ee2911\n        /* \"poseidon-solidity/PoseidonT3.sol\":31609:31617  scratch1 */\n      dup6\n        /* \"poseidon-solidity/PoseidonT3.sol\":31602:31626  mulmod(scratch1, M12, F) */\n      mulmod\n        /* \"poseidon-solidity/PoseidonT3.sol\":31598:31599  F */\n      dup12\n        /* \"poseidon-solidity/PoseidonT3.sol\":31593:31596  M02 */\n      0x143021ec686a3f330d5f9e654638065ce6cd79e28c5b3753326244ee65a1b1a7\n        /* \"poseidon-solidity/PoseidonT3.sol\":31583:31591  scratch0 */\n      dup8\n        /* \"poseidon-solidity/PoseidonT3.sol\":31576:31600  mulmod(scratch0, M02, F) */\n      mulmod\n        /* \"poseidon-solidity/PoseidonT3.sol\":31572:31627  add(mulmod(scratch0, M02, F), mulmod(scratch1, M12, F)) */\n      add\n        /* \"poseidon-solidity/PoseidonT3.sol\":31568:31654  add(add(mulmod(scratch0, M02, F), mulmod(scratch1, M12, F)), mulmod(scratch2, M22, F)) */\n      add\n        /* \"poseidon-solidity/PoseidonT3.sol\":31500:31566  0x15871a5cddead976804c803cbaef255eb4815a5e96df8b006dcbbc2767f88948 */\n      0x15871a5cddead976804c803cbaef255eb4815a5e96df8b006dcbbc2767f88948\n        /* \"poseidon-solidity/PoseidonT3.sol\":31496:31655  add(0x15871a5cddead976804c803cbaef255eb4815a5e96df8b006dcbbc2767f88948, add(add(mulmod(scratch0, M02, F), mulmod(scratch1, M12, F)), mulmod(scratch2, M22, F))) */\n      add\n        /* \"poseidon-solidity/PoseidonT3.sol\":31486:31655  state2 := add(0x15871a5cddead976804c803cbaef255eb4815a5e96df8b006dcbbc2767f88948, add(add(mulmod(scratch0, M02, F), mulmod(scratch1, M12, F)), mulmod(scratch2, M22, F))) */\n      swap5\n      pop\n        /* \"poseidon-solidity/PoseidonT3.sol\":31697:31698  F */\n      dup10\n        /* \"poseidon-solidity/PoseidonT3.sol\":31689:31695  state0 */\n      dup2\n        /* \"poseidon-solidity/PoseidonT3.sol\":31681:31687  state0 */\n      dup3\n        /* \"poseidon-solidity/PoseidonT3.sol\":31674:31699  mulmod(state0, state0, F) */\n      mulmod\n        /* \"poseidon-solidity/PoseidonT3.sol\":31662:31699  scratch0 := mulmod(state0, state0, F) */\n      swap4\n      pop\n        /* \"poseidon-solidity/PoseidonT3.sol\":31762:31763  F */\n      dup10\n        /* \"poseidon-solidity/PoseidonT3.sol\":31754:31760  state0 */\n      dup2\n        /* \"poseidon-solidity/PoseidonT3.sol\":31750:31751  F */\n      dup12\n        /* \"poseidon-solidity/PoseidonT3.sol\":31740:31748  scratch0 */\n      dup7\n        /* \"poseidon-solidity/PoseidonT3.sol\":31730:31738  scratch0 */\n      dup8\n        /* \"poseidon-solidity/PoseidonT3.sol\":31723:31752  mulmod(scratch0, scratch0, F) */\n      mulmod\n        /* \"poseidon-solidity/PoseidonT3.sol\":31716:31764  mulmod(mulmod(scratch0, scratch0, F), state0, F) */\n      mulmod\n        /* \"poseidon-solidity/PoseidonT3.sol\":31706:31764  state0 := mulmod(mulmod(scratch0, scratch0, F), state0, F) */\n      swap1\n      pop\n        /* \"poseidon-solidity/PoseidonT3.sol\":31932:31933  F */\n      dup10\n        /* \"poseidon-solidity/PoseidonT3.sol\":31927:31930  M20 */\n      dup10\n        /* \"poseidon-solidity/PoseidonT3.sol\":31919:31925  state2 */\n      dup7\n        /* \"poseidon-solidity/PoseidonT3.sol\":31912:31934  mulmod(state2, M20, F) */\n      mulmod\n        /* \"poseidon-solidity/PoseidonT3.sol\":31907:31908  F */\n      dup11\n        /* \"poseidon-solidity/PoseidonT3.sol\":31902:31905  M10 */\n      0x16ed41e13bb9c0c66ae119424fddbcbc9314dc9fdbdeea55d6c64543dc4903e0\n        /* \"poseidon-solidity/PoseidonT3.sol\":31894:31900  state1 */\n      dup9\n        /* \"poseidon-solidity/PoseidonT3.sol\":31887:31909  mulmod(state1, M10, F) */\n      mulmod\n        /* \"poseidon-solidity/PoseidonT3.sol\":31883:31884  F */\n      dup12\n        /* \"poseidon-solidity/PoseidonT3.sol\":31878:31881  M00 */\n      0x109b7f411ba0e4c9b2b70caf5c36a7b194be7c11ad24378bfedb68592ba8118b\n        /* \"poseidon-solidity/PoseidonT3.sol\":31870:31876  state0 */\n      dup5\n        /* \"poseidon-solidity/PoseidonT3.sol\":31863:31885  mulmod(state0, M00, F) */\n      mulmod\n        /* \"poseidon-solidity/PoseidonT3.sol\":31859:31910  add(mulmod(state0, M00, F), mulmod(state1, M10, F)) */\n      add\n        /* \"poseidon-solidity/PoseidonT3.sol\":31855:31935  add(add(mulmod(state0, M00, F), mulmod(state1, M10, F)), mulmod(state2, M20, F)) */\n      add\n        /* \"poseidon-solidity/PoseidonT3.sol\":31787:31853  0x193a56766998ee9e0a8652dd2f3b1da0362f4f54f72379544f957ccdeefb420f */\n      0x193a56766998ee9e0a8652dd2f3b1da0362f4f54f72379544f957ccdeefb420f\n        /* \"poseidon-solidity/PoseidonT3.sol\":31783:31936  add(0x193a56766998ee9e0a8652dd2f3b1da0362f4f54f72379544f957ccdeefb420f, add(add(mulmod(state0, M00, F), mulmod(state1, M10, F)), mulmod(state2, M20, F))) */\n      add\n        /* \"poseidon-solidity/PoseidonT3.sol\":31771:31936  scratch0 := add(0x193a56766998ee9e0a8652dd2f3b1da0362f4f54f72379544f957ccdeefb420f, add(add(mulmod(state0, M00, F), mulmod(state1, M10, F)), mulmod(state2, M20, F))) */\n      swap4\n      pop\n        /* \"poseidon-solidity/PoseidonT3.sol\":32104:32105  F */\n      dup10\n        /* \"poseidon-solidity/PoseidonT3.sol\":32099:32102  M21 */\n      dup9\n        /* \"poseidon-solidity/PoseidonT3.sol\":32091:32097  state2 */\n      dup7\n        /* \"poseidon-solidity/PoseidonT3.sol\":32084:32106  mulmod(state2, M21, F) */\n      mulmod\n        /* \"poseidon-solidity/PoseidonT3.sol\":32079:32080  F */\n      dup11\n        /* \"poseidon-solidity/PoseidonT3.sol\":32074:32077  M11 */\n      0x2e2419f9ec02ec394c9871c832963dc1b89d743c8c7b964029b2311687b1fe23\n        /* \"poseidon-solidity/PoseidonT3.sol\":32066:32072  state1 */\n      dup9\n        /* \"poseidon-solidity/PoseidonT3.sol\":32059:32081  mulmod(state1, M11, F) */\n      mulmod\n        /* \"poseidon-solidity/PoseidonT3.sol\":32055:32056  F */\n      dup12\n        /* \"poseidon-solidity/PoseidonT3.sol\":32050:32053  M01 */\n      0x2969f27eed31a480b9c36c764379dbca2cc8fdd1415c3dded62940bcde0bd771\n        /* \"poseidon-solidity/PoseidonT3.sol\":32042:32048  state0 */\n      dup5\n        /* \"poseidon-solidity/PoseidonT3.sol\":32035:32057  mulmod(state0, M01, F) */\n      mulmod\n        /* \"poseidon-solidity/PoseidonT3.sol\":32031:32082  add(mulmod(state0, M01, F), mulmod(state1, M11, F)) */\n      add\n        /* \"poseidon-solidity/PoseidonT3.sol\":32027:32107  add(add(mulmod(state0, M01, F), mulmod(state1, M11, F)), mulmod(state2, M21, F)) */\n      add\n        /* \"poseidon-solidity/PoseidonT3.sol\":31959:32025  0x2a394a43934f86982f9be56ff4fab1703b2e63c8ad334834e4309805e777ae0f */\n      0x2a394a43934f86982f9be56ff4fab1703b2e63c8ad334834e4309805e777ae0f\n        /* \"poseidon-solidity/PoseidonT3.sol\":31955:32108  add(0x2a394a43934f86982f9be56ff4fab1703b2e63c8ad334834e4309805e777ae0f, add(add(mulmod(state0, M01, F), mulmod(state1, M11, F)), mulmod(state2, M21, F))) */\n      add\n        /* \"poseidon-solidity/PoseidonT3.sol\":31943:32108  scratch1 := add(0x2a394a43934f86982f9be56ff4fab1703b2e63c8ad334834e4309805e777ae0f, add(add(mulmod(state0, M01, F), mulmod(state1, M11, F)), mulmod(state2, M21, F))) */\n      swap3\n      pop\n        /* \"poseidon-solidity/PoseidonT3.sol\":32276:32277  F */\n      dup10\n        /* \"poseidon-solidity/PoseidonT3.sol\":32271:32274  M22 */\n      dup8\n        /* \"poseidon-solidity/PoseidonT3.sol\":32263:32269  state2 */\n      dup7\n        /* \"poseidon-solidity/PoseidonT3.sol\":32256:32278  mulmod(state2, M22, F) */\n      mulmod\n        /* \"poseidon-solidity/PoseidonT3.sol\":32251:32252  F */\n      dup11\n        /* \"poseidon-solidity/PoseidonT3.sol\":32246:32249  M12 */\n      0x176cc029695ad02582a70eff08a6fd99d057e12e58e7d7b6b16cdfabc8ee2911\n        /* \"poseidon-solidity/PoseidonT3.sol\":32238:32244  state1 */\n      dup9\n        /* \"poseidon-solidity/PoseidonT3.sol\":32231:32253  mulmod(state1, M12, F) */\n      mulmod\n        /* \"poseidon-solidity/PoseidonT3.sol\":32227:32228  F */\n      dup12\n        /* \"poseidon-solidity/PoseidonT3.sol\":32222:32225  M02 */\n      0x143021ec686a3f330d5f9e654638065ce6cd79e28c5b3753326244ee65a1b1a7\n        /* \"poseidon-solidity/PoseidonT3.sol\":32214:32220  state0 */\n      dup5\n        /* \"poseidon-solidity/PoseidonT3.sol\":32207:32229  mulmod(state0, M02, F) */\n      mulmod\n        /* \"poseidon-solidity/PoseidonT3.sol\":32203:32254  add(mulmod(state0, M02, F), mulmod(state1, M12, F)) */\n      add\n        /* \"poseidon-solidity/PoseidonT3.sol\":32199:32279  add(add(mulmod(state0, M02, F), mulmod(state1, M12, F)), mulmod(state2, M22, F)) */\n      add\n        /* \"poseidon-solidity/PoseidonT3.sol\":32131:32197  0x1859954cfeb8695f3e8b635dcb345192892cd11223443ba7b4166e8876c0d142 */\n      0x1859954cfeb8695f3e8b635dcb345192892cd11223443ba7b4166e8876c0d142\n        /* \"poseidon-solidity/PoseidonT3.sol\":32127:32280  add(0x1859954cfeb8695f3e8b635dcb345192892cd11223443ba7b4166e8876c0d142, add(add(mulmod(state0, M02, F), mulmod(state1, M12, F)), mulmod(state2, M22, F))) */\n      add\n        /* \"poseidon-solidity/PoseidonT3.sol\":32115:32280  scratch2 := add(0x1859954cfeb8695f3e8b635dcb345192892cd11223443ba7b4166e8876c0d142, add(add(mulmod(state0, M02, F), mulmod(state1, M12, F)), mulmod(state2, M22, F))) */\n      swap2\n      pop\n        /* \"poseidon-solidity/PoseidonT3.sol\":32324:32325  F */\n      dup10\n        /* \"poseidon-solidity/PoseidonT3.sol\":32314:32322  scratch0 */\n      dup5\n        /* \"poseidon-solidity/PoseidonT3.sol\":32304:32312  scratch0 */\n      dup6\n        /* \"poseidon-solidity/PoseidonT3.sol\":32297:32326  mulmod(scratch0, scratch0, F) */\n      mulmod\n        /* \"poseidon-solidity/PoseidonT3.sol\":32287:32326  state0 := mulmod(scratch0, scratch0, F) */\n      swap1\n      pop\n        /* \"poseidon-solidity/PoseidonT3.sol\":32389:32390  F */\n      dup10\n        /* \"poseidon-solidity/PoseidonT3.sol\":32379:32387  scratch0 */\n      dup5\n        /* \"poseidon-solidity/PoseidonT3.sol\":32375:32376  F */\n      dup12\n        /* \"poseidon-solidity/PoseidonT3.sol\":32367:32373  state0 */\n      dup4\n        /* \"poseidon-solidity/PoseidonT3.sol\":32359:32365  state0 */\n      dup5\n        /* \"poseidon-solidity/PoseidonT3.sol\":32352:32377  mulmod(state0, state0, F) */\n      mulmod\n        /* \"poseidon-solidity/PoseidonT3.sol\":32345:32391  mulmod(mulmod(state0, state0, F), scratch0, F) */\n      mulmod\n        /* \"poseidon-solidity/PoseidonT3.sol\":32333:32391  scratch0 := mulmod(mulmod(state0, state0, F), scratch0, F) */\n      swap4\n      pop\n        /* \"poseidon-solidity/PoseidonT3.sol\":32563:32564  F */\n      dup10\n        /* \"poseidon-solidity/PoseidonT3.sol\":32558:32561  M20 */\n      dup10\n        /* \"poseidon-solidity/PoseidonT3.sol\":32548:32556  scratch2 */\n      dup4\n        /* \"poseidon-solidity/PoseidonT3.sol\":32541:32565  mulmod(scratch2, M20, F) */\n      mulmod\n        /* \"poseidon-solidity/PoseidonT3.sol\":32536:32537  F */\n      dup11\n        /* \"poseidon-solidity/PoseidonT3.sol\":32531:32534  M10 */\n      0x16ed41e13bb9c0c66ae119424fddbcbc9314dc9fdbdeea55d6c64543dc4903e0\n        /* \"poseidon-solidity/PoseidonT3.sol\":32521:32529  scratch1 */\n      dup6\n        /* \"poseidon-solidity/PoseidonT3.sol\":32514:32538  mulmod(scratch1, M10, F) */\n      mulmod\n        /* \"poseidon-solidity/PoseidonT3.sol\":32510:32511  F */\n      dup12\n        /* \"poseidon-solidity/PoseidonT3.sol\":32505:32508  M00 */\n      0x109b7f411ba0e4c9b2b70caf5c36a7b194be7c11ad24378bfedb68592ba8118b\n        /* \"poseidon-solidity/PoseidonT3.sol\":32495:32503  scratch0 */\n      dup8\n        /* \"poseidon-solidity/PoseidonT3.sol\":32488:32512  mulmod(scratch0, M00, F) */\n      mulmod\n        /* \"poseidon-solidity/PoseidonT3.sol\":32484:32539  add(mulmod(scratch0, M00, F), mulmod(scratch1, M10, F)) */\n      add\n        /* \"poseidon-solidity/PoseidonT3.sol\":32480:32566  add(add(mulmod(scratch0, M00, F), mulmod(scratch1, M10, F)), mulmod(scratch2, M20, F)) */\n      add\n        /* \"poseidon-solidity/PoseidonT3.sol\":32412:32478  0x04e1181763050e58013444dbcb99f1902b11bc25d90bbdca408d3819f4fed32b */\n      0x04e1181763050e58013444dbcb99f1902b11bc25d90bbdca408d3819f4fed32b\n        /* \"poseidon-solidity/PoseidonT3.sol\":32408:32567  add(0x04e1181763050e58013444dbcb99f1902b11bc25d90bbdca408d3819f4fed32b, add(add(mulmod(scratch0, M00, F), mulmod(scratch1, M10, F)), mulmod(scratch2, M20, F))) */\n      add\n        /* \"poseidon-solidity/PoseidonT3.sol\":32398:32567  state0 := add(0x04e1181763050e58013444dbcb99f1902b11bc25d90bbdca408d3819f4fed32b, add(add(mulmod(scratch0, M00, F), mulmod(scratch1, M10, F)), mulmod(scratch2, M20, F))) */\n      swap1\n      pop\n        /* \"poseidon-solidity/PoseidonT3.sol\":32739:32740  F */\n      dup10\n        /* \"poseidon-solidity/PoseidonT3.sol\":32734:32737  M21 */\n      dup9\n        /* \"poseidon-solidity/PoseidonT3.sol\":32724:32732  scratch2 */\n      dup4\n        /* \"poseidon-solidity/PoseidonT3.sol\":32717:32741  mulmod(scratch2, M21, F) */\n      mulmod\n        /* \"poseidon-solidity/PoseidonT3.sol\":32712:32713  F */\n      dup11\n        /* \"poseidon-solidity/PoseidonT3.sol\":32707:32710  M11 */\n      0x2e2419f9ec02ec394c9871c832963dc1b89d743c8c7b964029b2311687b1fe23\n        /* \"poseidon-solidity/PoseidonT3.sol\":32697:32705  scratch1 */\n      dup6\n        /* \"poseidon-solidity/PoseidonT3.sol\":32690:32714  mulmod(scratch1, M11, F) */\n      mulmod\n        /* \"poseidon-solidity/PoseidonT3.sol\":32686:32687  F */\n      dup12\n        /* \"poseidon-solidity/PoseidonT3.sol\":32681:32684  M01 */\n      0x2969f27eed31a480b9c36c764379dbca2cc8fdd1415c3dded62940bcde0bd771\n        /* \"poseidon-solidity/PoseidonT3.sol\":32671:32679  scratch0 */\n      dup8\n        /* \"poseidon-solidity/PoseidonT3.sol\":32664:32688  mulmod(scratch0, M01, F) */\n      mulmod\n        /* \"poseidon-solidity/PoseidonT3.sol\":32660:32715  add(mulmod(scratch0, M01, F), mulmod(scratch1, M11, F)) */\n      add\n        /* \"poseidon-solidity/PoseidonT3.sol\":32656:32742  add(add(mulmod(scratch0, M01, F), mulmod(scratch1, M11, F)), mulmod(scratch2, M21, F)) */\n      add\n        /* \"poseidon-solidity/PoseidonT3.sol\":32588:32654  0x0fdb253dee83869d40c335ea64de8c5bb10eb82db08b5e8b1f5e5552bfd05f23 */\n      0x0fdb253dee83869d40c335ea64de8c5bb10eb82db08b5e8b1f5e5552bfd05f23\n        /* \"poseidon-solidity/PoseidonT3.sol\":32584:32743  add(0x0fdb253dee83869d40c335ea64de8c5bb10eb82db08b5e8b1f5e5552bfd05f23, add(add(mulmod(scratch0, M01, F), mulmod(scratch1, M11, F)), mulmod(scratch2, M21, F))) */\n      add\n        /* \"poseidon-solidity/PoseidonT3.sol\":32574:32743  state1 := add(0x0fdb253dee83869d40c335ea64de8c5bb10eb82db08b5e8b1f5e5552bfd05f23, add(add(mulmod(scratch0, M01, F), mulmod(scratch1, M11, F)), mulmod(scratch2, M21, F))) */\n      swap6\n      pop\n        /* \"poseidon-solidity/PoseidonT3.sol\":32915:32916  F */\n      dup10\n        /* \"poseidon-solidity/PoseidonT3.sol\":32910:32913  M22 */\n      dup8\n        /* \"poseidon-solidity/PoseidonT3.sol\":32900:32908  scratch2 */\n      dup4\n        /* \"poseidon-solidity/PoseidonT3.sol\":32893:32917  mulmod(scratch2, M22, F) */\n      mulmod\n        /* \"poseidon-solidity/PoseidonT3.sol\":32888:32889  F */\n      dup11\n        /* \"poseidon-solidity/PoseidonT3.sol\":32883:32886  M12 */\n      0x176cc029695ad02582a70eff08a6fd99d057e12e58e7d7b6b16cdfabc8ee2911\n        /* \"poseidon-solidity/PoseidonT3.sol\":32873:32881  scratch1 */\n      dup6\n        /* \"poseidon-solidity/PoseidonT3.sol\":32866:32890  mulmod(scratch1, M12, F) */\n      mulmod\n        /* \"poseidon-solidity/PoseidonT3.sol\":32862:32863  F */\n      dup12\n        /* \"poseidon-solidity/PoseidonT3.sol\":32857:32860  M02 */\n      0x143021ec686a3f330d5f9e654638065ce6cd79e28c5b3753326244ee65a1b1a7\n        /* \"poseidon-solidity/PoseidonT3.sol\":32847:32855  scratch0 */\n      dup8\n        /* \"poseidon-solidity/PoseidonT3.sol\":32840:32864  mulmod(scratch0, M02, F) */\n      mulmod\n        /* \"poseidon-solidity/PoseidonT3.sol\":32836:32891  add(mulmod(scratch0, M02, F), mulmod(scratch1, M12, F)) */\n      add\n        /* \"poseidon-solidity/PoseidonT3.sol\":32832:32918  add(add(mulmod(scratch0, M02, F), mulmod(scratch1, M12, F)), mulmod(scratch2, M22, F)) */\n      add\n        /* \"poseidon-solidity/PoseidonT3.sol\":32764:32830  0x058cbe8a9a5027bdaa4efb623adead6275f08686f1c08984a9d7c5bae9b4f1c0 */\n      0x058cbe8a9a5027bdaa4efb623adead6275f08686f1c08984a9d7c5bae9b4f1c0\n        /* \"poseidon-solidity/PoseidonT3.sol\":32760:32919  add(0x058cbe8a9a5027bdaa4efb623adead6275f08686f1c08984a9d7c5bae9b4f1c0, add(add(mulmod(scratch0, M02, F), mulmod(scratch1, M12, F)), mulmod(scratch2, M22, F))) */\n      add\n        /* \"poseidon-solidity/PoseidonT3.sol\":32750:32919  state2 := add(0x058cbe8a9a5027bdaa4efb623adead6275f08686f1c08984a9d7c5bae9b4f1c0, add(add(mulmod(scratch0, M02, F), mulmod(scratch1, M12, F)), mulmod(scratch2, M22, F))) */\n      swap5\n      pop\n        /* \"poseidon-solidity/PoseidonT3.sol\":32961:32962  F */\n      dup10\n        /* \"poseidon-solidity/PoseidonT3.sol\":32953:32959  state0 */\n      dup2\n        /* \"poseidon-solidity/PoseidonT3.sol\":32945:32951  state0 */\n      dup3\n        /* \"poseidon-solidity/PoseidonT3.sol\":32938:32963  mulmod(state0, state0, F) */\n      mulmod\n        /* \"poseidon-solidity/PoseidonT3.sol\":32926:32963  scratch0 := mulmod(state0, state0, F) */\n      swap4\n      pop\n        /* \"poseidon-solidity/PoseidonT3.sol\":33026:33027  F */\n      dup10\n        /* \"poseidon-solidity/PoseidonT3.sol\":33018:33024  state0 */\n      dup2\n        /* \"poseidon-solidity/PoseidonT3.sol\":33014:33015  F */\n      dup12\n        /* \"poseidon-solidity/PoseidonT3.sol\":33004:33012  scratch0 */\n      dup7\n        /* \"poseidon-solidity/PoseidonT3.sol\":32994:33002  scratch0 */\n      dup8\n        /* \"poseidon-solidity/PoseidonT3.sol\":32987:33016  mulmod(scratch0, scratch0, F) */\n      mulmod\n        /* \"poseidon-solidity/PoseidonT3.sol\":32980:33028  mulmod(mulmod(scratch0, scratch0, F), state0, F) */\n      mulmod\n        /* \"poseidon-solidity/PoseidonT3.sol\":32970:33028  state0 := mulmod(mulmod(scratch0, scratch0, F), state0, F) */\n      swap1\n      pop\n        /* \"poseidon-solidity/PoseidonT3.sol\":33196:33197  F */\n      dup10\n        /* \"poseidon-solidity/PoseidonT3.sol\":33191:33194  M20 */\n      dup10\n        /* \"poseidon-solidity/PoseidonT3.sol\":33183:33189  state2 */\n      dup7\n        /* \"poseidon-solidity/PoseidonT3.sol\":33176:33198  mulmod(state2, M20, F) */\n      mulmod\n        /* \"poseidon-solidity/PoseidonT3.sol\":33171:33172  F */\n      dup11\n        /* \"poseidon-solidity/PoseidonT3.sol\":33166:33169  M10 */\n      0x16ed41e13bb9c0c66ae119424fddbcbc9314dc9fdbdeea55d6c64543dc4903e0\n        /* \"poseidon-solidity/PoseidonT3.sol\":33158:33164  state1 */\n      dup9\n        /* \"poseidon-solidity/PoseidonT3.sol\":33151:33173  mulmod(state1, M10, F) */\n      mulmod\n        /* \"poseidon-solidity/PoseidonT3.sol\":33147:33148  F */\n      dup12\n        /* \"poseidon-solidity/PoseidonT3.sol\":33142:33145  M00 */\n      0x109b7f411ba0e4c9b2b70caf5c36a7b194be7c11ad24378bfedb68592ba8118b\n        /* \"poseidon-solidity/PoseidonT3.sol\":33134:33140  state0 */\n      dup5\n        /* \"poseidon-solidity/PoseidonT3.sol\":33127:33149  mulmod(state0, M00, F) */\n      mulmod\n        /* \"poseidon-solidity/PoseidonT3.sol\":33123:33174  add(mulmod(state0, M00, F), mulmod(state1, M10, F)) */\n      add\n        /* \"poseidon-solidity/PoseidonT3.sol\":33119:33199  add(add(mulmod(state0, M00, F), mulmod(state1, M10, F)), mulmod(state2, M20, F)) */\n      add\n        /* \"poseidon-solidity/PoseidonT3.sol\":33051:33117  0x1382edce9971e186497eadb1aeb1f52b23b4b83bef023ab0d15228b4cceca59a */\n      0x1382edce9971e186497eadb1aeb1f52b23b4b83bef023ab0d15228b4cceca59a\n        /* \"poseidon-solidity/PoseidonT3.sol\":33047:33200  add(0x1382edce9971e186497eadb1aeb1f52b23b4b83bef023ab0d15228b4cceca59a, add(add(mulmod(state0, M00, F), mulmod(state1, M10, F)), mulmod(state2, M20, F))) */\n      add\n        /* \"poseidon-solidity/PoseidonT3.sol\":33035:33200  scratch0 := add(0x1382edce9971e186497eadb1aeb1f52b23b4b83bef023ab0d15228b4cceca59a, add(add(mulmod(state0, M00, F), mulmod(state1, M10, F)), mulmod(state2, M20, F))) */\n      swap4\n      pop\n        /* \"poseidon-solidity/PoseidonT3.sol\":33368:33369  F */\n      dup10\n        /* \"poseidon-solidity/PoseidonT3.sol\":33363:33366  M21 */\n      dup9\n        /* \"poseidon-solidity/PoseidonT3.sol\":33355:33361  state2 */\n      dup7\n        /* \"poseidon-solidity/PoseidonT3.sol\":33348:33370  mulmod(state2, M21, F) */\n      mulmod\n        /* \"poseidon-solidity/PoseidonT3.sol\":33343:33344  F */\n      dup11\n        /* \"poseidon-solidity/PoseidonT3.sol\":33338:33341  M11 */\n      0x2e2419f9ec02ec394c9871c832963dc1b89d743c8c7b964029b2311687b1fe23\n        /* \"poseidon-solidity/PoseidonT3.sol\":33330:33336  state1 */\n      dup9\n        /* \"poseidon-solidity/PoseidonT3.sol\":33323:33345  mulmod(state1, M11, F) */\n      mulmod\n        /* \"poseidon-solidity/PoseidonT3.sol\":33319:33320  F */\n      dup12\n        /* \"poseidon-solidity/PoseidonT3.sol\":33314:33317  M01 */\n      0x2969f27eed31a480b9c36c764379dbca2cc8fdd1415c3dded62940bcde0bd771\n        /* \"poseidon-solidity/PoseidonT3.sol\":33306:33312  state0 */\n      dup5\n        /* \"poseidon-solidity/PoseidonT3.sol\":33299:33321  mulmod(state0, M01, F) */\n      mulmod\n        /* \"poseidon-solidity/PoseidonT3.sol\":33295:33346  add(mulmod(state0, M01, F), mulmod(state1, M11, F)) */\n      add\n        /* \"poseidon-solidity/PoseidonT3.sol\":33291:33371  add(add(mulmod(state0, M01, F), mulmod(state1, M11, F)), mulmod(state2, M21, F)) */\n      add\n        /* \"poseidon-solidity/PoseidonT3.sol\":33223:33289  0x03464990f045c6ee0819ca51fd11b0be7f61b8eb99f14b77e1e6634601d9e8b5 */\n      0x03464990f045c6ee0819ca51fd11b0be7f61b8eb99f14b77e1e6634601d9e8b5\n        /* \"poseidon-solidity/PoseidonT3.sol\":33219:33372  add(0x03464990f045c6ee0819ca51fd11b0be7f61b8eb99f14b77e1e6634601d9e8b5, add(add(mulmod(state0, M01, F), mulmod(state1, M11, F)), mulmod(state2, M21, F))) */\n      add\n        /* \"poseidon-solidity/PoseidonT3.sol\":33207:33372  scratch1 := add(0x03464990f045c6ee0819ca51fd11b0be7f61b8eb99f14b77e1e6634601d9e8b5, add(add(mulmod(state0, M01, F), mulmod(state1, M11, F)), mulmod(state2, M21, F))) */\n      swap3\n      pop\n        /* \"poseidon-solidity/PoseidonT3.sol\":33540:33541  F */\n      dup10\n        /* \"poseidon-solidity/PoseidonT3.sol\":33535:33538  M22 */\n      dup8\n        /* \"poseidon-solidity/PoseidonT3.sol\":33527:33533  state2 */\n      dup7\n        /* \"poseidon-solidity/PoseidonT3.sol\":33520:33542  mulmod(state2, M22, F) */\n      mulmod\n        /* \"poseidon-solidity/PoseidonT3.sol\":33515:33516  F */\n      dup11\n        /* \"poseidon-solidity/PoseidonT3.sol\":33510:33513  M12 */\n      0x176cc029695ad02582a70eff08a6fd99d057e12e58e7d7b6b16cdfabc8ee2911\n        /* \"poseidon-solidity/PoseidonT3.sol\":33502:33508  state1 */\n      dup9\n        /* \"poseidon-solidity/PoseidonT3.sol\":33495:33517  mulmod(state1, M12, F) */\n      mulmod\n        /* \"poseidon-solidity/PoseidonT3.sol\":33491:33492  F */\n      dup12\n        /* \"poseidon-solidity/PoseidonT3.sol\":33486:33489  M02 */\n      0x143021ec686a3f330d5f9e654638065ce6cd79e28c5b3753326244ee65a1b1a7\n        /* \"poseidon-solidity/PoseidonT3.sol\":33478:33484  state0 */\n      dup5\n        /* \"poseidon-solidity/PoseidonT3.sol\":33471:33493  mulmod(state0, M02, F) */\n      mulmod\n        /* \"poseidon-solidity/PoseidonT3.sol\":33467:33518  add(mulmod(state0, M02, F), mulmod(state1, M12, F)) */\n      add\n        /* \"poseidon-solidity/PoseidonT3.sol\":33463:33543  add(add(mulmod(state0, M02, F), mulmod(state1, M12, F)), mulmod(state2, M22, F)) */\n      add\n        /* \"poseidon-solidity/PoseidonT3.sol\":33395:33461  0x23f7bfc8720dc296fff33b41f98ff83c6fcab4605db2eb5aaa5bc137aeb70a58 */\n      0x23f7bfc8720dc296fff33b41f98ff83c6fcab4605db2eb5aaa5bc137aeb70a58\n        /* \"poseidon-solidity/PoseidonT3.sol\":33391:33544  add(0x23f7bfc8720dc296fff33b41f98ff83c6fcab4605db2eb5aaa5bc137aeb70a58, add(add(mulmod(state0, M02, F), mulmod(state1, M12, F)), mulmod(state2, M22, F))) */\n      add\n        /* \"poseidon-solidity/PoseidonT3.sol\":33379:33544  scratch2 := add(0x23f7bfc8720dc296fff33b41f98ff83c6fcab4605db2eb5aaa5bc137aeb70a58, add(add(mulmod(state0, M02, F), mulmod(state1, M12, F)), mulmod(state2, M22, F))) */\n      swap2\n      pop\n        /* \"poseidon-solidity/PoseidonT3.sol\":33588:33589  F */\n      dup10\n        /* \"poseidon-solidity/PoseidonT3.sol\":33578:33586  scratch0 */\n      dup5\n        /* \"poseidon-solidity/PoseidonT3.sol\":33568:33576  scratch0 */\n      dup6\n        /* \"poseidon-solidity/PoseidonT3.sol\":33561:33590  mulmod(scratch0, scratch0, F) */\n      mulmod\n        /* \"poseidon-solidity/PoseidonT3.sol\":33551:33590  state0 := mulmod(scratch0, scratch0, F) */\n      swap1\n      pop\n        /* \"poseidon-solidity/PoseidonT3.sol\":33653:33654  F */\n      dup10\n        /* \"poseidon-solidity/PoseidonT3.sol\":33643:33651  scratch0 */\n      dup5\n        /* \"poseidon-solidity/PoseidonT3.sol\":33639:33640  F */\n      dup12\n        /* \"poseidon-solidity/PoseidonT3.sol\":33631:33637  state0 */\n      dup4\n        /* \"poseidon-solidity/PoseidonT3.sol\":33623:33629  state0 */\n      dup5\n        /* \"poseidon-solidity/PoseidonT3.sol\":33616:33641  mulmod(state0, state0, F) */\n      mulmod\n        /* \"poseidon-solidity/PoseidonT3.sol\":33609:33655  mulmod(mulmod(state0, state0, F), scratch0, F) */\n      mulmod\n        /* \"poseidon-solidity/PoseidonT3.sol\":33597:33655  scratch0 := mulmod(mulmod(state0, state0, F), scratch0, F) */\n      swap4\n      pop\n        /* \"poseidon-solidity/PoseidonT3.sol\":33827:33828  F */\n      dup10\n        /* \"poseidon-solidity/PoseidonT3.sol\":33822:33825  M20 */\n      dup10\n        /* \"poseidon-solidity/PoseidonT3.sol\":33812:33820  scratch2 */\n      dup4\n        /* \"poseidon-solidity/PoseidonT3.sol\":33805:33829  mulmod(scratch2, M20, F) */\n      mulmod\n        /* \"poseidon-solidity/PoseidonT3.sol\":33800:33801  F */\n      dup11\n        /* \"poseidon-solidity/PoseidonT3.sol\":33795:33798  M10 */\n      0x16ed41e13bb9c0c66ae119424fddbcbc9314dc9fdbdeea55d6c64543dc4903e0\n        /* \"poseidon-solidity/PoseidonT3.sol\":33785:33793  scratch1 */\n      dup6\n        /* \"poseidon-solidity/PoseidonT3.sol\":33778:33802  mulmod(scratch1, M10, F) */\n      mulmod\n        /* \"poseidon-solidity/PoseidonT3.sol\":33774:33775  F */\n      dup12\n        /* \"poseidon-solidity/PoseidonT3.sol\":33769:33772  M00 */\n      0x109b7f411ba0e4c9b2b70caf5c36a7b194be7c11ad24378bfedb68592ba8118b\n        /* \"poseidon-solidity/PoseidonT3.sol\":33759:33767  scratch0 */\n      dup8\n        /* \"poseidon-solidity/PoseidonT3.sol\":33752:33776  mulmod(scratch0, M00, F) */\n      mulmod\n        /* \"poseidon-solidity/PoseidonT3.sol\":33748:33803  add(mulmod(scratch0, M00, F), mulmod(scratch1, M10, F)) */\n      add\n        /* \"poseidon-solidity/PoseidonT3.sol\":33744:33830  add(add(mulmod(scratch0, M00, F), mulmod(scratch1, M10, F)), mulmod(scratch2, M20, F)) */\n      add\n        /* \"poseidon-solidity/PoseidonT3.sol\":33676:33742  0x0a59a158e3eec2117e6e94e7f0e9decf18c3ffd5e1531a9219636158bbaf62f2 */\n      0x0a59a158e3eec2117e6e94e7f0e9decf18c3ffd5e1531a9219636158bbaf62f2\n        /* \"poseidon-solidity/PoseidonT3.sol\":33672:33831  add(0x0a59a158e3eec2117e6e94e7f0e9decf18c3ffd5e1531a9219636158bbaf62f2, add(add(mulmod(scratch0, M00, F), mulmod(scratch1, M10, F)), mulmod(scratch2, M20, F))) */\n      add\n        /* \"poseidon-solidity/PoseidonT3.sol\":33662:33831  state0 := add(0x0a59a158e3eec2117e6e94e7f0e9decf18c3ffd5e1531a9219636158bbaf62f2, add(add(mulmod(scratch0, M00, F), mulmod(scratch1, M10, F)), mulmod(scratch2, M20, F))) */\n      swap1\n      pop\n        /* \"poseidon-solidity/PoseidonT3.sol\":34003:34004  F */\n      dup10\n        /* \"poseidon-solidity/PoseidonT3.sol\":33998:34001  M21 */\n      dup9\n        /* \"poseidon-solidity/PoseidonT3.sol\":33988:33996  scratch2 */\n      dup4\n        /* \"poseidon-solidity/PoseidonT3.sol\":33981:34005  mulmod(scratch2, M21, F) */\n      mulmod\n        /* \"poseidon-solidity/PoseidonT3.sol\":33976:33977  F */\n      dup11\n        /* \"poseidon-solidity/PoseidonT3.sol\":33971:33974  M11 */\n      0x2e2419f9ec02ec394c9871c832963dc1b89d743c8c7b964029b2311687b1fe23\n        /* \"poseidon-solidity/PoseidonT3.sol\":33961:33969  scratch1 */\n      dup6\n        /* \"poseidon-solidity/PoseidonT3.sol\":33954:33978  mulmod(scratch1, M11, F) */\n      mulmod\n        /* \"poseidon-solidity/PoseidonT3.sol\":33950:33951  F */\n      dup12\n        /* \"poseidon-solidity/PoseidonT3.sol\":33945:33948  M01 */\n      0x2969f27eed31a480b9c36c764379dbca2cc8fdd1415c3dded62940bcde0bd771\n        /* \"poseidon-solidity/PoseidonT3.sol\":33935:33943  scratch0 */\n      dup8\n        /* \"poseidon-solidity/PoseidonT3.sol\":33928:33952  mulmod(scratch0, M01, F) */\n      mulmod\n        /* \"poseidon-solidity/PoseidonT3.sol\":33924:33979  add(mulmod(scratch0, M01, F), mulmod(scratch1, M11, F)) */\n      add\n        /* \"poseidon-solidity/PoseidonT3.sol\":33920:34006  add(add(mulmod(scratch0, M01, F), mulmod(scratch1, M11, F)), mulmod(scratch2, M21, F)) */\n      add\n        /* \"poseidon-solidity/PoseidonT3.sol\":33852:33918  0x06ec54c80381c052b58bf23b312ffd3ce2c4eba065420af8f4c23ed0075fd07b */\n      0x06ec54c80381c052b58bf23b312ffd3ce2c4eba065420af8f4c23ed0075fd07b\n        /* \"poseidon-solidity/PoseidonT3.sol\":33848:34007  add(0x06ec54c80381c052b58bf23b312ffd3ce2c4eba065420af8f4c23ed0075fd07b, add(add(mulmod(scratch0, M01, F), mulmod(scratch1, M11, F)), mulmod(scratch2, M21, F))) */\n      add\n        /* \"poseidon-solidity/PoseidonT3.sol\":33838:34007  state1 := add(0x06ec54c80381c052b58bf23b312ffd3ce2c4eba065420af8f4c23ed0075fd07b, add(add(mulmod(scratch0, M01, F), mulmod(scratch1, M11, F)), mulmod(scratch2, M21, F))) */\n      swap6\n      pop\n        /* \"poseidon-solidity/PoseidonT3.sol\":34179:34180  F */\n      dup10\n        /* \"poseidon-solidity/PoseidonT3.sol\":34174:34177  M22 */\n      dup8\n        /* \"poseidon-solidity/PoseidonT3.sol\":34164:34172  scratch2 */\n      dup4\n        /* \"poseidon-solidity/PoseidonT3.sol\":34157:34181  mulmod(scratch2, M22, F) */\n      mulmod\n        /* \"poseidon-solidity/PoseidonT3.sol\":34152:34153  F */\n      dup11\n        /* \"poseidon-solidity/PoseidonT3.sol\":34147:34150  M12 */\n      0x176cc029695ad02582a70eff08a6fd99d057e12e58e7d7b6b16cdfabc8ee2911\n        /* \"poseidon-solidity/PoseidonT3.sol\":34137:34145  scratch1 */\n      dup6\n        /* \"poseidon-solidity/PoseidonT3.sol\":34130:34154  mulmod(scratch1, M12, F) */\n      mulmod\n        /* \"poseidon-solidity/PoseidonT3.sol\":34126:34127  F */\n      dup12\n        /* \"poseidon-solidity/PoseidonT3.sol\":34121:34124  M02 */\n      0x143021ec686a3f330d5f9e654638065ce6cd79e28c5b3753326244ee65a1b1a7\n        /* \"poseidon-solidity/PoseidonT3.sol\":34111:34119  scratch0 */\n      dup8\n        /* \"poseidon-solidity/PoseidonT3.sol\":34104:34128  mulmod(scratch0, M02, F) */\n      mulmod\n        /* \"poseidon-solidity/PoseidonT3.sol\":34100:34155  add(mulmod(scratch0, M02, F), mulmod(scratch1, M12, F)) */\n      add\n        /* \"poseidon-solidity/PoseidonT3.sol\":34096:34182  add(add(mulmod(scratch0, M02, F), mulmod(scratch1, M12, F)), mulmod(scratch2, M22, F)) */\n      add\n        /* \"poseidon-solidity/PoseidonT3.sol\":34028:34094  0x118872dc832e0eb5476b56648e867ec8b09340f7a7bcb1b4962f0ff9ed1f9d01 */\n      0x118872dc832e0eb5476b56648e867ec8b09340f7a7bcb1b4962f0ff9ed1f9d01\n        /* \"poseidon-solidity/PoseidonT3.sol\":34024:34183  add(0x118872dc832e0eb5476b56648e867ec8b09340f7a7bcb1b4962f0ff9ed1f9d01, add(add(mulmod(scratch0, M02, F), mulmod(scratch1, M12, F)), mulmod(scratch2, M22, F))) */\n      add\n        /* \"poseidon-solidity/PoseidonT3.sol\":34014:34183  state2 := add(0x118872dc832e0eb5476b56648e867ec8b09340f7a7bcb1b4962f0ff9ed1f9d01, add(add(mulmod(scratch0, M02, F), mulmod(scratch1, M12, F)), mulmod(scratch2, M22, F))) */\n      swap5\n      pop\n        /* \"poseidon-solidity/PoseidonT3.sol\":34225:34226  F */\n      dup10\n        /* \"poseidon-solidity/PoseidonT3.sol\":34217:34223  state0 */\n      dup2\n        /* \"poseidon-solidity/PoseidonT3.sol\":34209:34215  state0 */\n      dup3\n        /* \"poseidon-solidity/PoseidonT3.sol\":34202:34227  mulmod(state0, state0, F) */\n      mulmod\n        /* \"poseidon-solidity/PoseidonT3.sol\":34190:34227  scratch0 := mulmod(state0, state0, F) */\n      swap4\n      pop\n        /* \"poseidon-solidity/PoseidonT3.sol\":34290:34291  F */\n      dup10\n        /* \"poseidon-solidity/PoseidonT3.sol\":34282:34288  state0 */\n      dup2\n        /* \"poseidon-solidity/PoseidonT3.sol\":34278:34279  F */\n      dup12\n        /* \"poseidon-solidity/PoseidonT3.sol\":34268:34276  scratch0 */\n      dup7\n        /* \"poseidon-solidity/PoseidonT3.sol\":34258:34266  scratch0 */\n      dup8\n        /* \"poseidon-solidity/PoseidonT3.sol\":34251:34280  mulmod(scratch0, scratch0, F) */\n      mulmod\n        /* \"poseidon-solidity/PoseidonT3.sol\":34244:34292  mulmod(mulmod(scratch0, scratch0, F), state0, F) */\n      mulmod\n        /* \"poseidon-solidity/PoseidonT3.sol\":34234:34292  state0 := mulmod(mulmod(scratch0, scratch0, F), state0, F) */\n      swap1\n      pop\n        /* \"poseidon-solidity/PoseidonT3.sol\":34460:34461  F */\n      dup10\n        /* \"poseidon-solidity/PoseidonT3.sol\":34455:34458  M20 */\n      dup10\n        /* \"poseidon-solidity/PoseidonT3.sol\":34447:34453  state2 */\n      dup7\n        /* \"poseidon-solidity/PoseidonT3.sol\":34440:34462  mulmod(state2, M20, F) */\n      mulmod\n        /* \"poseidon-solidity/PoseidonT3.sol\":34435:34436  F */\n      dup11\n        /* \"poseidon-solidity/PoseidonT3.sol\":34430:34433  M10 */\n      0x16ed41e13bb9c0c66ae119424fddbcbc9314dc9fdbdeea55d6c64543dc4903e0\n        /* \"poseidon-solidity/PoseidonT3.sol\":34422:34428  state1 */\n      dup9\n        /* \"poseidon-solidity/PoseidonT3.sol\":34415:34437  mulmod(state1, M10, F) */\n      mulmod\n        /* \"poseidon-solidity/PoseidonT3.sol\":34411:34412  F */\n      dup12\n        /* \"poseidon-solidity/PoseidonT3.sol\":34406:34409  M00 */\n      0x109b7f411ba0e4c9b2b70caf5c36a7b194be7c11ad24378bfedb68592ba8118b\n        /* \"poseidon-solidity/PoseidonT3.sol\":34398:34404  state0 */\n      dup5\n        /* \"poseidon-solidity/PoseidonT3.sol\":34391:34413  mulmod(state0, M00, F) */\n      mulmod\n        /* \"poseidon-solidity/PoseidonT3.sol\":34387:34438  add(mulmod(state0, M00, F), mulmod(state1, M10, F)) */\n      add\n        /* \"poseidon-solidity/PoseidonT3.sol\":34383:34463  add(add(mulmod(state0, M00, F), mulmod(state1, M10, F)), mulmod(state2, M20, F)) */\n      add\n        /* \"poseidon-solidity/PoseidonT3.sol\":34315:34381  0x13d69fa127d834165ad5c7cba7ad59ed52e0b0f0e42d7fea95e1906b520921b1 */\n      0x13d69fa127d834165ad5c7cba7ad59ed52e0b0f0e42d7fea95e1906b520921b1\n        /* \"poseidon-solidity/PoseidonT3.sol\":34311:34464  add(0x13d69fa127d834165ad5c7cba7ad59ed52e0b0f0e42d7fea95e1906b520921b1, add(add(mulmod(state0, M00, F), mulmod(state1, M10, F)), mulmod(state2, M20, F))) */\n      add\n        /* \"poseidon-solidity/PoseidonT3.sol\":34299:34464  scratch0 := add(0x13d69fa127d834165ad5c7cba7ad59ed52e0b0f0e42d7fea95e1906b520921b1, add(add(mulmod(state0, M00, F), mulmod(state1, M10, F)), mulmod(state2, M20, F))) */\n      swap4\n      pop\n        /* \"poseidon-solidity/PoseidonT3.sol\":34632:34633  F */\n      dup10\n        /* \"poseidon-solidity/PoseidonT3.sol\":34627:34630  M21 */\n      dup9\n        /* \"poseidon-solidity/PoseidonT3.sol\":34619:34625  state2 */\n      dup7\n        /* \"poseidon-solidity/PoseidonT3.sol\":34612:34634  mulmod(state2, M21, F) */\n      mulmod\n        /* \"poseidon-solidity/PoseidonT3.sol\":34607:34608  F */\n      dup11\n        /* \"poseidon-solidity/PoseidonT3.sol\":34602:34605  M11 */\n      0x2e2419f9ec02ec394c9871c832963dc1b89d743c8c7b964029b2311687b1fe23\n        /* \"poseidon-solidity/PoseidonT3.sol\":34594:34600  state1 */\n      dup9\n        /* \"poseidon-solidity/PoseidonT3.sol\":34587:34609  mulmod(state1, M11, F) */\n      mulmod\n        /* \"poseidon-solidity/PoseidonT3.sol\":34583:34584  F */\n      dup12\n        /* \"poseidon-solidity/PoseidonT3.sol\":34578:34581  M01 */\n      0x2969f27eed31a480b9c36c764379dbca2cc8fdd1415c3dded62940bcde0bd771\n        /* \"poseidon-solidity/PoseidonT3.sol\":34570:34576  state0 */\n      dup5\n        /* \"poseidon-solidity/PoseidonT3.sol\":34563:34585  mulmod(state0, M01, F) */\n      mulmod\n        /* \"poseidon-solidity/PoseidonT3.sol\":34559:34610  add(mulmod(state0, M01, F), mulmod(state1, M11, F)) */\n      add\n        /* \"poseidon-solidity/PoseidonT3.sol\":34555:34635  add(add(mulmod(state0, M01, F), mulmod(state1, M11, F)), mulmod(state2, M21, F)) */\n      add\n        /* \"poseidon-solidity/PoseidonT3.sol\":34487:34553  0x169a177f63ea681270b1c6877a73d21bde143942fb71dc55fd8a49f19f10c77b */\n      0x169a177f63ea681270b1c6877a73d21bde143942fb71dc55fd8a49f19f10c77b\n        /* \"poseidon-solidity/PoseidonT3.sol\":34483:34636  add(0x169a177f63ea681270b1c6877a73d21bde143942fb71dc55fd8a49f19f10c77b, add(add(mulmod(state0, M01, F), mulmod(state1, M11, F)), mulmod(state2, M21, F))) */\n      add\n        /* \"poseidon-solidity/PoseidonT3.sol\":34471:34636  scratch1 := add(0x169a177f63ea681270b1c6877a73d21bde143942fb71dc55fd8a49f19f10c77b, add(add(mulmod(state0, M01, F), mulmod(state1, M11, F)), mulmod(state2, M21, F))) */\n      swap3\n      pop\n        /* \"poseidon-solidity/PoseidonT3.sol\":34804:34805  F */\n      dup10\n        /* \"poseidon-solidity/PoseidonT3.sol\":34799:34802  M22 */\n      dup8\n        /* \"poseidon-solidity/PoseidonT3.sol\":34791:34797  state2 */\n      dup7\n        /* \"poseidon-solidity/PoseidonT3.sol\":34784:34806  mulmod(state2, M22, F) */\n      mulmod\n        /* \"poseidon-solidity/PoseidonT3.sol\":34779:34780  F */\n      dup11\n        /* \"poseidon-solidity/PoseidonT3.sol\":34774:34777  M12 */\n      0x176cc029695ad02582a70eff08a6fd99d057e12e58e7d7b6b16cdfabc8ee2911\n        /* \"poseidon-solidity/PoseidonT3.sol\":34766:34772  state1 */\n      dup9\n        /* \"poseidon-solidity/PoseidonT3.sol\":34759:34781  mulmod(state1, M12, F) */\n      mulmod\n        /* \"poseidon-solidity/PoseidonT3.sol\":34755:34756  F */\n      dup12\n        /* \"poseidon-solidity/PoseidonT3.sol\":34750:34753  M02 */\n      0x143021ec686a3f330d5f9e654638065ce6cd79e28c5b3753326244ee65a1b1a7\n        /* \"poseidon-solidity/PoseidonT3.sol\":34742:34748  state0 */\n      dup5\n        /* \"poseidon-solidity/PoseidonT3.sol\":34735:34757  mulmod(state0, M02, F) */\n      mulmod\n        /* \"poseidon-solidity/PoseidonT3.sol\":34731:34782  add(mulmod(state0, M02, F), mulmod(state1, M12, F)) */\n      add\n        /* \"poseidon-solidity/PoseidonT3.sol\":34727:34807  add(add(mulmod(state0, M02, F), mulmod(state1, M12, F)), mulmod(state2, M22, F)) */\n      add\n        /* \"poseidon-solidity/PoseidonT3.sol\":34659:34725  0x04ef51591c6ead97ef42f287adce40d93abeb032b922f66ffb7e9a5a7450544d */\n      0x04ef51591c6ead97ef42f287adce40d93abeb032b922f66ffb7e9a5a7450544d\n        /* \"poseidon-solidity/PoseidonT3.sol\":34655:34808  add(0x04ef51591c6ead97ef42f287adce40d93abeb032b922f66ffb7e9a5a7450544d, add(add(mulmod(state0, M02, F), mulmod(state1, M12, F)), mulmod(state2, M22, F))) */\n      add\n        /* \"poseidon-solidity/PoseidonT3.sol\":34643:34808  scratch2 := add(0x04ef51591c6ead97ef42f287adce40d93abeb032b922f66ffb7e9a5a7450544d, add(add(mulmod(state0, M02, F), mulmod(state1, M12, F)), mulmod(state2, M22, F))) */\n      swap2\n      pop\n        /* \"poseidon-solidity/PoseidonT3.sol\":34852:34853  F */\n      dup10\n        /* \"poseidon-solidity/PoseidonT3.sol\":34842:34850  scratch0 */\n      dup5\n        /* \"poseidon-solidity/PoseidonT3.sol\":34832:34840  scratch0 */\n      dup6\n        /* \"poseidon-solidity/PoseidonT3.sol\":34825:34854  mulmod(scratch0, scratch0, F) */\n      mulmod\n        /* \"poseidon-solidity/PoseidonT3.sol\":34815:34854  state0 := mulmod(scratch0, scratch0, F) */\n      swap1\n      pop\n        /* \"poseidon-solidity/PoseidonT3.sol\":34917:34918  F */\n      dup10\n        /* \"poseidon-solidity/PoseidonT3.sol\":34907:34915  scratch0 */\n      dup5\n        /* \"poseidon-solidity/PoseidonT3.sol\":34903:34904  F */\n      dup12\n        /* \"poseidon-solidity/PoseidonT3.sol\":34895:34901  state0 */\n      dup4\n        /* \"poseidon-solidity/PoseidonT3.sol\":34887:34893  state0 */\n      dup5\n        /* \"poseidon-solidity/PoseidonT3.sol\":34880:34905  mulmod(state0, state0, F) */\n      mulmod\n        /* \"poseidon-solidity/PoseidonT3.sol\":34873:34919  mulmod(mulmod(state0, state0, F), scratch0, F) */\n      mulmod\n        /* \"poseidon-solidity/PoseidonT3.sol\":34861:34919  scratch0 := mulmod(mulmod(state0, state0, F), scratch0, F) */\n      swap4\n      pop\n        /* \"poseidon-solidity/PoseidonT3.sol\":35091:35092  F */\n      dup10\n        /* \"poseidon-solidity/PoseidonT3.sol\":35086:35089  M20 */\n      dup10\n        /* \"poseidon-solidity/PoseidonT3.sol\":35076:35084  scratch2 */\n      dup4\n        /* \"poseidon-solidity/PoseidonT3.sol\":35069:35093  mulmod(scratch2, M20, F) */\n      mulmod\n        /* \"poseidon-solidity/PoseidonT3.sol\":35064:35065  F */\n      dup11\n        /* \"poseidon-solidity/PoseidonT3.sol\":35059:35062  M10 */\n      0x16ed41e13bb9c0c66ae119424fddbcbc9314dc9fdbdeea55d6c64543dc4903e0\n        /* \"poseidon-solidity/PoseidonT3.sol\":35049:35057  scratch1 */\n      dup6\n        /* \"poseidon-solidity/PoseidonT3.sol\":35042:35066  mulmod(scratch1, M10, F) */\n      mulmod\n        /* \"poseidon-solidity/PoseidonT3.sol\":35038:35039  F */\n      dup12\n        /* \"poseidon-solidity/PoseidonT3.sol\":35033:35036  M00 */\n      0x109b7f411ba0e4c9b2b70caf5c36a7b194be7c11ad24378bfedb68592ba8118b\n        /* \"poseidon-solidity/PoseidonT3.sol\":35023:35031  scratch0 */\n      dup8\n        /* \"poseidon-solidity/PoseidonT3.sol\":35016:35040  mulmod(scratch0, M00, F) */\n      mulmod\n        /* \"poseidon-solidity/PoseidonT3.sol\":35012:35067  add(mulmod(scratch0, M00, F), mulmod(scratch1, M10, F)) */\n      add\n        /* \"poseidon-solidity/PoseidonT3.sol\":35008:35094  add(add(mulmod(scratch0, M00, F), mulmod(scratch1, M10, F)), mulmod(scratch2, M20, F)) */\n      add\n        /* \"poseidon-solidity/PoseidonT3.sol\":34940:35006  0x256e175a1dc079390ecd7ca703fb2e3b19ec61805d4f03ced5f45ee6dd0f69ec */\n      0x256e175a1dc079390ecd7ca703fb2e3b19ec61805d4f03ced5f45ee6dd0f69ec\n        /* \"poseidon-solidity/PoseidonT3.sol\":34936:35095  add(0x256e175a1dc079390ecd7ca703fb2e3b19ec61805d4f03ced5f45ee6dd0f69ec, add(add(mulmod(scratch0, M00, F), mulmod(scratch1, M10, F)), mulmod(scratch2, M20, F))) */\n      add\n        /* \"poseidon-solidity/PoseidonT3.sol\":34926:35095  state0 := add(0x256e175a1dc079390ecd7ca703fb2e3b19ec61805d4f03ced5f45ee6dd0f69ec, add(add(mulmod(scratch0, M00, F), mulmod(scratch1, M10, F)), mulmod(scratch2, M20, F))) */\n      swap1\n      pop\n        /* \"poseidon-solidity/PoseidonT3.sol\":35267:35268  F */\n      dup10\n        /* \"poseidon-solidity/PoseidonT3.sol\":35262:35265  M21 */\n      dup9\n        /* \"poseidon-solidity/PoseidonT3.sol\":35252:35260  scratch2 */\n      dup4\n        /* \"poseidon-solidity/PoseidonT3.sol\":35245:35269  mulmod(scratch2, M21, F) */\n      mulmod\n        /* \"poseidon-solidity/PoseidonT3.sol\":35240:35241  F */\n      dup11\n        /* \"poseidon-solidity/PoseidonT3.sol\":35235:35238  M11 */\n      0x2e2419f9ec02ec394c9871c832963dc1b89d743c8c7b964029b2311687b1fe23\n        /* \"poseidon-solidity/PoseidonT3.sol\":35225:35233  scratch1 */\n      dup6\n        /* \"poseidon-solidity/PoseidonT3.sol\":35218:35242  mulmod(scratch1, M11, F) */\n      mulmod\n        /* \"poseidon-solidity/PoseidonT3.sol\":35214:35215  F */\n      dup12\n        /* \"poseidon-solidity/PoseidonT3.sol\":35209:35212  M01 */\n      0x2969f27eed31a480b9c36c764379dbca2cc8fdd1415c3dded62940bcde0bd771\n        /* \"poseidon-solidity/PoseidonT3.sol\":35199:35207  scratch0 */\n      dup8\n        /* \"poseidon-solidity/PoseidonT3.sol\":35192:35216  mulmod(scratch0, M01, F) */\n      mulmod\n        /* \"poseidon-solidity/PoseidonT3.sol\":35188:35243  add(mulmod(scratch0, M01, F), mulmod(scratch1, M11, F)) */\n      add\n        /* \"poseidon-solidity/PoseidonT3.sol\":35184:35270  add(add(mulmod(scratch0, M01, F), mulmod(scratch1, M11, F)), mulmod(scratch2, M21, F)) */\n      add\n        /* \"poseidon-solidity/PoseidonT3.sol\":35116:35182  0x30102d28636abd5fe5f2af412ff6004f75cc360d3205dd2da002813d3e2ceeb2 */\n      0x30102d28636abd5fe5f2af412ff6004f75cc360d3205dd2da002813d3e2ceeb2\n        /* \"poseidon-solidity/PoseidonT3.sol\":35112:35271  add(0x30102d28636abd5fe5f2af412ff6004f75cc360d3205dd2da002813d3e2ceeb2, add(add(mulmod(scratch0, M01, F), mulmod(scratch1, M11, F)), mulmod(scratch2, M21, F))) */\n      add\n        /* \"poseidon-solidity/PoseidonT3.sol\":35102:35271  state1 := add(0x30102d28636abd5fe5f2af412ff6004f75cc360d3205dd2da002813d3e2ceeb2, add(add(mulmod(scratch0, M01, F), mulmod(scratch1, M11, F)), mulmod(scratch2, M21, F))) */\n      swap6\n      pop\n        /* \"poseidon-solidity/PoseidonT3.sol\":35443:35444  F */\n      dup10\n        /* \"poseidon-solidity/PoseidonT3.sol\":35438:35441  M22 */\n      dup8\n        /* \"poseidon-solidity/PoseidonT3.sol\":35428:35436  scratch2 */\n      dup4\n        /* \"poseidon-solidity/PoseidonT3.sol\":35421:35445  mulmod(scratch2, M22, F) */\n      mulmod\n        /* \"poseidon-solidity/PoseidonT3.sol\":35416:35417  F */\n      dup11\n        /* \"poseidon-solidity/PoseidonT3.sol\":35411:35414  M12 */\n      0x176cc029695ad02582a70eff08a6fd99d057e12e58e7d7b6b16cdfabc8ee2911\n        /* \"poseidon-solidity/PoseidonT3.sol\":35401:35409  scratch1 */\n      dup6\n        /* \"poseidon-solidity/PoseidonT3.sol\":35394:35418  mulmod(scratch1, M12, F) */\n      mulmod\n        /* \"poseidon-solidity/PoseidonT3.sol\":35390:35391  F */\n      dup12\n        /* \"poseidon-solidity/PoseidonT3.sol\":35385:35388  M02 */\n      0x143021ec686a3f330d5f9e654638065ce6cd79e28c5b3753326244ee65a1b1a7\n        /* \"poseidon-solidity/PoseidonT3.sol\":35375:35383  scratch0 */\n      dup8\n        /* \"poseidon-solidity/PoseidonT3.sol\":35368:35392  mulmod(scratch0, M02, F) */\n      mulmod\n        /* \"poseidon-solidity/PoseidonT3.sol\":35364:35419  add(mulmod(scratch0, M02, F), mulmod(scratch1, M12, F)) */\n      add\n        /* \"poseidon-solidity/PoseidonT3.sol\":35360:35446  add(add(mulmod(scratch0, M02, F), mulmod(scratch1, M12, F)), mulmod(scratch2, M22, F)) */\n      add\n        /* \"poseidon-solidity/PoseidonT3.sol\":35292:35358  0x10998e42dfcd3bbf1c0714bc73eb1bf40443a3fa99bef4a31fd31be182fcc792 */\n      0x10998e42dfcd3bbf1c0714bc73eb1bf40443a3fa99bef4a31fd31be182fcc792\n        /* \"poseidon-solidity/PoseidonT3.sol\":35288:35447  add(0x10998e42dfcd3bbf1c0714bc73eb1bf40443a3fa99bef4a31fd31be182fcc792, add(add(mulmod(scratch0, M02, F), mulmod(scratch1, M12, F)), mulmod(scratch2, M22, F))) */\n      add\n        /* \"poseidon-solidity/PoseidonT3.sol\":35278:35447  state2 := add(0x10998e42dfcd3bbf1c0714bc73eb1bf40443a3fa99bef4a31fd31be182fcc792, add(add(mulmod(scratch0, M02, F), mulmod(scratch1, M12, F)), mulmod(scratch2, M22, F))) */\n      swap5\n      pop\n        /* \"poseidon-solidity/PoseidonT3.sol\":35489:35490  F */\n      dup10\n        /* \"poseidon-solidity/PoseidonT3.sol\":35481:35487  state0 */\n      dup2\n        /* \"poseidon-solidity/PoseidonT3.sol\":35473:35479  state0 */\n      dup3\n        /* \"poseidon-solidity/PoseidonT3.sol\":35466:35491  mulmod(state0, state0, F) */\n      mulmod\n        /* \"poseidon-solidity/PoseidonT3.sol\":35454:35491  scratch0 := mulmod(state0, state0, F) */\n      swap4\n      pop\n        /* \"poseidon-solidity/PoseidonT3.sol\":35554:35555  F */\n      dup10\n        /* \"poseidon-solidity/PoseidonT3.sol\":35546:35552  state0 */\n      dup2\n        /* \"poseidon-solidity/PoseidonT3.sol\":35542:35543  F */\n      dup12\n        /* \"poseidon-solidity/PoseidonT3.sol\":35532:35540  scratch0 */\n      dup7\n        /* \"poseidon-solidity/PoseidonT3.sol\":35522:35530  scratch0 */\n      dup8\n        /* \"poseidon-solidity/PoseidonT3.sol\":35515:35544  mulmod(scratch0, scratch0, F) */\n      mulmod\n        /* \"poseidon-solidity/PoseidonT3.sol\":35508:35556  mulmod(mulmod(scratch0, scratch0, F), state0, F) */\n      mulmod\n        /* \"poseidon-solidity/PoseidonT3.sol\":35498:35556  state0 := mulmod(mulmod(scratch0, scratch0, F), state0, F) */\n      swap1\n      pop\n        /* \"poseidon-solidity/PoseidonT3.sol\":35724:35725  F */\n      dup10\n        /* \"poseidon-solidity/PoseidonT3.sol\":35719:35722  M20 */\n      dup10\n        /* \"poseidon-solidity/PoseidonT3.sol\":35711:35717  state2 */\n      dup7\n        /* \"poseidon-solidity/PoseidonT3.sol\":35704:35726  mulmod(state2, M20, F) */\n      mulmod\n        /* \"poseidon-solidity/PoseidonT3.sol\":35699:35700  F */\n      dup11\n        /* \"poseidon-solidity/PoseidonT3.sol\":35694:35697  M10 */\n      0x16ed41e13bb9c0c66ae119424fddbcbc9314dc9fdbdeea55d6c64543dc4903e0\n        /* \"poseidon-solidity/PoseidonT3.sol\":35686:35692  state1 */\n      dup9\n        /* \"poseidon-solidity/PoseidonT3.sol\":35679:35701  mulmod(state1, M10, F) */\n      mulmod\n        /* \"poseidon-solidity/PoseidonT3.sol\":35675:35676  F */\n      dup12\n        /* \"poseidon-solidity/PoseidonT3.sol\":35670:35673  M00 */\n      0x109b7f411ba0e4c9b2b70caf5c36a7b194be7c11ad24378bfedb68592ba8118b\n        /* \"poseidon-solidity/PoseidonT3.sol\":35662:35668  state0 */\n      dup5\n        /* \"poseidon-solidity/PoseidonT3.sol\":35655:35677  mulmod(state0, M00, F) */\n      mulmod\n        /* \"poseidon-solidity/PoseidonT3.sol\":35651:35702  add(mulmod(state0, M00, F), mulmod(state1, M10, F)) */\n      add\n        /* \"poseidon-solidity/PoseidonT3.sol\":35647:35727  add(add(mulmod(state0, M00, F), mulmod(state1, M10, F)), mulmod(state2, M20, F)) */\n      add\n        /* \"poseidon-solidity/PoseidonT3.sol\":35579:35645  0x193edd8e9fcf3d7625fa7d24b598a1d89f3362eaf4d582efecad76f879e36860 */\n      0x193edd8e9fcf3d7625fa7d24b598a1d89f3362eaf4d582efecad76f879e36860\n        /* \"poseidon-solidity/PoseidonT3.sol\":35575:35728  add(0x193edd8e9fcf3d7625fa7d24b598a1d89f3362eaf4d582efecad76f879e36860, add(add(mulmod(state0, M00, F), mulmod(state1, M10, F)), mulmod(state2, M20, F))) */\n      add\n        /* \"poseidon-solidity/PoseidonT3.sol\":35563:35728  scratch0 := add(0x193edd8e9fcf3d7625fa7d24b598a1d89f3362eaf4d582efecad76f879e36860, add(add(mulmod(state0, M00, F), mulmod(state1, M10, F)), mulmod(state2, M20, F))) */\n      swap4\n      pop\n        /* \"poseidon-solidity/PoseidonT3.sol\":35896:35897  F */\n      dup10\n        /* \"poseidon-solidity/PoseidonT3.sol\":35891:35894  M21 */\n      dup9\n        /* \"poseidon-solidity/PoseidonT3.sol\":35883:35889  state2 */\n      dup7\n        /* \"poseidon-solidity/PoseidonT3.sol\":35876:35898  mulmod(state2, M21, F) */\n      mulmod\n        /* \"poseidon-solidity/PoseidonT3.sol\":35871:35872  F */\n      dup11\n        /* \"poseidon-solidity/PoseidonT3.sol\":35866:35869  M11 */\n      0x2e2419f9ec02ec394c9871c832963dc1b89d743c8c7b964029b2311687b1fe23\n        /* \"poseidon-solidity/PoseidonT3.sol\":35858:35864  state1 */\n      dup9\n        /* \"poseidon-solidity/PoseidonT3.sol\":35851:35873  mulmod(state1, M11, F) */\n      mulmod\n        /* \"poseidon-solidity/PoseidonT3.sol\":35847:35848  F */\n      dup12\n        /* \"poseidon-solidity/PoseidonT3.sol\":35842:35845  M01 */\n      0x2969f27eed31a480b9c36c764379dbca2cc8fdd1415c3dded62940bcde0bd771\n        /* \"poseidon-solidity/PoseidonT3.sol\":35834:35840  state0 */\n      dup5\n        /* \"poseidon-solidity/PoseidonT3.sol\":35827:35849  mulmod(state0, M01, F) */\n      mulmod\n        /* \"poseidon-solidity/PoseidonT3.sol\":35823:35874  add(mulmod(state0, M01, F), mulmod(state1, M11, F)) */\n      add\n        /* \"poseidon-solidity/PoseidonT3.sol\":35819:35899  add(add(mulmod(state0, M01, F), mulmod(state1, M11, F)), mulmod(state2, M21, F)) */\n      add\n        /* \"poseidon-solidity/PoseidonT3.sol\":35751:35817  0x18168afd34f2d915d0368ce80b7b3347d1c7a561ce611425f2664d7aa51f0b5d */\n      0x18168afd34f2d915d0368ce80b7b3347d1c7a561ce611425f2664d7aa51f0b5d\n        /* \"poseidon-solidity/PoseidonT3.sol\":35747:35900  add(0x18168afd34f2d915d0368ce80b7b3347d1c7a561ce611425f2664d7aa51f0b5d, add(add(mulmod(state0, M01, F), mulmod(state1, M11, F)), mulmod(state2, M21, F))) */\n      add\n        /* \"poseidon-solidity/PoseidonT3.sol\":35735:35900  scratch1 := add(0x18168afd34f2d915d0368ce80b7b3347d1c7a561ce611425f2664d7aa51f0b5d, add(add(mulmod(state0, M01, F), mulmod(state1, M11, F)), mulmod(state2, M21, F))) */\n      swap3\n      pop\n        /* \"poseidon-solidity/PoseidonT3.sol\":36068:36069  F */\n      dup10\n        /* \"poseidon-solidity/PoseidonT3.sol\":36063:36066  M22 */\n      dup8\n        /* \"poseidon-solidity/PoseidonT3.sol\":36055:36061  state2 */\n      dup7\n        /* \"poseidon-solidity/PoseidonT3.sol\":36048:36070  mulmod(state2, M22, F) */\n      mulmod\n        /* \"poseidon-solidity/PoseidonT3.sol\":36043:36044  F */\n      dup11\n        /* \"poseidon-solidity/PoseidonT3.sol\":36038:36041  M12 */\n      0x176cc029695ad02582a70eff08a6fd99d057e12e58e7d7b6b16cdfabc8ee2911\n        /* \"poseidon-solidity/PoseidonT3.sol\":36030:36036  state1 */\n      dup9\n        /* \"poseidon-solidity/PoseidonT3.sol\":36023:36045  mulmod(state1, M12, F) */\n      mulmod\n        /* \"poseidon-solidity/PoseidonT3.sol\":36019:36020  F */\n      dup12\n        /* \"poseidon-solidity/PoseidonT3.sol\":36014:36017  M02 */\n      0x143021ec686a3f330d5f9e654638065ce6cd79e28c5b3753326244ee65a1b1a7\n        /* \"poseidon-solidity/PoseidonT3.sol\":36006:36012  state0 */\n      dup5\n        /* \"poseidon-solidity/PoseidonT3.sol\":35999:36021  mulmod(state0, M02, F) */\n      mulmod\n        /* \"poseidon-solidity/PoseidonT3.sol\":35995:36046  add(mulmod(state0, M02, F), mulmod(state1, M12, F)) */\n      add\n        /* \"poseidon-solidity/PoseidonT3.sol\":35991:36071  add(add(mulmod(state0, M02, F), mulmod(state1, M12, F)), mulmod(state2, M22, F)) */\n      add\n        /* \"poseidon-solidity/PoseidonT3.sol\":35923:35989  0x29383c01ebd3b6ab0c017656ebe658b6a328ec77bc33626e29e2e95b33ea6111 */\n      0x29383c01ebd3b6ab0c017656ebe658b6a328ec77bc33626e29e2e95b33ea6111\n        /* \"poseidon-solidity/PoseidonT3.sol\":35919:36072  add(0x29383c01ebd3b6ab0c017656ebe658b6a328ec77bc33626e29e2e95b33ea6111, add(add(mulmod(state0, M02, F), mulmod(state1, M12, F)), mulmod(state2, M22, F))) */\n      add\n        /* \"poseidon-solidity/PoseidonT3.sol\":35907:36072  scratch2 := add(0x29383c01ebd3b6ab0c017656ebe658b6a328ec77bc33626e29e2e95b33ea6111, add(add(mulmod(state0, M02, F), mulmod(state1, M12, F)), mulmod(state2, M22, F))) */\n      swap2\n      pop\n        /* \"poseidon-solidity/PoseidonT3.sol\":36116:36117  F */\n      dup10\n        /* \"poseidon-solidity/PoseidonT3.sol\":36106:36114  scratch0 */\n      dup5\n        /* \"poseidon-solidity/PoseidonT3.sol\":36096:36104  scratch0 */\n      dup6\n        /* \"poseidon-solidity/PoseidonT3.sol\":36089:36118  mulmod(scratch0, scratch0, F) */\n      mulmod\n        /* \"poseidon-solidity/PoseidonT3.sol\":36079:36118  state0 := mulmod(scratch0, scratch0, F) */\n      swap1\n      pop\n        /* \"poseidon-solidity/PoseidonT3.sol\":36181:36182  F */\n      dup10\n        /* \"poseidon-solidity/PoseidonT3.sol\":36171:36179  scratch0 */\n      dup5\n        /* \"poseidon-solidity/PoseidonT3.sol\":36167:36168  F */\n      dup12\n        /* \"poseidon-solidity/PoseidonT3.sol\":36159:36165  state0 */\n      dup4\n        /* \"poseidon-solidity/PoseidonT3.sol\":36151:36157  state0 */\n      dup5\n        /* \"poseidon-solidity/PoseidonT3.sol\":36144:36169  mulmod(state0, state0, F) */\n      mulmod\n        /* \"poseidon-solidity/PoseidonT3.sol\":36137:36183  mulmod(mulmod(state0, state0, F), scratch0, F) */\n      mulmod\n        /* \"poseidon-solidity/PoseidonT3.sol\":36125:36183  scratch0 := mulmod(mulmod(state0, state0, F), scratch0, F) */\n      swap4\n      pop\n        /* \"poseidon-solidity/PoseidonT3.sol\":36355:36356  F */\n      dup10\n        /* \"poseidon-solidity/PoseidonT3.sol\":36350:36353  M20 */\n      dup10\n        /* \"poseidon-solidity/PoseidonT3.sol\":36340:36348  scratch2 */\n      dup4\n        /* \"poseidon-solidity/PoseidonT3.sol\":36333:36357  mulmod(scratch2, M20, F) */\n      mulmod\n        /* \"poseidon-solidity/PoseidonT3.sol\":36328:36329  F */\n      dup11\n        /* \"poseidon-solidity/PoseidonT3.sol\":36323:36326  M10 */\n      0x16ed41e13bb9c0c66ae119424fddbcbc9314dc9fdbdeea55d6c64543dc4903e0\n        /* \"poseidon-solidity/PoseidonT3.sol\":36313:36321  scratch1 */\n      dup6\n        /* \"poseidon-solidity/PoseidonT3.sol\":36306:36330  mulmod(scratch1, M10, F) */\n      mulmod\n        /* \"poseidon-solidity/PoseidonT3.sol\":36302:36303  F */\n      dup12\n        /* \"poseidon-solidity/PoseidonT3.sol\":36297:36300  M00 */\n      0x109b7f411ba0e4c9b2b70caf5c36a7b194be7c11ad24378bfedb68592ba8118b\n        /* \"poseidon-solidity/PoseidonT3.sol\":36287:36295  scratch0 */\n      dup8\n        /* \"poseidon-solidity/PoseidonT3.sol\":36280:36304  mulmod(scratch0, M00, F) */\n      mulmod\n        /* \"poseidon-solidity/PoseidonT3.sol\":36276:36331  add(mulmod(scratch0, M00, F), mulmod(scratch1, M10, F)) */\n      add\n        /* \"poseidon-solidity/PoseidonT3.sol\":36272:36358  add(add(mulmod(scratch0, M00, F), mulmod(scratch1, M10, F)), mulmod(scratch2, M20, F)) */\n      add\n        /* \"poseidon-solidity/PoseidonT3.sol\":36204:36270  0x10646d2f2603de39a1f4ae5e7771a64a702db6e86fb76ab600bf573f9010c711 */\n      0x10646d2f2603de39a1f4ae5e7771a64a702db6e86fb76ab600bf573f9010c711\n        /* \"poseidon-solidity/PoseidonT3.sol\":36200:36359  add(0x10646d2f2603de39a1f4ae5e7771a64a702db6e86fb76ab600bf573f9010c711, add(add(mulmod(scratch0, M00, F), mulmod(scratch1, M10, F)), mulmod(scratch2, M20, F))) */\n      add\n        /* \"poseidon-solidity/PoseidonT3.sol\":36190:36359  state0 := add(0x10646d2f2603de39a1f4ae5e7771a64a702db6e86fb76ab600bf573f9010c711, add(add(mulmod(scratch0, M00, F), mulmod(scratch1, M10, F)), mulmod(scratch2, M20, F))) */\n      swap1\n      pop\n        /* \"poseidon-solidity/PoseidonT3.sol\":36531:36532  F */\n      dup10\n        /* \"poseidon-solidity/PoseidonT3.sol\":36526:36529  M21 */\n      dup9\n        /* \"poseidon-solidity/PoseidonT3.sol\":36516:36524  scratch2 */\n      dup4\n        /* \"poseidon-solidity/PoseidonT3.sol\":36509:36533  mulmod(scratch2, M21, F) */\n      mulmod\n        /* \"poseidon-solidity/PoseidonT3.sol\":36504:36505  F */\n      dup11\n        /* \"poseidon-solidity/PoseidonT3.sol\":36499:36502  M11 */\n      0x2e2419f9ec02ec394c9871c832963dc1b89d743c8c7b964029b2311687b1fe23\n        /* \"poseidon-solidity/PoseidonT3.sol\":36489:36497  scratch1 */\n      dup6\n        /* \"poseidon-solidity/PoseidonT3.sol\":36482:36506  mulmod(scratch1, M11, F) */\n      mulmod\n        /* \"poseidon-solidity/PoseidonT3.sol\":36478:36479  F */\n      dup12\n        /* \"poseidon-solidity/PoseidonT3.sol\":36473:36476  M01 */\n      0x2969f27eed31a480b9c36c764379dbca2cc8fdd1415c3dded62940bcde0bd771\n        /* \"poseidon-solidity/PoseidonT3.sol\":36463:36471  scratch0 */\n      dup8\n        /* \"poseidon-solidity/PoseidonT3.sol\":36456:36480  mulmod(scratch0, M01, F) */\n      mulmod\n        /* \"poseidon-solidity/PoseidonT3.sol\":36452:36507  add(mulmod(scratch0, M01, F), mulmod(scratch1, M11, F)) */\n      add\n        /* \"poseidon-solidity/PoseidonT3.sol\":36448:36534  add(add(mulmod(scratch0, M01, F), mulmod(scratch1, M11, F)), mulmod(scratch2, M21, F)) */\n      add\n        /* \"poseidon-solidity/PoseidonT3.sol\":36380:36446  0x0beb5e07d1b27145f575f1395a55bf132f90c25b40da7b3864d0242dcb1117fb */\n      0x0beb5e07d1b27145f575f1395a55bf132f90c25b40da7b3864d0242dcb1117fb\n        /* \"poseidon-solidity/PoseidonT3.sol\":36376:36535  add(0x0beb5e07d1b27145f575f1395a55bf132f90c25b40da7b3864d0242dcb1117fb, add(add(mulmod(scratch0, M01, F), mulmod(scratch1, M11, F)), mulmod(scratch2, M21, F))) */\n      add\n        /* \"poseidon-solidity/PoseidonT3.sol\":36366:36535  state1 := add(0x0beb5e07d1b27145f575f1395a55bf132f90c25b40da7b3864d0242dcb1117fb, add(add(mulmod(scratch0, M01, F), mulmod(scratch1, M11, F)), mulmod(scratch2, M21, F))) */\n      swap6\n      pop\n        /* \"poseidon-solidity/PoseidonT3.sol\":36707:36708  F */\n      dup10\n        /* \"poseidon-solidity/PoseidonT3.sol\":36702:36705  M22 */\n      dup8\n        /* \"poseidon-solidity/PoseidonT3.sol\":36692:36700  scratch2 */\n      dup4\n        /* \"poseidon-solidity/PoseidonT3.sol\":36685:36709  mulmod(scratch2, M22, F) */\n      mulmod\n        /* \"poseidon-solidity/PoseidonT3.sol\":36680:36681  F */\n      dup11\n        /* \"poseidon-solidity/PoseidonT3.sol\":36675:36678  M12 */\n      0x176cc029695ad02582a70eff08a6fd99d057e12e58e7d7b6b16cdfabc8ee2911\n        /* \"poseidon-solidity/PoseidonT3.sol\":36665:36673  scratch1 */\n      dup6\n        /* \"poseidon-solidity/PoseidonT3.sol\":36658:36682  mulmod(scratch1, M12, F) */\n      mulmod\n        /* \"poseidon-solidity/PoseidonT3.sol\":36654:36655  F */\n      dup12\n        /* \"poseidon-solidity/PoseidonT3.sol\":36649:36652  M02 */\n      0x143021ec686a3f330d5f9e654638065ce6cd79e28c5b3753326244ee65a1b1a7\n        /* \"poseidon-solidity/PoseidonT3.sol\":36639:36647  scratch0 */\n      dup8\n        /* \"poseidon-solidity/PoseidonT3.sol\":36632:36656  mulmod(scratch0, M02, F) */\n      mulmod\n        /* \"poseidon-solidity/PoseidonT3.sol\":36628:36683  add(mulmod(scratch0, M02, F), mulmod(scratch1, M12, F)) */\n      add\n        /* \"poseidon-solidity/PoseidonT3.sol\":36624:36710  add(add(mulmod(scratch0, M02, F), mulmod(scratch1, M12, F)), mulmod(scratch2, M22, F)) */\n      add\n        /* \"poseidon-solidity/PoseidonT3.sol\":36556:36622  0x16d685252078c133dc0d3ecad62b5c8830f95bb2e54b59abdffbf018d96fa336 */\n      0x16d685252078c133dc0d3ecad62b5c8830f95bb2e54b59abdffbf018d96fa336\n        /* \"poseidon-solidity/PoseidonT3.sol\":36552:36711  add(0x16d685252078c133dc0d3ecad62b5c8830f95bb2e54b59abdffbf018d96fa336, add(add(mulmod(scratch0, M02, F), mulmod(scratch1, M12, F)), mulmod(scratch2, M22, F))) */\n      add\n        /* \"poseidon-solidity/PoseidonT3.sol\":36542:36711  state2 := add(0x16d685252078c133dc0d3ecad62b5c8830f95bb2e54b59abdffbf018d96fa336, add(add(mulmod(scratch0, M02, F), mulmod(scratch1, M12, F)), mulmod(scratch2, M22, F))) */\n      swap5\n      pop\n        /* \"poseidon-solidity/PoseidonT3.sol\":36753:36754  F */\n      dup10\n        /* \"poseidon-solidity/PoseidonT3.sol\":36745:36751  state0 */\n      dup2\n        /* \"poseidon-solidity/PoseidonT3.sol\":36737:36743  state0 */\n      dup3\n        /* \"poseidon-solidity/PoseidonT3.sol\":36730:36755  mulmod(state0, state0, F) */\n      mulmod\n        /* \"poseidon-solidity/PoseidonT3.sol\":36718:36755  scratch0 := mulmod(state0, state0, F) */\n      swap4\n      pop\n        /* \"poseidon-solidity/PoseidonT3.sol\":36818:36819  F */\n      dup10\n        /* \"poseidon-solidity/PoseidonT3.sol\":36810:36816  state0 */\n      dup2\n        /* \"poseidon-solidity/PoseidonT3.sol\":36806:36807  F */\n      dup12\n        /* \"poseidon-solidity/PoseidonT3.sol\":36796:36804  scratch0 */\n      dup7\n        /* \"poseidon-solidity/PoseidonT3.sol\":36786:36794  scratch0 */\n      dup8\n        /* \"poseidon-solidity/PoseidonT3.sol\":36779:36808  mulmod(scratch0, scratch0, F) */\n      mulmod\n        /* \"poseidon-solidity/PoseidonT3.sol\":36772:36820  mulmod(mulmod(scratch0, scratch0, F), state0, F) */\n      mulmod\n        /* \"poseidon-solidity/PoseidonT3.sol\":36762:36820  state0 := mulmod(mulmod(scratch0, scratch0, F), state0, F) */\n      swap1\n      pop\n        /* \"poseidon-solidity/PoseidonT3.sol\":36988:36989  F */\n      dup10\n        /* \"poseidon-solidity/PoseidonT3.sol\":36983:36986  M20 */\n      dup10\n        /* \"poseidon-solidity/PoseidonT3.sol\":36975:36981  state2 */\n      dup7\n        /* \"poseidon-solidity/PoseidonT3.sol\":36968:36990  mulmod(state2, M20, F) */\n      mulmod\n        /* \"poseidon-solidity/PoseidonT3.sol\":36963:36964  F */\n      dup11\n        /* \"poseidon-solidity/PoseidonT3.sol\":36958:36961  M10 */\n      0x16ed41e13bb9c0c66ae119424fddbcbc9314dc9fdbdeea55d6c64543dc4903e0\n        /* \"poseidon-solidity/PoseidonT3.sol\":36950:36956  state1 */\n      dup9\n        /* \"poseidon-solidity/PoseidonT3.sol\":36943:36965  mulmod(state1, M10, F) */\n      mulmod\n        /* \"poseidon-solidity/PoseidonT3.sol\":36939:36940  F */\n      dup12\n        /* \"poseidon-solidity/PoseidonT3.sol\":36934:36937  M00 */\n      0x109b7f411ba0e4c9b2b70caf5c36a7b194be7c11ad24378bfedb68592ba8118b\n        /* \"poseidon-solidity/PoseidonT3.sol\":36926:36932  state0 */\n      dup5\n        /* \"poseidon-solidity/PoseidonT3.sol\":36919:36941  mulmod(state0, M00, F) */\n      mulmod\n        /* \"poseidon-solidity/PoseidonT3.sol\":36915:36966  add(mulmod(state0, M00, F), mulmod(state1, M10, F)) */\n      add\n        /* \"poseidon-solidity/PoseidonT3.sol\":36911:36991  add(add(mulmod(state0, M00, F), mulmod(state1, M10, F)), mulmod(state2, M20, F)) */\n      add\n        /* \"poseidon-solidity/PoseidonT3.sol\":36843:36909  0x0a6abd1d833938f33c74154e0404b4b40a555bbbec21ddfafd672dd62047f01a */\n      0x0a6abd1d833938f33c74154e0404b4b40a555bbbec21ddfafd672dd62047f01a\n        /* \"poseidon-solidity/PoseidonT3.sol\":36839:36992  add(0x0a6abd1d833938f33c74154e0404b4b40a555bbbec21ddfafd672dd62047f01a, add(add(mulmod(state0, M00, F), mulmod(state1, M10, F)), mulmod(state2, M20, F))) */\n      add\n        /* \"poseidon-solidity/PoseidonT3.sol\":36827:36992  scratch0 := add(0x0a6abd1d833938f33c74154e0404b4b40a555bbbec21ddfafd672dd62047f01a, add(add(mulmod(state0, M00, F), mulmod(state1, M10, F)), mulmod(state2, M20, F))) */\n      swap4\n      pop\n        /* \"poseidon-solidity/PoseidonT3.sol\":37160:37161  F */\n      dup10\n        /* \"poseidon-solidity/PoseidonT3.sol\":37155:37158  M21 */\n      dup9\n        /* \"poseidon-solidity/PoseidonT3.sol\":37147:37153  state2 */\n      dup7\n        /* \"poseidon-solidity/PoseidonT3.sol\":37140:37162  mulmod(state2, M21, F) */\n      mulmod\n        /* \"poseidon-solidity/PoseidonT3.sol\":37135:37136  F */\n      dup11\n        /* \"poseidon-solidity/PoseidonT3.sol\":37130:37133  M11 */\n      0x2e2419f9ec02ec394c9871c832963dc1b89d743c8c7b964029b2311687b1fe23\n        /* \"poseidon-solidity/PoseidonT3.sol\":37122:37128  state1 */\n      dup9\n        /* \"poseidon-solidity/PoseidonT3.sol\":37115:37137  mulmod(state1, M11, F) */\n      mulmod\n        /* \"poseidon-solidity/PoseidonT3.sol\":37111:37112  F */\n      dup12\n        /* \"poseidon-solidity/PoseidonT3.sol\":37106:37109  M01 */\n      0x2969f27eed31a480b9c36c764379dbca2cc8fdd1415c3dded62940bcde0bd771\n        /* \"poseidon-solidity/PoseidonT3.sol\":37098:37104  state0 */\n      dup5\n        /* \"poseidon-solidity/PoseidonT3.sol\":37091:37113  mulmod(state0, M01, F) */\n      mulmod\n        /* \"poseidon-solidity/PoseidonT3.sol\":37087:37138  add(mulmod(state0, M01, F), mulmod(state1, M11, F)) */\n      add\n        /* \"poseidon-solidity/PoseidonT3.sol\":37083:37163  add(add(mulmod(state0, M01, F), mulmod(state1, M11, F)), mulmod(state2, M21, F)) */\n      add\n        /* \"poseidon-solidity/PoseidonT3.sol\":37015:37081  0x1a679f5d36eb7b5c8ea12a4c2dedc8feb12dffeec450317270a6f19b34cf1860 */\n      0x1a679f5d36eb7b5c8ea12a4c2dedc8feb12dffeec450317270a6f19b34cf1860\n        /* \"poseidon-solidity/PoseidonT3.sol\":37011:37164  add(0x1a679f5d36eb7b5c8ea12a4c2dedc8feb12dffeec450317270a6f19b34cf1860, add(add(mulmod(state0, M01, F), mulmod(state1, M11, F)), mulmod(state2, M21, F))) */\n      add\n        /* \"poseidon-solidity/PoseidonT3.sol\":36999:37164  scratch1 := add(0x1a679f5d36eb7b5c8ea12a4c2dedc8feb12dffeec450317270a6f19b34cf1860, add(add(mulmod(state0, M01, F), mulmod(state1, M11, F)), mulmod(state2, M21, F))) */\n      swap3\n      pop\n        /* \"poseidon-solidity/PoseidonT3.sol\":37332:37333  F */\n      dup10\n        /* \"poseidon-solidity/PoseidonT3.sol\":37327:37330  M22 */\n      dup8\n        /* \"poseidon-solidity/PoseidonT3.sol\":37319:37325  state2 */\n      dup7\n        /* \"poseidon-solidity/PoseidonT3.sol\":37312:37334  mulmod(state2, M22, F) */\n      mulmod\n        /* \"poseidon-solidity/PoseidonT3.sol\":37307:37308  F */\n      dup11\n        /* \"poseidon-solidity/PoseidonT3.sol\":37302:37305  M12 */\n      0x176cc029695ad02582a70eff08a6fd99d057e12e58e7d7b6b16cdfabc8ee2911\n        /* \"poseidon-solidity/PoseidonT3.sol\":37294:37300  state1 */\n      dup9\n        /* \"poseidon-solidity/PoseidonT3.sol\":37287:37309  mulmod(state1, M12, F) */\n      mulmod\n        /* \"poseidon-solidity/PoseidonT3.sol\":37283:37284  F */\n      dup12\n        /* \"poseidon-solidity/PoseidonT3.sol\":37278:37281  M02 */\n      0x143021ec686a3f330d5f9e654638065ce6cd79e28c5b3753326244ee65a1b1a7\n        /* \"poseidon-solidity/PoseidonT3.sol\":37270:37276  state0 */\n      dup5\n        /* \"poseidon-solidity/PoseidonT3.sol\":37263:37285  mulmod(state0, M02, F) */\n      mulmod\n        /* \"poseidon-solidity/PoseidonT3.sol\":37259:37310  add(mulmod(state0, M02, F), mulmod(state1, M12, F)) */\n      add\n        /* \"poseidon-solidity/PoseidonT3.sol\":37255:37335  add(add(mulmod(state0, M02, F), mulmod(state1, M12, F)), mulmod(state2, M22, F)) */\n      add\n        /* \"poseidon-solidity/PoseidonT3.sol\":37187:37253  0x0980fb233bd456c23974d50e0ebfde4726a423eada4e8f6ffbc7592e3f1b93d6 */\n      0x0980fb233bd456c23974d50e0ebfde4726a423eada4e8f6ffbc7592e3f1b93d6\n        /* \"poseidon-solidity/PoseidonT3.sol\":37183:37336  add(0x0980fb233bd456c23974d50e0ebfde4726a423eada4e8f6ffbc7592e3f1b93d6, add(add(mulmod(state0, M02, F), mulmod(state1, M12, F)), mulmod(state2, M22, F))) */\n      add\n        /* \"poseidon-solidity/PoseidonT3.sol\":37171:37336  scratch2 := add(0x0980fb233bd456c23974d50e0ebfde4726a423eada4e8f6ffbc7592e3f1b93d6, add(add(mulmod(state0, M02, F), mulmod(state1, M12, F)), mulmod(state2, M22, F))) */\n      swap2\n      pop\n        /* \"poseidon-solidity/PoseidonT3.sol\":37380:37381  F */\n      dup10\n        /* \"poseidon-solidity/PoseidonT3.sol\":37370:37378  scratch0 */\n      dup5\n        /* \"poseidon-solidity/PoseidonT3.sol\":37360:37368  scratch0 */\n      dup6\n        /* \"poseidon-solidity/PoseidonT3.sol\":37353:37382  mulmod(scratch0, scratch0, F) */\n      mulmod\n        /* \"poseidon-solidity/PoseidonT3.sol\":37343:37382  state0 := mulmod(scratch0, scratch0, F) */\n      swap1\n      pop\n        /* \"poseidon-solidity/PoseidonT3.sol\":37445:37446  F */\n      dup10\n        /* \"poseidon-solidity/PoseidonT3.sol\":37435:37443  scratch0 */\n      dup5\n        /* \"poseidon-solidity/PoseidonT3.sol\":37431:37432  F */\n      dup12\n        /* \"poseidon-solidity/PoseidonT3.sol\":37423:37429  state0 */\n      dup4\n        /* \"poseidon-solidity/PoseidonT3.sol\":37415:37421  state0 */\n      dup5\n        /* \"poseidon-solidity/PoseidonT3.sol\":37408:37433  mulmod(state0, state0, F) */\n      mulmod\n        /* \"poseidon-solidity/PoseidonT3.sol\":37401:37447  mulmod(mulmod(state0, state0, F), scratch0, F) */\n      mulmod\n        /* \"poseidon-solidity/PoseidonT3.sol\":37389:37447  scratch0 := mulmod(mulmod(state0, state0, F), scratch0, F) */\n      swap4\n      pop\n        /* \"poseidon-solidity/PoseidonT3.sol\":37619:37620  F */\n      dup10\n        /* \"poseidon-solidity/PoseidonT3.sol\":37614:37617  M20 */\n      dup10\n        /* \"poseidon-solidity/PoseidonT3.sol\":37604:37612  scratch2 */\n      dup4\n        /* \"poseidon-solidity/PoseidonT3.sol\":37597:37621  mulmod(scratch2, M20, F) */\n      mulmod\n        /* \"poseidon-solidity/PoseidonT3.sol\":37592:37593  F */\n      dup11\n        /* \"poseidon-solidity/PoseidonT3.sol\":37587:37590  M10 */\n      0x16ed41e13bb9c0c66ae119424fddbcbc9314dc9fdbdeea55d6c64543dc4903e0\n        /* \"poseidon-solidity/PoseidonT3.sol\":37577:37585  scratch1 */\n      dup6\n        /* \"poseidon-solidity/PoseidonT3.sol\":37570:37594  mulmod(scratch1, M10, F) */\n      mulmod\n        /* \"poseidon-solidity/PoseidonT3.sol\":37566:37567  F */\n      dup12\n        /* \"poseidon-solidity/PoseidonT3.sol\":37561:37564  M00 */\n      0x109b7f411ba0e4c9b2b70caf5c36a7b194be7c11ad24378bfedb68592ba8118b\n        /* \"poseidon-solidity/PoseidonT3.sol\":37551:37559  scratch0 */\n      dup8\n        /* \"poseidon-solidity/PoseidonT3.sol\":37544:37568  mulmod(scratch0, M00, F) */\n      mulmod\n        /* \"poseidon-solidity/PoseidonT3.sol\":37540:37595  add(mulmod(scratch0, M00, F), mulmod(scratch1, M10, F)) */\n      add\n        /* \"poseidon-solidity/PoseidonT3.sol\":37536:37622  add(add(mulmod(scratch0, M00, F), mulmod(scratch1, M10, F)), mulmod(scratch2, M20, F)) */\n      add\n        /* \"poseidon-solidity/PoseidonT3.sol\":37468:37534  0x161b42232e61b84cbf1810af93a38fc0cece3d5628c9282003ebacb5c312c72b */\n      0x161b42232e61b84cbf1810af93a38fc0cece3d5628c9282003ebacb5c312c72b\n        /* \"poseidon-solidity/PoseidonT3.sol\":37464:37623  add(0x161b42232e61b84cbf1810af93a38fc0cece3d5628c9282003ebacb5c312c72b, add(add(mulmod(scratch0, M00, F), mulmod(scratch1, M10, F)), mulmod(scratch2, M20, F))) */\n      add\n        /* \"poseidon-solidity/PoseidonT3.sol\":37454:37623  state0 := add(0x161b42232e61b84cbf1810af93a38fc0cece3d5628c9282003ebacb5c312c72b, add(add(mulmod(scratch0, M00, F), mulmod(scratch1, M10, F)), mulmod(scratch2, M20, F))) */\n      swap1\n      pop\n        /* \"poseidon-solidity/PoseidonT3.sol\":37795:37796  F */\n      dup10\n        /* \"poseidon-solidity/PoseidonT3.sol\":37790:37793  M21 */\n      dup9\n        /* \"poseidon-solidity/PoseidonT3.sol\":37780:37788  scratch2 */\n      dup4\n        /* \"poseidon-solidity/PoseidonT3.sol\":37773:37797  mulmod(scratch2, M21, F) */\n      mulmod\n        /* \"poseidon-solidity/PoseidonT3.sol\":37768:37769  F */\n      dup11\n        /* \"poseidon-solidity/PoseidonT3.sol\":37763:37766  M11 */\n      0x2e2419f9ec02ec394c9871c832963dc1b89d743c8c7b964029b2311687b1fe23\n        /* \"poseidon-solidity/PoseidonT3.sol\":37753:37761  scratch1 */\n      dup6\n        /* \"poseidon-solidity/PoseidonT3.sol\":37746:37770  mulmod(scratch1, M11, F) */\n      mulmod\n        /* \"poseidon-solidity/PoseidonT3.sol\":37742:37743  F */\n      dup12\n        /* \"poseidon-solidity/PoseidonT3.sol\":37737:37740  M01 */\n      0x2969f27eed31a480b9c36c764379dbca2cc8fdd1415c3dded62940bcde0bd771\n        /* \"poseidon-solidity/PoseidonT3.sol\":37727:37735  scratch0 */\n      dup8\n        /* \"poseidon-solidity/PoseidonT3.sol\":37720:37744  mulmod(scratch0, M01, F) */\n      mulmod\n        /* \"poseidon-solidity/PoseidonT3.sol\":37716:37771  add(mulmod(scratch0, M01, F), mulmod(scratch1, M11, F)) */\n      add\n        /* \"poseidon-solidity/PoseidonT3.sol\":37712:37798  add(add(mulmod(scratch0, M01, F), mulmod(scratch1, M11, F)), mulmod(scratch2, M21, F)) */\n      add\n        /* \"poseidon-solidity/PoseidonT3.sol\":37644:37710  0x0ada10a90c7f0520950f7d47a60d5e6a493f09787f1564e5d09203db47de1a0b */\n      0x0ada10a90c7f0520950f7d47a60d5e6a493f09787f1564e5d09203db47de1a0b\n        /* \"poseidon-solidity/PoseidonT3.sol\":37640:37799  add(0x0ada10a90c7f0520950f7d47a60d5e6a493f09787f1564e5d09203db47de1a0b, add(add(mulmod(scratch0, M01, F), mulmod(scratch1, M11, F)), mulmod(scratch2, M21, F))) */\n      add\n        /* \"poseidon-solidity/PoseidonT3.sol\":37630:37799  state1 := add(0x0ada10a90c7f0520950f7d47a60d5e6a493f09787f1564e5d09203db47de1a0b, add(add(mulmod(scratch0, M01, F), mulmod(scratch1, M11, F)), mulmod(scratch2, M21, F))) */\n      swap6\n      pop\n        /* \"poseidon-solidity/PoseidonT3.sol\":37971:37972  F */\n      dup10\n        /* \"poseidon-solidity/PoseidonT3.sol\":37966:37969  M22 */\n      dup8\n        /* \"poseidon-solidity/PoseidonT3.sol\":37956:37964  scratch2 */\n      dup4\n        /* \"poseidon-solidity/PoseidonT3.sol\":37949:37973  mulmod(scratch2, M22, F) */\n      mulmod\n        /* \"poseidon-solidity/PoseidonT3.sol\":37944:37945  F */\n      dup11\n        /* \"poseidon-solidity/PoseidonT3.sol\":37939:37942  M12 */\n      0x176cc029695ad02582a70eff08a6fd99d057e12e58e7d7b6b16cdfabc8ee2911\n        /* \"poseidon-solidity/PoseidonT3.sol\":37929:37937  scratch1 */\n      dup6\n        /* \"poseidon-solidity/PoseidonT3.sol\":37922:37946  mulmod(scratch1, M12, F) */\n      mulmod\n        /* \"poseidon-solidity/PoseidonT3.sol\":37918:37919  F */\n      dup12\n        /* \"poseidon-solidity/PoseidonT3.sol\":37913:37916  M02 */\n      0x143021ec686a3f330d5f9e654638065ce6cd79e28c5b3753326244ee65a1b1a7\n        /* \"poseidon-solidity/PoseidonT3.sol\":37903:37911  scratch0 */\n      dup8\n        /* \"poseidon-solidity/PoseidonT3.sol\":37896:37920  mulmod(scratch0, M02, F) */\n      mulmod\n        /* \"poseidon-solidity/PoseidonT3.sol\":37892:37947  add(mulmod(scratch0, M02, F), mulmod(scratch1, M12, F)) */\n      add\n        /* \"poseidon-solidity/PoseidonT3.sol\":37888:37974  add(add(mulmod(scratch0, M02, F), mulmod(scratch1, M12, F)), mulmod(scratch2, M22, F)) */\n      add\n        /* \"poseidon-solidity/PoseidonT3.sol\":37820:37886  0x1a730d372310ba82320345a29ac4238ed3f07a8a2b4e121bb50ddb9af407f451 */\n      0x1a730d372310ba82320345a29ac4238ed3f07a8a2b4e121bb50ddb9af407f451\n        /* \"poseidon-solidity/PoseidonT3.sol\":37816:37975  add(0x1a730d372310ba82320345a29ac4238ed3f07a8a2b4e121bb50ddb9af407f451, add(add(mulmod(scratch0, M02, F), mulmod(scratch1, M12, F)), mulmod(scratch2, M22, F))) */\n      add\n        /* \"poseidon-solidity/PoseidonT3.sol\":37806:37975  state2 := add(0x1a730d372310ba82320345a29ac4238ed3f07a8a2b4e121bb50ddb9af407f451, add(add(mulmod(scratch0, M02, F), mulmod(scratch1, M12, F)), mulmod(scratch2, M22, F))) */\n      swap5\n      pop\n        /* \"poseidon-solidity/PoseidonT3.sol\":38017:38018  F */\n      dup10\n        /* \"poseidon-solidity/PoseidonT3.sol\":38009:38015  state0 */\n      dup2\n        /* \"poseidon-solidity/PoseidonT3.sol\":38001:38007  state0 */\n      dup3\n        /* \"poseidon-solidity/PoseidonT3.sol\":37994:38019  mulmod(state0, state0, F) */\n      mulmod\n        /* \"poseidon-solidity/PoseidonT3.sol\":37982:38019  scratch0 := mulmod(state0, state0, F) */\n      swap4\n      pop\n        /* \"poseidon-solidity/PoseidonT3.sol\":38082:38083  F */\n      dup10\n        /* \"poseidon-solidity/PoseidonT3.sol\":38074:38080  state0 */\n      dup2\n        /* \"poseidon-solidity/PoseidonT3.sol\":38070:38071  F */\n      dup12\n        /* \"poseidon-solidity/PoseidonT3.sol\":38060:38068  scratch0 */\n      dup7\n        /* \"poseidon-solidity/PoseidonT3.sol\":38050:38058  scratch0 */\n      dup8\n        /* \"poseidon-solidity/PoseidonT3.sol\":38043:38072  mulmod(scratch0, scratch0, F) */\n      mulmod\n        /* \"poseidon-solidity/PoseidonT3.sol\":38036:38084  mulmod(mulmod(scratch0, scratch0, F), state0, F) */\n      mulmod\n        /* \"poseidon-solidity/PoseidonT3.sol\":38026:38084  state0 := mulmod(mulmod(scratch0, scratch0, F), state0, F) */\n      swap1\n      pop\n        /* \"poseidon-solidity/PoseidonT3.sol\":38252:38253  F */\n      dup10\n        /* \"poseidon-solidity/PoseidonT3.sol\":38247:38250  M20 */\n      dup10\n        /* \"poseidon-solidity/PoseidonT3.sol\":38239:38245  state2 */\n      dup7\n        /* \"poseidon-solidity/PoseidonT3.sol\":38232:38254  mulmod(state2, M20, F) */\n      mulmod\n        /* \"poseidon-solidity/PoseidonT3.sol\":38227:38228  F */\n      dup11\n        /* \"poseidon-solidity/PoseidonT3.sol\":38222:38225  M10 */\n      0x16ed41e13bb9c0c66ae119424fddbcbc9314dc9fdbdeea55d6c64543dc4903e0\n        /* \"poseidon-solidity/PoseidonT3.sol\":38214:38220  state1 */\n      dup9\n        /* \"poseidon-solidity/PoseidonT3.sol\":38207:38229  mulmod(state1, M10, F) */\n      mulmod\n        /* \"poseidon-solidity/PoseidonT3.sol\":38203:38204  F */\n      dup12\n        /* \"poseidon-solidity/PoseidonT3.sol\":38198:38201  M00 */\n      0x109b7f411ba0e4c9b2b70caf5c36a7b194be7c11ad24378bfedb68592ba8118b\n        /* \"poseidon-solidity/PoseidonT3.sol\":38190:38196  state0 */\n      dup5\n        /* \"poseidon-solidity/PoseidonT3.sol\":38183:38205  mulmod(state0, M00, F) */\n      mulmod\n        /* \"poseidon-solidity/PoseidonT3.sol\":38179:38230  add(mulmod(state0, M00, F), mulmod(state1, M10, F)) */\n      add\n        /* \"poseidon-solidity/PoseidonT3.sol\":38175:38255  add(add(mulmod(state0, M00, F), mulmod(state1, M10, F)), mulmod(state2, M20, F)) */\n      add\n        /* \"poseidon-solidity/PoseidonT3.sol\":38107:38173  0x2c8120f268ef054f817064c369dda7ea908377feaba5c4dffbda10ef58e8c556 */\n      0x2c8120f268ef054f817064c369dda7ea908377feaba5c4dffbda10ef58e8c556\n        /* \"poseidon-solidity/PoseidonT3.sol\":38103:38256  add(0x2c8120f268ef054f817064c369dda7ea908377feaba5c4dffbda10ef58e8c556, add(add(mulmod(state0, M00, F), mulmod(state1, M10, F)), mulmod(state2, M20, F))) */\n      add\n        /* \"poseidon-solidity/PoseidonT3.sol\":38091:38256  scratch0 := add(0x2c8120f268ef054f817064c369dda7ea908377feaba5c4dffbda10ef58e8c556, add(add(mulmod(state0, M00, F), mulmod(state1, M10, F)), mulmod(state2, M20, F))) */\n      swap4\n      pop\n        /* \"poseidon-solidity/PoseidonT3.sol\":38424:38425  F */\n      dup10\n        /* \"poseidon-solidity/PoseidonT3.sol\":38419:38422  M21 */\n      dup9\n        /* \"poseidon-solidity/PoseidonT3.sol\":38411:38417  state2 */\n      dup7\n        /* \"poseidon-solidity/PoseidonT3.sol\":38404:38426  mulmod(state2, M21, F) */\n      mulmod\n        /* \"poseidon-solidity/PoseidonT3.sol\":38399:38400  F */\n      dup11\n        /* \"poseidon-solidity/PoseidonT3.sol\":38394:38397  M11 */\n      0x2e2419f9ec02ec394c9871c832963dc1b89d743c8c7b964029b2311687b1fe23\n        /* \"poseidon-solidity/PoseidonT3.sol\":38386:38392  state1 */\n      dup9\n        /* \"poseidon-solidity/PoseidonT3.sol\":38379:38401  mulmod(state1, M11, F) */\n      mulmod\n        /* \"poseidon-solidity/PoseidonT3.sol\":38375:38376  F */\n      dup12\n        /* \"poseidon-solidity/PoseidonT3.sol\":38370:38373  M01 */\n      0x2969f27eed31a480b9c36c764379dbca2cc8fdd1415c3dded62940bcde0bd771\n        /* \"poseidon-solidity/PoseidonT3.sol\":38362:38368  state0 */\n      dup5\n        /* \"poseidon-solidity/PoseidonT3.sol\":38355:38377  mulmod(state0, M01, F) */\n      mulmod\n        /* \"poseidon-solidity/PoseidonT3.sol\":38351:38402  add(mulmod(state0, M01, F), mulmod(state1, M11, F)) */\n      add\n        /* \"poseidon-solidity/PoseidonT3.sol\":38347:38427  add(add(mulmod(state0, M01, F), mulmod(state1, M11, F)), mulmod(state2, M21, F)) */\n      add\n        /* \"poseidon-solidity/PoseidonT3.sol\":38279:38345  0x1c7c8824f758753fa57c00789c684217b930e95313bcb73e6e7b8649a4968f70 */\n      0x1c7c8824f758753fa57c00789c684217b930e95313bcb73e6e7b8649a4968f70\n        /* \"poseidon-solidity/PoseidonT3.sol\":38275:38428  add(0x1c7c8824f758753fa57c00789c684217b930e95313bcb73e6e7b8649a4968f70, add(add(mulmod(state0, M01, F), mulmod(state1, M11, F)), mulmod(state2, M21, F))) */\n      add\n        /* \"poseidon-solidity/PoseidonT3.sol\":38263:38428  scratch1 := add(0x1c7c8824f758753fa57c00789c684217b930e95313bcb73e6e7b8649a4968f70, add(add(mulmod(state0, M01, F), mulmod(state1, M11, F)), mulmod(state2, M21, F))) */\n      swap3\n      pop\n        /* \"poseidon-solidity/PoseidonT3.sol\":38596:38597  F */\n      dup10\n        /* \"poseidon-solidity/PoseidonT3.sol\":38591:38594  M22 */\n      dup8\n        /* \"poseidon-solidity/PoseidonT3.sol\":38583:38589  state2 */\n      dup7\n        /* \"poseidon-solidity/PoseidonT3.sol\":38576:38598  mulmod(state2, M22, F) */\n      mulmod\n        /* \"poseidon-solidity/PoseidonT3.sol\":38571:38572  F */\n      dup11\n        /* \"poseidon-solidity/PoseidonT3.sol\":38566:38569  M12 */\n      0x176cc029695ad02582a70eff08a6fd99d057e12e58e7d7b6b16cdfabc8ee2911\n        /* \"poseidon-solidity/PoseidonT3.sol\":38558:38564  state1 */\n      dup9\n        /* \"poseidon-solidity/PoseidonT3.sol\":38551:38573  mulmod(state1, M12, F) */\n      mulmod\n        /* \"poseidon-solidity/PoseidonT3.sol\":38547:38548  F */\n      dup12\n        /* \"poseidon-solidity/PoseidonT3.sol\":38542:38545  M02 */\n      0x143021ec686a3f330d5f9e654638065ce6cd79e28c5b3753326244ee65a1b1a7\n        /* \"poseidon-solidity/PoseidonT3.sol\":38534:38540  state0 */\n      dup5\n        /* \"poseidon-solidity/PoseidonT3.sol\":38527:38549  mulmod(state0, M02, F) */\n      mulmod\n        /* \"poseidon-solidity/PoseidonT3.sol\":38523:38574  add(mulmod(state0, M02, F), mulmod(state1, M12, F)) */\n      add\n        /* \"poseidon-solidity/PoseidonT3.sol\":38519:38599  add(add(mulmod(state0, M02, F), mulmod(state1, M12, F)), mulmod(state2, M22, F)) */\n      add\n        /* \"poseidon-solidity/PoseidonT3.sol\":38451:38517  0x2cd9ed31f5f8691c8e39e4077a74faa0f400ad8b491eb3f7b47b27fa3fd1cf77 */\n      0x2cd9ed31f5f8691c8e39e4077a74faa0f400ad8b491eb3f7b47b27fa3fd1cf77\n        /* \"poseidon-solidity/PoseidonT3.sol\":38447:38600  add(0x2cd9ed31f5f8691c8e39e4077a74faa0f400ad8b491eb3f7b47b27fa3fd1cf77, add(add(mulmod(state0, M02, F), mulmod(state1, M12, F)), mulmod(state2, M22, F))) */\n      add\n        /* \"poseidon-solidity/PoseidonT3.sol\":38435:38600  scratch2 := add(0x2cd9ed31f5f8691c8e39e4077a74faa0f400ad8b491eb3f7b47b27fa3fd1cf77, add(add(mulmod(state0, M02, F), mulmod(state1, M12, F)), mulmod(state2, M22, F))) */\n      swap2\n      pop\n        /* \"poseidon-solidity/PoseidonT3.sol\":38644:38645  F */\n      dup10\n        /* \"poseidon-solidity/PoseidonT3.sol\":38634:38642  scratch0 */\n      dup5\n        /* \"poseidon-solidity/PoseidonT3.sol\":38624:38632  scratch0 */\n      dup6\n        /* \"poseidon-solidity/PoseidonT3.sol\":38617:38646  mulmod(scratch0, scratch0, F) */\n      mulmod\n        /* \"poseidon-solidity/PoseidonT3.sol\":38607:38646  state0 := mulmod(scratch0, scratch0, F) */\n      swap1\n      pop\n        /* \"poseidon-solidity/PoseidonT3.sol\":38709:38710  F */\n      dup10\n        /* \"poseidon-solidity/PoseidonT3.sol\":38699:38707  scratch0 */\n      dup5\n        /* \"poseidon-solidity/PoseidonT3.sol\":38695:38696  F */\n      dup12\n        /* \"poseidon-solidity/PoseidonT3.sol\":38687:38693  state0 */\n      dup4\n        /* \"poseidon-solidity/PoseidonT3.sol\":38679:38685  state0 */\n      dup5\n        /* \"poseidon-solidity/PoseidonT3.sol\":38672:38697  mulmod(state0, state0, F) */\n      mulmod\n        /* \"poseidon-solidity/PoseidonT3.sol\":38665:38711  mulmod(mulmod(state0, state0, F), scratch0, F) */\n      mulmod\n        /* \"poseidon-solidity/PoseidonT3.sol\":38653:38711  scratch0 := mulmod(mulmod(state0, state0, F), scratch0, F) */\n      swap4\n      pop\n        /* \"poseidon-solidity/PoseidonT3.sol\":38883:38884  F */\n      dup10\n        /* \"poseidon-solidity/PoseidonT3.sol\":38878:38881  M20 */\n      dup10\n        /* \"poseidon-solidity/PoseidonT3.sol\":38868:38876  scratch2 */\n      dup4\n        /* \"poseidon-solidity/PoseidonT3.sol\":38861:38885  mulmod(scratch2, M20, F) */\n      mulmod\n        /* \"poseidon-solidity/PoseidonT3.sol\":38856:38857  F */\n      dup11\n        /* \"poseidon-solidity/PoseidonT3.sol\":38851:38854  M10 */\n      0x16ed41e13bb9c0c66ae119424fddbcbc9314dc9fdbdeea55d6c64543dc4903e0\n        /* \"poseidon-solidity/PoseidonT3.sol\":38841:38849  scratch1 */\n      dup6\n        /* \"poseidon-solidity/PoseidonT3.sol\":38834:38858  mulmod(scratch1, M10, F) */\n      mulmod\n        /* \"poseidon-solidity/PoseidonT3.sol\":38830:38831  F */\n      dup12\n        /* \"poseidon-solidity/PoseidonT3.sol\":38825:38828  M00 */\n      0x109b7f411ba0e4c9b2b70caf5c36a7b194be7c11ad24378bfedb68592ba8118b\n        /* \"poseidon-solidity/PoseidonT3.sol\":38815:38823  scratch0 */\n      dup8\n        /* \"poseidon-solidity/PoseidonT3.sol\":38808:38832  mulmod(scratch0, M00, F) */\n      mulmod\n        /* \"poseidon-solidity/PoseidonT3.sol\":38804:38859  add(mulmod(scratch0, M00, F), mulmod(scratch1, M10, F)) */\n      add\n        /* \"poseidon-solidity/PoseidonT3.sol\":38800:38886  add(add(mulmod(scratch0, M00, F), mulmod(scratch1, M10, F)), mulmod(scratch2, M20, F)) */\n      add\n        /* \"poseidon-solidity/PoseidonT3.sol\":38732:38798  0x23ff4f9d46813457cf60d92f57618399a5e022ac321ca550854ae23918a22eea */\n      0x23ff4f9d46813457cf60d92f57618399a5e022ac321ca550854ae23918a22eea\n        /* \"poseidon-solidity/PoseidonT3.sol\":38728:38887  add(0x23ff4f9d46813457cf60d92f57618399a5e022ac321ca550854ae23918a22eea, add(add(mulmod(scratch0, M00, F), mulmod(scratch1, M10, F)), mulmod(scratch2, M20, F))) */\n      add\n        /* \"poseidon-solidity/PoseidonT3.sol\":38718:38887  state0 := add(0x23ff4f9d46813457cf60d92f57618399a5e022ac321ca550854ae23918a22eea, add(add(mulmod(scratch0, M00, F), mulmod(scratch1, M10, F)), mulmod(scratch2, M20, F))) */\n      swap1\n      pop\n        /* \"poseidon-solidity/PoseidonT3.sol\":39059:39060  F */\n      dup10\n        /* \"poseidon-solidity/PoseidonT3.sol\":39054:39057  M21 */\n      dup9\n        /* \"poseidon-solidity/PoseidonT3.sol\":39044:39052  scratch2 */\n      dup4\n        /* \"poseidon-solidity/PoseidonT3.sol\":39037:39061  mulmod(scratch2, M21, F) */\n      mulmod\n        /* \"poseidon-solidity/PoseidonT3.sol\":39032:39033  F */\n      dup11\n        /* \"poseidon-solidity/PoseidonT3.sol\":39027:39030  M11 */\n      0x2e2419f9ec02ec394c9871c832963dc1b89d743c8c7b964029b2311687b1fe23\n        /* \"poseidon-solidity/PoseidonT3.sol\":39017:39025  scratch1 */\n      dup6\n        /* \"poseidon-solidity/PoseidonT3.sol\":39010:39034  mulmod(scratch1, M11, F) */\n      mulmod\n        /* \"poseidon-solidity/PoseidonT3.sol\":39006:39007  F */\n      dup12\n        /* \"poseidon-solidity/PoseidonT3.sol\":39001:39004  M01 */\n      0x2969f27eed31a480b9c36c764379dbca2cc8fdd1415c3dded62940bcde0bd771\n        /* \"poseidon-solidity/PoseidonT3.sol\":38991:38999  scratch0 */\n      dup8\n        /* \"poseidon-solidity/PoseidonT3.sol\":38984:39008  mulmod(scratch0, M01, F) */\n      mulmod\n        /* \"poseidon-solidity/PoseidonT3.sol\":38980:39035  add(mulmod(scratch0, M01, F), mulmod(scratch1, M11, F)) */\n      add\n        /* \"poseidon-solidity/PoseidonT3.sol\":38976:39062  add(add(mulmod(scratch0, M01, F), mulmod(scratch1, M11, F)), mulmod(scratch2, M21, F)) */\n      add\n        /* \"poseidon-solidity/PoseidonT3.sol\":38908:38974  0x09945a5d147a4f66ceece6405dddd9d0af5a2c5103529407dff1ea58f180426d */\n      0x09945a5d147a4f66ceece6405dddd9d0af5a2c5103529407dff1ea58f180426d\n        /* \"poseidon-solidity/PoseidonT3.sol\":38904:39063  add(0x09945a5d147a4f66ceece6405dddd9d0af5a2c5103529407dff1ea58f180426d, add(add(mulmod(scratch0, M01, F), mulmod(scratch1, M11, F)), mulmod(scratch2, M21, F))) */\n      add\n        /* \"poseidon-solidity/PoseidonT3.sol\":38894:39063  state1 := add(0x09945a5d147a4f66ceece6405dddd9d0af5a2c5103529407dff1ea58f180426d, add(add(mulmod(scratch0, M01, F), mulmod(scratch1, M11, F)), mulmod(scratch2, M21, F))) */\n      swap6\n      pop\n        /* \"poseidon-solidity/PoseidonT3.sol\":39235:39236  F */\n      dup10\n        /* \"poseidon-solidity/PoseidonT3.sol\":39230:39233  M22 */\n      dup8\n        /* \"poseidon-solidity/PoseidonT3.sol\":39220:39228  scratch2 */\n      dup4\n        /* \"poseidon-solidity/PoseidonT3.sol\":39213:39237  mulmod(scratch2, M22, F) */\n      mulmod\n        /* \"poseidon-solidity/PoseidonT3.sol\":39208:39209  F */\n      dup11\n        /* \"poseidon-solidity/PoseidonT3.sol\":39203:39206  M12 */\n      0x176cc029695ad02582a70eff08a6fd99d057e12e58e7d7b6b16cdfabc8ee2911\n        /* \"poseidon-solidity/PoseidonT3.sol\":39193:39201  scratch1 */\n      dup6\n        /* \"poseidon-solidity/PoseidonT3.sol\":39186:39210  mulmod(scratch1, M12, F) */\n      mulmod\n        /* \"poseidon-solidity/PoseidonT3.sol\":39182:39183  F */\n      dup12\n        /* \"poseidon-solidity/PoseidonT3.sol\":39177:39180  M02 */\n      0x143021ec686a3f330d5f9e654638065ce6cd79e28c5b3753326244ee65a1b1a7\n        /* \"poseidon-solidity/PoseidonT3.sol\":39167:39175  scratch0 */\n      dup8\n        /* \"poseidon-solidity/PoseidonT3.sol\":39160:39184  mulmod(scratch0, M02, F) */\n      mulmod\n        /* \"poseidon-solidity/PoseidonT3.sol\":39156:39211  add(mulmod(scratch0, M02, F), mulmod(scratch1, M12, F)) */\n      add\n        /* \"poseidon-solidity/PoseidonT3.sol\":39152:39238  add(add(mulmod(scratch0, M02, F), mulmod(scratch1, M12, F)), mulmod(scratch2, M22, F)) */\n      add\n        /* \"poseidon-solidity/PoseidonT3.sol\":39084:39150  0x188d9c528025d4c2b67660c6b771b90f7c7da6eaa29d3f268a6dd223ec6fc630 */\n      0x188d9c528025d4c2b67660c6b771b90f7c7da6eaa29d3f268a6dd223ec6fc630\n        /* \"poseidon-solidity/PoseidonT3.sol\":39080:39239  add(0x188d9c528025d4c2b67660c6b771b90f7c7da6eaa29d3f268a6dd223ec6fc630, add(add(mulmod(scratch0, M02, F), mulmod(scratch1, M12, F)), mulmod(scratch2, M22, F))) */\n      add\n        /* \"poseidon-solidity/PoseidonT3.sol\":39070:39239  state2 := add(0x188d9c528025d4c2b67660c6b771b90f7c7da6eaa29d3f268a6dd223ec6fc630, add(add(mulmod(scratch0, M02, F), mulmod(scratch1, M12, F)), mulmod(scratch2, M22, F))) */\n      swap5\n      pop\n        /* \"poseidon-solidity/PoseidonT3.sol\":39281:39282  F */\n      dup10\n        /* \"poseidon-solidity/PoseidonT3.sol\":39273:39279  state0 */\n      dup2\n        /* \"poseidon-solidity/PoseidonT3.sol\":39265:39271  state0 */\n      dup3\n        /* \"poseidon-solidity/PoseidonT3.sol\":39258:39283  mulmod(state0, state0, F) */\n      mulmod\n        /* \"poseidon-solidity/PoseidonT3.sol\":39246:39283  scratch0 := mulmod(state0, state0, F) */\n      swap4\n      pop\n        /* \"poseidon-solidity/PoseidonT3.sol\":39346:39347  F */\n      dup10\n        /* \"poseidon-solidity/PoseidonT3.sol\":39338:39344  state0 */\n      dup2\n        /* \"poseidon-solidity/PoseidonT3.sol\":39334:39335  F */\n      dup12\n        /* \"poseidon-solidity/PoseidonT3.sol\":39324:39332  scratch0 */\n      dup7\n        /* \"poseidon-solidity/PoseidonT3.sol\":39314:39322  scratch0 */\n      dup8\n        /* \"poseidon-solidity/PoseidonT3.sol\":39307:39336  mulmod(scratch0, scratch0, F) */\n      mulmod\n        /* \"poseidon-solidity/PoseidonT3.sol\":39300:39348  mulmod(mulmod(scratch0, scratch0, F), state0, F) */\n      mulmod\n        /* \"poseidon-solidity/PoseidonT3.sol\":39290:39348  state0 := mulmod(mulmod(scratch0, scratch0, F), state0, F) */\n      swap1\n      pop\n        /* \"poseidon-solidity/PoseidonT3.sol\":39516:39517  F */\n      dup10\n        /* \"poseidon-solidity/PoseidonT3.sol\":39511:39514  M20 */\n      dup10\n        /* \"poseidon-solidity/PoseidonT3.sol\":39503:39509  state2 */\n      dup7\n        /* \"poseidon-solidity/PoseidonT3.sol\":39496:39518  mulmod(state2, M20, F) */\n      mulmod\n        /* \"poseidon-solidity/PoseidonT3.sol\":39491:39492  F */\n      dup11\n        /* \"poseidon-solidity/PoseidonT3.sol\":39486:39489  M10 */\n      0x16ed41e13bb9c0c66ae119424fddbcbc9314dc9fdbdeea55d6c64543dc4903e0\n        /* \"poseidon-solidity/PoseidonT3.sol\":39478:39484  state1 */\n      dup9\n        /* \"poseidon-solidity/PoseidonT3.sol\":39471:39493  mulmod(state1, M10, F) */\n      mulmod\n        /* \"poseidon-solidity/PoseidonT3.sol\":39467:39468  F */\n      dup12\n        /* \"poseidon-solidity/PoseidonT3.sol\":39462:39465  M00 */\n      0x109b7f411ba0e4c9b2b70caf5c36a7b194be7c11ad24378bfedb68592ba8118b\n        /* \"poseidon-solidity/PoseidonT3.sol\":39454:39460  state0 */\n      dup5\n        /* \"poseidon-solidity/PoseidonT3.sol\":39447:39469  mulmod(state0, M00, F) */\n      mulmod\n        /* \"poseidon-solidity/PoseidonT3.sol\":39443:39494  add(mulmod(state0, M00, F), mulmod(state1, M10, F)) */\n      add\n        /* \"poseidon-solidity/PoseidonT3.sol\":39439:39519  add(add(mulmod(state0, M00, F), mulmod(state1, M10, F)), mulmod(state2, M20, F)) */\n      add\n        /* \"poseidon-solidity/PoseidonT3.sol\":39371:39437  0x3050e37996596b7f81f68311431d8734dba7d926d3633595e0c0d8ddf4f0f47f */\n      0x3050e37996596b7f81f68311431d8734dba7d926d3633595e0c0d8ddf4f0f47f\n        /* \"poseidon-solidity/PoseidonT3.sol\":39367:39520  add(0x3050e37996596b7f81f68311431d8734dba7d926d3633595e0c0d8ddf4f0f47f, add(add(mulmod(state0, M00, F), mulmod(state1, M10, F)), mulmod(state2, M20, F))) */\n      add\n        /* \"poseidon-solidity/PoseidonT3.sol\":39355:39520  scratch0 := add(0x3050e37996596b7f81f68311431d8734dba7d926d3633595e0c0d8ddf4f0f47f, add(add(mulmod(state0, M00, F), mulmod(state1, M10, F)), mulmod(state2, M20, F))) */\n      swap4\n      pop\n        /* \"poseidon-solidity/PoseidonT3.sol\":39688:39689  F */\n      dup10\n        /* \"poseidon-solidity/PoseidonT3.sol\":39683:39686  M21 */\n      dup9\n        /* \"poseidon-solidity/PoseidonT3.sol\":39675:39681  state2 */\n      dup7\n        /* \"poseidon-solidity/PoseidonT3.sol\":39668:39690  mulmod(state2, M21, F) */\n      mulmod\n        /* \"poseidon-solidity/PoseidonT3.sol\":39663:39664  F */\n      dup11\n        /* \"poseidon-solidity/PoseidonT3.sol\":39658:39661  M11 */\n      0x2e2419f9ec02ec394c9871c832963dc1b89d743c8c7b964029b2311687b1fe23\n        /* \"poseidon-solidity/PoseidonT3.sol\":39650:39656  state1 */\n      dup9\n        /* \"poseidon-solidity/PoseidonT3.sol\":39643:39665  mulmod(state1, M11, F) */\n      mulmod\n        /* \"poseidon-solidity/PoseidonT3.sol\":39639:39640  F */\n      dup12\n        /* \"poseidon-solidity/PoseidonT3.sol\":39634:39637  M01 */\n      0x2969f27eed31a480b9c36c764379dbca2cc8fdd1415c3dded62940bcde0bd771\n        /* \"poseidon-solidity/PoseidonT3.sol\":39626:39632  state0 */\n      dup5\n        /* \"poseidon-solidity/PoseidonT3.sol\":39619:39641  mulmod(state0, M01, F) */\n      mulmod\n        /* \"poseidon-solidity/PoseidonT3.sol\":39615:39666  add(mulmod(state0, M01, F), mulmod(state1, M11, F)) */\n      add\n        /* \"poseidon-solidity/PoseidonT3.sol\":39611:39691  add(add(mulmod(state0, M01, F), mulmod(state1, M11, F)), mulmod(state2, M21, F)) */\n      add\n        /* \"poseidon-solidity/PoseidonT3.sol\":39543:39609  0x15af1169396830a91600ca8102c35c426ceae5461e3f95d89d829518d30afd78 */\n      0x15af1169396830a91600ca8102c35c426ceae5461e3f95d89d829518d30afd78\n        /* \"poseidon-solidity/PoseidonT3.sol\":39539:39692  add(0x15af1169396830a91600ca8102c35c426ceae5461e3f95d89d829518d30afd78, add(add(mulmod(state0, M01, F), mulmod(state1, M11, F)), mulmod(state2, M21, F))) */\n      add\n        /* \"poseidon-solidity/PoseidonT3.sol\":39527:39692  scratch1 := add(0x15af1169396830a91600ca8102c35c426ceae5461e3f95d89d829518d30afd78, add(add(mulmod(state0, M01, F), mulmod(state1, M11, F)), mulmod(state2, M21, F))) */\n      swap3\n      pop\n        /* \"poseidon-solidity/PoseidonT3.sol\":39860:39861  F */\n      dup10\n        /* \"poseidon-solidity/PoseidonT3.sol\":39855:39858  M22 */\n      dup8\n        /* \"poseidon-solidity/PoseidonT3.sol\":39847:39853  state2 */\n      dup7\n        /* \"poseidon-solidity/PoseidonT3.sol\":39840:39862  mulmod(state2, M22, F) */\n      mulmod\n        /* \"poseidon-solidity/PoseidonT3.sol\":39835:39836  F */\n      dup11\n        /* \"poseidon-solidity/PoseidonT3.sol\":39830:39833  M12 */\n      0x176cc029695ad02582a70eff08a6fd99d057e12e58e7d7b6b16cdfabc8ee2911\n        /* \"poseidon-solidity/PoseidonT3.sol\":39822:39828  state1 */\n      dup9\n        /* \"poseidon-solidity/PoseidonT3.sol\":39815:39837  mulmod(state1, M12, F) */\n      mulmod\n        /* \"poseidon-solidity/PoseidonT3.sol\":39811:39812  F */\n      dup12\n        /* \"poseidon-solidity/PoseidonT3.sol\":39806:39809  M02 */\n      0x143021ec686a3f330d5f9e654638065ce6cd79e28c5b3753326244ee65a1b1a7\n        /* \"poseidon-solidity/PoseidonT3.sol\":39798:39804  state0 */\n      dup5\n        /* \"poseidon-solidity/PoseidonT3.sol\":39791:39813  mulmod(state0, M02, F) */\n      mulmod\n        /* \"poseidon-solidity/PoseidonT3.sol\":39787:39838  add(mulmod(state0, M02, F), mulmod(state1, M12, F)) */\n      add\n        /* \"poseidon-solidity/PoseidonT3.sol\":39783:39863  add(add(mulmod(state0, M02, F), mulmod(state1, M12, F)), mulmod(state2, M22, F)) */\n      add\n        /* \"poseidon-solidity/PoseidonT3.sol\":39715:39781  0x1da6d09885432ea9a06d9f37f873d985dae933e351466b2904284da3320d8acc */\n      0x1da6d09885432ea9a06d9f37f873d985dae933e351466b2904284da3320d8acc\n        /* \"poseidon-solidity/PoseidonT3.sol\":39711:39864  add(0x1da6d09885432ea9a06d9f37f873d985dae933e351466b2904284da3320d8acc, add(add(mulmod(state0, M02, F), mulmod(state1, M12, F)), mulmod(state2, M22, F))) */\n      add\n        /* \"poseidon-solidity/PoseidonT3.sol\":39699:39864  scratch2 := add(0x1da6d09885432ea9a06d9f37f873d985dae933e351466b2904284da3320d8acc, add(add(mulmod(state0, M02, F), mulmod(state1, M12, F)), mulmod(state2, M22, F))) */\n      swap2\n      pop\n        /* \"poseidon-solidity/PoseidonT3.sol\":39908:39909  F */\n      dup10\n        /* \"poseidon-solidity/PoseidonT3.sol\":39898:39906  scratch0 */\n      dup5\n        /* \"poseidon-solidity/PoseidonT3.sol\":39888:39896  scratch0 */\n      dup6\n        /* \"poseidon-solidity/PoseidonT3.sol\":39881:39910  mulmod(scratch0, scratch0, F) */\n      mulmod\n        /* \"poseidon-solidity/PoseidonT3.sol\":39871:39910  state0 := mulmod(scratch0, scratch0, F) */\n      swap1\n      pop\n        /* \"poseidon-solidity/PoseidonT3.sol\":39973:39974  F */\n      dup10\n        /* \"poseidon-solidity/PoseidonT3.sol\":39963:39971  scratch0 */\n      dup5\n        /* \"poseidon-solidity/PoseidonT3.sol\":39959:39960  F */\n      dup12\n        /* \"poseidon-solidity/PoseidonT3.sol\":39951:39957  state0 */\n      dup4\n        /* \"poseidon-solidity/PoseidonT3.sol\":39943:39949  state0 */\n      dup5\n        /* \"poseidon-solidity/PoseidonT3.sol\":39936:39961  mulmod(state0, state0, F) */\n      mulmod\n        /* \"poseidon-solidity/PoseidonT3.sol\":39929:39975  mulmod(mulmod(state0, state0, F), scratch0, F) */\n      mulmod\n        /* \"poseidon-solidity/PoseidonT3.sol\":39917:39975  scratch0 := mulmod(mulmod(state0, state0, F), scratch0, F) */\n      swap4\n      pop\n        /* \"poseidon-solidity/PoseidonT3.sol\":40147:40148  F */\n      dup10\n        /* \"poseidon-solidity/PoseidonT3.sol\":40142:40145  M20 */\n      dup10\n        /* \"poseidon-solidity/PoseidonT3.sol\":40132:40140  scratch2 */\n      dup4\n        /* \"poseidon-solidity/PoseidonT3.sol\":40125:40149  mulmod(scratch2, M20, F) */\n      mulmod\n        /* \"poseidon-solidity/PoseidonT3.sol\":40120:40121  F */\n      dup11\n        /* \"poseidon-solidity/PoseidonT3.sol\":40115:40118  M10 */\n      0x16ed41e13bb9c0c66ae119424fddbcbc9314dc9fdbdeea55d6c64543dc4903e0\n        /* \"poseidon-solidity/PoseidonT3.sol\":40105:40113  scratch1 */\n      dup6\n        /* \"poseidon-solidity/PoseidonT3.sol\":40098:40122  mulmod(scratch1, M10, F) */\n      mulmod\n        /* \"poseidon-solidity/PoseidonT3.sol\":40094:40095  F */\n      dup12\n        /* \"poseidon-solidity/PoseidonT3.sol\":40089:40092  M00 */\n      0x109b7f411ba0e4c9b2b70caf5c36a7b194be7c11ad24378bfedb68592ba8118b\n        /* \"poseidon-solidity/PoseidonT3.sol\":40079:40087  scratch0 */\n      dup8\n        /* \"poseidon-solidity/PoseidonT3.sol\":40072:40096  mulmod(scratch0, M00, F) */\n      mulmod\n        /* \"poseidon-solidity/PoseidonT3.sol\":40068:40123  add(mulmod(scratch0, M00, F), mulmod(scratch1, M10, F)) */\n      add\n        /* \"poseidon-solidity/PoseidonT3.sol\":40064:40150  add(add(mulmod(scratch0, M00, F), mulmod(scratch1, M10, F)), mulmod(scratch2, M20, F)) */\n      add\n        /* \"poseidon-solidity/PoseidonT3.sol\":39996:40062  0x2796ea90d269af29f5f8acf33921124e4e4fad3dbe658945e546ee411ddaa9cb */\n      0x2796ea90d269af29f5f8acf33921124e4e4fad3dbe658945e546ee411ddaa9cb\n        /* \"poseidon-solidity/PoseidonT3.sol\":39992:40151  add(0x2796ea90d269af29f5f8acf33921124e4e4fad3dbe658945e546ee411ddaa9cb, add(add(mulmod(scratch0, M00, F), mulmod(scratch1, M10, F)), mulmod(scratch2, M20, F))) */\n      add\n        /* \"poseidon-solidity/PoseidonT3.sol\":39982:40151  state0 := add(0x2796ea90d269af29f5f8acf33921124e4e4fad3dbe658945e546ee411ddaa9cb, add(add(mulmod(scratch0, M00, F), mulmod(scratch1, M10, F)), mulmod(scratch2, M20, F))) */\n      swap1\n      pop\n        /* \"poseidon-solidity/PoseidonT3.sol\":40323:40324  F */\n      dup10\n        /* \"poseidon-solidity/PoseidonT3.sol\":40318:40321  M21 */\n      dup9\n        /* \"poseidon-solidity/PoseidonT3.sol\":40308:40316  scratch2 */\n      dup4\n        /* \"poseidon-solidity/PoseidonT3.sol\":40301:40325  mulmod(scratch2, M21, F) */\n      mulmod\n        /* \"poseidon-solidity/PoseidonT3.sol\":40296:40297  F */\n      dup11\n        /* \"poseidon-solidity/PoseidonT3.sol\":40291:40294  M11 */\n      0x2e2419f9ec02ec394c9871c832963dc1b89d743c8c7b964029b2311687b1fe23\n        /* \"poseidon-solidity/PoseidonT3.sol\":40281:40289  scratch1 */\n      dup6\n        /* \"poseidon-solidity/PoseidonT3.sol\":40274:40298  mulmod(scratch1, M11, F) */\n      mulmod\n        /* \"poseidon-solidity/PoseidonT3.sol\":40270:40271  F */\n      dup12\n        /* \"poseidon-solidity/PoseidonT3.sol\":40265:40268  M01 */\n      0x2969f27eed31a480b9c36c764379dbca2cc8fdd1415c3dded62940bcde0bd771\n        /* \"poseidon-solidity/PoseidonT3.sol\":40255:40263  scratch0 */\n      dup8\n        /* \"poseidon-solidity/PoseidonT3.sol\":40248:40272  mulmod(scratch0, M01, F) */\n      mulmod\n        /* \"poseidon-solidity/PoseidonT3.sol\":40244:40299  add(mulmod(scratch0, M01, F), mulmod(scratch1, M11, F)) */\n      add\n        /* \"poseidon-solidity/PoseidonT3.sol\":40240:40326  add(add(mulmod(scratch0, M01, F), mulmod(scratch1, M11, F)), mulmod(scratch2, M21, F)) */\n      add\n        /* \"poseidon-solidity/PoseidonT3.sol\":40172:40238  0x202d7dd1da0f6b4b0325c8b3307742f01e15612ec8e9304a7cb0319e01d32d60 */\n      0x202d7dd1da0f6b4b0325c8b3307742f01e15612ec8e9304a7cb0319e01d32d60\n        /* \"poseidon-solidity/PoseidonT3.sol\":40168:40327  add(0x202d7dd1da0f6b4b0325c8b3307742f01e15612ec8e9304a7cb0319e01d32d60, add(add(mulmod(scratch0, M01, F), mulmod(scratch1, M11, F)), mulmod(scratch2, M21, F))) */\n      add\n        /* \"poseidon-solidity/PoseidonT3.sol\":40158:40327  state1 := add(0x202d7dd1da0f6b4b0325c8b3307742f01e15612ec8e9304a7cb0319e01d32d60, add(add(mulmod(scratch0, M01, F), mulmod(scratch1, M11, F)), mulmod(scratch2, M21, F))) */\n      swap6\n      pop\n        /* \"poseidon-solidity/PoseidonT3.sol\":40499:40500  F */\n      dup10\n        /* \"poseidon-solidity/PoseidonT3.sol\":40494:40497  M22 */\n      dup8\n        /* \"poseidon-solidity/PoseidonT3.sol\":40484:40492  scratch2 */\n      dup4\n        /* \"poseidon-solidity/PoseidonT3.sol\":40477:40501  mulmod(scratch2, M22, F) */\n      mulmod\n        /* \"poseidon-solidity/PoseidonT3.sol\":40472:40473  F */\n      dup11\n        /* \"poseidon-solidity/PoseidonT3.sol\":40467:40470  M12 */\n      0x176cc029695ad02582a70eff08a6fd99d057e12e58e7d7b6b16cdfabc8ee2911\n        /* \"poseidon-solidity/PoseidonT3.sol\":40457:40465  scratch1 */\n      dup6\n        /* \"poseidon-solidity/PoseidonT3.sol\":40450:40474  mulmod(scratch1, M12, F) */\n      mulmod\n        /* \"poseidon-solidity/PoseidonT3.sol\":40446:40447  F */\n      dup12\n        /* \"poseidon-solidity/PoseidonT3.sol\":40441:40444  M02 */\n      0x143021ec686a3f330d5f9e654638065ce6cd79e28c5b3753326244ee65a1b1a7\n        /* \"poseidon-solidity/PoseidonT3.sol\":40431:40439  scratch0 */\n      dup8\n        /* \"poseidon-solidity/PoseidonT3.sol\":40424:40448  mulmod(scratch0, M02, F) */\n      mulmod\n        /* \"poseidon-solidity/PoseidonT3.sol\":40420:40475  add(mulmod(scratch0, M02, F), mulmod(scratch1, M12, F)) */\n      add\n        /* \"poseidon-solidity/PoseidonT3.sol\":40416:40502  add(add(mulmod(scratch0, M02, F), mulmod(scratch1, M12, F)), mulmod(scratch2, M22, F)) */\n      add\n        /* \"poseidon-solidity/PoseidonT3.sol\":40348:40414  0x096d6790d05bb759156a952ba263d672a2d7f9c788f4c831a29dace4c0f8be5f */\n      0x096d6790d05bb759156a952ba263d672a2d7f9c788f4c831a29dace4c0f8be5f\n        /* \"poseidon-solidity/PoseidonT3.sol\":40344:40503  add(0x096d6790d05bb759156a952ba263d672a2d7f9c788f4c831a29dace4c0f8be5f, add(add(mulmod(scratch0, M02, F), mulmod(scratch1, M12, F)), mulmod(scratch2, M22, F))) */\n      add\n        /* \"poseidon-solidity/PoseidonT3.sol\":40334:40503  state2 := add(0x096d6790d05bb759156a952ba263d672a2d7f9c788f4c831a29dace4c0f8be5f, add(add(mulmod(scratch0, M02, F), mulmod(scratch1, M12, F)), mulmod(scratch2, M22, F))) */\n      swap5\n      pop\n        /* \"poseidon-solidity/PoseidonT3.sol\":40545:40546  F */\n      dup10\n        /* \"poseidon-solidity/PoseidonT3.sol\":40537:40543  state0 */\n      dup2\n        /* \"poseidon-solidity/PoseidonT3.sol\":40529:40535  state0 */\n      dup3\n        /* \"poseidon-solidity/PoseidonT3.sol\":40522:40547  mulmod(state0, state0, F) */\n      mulmod\n        /* \"poseidon-solidity/PoseidonT3.sol\":40510:40547  scratch0 := mulmod(state0, state0, F) */\n      swap4\n      pop\n        /* \"poseidon-solidity/PoseidonT3.sol\":40610:40611  F */\n      dup10\n        /* \"poseidon-solidity/PoseidonT3.sol\":40602:40608  state0 */\n      dup2\n        /* \"poseidon-solidity/PoseidonT3.sol\":40598:40599  F */\n      dup12\n        /* \"poseidon-solidity/PoseidonT3.sol\":40588:40596  scratch0 */\n      dup7\n        /* \"poseidon-solidity/PoseidonT3.sol\":40578:40586  scratch0 */\n      dup8\n        /* \"poseidon-solidity/PoseidonT3.sol\":40571:40600  mulmod(scratch0, scratch0, F) */\n      mulmod\n        /* \"poseidon-solidity/PoseidonT3.sol\":40564:40612  mulmod(mulmod(scratch0, scratch0, F), state0, F) */\n      mulmod\n        /* \"poseidon-solidity/PoseidonT3.sol\":40554:40612  state0 := mulmod(mulmod(scratch0, scratch0, F), state0, F) */\n      swap1\n      pop\n        /* \"poseidon-solidity/PoseidonT3.sol\":40780:40781  F */\n      dup10\n        /* \"poseidon-solidity/PoseidonT3.sol\":40775:40778  M20 */\n      dup10\n        /* \"poseidon-solidity/PoseidonT3.sol\":40767:40773  state2 */\n      dup7\n        /* \"poseidon-solidity/PoseidonT3.sol\":40760:40782  mulmod(state2, M20, F) */\n      mulmod\n        /* \"poseidon-solidity/PoseidonT3.sol\":40755:40756  F */\n      dup11\n        /* \"poseidon-solidity/PoseidonT3.sol\":40750:40753  M10 */\n      0x16ed41e13bb9c0c66ae119424fddbcbc9314dc9fdbdeea55d6c64543dc4903e0\n        /* \"poseidon-solidity/PoseidonT3.sol\":40742:40748  state1 */\n      dup9\n        /* \"poseidon-solidity/PoseidonT3.sol\":40735:40757  mulmod(state1, M10, F) */\n      mulmod\n        /* \"poseidon-solidity/PoseidonT3.sol\":40731:40732  F */\n      dup12\n        /* \"poseidon-solidity/PoseidonT3.sol\":40726:40729  M00 */\n      0x109b7f411ba0e4c9b2b70caf5c36a7b194be7c11ad24378bfedb68592ba8118b\n        /* \"poseidon-solidity/PoseidonT3.sol\":40718:40724  state0 */\n      dup5\n        /* \"poseidon-solidity/PoseidonT3.sol\":40711:40733  mulmod(state0, M00, F) */\n      mulmod\n        /* \"poseidon-solidity/PoseidonT3.sol\":40707:40758  add(mulmod(state0, M00, F), mulmod(state1, M10, F)) */\n      add\n        /* \"poseidon-solidity/PoseidonT3.sol\":40703:40783  add(add(mulmod(state0, M00, F), mulmod(state1, M10, F)), mulmod(state2, M20, F)) */\n      add\n        /* \"poseidon-solidity/PoseidonT3.sol\":40635:40701  0x054efa1f65b0fce283808965275d877b438da23ce5b13e1963798cb1447d25a4 */\n      0x054efa1f65b0fce283808965275d877b438da23ce5b13e1963798cb1447d25a4\n        /* \"poseidon-solidity/PoseidonT3.sol\":40631:40784  add(0x054efa1f65b0fce283808965275d877b438da23ce5b13e1963798cb1447d25a4, add(add(mulmod(state0, M00, F), mulmod(state1, M10, F)), mulmod(state2, M20, F))) */\n      add\n        /* \"poseidon-solidity/PoseidonT3.sol\":40619:40784  scratch0 := add(0x054efa1f65b0fce283808965275d877b438da23ce5b13e1963798cb1447d25a4, add(add(mulmod(state0, M00, F), mulmod(state1, M10, F)), mulmod(state2, M20, F))) */\n      swap4\n      pop\n        /* \"poseidon-solidity/PoseidonT3.sol\":40952:40953  F */\n      dup10\n        /* \"poseidon-solidity/PoseidonT3.sol\":40947:40950  M21 */\n      dup9\n        /* \"poseidon-solidity/PoseidonT3.sol\":40939:40945  state2 */\n      dup7\n        /* \"poseidon-solidity/PoseidonT3.sol\":40932:40954  mulmod(state2, M21, F) */\n      mulmod\n        /* \"poseidon-solidity/PoseidonT3.sol\":40927:40928  F */\n      dup11\n        /* \"poseidon-solidity/PoseidonT3.sol\":40922:40925  M11 */\n      0x2e2419f9ec02ec394c9871c832963dc1b89d743c8c7b964029b2311687b1fe23\n        /* \"poseidon-solidity/PoseidonT3.sol\":40914:40920  state1 */\n      dup9\n        /* \"poseidon-solidity/PoseidonT3.sol\":40907:40929  mulmod(state1, M11, F) */\n      mulmod\n        /* \"poseidon-solidity/PoseidonT3.sol\":40903:40904  F */\n      dup12\n        /* \"poseidon-solidity/PoseidonT3.sol\":40898:40901  M01 */\n      0x2969f27eed31a480b9c36c764379dbca2cc8fdd1415c3dded62940bcde0bd771\n        /* \"poseidon-solidity/PoseidonT3.sol\":40890:40896  state0 */\n      dup5\n        /* \"poseidon-solidity/PoseidonT3.sol\":40883:40905  mulmod(state0, M01, F) */\n      mulmod\n        /* \"poseidon-solidity/PoseidonT3.sol\":40879:40930  add(mulmod(state0, M01, F), mulmod(state1, M11, F)) */\n      add\n        /* \"poseidon-solidity/PoseidonT3.sol\":40875:40955  add(add(mulmod(state0, M01, F), mulmod(state1, M11, F)), mulmod(state2, M21, F)) */\n      add\n        /* \"poseidon-solidity/PoseidonT3.sol\":40807:40873  0x1b162f83d917e93edb3308c29802deb9d8aa690113b2e14864ccf6e18e4165f1 */\n      0x1b162f83d917e93edb3308c29802deb9d8aa690113b2e14864ccf6e18e4165f1\n        /* \"poseidon-solidity/PoseidonT3.sol\":40803:40956  add(0x1b162f83d917e93edb3308c29802deb9d8aa690113b2e14864ccf6e18e4165f1, add(add(mulmod(state0, M01, F), mulmod(state1, M11, F)), mulmod(state2, M21, F))) */\n      add\n        /* \"poseidon-solidity/PoseidonT3.sol\":40791:40956  scratch1 := add(0x1b162f83d917e93edb3308c29802deb9d8aa690113b2e14864ccf6e18e4165f1, add(add(mulmod(state0, M01, F), mulmod(state1, M11, F)), mulmod(state2, M21, F))) */\n      swap3\n      pop\n        /* \"poseidon-solidity/PoseidonT3.sol\":41124:41125  F */\n      dup10\n        /* \"poseidon-solidity/PoseidonT3.sol\":41119:41122  M22 */\n      dup8\n        /* \"poseidon-solidity/PoseidonT3.sol\":41111:41117  state2 */\n      dup7\n        /* \"poseidon-solidity/PoseidonT3.sol\":41104:41126  mulmod(state2, M22, F) */\n      mulmod\n        /* \"poseidon-solidity/PoseidonT3.sol\":41099:41100  F */\n      dup11\n        /* \"poseidon-solidity/PoseidonT3.sol\":41094:41097  M12 */\n      0x176cc029695ad02582a70eff08a6fd99d057e12e58e7d7b6b16cdfabc8ee2911\n        /* \"poseidon-solidity/PoseidonT3.sol\":41086:41092  state1 */\n      dup9\n        /* \"poseidon-solidity/PoseidonT3.sol\":41079:41101  mulmod(state1, M12, F) */\n      mulmod\n        /* \"poseidon-solidity/PoseidonT3.sol\":41075:41076  F */\n      dup12\n        /* \"poseidon-solidity/PoseidonT3.sol\":41070:41073  M02 */\n      0x143021ec686a3f330d5f9e654638065ce6cd79e28c5b3753326244ee65a1b1a7\n        /* \"poseidon-solidity/PoseidonT3.sol\":41062:41068  state0 */\n      dup5\n        /* \"poseidon-solidity/PoseidonT3.sol\":41055:41077  mulmod(state0, M02, F) */\n      mulmod\n        /* \"poseidon-solidity/PoseidonT3.sol\":41051:41102  add(mulmod(state0, M02, F), mulmod(state1, M12, F)) */\n      add\n        /* \"poseidon-solidity/PoseidonT3.sol\":41047:41127  add(add(mulmod(state0, M02, F), mulmod(state1, M12, F)), mulmod(state2, M22, F)) */\n      add\n        /* \"poseidon-solidity/PoseidonT3.sol\":40979:41045  0x21e5241e12564dd6fd9f1cdd2a0de39eedfefc1466cc568ec5ceb745a0506edc */\n      0x21e5241e12564dd6fd9f1cdd2a0de39eedfefc1466cc568ec5ceb745a0506edc\n        /* \"poseidon-solidity/PoseidonT3.sol\":40975:41128  add(0x21e5241e12564dd6fd9f1cdd2a0de39eedfefc1466cc568ec5ceb745a0506edc, add(add(mulmod(state0, M02, F), mulmod(state1, M12, F)), mulmod(state2, M22, F))) */\n      add\n        /* \"poseidon-solidity/PoseidonT3.sol\":40963:41128  scratch2 := add(0x21e5241e12564dd6fd9f1cdd2a0de39eedfefc1466cc568ec5ceb745a0506edc, add(add(mulmod(state0, M02, F), mulmod(state1, M12, F)), mulmod(state2, M22, F))) */\n      swap2\n      pop\n        /* \"poseidon-solidity/PoseidonT3.sol\":41172:41173  F */\n      dup10\n        /* \"poseidon-solidity/PoseidonT3.sol\":41162:41170  scratch0 */\n      dup5\n        /* \"poseidon-solidity/PoseidonT3.sol\":41152:41160  scratch0 */\n      dup6\n        /* \"poseidon-solidity/PoseidonT3.sol\":41145:41174  mulmod(scratch0, scratch0, F) */\n      mulmod\n        /* \"poseidon-solidity/PoseidonT3.sol\":41135:41174  state0 := mulmod(scratch0, scratch0, F) */\n      swap1\n      pop\n        /* \"poseidon-solidity/PoseidonT3.sol\":41237:41238  F */\n      dup10\n        /* \"poseidon-solidity/PoseidonT3.sol\":41227:41235  scratch0 */\n      dup5\n        /* \"poseidon-solidity/PoseidonT3.sol\":41223:41224  F */\n      dup12\n        /* \"poseidon-solidity/PoseidonT3.sol\":41215:41221  state0 */\n      dup4\n        /* \"poseidon-solidity/PoseidonT3.sol\":41207:41213  state0 */\n      dup5\n        /* \"poseidon-solidity/PoseidonT3.sol\":41200:41225  mulmod(state0, state0, F) */\n      mulmod\n        /* \"poseidon-solidity/PoseidonT3.sol\":41193:41239  mulmod(mulmod(state0, state0, F), scratch0, F) */\n      mulmod\n        /* \"poseidon-solidity/PoseidonT3.sol\":41181:41239  scratch0 := mulmod(mulmod(state0, state0, F), scratch0, F) */\n      swap4\n      pop\n        /* \"poseidon-solidity/PoseidonT3.sol\":41283:41284  F */\n      dup10\n        /* \"poseidon-solidity/PoseidonT3.sol\":41273:41281  scratch1 */\n      dup4\n        /* \"poseidon-solidity/PoseidonT3.sol\":41263:41271  scratch1 */\n      dup5\n        /* \"poseidon-solidity/PoseidonT3.sol\":41256:41285  mulmod(scratch1, scratch1, F) */\n      mulmod\n        /* \"poseidon-solidity/PoseidonT3.sol\":41246:41285  state0 := mulmod(scratch1, scratch1, F) */\n      swap1\n      pop\n        /* \"poseidon-solidity/PoseidonT3.sol\":41348:41349  F */\n      dup10\n        /* \"poseidon-solidity/PoseidonT3.sol\":41338:41346  scratch1 */\n      dup4\n        /* \"poseidon-solidity/PoseidonT3.sol\":41334:41335  F */\n      dup12\n        /* \"poseidon-solidity/PoseidonT3.sol\":41326:41332  state0 */\n      dup4\n        /* \"poseidon-solidity/PoseidonT3.sol\":41318:41324  state0 */\n      dup5\n        /* \"poseidon-solidity/PoseidonT3.sol\":41311:41336  mulmod(state0, state0, F) */\n      mulmod\n        /* \"poseidon-solidity/PoseidonT3.sol\":41304:41350  mulmod(mulmod(state0, state0, F), scratch1, F) */\n      mulmod\n        /* \"poseidon-solidity/PoseidonT3.sol\":41292:41350  scratch1 := mulmod(mulmod(state0, state0, F), scratch1, F) */\n      swap3\n      pop\n        /* \"poseidon-solidity/PoseidonT3.sol\":41394:41395  F */\n      dup10\n        /* \"poseidon-solidity/PoseidonT3.sol\":41384:41392  scratch2 */\n      dup3\n        /* \"poseidon-solidity/PoseidonT3.sol\":41374:41382  scratch2 */\n      dup4\n        /* \"poseidon-solidity/PoseidonT3.sol\":41367:41396  mulmod(scratch2, scratch2, F) */\n      mulmod\n        /* \"poseidon-solidity/PoseidonT3.sol\":41357:41396  state0 := mulmod(scratch2, scratch2, F) */\n      swap1\n      pop\n        /* \"poseidon-solidity/PoseidonT3.sol\":41459:41460  F */\n      dup10\n        /* \"poseidon-solidity/PoseidonT3.sol\":41449:41457  scratch2 */\n      dup3\n        /* \"poseidon-solidity/PoseidonT3.sol\":41445:41446  F */\n      dup12\n        /* \"poseidon-solidity/PoseidonT3.sol\":41437:41443  state0 */\n      dup4\n        /* \"poseidon-solidity/PoseidonT3.sol\":41429:41435  state0 */\n      dup5\n        /* \"poseidon-solidity/PoseidonT3.sol\":41422:41447  mulmod(state0, state0, F) */\n      mulmod\n        /* \"poseidon-solidity/PoseidonT3.sol\":41415:41461  mulmod(mulmod(state0, state0, F), scratch2, F) */\n      mulmod\n        /* \"poseidon-solidity/PoseidonT3.sol\":41403:41461  scratch2 := mulmod(mulmod(state0, state0, F), scratch2, F) */\n      swap2\n      pop\n        /* \"poseidon-solidity/PoseidonT3.sol\":41633:41634  F */\n      dup10\n        /* \"poseidon-solidity/PoseidonT3.sol\":41628:41631  M20 */\n      dup10\n        /* \"poseidon-solidity/PoseidonT3.sol\":41618:41626  scratch2 */\n      dup4\n        /* \"poseidon-solidity/PoseidonT3.sol\":41611:41635  mulmod(scratch2, M20, F) */\n      mulmod\n        /* \"poseidon-solidity/PoseidonT3.sol\":41606:41607  F */\n      dup11\n        /* \"poseidon-solidity/PoseidonT3.sol\":41601:41604  M10 */\n      0x16ed41e13bb9c0c66ae119424fddbcbc9314dc9fdbdeea55d6c64543dc4903e0\n        /* \"poseidon-solidity/PoseidonT3.sol\":41591:41599  scratch1 */\n      dup6\n        /* \"poseidon-solidity/PoseidonT3.sol\":41584:41608  mulmod(scratch1, M10, F) */\n      mulmod\n        /* \"poseidon-solidity/PoseidonT3.sol\":41580:41581  F */\n      dup12\n        /* \"poseidon-solidity/PoseidonT3.sol\":41575:41578  M00 */\n      0x109b7f411ba0e4c9b2b70caf5c36a7b194be7c11ad24378bfedb68592ba8118b\n        /* \"poseidon-solidity/PoseidonT3.sol\":41565:41573  scratch0 */\n      dup8\n        /* \"poseidon-solidity/PoseidonT3.sol\":41558:41582  mulmod(scratch0, M00, F) */\n      mulmod\n        /* \"poseidon-solidity/PoseidonT3.sol\":41554:41609  add(mulmod(scratch0, M00, F), mulmod(scratch1, M10, F)) */\n      add\n        /* \"poseidon-solidity/PoseidonT3.sol\":41550:41636  add(add(mulmod(scratch0, M00, F), mulmod(scratch1, M10, F)), mulmod(scratch2, M20, F)) */\n      add\n        /* \"poseidon-solidity/PoseidonT3.sol\":41482:41548  0x1cfb5662e8cf5ac9226a80ee17b36abecb73ab5f87e161927b4349e10e4bdf08 */\n      0x1cfb5662e8cf5ac9226a80ee17b36abecb73ab5f87e161927b4349e10e4bdf08\n        /* \"poseidon-solidity/PoseidonT3.sol\":41478:41637  add(0x1cfb5662e8cf5ac9226a80ee17b36abecb73ab5f87e161927b4349e10e4bdf08, add(add(mulmod(scratch0, M00, F), mulmod(scratch1, M10, F)), mulmod(scratch2, M20, F))) */\n      add\n        /* \"poseidon-solidity/PoseidonT3.sol\":41468:41637  state0 := add(0x1cfb5662e8cf5ac9226a80ee17b36abecb73ab5f87e161927b4349e10e4bdf08, add(add(mulmod(scratch0, M00, F), mulmod(scratch1, M10, F)), mulmod(scratch2, M20, F))) */\n      swap1\n      pop\n        /* \"poseidon-solidity/PoseidonT3.sol\":41809:41810  F */\n      dup10\n        /* \"poseidon-solidity/PoseidonT3.sol\":41804:41807  M21 */\n      dup9\n        /* \"poseidon-solidity/PoseidonT3.sol\":41794:41802  scratch2 */\n      dup4\n        /* \"poseidon-solidity/PoseidonT3.sol\":41787:41811  mulmod(scratch2, M21, F) */\n      mulmod\n        /* \"poseidon-solidity/PoseidonT3.sol\":41782:41783  F */\n      dup11\n        /* \"poseidon-solidity/PoseidonT3.sol\":41777:41780  M11 */\n      0x2e2419f9ec02ec394c9871c832963dc1b89d743c8c7b964029b2311687b1fe23\n        /* \"poseidon-solidity/PoseidonT3.sol\":41767:41775  scratch1 */\n      dup6\n        /* \"poseidon-solidity/PoseidonT3.sol\":41760:41784  mulmod(scratch1, M11, F) */\n      mulmod\n        /* \"poseidon-solidity/PoseidonT3.sol\":41756:41757  F */\n      dup12\n        /* \"poseidon-solidity/PoseidonT3.sol\":41751:41754  M01 */\n      0x2969f27eed31a480b9c36c764379dbca2cc8fdd1415c3dded62940bcde0bd771\n        /* \"poseidon-solidity/PoseidonT3.sol\":41741:41749  scratch0 */\n      dup8\n        /* \"poseidon-solidity/PoseidonT3.sol\":41734:41758  mulmod(scratch0, M01, F) */\n      mulmod\n        /* \"poseidon-solidity/PoseidonT3.sol\":41730:41785  add(mulmod(scratch0, M01, F), mulmod(scratch1, M11, F)) */\n      add\n        /* \"poseidon-solidity/PoseidonT3.sol\":41726:41812  add(add(mulmod(scratch0, M01, F), mulmod(scratch1, M11, F)), mulmod(scratch2, M21, F)) */\n      add\n        /* \"poseidon-solidity/PoseidonT3.sol\":41658:41724  0x0f21177e302a771bbae6d8d1ecb373b62c99af346220ac0129c53f666eb24100 */\n      0x0f21177e302a771bbae6d8d1ecb373b62c99af346220ac0129c53f666eb24100\n        /* \"poseidon-solidity/PoseidonT3.sol\":41654:41813  add(0x0f21177e302a771bbae6d8d1ecb373b62c99af346220ac0129c53f666eb24100, add(add(mulmod(scratch0, M01, F), mulmod(scratch1, M11, F)), mulmod(scratch2, M21, F))) */\n      add\n        /* \"poseidon-solidity/PoseidonT3.sol\":41644:41813  state1 := add(0x0f21177e302a771bbae6d8d1ecb373b62c99af346220ac0129c53f666eb24100, add(add(mulmod(scratch0, M01, F), mulmod(scratch1, M11, F)), mulmod(scratch2, M21, F))) */\n      swap6\n      pop\n        /* \"poseidon-solidity/PoseidonT3.sol\":41985:41986  F */\n      dup10\n        /* \"poseidon-solidity/PoseidonT3.sol\":41980:41983  M22 */\n      dup8\n        /* \"poseidon-solidity/PoseidonT3.sol\":41970:41978  scratch2 */\n      dup4\n        /* \"poseidon-solidity/PoseidonT3.sol\":41963:41987  mulmod(scratch2, M22, F) */\n      mulmod\n        /* \"poseidon-solidity/PoseidonT3.sol\":41958:41959  F */\n      dup11\n        /* \"poseidon-solidity/PoseidonT3.sol\":41953:41956  M12 */\n      0x176cc029695ad02582a70eff08a6fd99d057e12e58e7d7b6b16cdfabc8ee2911\n        /* \"poseidon-solidity/PoseidonT3.sol\":41943:41951  scratch1 */\n      dup6\n        /* \"poseidon-solidity/PoseidonT3.sol\":41936:41960  mulmod(scratch1, M12, F) */\n      mulmod\n        /* \"poseidon-solidity/PoseidonT3.sol\":41932:41933  F */\n      dup12\n        /* \"poseidon-solidity/PoseidonT3.sol\":41927:41930  M02 */\n      0x143021ec686a3f330d5f9e654638065ce6cd79e28c5b3753326244ee65a1b1a7\n        /* \"poseidon-solidity/PoseidonT3.sol\":41917:41925  scratch0 */\n      dup8\n        /* \"poseidon-solidity/PoseidonT3.sol\":41910:41934  mulmod(scratch0, M02, F) */\n      mulmod\n        /* \"poseidon-solidity/PoseidonT3.sol\":41906:41961  add(mulmod(scratch0, M02, F), mulmod(scratch1, M12, F)) */\n      add\n        /* \"poseidon-solidity/PoseidonT3.sol\":41902:41988  add(add(mulmod(scratch0, M02, F), mulmod(scratch1, M12, F)), mulmod(scratch2, M22, F)) */\n      add\n        /* \"poseidon-solidity/PoseidonT3.sol\":41834:41900  0x1671522374606992affb0dd7f71b12bec4236aede6290546bcef7e1f515c2320 */\n      0x1671522374606992affb0dd7f71b12bec4236aede6290546bcef7e1f515c2320\n        /* \"poseidon-solidity/PoseidonT3.sol\":41830:41989  add(0x1671522374606992affb0dd7f71b12bec4236aede6290546bcef7e1f515c2320, add(add(mulmod(scratch0, M02, F), mulmod(scratch1, M12, F)), mulmod(scratch2, M22, F))) */\n      add\n        /* \"poseidon-solidity/PoseidonT3.sol\":41820:41989  state2 := add(0x1671522374606992affb0dd7f71b12bec4236aede6290546bcef7e1f515c2320, add(add(mulmod(scratch0, M02, F), mulmod(scratch1, M12, F)), mulmod(scratch2, M22, F))) */\n      swap5\n      pop\n        /* \"poseidon-solidity/PoseidonT3.sol\":42031:42032  F */\n      dup10\n        /* \"poseidon-solidity/PoseidonT3.sol\":42023:42029  state0 */\n      dup2\n        /* \"poseidon-solidity/PoseidonT3.sol\":42015:42021  state0 */\n      dup3\n        /* \"poseidon-solidity/PoseidonT3.sol\":42008:42033  mulmod(state0, state0, F) */\n      mulmod\n        /* \"poseidon-solidity/PoseidonT3.sol\":41996:42033  scratch0 := mulmod(state0, state0, F) */\n      swap4\n      pop\n        /* \"poseidon-solidity/PoseidonT3.sol\":42096:42097  F */\n      dup10\n        /* \"poseidon-solidity/PoseidonT3.sol\":42088:42094  state0 */\n      dup2\n        /* \"poseidon-solidity/PoseidonT3.sol\":42084:42085  F */\n      dup12\n        /* \"poseidon-solidity/PoseidonT3.sol\":42074:42082  scratch0 */\n      dup7\n        /* \"poseidon-solidity/PoseidonT3.sol\":42064:42072  scratch0 */\n      dup8\n        /* \"poseidon-solidity/PoseidonT3.sol\":42057:42086  mulmod(scratch0, scratch0, F) */\n      mulmod\n        /* \"poseidon-solidity/PoseidonT3.sol\":42050:42098  mulmod(mulmod(scratch0, scratch0, F), state0, F) */\n      mulmod\n        /* \"poseidon-solidity/PoseidonT3.sol\":42040:42098  state0 := mulmod(mulmod(scratch0, scratch0, F), state0, F) */\n      swap1\n      pop\n        /* \"poseidon-solidity/PoseidonT3.sol\":42140:42141  F */\n      dup10\n        /* \"poseidon-solidity/PoseidonT3.sol\":42132:42138  state1 */\n      dup7\n        /* \"poseidon-solidity/PoseidonT3.sol\":42124:42130  state1 */\n      dup8\n        /* \"poseidon-solidity/PoseidonT3.sol\":42117:42142  mulmod(state1, state1, F) */\n      mulmod\n        /* \"poseidon-solidity/PoseidonT3.sol\":42105:42142  scratch0 := mulmod(state1, state1, F) */\n      swap4\n      pop\n        /* \"poseidon-solidity/PoseidonT3.sol\":42205:42206  F */\n      dup10\n        /* \"poseidon-solidity/PoseidonT3.sol\":42197:42203  state1 */\n      dup7\n        /* \"poseidon-solidity/PoseidonT3.sol\":42193:42194  F */\n      dup12\n        /* \"poseidon-solidity/PoseidonT3.sol\":42183:42191  scratch0 */\n      dup7\n        /* \"poseidon-solidity/PoseidonT3.sol\":42173:42181  scratch0 */\n      dup8\n        /* \"poseidon-solidity/PoseidonT3.sol\":42166:42195  mulmod(scratch0, scratch0, F) */\n      mulmod\n        /* \"poseidon-solidity/PoseidonT3.sol\":42159:42207  mulmod(mulmod(scratch0, scratch0, F), state1, F) */\n      mulmod\n        /* \"poseidon-solidity/PoseidonT3.sol\":42149:42207  state1 := mulmod(mulmod(scratch0, scratch0, F), state1, F) */\n      swap6\n      pop\n        /* \"poseidon-solidity/PoseidonT3.sol\":42249:42250  F */\n      dup10\n        /* \"poseidon-solidity/PoseidonT3.sol\":42241:42247  state2 */\n      dup6\n        /* \"poseidon-solidity/PoseidonT3.sol\":42233:42239  state2 */\n      dup7\n        /* \"poseidon-solidity/PoseidonT3.sol\":42226:42251  mulmod(state2, state2, F) */\n      mulmod\n        /* \"poseidon-solidity/PoseidonT3.sol\":42214:42251  scratch0 := mulmod(state2, state2, F) */\n      swap4\n      pop\n        /* \"poseidon-solidity/PoseidonT3.sol\":42314:42315  F */\n      dup10\n        /* \"poseidon-solidity/PoseidonT3.sol\":42306:42312  state2 */\n      dup6\n        /* \"poseidon-solidity/PoseidonT3.sol\":42302:42303  F */\n      dup12\n        /* \"poseidon-solidity/PoseidonT3.sol\":42292:42300  scratch0 */\n      dup7\n        /* \"poseidon-solidity/PoseidonT3.sol\":42282:42290  scratch0 */\n      dup8\n        /* \"poseidon-solidity/PoseidonT3.sol\":42275:42304  mulmod(scratch0, scratch0, F) */\n      mulmod\n        /* \"poseidon-solidity/PoseidonT3.sol\":42268:42316  mulmod(mulmod(scratch0, scratch0, F), state2, F) */\n      mulmod\n        /* \"poseidon-solidity/PoseidonT3.sol\":42258:42316  state2 := mulmod(mulmod(scratch0, scratch0, F), state2, F) */\n      swap5\n      pop\n        /* \"poseidon-solidity/PoseidonT3.sol\":42484:42485  F */\n      dup10\n        /* \"poseidon-solidity/PoseidonT3.sol\":42479:42482  M20 */\n      dup10\n        /* \"poseidon-solidity/PoseidonT3.sol\":42471:42477  state2 */\n      dup7\n        /* \"poseidon-solidity/PoseidonT3.sol\":42464:42486  mulmod(state2, M20, F) */\n      mulmod\n        /* \"poseidon-solidity/PoseidonT3.sol\":42459:42460  F */\n      dup11\n        /* \"poseidon-solidity/PoseidonT3.sol\":42454:42457  M10 */\n      0x16ed41e13bb9c0c66ae119424fddbcbc9314dc9fdbdeea55d6c64543dc4903e0\n        /* \"poseidon-solidity/PoseidonT3.sol\":42446:42452  state1 */\n      dup9\n        /* \"poseidon-solidity/PoseidonT3.sol\":42439:42461  mulmod(state1, M10, F) */\n      mulmod\n        /* \"poseidon-solidity/PoseidonT3.sol\":42435:42436  F */\n      dup12\n        /* \"poseidon-solidity/PoseidonT3.sol\":42430:42433  M00 */\n      0x109b7f411ba0e4c9b2b70caf5c36a7b194be7c11ad24378bfedb68592ba8118b\n        /* \"poseidon-solidity/PoseidonT3.sol\":42422:42428  state0 */\n      dup5\n        /* \"poseidon-solidity/PoseidonT3.sol\":42415:42437  mulmod(state0, M00, F) */\n      mulmod\n        /* \"poseidon-solidity/PoseidonT3.sol\":42411:42462  add(mulmod(state0, M00, F), mulmod(state1, M10, F)) */\n      add\n        /* \"poseidon-solidity/PoseidonT3.sol\":42407:42487  add(add(mulmod(state0, M00, F), mulmod(state1, M10, F)), mulmod(state2, M20, F)) */\n      add\n        /* \"poseidon-solidity/PoseidonT3.sol\":42339:42405  0x0fa3ec5b9488259c2eb4cf24501bfad9be2ec9e42c5cc8ccd419d2a692cad870 */\n      0x0fa3ec5b9488259c2eb4cf24501bfad9be2ec9e42c5cc8ccd419d2a692cad870\n        /* \"poseidon-solidity/PoseidonT3.sol\":42335:42488  add(0x0fa3ec5b9488259c2eb4cf24501bfad9be2ec9e42c5cc8ccd419d2a692cad870, add(add(mulmod(state0, M00, F), mulmod(state1, M10, F)), mulmod(state2, M20, F))) */\n      add\n        /* \"poseidon-solidity/PoseidonT3.sol\":42323:42488  scratch0 := add(0x0fa3ec5b9488259c2eb4cf24501bfad9be2ec9e42c5cc8ccd419d2a692cad870, add(add(mulmod(state0, M00, F), mulmod(state1, M10, F)), mulmod(state2, M20, F))) */\n      swap4\n      pop\n        /* \"poseidon-solidity/PoseidonT3.sol\":42656:42657  F */\n      dup10\n        /* \"poseidon-solidity/PoseidonT3.sol\":42651:42654  M21 */\n      dup9\n        /* \"poseidon-solidity/PoseidonT3.sol\":42643:42649  state2 */\n      dup7\n        /* \"poseidon-solidity/PoseidonT3.sol\":42636:42658  mulmod(state2, M21, F) */\n      mulmod\n        /* \"poseidon-solidity/PoseidonT3.sol\":42631:42632  F */\n      dup11\n        /* \"poseidon-solidity/PoseidonT3.sol\":42626:42629  M11 */\n      0x2e2419f9ec02ec394c9871c832963dc1b89d743c8c7b964029b2311687b1fe23\n        /* \"poseidon-solidity/PoseidonT3.sol\":42618:42624  state1 */\n      dup9\n        /* \"poseidon-solidity/PoseidonT3.sol\":42611:42633  mulmod(state1, M11, F) */\n      mulmod\n        /* \"poseidon-solidity/PoseidonT3.sol\":42607:42608  F */\n      dup12\n        /* \"poseidon-solidity/PoseidonT3.sol\":42602:42605  M01 */\n      0x2969f27eed31a480b9c36c764379dbca2cc8fdd1415c3dded62940bcde0bd771\n        /* \"poseidon-solidity/PoseidonT3.sol\":42594:42600  state0 */\n      dup5\n        /* \"poseidon-solidity/PoseidonT3.sol\":42587:42609  mulmod(state0, M01, F) */\n      mulmod\n        /* \"poseidon-solidity/PoseidonT3.sol\":42583:42634  add(mulmod(state0, M01, F), mulmod(state1, M11, F)) */\n      add\n        /* \"poseidon-solidity/PoseidonT3.sol\":42579:42659  add(add(mulmod(state0, M01, F), mulmod(state1, M11, F)), mulmod(state2, M21, F)) */\n      add\n        /* \"poseidon-solidity/PoseidonT3.sol\":42511:42577  0x193c0e04e0bd298357cb266c1506080ed36edce85c648cc085e8c57b1ab54bba */\n      0x193c0e04e0bd298357cb266c1506080ed36edce85c648cc085e8c57b1ab54bba\n        /* \"poseidon-solidity/PoseidonT3.sol\":42507:42660  add(0x193c0e04e0bd298357cb266c1506080ed36edce85c648cc085e8c57b1ab54bba, add(add(mulmod(state0, M01, F), mulmod(state1, M11, F)), mulmod(state2, M21, F))) */\n      add\n        /* \"poseidon-solidity/PoseidonT3.sol\":42495:42660  scratch1 := add(0x193c0e04e0bd298357cb266c1506080ed36edce85c648cc085e8c57b1ab54bba, add(add(mulmod(state0, M01, F), mulmod(state1, M11, F)), mulmod(state2, M21, F))) */\n      swap3\n      pop\n        /* \"poseidon-solidity/PoseidonT3.sol\":42828:42829  F */\n      dup10\n        /* \"poseidon-solidity/PoseidonT3.sol\":42823:42826  M22 */\n      dup8\n        /* \"poseidon-solidity/PoseidonT3.sol\":42815:42821  state2 */\n      dup7\n        /* \"poseidon-solidity/PoseidonT3.sol\":42808:42830  mulmod(state2, M22, F) */\n      mulmod\n        /* \"poseidon-solidity/PoseidonT3.sol\":42803:42804  F */\n      dup11\n        /* \"poseidon-solidity/PoseidonT3.sol\":42798:42801  M12 */\n      0x176cc029695ad02582a70eff08a6fd99d057e12e58e7d7b6b16cdfabc8ee2911\n        /* \"poseidon-solidity/PoseidonT3.sol\":42790:42796  state1 */\n      dup9\n        /* \"poseidon-solidity/PoseidonT3.sol\":42783:42805  mulmod(state1, M12, F) */\n      mulmod\n        /* \"poseidon-solidity/PoseidonT3.sol\":42779:42780  F */\n      dup12\n        /* \"poseidon-solidity/PoseidonT3.sol\":42774:42777  M02 */\n      0x143021ec686a3f330d5f9e654638065ce6cd79e28c5b3753326244ee65a1b1a7\n        /* \"poseidon-solidity/PoseidonT3.sol\":42766:42772  state0 */\n      dup5\n        /* \"poseidon-solidity/PoseidonT3.sol\":42759:42781  mulmod(state0, M02, F) */\n      mulmod\n        /* \"poseidon-solidity/PoseidonT3.sol\":42755:42806  add(mulmod(state0, M02, F), mulmod(state1, M12, F)) */\n      add\n        /* \"poseidon-solidity/PoseidonT3.sol\":42751:42831  add(add(mulmod(state0, M02, F), mulmod(state1, M12, F)), mulmod(state2, M22, F)) */\n      add\n        /* \"poseidon-solidity/PoseidonT3.sol\":42683:42749  0x102adf8ef74735a27e9128306dcbc3c99f6f7291cd406578ce14ea2adaba68f8 */\n      0x102adf8ef74735a27e9128306dcbc3c99f6f7291cd406578ce14ea2adaba68f8\n        /* \"poseidon-solidity/PoseidonT3.sol\":42679:42832  add(0x102adf8ef74735a27e9128306dcbc3c99f6f7291cd406578ce14ea2adaba68f8, add(add(mulmod(state0, M02, F), mulmod(state1, M12, F)), mulmod(state2, M22, F))) */\n      add\n        /* \"poseidon-solidity/PoseidonT3.sol\":42667:42832  scratch2 := add(0x102adf8ef74735a27e9128306dcbc3c99f6f7291cd406578ce14ea2adaba68f8, add(add(mulmod(state0, M02, F), mulmod(state1, M12, F)), mulmod(state2, M22, F))) */\n      swap2\n      pop\n        /* \"poseidon-solidity/PoseidonT3.sol\":42876:42877  F */\n      dup10\n        /* \"poseidon-solidity/PoseidonT3.sol\":42866:42874  scratch0 */\n      dup5\n        /* \"poseidon-solidity/PoseidonT3.sol\":42856:42864  scratch0 */\n      dup6\n        /* \"poseidon-solidity/PoseidonT3.sol\":42849:42878  mulmod(scratch0, scratch0, F) */\n      mulmod\n        /* \"poseidon-solidity/PoseidonT3.sol\":42839:42878  state0 := mulmod(scratch0, scratch0, F) */\n      swap1\n      pop\n        /* \"poseidon-solidity/PoseidonT3.sol\":42941:42942  F */\n      dup10\n        /* \"poseidon-solidity/PoseidonT3.sol\":42931:42939  scratch0 */\n      dup5\n        /* \"poseidon-solidity/PoseidonT3.sol\":42927:42928  F */\n      dup12\n        /* \"poseidon-solidity/PoseidonT3.sol\":42919:42925  state0 */\n      dup4\n        /* \"poseidon-solidity/PoseidonT3.sol\":42911:42917  state0 */\n      dup5\n        /* \"poseidon-solidity/PoseidonT3.sol\":42904:42929  mulmod(state0, state0, F) */\n      mulmod\n        /* \"poseidon-solidity/PoseidonT3.sol\":42897:42943  mulmod(mulmod(state0, state0, F), scratch0, F) */\n      mulmod\n        /* \"poseidon-solidity/PoseidonT3.sol\":42885:42943  scratch0 := mulmod(mulmod(state0, state0, F), scratch0, F) */\n      swap4\n      pop\n        /* \"poseidon-solidity/PoseidonT3.sol\":42987:42988  F */\n      dup10\n        /* \"poseidon-solidity/PoseidonT3.sol\":42977:42985  scratch1 */\n      dup4\n        /* \"poseidon-solidity/PoseidonT3.sol\":42967:42975  scratch1 */\n      dup5\n        /* \"poseidon-solidity/PoseidonT3.sol\":42960:42989  mulmod(scratch1, scratch1, F) */\n      mulmod\n        /* \"poseidon-solidity/PoseidonT3.sol\":42950:42989  state0 := mulmod(scratch1, scratch1, F) */\n      swap1\n      pop\n        /* \"poseidon-solidity/PoseidonT3.sol\":43052:43053  F */\n      dup10\n        /* \"poseidon-solidity/PoseidonT3.sol\":43042:43050  scratch1 */\n      dup4\n        /* \"poseidon-solidity/PoseidonT3.sol\":43038:43039  F */\n      dup12\n        /* \"poseidon-solidity/PoseidonT3.sol\":43030:43036  state0 */\n      dup4\n        /* \"poseidon-solidity/PoseidonT3.sol\":43022:43028  state0 */\n      dup5\n        /* \"poseidon-solidity/PoseidonT3.sol\":43015:43040  mulmod(state0, state0, F) */\n      mulmod\n        /* \"poseidon-solidity/PoseidonT3.sol\":43008:43054  mulmod(mulmod(state0, state0, F), scratch1, F) */\n      mulmod\n        /* \"poseidon-solidity/PoseidonT3.sol\":42996:43054  scratch1 := mulmod(mulmod(state0, state0, F), scratch1, F) */\n      swap3\n      pop\n        /* \"poseidon-solidity/PoseidonT3.sol\":43098:43099  F */\n      dup10\n        /* \"poseidon-solidity/PoseidonT3.sol\":43088:43096  scratch2 */\n      dup3\n        /* \"poseidon-solidity/PoseidonT3.sol\":43078:43086  scratch2 */\n      dup4\n        /* \"poseidon-solidity/PoseidonT3.sol\":43071:43100  mulmod(scratch2, scratch2, F) */\n      mulmod\n        /* \"poseidon-solidity/PoseidonT3.sol\":43061:43100  state0 := mulmod(scratch2, scratch2, F) */\n      swap1\n      pop\n        /* \"poseidon-solidity/PoseidonT3.sol\":43163:43164  F */\n      dup10\n        /* \"poseidon-solidity/PoseidonT3.sol\":43153:43161  scratch2 */\n      dup3\n        /* \"poseidon-solidity/PoseidonT3.sol\":43149:43150  F */\n      dup12\n        /* \"poseidon-solidity/PoseidonT3.sol\":43141:43147  state0 */\n      dup4\n        /* \"poseidon-solidity/PoseidonT3.sol\":43133:43139  state0 */\n      dup5\n        /* \"poseidon-solidity/PoseidonT3.sol\":43126:43151  mulmod(state0, state0, F) */\n      mulmod\n        /* \"poseidon-solidity/PoseidonT3.sol\":43119:43165  mulmod(mulmod(state0, state0, F), scratch2, F) */\n      mulmod\n        /* \"poseidon-solidity/PoseidonT3.sol\":43107:43165  scratch2 := mulmod(mulmod(state0, state0, F), scratch2, F) */\n      swap2\n      pop\n        /* \"poseidon-solidity/PoseidonT3.sol\":43337:43338  F */\n      dup10\n        /* \"poseidon-solidity/PoseidonT3.sol\":43332:43335  M20 */\n      dup10\n        /* \"poseidon-solidity/PoseidonT3.sol\":43322:43330  scratch2 */\n      dup4\n        /* \"poseidon-solidity/PoseidonT3.sol\":43315:43339  mulmod(scratch2, M20, F) */\n      mulmod\n        /* \"poseidon-solidity/PoseidonT3.sol\":43310:43311  F */\n      dup11\n        /* \"poseidon-solidity/PoseidonT3.sol\":43305:43308  M10 */\n      0x16ed41e13bb9c0c66ae119424fddbcbc9314dc9fdbdeea55d6c64543dc4903e0\n        /* \"poseidon-solidity/PoseidonT3.sol\":43295:43303  scratch1 */\n      dup6\n        /* \"poseidon-solidity/PoseidonT3.sol\":43288:43312  mulmod(scratch1, M10, F) */\n      mulmod\n        /* \"poseidon-solidity/PoseidonT3.sol\":43284:43285  F */\n      dup12\n        /* \"poseidon-solidity/PoseidonT3.sol\":43279:43282  M00 */\n      0x109b7f411ba0e4c9b2b70caf5c36a7b194be7c11ad24378bfedb68592ba8118b\n        /* \"poseidon-solidity/PoseidonT3.sol\":43269:43277  scratch0 */\n      dup8\n        /* \"poseidon-solidity/PoseidonT3.sol\":43262:43286  mulmod(scratch0, M00, F) */\n      mulmod\n        /* \"poseidon-solidity/PoseidonT3.sol\":43258:43313  add(mulmod(scratch0, M00, F), mulmod(scratch1, M10, F)) */\n      add\n        /* \"poseidon-solidity/PoseidonT3.sol\":43254:43340  add(add(mulmod(scratch0, M00, F), mulmod(scratch1, M10, F)), mulmod(scratch2, M20, F)) */\n      add\n        /* \"poseidon-solidity/PoseidonT3.sol\":43186:43252  0x0fe0af7858e49859e2a54d6f1ad945b1316aa24bfbdd23ae40a6d0cb70c3eab1 */\n      0x0fe0af7858e49859e2a54d6f1ad945b1316aa24bfbdd23ae40a6d0cb70c3eab1\n        /* \"poseidon-solidity/PoseidonT3.sol\":43182:43341  add(0x0fe0af7858e49859e2a54d6f1ad945b1316aa24bfbdd23ae40a6d0cb70c3eab1, add(add(mulmod(scratch0, M00, F), mulmod(scratch1, M10, F)), mulmod(scratch2, M20, F))) */\n      add\n        /* \"poseidon-solidity/PoseidonT3.sol\":43172:43341  state0 := add(0x0fe0af7858e49859e2a54d6f1ad945b1316aa24bfbdd23ae40a6d0cb70c3eab1, add(add(mulmod(scratch0, M00, F), mulmod(scratch1, M10, F)), mulmod(scratch2, M20, F))) */\n      swap1\n      pop\n        /* \"poseidon-solidity/PoseidonT3.sol\":43513:43514  F */\n      dup10\n        /* \"poseidon-solidity/PoseidonT3.sol\":43508:43511  M21 */\n      dup9\n        /* \"poseidon-solidity/PoseidonT3.sol\":43498:43506  scratch2 */\n      dup4\n        /* \"poseidon-solidity/PoseidonT3.sol\":43491:43515  mulmod(scratch2, M21, F) */\n      mulmod\n        /* \"poseidon-solidity/PoseidonT3.sol\":43486:43487  F */\n      dup11\n        /* \"poseidon-solidity/PoseidonT3.sol\":43481:43484  M11 */\n      0x2e2419f9ec02ec394c9871c832963dc1b89d743c8c7b964029b2311687b1fe23\n        /* \"poseidon-solidity/PoseidonT3.sol\":43471:43479  scratch1 */\n      dup6\n        /* \"poseidon-solidity/PoseidonT3.sol\":43464:43488  mulmod(scratch1, M11, F) */\n      mulmod\n        /* \"poseidon-solidity/PoseidonT3.sol\":43460:43461  F */\n      dup12\n        /* \"poseidon-solidity/PoseidonT3.sol\":43455:43458  M01 */\n      0x2969f27eed31a480b9c36c764379dbca2cc8fdd1415c3dded62940bcde0bd771\n        /* \"poseidon-solidity/PoseidonT3.sol\":43445:43453  scratch0 */\n      dup8\n        /* \"poseidon-solidity/PoseidonT3.sol\":43438:43462  mulmod(scratch0, M01, F) */\n      mulmod\n        /* \"poseidon-solidity/PoseidonT3.sol\":43434:43489  add(mulmod(scratch0, M01, F), mulmod(scratch1, M11, F)) */\n      add\n        /* \"poseidon-solidity/PoseidonT3.sol\":43430:43516  add(add(mulmod(scratch0, M01, F), mulmod(scratch1, M11, F)), mulmod(scratch2, M21, F)) */\n      add\n        /* \"poseidon-solidity/PoseidonT3.sol\":43362:43428  0x216f6717bbc7dedb08536a2220843f4e2da5f1daa9ebdefde8a5ea7344798d22 */\n      0x216f6717bbc7dedb08536a2220843f4e2da5f1daa9ebdefde8a5ea7344798d22\n        /* \"poseidon-solidity/PoseidonT3.sol\":43358:43517  add(0x216f6717bbc7dedb08536a2220843f4e2da5f1daa9ebdefde8a5ea7344798d22, add(add(mulmod(scratch0, M01, F), mulmod(scratch1, M11, F)), mulmod(scratch2, M21, F))) */\n      add\n        /* \"poseidon-solidity/PoseidonT3.sol\":43348:43517  state1 := add(0x216f6717bbc7dedb08536a2220843f4e2da5f1daa9ebdefde8a5ea7344798d22, add(add(mulmod(scratch0, M01, F), mulmod(scratch1, M11, F)), mulmod(scratch2, M21, F))) */\n      swap6\n      pop\n        /* \"poseidon-solidity/PoseidonT3.sol\":43689:43690  F */\n      dup10\n        /* \"poseidon-solidity/PoseidonT3.sol\":43684:43687  M22 */\n      dup8\n        /* \"poseidon-solidity/PoseidonT3.sol\":43674:43682  scratch2 */\n      dup4\n        /* \"poseidon-solidity/PoseidonT3.sol\":43667:43691  mulmod(scratch2, M22, F) */\n      mulmod\n        /* \"poseidon-solidity/PoseidonT3.sol\":43662:43663  F */\n      dup11\n        /* \"poseidon-solidity/PoseidonT3.sol\":43657:43660  M12 */\n      0x176cc029695ad02582a70eff08a6fd99d057e12e58e7d7b6b16cdfabc8ee2911\n        /* \"poseidon-solidity/PoseidonT3.sol\":43647:43655  scratch1 */\n      dup6\n        /* \"poseidon-solidity/PoseidonT3.sol\":43640:43664  mulmod(scratch1, M12, F) */\n      mulmod\n        /* \"poseidon-solidity/PoseidonT3.sol\":43636:43637  F */\n      dup12\n        /* \"poseidon-solidity/PoseidonT3.sol\":43631:43634  M02 */\n      0x143021ec686a3f330d5f9e654638065ce6cd79e28c5b3753326244ee65a1b1a7\n        /* \"poseidon-solidity/PoseidonT3.sol\":43621:43629  scratch0 */\n      dup8\n        /* \"poseidon-solidity/PoseidonT3.sol\":43614:43638  mulmod(scratch0, M02, F) */\n      mulmod\n        /* \"poseidon-solidity/PoseidonT3.sol\":43610:43665  add(mulmod(scratch0, M02, F), mulmod(scratch1, M12, F)) */\n      add\n        /* \"poseidon-solidity/PoseidonT3.sol\":43606:43692  add(add(mulmod(scratch0, M02, F), mulmod(scratch1, M12, F)), mulmod(scratch2, M22, F)) */\n      add\n        /* \"poseidon-solidity/PoseidonT3.sol\":43538:43604  0x1da55cc900f0d21f4a3e694391918a1b3c23b2ac773c6b3ef88e2e4228325161 */\n      0x1da55cc900f0d21f4a3e694391918a1b3c23b2ac773c6b3ef88e2e4228325161\n        /* \"poseidon-solidity/PoseidonT3.sol\":43534:43693  add(0x1da55cc900f0d21f4a3e694391918a1b3c23b2ac773c6b3ef88e2e4228325161, add(add(mulmod(scratch0, M02, F), mulmod(scratch1, M12, F)), mulmod(scratch2, M22, F))) */\n      add\n        /* \"poseidon-solidity/PoseidonT3.sol\":43524:43693  state2 := add(0x1da55cc900f0d21f4a3e694391918a1b3c23b2ac773c6b3ef88e2e4228325161, add(add(mulmod(scratch0, M02, F), mulmod(scratch1, M12, F)), mulmod(scratch2, M22, F))) */\n      swap5\n      pop\n        /* \"poseidon-solidity/PoseidonT3.sol\":43735:43736  F */\n      dup10\n        /* \"poseidon-solidity/PoseidonT3.sol\":43727:43733  state0 */\n      dup2\n        /* \"poseidon-solidity/PoseidonT3.sol\":43719:43725  state0 */\n      dup3\n        /* \"poseidon-solidity/PoseidonT3.sol\":43712:43737  mulmod(state0, state0, F) */\n      mulmod\n        /* \"poseidon-solidity/PoseidonT3.sol\":43700:43737  scratch0 := mulmod(state0, state0, F) */\n      swap4\n      pop\n        /* \"poseidon-solidity/PoseidonT3.sol\":43800:43801  F */\n      dup10\n        /* \"poseidon-solidity/PoseidonT3.sol\":43792:43798  state0 */\n      dup2\n        /* \"poseidon-solidity/PoseidonT3.sol\":43788:43789  F */\n      dup12\n        /* \"poseidon-solidity/PoseidonT3.sol\":43778:43786  scratch0 */\n      dup7\n        /* \"poseidon-solidity/PoseidonT3.sol\":43768:43776  scratch0 */\n      dup8\n        /* \"poseidon-solidity/PoseidonT3.sol\":43761:43790  mulmod(scratch0, scratch0, F) */\n      mulmod\n        /* \"poseidon-solidity/PoseidonT3.sol\":43754:43802  mulmod(mulmod(scratch0, scratch0, F), state0, F) */\n      mulmod\n        /* \"poseidon-solidity/PoseidonT3.sol\":43744:43802  state0 := mulmod(mulmod(scratch0, scratch0, F), state0, F) */\n      swap1\n      pop\n        /* \"poseidon-solidity/PoseidonT3.sol\":43844:43845  F */\n      dup10\n        /* \"poseidon-solidity/PoseidonT3.sol\":43836:43842  state1 */\n      dup7\n        /* \"poseidon-solidity/PoseidonT3.sol\":43828:43834  state1 */\n      dup8\n        /* \"poseidon-solidity/PoseidonT3.sol\":43821:43846  mulmod(state1, state1, F) */\n      mulmod\n        /* \"poseidon-solidity/PoseidonT3.sol\":43809:43846  scratch0 := mulmod(state1, state1, F) */\n      swap4\n      pop\n        /* \"poseidon-solidity/PoseidonT3.sol\":43909:43910  F */\n      dup10\n        /* \"poseidon-solidity/PoseidonT3.sol\":43901:43907  state1 */\n      dup7\n        /* \"poseidon-solidity/PoseidonT3.sol\":43897:43898  F */\n      dup12\n        /* \"poseidon-solidity/PoseidonT3.sol\":43887:43895  scratch0 */\n      dup7\n        /* \"poseidon-solidity/PoseidonT3.sol\":43877:43885  scratch0 */\n      dup8\n        /* \"poseidon-solidity/PoseidonT3.sol\":43870:43899  mulmod(scratch0, scratch0, F) */\n      mulmod\n        /* \"poseidon-solidity/PoseidonT3.sol\":43863:43911  mulmod(mulmod(scratch0, scratch0, F), state1, F) */\n      mulmod\n        /* \"poseidon-solidity/PoseidonT3.sol\":43853:43911  state1 := mulmod(mulmod(scratch0, scratch0, F), state1, F) */\n      swap6\n      pop\n        /* \"poseidon-solidity/PoseidonT3.sol\":43953:43954  F */\n      dup10\n        /* \"poseidon-solidity/PoseidonT3.sol\":43945:43951  state2 */\n      dup6\n        /* \"poseidon-solidity/PoseidonT3.sol\":43937:43943  state2 */\n      dup7\n        /* \"poseidon-solidity/PoseidonT3.sol\":43930:43955  mulmod(state2, state2, F) */\n      mulmod\n        /* \"poseidon-solidity/PoseidonT3.sol\":43918:43955  scratch0 := mulmod(state2, state2, F) */\n      swap4\n      pop\n        /* \"poseidon-solidity/PoseidonT3.sol\":44018:44019  F */\n      dup10\n        /* \"poseidon-solidity/PoseidonT3.sol\":44010:44016  state2 */\n      dup6\n        /* \"poseidon-solidity/PoseidonT3.sol\":44006:44007  F */\n      dup12\n        /* \"poseidon-solidity/PoseidonT3.sol\":43996:44004  scratch0 */\n      dup7\n        /* \"poseidon-solidity/PoseidonT3.sol\":43986:43994  scratch0 */\n      dup8\n        /* \"poseidon-solidity/PoseidonT3.sol\":43979:44008  mulmod(scratch0, scratch0, F) */\n      mulmod\n        /* \"poseidon-solidity/PoseidonT3.sol\":43972:44020  mulmod(mulmod(scratch0, scratch0, F), state2, F) */\n      mulmod\n        /* \"poseidon-solidity/PoseidonT3.sol\":43962:44020  state2 := mulmod(mulmod(scratch0, scratch0, F), state2, F) */\n      swap5\n      pop\n        /* \"poseidon-solidity/PoseidonT3.sol\":44126:44127  F */\n      dup10\n        /* \"poseidon-solidity/PoseidonT3.sol\":44121:44122  F */\n      dup11\n        /* \"poseidon-solidity/PoseidonT3.sol\":44116:44119  M20 */\n      dup11\n        /* \"poseidon-solidity/PoseidonT3.sol\":44108:44114  state2 */\n      dup8\n        /* \"poseidon-solidity/PoseidonT3.sol\":44101:44123  mulmod(state2, M20, F) */\n      mulmod\n        /* \"poseidon-solidity/PoseidonT3.sol\":44096:44097  F */\n      dup12\n        /* \"poseidon-solidity/PoseidonT3.sol\":44091:44094  M10 */\n      0x16ed41e13bb9c0c66ae119424fddbcbc9314dc9fdbdeea55d6c64543dc4903e0\n        /* \"poseidon-solidity/PoseidonT3.sol\":44083:44089  state1 */\n      dup10\n        /* \"poseidon-solidity/PoseidonT3.sol\":44076:44098  mulmod(state1, M10, F) */\n      mulmod\n        /* \"poseidon-solidity/PoseidonT3.sol\":44072:44073  F */\n      dup13\n        /* \"poseidon-solidity/PoseidonT3.sol\":44067:44070  M00 */\n      0x109b7f411ba0e4c9b2b70caf5c36a7b194be7c11ad24378bfedb68592ba8118b\n        /* \"poseidon-solidity/PoseidonT3.sol\":44059:44065  state0 */\n      dup6\n        /* \"poseidon-solidity/PoseidonT3.sol\":44052:44074  mulmod(state0, M00, F) */\n      mulmod\n        /* \"poseidon-solidity/PoseidonT3.sol\":44048:44099  add(mulmod(state0, M00, F), mulmod(state1, M10, F)) */\n      add\n        /* \"poseidon-solidity/PoseidonT3.sol\":44044:44124  add(add(mulmod(state0, M00, F), mulmod(state1, M10, F)), mulmod(state2, M20, F)) */\n      add\n        /* \"poseidon-solidity/PoseidonT3.sol\":44040:44128  mod(add(add(mulmod(state0, M00, F), mulmod(state1, M10, F)), mulmod(state2, M20, F)), F) */\n      mod\n        /* \"poseidon-solidity/PoseidonT3.sol\":44035:44038  0x0 */\n      0x00\n        /* \"poseidon-solidity/PoseidonT3.sol\":44028:44129  mstore(0x0, mod(add(add(mulmod(state0, M00, F), mulmod(state1, M10, F)), mulmod(state2, M20, F)), F)) */\n      mstore\n        /* \"poseidon-solidity/PoseidonT3.sol\":44147:44151  0x20 */\n      0x20\n        /* \"poseidon-solidity/PoseidonT3.sol\":44144:44145  0 */\n      0x00\n        /* \"poseidon-solidity/PoseidonT3.sol\":44137:44152  return(0, 0x20) */\n      return\n        /* \"#utility.yul\":7:82   */\n    tag_10:\n        /* \"#utility.yul\":40:46   */\n      0x00\n        /* \"#utility.yul\":73:75   */\n      0x40\n        /* \"#utility.yul\":67:76   */\n      mload\n        /* \"#utility.yul\":57:76   */\n      swap1\n      pop\n        /* \"#utility.yul\":7:82   */\n      swap1\n      jump\t// out\n        /* \"#utility.yul\":88:205   */\n    tag_11:\n        /* \"#utility.yul\":197:198   */\n      0x00\n        /* \"#utility.yul\":194:195   */\n      dup1\n        /* \"#utility.yul\":187:199   */\n      revert\n        /* \"#utility.yul\":334:451   */\n    tag_13:\n        /* \"#utility.yul\":443:444   */\n      0x00\n        /* \"#utility.yul\":440:441   */\n      dup1\n        /* \"#utility.yul\":433:445   */\n      revert\n        /* \"#utility.yul\":457:559   */\n    tag_14:\n        /* \"#utility.yul\":498:504   */\n      0x00\n        /* \"#utility.yul\":549:551   */\n      0x1f\n        /* \"#utility.yul\":545:552   */\n      not\n        /* \"#utility.yul\":540:542   */\n      0x1f\n        /* \"#utility.yul\":533:538   */\n      dup4\n        /* \"#utility.yul\":529:543   */\n      add\n        /* \"#utility.yul\":525:553   */\n      and\n        /* \"#utility.yul\":515:553   */\n      swap1\n      pop\n        /* \"#utility.yul\":457:559   */\n      swap2\n      swap1\n      pop\n      jump\t// out\n        /* \"#utility.yul\":565:745   */\n    tag_15:\n        /* \"#utility.yul\":613:690   */\n      0x4e487b7100000000000000000000000000000000000000000000000000000000\n        /* \"#utility.yul\":610:611   */\n      0x00\n        /* \"#utility.yul\":603:691   */\n      mstore\n        /* \"#utility.yul\":710:714   */\n      0x41\n        /* \"#utility.yul\":707:708   */\n      0x04\n        /* \"#utility.yul\":700:715   */\n      mstore\n        /* \"#utility.yul\":734:738   */\n      0x24\n        /* \"#utility.yul\":731:732   */\n      0x00\n        /* \"#utility.yul\":724:739   */\n      revert\n        /* \"#utility.yul\":751:1032   */\n    tag_16:\n        /* \"#utility.yul\":834:861   */\n      tag_34\n        /* \"#utility.yul\":856:860   */\n      dup3\n        /* \"#utility.yul\":834:861   */\n      tag_14\n      jump\t// in\n    tag_34:\n        /* \"#utility.yul\":826:832   */\n      dup2\n        /* \"#utility.yul\":822:862   */\n      add\n        /* \"#utility.yul\":964:970   */\n      dup2\n        /* \"#utility.yul\":952:962   */\n      dup2\n        /* \"#utility.yul\":949:971   */\n      lt\n        /* \"#utility.yul\":928:946   */\n      0xffffffffffffffff\n        /* \"#utility.yul\":916:926   */\n      dup3\n        /* \"#utility.yul\":913:947   */\n      gt\n        /* \"#utility.yul\":910:972   */\n      or\n        /* \"#utility.yul\":907:995   */\n      iszero\n      tag_35\n      jumpi\n        /* \"#utility.yul\":975:993   */\n      tag_36\n      tag_15\n      jump\t// in\n    tag_36:\n        /* \"#utility.yul\":907:995   */\n    tag_35:\n        /* \"#utility.yul\":1015:1025   */\n      dup1\n        /* \"#utility.yul\":1011:1013   */\n      0x40\n        /* \"#utility.yul\":1004:1026   */\n      mstore\n        /* \"#utility.yul\":794:1032   */\n      pop\n        /* \"#utility.yul\":751:1032   */\n      pop\n      pop\n      jump\t// out\n        /* \"#utility.yul\":1038:1167   */\n    tag_17:\n        /* \"#utility.yul\":1072:1078   */\n      0x00\n        /* \"#utility.yul\":1099:1119   */\n      tag_38\n      tag_10\n      jump\t// in\n    tag_38:\n        /* \"#utility.yul\":1089:1119   */\n      swap1\n      pop\n        /* \"#utility.yul\":1128:1161   */\n      tag_39\n        /* \"#utility.yul\":1156:1160   */\n      dup3\n        /* \"#utility.yul\":1148:1154   */\n      dup3\n        /* \"#utility.yul\":1128:1161   */\n      tag_16\n      jump\t// in\n    tag_39:\n        /* \"#utility.yul\":1038:1167   */\n      swap2\n      swap1\n      pop\n      jump\t// out\n        /* \"#utility.yul\":1173:1422   */\n    tag_18:\n        /* \"#utility.yul\":1248:1252   */\n      0x00\n        /* \"#utility.yul\":1338:1356   */\n      0xffffffffffffffff\n        /* \"#utility.yul\":1330:1336   */\n      dup3\n        /* \"#utility.yul\":1327:1357   */\n      gt\n        /* \"#utility.yul\":1324:1380   */\n      iszero\n      tag_41\n      jumpi\n        /* \"#utility.yul\":1360:1378   */\n      tag_42\n      tag_15\n      jump\t// in\n    tag_42:\n        /* \"#utility.yul\":1324:1380   */\n    tag_41:\n        /* \"#utility.yul\":1410:1414   */\n      0x20\n        /* \"#utility.yul\":1402:1408   */\n      dup3\n        /* \"#utility.yul\":1398:1415   */\n      mul\n        /* \"#utility.yul\":1390:1415   */\n      swap1\n      pop\n        /* \"#utility.yul\":1173:1422   */\n      swap2\n      swap1\n      pop\n      jump\t// out\n        /* \"#utility.yul\":1428:1545   */\n    tag_19:\n        /* \"#utility.yul\":1537:1538   */\n      0x00\n        /* \"#utility.yul\":1534:1535   */\n      dup1\n        /* \"#utility.yul\":1527:1539   */\n      revert\n        /* \"#utility.yul\":1551:1628   */\n    tag_20:\n        /* \"#utility.yul\":1588:1595   */\n      0x00\n        /* \"#utility.yul\":1617:1622   */\n      dup2\n        /* \"#utility.yul\":1606:1622   */\n      swap1\n      pop\n        /* \"#utility.yul\":1551:1628   */\n      swap2\n      swap1\n      pop\n      jump\t// out\n        /* \"#utility.yul\":1634:1756   */\n    tag_21:\n        /* \"#utility.yul\":1707:1731   */\n      tag_46\n        /* \"#utility.yul\":1725:1730   */\n      dup2\n        /* \"#utility.yul\":1707:1731   */\n      tag_20\n      jump\t// in\n    tag_46:\n        /* \"#utility.yul\":1700:1705   */\n      dup2\n        /* \"#utility.yul\":1697:1732   */\n      eq\n        /* \"#utility.yul\":1687:1750   */\n      tag_47\n      jumpi\n        /* \"#utility.yul\":1746:1747   */\n      0x00\n        /* \"#utility.yul\":1743:1744   */\n      dup1\n        /* \"#utility.yul\":1736:1748   */\n      revert\n        /* \"#utility.yul\":1687:1750   */\n    tag_47:\n        /* \"#utility.yul\":1634:1756   */\n      pop\n      jump\t// out\n        /* \"#utility.yul\":1762:1901   */\n    tag_22:\n        /* \"#utility.yul\":1808:1813   */\n      0x00\n        /* \"#utility.yul\":1846:1852   */\n      dup2\n        /* \"#utility.yul\":1833:1853   */\n      calldataload\n        /* \"#utility.yul\":1824:1853   */\n      swap1\n      pop\n        /* \"#utility.yul\":1862:1895   */\n      tag_49\n        /* \"#utility.yul\":1889:1894   */\n      dup2\n        /* \"#utility.yul\":1862:1895   */\n      tag_21\n      jump\t// in\n    tag_49:\n        /* \"#utility.yul\":1762:1901   */\n      swap3\n      swap2\n      pop\n      pop\n      jump\t// out\n        /* \"#utility.yul\":1925:2568   */\n    tag_23:\n        /* \"#utility.yul\":2019:2024   */\n      0x00\n        /* \"#utility.yul\":2044:2123   */\n      tag_51\n        /* \"#utility.yul\":2060:2122   */\n      tag_52\n        /* \"#utility.yul\":2115:2121   */\n      dup5\n        /* \"#utility.yul\":2060:2122   */\n      tag_18\n      jump\t// in\n    tag_52:\n        /* \"#utility.yul\":2044:2123   */\n      tag_17\n      jump\t// in\n    tag_51:\n        /* \"#utility.yul\":2035:2123   */\n      swap1\n      pop\n        /* \"#utility.yul\":2143:2148   */\n      dup1\n        /* \"#utility.yul\":2196:2200   */\n      0x20\n        /* \"#utility.yul\":2188:2194   */\n      dup5\n        /* \"#utility.yul\":2184:2201   */\n      mul\n        /* \"#utility.yul\":2176:2182   */\n      dup4\n        /* \"#utility.yul\":2172:2202   */\n      add\n        /* \"#utility.yul\":2225:2228   */\n      dup6\n        /* \"#utility.yul\":2217:2223   */\n      dup2\n        /* \"#utility.yul\":2214:2229   */\n      gt\n        /* \"#utility.yul\":2211:2333   */\n      iszero\n      tag_53\n      jumpi\n        /* \"#utility.yul\":2244:2323   */\n      tag_54\n      tag_19\n      jump\t// in\n    tag_54:\n        /* \"#utility.yul\":2211:2333   */\n    tag_53:\n        /* \"#utility.yul\":2359:2365   */\n      dup4\n        /* \"#utility.yul\":2342:2562   */\n    tag_55:\n        /* \"#utility.yul\":2376:2382   */\n      dup2\n        /* \"#utility.yul\":2371:2374   */\n      dup2\n        /* \"#utility.yul\":2368:2383   */\n      lt\n        /* \"#utility.yul\":2342:2562   */\n      iszero\n      tag_57\n      jumpi\n        /* \"#utility.yul\":2451:2454   */\n      dup1\n        /* \"#utility.yul\":2480:2517   */\n      tag_58\n        /* \"#utility.yul\":2513:2516   */\n      dup9\n        /* \"#utility.yul\":2501:2511   */\n      dup3\n        /* \"#utility.yul\":2480:2517   */\n      tag_22\n      jump\t// in\n    tag_58:\n        /* \"#utility.yul\":2475:2478   */\n      dup5\n        /* \"#utility.yul\":2468:2518   */\n      mstore\n        /* \"#utility.yul\":2547:2551   */\n      0x20\n        /* \"#utility.yul\":2542:2545   */\n      dup5\n        /* \"#utility.yul\":2538:2552   */\n      add\n        /* \"#utility.yul\":2531:2552   */\n      swap4\n      pop\n        /* \"#utility.yul\":2418:2562   */\n      pop\n        /* \"#utility.yul\":2402:2406   */\n      0x20\n        /* \"#utility.yul\":2397:2400   */\n      dup2\n        /* \"#utility.yul\":2393:2407   */\n      add\n        /* \"#utility.yul\":2386:2407   */\n      swap1\n      pop\n        /* \"#utility.yul\":2342:2562   */\n      jump(tag_55)\n    tag_57:\n        /* \"#utility.yul\":2346:2367   */\n      pop\n        /* \"#utility.yul\":2025:2568   */\n      pop\n      pop\n        /* \"#utility.yul\":1925:2568   */\n      swap4\n      swap3\n      pop\n      pop\n      pop\n      jump\t// out\n        /* \"#utility.yul\":2592:2931   */\n    tag_24:\n        /* \"#utility.yul\":2661:2666   */\n      0x00\n        /* \"#utility.yul\":2710:2713   */\n      dup3\n        /* \"#utility.yul\":2703:2707   */\n      0x1f\n        /* \"#utility.yul\":2695:2701   */\n      dup4\n        /* \"#utility.yul\":2691:2708   */\n      add\n        /* \"#utility.yul\":2687:2714   */\n      slt\n        /* \"#utility.yul\":2677:2799   */\n      tag_60\n      jumpi\n        /* \"#utility.yul\":2718:2797   */\n      tag_61\n      tag_13\n      jump\t// in\n    tag_61:\n        /* \"#utility.yul\":2677:2799   */\n    tag_60:\n        /* \"#utility.yul\":2822:2826   */\n      0x02\n        /* \"#utility.yul\":2844:2925   */\n      tag_62\n        /* \"#utility.yul\":2921:2924   */\n      dup5\n        /* \"#utility.yul\":2913:2919   */\n      dup3\n        /* \"#utility.yul\":2905:2911   */\n      dup6\n        /* \"#utility.yul\":2844:2925   */\n      tag_23\n      jump\t// in\n    tag_62:\n        /* \"#utility.yul\":2835:2925   */\n      swap2\n      pop\n        /* \"#utility.yul\":2667:2931   */\n      pop\n        /* \"#utility.yul\":2592:2931   */\n      swap3\n      swap2\n      pop\n      pop\n      jump\t// out\n        /* \"#utility.yul\":2937:3312   */\n    tag_5:\n        /* \"#utility.yul\":3019:3025   */\n      0x00\n        /* \"#utility.yul\":3068:3070   */\n      0x40\n        /* \"#utility.yul\":3056:3065   */\n      dup3\n        /* \"#utility.yul\":3047:3054   */\n      dup5\n        /* \"#utility.yul\":3043:3066   */\n      sub\n        /* \"#utility.yul\":3039:3071   */\n      slt\n        /* \"#utility.yul\":3036:3155   */\n      iszero\n      tag_64\n      jumpi\n        /* \"#utility.yul\":3074:3153   */\n      tag_65\n      tag_11\n      jump\t// in\n    tag_65:\n        /* \"#utility.yul\":3036:3155   */\n    tag_64:\n        /* \"#utility.yul\":3194:3195   */\n      0x00\n        /* \"#utility.yul\":3219:3295   */\n      tag_66\n        /* \"#utility.yul\":3287:3294   */\n      dup5\n        /* \"#utility.yul\":3278:3284   */\n      dup3\n        /* \"#utility.yul\":3267:3276   */\n      dup6\n        /* \"#utility.yul\":3263:3285   */\n      add\n        /* \"#utility.yul\":3219:3295   */\n      tag_24\n      jump\t// in\n    tag_66:\n        /* \"#utility.yul\":3209:3295   */\n      swap2\n      pop\n        /* \"#utility.yul\":3165:3305   */\n      pop\n        /* \"#utility.yul\":2937:3312   */\n      swap3\n      swap2\n      pop\n      pop\n      jump\t// out\n        /* \"#utility.yul\":3318:3444   */\n    tag_25:\n        /* \"#utility.yul\":3413:3437   */\n      tag_68\n        /* \"#utility.yul\":3431:3436   */\n      dup2\n        /* \"#utility.yul\":3413:3437   */\n      tag_20\n      jump\t// in\n    tag_68:\n        /* \"#utility.yul\":3408:3411   */\n      dup3\n        /* \"#utility.yul\":3401:3438   */\n      mstore\n        /* \"#utility.yul\":3318:3444   */\n      pop\n      pop\n      jump\t// out\n        /* \"#utility.yul\":3450:3688   */\n    tag_8:\n        /* \"#utility.yul\":3551:3555   */\n      0x00\n        /* \"#utility.yul\":3589:3591   */\n      0x20\n        /* \"#utility.yul\":3578:3587   */\n      dup3\n        /* \"#utility.yul\":3574:3592   */\n      add\n        /* \"#utility.yul\":3566:3592   */\n      swap1\n      pop\n        /* \"#utility.yul\":3602:3681   */\n      tag_70\n        /* \"#utility.yul\":3678:3679   */\n      0x00\n        /* \"#utility.yul\":3667:3676   */\n      dup4\n        /* \"#utility.yul\":3663:3680   */\n      add\n        /* \"#utility.yul\":3654:3660   */\n      dup5\n        /* \"#utility.yul\":3602:3681   */\n      tag_25\n      jump\t// in\n    tag_70:\n        /* \"#utility.yul\":3450:3688   */\n      swap3\n      swap2\n      pop\n      pop\n      jump\t// out\n\n    auxdata: 0xa2646970667358221220b4a636ce0a3e69fc028caea95d5216bc0e0434da5f130c5c95b006acf1caa39a64736f6c634300081a0033\n}\n",
				"bytecode": {
					"linkReferences": {},
					"object": "615dc8610052600b82828239805160001a6073146045577f4e487b7100000000000000000000000000000000000000000000000000000000600052600060045260246000fd5b30600052607381538281f3fe73000000000000000000000000000000000000000030146080604052600436106100355760003560e01c8063561558fe1461003a575b600080fd5b610054600480360381019061004f9190615d3b565b61006a565b6040516100619190615d77565b60405180910390f35b60007f30644e72e131a029b85045b68181585d2833e84879b9709143e1f593f00000017f2b90bba00fca0589f617e7dcbfe82e0df706ab640ceb247b791a93b74e36736d7f101071f0032379b697315876690f053d148d4e109f5fb065c8aacc55a0f89bfa7f19a3fc0a56702bf417ba7fee3802593fa644470307043f7773279cd71d25d5e07ef1445235f2148c5986587169fc1bcd887b08d4d00868df5696fff40956e8648460805106017f08dff3487e8ac99e1f29a058d0fa80b930c728730b7ab36ce879f3890ecf73f58560a05106018582830986838883840909925086828309905086828883840909915086868309877f16ed41e13bb9c0c66ae119424fddbcbc9314dc9fdbdeea55d6c64543dc4903e085097f2229fe5e63f56eef4bfba02c26292de10ac2b2b045e6184acff16e4660c05f6b01017f2f27be690fdaee46c3ce28f7532b13c856c35342c84bda6e20966310fadc01d001905086858309877f2e2419f9ec02ec394c9871c832963dc1b89d743c8c7b964029b2311687b1fe2385097f2949435275a29cdbffe3e4101a45669873f9408a5d11e21b4ec6edf8501eee4d01017f2b2ae1acf68b7b8d2416bebf3d4f6234b763fe04b8043ee48b8327bebca16cf20187858409887f176cc029695ad02582a70eff08a6fd99d057e12e58e7d7b6b16cdfabc8ee291186097f20c290a7269657965092ef5700a447f5bc2c41dfca932f527cb2600ac9bcfefb01017f0319d062072bef7ecca5eac06f97d4d55952c175ab6b03eae64b44c7dbf11cfa018883840989848b83840909935089838409905089838b83840909925089828309905089828b838409099150898983098a7f16ed41e13bb9c0c66ae119424fddbcbc9314dc9fdbdeea55d6c64543dc4903e085098b7f109b7f411ba0e4c9b2b70caf5c36a7b194be7c11ad24378bfedb68592ba8118b870901017f28813dcaebaeaa828a376df87af4a63bc8b7bf27ad49c6298ef7b387bf28526d019050898883098a7f2e2419f9ec02ec394c9871c832963dc1b89d743c8c7b964029b2311687b1fe2385098b7f2969f27eed31a480b9c36c764379dbca2cc8fdd1415c3dded62940bcde0bd771870901017f2727673b2ccbc903f181bf38e1c1d40d2033865200c352bc150928adddf9cb78019550898783098a7f176cc029695ad02582a70eff08a6fd99d057e12e58e7d7b6b16cdfabc8ee291185098b7f143021ec686a3f330d5f9e654638065ce6cd79e28c5b3753326244ee65a1b1a7870901017f234ec45ca27727c2e74abd2b2a1494cd6efbd43e340587d6b8fb9e31e65cc63201945089818209935089818b86870909905089868709935089868b86870909955089858609935089858b868709099450898986098a7f16ed41e13bb9c0c66ae119424fddbcbc9314dc9fdbdeea55d6c64543dc4903e088098b7f109b7f411ba0e4c9b2b70caf5c36a7b194be7c11ad24378bfedb68592ba8118b840901017f15b52534031ae18f7f862cb2cf7cf760ab10a8150a337b1ccd99ff6e8797d428019350898886098a7f2e2419f9ec02ec394c9871c832963dc1b89d743c8c7b964029b2311687b1fe2388098b7f2969f27eed31a480b9c36c764379dbca2cc8fdd1415c3dded62940bcde0bd771840901017f0dc8fad6d9e4b35f5ed9a3d186b79ce38e0e8a8d1b58b132d701d4eecf68d1f6019250898786098a7f176cc029695ad02582a70eff08a6fd99d057e12e58e7d7b6b16cdfabc8ee291188098b7f143021ec686a3f330d5f9e654638065ce6cd79e28c5b3753326244ee65a1b1a7840901017f1bcd95ffc211fbca600f705fad3fb567ea4eb378f62e1fec97805518a47e4d9c01915089848509905089848b83840909935089838409905089838b83840909925089828309905089828b838409099150898983098a7f16ed41e13bb9c0c66ae119424fddbcbc9314dc9fdbdeea55d6c64543dc4903e085098b7f109b7f411ba0e4c9b2b70caf5c36a7b194be7c11ad24378bfedb68592ba8118b870901017f10520b0ab721cadfe9eff81b016fc34dc76da36c2578937817cb978d069de559019050898883098a7f2e2419f9ec02ec394c9871c832963dc1b89d743c8c7b964029b2311687b1fe2385098b7f2969f27eed31a480b9c36c764379dbca2cc8fdd1415c3dded62940bcde0bd771870901017f1f6d48149b8e7f7d9b257d8ed5fbbaf42932498075fed0ace88a9eb81f5627f6019550898783098a7f176cc029695ad02582a70eff08a6fd99d057e12e58e7d7b6b16cdfabc8ee291185098b7f143021ec686a3f330d5f9e654638065ce6cd79e28c5b3753326244ee65a1b1a7870901017f1d9655f652309014d29e00ef35a2089bfff8dc1c816f0dc9ca34bdb5460c870501945089818209935089818b868709099050898986098a7f16ed41e13bb9c0c66ae119424fddbcbc9314dc9fdbdeea55d6c64543dc4903e088098b7f109b7f411ba0e4c9b2b70caf5c36a7b194be7c11ad24378bfedb68592ba8118b840901017f04df5a56ff95bcafb051f7b1cd43a99ba731ff67e47032058fe3d4185697cc7d019350898886098a7f2e2419f9ec02ec394c9871c832963dc1b89d743c8c7b964029b2311687b1fe2388098b7f2969f27eed31a480b9c36c764379dbca2cc8fdd1415c3dded62940bcde0bd771840901017f0672d995f8fff640151b3d290cedaf148690a10a8c8424a7f6ec282b6e4be828019250898786098a7f176cc029695ad02582a70eff08a6fd99d057e12e58e7d7b6b16cdfabc8ee291188098b7f143021ec686a3f330d5f9e654638065ce6cd79e28c5b3753326244ee65a1b1a7840901017f099952b414884454b21200d7ffafdd5f0c9a9dcc06f2708e9fc1d8209b5c75b901915089848509905089848b838409099350898983098a7f16ed41e13bb9c0c66ae119424fddbcbc9314dc9fdbdeea55d6c64543dc4903e085098b7f109b7f411ba0e4c9b2b70caf5c36a7b194be7c11ad24378bfedb68592ba8118b870901017f052cba2255dfd00c7c483143ba8d469448e43586a9b4cd9183fd0e843a6b9fa6019050898883098a7f2e2419f9ec02ec394c9871c832963dc1b89d743c8c7b964029b2311687b1fe2385098b7f2969f27eed31a480b9c36c764379dbca2cc8fdd1415c3dded62940bcde0bd771870901017f0b8badee690adb8eb0bd74712b7999af82de55707251ad7716077cb93c464ddc019550898783098a7f176cc029695ad02582a70eff08a6fd99d057e12e58e7d7b6b16cdfabc8ee291185098b7f143021ec686a3f330d5f9e654638065ce6cd79e28c5b3753326244ee65a1b1a7870901017f119b1590f13307af5a1ee651020c07c749c15d60683a8050b963d0a8e4b2bdd101945089818209935089818b868709099050898986098a7f16ed41e13bb9c0c66ae119424fddbcbc9314dc9fdbdeea55d6c64543dc4903e088098b7f109b7f411ba0e4c9b2b70caf5c36a7b194be7c11ad24378bfedb68592ba8118b840901017f03150b7cd6d5d17b2529d36be0f67b832c4acfc884ef4ee5ce15be0bfb4a8d09019350898886098a7f2e2419f9ec02ec394c9871c832963dc1b89d743c8c7b964029b2311687b1fe2388098b7f2969f27eed31a480b9c36c764379dbca2cc8fdd1415c3dded62940bcde0bd771840901017f2cc6182c5e14546e3cf1951f173912355374efb83d80898abe69cb317c9ea565019250898786098a7f176cc029695ad02582a70eff08a6fd99d057e12e58e7d7b6b16cdfabc8ee291188098b7f143021ec686a3f330d5f9e654638065ce6cd79e28c5b3753326244ee65a1b1a7840901017e5032551e6378c450cfe129a404b3764218cadedac14e2b92d2cd73111bf0f901915089848509905089848b838409099350898983098a7f16ed41e13bb9c0c66ae119424fddbcbc9314dc9fdbdeea55d6c64543dc4903e085098b7f109b7f411ba0e4c9b2b70caf5c36a7b194be7c11ad24378bfedb68592ba8118b870901017f233237e3289baa34bb147e972ebcb9516469c399fcc069fb88f9da2cc28276b5019050898883098a7f2e2419f9ec02ec394c9871c832963dc1b89d743c8c7b964029b2311687b1fe2385098b7f2969f27eed31a480b9c36c764379dbca2cc8fdd1415c3dded62940bcde0bd771870901017f05c8f4f4ebd4a6e3c980d31674bfbe6323037f21b34ae5a4e80c2d4c24d60280019550898783098a7f176cc029695ad02582a70eff08a6fd99d057e12e58e7d7b6b16cdfabc8ee291185098b7f143021ec686a3f330d5f9e654638065ce6cd79e28c5b3753326244ee65a1b1a7870901017f0a7b1db13042d396ba05d818a319f25252bcf35ef3aeed91ee1f09b2590fc65b01945089818209935089818b868709099050898986098a7f16ed41e13bb9c0c66ae119424fddbcbc9314dc9fdbdeea55d6c64543dc4903e088098b7f109b7f411ba0e4c9b2b70caf5c36a7b194be7c11ad24378bfedb68592ba8118b840901017f2a73b71f9b210cf5b14296572c9d32dbf156e2b086ff47dc5df542365a404ec0019350898886098a7f2e2419f9ec02ec394c9871c832963dc1b89d743c8c7b964029b2311687b1fe2388098b7f2969f27eed31a480b9c36c764379dbca2cc8fdd1415c3dded62940bcde0bd771840901017f1ac9b0417abcc9a1935107e9ffc91dc3ec18f2c4dbe7f22976a760bb5c50c460019250898786098a7f176cc029695ad02582a70eff08a6fd99d057e12e58e7d7b6b16cdfabc8ee291188098b7f143021ec686a3f330d5f9e654638065ce6cd79e28c5b3753326244ee65a1b1a7840901017f12c0339ae08374823fabb076707ef479269f3e4d6cb104349015ee046dc93fc001915089848509905089848b838409099350898983098a7f16ed41e13bb9c0c66ae119424fddbcbc9314dc9fdbdeea55d6c64543dc4903e085098b7f109b7f411ba0e4c9b2b70caf5c36a7b194be7c11ad24378bfedb68592ba8118b870901017f0b7475b102a165ad7f5b18db4e1e704f52900aa3253baac68246682e56e9a28e019050898883098a7f2e2419f9ec02ec394c9871c832963dc1b89d743c8c7b964029b2311687b1fe2385098b7f2969f27eed31a480b9c36c764379dbca2cc8fdd1415c3dded62940bcde0bd771870901017f037c2849e191ca3edb1c5e49f6e8b8917c843e379366f2ea32ab3aa88d7f8448019550898783098a7f176cc029695ad02582a70eff08a6fd99d057e12e58e7d7b6b16cdfabc8ee291185098b7f143021ec686a3f330d5f9e654638065ce6cd79e28c5b3753326244ee65a1b1a7870901017f05a6811f8556f014e92674661e217e9bd5206c5c93a07dc145fdb176a716346f01945089818209935089818b868709099050898986098a7f16ed41e13bb9c0c66ae119424fddbcbc9314dc9fdbdeea55d6c64543dc4903e088098b7f109b7f411ba0e4c9b2b70caf5c36a7b194be7c11ad24378bfedb68592ba8118b840901017f29a795e7d98028946e947b75d54e9f044076e87a7b2883b47b675ef5f38bd66e019350898886098a7f2e2419f9ec02ec394c9871c832963dc1b89d743c8c7b964029b2311687b1fe2388098b7f2969f27eed31a480b9c36c764379dbca2cc8fdd1415c3dded62940bcde0bd771840901017f20439a0c84b322eb45a3857afc18f5826e8c7382c8a1585c507be199981fd22f019250898786098a7f176cc029695ad02582a70eff08a6fd99d057e12e58e7d7b6b16cdfabc8ee291188098b7f143021ec686a3f330d5f9e654638065ce6cd79e28c5b3753326244ee65a1b1a7840901017f2e0ba8d94d9ecf4a94ec2050c7371ff1bb50f27799a84b6d4a2a6f2a0982c88701915089848509905089848b838409099350898983098a7f16ed41e13bb9c0c66ae119424fddbcbc9314dc9fdbdeea55d6c64543dc4903e085098b7f109b7f411ba0e4c9b2b70caf5c36a7b194be7c11ad24378bfedb68592ba8118b870901017f143fd115ce08fb27ca38eb7cce822b4517822cd2109048d2e6d0ddcca17d71c8019050898883098a7f2e2419f9ec02ec394c9871c832963dc1b89d743c8c7b964029b2311687b1fe2385098b7f2969f27eed31a480b9c36c764379dbca2cc8fdd1415c3dded62940bcde0bd771870901017f0c64cbecb1c734b857968dbbdcf813cdf8611659323dbcbfc84323623be9caf1019550898783098a7f176cc029695ad02582a70eff08a6fd99d057e12e58e7d7b6b16cdfabc8ee291185098b7f143021ec686a3f330d5f9e654638065ce6cd79e28c5b3753326244ee65a1b1a7870901017f028a305847c683f646fca925c163ff5ae74f348d62c2b670f1426cef9403da5301945089818209935089818b868709099050898986098a7f16ed41e13bb9c0c66ae119424fddbcbc9314dc9fdbdeea55d6c64543dc4903e088098b7f109b7f411ba0e4c9b2b70caf5c36a7b194be7c11ad24378bfedb68592ba8118b840901017f2e4ef510ff0b6fda5fa940ab4c4380f26a6bcb64d89427b824d6755b5db9e30c019350898886098a7f2e2419f9ec02ec394c9871c832963dc1b89d743c8c7b964029b2311687b1fe2388098b7f2969f27eed31a480b9c36c764379dbca2cc8fdd1415c3dded62940bcde0bd771840901017e81c95bc43384e663d79270c956ce3b8925b4f6d033b078b96384f50579400e019250898786098a7f176cc029695ad02582a70eff08a6fd99d057e12e58e7d7b6b16cdfabc8ee291188098b7f143021ec686a3f330d5f9e654638065ce6cd79e28c5b3753326244ee65a1b1a7840901017f2ed5f0c91cbd9749187e2fade687e05ee2491b349c039a0bba8a9f4023a0bb3801915089848509905089848b838409099350898983098a7f16ed41e13bb9c0c66ae119424fddbcbc9314dc9fdbdeea55d6c64543dc4903e085098b7f109b7f411ba0e4c9b2b70caf5c36a7b194be7c11ad24378bfedb68592ba8118b870901017f30509991f88da3504bbf374ed5aae2f03448a22c76234c8c990f01f33a735206019050898883098a7f2e2419f9ec02ec394c9871c832963dc1b89d743c8c7b964029b2311687b1fe2385098b7f2969f27eed31a480b9c36c764379dbca2cc8fdd1415c3dded62940bcde0bd771870901017f1c3f20fd55409a53221b7c4d49a356b9f0a1119fb2067b41a7529094424ec6ad019550898783098a7f176cc029695ad02582a70eff08a6fd99d057e12e58e7d7b6b16cdfabc8ee291185098b7f143021ec686a3f330d5f9e654638065ce6cd79e28c5b3753326244ee65a1b1a7870901017f10b4e7f3ab5df003049514459b6e18eec46bb2213e8e131e170887b47ddcb96c01945089818209935089818b868709099050898986098a7f16ed41e13bb9c0c66ae119424fddbcbc9314dc9fdbdeea55d6c64543dc4903e088098b7f109b7f411ba0e4c9b2b70caf5c36a7b194be7c11ad24378bfedb68592ba8118b840901017f2a1982979c3ff7f43ddd543d891c2abddd80f804c077d775039aa3502e43adef019350898886098a7f2e2419f9ec02ec394c9871c832963dc1b89d743c8c7b964029b2311687b1fe2388098b7f2969f27eed31a480b9c36c764379dbca2cc8fdd1415c3dded62940bcde0bd771840901017f1c74ee64f15e1db6feddbead56d6d55dba431ebc396c9af95cad0f1315bd5c91019250898786098a7f176cc029695ad02582a70eff08a6fd99d057e12e58e7d7b6b16cdfabc8ee291188098b7f143021ec686a3f330d5f9e654638065ce6cd79e28c5b3753326244ee65a1b1a7840901017f07533ec850ba7f98eab9303cace01b4b9e4f2e8b82708cfa9c2fe45a0ae146a001915089848509905089848b838409099350898983098a7f16ed41e13bb9c0c66ae119424fddbcbc9314dc9fdbdeea55d6c64543dc4903e085098b7f109b7f411ba0e4c9b2b70caf5c36a7b194be7c11ad24378bfedb68592ba8118b870901017f21576b438e500449a151e4eeaf17b154285c68f42d42c1808a11abf3764c0750019050898883098a7f2e2419f9ec02ec394c9871c832963dc1b89d743c8c7b964029b2311687b1fe2385098b7f2969f27eed31a480b9c36c764379dbca2cc8fdd1415c3dded62940bcde0bd771870901017f2f17c0559b8fe79608ad5ca193d62f10bce8384c815f0906743d6930836d4a9e019550898783098a7f176cc029695ad02582a70eff08a6fd99d057e12e58e7d7b6b16cdfabc8ee291185098b7f143021ec686a3f330d5f9e654638065ce6cd79e28c5b3753326244ee65a1b1a7870901017f2d477e3862d07708a79e8aae946170bc9775a4201318474ae665b0b1b7e2730e01945089818209935089818b868709099050898986098a7f16ed41e13bb9c0c66ae119424fddbcbc9314dc9fdbdeea55d6c64543dc4903e088098b7f109b7f411ba0e4c9b2b70caf5c36a7b194be7c11ad24378bfedb68592ba8118b840901017f162f5243967064c390e095577984f291afba2266c38f5abcd89be0f5b2747eab019350898886098a7f2e2419f9ec02ec394c9871c832963dc1b89d743c8c7b964029b2311687b1fe2388098b7f2969f27eed31a480b9c36c764379dbca2cc8fdd1415c3dded62940bcde0bd771840901017f2b4cb233ede9ba48264ecd2c8ae50d1ad7a8596a87f29f8a7777a70092393311019250898786098a7f176cc029695ad02582a70eff08a6fd99d057e12e58e7d7b6b16cdfabc8ee291188098b7f143021ec686a3f330d5f9e654638065ce6cd79e28c5b3753326244ee65a1b1a7840901017f2c8fbcb2dd8573dc1dbaf8f4622854776db2eece6d85c4cf4254e7c35e03b07a01915089848509905089848b838409099350898983098a7f16ed41e13bb9c0c66ae119424fddbcbc9314dc9fdbdeea55d6c64543dc4903e085098b7f109b7f411ba0e4c9b2b70caf5c36a7b194be7c11ad24378bfedb68592ba8118b870901017f1d6f347725e4816af2ff453f0cd56b199e1b61e9f601e9ade5e88db870949da9019050898883098a7f2e2419f9ec02ec394c9871c832963dc1b89d743c8c7b964029b2311687b1fe2385098b7f2969f27eed31a480b9c36c764379dbca2cc8fdd1415c3dded62940bcde0bd771870901017f204b0c397f4ebe71ebc2d8b3df5b913df9e6ac02b68d31324cd49af5c4565529019550898783098a7f176cc029695ad02582a70eff08a6fd99d057e12e58e7d7b6b16cdfabc8ee291185098b7f143021ec686a3f330d5f9e654638065ce6cd79e28c5b3753326244ee65a1b1a7870901017f0c4cb9dc3c4fd8174f1149b3c63c3c2f9ecb827cd7dc25534ff8fb75bc79c50201945089818209935089818b868709099050898986098a7f16ed41e13bb9c0c66ae119424fddbcbc9314dc9fdbdeea55d6c64543dc4903e088098b7f109b7f411ba0e4c9b2b70caf5c36a7b194be7c11ad24378bfedb68592ba8118b840901017f174ad61a1448c899a25416474f4930301e5c49475279e0639a616ddc45bc7b54019350898886098a7f2e2419f9ec02ec394c9871c832963dc1b89d743c8c7b964029b2311687b1fe2388098b7f2969f27eed31a480b9c36c764379dbca2cc8fdd1415c3dded62940bcde0bd771840901017f1a96177bcf4d8d89f759df4ec2f3cde2eaaa28c177cc0fa13a9816d49a38d2ef019250898786098a7f176cc029695ad02582a70eff08a6fd99d057e12e58e7d7b6b16cdfabc8ee291188098b7f143021ec686a3f330d5f9e654638065ce6cd79e28c5b3753326244ee65a1b1a7840901017f066d04b24331d71cd0ef8054bc60c4ff05202c126a233c1a8242ace360b8a30a01915089848509905089848b838409099350898983098a7f16ed41e13bb9c0c66ae119424fddbcbc9314dc9fdbdeea55d6c64543dc4903e085098b7f109b7f411ba0e4c9b2b70caf5c36a7b194be7c11ad24378bfedb68592ba8118b870901017f2a4c4fc6ec0b0cf52195782871c6dd3b381cc65f72e02ad527037a62aa1bd804019050898883098a7f2e2419f9ec02ec394c9871c832963dc1b89d743c8c7b964029b2311687b1fe2385098b7f2969f27eed31a480b9c36c764379dbca2cc8fdd1415c3dded62940bcde0bd771870901017f13ab2d136ccf37d447e9f2e14a7cedc95e727f8446f6d9d7e55afc01219fd649019550898783098a7f176cc029695ad02582a70eff08a6fd99d057e12e58e7d7b6b16cdfabc8ee291185098b7f143021ec686a3f330d5f9e654638065ce6cd79e28c5b3753326244ee65a1b1a7870901017f1121552fca26061619d24d843dc82769c1b04fcec26f55194c2e3e869acc6a9a01945089818209935089818b868709099050898986098a7f16ed41e13bb9c0c66ae119424fddbcbc9314dc9fdbdeea55d6c64543dc4903e088098b7f109b7f411ba0e4c9b2b70caf5c36a7b194be7c11ad24378bfedb68592ba8118b840901017eef653322b13d6c889bc81715c37d77a6cd267d595c4a8909a5546c7c97cff1019350898886098a7f2e2419f9ec02ec394c9871c832963dc1b89d743c8c7b964029b2311687b1fe2388098b7f2969f27eed31a480b9c36c764379dbca2cc8fdd1415c3dded62940bcde0bd771840901017f0e25483e45a665208b261d8ba74051e6400c776d652595d9845aca35d8a397d3019250898786098a7f176cc029695ad02582a70eff08a6fd99d057e12e58e7d7b6b16cdfabc8ee291188098b7f143021ec686a3f330d5f9e654638065ce6cd79e28c5b3753326244ee65a1b1a7840901017f29f536dcb9dd7682245264659e15d88e395ac3d4dde92d8c46448db979eeba8901915089848509905089848b838409099350898983098a7f16ed41e13bb9c0c66ae119424fddbcbc9314dc9fdbdeea55d6c64543dc4903e085098b7f109b7f411ba0e4c9b2b70caf5c36a7b194be7c11ad24378bfedb68592ba8118b870901017f2a56ef9f2c53febadfda33575dbdbd885a124e2780bbea170e456baace0fa5be019050898883098a7f2e2419f9ec02ec394c9871c832963dc1b89d743c8c7b964029b2311687b1fe2385098b7f2969f27eed31a480b9c36c764379dbca2cc8fdd1415c3dded62940bcde0bd771870901017f1c8361c78eb5cf5decfb7a2d17b5c409f2ae2999a46762e8ee416240a8cb9af1019550898783098a7f176cc029695ad02582a70eff08a6fd99d057e12e58e7d7b6b16cdfabc8ee291185098b7f143021ec686a3f330d5f9e654638065ce6cd79e28c5b3753326244ee65a1b1a7870901017f151aff5f38b20a0fc0473089aaf0206b83e8e68a764507bfd3d0ab4be74319c501945089818209935089818b868709099050898986098a7f16ed41e13bb9c0c66ae119424fddbcbc9314dc9fdbdeea55d6c64543dc4903e088098b7f109b7f411ba0e4c9b2b70caf5c36a7b194be7c11ad24378bfedb68592ba8118b840901017f04c6187e41ed881dc1b239c88f7f9d43a9f52fc8c8b6cdd1e76e47615b51f100019350898886098a7f2e2419f9ec02ec394c9871c832963dc1b89d743c8c7b964029b2311687b1fe2388098b7f2969f27eed31a480b9c36c764379dbca2cc8fdd1415c3dded62940bcde0bd771840901017f13b37bd80f4d27fb10d84331f6fb6d534b81c61ed15776449e801b7ddc9c2967019250898786098a7f176cc029695ad02582a70eff08a6fd99d057e12e58e7d7b6b16cdfabc8ee291188098b7f143021ec686a3f330d5f9e654638065ce6cd79e28c5b3753326244ee65a1b1a7840901017f01a5c536273c2d9df578bfbd32c17b7a2ce3664c2a52032c9321ceb1c4e8a8e401915089848509905089848b838409099350898983098a7f16ed41e13bb9c0c66ae119424fddbcbc9314dc9fdbdeea55d6c64543dc4903e085098b7f109b7f411ba0e4c9b2b70caf5c36a7b194be7c11ad24378bfedb68592ba8118b870901017f2ab3561834ca73835ad05f5d7acb950b4a9a2c666b9726da832239065b7c3b02019050898883098a7f2e2419f9ec02ec394c9871c832963dc1b89d743c8c7b964029b2311687b1fe2385098b7f2969f27eed31a480b9c36c764379dbca2cc8fdd1415c3dded62940bcde0bd771870901017f1d4d8ec291e720db200fe6d686c0d613acaf6af4e95d3bf69f7ed516a597b646019550898783098a7f176cc029695ad02582a70eff08a6fd99d057e12e58e7d7b6b16cdfabc8ee291185098b7f143021ec686a3f330d5f9e654638065ce6cd79e28c5b3753326244ee65a1b1a7870901017f041294d2cc484d228f5784fe7919fd2bb925351240a04b711514c9c80b65af1d01945089818209935089818b868709099050898986098a7f16ed41e13bb9c0c66ae119424fddbcbc9314dc9fdbdeea55d6c64543dc4903e088098b7f109b7f411ba0e4c9b2b70caf5c36a7b194be7c11ad24378bfedb68592ba8118b840901017f154ac98e01708c611c4fa715991f004898f57939d126e392042971dd90e81fc6019350898886098a7f2e2419f9ec02ec394c9871c832963dc1b89d743c8c7b964029b2311687b1fe2388098b7f2969f27eed31a480b9c36c764379dbca2cc8fdd1415c3dded62940bcde0bd771840901017f0b339d8acca7d4f83eedd84093aef51050b3684c88f8b0b04524563bc6ea4da4019250898786098a7f176cc029695ad02582a70eff08a6fd99d057e12e58e7d7b6b16cdfabc8ee291188098b7f143021ec686a3f330d5f9e654638065ce6cd79e28c5b3753326244ee65a1b1a7840901017f0955e49e6610c94254a4f84cfbab344598f0e71eaff4a7dd81ed95b50839c82e01915089848509905089848b838409099350898983098a7f16ed41e13bb9c0c66ae119424fddbcbc9314dc9fdbdeea55d6c64543dc4903e085098b7f109b7f411ba0e4c9b2b70caf5c36a7b194be7c11ad24378bfedb68592ba8118b870901017f06746a6156eba54426b9e22206f15abca9a6f41e6f535c6f3525401ea0654626019050898883098a7f2e2419f9ec02ec394c9871c832963dc1b89d743c8c7b964029b2311687b1fe2385098b7f2969f27eed31a480b9c36c764379dbca2cc8fdd1415c3dded62940bcde0bd771870901017f0f18f5a0ecd1423c496f3820c549c27838e5790e2bd0a196ac917c7ff32077fb019550898783098a7f176cc029695ad02582a70eff08a6fd99d057e12e58e7d7b6b16cdfabc8ee291185098b7f143021ec686a3f330d5f9e654638065ce6cd79e28c5b3753326244ee65a1b1a7870901017f04f6eeca1751f7308ac59eff5beb261e4bb563583ede7bc92a738223d6f76e1301945089818209935089818b868709099050898986098a7f16ed41e13bb9c0c66ae119424fddbcbc9314dc9fdbdeea55d6c64543dc4903e088098b7f109b7f411ba0e4c9b2b70caf5c36a7b194be7c11ad24378bfedb68592ba8118b840901017f2b56973364c4c4f5c1a3ec4da3cdce038811eb116fb3e45bc1768d26fc0b3758019350898886098a7f2e2419f9ec02ec394c9871c832963dc1b89d743c8c7b964029b2311687b1fe2388098b7f2969f27eed31a480b9c36c764379dbca2cc8fdd1415c3dded62940bcde0bd771840901017f123769dd49d5b054dcd76b89804b1bcb8e1392b385716a5d83feb65d437f29ef019250898786098a7f176cc029695ad02582a70eff08a6fd99d057e12e58e7d7b6b16cdfabc8ee291188098b7f143021ec686a3f330d5f9e654638065ce6cd79e28c5b3753326244ee65a1b1a7840901017f2147b424fc48c80a88ee52b91169aacea989f6446471150994257b2fb01c63e901915089848509905089848b838409099350898983098a7f16ed41e13bb9c0c66ae119424fddbcbc9314dc9fdbdeea55d6c64543dc4903e085098b7f109b7f411ba0e4c9b2b70caf5c36a7b194be7c11ad24378bfedb68592ba8118b870901017f0fdc1f58548b85701a6c5505ea332a29647e6f34ad4243c2ea54ad897cebe54d019050898883098a7f2e2419f9ec02ec394c9871c832963dc1b89d743c8c7b964029b2311687b1fe2385098b7f2969f27eed31a480b9c36c764379dbca2cc8fdd1415c3dded62940bcde0bd771870901017f12373a8251fea004df68abcf0f7786d4bceff28c5dbbe0c3944f685cc0a0b1f2019550898783098a7f176cc029695ad02582a70eff08a6fd99d057e12e58e7d7b6b16cdfabc8ee291185098b7f143021ec686a3f330d5f9e654638065ce6cd79e28c5b3753326244ee65a1b1a7870901017f21e4f4ea5f35f85bad7ea52ff742c9e8a642756b6af44203dd8a1f35c1a9003501945089818209935089818b868709099050898986098a7f16ed41e13bb9c0c66ae119424fddbcbc9314dc9fdbdeea55d6c64543dc4903e088098b7f109b7f411ba0e4c9b2b70caf5c36a7b194be7c11ad24378bfedb68592ba8118b840901017f16243916d69d2ca3dfb4722224d4c462b57366492f45e90d8a81934f1bc3b147019350898886098a7f2e2419f9ec02ec394c9871c832963dc1b89d743c8c7b964029b2311687b1fe2388098b7f2969f27eed31a480b9c36c764379dbca2cc8fdd1415c3dded62940bcde0bd771840901017f1efbe46dd7a578b4f66f9adbc88b4378abc21566e1a0453ca13a4159cac04ac2019250898786098a7f176cc029695ad02582a70eff08a6fd99d057e12e58e7d7b6b16cdfabc8ee291188098b7f143021ec686a3f330d5f9e654638065ce6cd79e28c5b3753326244ee65a1b1a7840901017f07ea5e8537cf5dd08886020e23a7f387d468d5525be66f853b672cc96a88969a01915089848509905089848b838409099350898983098a7f16ed41e13bb9c0c66ae119424fddbcbc9314dc9fdbdeea55d6c64543dc4903e085098b7f109b7f411ba0e4c9b2b70caf5c36a7b194be7c11ad24378bfedb68592ba8118b870901017f05a8c4f9968b8aa3b7b478a30f9a5b63650f19a75e7ce11ca9fe16c0b76c00bc019050898883098a7f2e2419f9ec02ec394c9871c832963dc1b89d743c8c7b964029b2311687b1fe2385098b7f2969f27eed31a480b9c36c764379dbca2cc8fdd1415c3dded62940bcde0bd771870901017f20f057712cc21654fbfe59bd345e8dac3f7818c701b9c7882d9d57b72a32e83f019550898783098a7f176cc029695ad02582a70eff08a6fd99d057e12e58e7d7b6b16cdfabc8ee291185098b7f143021ec686a3f330d5f9e654638065ce6cd79e28c5b3753326244ee65a1b1a7870901017f04a12ededa9dfd689672f8c67fee31636dcd8e88d01d49019bd90b33eb33db6901945089818209935089818b868709099050898986098a7f16ed41e13bb9c0c66ae119424fddbcbc9314dc9fdbdeea55d6c64543dc4903e088098b7f109b7f411ba0e4c9b2b70caf5c36a7b194be7c11ad24378bfedb68592ba8118b840901017f27e88d8c15f37dcee44f1e5425a51decbd136ce5091a6767e49ec9544ccd101a019350898886098a7f2e2419f9ec02ec394c9871c832963dc1b89d743c8c7b964029b2311687b1fe2388098b7f2969f27eed31a480b9c36c764379dbca2cc8fdd1415c3dded62940bcde0bd771840901017f2feed17b84285ed9b8a5c8c5e95a41f66e096619a7703223176c41ee433de4d1019250898786098a7f176cc029695ad02582a70eff08a6fd99d057e12e58e7d7b6b16cdfabc8ee291188098b7f143021ec686a3f330d5f9e654638065ce6cd79e28c5b3753326244ee65a1b1a7840901017f1ed7cc76edf45c7c404241420f729cf394e5942911312a0d6972b8bd53aff2b801915089848509905089848b838409099350898983098a7f16ed41e13bb9c0c66ae119424fddbcbc9314dc9fdbdeea55d6c64543dc4903e085098b7f109b7f411ba0e4c9b2b70caf5c36a7b194be7c11ad24378bfedb68592ba8118b870901017f15742e99b9bfa323157ff8c586f5660eac6783476144cdcadf2874be45466b1a019050898883098a7f2e2419f9ec02ec394c9871c832963dc1b89d743c8c7b964029b2311687b1fe2385098b7f2969f27eed31a480b9c36c764379dbca2cc8fdd1415c3dded62940bcde0bd771870901017f1aac285387f65e82c895fc6887ddf40577107454c6ec0317284f033f27d0c785019550898783098a7f176cc029695ad02582a70eff08a6fd99d057e12e58e7d7b6b16cdfabc8ee291185098b7f143021ec686a3f330d5f9e654638065ce6cd79e28c5b3753326244ee65a1b1a7870901017f25851c3c845d4790f9ddadbdb6057357832e2e7a49775f71ec75a96554d67c7701945089818209935089818b868709099050898986098a7f16ed41e13bb9c0c66ae119424fddbcbc9314dc9fdbdeea55d6c64543dc4903e088098b7f109b7f411ba0e4c9b2b70caf5c36a7b194be7c11ad24378bfedb68592ba8118b840901017f15a5821565cc2ec2ce78457db197edf353b7ebba2c5523370ddccc3d9f146a67019350898886098a7f2e2419f9ec02ec394c9871c832963dc1b89d743c8c7b964029b2311687b1fe2388098b7f2969f27eed31a480b9c36c764379dbca2cc8fdd1415c3dded62940bcde0bd771840901017f2411d57a4813b9980efa7e31a1db5966dcf64f36044277502f15485f28c71727019250898786098a7f176cc029695ad02582a70eff08a6fd99d057e12e58e7d7b6b16cdfabc8ee291188098b7f143021ec686a3f330d5f9e654638065ce6cd79e28c5b3753326244ee65a1b1a7840901017e2e6f8d6520cd4713e335b8c0b6d2e647e9a98e12f4cd2558828b5ef6cb4c9b01915089848509905089848b838409099350898983098a7f16ed41e13bb9c0c66ae119424fddbcbc9314dc9fdbdeea55d6c64543dc4903e085098b7f109b7f411ba0e4c9b2b70caf5c36a7b194be7c11ad24378bfedb68592ba8118b870901017f2ff7bc8f4380cde997da00b616b0fcd1af8f0e91e2fe1ed7398834609e0315d2019050898883098a7f2e2419f9ec02ec394c9871c832963dc1b89d743c8c7b964029b2311687b1fe2385098b7f2969f27eed31a480b9c36c764379dbca2cc8fdd1415c3dded62940bcde0bd771870901017eb9831b948525595ee02724471bcd182e9521f6b7bb68f1e93be4febb0d3cbe019550898783098a7f176cc029695ad02582a70eff08a6fd99d057e12e58e7d7b6b16cdfabc8ee291185098b7f143021ec686a3f330d5f9e654638065ce6cd79e28c5b3753326244ee65a1b1a7870901017f0a2f53768b8ebf6a86913b0e57c04e011ca408648a4743a87d77adbf0c9c351201945089818209935089818b868709099050898986098a7f16ed41e13bb9c0c66ae119424fddbcbc9314dc9fdbdeea55d6c64543dc4903e088098b7f109b7f411ba0e4c9b2b70caf5c36a7b194be7c11ad24378bfedb68592ba8118b840901017e248156142fd0373a479f91ff239e960f599ff7e94be69b7f2a290305e1198d019350898886098a7f2e2419f9ec02ec394c9871c832963dc1b89d743c8c7b964029b2311687b1fe2388098b7f2969f27eed31a480b9c36c764379dbca2cc8fdd1415c3dded62940bcde0bd771840901017f171d5620b87bfb1328cf8c02ab3f0c9a397196aa6a542c2350eb512a2b2bcda9019250898786098a7f176cc029695ad02582a70eff08a6fd99d057e12e58e7d7b6b16cdfabc8ee291188098b7f143021ec686a3f330d5f9e654638065ce6cd79e28c5b3753326244ee65a1b1a7840901017f170a4f55536f7dc970087c7c10d6fad760c952172dd54dd99d1045e4ec34a80801915089848509905089848b838409099350898983098a7f16ed41e13bb9c0c66ae119424fddbcbc9314dc9fdbdeea55d6c64543dc4903e085098b7f109b7f411ba0e4c9b2b70caf5c36a7b194be7c11ad24378bfedb68592ba8118b870901017f29aba33f799fe66c2ef3134aea04336ecc37e38c1cd211ba482eca17e2dbfae1019050898883098a7f2e2419f9ec02ec394c9871c832963dc1b89d743c8c7b964029b2311687b1fe2385098b7f2969f27eed31a480b9c36c764379dbca2cc8fdd1415c3dded62940bcde0bd771870901017f1e9bc179a4fdd758fdd1bb1945088d47e70d114a03f6a0e8b5ba650369e64973019550898783098a7f176cc029695ad02582a70eff08a6fd99d057e12e58e7d7b6b16cdfabc8ee291185098b7f143021ec686a3f330d5f9e654638065ce6cd79e28c5b3753326244ee65a1b1a7870901017f1dd269799b660fad58f7f4892dfb0b5afeaad869a9c4b44f9c9e1c43bdaf8f0901945089818209935089818b868709099050898986098a7f16ed41e13bb9c0c66ae119424fddbcbc9314dc9fdbdeea55d6c64543dc4903e088098b7f109b7f411ba0e4c9b2b70caf5c36a7b194be7c11ad24378bfedb68592ba8118b840901017f22cdbc8b70117ad1401181d02e15459e7ccd426fe869c7c95d1dd2cb0f24af38019350898886098a7f2e2419f9ec02ec394c9871c832963dc1b89d743c8c7b964029b2311687b1fe2388098b7f2969f27eed31a480b9c36c764379dbca2cc8fdd1415c3dded62940bcde0bd771840901017f0ef042e454771c533a9f57a55c503fcefd3150f52ed94a7cd5ba93b9c7dacefd019250898786098a7f176cc029695ad02582a70eff08a6fd99d057e12e58e7d7b6b16cdfabc8ee291188098b7f143021ec686a3f330d5f9e654638065ce6cd79e28c5b3753326244ee65a1b1a7840901017f11609e06ad6c8fe2f287f3036037e8851318e8b08a0359a03b304ffca62e828401915089848509905089848b838409099350898983098a7f16ed41e13bb9c0c66ae119424fddbcbc9314dc9fdbdeea55d6c64543dc4903e085098b7f109b7f411ba0e4c9b2b70caf5c36a7b194be7c11ad24378bfedb68592ba8118b870901017f1166d9e554616dba9e753eea427c17b7fecd58c076dfe42708b08f5b783aa9af019050898883098a7f2e2419f9ec02ec394c9871c832963dc1b89d743c8c7b964029b2311687b1fe2385098b7f2969f27eed31a480b9c36c764379dbca2cc8fdd1415c3dded62940bcde0bd771870901017f2de52989431a859593413026354413db177fbf4cd2ac0b56f855a888357ee466019550898783098a7f176cc029695ad02582a70eff08a6fd99d057e12e58e7d7b6b16cdfabc8ee291185098b7f143021ec686a3f330d5f9e654638065ce6cd79e28c5b3753326244ee65a1b1a7870901017f3006eb4ffc7a85819a6da492f3a8ac1df51aee5b17b8e89d74bf01cf5f71e9ad01945089818209935089818b868709099050898986098a7f16ed41e13bb9c0c66ae119424fddbcbc9314dc9fdbdeea55d6c64543dc4903e088098b7f109b7f411ba0e4c9b2b70caf5c36a7b194be7c11ad24378bfedb68592ba8118b840901017f2af41fbb61ba8a80fdcf6fff9e3f6f422993fe8f0a4639f962344c8225145086019350898886098a7f2e2419f9ec02ec394c9871c832963dc1b89d743c8c7b964029b2311687b1fe2388098b7f2969f27eed31a480b9c36c764379dbca2cc8fdd1415c3dded62940bcde0bd771840901017f119e684de476155fe5a6b41a8ebc85db8718ab27889e85e781b214bace4827c3019250898786098a7f176cc029695ad02582a70eff08a6fd99d057e12e58e7d7b6b16cdfabc8ee291188098b7f143021ec686a3f330d5f9e654638065ce6cd79e28c5b3753326244ee65a1b1a7840901017f1835b786e2e8925e188bea59ae363537b51248c23828f047cff784b97b3fd80001915089848509905089848b838409099350898983098a7f16ed41e13bb9c0c66ae119424fddbcbc9314dc9fdbdeea55d6c64543dc4903e085098b7f109b7f411ba0e4c9b2b70caf5c36a7b194be7c11ad24378bfedb68592ba8118b870901017f28201a34c594dfa34d794996c6433a20d152bac2a7905c926c40e285ab32eeb6019050898883098a7f2e2419f9ec02ec394c9871c832963dc1b89d743c8c7b964029b2311687b1fe2385098b7f2969f27eed31a480b9c36c764379dbca2cc8fdd1415c3dded62940bcde0bd771870901017f083efd7a27d1751094e80fefaf78b000864c82eb571187724a761f88c22cc4e7019550898783098a7f176cc029695ad02582a70eff08a6fd99d057e12e58e7d7b6b16cdfabc8ee291185098b7f143021ec686a3f330d5f9e654638065ce6cd79e28c5b3753326244ee65a1b1a7870901017f0b6f88a3577199526158e61ceea27be811c16df7774dd8519e079564f61fd13b01945089818209935089818b868709099050898986098a7f16ed41e13bb9c0c66ae119424fddbcbc9314dc9fdbdeea55d6c64543dc4903e088098b7f109b7f411ba0e4c9b2b70caf5c36a7b194be7c11ad24378bfedb68592ba8118b840901017f0ec868e6d15e51d9644f66e1d6471a94589511ca00d29e1014390e6ee4254f5b019350898886098a7f2e2419f9ec02ec394c9871c832963dc1b89d743c8c7b964029b2311687b1fe2388098b7f2969f27eed31a480b9c36c764379dbca2cc8fdd1415c3dded62940bcde0bd771840901017f2af33e3f866771271ac0c9b3ed2e1142ecd3e74b939cd40d00d937ab84c98591019250898786098a7f176cc029695ad02582a70eff08a6fd99d057e12e58e7d7b6b16cdfabc8ee291188098b7f143021ec686a3f330d5f9e654638065ce6cd79e28c5b3753326244ee65a1b1a7840901017f0b520211f904b5e7d09b5d961c6ace7734568c547dd6858b364ce5e47951f17801915089848509905089848b838409099350898983098a7f16ed41e13bb9c0c66ae119424fddbcbc9314dc9fdbdeea55d6c64543dc4903e085098b7f109b7f411ba0e4c9b2b70caf5c36a7b194be7c11ad24378bfedb68592ba8118b870901017f0b2d722d0919a1aad8db58f10062a92ea0c56ac4270e822cca228620188a1d40019050898883098a7f2e2419f9ec02ec394c9871c832963dc1b89d743c8c7b964029b2311687b1fe2385098b7f2969f27eed31a480b9c36c764379dbca2cc8fdd1415c3dded62940bcde0bd771870901017f1f790d4d7f8cf094d980ceb37c2453e957b54a9991ca38bbe0061d1ed6e562d4019550898783098a7f176cc029695ad02582a70eff08a6fd99d057e12e58e7d7b6b16cdfabc8ee291185098b7f143021ec686a3f330d5f9e654638065ce6cd79e28c5b3753326244ee65a1b1a7870901017f0171eb95dfbf7d1eaea97cd385f780150885c16235a2a6a8da92ceb01e50423301945089818209935089818b868709099050898986098a7f16ed41e13bb9c0c66ae119424fddbcbc9314dc9fdbdeea55d6c64543dc4903e088098b7f109b7f411ba0e4c9b2b70caf5c36a7b194be7c11ad24378bfedb68592ba8118b840901017f0c2d0e3b5fd57549329bf6885da66b9b790b40defd2c8650762305381b168873019350898886098a7f2e2419f9ec02ec394c9871c832963dc1b89d743c8c7b964029b2311687b1fe2388098b7f2969f27eed31a480b9c36c764379dbca2cc8fdd1415c3dded62940bcde0bd771840901017f1162fb28689c27154e5a8228b4e72b377cbcafa589e283c35d3803054407a18d019250898786098a7f176cc029695ad02582a70eff08a6fd99d057e12e58e7d7b6b16cdfabc8ee291188098b7f143021ec686a3f330d5f9e654638065ce6cd79e28c5b3753326244ee65a1b1a7840901017f2f1459b65dee441b64ad386a91e8310f282c5a92a89e19921623ef8249711bc001915089848509905089848b838409099350898983098a7f16ed41e13bb9c0c66ae119424fddbcbc9314dc9fdbdeea55d6c64543dc4903e085098b7f109b7f411ba0e4c9b2b70caf5c36a7b194be7c11ad24378bfedb68592ba8118b870901017f1e6ff3216b688c3d996d74367d5cd4c1bc489d46754eb712c243f70d1b53cfbb019050898883098a7f2e2419f9ec02ec394c9871c832963dc1b89d743c8c7b964029b2311687b1fe2385098b7f2969f27eed31a480b9c36c764379dbca2cc8fdd1415c3dded62940bcde0bd771870901017f01ca8be73832b8d0681487d27d157802d741a6f36cdc2a0576881f9326478875019550898783098a7f176cc029695ad02582a70eff08a6fd99d057e12e58e7d7b6b16cdfabc8ee291185098b7f143021ec686a3f330d5f9e654638065ce6cd79e28c5b3753326244ee65a1b1a7870901017f1f7735706ffe9fc586f976d5bdf223dc680286080b10cea00b9b5de315f9650e01945089818209935089818b868709099050898986098a7f16ed41e13bb9c0c66ae119424fddbcbc9314dc9fdbdeea55d6c64543dc4903e088098b7f109b7f411ba0e4c9b2b70caf5c36a7b194be7c11ad24378bfedb68592ba8118b840901017f2522b60f4ea3307640a0c2dce041fba921ac10a3d5f096ef4745ca838285f019019350898886098a7f2e2419f9ec02ec394c9871c832963dc1b89d743c8c7b964029b2311687b1fe2388098b7f2969f27eed31a480b9c36c764379dbca2cc8fdd1415c3dded62940bcde0bd771840901017f23f0bee001b1029d5255075ddc957f833418cad4f52b6c3f8ce16c235572575b019250898786098a7f176cc029695ad02582a70eff08a6fd99d057e12e58e7d7b6b16cdfabc8ee291188098b7f143021ec686a3f330d5f9e654638065ce6cd79e28c5b3753326244ee65a1b1a7840901017f2bc1ae8b8ddbb81fcaac2d44555ed5685d142633e9df905f66d9401093082d5901915089848509905089848b838409099350898983098a7f16ed41e13bb9c0c66ae119424fddbcbc9314dc9fdbdeea55d6c64543dc4903e085098b7f109b7f411ba0e4c9b2b70caf5c36a7b194be7c11ad24378bfedb68592ba8118b870901017f0f9406b8296564a37304507b8dba3ed162371273a07b1fc98011fcd6ad72205f019050898883098a7f2e2419f9ec02ec394c9871c832963dc1b89d743c8c7b964029b2311687b1fe2385098b7f2969f27eed31a480b9c36c764379dbca2cc8fdd1415c3dded62940bcde0bd771870901017f2360a8eb0cc7defa67b72998de90714e17e75b174a52ee4acb126c8cd995f0a8019550898783098a7f176cc029695ad02582a70eff08a6fd99d057e12e58e7d7b6b16cdfabc8ee291185098b7f143021ec686a3f330d5f9e654638065ce6cd79e28c5b3753326244ee65a1b1a7870901017f15871a5cddead976804c803cbaef255eb4815a5e96df8b006dcbbc2767f8894801945089818209935089818b868709099050898986098a7f16ed41e13bb9c0c66ae119424fddbcbc9314dc9fdbdeea55d6c64543dc4903e088098b7f109b7f411ba0e4c9b2b70caf5c36a7b194be7c11ad24378bfedb68592ba8118b840901017f193a56766998ee9e0a8652dd2f3b1da0362f4f54f72379544f957ccdeefb420f019350898886098a7f2e2419f9ec02ec394c9871c832963dc1b89d743c8c7b964029b2311687b1fe2388098b7f2969f27eed31a480b9c36c764379dbca2cc8fdd1415c3dded62940bcde0bd771840901017f2a394a43934f86982f9be56ff4fab1703b2e63c8ad334834e4309805e777ae0f019250898786098a7f176cc029695ad02582a70eff08a6fd99d057e12e58e7d7b6b16cdfabc8ee291188098b7f143021ec686a3f330d5f9e654638065ce6cd79e28c5b3753326244ee65a1b1a7840901017f1859954cfeb8695f3e8b635dcb345192892cd11223443ba7b4166e8876c0d14201915089848509905089848b838409099350898983098a7f16ed41e13bb9c0c66ae119424fddbcbc9314dc9fdbdeea55d6c64543dc4903e085098b7f109b7f411ba0e4c9b2b70caf5c36a7b194be7c11ad24378bfedb68592ba8118b870901017f04e1181763050e58013444dbcb99f1902b11bc25d90bbdca408d3819f4fed32b019050898883098a7f2e2419f9ec02ec394c9871c832963dc1b89d743c8c7b964029b2311687b1fe2385098b7f2969f27eed31a480b9c36c764379dbca2cc8fdd1415c3dded62940bcde0bd771870901017f0fdb253dee83869d40c335ea64de8c5bb10eb82db08b5e8b1f5e5552bfd05f23019550898783098a7f176cc029695ad02582a70eff08a6fd99d057e12e58e7d7b6b16cdfabc8ee291185098b7f143021ec686a3f330d5f9e654638065ce6cd79e28c5b3753326244ee65a1b1a7870901017f058cbe8a9a5027bdaa4efb623adead6275f08686f1c08984a9d7c5bae9b4f1c001945089818209935089818b868709099050898986098a7f16ed41e13bb9c0c66ae119424fddbcbc9314dc9fdbdeea55d6c64543dc4903e088098b7f109b7f411ba0e4c9b2b70caf5c36a7b194be7c11ad24378bfedb68592ba8118b840901017f1382edce9971e186497eadb1aeb1f52b23b4b83bef023ab0d15228b4cceca59a019350898886098a7f2e2419f9ec02ec394c9871c832963dc1b89d743c8c7b964029b2311687b1fe2388098b7f2969f27eed31a480b9c36c764379dbca2cc8fdd1415c3dded62940bcde0bd771840901017f03464990f045c6ee0819ca51fd11b0be7f61b8eb99f14b77e1e6634601d9e8b5019250898786098a7f176cc029695ad02582a70eff08a6fd99d057e12e58e7d7b6b16cdfabc8ee291188098b7f143021ec686a3f330d5f9e654638065ce6cd79e28c5b3753326244ee65a1b1a7840901017f23f7bfc8720dc296fff33b41f98ff83c6fcab4605db2eb5aaa5bc137aeb70a5801915089848509905089848b838409099350898983098a7f16ed41e13bb9c0c66ae119424fddbcbc9314dc9fdbdeea55d6c64543dc4903e085098b7f109b7f411ba0e4c9b2b70caf5c36a7b194be7c11ad24378bfedb68592ba8118b870901017f0a59a158e3eec2117e6e94e7f0e9decf18c3ffd5e1531a9219636158bbaf62f2019050898883098a7f2e2419f9ec02ec394c9871c832963dc1b89d743c8c7b964029b2311687b1fe2385098b7f2969f27eed31a480b9c36c764379dbca2cc8fdd1415c3dded62940bcde0bd771870901017f06ec54c80381c052b58bf23b312ffd3ce2c4eba065420af8f4c23ed0075fd07b019550898783098a7f176cc029695ad02582a70eff08a6fd99d057e12e58e7d7b6b16cdfabc8ee291185098b7f143021ec686a3f330d5f9e654638065ce6cd79e28c5b3753326244ee65a1b1a7870901017f118872dc832e0eb5476b56648e867ec8b09340f7a7bcb1b4962f0ff9ed1f9d0101945089818209935089818b868709099050898986098a7f16ed41e13bb9c0c66ae119424fddbcbc9314dc9fdbdeea55d6c64543dc4903e088098b7f109b7f411ba0e4c9b2b70caf5c36a7b194be7c11ad24378bfedb68592ba8118b840901017f13d69fa127d834165ad5c7cba7ad59ed52e0b0f0e42d7fea95e1906b520921b1019350898886098a7f2e2419f9ec02ec394c9871c832963dc1b89d743c8c7b964029b2311687b1fe2388098b7f2969f27eed31a480b9c36c764379dbca2cc8fdd1415c3dded62940bcde0bd771840901017f169a177f63ea681270b1c6877a73d21bde143942fb71dc55fd8a49f19f10c77b019250898786098a7f176cc029695ad02582a70eff08a6fd99d057e12e58e7d7b6b16cdfabc8ee291188098b7f143021ec686a3f330d5f9e654638065ce6cd79e28c5b3753326244ee65a1b1a7840901017f04ef51591c6ead97ef42f287adce40d93abeb032b922f66ffb7e9a5a7450544d01915089848509905089848b838409099350898983098a7f16ed41e13bb9c0c66ae119424fddbcbc9314dc9fdbdeea55d6c64543dc4903e085098b7f109b7f411ba0e4c9b2b70caf5c36a7b194be7c11ad24378bfedb68592ba8118b870901017f256e175a1dc079390ecd7ca703fb2e3b19ec61805d4f03ced5f45ee6dd0f69ec019050898883098a7f2e2419f9ec02ec394c9871c832963dc1b89d743c8c7b964029b2311687b1fe2385098b7f2969f27eed31a480b9c36c764379dbca2cc8fdd1415c3dded62940bcde0bd771870901017f30102d28636abd5fe5f2af412ff6004f75cc360d3205dd2da002813d3e2ceeb2019550898783098a7f176cc029695ad02582a70eff08a6fd99d057e12e58e7d7b6b16cdfabc8ee291185098b7f143021ec686a3f330d5f9e654638065ce6cd79e28c5b3753326244ee65a1b1a7870901017f10998e42dfcd3bbf1c0714bc73eb1bf40443a3fa99bef4a31fd31be182fcc79201945089818209935089818b868709099050898986098a7f16ed41e13bb9c0c66ae119424fddbcbc9314dc9fdbdeea55d6c64543dc4903e088098b7f109b7f411ba0e4c9b2b70caf5c36a7b194be7c11ad24378bfedb68592ba8118b840901017f193edd8e9fcf3d7625fa7d24b598a1d89f3362eaf4d582efecad76f879e36860019350898886098a7f2e2419f9ec02ec394c9871c832963dc1b89d743c8c7b964029b2311687b1fe2388098b7f2969f27eed31a480b9c36c764379dbca2cc8fdd1415c3dded62940bcde0bd771840901017f18168afd34f2d915d0368ce80b7b3347d1c7a561ce611425f2664d7aa51f0b5d019250898786098a7f176cc029695ad02582a70eff08a6fd99d057e12e58e7d7b6b16cdfabc8ee291188098b7f143021ec686a3f330d5f9e654638065ce6cd79e28c5b3753326244ee65a1b1a7840901017f29383c01ebd3b6ab0c017656ebe658b6a328ec77bc33626e29e2e95b33ea611101915089848509905089848b838409099350898983098a7f16ed41e13bb9c0c66ae119424fddbcbc9314dc9fdbdeea55d6c64543dc4903e085098b7f109b7f411ba0e4c9b2b70caf5c36a7b194be7c11ad24378bfedb68592ba8118b870901017f10646d2f2603de39a1f4ae5e7771a64a702db6e86fb76ab600bf573f9010c711019050898883098a7f2e2419f9ec02ec394c9871c832963dc1b89d743c8c7b964029b2311687b1fe2385098b7f2969f27eed31a480b9c36c764379dbca2cc8fdd1415c3dded62940bcde0bd771870901017f0beb5e07d1b27145f575f1395a55bf132f90c25b40da7b3864d0242dcb1117fb019550898783098a7f176cc029695ad02582a70eff08a6fd99d057e12e58e7d7b6b16cdfabc8ee291185098b7f143021ec686a3f330d5f9e654638065ce6cd79e28c5b3753326244ee65a1b1a7870901017f16d685252078c133dc0d3ecad62b5c8830f95bb2e54b59abdffbf018d96fa33601945089818209935089818b868709099050898986098a7f16ed41e13bb9c0c66ae119424fddbcbc9314dc9fdbdeea55d6c64543dc4903e088098b7f109b7f411ba0e4c9b2b70caf5c36a7b194be7c11ad24378bfedb68592ba8118b840901017f0a6abd1d833938f33c74154e0404b4b40a555bbbec21ddfafd672dd62047f01a019350898886098a7f2e2419f9ec02ec394c9871c832963dc1b89d743c8c7b964029b2311687b1fe2388098b7f2969f27eed31a480b9c36c764379dbca2cc8fdd1415c3dded62940bcde0bd771840901017f1a679f5d36eb7b5c8ea12a4c2dedc8feb12dffeec450317270a6f19b34cf1860019250898786098a7f176cc029695ad02582a70eff08a6fd99d057e12e58e7d7b6b16cdfabc8ee291188098b7f143021ec686a3f330d5f9e654638065ce6cd79e28c5b3753326244ee65a1b1a7840901017f0980fb233bd456c23974d50e0ebfde4726a423eada4e8f6ffbc7592e3f1b93d601915089848509905089848b838409099350898983098a7f16ed41e13bb9c0c66ae119424fddbcbc9314dc9fdbdeea55d6c64543dc4903e085098b7f109b7f411ba0e4c9b2b70caf5c36a7b194be7c11ad24378bfedb68592ba8118b870901017f161b42232e61b84cbf1810af93a38fc0cece3d5628c9282003ebacb5c312c72b019050898883098a7f2e2419f9ec02ec394c9871c832963dc1b89d743c8c7b964029b2311687b1fe2385098b7f2969f27eed31a480b9c36c764379dbca2cc8fdd1415c3dded62940bcde0bd771870901017f0ada10a90c7f0520950f7d47a60d5e6a493f09787f1564e5d09203db47de1a0b019550898783098a7f176cc029695ad02582a70eff08a6fd99d057e12e58e7d7b6b16cdfabc8ee291185098b7f143021ec686a3f330d5f9e654638065ce6cd79e28c5b3753326244ee65a1b1a7870901017f1a730d372310ba82320345a29ac4238ed3f07a8a2b4e121bb50ddb9af407f45101945089818209935089818b868709099050898986098a7f16ed41e13bb9c0c66ae119424fddbcbc9314dc9fdbdeea55d6c64543dc4903e088098b7f109b7f411ba0e4c9b2b70caf5c36a7b194be7c11ad24378bfedb68592ba8118b840901017f2c8120f268ef054f817064c369dda7ea908377feaba5c4dffbda10ef58e8c556019350898886098a7f2e2419f9ec02ec394c9871c832963dc1b89d743c8c7b964029b2311687b1fe2388098b7f2969f27eed31a480b9c36c764379dbca2cc8fdd1415c3dded62940bcde0bd771840901017f1c7c8824f758753fa57c00789c684217b930e95313bcb73e6e7b8649a4968f70019250898786098a7f176cc029695ad02582a70eff08a6fd99d057e12e58e7d7b6b16cdfabc8ee291188098b7f143021ec686a3f330d5f9e654638065ce6cd79e28c5b3753326244ee65a1b1a7840901017f2cd9ed31f5f8691c8e39e4077a74faa0f400ad8b491eb3f7b47b27fa3fd1cf7701915089848509905089848b838409099350898983098a7f16ed41e13bb9c0c66ae119424fddbcbc9314dc9fdbdeea55d6c64543dc4903e085098b7f109b7f411ba0e4c9b2b70caf5c36a7b194be7c11ad24378bfedb68592ba8118b870901017f23ff4f9d46813457cf60d92f57618399a5e022ac321ca550854ae23918a22eea019050898883098a7f2e2419f9ec02ec394c9871c832963dc1b89d743c8c7b964029b2311687b1fe2385098b7f2969f27eed31a480b9c36c764379dbca2cc8fdd1415c3dded62940bcde0bd771870901017f09945a5d147a4f66ceece6405dddd9d0af5a2c5103529407dff1ea58f180426d019550898783098a7f176cc029695ad02582a70eff08a6fd99d057e12e58e7d7b6b16cdfabc8ee291185098b7f143021ec686a3f330d5f9e654638065ce6cd79e28c5b3753326244ee65a1b1a7870901017f188d9c528025d4c2b67660c6b771b90f7c7da6eaa29d3f268a6dd223ec6fc63001945089818209935089818b868709099050898986098a7f16ed41e13bb9c0c66ae119424fddbcbc9314dc9fdbdeea55d6c64543dc4903e088098b7f109b7f411ba0e4c9b2b70caf5c36a7b194be7c11ad24378bfedb68592ba8118b840901017f3050e37996596b7f81f68311431d8734dba7d926d3633595e0c0d8ddf4f0f47f019350898886098a7f2e2419f9ec02ec394c9871c832963dc1b89d743c8c7b964029b2311687b1fe2388098b7f2969f27eed31a480b9c36c764379dbca2cc8fdd1415c3dded62940bcde0bd771840901017f15af1169396830a91600ca8102c35c426ceae5461e3f95d89d829518d30afd78019250898786098a7f176cc029695ad02582a70eff08a6fd99d057e12e58e7d7b6b16cdfabc8ee291188098b7f143021ec686a3f330d5f9e654638065ce6cd79e28c5b3753326244ee65a1b1a7840901017f1da6d09885432ea9a06d9f37f873d985dae933e351466b2904284da3320d8acc01915089848509905089848b838409099350898983098a7f16ed41e13bb9c0c66ae119424fddbcbc9314dc9fdbdeea55d6c64543dc4903e085098b7f109b7f411ba0e4c9b2b70caf5c36a7b194be7c11ad24378bfedb68592ba8118b870901017f2796ea90d269af29f5f8acf33921124e4e4fad3dbe658945e546ee411ddaa9cb019050898883098a7f2e2419f9ec02ec394c9871c832963dc1b89d743c8c7b964029b2311687b1fe2385098b7f2969f27eed31a480b9c36c764379dbca2cc8fdd1415c3dded62940bcde0bd771870901017f202d7dd1da0f6b4b0325c8b3307742f01e15612ec8e9304a7cb0319e01d32d60019550898783098a7f176cc029695ad02582a70eff08a6fd99d057e12e58e7d7b6b16cdfabc8ee291185098b7f143021ec686a3f330d5f9e654638065ce6cd79e28c5b3753326244ee65a1b1a7870901017f096d6790d05bb759156a952ba263d672a2d7f9c788f4c831a29dace4c0f8be5f01945089818209935089818b868709099050898986098a7f16ed41e13bb9c0c66ae119424fddbcbc9314dc9fdbdeea55d6c64543dc4903e088098b7f109b7f411ba0e4c9b2b70caf5c36a7b194be7c11ad24378bfedb68592ba8118b840901017f054efa1f65b0fce283808965275d877b438da23ce5b13e1963798cb1447d25a4019350898886098a7f2e2419f9ec02ec394c9871c832963dc1b89d743c8c7b964029b2311687b1fe2388098b7f2969f27eed31a480b9c36c764379dbca2cc8fdd1415c3dded62940bcde0bd771840901017f1b162f83d917e93edb3308c29802deb9d8aa690113b2e14864ccf6e18e4165f1019250898786098a7f176cc029695ad02582a70eff08a6fd99d057e12e58e7d7b6b16cdfabc8ee291188098b7f143021ec686a3f330d5f9e654638065ce6cd79e28c5b3753326244ee65a1b1a7840901017f21e5241e12564dd6fd9f1cdd2a0de39eedfefc1466cc568ec5ceb745a0506edc01915089848509905089848b83840909935089838409905089838b83840909925089828309905089828b838409099150898983098a7f16ed41e13bb9c0c66ae119424fddbcbc9314dc9fdbdeea55d6c64543dc4903e085098b7f109b7f411ba0e4c9b2b70caf5c36a7b194be7c11ad24378bfedb68592ba8118b870901017f1cfb5662e8cf5ac9226a80ee17b36abecb73ab5f87e161927b4349e10e4bdf08019050898883098a7f2e2419f9ec02ec394c9871c832963dc1b89d743c8c7b964029b2311687b1fe2385098b7f2969f27eed31a480b9c36c764379dbca2cc8fdd1415c3dded62940bcde0bd771870901017f0f21177e302a771bbae6d8d1ecb373b62c99af346220ac0129c53f666eb24100019550898783098a7f176cc029695ad02582a70eff08a6fd99d057e12e58e7d7b6b16cdfabc8ee291185098b7f143021ec686a3f330d5f9e654638065ce6cd79e28c5b3753326244ee65a1b1a7870901017f1671522374606992affb0dd7f71b12bec4236aede6290546bcef7e1f515c232001945089818209935089818b86870909905089868709935089868b86870909955089858609935089858b868709099450898986098a7f16ed41e13bb9c0c66ae119424fddbcbc9314dc9fdbdeea55d6c64543dc4903e088098b7f109b7f411ba0e4c9b2b70caf5c36a7b194be7c11ad24378bfedb68592ba8118b840901017f0fa3ec5b9488259c2eb4cf24501bfad9be2ec9e42c5cc8ccd419d2a692cad870019350898886098a7f2e2419f9ec02ec394c9871c832963dc1b89d743c8c7b964029b2311687b1fe2388098b7f2969f27eed31a480b9c36c764379dbca2cc8fdd1415c3dded62940bcde0bd771840901017f193c0e04e0bd298357cb266c1506080ed36edce85c648cc085e8c57b1ab54bba019250898786098a7f176cc029695ad02582a70eff08a6fd99d057e12e58e7d7b6b16cdfabc8ee291188098b7f143021ec686a3f330d5f9e654638065ce6cd79e28c5b3753326244ee65a1b1a7840901017f102adf8ef74735a27e9128306dcbc3c99f6f7291cd406578ce14ea2adaba68f801915089848509905089848b83840909935089838409905089838b83840909925089828309905089828b838409099150898983098a7f16ed41e13bb9c0c66ae119424fddbcbc9314dc9fdbdeea55d6c64543dc4903e085098b7f109b7f411ba0e4c9b2b70caf5c36a7b194be7c11ad24378bfedb68592ba8118b870901017f0fe0af7858e49859e2a54d6f1ad945b1316aa24bfbdd23ae40a6d0cb70c3eab1019050898883098a7f2e2419f9ec02ec394c9871c832963dc1b89d743c8c7b964029b2311687b1fe2385098b7f2969f27eed31a480b9c36c764379dbca2cc8fdd1415c3dded62940bcde0bd771870901017f216f6717bbc7dedb08536a2220843f4e2da5f1daa9ebdefde8a5ea7344798d22019550898783098a7f176cc029695ad02582a70eff08a6fd99d057e12e58e7d7b6b16cdfabc8ee291185098b7f143021ec686a3f330d5f9e654638065ce6cd79e28c5b3753326244ee65a1b1a7870901017f1da55cc900f0d21f4a3e694391918a1b3c23b2ac773c6b3ef88e2e422832516101945089818209935089818b86870909905089868709935089868b86870909955089858609935089858b868709099450898a8a87098b7f16ed41e13bb9c0c66ae119424fddbcbc9314dc9fdbdeea55d6c64543dc4903e089098c7f109b7f411ba0e4c9b2b70caf5c36a7b194be7c11ad24378bfedb68592ba8118b850901010660005260206000f35b6000604051905090565b600080fd5b600080fd5b6000601f19601f8301169050919050565b7f4e487b7100000000000000000000000000000000000000000000000000000000600052604160045260246000fd5b615c0c82615bc3565b810181811067ffffffffffffffff82111715615c2b57615c2a615bd4565b5b80604052505050565b6000615c3e615baf565b9050615c4a8282615c03565b919050565b600067ffffffffffffffff821115615c6a57615c69615bd4565b5b602082029050919050565b600080fd5b6000819050919050565b615c8d81615c7a565b8114615c9857600080fd5b50565b600081359050615caa81615c84565b92915050565b6000615cc3615cbe84615c4f565b615c34565b90508060208402830185811115615cdd57615cdc615c75565b5b835b81811015615d065780615cf28882615c9b565b845260208401935050602081019050615cdf565b5050509392505050565b600082601f830112615d2557615d24615bbe565b5b6002615d32848285615cb0565b91505092915050565b600060408284031215615d5157615d50615bb9565b5b6000615d5f84828501615d10565b91505092915050565b615d7181615c7a565b82525050565b6000602082019050615d8c6000830184615d68565b9291505056fea2646970667358221220b4a636ce0a3e69fc028caea95d5216bc0e0434da5f130c5c95b006acf1caa39a64736f6c634300081a0033",
					"opcodes": "PUSH2 0x5DC8 PUSH2 0x52 PUSH1 0xB DUP3 DUP3 DUP3 CODECOPY DUP1 MLOAD PUSH1 0x0 BYTE PUSH1 0x73 EQ PUSH1 0x45 JUMPI PUSH32 0x4E487B7100000000000000000000000000000000000000000000000000000000 PUSH1 0x0 MSTORE PUSH1 0x0 PUSH1 0x4 MSTORE PUSH1 0x24 PUSH1 0x0 REVERT JUMPDEST ADDRESS PUSH1 0x0 MSTORE PUSH1 0x73 DUP2 MSTORE8 DUP3 DUP2 RETURN INVALID PUSH20 0x0 ADDRESS EQ PUSH1 0x80 PUSH1 0x40 MSTORE PUSH1 0x4 CALLDATASIZE LT PUSH2 0x35 JUMPI PUSH1 0x0 CALLDATALOAD PUSH1 0xE0 SHR DUP1 PUSH4 0x561558FE EQ PUSH2 0x3A JUMPI JUMPDEST PUSH1 0x0 DUP1 REVERT JUMPDEST PUSH2 0x54 PUSH1 0x4 DUP1 CALLDATASIZE SUB DUP2 ADD SWAP1 PUSH2 0x4F SWAP2 SWAP1 PUSH2 0x5D3B JUMP JUMPDEST PUSH2 0x6A JUMP JUMPDEST PUSH1 0x40 MLOAD PUSH2 0x61 SWAP2 SWAP1 PUSH2 0x5D77 JUMP JUMPDEST PUSH1 0x40 MLOAD DUP1 SWAP2 SUB SWAP1 RETURN JUMPDEST PUSH1 0x0 PUSH32 0x30644E72E131A029B85045B68181585D2833E84879B9709143E1F593F0000001 PUSH32 0x2B90BBA00FCA0589F617E7DCBFE82E0DF706AB640CEB247B791A93B74E36736D PUSH32 0x101071F0032379B697315876690F053D148D4E109F5FB065C8AACC55A0F89BFA PUSH32 0x19A3FC0A56702BF417BA7FEE3802593FA644470307043F7773279CD71D25D5E0 PUSH31 0xF1445235F2148C5986587169FC1BCD887B08D4D00868DF5696FFF40956E864 DUP5 PUSH1 0x80 MLOAD MOD ADD PUSH32 0x8DFF3487E8AC99E1F29A058D0FA80B930C728730B7AB36CE879F3890ECF73F5 DUP6 PUSH1 0xA0 MLOAD MOD ADD DUP6 DUP3 DUP4 MULMOD DUP7 DUP4 DUP9 DUP4 DUP5 MULMOD MULMOD SWAP3 POP DUP7 DUP3 DUP4 MULMOD SWAP1 POP DUP7 DUP3 DUP9 DUP4 DUP5 MULMOD MULMOD SWAP2 POP DUP7 DUP7 DUP4 MULMOD DUP8 PUSH32 0x16ED41E13BB9C0C66AE119424FDDBCBC9314DC9FDBDEEA55D6C64543DC4903E0 DUP6 MULMOD PUSH32 0x2229FE5E63F56EEF4BFBA02C26292DE10AC2B2B045E6184ACFF16E4660C05F6B ADD ADD PUSH32 0x2F27BE690FDAEE46C3CE28F7532B13C856C35342C84BDA6E20966310FADC01D0 ADD SWAP1 POP DUP7 DUP6 DUP4 MULMOD DUP8 PUSH32 0x2E2419F9EC02EC394C9871C832963DC1B89D743C8C7B964029B2311687B1FE23 DUP6 MULMOD PUSH32 0x2949435275A29CDBFFE3E4101A45669873F9408A5D11E21B4EC6EDF8501EEE4D ADD ADD PUSH32 0x2B2AE1ACF68B7B8D2416BEBF3D4F6234B763FE04B8043EE48B8327BEBCA16CF2 ADD DUP8 DUP6 DUP5 MULMOD DUP9 PUSH32 0x176CC029695AD02582A70EFF08A6FD99D057E12E58E7D7B6B16CDFABC8EE2911 DUP7 MULMOD PUSH32 0x20C290A7269657965092EF5700A447F5BC2C41DFCA932F527CB2600AC9BCFEFB ADD ADD PUSH32 0x319D062072BEF7ECCA5EAC06F97D4D55952C175AB6B03EAE64B44C7DBF11CFA ADD DUP9 DUP4 DUP5 MULMOD DUP10 DUP5 DUP12 DUP4 DUP5 MULMOD MULMOD SWAP4 POP DUP10 DUP4 DUP5 MULMOD SWAP1 POP DUP10 DUP4 DUP12 DUP4 DUP5 MULMOD MULMOD SWAP3 POP DUP10 DUP3 DUP4 MULMOD SWAP1 POP DUP10 DUP3 DUP12 DUP4 DUP5 MULMOD MULMOD SWAP2 POP DUP10 DUP10 DUP4 MULMOD DUP11 PUSH32 0x16ED41E13BB9C0C66AE119424FDDBCBC9314DC9FDBDEEA55D6C64543DC4903E0 DUP6 MULMOD DUP12 PUSH32 0x109B7F411BA0E4C9B2B70CAF5C36A7B194BE7C11AD24378BFEDB68592BA8118B DUP8 MULMOD ADD ADD PUSH32 0x28813DCAEBAEAA828A376DF87AF4A63BC8B7BF27AD49C6298EF7B387BF28526D ADD SWAP1 POP DUP10 DUP9 DUP4 MULMOD DUP11 PUSH32 0x2E2419F9EC02EC394C9871C832963DC1B89D743C8C7B964029B2311687B1FE23 DUP6 MULMOD DUP12 PUSH32 0x2969F27EED31A480B9C36C764379DBCA2CC8FDD1415C3DDED62940BCDE0BD771 DUP8 MULMOD ADD ADD PUSH32 0x2727673B2CCBC903F181BF38E1C1D40D2033865200C352BC150928ADDDF9CB78 ADD SWAP6 POP DUP10 DUP8 DUP4 MULMOD DUP11 PUSH32 0x176CC029695AD02582A70EFF08A6FD99D057E12E58E7D7B6B16CDFABC8EE2911 DUP6 MULMOD DUP12 PUSH32 0x143021EC686A3F330D5F9E654638065CE6CD79E28C5B3753326244EE65A1B1A7 DUP8 MULMOD ADD ADD PUSH32 0x234EC45CA27727C2E74ABD2B2A1494CD6EFBD43E340587D6B8FB9E31E65CC632 ADD SWAP5 POP DUP10 DUP2 DUP3 MULMOD SWAP4 POP DUP10 DUP2 DUP12 DUP7 DUP8 MULMOD MULMOD SWAP1 POP DUP10 DUP7 DUP8 MULMOD SWAP4 POP DUP10 DUP7 DUP12 DUP7 DUP8 MULMOD MULMOD SWAP6 POP DUP10 DUP6 DUP7 MULMOD SWAP4 POP DUP10 DUP6 DUP12 DUP7 DUP8 MULMOD MULMOD SWAP5 POP DUP10 DUP10 DUP7 MULMOD DUP11 PUSH32 0x16ED41E13BB9C0C66AE119424FDDBCBC9314DC9FDBDEEA55D6C64543DC4903E0 DUP9 MULMOD DUP12 PUSH32 0x109B7F411BA0E4C9B2B70CAF5C36A7B194BE7C11AD24378BFEDB68592BA8118B DUP5 MULMOD ADD ADD PUSH32 0x15B52534031AE18F7F862CB2CF7CF760AB10A8150A337B1CCD99FF6E8797D428 ADD SWAP4 POP DUP10 DUP9 DUP7 MULMOD DUP11 PUSH32 0x2E2419F9EC02EC394C9871C832963DC1B89D743C8C7B964029B2311687B1FE23 DUP9 MULMOD DUP12 PUSH32 0x2969F27EED31A480B9C36C764379DBCA2CC8FDD1415C3DDED62940BCDE0BD771 DUP5 MULMOD ADD ADD PUSH32 0xDC8FAD6D9E4B35F5ED9A3D186B79CE38E0E8A8D1B58B132D701D4EECF68D1F6 ADD SWAP3 POP DUP10 DUP8 DUP7 MULMOD DUP11 PUSH32 0x176CC029695AD02582A70EFF08A6FD99D057E12E58E7D7B6B16CDFABC8EE2911 DUP9 MULMOD DUP12 PUSH32 0x143021EC686A3F330D5F9E654638065CE6CD79E28C5B3753326244EE65A1B1A7 DUP5 MULMOD ADD ADD PUSH32 0x1BCD95FFC211FBCA600F705FAD3FB567EA4EB378F62E1FEC97805518A47E4D9C ADD SWAP2 POP DUP10 DUP5 DUP6 MULMOD SWAP1 POP DUP10 DUP5 DUP12 DUP4 DUP5 MULMOD MULMOD SWAP4 POP DUP10 DUP4 DUP5 MULMOD SWAP1 POP DUP10 DUP4 DUP12 DUP4 DUP5 MULMOD MULMOD SWAP3 POP DUP10 DUP3 DUP4 MULMOD SWAP1 POP DUP10 DUP3 DUP12 DUP4 DUP5 MULMOD MULMOD SWAP2 POP DUP10 DUP10 DUP4 MULMOD DUP11 PUSH32 0x16ED41E13BB9C0C66AE119424FDDBCBC9314DC9FDBDEEA55D6C64543DC4903E0 DUP6 MULMOD DUP12 PUSH32 0x109B7F411BA0E4C9B2B70CAF5C36A7B194BE7C11AD24378BFEDB68592BA8118B DUP8 MULMOD ADD ADD PUSH32 0x10520B0AB721CADFE9EFF81B016FC34DC76DA36C2578937817CB978D069DE559 ADD SWAP1 POP DUP10 DUP9 DUP4 MULMOD DUP11 PUSH32 0x2E2419F9EC02EC394C9871C832963DC1B89D743C8C7B964029B2311687B1FE23 DUP6 MULMOD DUP12 PUSH32 0x2969F27EED31A480B9C36C764379DBCA2CC8FDD1415C3DDED62940BCDE0BD771 DUP8 MULMOD ADD ADD PUSH32 0x1F6D48149B8E7F7D9B257D8ED5FBBAF42932498075FED0ACE88A9EB81F5627F6 ADD SWAP6 POP DUP10 DUP8 DUP4 MULMOD DUP11 PUSH32 0x176CC029695AD02582A70EFF08A6FD99D057E12E58E7D7B6B16CDFABC8EE2911 DUP6 MULMOD DUP12 PUSH32 0x143021EC686A3F330D5F9E654638065CE6CD79E28C5B3753326244EE65A1B1A7 DUP8 MULMOD ADD ADD PUSH32 0x1D9655F652309014D29E00EF35A2089BFFF8DC1C816F0DC9CA34BDB5460C8705 ADD SWAP5 POP DUP10 DUP2 DUP3 MULMOD SWAP4 POP DUP10 DUP2 DUP12 DUP7 DUP8 MULMOD MULMOD SWAP1 POP DUP10 DUP10 DUP7 MULMOD DUP11 PUSH32 0x16ED41E13BB9C0C66AE119424FDDBCBC9314DC9FDBDEEA55D6C64543DC4903E0 DUP9 MULMOD DUP12 PUSH32 0x109B7F411BA0E4C9B2B70CAF5C36A7B194BE7C11AD24378BFEDB68592BA8118B DUP5 MULMOD ADD ADD PUSH32 0x4DF5A56FF95BCAFB051F7B1CD43A99BA731FF67E47032058FE3D4185697CC7D ADD SWAP4 POP DUP10 DUP9 DUP7 MULMOD DUP11 PUSH32 0x2E2419F9EC02EC394C9871C832963DC1B89D743C8C7B964029B2311687B1FE23 DUP9 MULMOD DUP12 PUSH32 0x2969F27EED31A480B9C36C764379DBCA2CC8FDD1415C3DDED62940BCDE0BD771 DUP5 MULMOD ADD ADD PUSH32 0x672D995F8FFF640151B3D290CEDAF148690A10A8C8424A7F6EC282B6E4BE828 ADD SWAP3 POP DUP10 DUP8 DUP7 MULMOD DUP11 PUSH32 0x176CC029695AD02582A70EFF08A6FD99D057E12E58E7D7B6B16CDFABC8EE2911 DUP9 MULMOD DUP12 PUSH32 0x143021EC686A3F330D5F9E654638065CE6CD79E28C5B3753326244EE65A1B1A7 DUP5 MULMOD ADD ADD PUSH32 0x99952B414884454B21200D7FFAFDD5F0C9A9DCC06F2708E9FC1D8209B5C75B9 ADD SWAP2 POP DUP10 DUP5 DUP6 MULMOD SWAP1 POP DUP10 DUP5 DUP12 DUP4 DUP5 MULMOD MULMOD SWAP4 POP DUP10 DUP10 DUP4 MULMOD DUP11 PUSH32 0x16ED41E13BB9C0C66AE119424FDDBCBC9314DC9FDBDEEA55D6C64543DC4903E0 DUP6 MULMOD DUP12 PUSH32 0x109B7F411BA0E4C9B2B70CAF5C36A7B194BE7C11AD24378BFEDB68592BA8118B DUP8 MULMOD ADD ADD PUSH32 0x52CBA2255DFD00C7C483143BA8D469448E43586A9B4CD9183FD0E843A6B9FA6 ADD SWAP1 POP DUP10 DUP9 DUP4 MULMOD DUP11 PUSH32 0x2E2419F9EC02EC394C9871C832963DC1B89D743C8C7B964029B2311687B1FE23 DUP6 MULMOD DUP12 PUSH32 0x2969F27EED31A480B9C36C764379DBCA2CC8FDD1415C3DDED62940BCDE0BD771 DUP8 MULMOD ADD ADD PUSH32 0xB8BADEE690ADB8EB0BD74712B7999AF82DE55707251AD7716077CB93C464DDC ADD SWAP6 POP DUP10 DUP8 DUP4 MULMOD DUP11 PUSH32 0x176CC029695AD02582A70EFF08A6FD99D057E12E58E7D7B6B16CDFABC8EE2911 DUP6 MULMOD DUP12 PUSH32 0x143021EC686A3F330D5F9E654638065CE6CD79E28C5B3753326244EE65A1B1A7 DUP8 MULMOD ADD ADD PUSH32 0x119B1590F13307AF5A1EE651020C07C749C15D60683A8050B963D0A8E4B2BDD1 ADD SWAP5 POP DUP10 DUP2 DUP3 MULMOD SWAP4 POP DUP10 DUP2 DUP12 DUP7 DUP8 MULMOD MULMOD SWAP1 POP DUP10 DUP10 DUP7 MULMOD DUP11 PUSH32 0x16ED41E13BB9C0C66AE119424FDDBCBC9314DC9FDBDEEA55D6C64543DC4903E0 DUP9 MULMOD DUP12 PUSH32 0x109B7F411BA0E4C9B2B70CAF5C36A7B194BE7C11AD24378BFEDB68592BA8118B DUP5 MULMOD ADD ADD PUSH32 0x3150B7CD6D5D17B2529D36BE0F67B832C4ACFC884EF4EE5CE15BE0BFB4A8D09 ADD SWAP4 POP DUP10 DUP9 DUP7 MULMOD DUP11 PUSH32 0x2E2419F9EC02EC394C9871C832963DC1B89D743C8C7B964029B2311687B1FE23 DUP9 MULMOD DUP12 PUSH32 0x2969F27EED31A480B9C36C764379DBCA2CC8FDD1415C3DDED62940BCDE0BD771 DUP5 MULMOD ADD ADD PUSH32 0x2CC6182C5E14546E3CF1951F173912355374EFB83D80898ABE69CB317C9EA565 ADD SWAP3 POP DUP10 DUP8 DUP7 MULMOD DUP11 PUSH32 0x176CC029695AD02582A70EFF08A6FD99D057E12E58E7D7B6B16CDFABC8EE2911 DUP9 MULMOD DUP12 PUSH32 0x143021EC686A3F330D5F9E654638065CE6CD79E28C5B3753326244EE65A1B1A7 DUP5 MULMOD ADD ADD PUSH31 0x5032551E6378C450CFE129A404B3764218CADEDAC14E2B92D2CD73111BF0F9 ADD SWAP2 POP DUP10 DUP5 DUP6 MULMOD SWAP1 POP DUP10 DUP5 DUP12 DUP4 DUP5 MULMOD MULMOD SWAP4 POP DUP10 DUP10 DUP4 MULMOD DUP11 PUSH32 0x16ED41E13BB9C0C66AE119424FDDBCBC9314DC9FDBDEEA55D6C64543DC4903E0 DUP6 MULMOD DUP12 PUSH32 0x109B7F411BA0E4C9B2B70CAF5C36A7B194BE7C11AD24378BFEDB68592BA8118B DUP8 MULMOD ADD ADD PUSH32 0x233237E3289BAA34BB147E972EBCB9516469C399FCC069FB88F9DA2CC28276B5 ADD SWAP1 POP DUP10 DUP9 DUP4 MULMOD DUP11 PUSH32 0x2E2419F9EC02EC394C9871C832963DC1B89D743C8C7B964029B2311687B1FE23 DUP6 MULMOD DUP12 PUSH32 0x2969F27EED31A480B9C36C764379DBCA2CC8FDD1415C3DDED62940BCDE0BD771 DUP8 MULMOD ADD ADD PUSH32 0x5C8F4F4EBD4A6E3C980D31674BFBE6323037F21B34AE5A4E80C2D4C24D60280 ADD SWAP6 POP DUP10 DUP8 DUP4 MULMOD DUP11 PUSH32 0x176CC029695AD02582A70EFF08A6FD99D057E12E58E7D7B6B16CDFABC8EE2911 DUP6 MULMOD DUP12 PUSH32 0x143021EC686A3F330D5F9E654638065CE6CD79E28C5B3753326244EE65A1B1A7 DUP8 MULMOD ADD ADD PUSH32 0xA7B1DB13042D396BA05D818A319F25252BCF35EF3AEED91EE1F09B2590FC65B ADD SWAP5 POP DUP10 DUP2 DUP3 MULMOD SWAP4 POP DUP10 DUP2 DUP12 DUP7 DUP8 MULMOD MULMOD SWAP1 POP DUP10 DUP10 DUP7 MULMOD DUP11 PUSH32 0x16ED41E13BB9C0C66AE119424FDDBCBC9314DC9FDBDEEA55D6C64543DC4903E0 DUP9 MULMOD DUP12 PUSH32 0x109B7F411BA0E4C9B2B70CAF5C36A7B194BE7C11AD24378BFEDB68592BA8118B DUP5 MULMOD ADD ADD PUSH32 0x2A73B71F9B210CF5B14296572C9D32DBF156E2B086FF47DC5DF542365A404EC0 ADD SWAP4 POP DUP10 DUP9 DUP7 MULMOD DUP11 PUSH32 0x2E2419F9EC02EC394C9871C832963DC1B89D743C8C7B964029B2311687B1FE23 DUP9 MULMOD DUP12 PUSH32 0x2969F27EED31A480B9C36C764379DBCA2CC8FDD1415C3DDED62940BCDE0BD771 DUP5 MULMOD ADD ADD PUSH32 0x1AC9B0417ABCC9A1935107E9FFC91DC3EC18F2C4DBE7F22976A760BB5C50C460 ADD SWAP3 POP DUP10 DUP8 DUP7 MULMOD DUP11 PUSH32 0x176CC029695AD02582A70EFF08A6FD99D057E12E58E7D7B6B16CDFABC8EE2911 DUP9 MULMOD DUP12 PUSH32 0x143021EC686A3F330D5F9E654638065CE6CD79E28C5B3753326244EE65A1B1A7 DUP5 MULMOD ADD ADD PUSH32 0x12C0339AE08374823FABB076707EF479269F3E4D6CB104349015EE046DC93FC0 ADD SWAP2 POP DUP10 DUP5 DUP6 MULMOD SWAP1 POP DUP10 DUP5 DUP12 DUP4 DUP5 MULMOD MULMOD SWAP4 POP DUP10 DUP10 DUP4 MULMOD DUP11 PUSH32 0x16ED41E13BB9C0C66AE119424FDDBCBC9314DC9FDBDEEA55D6C64543DC4903E0 DUP6 MULMOD DUP12 PUSH32 0x109B7F411BA0E4C9B2B70CAF5C36A7B194BE7C11AD24378BFEDB68592BA8118B DUP8 MULMOD ADD ADD PUSH32 0xB7475B102A165AD7F5B18DB4E1E704F52900AA3253BAAC68246682E56E9A28E ADD SWAP1 POP DUP10 DUP9 DUP4 MULMOD DUP11 PUSH32 0x2E2419F9EC02EC394C9871C832963DC1B89D743C8C7B964029B2311687B1FE23 DUP6 MULMOD DUP12 PUSH32 0x2969F27EED31A480B9C36C764379DBCA2CC8FDD1415C3DDED62940BCDE0BD771 DUP8 MULMOD ADD ADD PUSH32 0x37C2849E191CA3EDB1C5E49F6E8B8917C843E379366F2EA32AB3AA88D7F8448 ADD SWAP6 POP DUP10 DUP8 DUP4 MULMOD DUP11 PUSH32 0x176CC029695AD02582A70EFF08A6FD99D057E12E58E7D7B6B16CDFABC8EE2911 DUP6 MULMOD DUP12 PUSH32 0x143021EC686A3F330D5F9E654638065CE6CD79E28C5B3753326244EE65A1B1A7 DUP8 MULMOD ADD ADD PUSH32 0x5A6811F8556F014E92674661E217E9BD5206C5C93A07DC145FDB176A716346F ADD SWAP5 POP DUP10 DUP2 DUP3 MULMOD SWAP4 POP DUP10 DUP2 DUP12 DUP7 DUP8 MULMOD MULMOD SWAP1 POP DUP10 DUP10 DUP7 MULMOD DUP11 PUSH32 0x16ED41E13BB9C0C66AE119424FDDBCBC9314DC9FDBDEEA55D6C64543DC4903E0 DUP9 MULMOD DUP12 PUSH32 0x109B7F411BA0E4C9B2B70CAF5C36A7B194BE7C11AD24378BFEDB68592BA8118B DUP5 MULMOD ADD ADD PUSH32 0x29A795E7D98028946E947B75D54E9F044076E87A7B2883B47B675EF5F38BD66E ADD SWAP4 POP DUP10 DUP9 DUP7 MULMOD DUP11 PUSH32 0x2E2419F9EC02EC394C9871C832963DC1B89D743C8C7B964029B2311687B1FE23 DUP9 MULMOD DUP12 PUSH32 0x2969F27EED31A480B9C36C764379DBCA2CC8FDD1415C3DDED62940BCDE0BD771 DUP5 MULMOD ADD ADD PUSH32 0x20439A0C84B322EB45A3857AFC18F5826E8C7382C8A1585C507BE199981FD22F ADD SWAP3 POP DUP10 DUP8 DUP7 MULMOD DUP11 PUSH32 0x176CC029695AD02582A70EFF08A6FD99D057E12E58E7D7B6B16CDFABC8EE2911 DUP9 MULMOD DUP12 PUSH32 0x143021EC686A3F330D5F9E654638065CE6CD79E28C5B3753326244EE65A1B1A7 DUP5 MULMOD ADD ADD PUSH32 0x2E0BA8D94D9ECF4A94EC2050C7371FF1BB50F27799A84B6D4A2A6F2A0982C887 ADD SWAP2 POP DUP10 DUP5 DUP6 MULMOD SWAP1 POP DUP10 DUP5 DUP12 DUP4 DUP5 MULMOD MULMOD SWAP4 POP DUP10 DUP10 DUP4 MULMOD DUP11 PUSH32 0x16ED41E13BB9C0C66AE119424FDDBCBC9314DC9FDBDEEA55D6C64543DC4903E0 DUP6 MULMOD DUP12 PUSH32 0x109B7F411BA0E4C9B2B70CAF5C36A7B194BE7C11AD24378BFEDB68592BA8118B DUP8 MULMOD ADD ADD PUSH32 0x143FD115CE08FB27CA38EB7CCE822B4517822CD2109048D2E6D0DDCCA17D71C8 ADD SWAP1 POP DUP10 DUP9 DUP4 MULMOD DUP11 PUSH32 0x2E2419F9EC02EC394C9871C832963DC1B89D743C8C7B964029B2311687B1FE23 DUP6 MULMOD DUP12 PUSH32 0x2969F27EED31A480B9C36C764379DBCA2CC8FDD1415C3DDED62940BCDE0BD771 DUP8 MULMOD ADD ADD PUSH32 0xC64CBECB1C734B857968DBBDCF813CDF8611659323DBCBFC84323623BE9CAF1 ADD SWAP6 POP DUP10 DUP8 DUP4 MULMOD DUP11 PUSH32 0x176CC029695AD02582A70EFF08A6FD99D057E12E58E7D7B6B16CDFABC8EE2911 DUP6 MULMOD DUP12 PUSH32 0x143021EC686A3F330D5F9E654638065CE6CD79E28C5B3753326244EE65A1B1A7 DUP8 MULMOD ADD ADD PUSH32 0x28A305847C683F646FCA925C163FF5AE74F348D62C2B670F1426CEF9403DA53 ADD SWAP5 POP DUP10 DUP2 DUP3 MULMOD SWAP4 POP DUP10 DUP2 DUP12 DUP7 DUP8 MULMOD MULMOD SWAP1 POP DUP10 DUP10 DUP7 MULMOD DUP11 PUSH32 0x16ED41E13BB9C0C66AE119424FDDBCBC9314DC9FDBDEEA55D6C64543DC4903E0 DUP9 MULMOD DUP12 PUSH32 0x109B7F411BA0E4C9B2B70CAF5C36A7B194BE7C11AD24378BFEDB68592BA8118B DUP5 MULMOD ADD ADD PUSH32 0x2E4EF510FF0B6FDA5FA940AB4C4380F26A6BCB64D89427B824D6755B5DB9E30C ADD SWAP4 POP DUP10 DUP9 DUP7 MULMOD DUP11 PUSH32 0x2E2419F9EC02EC394C9871C832963DC1B89D743C8C7B964029B2311687B1FE23 DUP9 MULMOD DUP12 PUSH32 0x2969F27EED31A480B9C36C764379DBCA2CC8FDD1415C3DDED62940BCDE0BD771 DUP5 MULMOD ADD ADD PUSH31 0x81C95BC43384E663D79270C956CE3B8925B4F6D033B078B96384F50579400E ADD SWAP3 POP DUP10 DUP8 DUP7 MULMOD DUP11 PUSH32 0x176CC029695AD02582A70EFF08A6FD99D057E12E58E7D7B6B16CDFABC8EE2911 DUP9 MULMOD DUP12 PUSH32 0x143021EC686A3F330D5F9E654638065CE6CD79E28C5B3753326244EE65A1B1A7 DUP5 MULMOD ADD ADD PUSH32 0x2ED5F0C91CBD9749187E2FADE687E05EE2491B349C039A0BBA8A9F4023A0BB38 ADD SWAP2 POP DUP10 DUP5 DUP6 MULMOD SWAP1 POP DUP10 DUP5 DUP12 DUP4 DUP5 MULMOD MULMOD SWAP4 POP DUP10 DUP10 DUP4 MULMOD DUP11 PUSH32 0x16ED41E13BB9C0C66AE119424FDDBCBC9314DC9FDBDEEA55D6C64543DC4903E0 DUP6 MULMOD DUP12 PUSH32 0x109B7F411BA0E4C9B2B70CAF5C36A7B194BE7C11AD24378BFEDB68592BA8118B DUP8 MULMOD ADD ADD PUSH32 0x30509991F88DA3504BBF374ED5AAE2F03448A22C76234C8C990F01F33A735206 ADD SWAP1 POP DUP10 DUP9 DUP4 MULMOD DUP11 PUSH32 0x2E2419F9EC02EC394C9871C832963DC1B89D743C8C7B964029B2311687B1FE23 DUP6 MULMOD DUP12 PUSH32 0x2969F27EED31A480B9C36C764379DBCA2CC8FDD1415C3DDED62940BCDE0BD771 DUP8 MULMOD ADD ADD PUSH32 0x1C3F20FD55409A53221B7C4D49A356B9F0A1119FB2067B41A7529094424EC6AD ADD SWAP6 POP DUP10 DUP8 DUP4 MULMOD DUP11 PUSH32 0x176CC029695AD02582A70EFF08A6FD99D057E12E58E7D7B6B16CDFABC8EE2911 DUP6 MULMOD DUP12 PUSH32 0x143021EC686A3F330D5F9E654638065CE6CD79E28C5B3753326244EE65A1B1A7 DUP8 MULMOD ADD ADD PUSH32 0x10B4E7F3AB5DF003049514459B6E18EEC46BB2213E8E131E170887B47DDCB96C ADD SWAP5 POP DUP10 DUP2 DUP3 MULMOD SWAP4 POP DUP10 DUP2 DUP12 DUP7 DUP8 MULMOD MULMOD SWAP1 POP DUP10 DUP10 DUP7 MULMOD DUP11 PUSH32 0x16ED41E13BB9C0C66AE119424FDDBCBC9314DC9FDBDEEA55D6C64543DC4903E0 DUP9 MULMOD DUP12 PUSH32 0x109B7F411BA0E4C9B2B70CAF5C36A7B194BE7C11AD24378BFEDB68592BA8118B DUP5 MULMOD ADD ADD PUSH32 0x2A1982979C3FF7F43DDD543D891C2ABDDD80F804C077D775039AA3502E43ADEF ADD SWAP4 POP DUP10 DUP9 DUP7 MULMOD DUP11 PUSH32 0x2E2419F9EC02EC394C9871C832963DC1B89D743C8C7B964029B2311687B1FE23 DUP9 MULMOD DUP12 PUSH32 0x2969F27EED31A480B9C36C764379DBCA2CC8FDD1415C3DDED62940BCDE0BD771 DUP5 MULMOD ADD ADD PUSH32 0x1C74EE64F15E1DB6FEDDBEAD56D6D55DBA431EBC396C9AF95CAD0F1315BD5C91 ADD SWAP3 POP DUP10 DUP8 DUP7 MULMOD DUP11 PUSH32 0x176CC029695AD02582A70EFF08A6FD99D057E12E58E7D7B6B16CDFABC8EE2911 DUP9 MULMOD DUP12 PUSH32 0x143021EC686A3F330D5F9E654638065CE6CD79E28C5B3753326244EE65A1B1A7 DUP5 MULMOD ADD ADD PUSH32 0x7533EC850BA7F98EAB9303CACE01B4B9E4F2E8B82708CFA9C2FE45A0AE146A0 ADD SWAP2 POP DUP10 DUP5 DUP6 MULMOD SWAP1 POP DUP10 DUP5 DUP12 DUP4 DUP5 MULMOD MULMOD SWAP4 POP DUP10 DUP10 DUP4 MULMOD DUP11 PUSH32 0x16ED41E13BB9C0C66AE119424FDDBCBC9314DC9FDBDEEA55D6C64543DC4903E0 DUP6 MULMOD DUP12 PUSH32 0x109B7F411BA0E4C9B2B70CAF5C36A7B194BE7C11AD24378BFEDB68592BA8118B DUP8 MULMOD ADD ADD PUSH32 0x21576B438E500449A151E4EEAF17B154285C68F42D42C1808A11ABF3764C0750 ADD SWAP1 POP DUP10 DUP9 DUP4 MULMOD DUP11 PUSH32 0x2E2419F9EC02EC394C9871C832963DC1B89D743C8C7B964029B2311687B1FE23 DUP6 MULMOD DUP12 PUSH32 0x2969F27EED31A480B9C36C764379DBCA2CC8FDD1415C3DDED62940BCDE0BD771 DUP8 MULMOD ADD ADD PUSH32 0x2F17C0559B8FE79608AD5CA193D62F10BCE8384C815F0906743D6930836D4A9E ADD SWAP6 POP DUP10 DUP8 DUP4 MULMOD DUP11 PUSH32 0x176CC029695AD02582A70EFF08A6FD99D057E12E58E7D7B6B16CDFABC8EE2911 DUP6 MULMOD DUP12 PUSH32 0x143021EC686A3F330D5F9E654638065CE6CD79E28C5B3753326244EE65A1B1A7 DUP8 MULMOD ADD ADD PUSH32 0x2D477E3862D07708A79E8AAE946170BC9775A4201318474AE665B0B1B7E2730E ADD SWAP5 POP DUP10 DUP2 DUP3 MULMOD SWAP4 POP DUP10 DUP2 DUP12 DUP7 DUP8 MULMOD MULMOD SWAP1 POP DUP10 DUP10 DUP7 MULMOD DUP11 PUSH32 0x16ED41E13BB9C0C66AE119424FDDBCBC9314DC9FDBDEEA55D6C64543DC4903E0 DUP9 MULMOD DUP12 PUSH32 0x109B7F411BA0E4C9B2B70CAF5C36A7B194BE7C11AD24378BFEDB68592BA8118B DUP5 MULMOD ADD ADD PUSH32 0x162F5243967064C390E095577984F291AFBA2266C38F5ABCD89BE0F5B2747EAB ADD SWAP4 POP DUP10 DUP9 DUP7 MULMOD DUP11 PUSH32 0x2E2419F9EC02EC394C9871C832963DC1B89D743C8C7B964029B2311687B1FE23 DUP9 MULMOD DUP12 PUSH32 0x2969F27EED31A480B9C36C764379DBCA2CC8FDD1415C3DDED62940BCDE0BD771 DUP5 MULMOD ADD ADD PUSH32 0x2B4CB233EDE9BA48264ECD2C8AE50D1AD7A8596A87F29F8A7777A70092393311 ADD SWAP3 POP DUP10 DUP8 DUP7 MULMOD DUP11 PUSH32 0x176CC029695AD02582A70EFF08A6FD99D057E12E58E7D7B6B16CDFABC8EE2911 DUP9 MULMOD DUP12 PUSH32 0x143021EC686A3F330D5F9E654638065CE6CD79E28C5B3753326244EE65A1B1A7 DUP5 MULMOD ADD ADD PUSH32 0x2C8FBCB2DD8573DC1DBAF8F4622854776DB2EECE6D85C4CF4254E7C35E03B07A ADD SWAP2 POP DUP10 DUP5 DUP6 MULMOD SWAP1 POP DUP10 DUP5 DUP12 DUP4 DUP5 MULMOD MULMOD SWAP4 POP DUP10 DUP10 DUP4 MULMOD DUP11 PUSH32 0x16ED41E13BB9C0C66AE119424FDDBCBC9314DC9FDBDEEA55D6C64543DC4903E0 DUP6 MULMOD DUP12 PUSH32 0x109B7F411BA0E4C9B2B70CAF5C36A7B194BE7C11AD24378BFEDB68592BA8118B DUP8 MULMOD ADD ADD PUSH32 0x1D6F347725E4816AF2FF453F0CD56B199E1B61E9F601E9ADE5E88DB870949DA9 ADD SWAP1 POP DUP10 DUP9 DUP4 MULMOD DUP11 PUSH32 0x2E2419F9EC02EC394C9871C832963DC1B89D743C8C7B964029B2311687B1FE23 DUP6 MULMOD DUP12 PUSH32 0x2969F27EED31A480B9C36C764379DBCA2CC8FDD1415C3DDED62940BCDE0BD771 DUP8 MULMOD ADD ADD PUSH32 0x204B0C397F4EBE71EBC2D8B3DF5B913DF9E6AC02B68D31324CD49AF5C4565529 ADD SWAP6 POP DUP10 DUP8 DUP4 MULMOD DUP11 PUSH32 0x176CC029695AD02582A70EFF08A6FD99D057E12E58E7D7B6B16CDFABC8EE2911 DUP6 MULMOD DUP12 PUSH32 0x143021EC686A3F330D5F9E654638065CE6CD79E28C5B3753326244EE65A1B1A7 DUP8 MULMOD ADD ADD PUSH32 0xC4CB9DC3C4FD8174F1149B3C63C3C2F9ECB827CD7DC25534FF8FB75BC79C502 ADD SWAP5 POP DUP10 DUP2 DUP3 MULMOD SWAP4 POP DUP10 DUP2 DUP12 DUP7 DUP8 MULMOD MULMOD SWAP1 POP DUP10 DUP10 DUP7 MULMOD DUP11 PUSH32 0x16ED41E13BB9C0C66AE119424FDDBCBC9314DC9FDBDEEA55D6C64543DC4903E0 DUP9 MULMOD DUP12 PUSH32 0x109B7F411BA0E4C9B2B70CAF5C36A7B194BE7C11AD24378BFEDB68592BA8118B DUP5 MULMOD ADD ADD PUSH32 0x174AD61A1448C899A25416474F4930301E5C49475279E0639A616DDC45BC7B54 ADD SWAP4 POP DUP10 DUP9 DUP7 MULMOD DUP11 PUSH32 0x2E2419F9EC02EC394C9871C832963DC1B89D743C8C7B964029B2311687B1FE23 DUP9 MULMOD DUP12 PUSH32 0x2969F27EED31A480B9C36C764379DBCA2CC8FDD1415C3DDED62940BCDE0BD771 DUP5 MULMOD ADD ADD PUSH32 0x1A96177BCF4D8D89F759DF4EC2F3CDE2EAAA28C177CC0FA13A9816D49A38D2EF ADD SWAP3 POP DUP10 DUP8 DUP7 MULMOD DUP11 PUSH32 0x176CC029695AD02582A70EFF08A6FD99D057E12E58E7D7B6B16CDFABC8EE2911 DUP9 MULMOD DUP12 PUSH32 0x143021EC686A3F330D5F9E654638065CE6CD79E28C5B3753326244EE65A1B1A7 DUP5 MULMOD ADD ADD PUSH32 0x66D04B24331D71CD0EF8054BC60C4FF05202C126A233C1A8242ACE360B8A30A ADD SWAP2 POP DUP10 DUP5 DUP6 MULMOD SWAP1 POP DUP10 DUP5 DUP12 DUP4 DUP5 MULMOD MULMOD SWAP4 POP DUP10 DUP10 DUP4 MULMOD DUP11 PUSH32 0x16ED41E13BB9C0C66AE119424FDDBCBC9314DC9FDBDEEA55D6C64543DC4903E0 DUP6 MULMOD DUP12 PUSH32 0x109B7F411BA0E4C9B2B70CAF5C36A7B194BE7C11AD24378BFEDB68592BA8118B DUP8 MULMOD ADD ADD PUSH32 0x2A4C4FC6EC0B0CF52195782871C6DD3B381CC65F72E02AD527037A62AA1BD804 ADD SWAP1 POP DUP10 DUP9 DUP4 MULMOD DUP11 PUSH32 0x2E2419F9EC02EC394C9871C832963DC1B89D743C8C7B964029B2311687B1FE23 DUP6 MULMOD DUP12 PUSH32 0x2969F27EED31A480B9C36C764379DBCA2CC8FDD1415C3DDED62940BCDE0BD771 DUP8 MULMOD ADD ADD PUSH32 0x13AB2D136CCF37D447E9F2E14A7CEDC95E727F8446F6D9D7E55AFC01219FD649 ADD SWAP6 POP DUP10 DUP8 DUP4 MULMOD DUP11 PUSH32 0x176CC029695AD02582A70EFF08A6FD99D057E12E58E7D7B6B16CDFABC8EE2911 DUP6 MULMOD DUP12 PUSH32 0x143021EC686A3F330D5F9E654638065CE6CD79E28C5B3753326244EE65A1B1A7 DUP8 MULMOD ADD ADD PUSH32 0x1121552FCA26061619D24D843DC82769C1B04FCEC26F55194C2E3E869ACC6A9A ADD SWAP5 POP DUP10 DUP2 DUP3 MULMOD SWAP4 POP DUP10 DUP2 DUP12 DUP7 DUP8 MULMOD MULMOD SWAP1 POP DUP10 DUP10 DUP7 MULMOD DUP11 PUSH32 0x16ED41E13BB9C0C66AE119424FDDBCBC9314DC9FDBDEEA55D6C64543DC4903E0 DUP9 MULMOD DUP12 PUSH32 0x109B7F411BA0E4C9B2B70CAF5C36A7B194BE7C11AD24378BFEDB68592BA8118B DUP5 MULMOD ADD ADD PUSH31 0xEF653322B13D6C889BC81715C37D77A6CD267D595C4A8909A5546C7C97CFF1 ADD SWAP4 POP DUP10 DUP9 DUP7 MULMOD DUP11 PUSH32 0x2E2419F9EC02EC394C9871C832963DC1B89D743C8C7B964029B2311687B1FE23 DUP9 MULMOD DUP12 PUSH32 0x2969F27EED31A480B9C36C764379DBCA2CC8FDD1415C3DDED62940BCDE0BD771 DUP5 MULMOD ADD ADD PUSH32 0xE25483E45A665208B261D8BA74051E6400C776D652595D9845ACA35D8A397D3 ADD SWAP3 POP DUP10 DUP8 DUP7 MULMOD DUP11 PUSH32 0x176CC029695AD02582A70EFF08A6FD99D057E12E58E7D7B6B16CDFABC8EE2911 DUP9 MULMOD DUP12 PUSH32 0x143021EC686A3F330D5F9E654638065CE6CD79E28C5B3753326244EE65A1B1A7 DUP5 MULMOD ADD ADD PUSH32 0x29F536DCB9DD7682245264659E15D88E395AC3D4DDE92D8C46448DB979EEBA89 ADD SWAP2 POP DUP10 DUP5 DUP6 MULMOD SWAP1 POP DUP10 DUP5 DUP12 DUP4 DUP5 MULMOD MULMOD SWAP4 POP DUP10 DUP10 DUP4 MULMOD DUP11 PUSH32 0x16ED41E13BB9C0C66AE119424FDDBCBC9314DC9FDBDEEA55D6C64543DC4903E0 DUP6 MULMOD DUP12 PUSH32 0x109B7F411BA0E4C9B2B70CAF5C36A7B194BE7C11AD24378BFEDB68592BA8118B DUP8 MULMOD ADD ADD PUSH32 0x2A56EF9F2C53FEBADFDA33575DBDBD885A124E2780BBEA170E456BAACE0FA5BE ADD SWAP1 POP DUP10 DUP9 DUP4 MULMOD DUP11 PUSH32 0x2E2419F9EC02EC394C9871C832963DC1B89D743C8C7B964029B2311687B1FE23 DUP6 MULMOD DUP12 PUSH32 0x2969F27EED31A480B9C36C764379DBCA2CC8FDD1415C3DDED62940BCDE0BD771 DUP8 MULMOD ADD ADD PUSH32 0x1C8361C78EB5CF5DECFB7A2D17B5C409F2AE2999A46762E8EE416240A8CB9AF1 ADD SWAP6 POP DUP10 DUP8 DUP4 MULMOD DUP11 PUSH32 0x176CC029695AD02582A70EFF08A6FD99D057E12E58E7D7B6B16CDFABC8EE2911 DUP6 MULMOD DUP12 PUSH32 0x143021EC686A3F330D5F9E654638065CE6CD79E28C5B3753326244EE65A1B1A7 DUP8 MULMOD ADD ADD PUSH32 0x151AFF5F38B20A0FC0473089AAF0206B83E8E68A764507BFD3D0AB4BE74319C5 ADD SWAP5 POP DUP10 DUP2 DUP3 MULMOD SWAP4 POP DUP10 DUP2 DUP12 DUP7 DUP8 MULMOD MULMOD SWAP1 POP DUP10 DUP10 DUP7 MULMOD DUP11 PUSH32 0x16ED41E13BB9C0C66AE119424FDDBCBC9314DC9FDBDEEA55D6C64543DC4903E0 DUP9 MULMOD DUP12 PUSH32 0x109B7F411BA0E4C9B2B70CAF5C36A7B194BE7C11AD24378BFEDB68592BA8118B DUP5 MULMOD ADD ADD PUSH32 0x4C6187E41ED881DC1B239C88F7F9D43A9F52FC8C8B6CDD1E76E47615B51F100 ADD SWAP4 POP DUP10 DUP9 DUP7 MULMOD DUP11 PUSH32 0x2E2419F9EC02EC394C9871C832963DC1B89D743C8C7B964029B2311687B1FE23 DUP9 MULMOD DUP12 PUSH32 0x2969F27EED31A480B9C36C764379DBCA2CC8FDD1415C3DDED62940BCDE0BD771 DUP5 MULMOD ADD ADD PUSH32 0x13B37BD80F4D27FB10D84331F6FB6D534B81C61ED15776449E801B7DDC9C2967 ADD SWAP3 POP DUP10 DUP8 DUP7 MULMOD DUP11 PUSH32 0x176CC029695AD02582A70EFF08A6FD99D057E12E58E7D7B6B16CDFABC8EE2911 DUP9 MULMOD DUP12 PUSH32 0x143021EC686A3F330D5F9E654638065CE6CD79E28C5B3753326244EE65A1B1A7 DUP5 MULMOD ADD ADD PUSH32 0x1A5C536273C2D9DF578BFBD32C17B7A2CE3664C2A52032C9321CEB1C4E8A8E4 ADD SWAP2 POP DUP10 DUP5 DUP6 MULMOD SWAP1 POP DUP10 DUP5 DUP12 DUP4 DUP5 MULMOD MULMOD SWAP4 POP DUP10 DUP10 DUP4 MULMOD DUP11 PUSH32 0x16ED41E13BB9C0C66AE119424FDDBCBC9314DC9FDBDEEA55D6C64543DC4903E0 DUP6 MULMOD DUP12 PUSH32 0x109B7F411BA0E4C9B2B70CAF5C36A7B194BE7C11AD24378BFEDB68592BA8118B DUP8 MULMOD ADD ADD PUSH32 0x2AB3561834CA73835AD05F5D7ACB950B4A9A2C666B9726DA832239065B7C3B02 ADD SWAP1 POP DUP10 DUP9 DUP4 MULMOD DUP11 PUSH32 0x2E2419F9EC02EC394C9871C832963DC1B89D743C8C7B964029B2311687B1FE23 DUP6 MULMOD DUP12 PUSH32 0x2969F27EED31A480B9C36C764379DBCA2CC8FDD1415C3DDED62940BCDE0BD771 DUP8 MULMOD ADD ADD PUSH32 0x1D4D8EC291E720DB200FE6D686C0D613ACAF6AF4E95D3BF69F7ED516A597B646 ADD SWAP6 POP DUP10 DUP8 DUP4 MULMOD DUP11 PUSH32 0x176CC029695AD02582A70EFF08A6FD99D057E12E58E7D7B6B16CDFABC8EE2911 DUP6 MULMOD DUP12 PUSH32 0x143021EC686A3F330D5F9E654638065CE6CD79E28C5B3753326244EE65A1B1A7 DUP8 MULMOD ADD ADD PUSH32 0x41294D2CC484D228F5784FE7919FD2BB925351240A04B711514C9C80B65AF1D ADD SWAP5 POP DUP10 DUP2 DUP3 MULMOD SWAP4 POP DUP10 DUP2 DUP12 DUP7 DUP8 MULMOD MULMOD SWAP1 POP DUP10 DUP10 DUP7 MULMOD DUP11 PUSH32 0x16ED41E13BB9C0C66AE119424FDDBCBC9314DC9FDBDEEA55D6C64543DC4903E0 DUP9 MULMOD DUP12 PUSH32 0x109B7F411BA0E4C9B2B70CAF5C36A7B194BE7C11AD24378BFEDB68592BA8118B DUP5 MULMOD ADD ADD PUSH32 0x154AC98E01708C611C4FA715991F004898F57939D126E392042971DD90E81FC6 ADD SWAP4 POP DUP10 DUP9 DUP7 MULMOD DUP11 PUSH32 0x2E2419F9EC02EC394C9871C832963DC1B89D743C8C7B964029B2311687B1FE23 DUP9 MULMOD DUP12 PUSH32 0x2969F27EED31A480B9C36C764379DBCA2CC8FDD1415C3DDED62940BCDE0BD771 DUP5 MULMOD ADD ADD PUSH32 0xB339D8ACCA7D4F83EEDD84093AEF51050B3684C88F8B0B04524563BC6EA4DA4 ADD SWAP3 POP DUP10 DUP8 DUP7 MULMOD DUP11 PUSH32 0x176CC029695AD02582A70EFF08A6FD99D057E12E58E7D7B6B16CDFABC8EE2911 DUP9 MULMOD DUP12 PUSH32 0x143021EC686A3F330D5F9E654638065CE6CD79E28C5B3753326244EE65A1B1A7 DUP5 MULMOD ADD ADD PUSH32 0x955E49E6610C94254A4F84CFBAB344598F0E71EAFF4A7DD81ED95B50839C82E ADD SWAP2 POP DUP10 DUP5 DUP6 MULMOD SWAP1 POP DUP10 DUP5 DUP12 DUP4 DUP5 MULMOD MULMOD SWAP4 POP DUP10 DUP10 DUP4 MULMOD DUP11 PUSH32 0x16ED41E13BB9C0C66AE119424FDDBCBC9314DC9FDBDEEA55D6C64543DC4903E0 DUP6 MULMOD DUP12 PUSH32 0x109B7F411BA0E4C9B2B70CAF5C36A7B194BE7C11AD24378BFEDB68592BA8118B DUP8 MULMOD ADD ADD PUSH32 0x6746A6156EBA54426B9E22206F15ABCA9A6F41E6F535C6F3525401EA0654626 ADD SWAP1 POP DUP10 DUP9 DUP4 MULMOD DUP11 PUSH32 0x2E2419F9EC02EC394C9871C832963DC1B89D743C8C7B964029B2311687B1FE23 DUP6 MULMOD DUP12 PUSH32 0x2969F27EED31A480B9C36C764379DBCA2CC8FDD1415C3DDED62940BCDE0BD771 DUP8 MULMOD ADD ADD PUSH32 0xF18F5A0ECD1423C496F3820C549C27838E5790E2BD0A196AC917C7FF32077FB ADD SWAP6 POP DUP10 DUP8 DUP4 MULMOD DUP11 PUSH32 0x176CC029695AD02582A70EFF08A6FD99D057E12E58E7D7B6B16CDFABC8EE2911 DUP6 MULMOD DUP12 PUSH32 0x143021EC686A3F330D5F9E654638065CE6CD79E28C5B3753326244EE65A1B1A7 DUP8 MULMOD ADD ADD PUSH32 0x4F6EECA1751F7308AC59EFF5BEB261E4BB563583EDE7BC92A738223D6F76E13 ADD SWAP5 POP DUP10 DUP2 DUP3 MULMOD SWAP4 POP DUP10 DUP2 DUP12 DUP7 DUP8 MULMOD MULMOD SWAP1 POP DUP10 DUP10 DUP7 MULMOD DUP11 PUSH32 0x16ED41E13BB9C0C66AE119424FDDBCBC9314DC9FDBDEEA55D6C64543DC4903E0 DUP9 MULMOD DUP12 PUSH32 0x109B7F411BA0E4C9B2B70CAF5C36A7B194BE7C11AD24378BFEDB68592BA8118B DUP5 MULMOD ADD ADD PUSH32 0x2B56973364C4C4F5C1A3EC4DA3CDCE038811EB116FB3E45BC1768D26FC0B3758 ADD SWAP4 POP DUP10 DUP9 DUP7 MULMOD DUP11 PUSH32 0x2E2419F9EC02EC394C9871C832963DC1B89D743C8C7B964029B2311687B1FE23 DUP9 MULMOD DUP12 PUSH32 0x2969F27EED31A480B9C36C764379DBCA2CC8FDD1415C3DDED62940BCDE0BD771 DUP5 MULMOD ADD ADD PUSH32 0x123769DD49D5B054DCD76B89804B1BCB8E1392B385716A5D83FEB65D437F29EF ADD SWAP3 POP DUP10 DUP8 DUP7 MULMOD DUP11 PUSH32 0x176CC029695AD02582A70EFF08A6FD99D057E12E58E7D7B6B16CDFABC8EE2911 DUP9 MULMOD DUP12 PUSH32 0x143021EC686A3F330D5F9E654638065CE6CD79E28C5B3753326244EE65A1B1A7 DUP5 MULMOD ADD ADD PUSH32 0x2147B424FC48C80A88EE52B91169AACEA989F6446471150994257B2FB01C63E9 ADD SWAP2 POP DUP10 DUP5 DUP6 MULMOD SWAP1 POP DUP10 DUP5 DUP12 DUP4 DUP5 MULMOD MULMOD SWAP4 POP DUP10 DUP10 DUP4 MULMOD DUP11 PUSH32 0x16ED41E13BB9C0C66AE119424FDDBCBC9314DC9FDBDEEA55D6C64543DC4903E0 DUP6 MULMOD DUP12 PUSH32 0x109B7F411BA0E4C9B2B70CAF5C36A7B194BE7C11AD24378BFEDB68592BA8118B DUP8 MULMOD ADD ADD PUSH32 0xFDC1F58548B85701A6C5505EA332A29647E6F34AD4243C2EA54AD897CEBE54D ADD SWAP1 POP DUP10 DUP9 DUP4 MULMOD DUP11 PUSH32 0x2E2419F9EC02EC394C9871C832963DC1B89D743C8C7B964029B2311687B1FE23 DUP6 MULMOD DUP12 PUSH32 0x2969F27EED31A480B9C36C764379DBCA2CC8FDD1415C3DDED62940BCDE0BD771 DUP8 MULMOD ADD ADD PUSH32 0x12373A8251FEA004DF68ABCF0F7786D4BCEFF28C5DBBE0C3944F685CC0A0B1F2 ADD SWAP6 POP DUP10 DUP8 DUP4 MULMOD DUP11 PUSH32 0x176CC029695AD02582A70EFF08A6FD99D057E12E58E7D7B6B16CDFABC8EE2911 DUP6 MULMOD DUP12 PUSH32 0x143021EC686A3F330D5F9E654638065CE6CD79E28C5B3753326244EE65A1B1A7 DUP8 MULMOD ADD ADD PUSH32 0x21E4F4EA5F35F85BAD7EA52FF742C9E8A642756B6AF44203DD8A1F35C1A90035 ADD SWAP5 POP DUP10 DUP2 DUP3 MULMOD SWAP4 POP DUP10 DUP2 DUP12 DUP7 DUP8 MULMOD MULMOD SWAP1 POP DUP10 DUP10 DUP7 MULMOD DUP11 PUSH32 0x16ED41E13BB9C0C66AE119424FDDBCBC9314DC9FDBDEEA55D6C64543DC4903E0 DUP9 MULMOD DUP12 PUSH32 0x109B7F411BA0E4C9B2B70CAF5C36A7B194BE7C11AD24378BFEDB68592BA8118B DUP5 MULMOD ADD ADD PUSH32 0x16243916D69D2CA3DFB4722224D4C462B57366492F45E90D8A81934F1BC3B147 ADD SWAP4 POP DUP10 DUP9 DUP7 MULMOD DUP11 PUSH32 0x2E2419F9EC02EC394C9871C832963DC1B89D743C8C7B964029B2311687B1FE23 DUP9 MULMOD DUP12 PUSH32 0x2969F27EED31A480B9C36C764379DBCA2CC8FDD1415C3DDED62940BCDE0BD771 DUP5 MULMOD ADD ADD PUSH32 0x1EFBE46DD7A578B4F66F9ADBC88B4378ABC21566E1A0453CA13A4159CAC04AC2 ADD SWAP3 POP DUP10 DUP8 DUP7 MULMOD DUP11 PUSH32 0x176CC029695AD02582A70EFF08A6FD99D057E12E58E7D7B6B16CDFABC8EE2911 DUP9 MULMOD DUP12 PUSH32 0x143021EC686A3F330D5F9E654638065CE6CD79E28C5B3753326244EE65A1B1A7 DUP5 MULMOD ADD ADD PUSH32 0x7EA5E8537CF5DD08886020E23A7F387D468D5525BE66F853B672CC96A88969A ADD SWAP2 POP DUP10 DUP5 DUP6 MULMOD SWAP1 POP DUP10 DUP5 DUP12 DUP4 DUP5 MULMOD MULMOD SWAP4 POP DUP10 DUP10 DUP4 MULMOD DUP11 PUSH32 0x16ED41E13BB9C0C66AE119424FDDBCBC9314DC9FDBDEEA55D6C64543DC4903E0 DUP6 MULMOD DUP12 PUSH32 0x109B7F411BA0E4C9B2B70CAF5C36A7B194BE7C11AD24378BFEDB68592BA8118B DUP8 MULMOD ADD ADD PUSH32 0x5A8C4F9968B8AA3B7B478A30F9A5B63650F19A75E7CE11CA9FE16C0B76C00BC ADD SWAP1 POP DUP10 DUP9 DUP4 MULMOD DUP11 PUSH32 0x2E2419F9EC02EC394C9871C832963DC1B89D743C8C7B964029B2311687B1FE23 DUP6 MULMOD DUP12 PUSH32 0x2969F27EED31A480B9C36C764379DBCA2CC8FDD1415C3DDED62940BCDE0BD771 DUP8 MULMOD ADD ADD PUSH32 0x20F057712CC21654FBFE59BD345E8DAC3F7818C701B9C7882D9D57B72A32E83F ADD SWAP6 POP DUP10 DUP8 DUP4 MULMOD DUP11 PUSH32 0x176CC029695AD02582A70EFF08A6FD99D057E12E58E7D7B6B16CDFABC8EE2911 DUP6 MULMOD DUP12 PUSH32 0x143021EC686A3F330D5F9E654638065CE6CD79E28C5B3753326244EE65A1B1A7 DUP8 MULMOD ADD ADD PUSH32 0x4A12EDEDA9DFD689672F8C67FEE31636DCD8E88D01D49019BD90B33EB33DB69 ADD SWAP5 POP DUP10 DUP2 DUP3 MULMOD SWAP4 POP DUP10 DUP2 DUP12 DUP7 DUP8 MULMOD MULMOD SWAP1 POP DUP10 DUP10 DUP7 MULMOD DUP11 PUSH32 0x16ED41E13BB9C0C66AE119424FDDBCBC9314DC9FDBDEEA55D6C64543DC4903E0 DUP9 MULMOD DUP12 PUSH32 0x109B7F411BA0E4C9B2B70CAF5C36A7B194BE7C11AD24378BFEDB68592BA8118B DUP5 MULMOD ADD ADD PUSH32 0x27E88D8C15F37DCEE44F1E5425A51DECBD136CE5091A6767E49EC9544CCD101A ADD SWAP4 POP DUP10 DUP9 DUP7 MULMOD DUP11 PUSH32 0x2E2419F9EC02EC394C9871C832963DC1B89D743C8C7B964029B2311687B1FE23 DUP9 MULMOD DUP12 PUSH32 0x2969F27EED31A480B9C36C764379DBCA2CC8FDD1415C3DDED62940BCDE0BD771 DUP5 MULMOD ADD ADD PUSH32 0x2FEED17B84285ED9B8A5C8C5E95A41F66E096619A7703223176C41EE433DE4D1 ADD SWAP3 POP DUP10 DUP8 DUP7 MULMOD DUP11 PUSH32 0x176CC029695AD02582A70EFF08A6FD99D057E12E58E7D7B6B16CDFABC8EE2911 DUP9 MULMOD DUP12 PUSH32 0x143021EC686A3F330D5F9E654638065CE6CD79E28C5B3753326244EE65A1B1A7 DUP5 MULMOD ADD ADD PUSH32 0x1ED7CC76EDF45C7C404241420F729CF394E5942911312A0D6972B8BD53AFF2B8 ADD SWAP2 POP DUP10 DUP5 DUP6 MULMOD SWAP1 POP DUP10 DUP5 DUP12 DUP4 DUP5 MULMOD MULMOD SWAP4 POP DUP10 DUP10 DUP4 MULMOD DUP11 PUSH32 0x16ED41E13BB9C0C66AE119424FDDBCBC9314DC9FDBDEEA55D6C64543DC4903E0 DUP6 MULMOD DUP12 PUSH32 0x109B7F411BA0E4C9B2B70CAF5C36A7B194BE7C11AD24378BFEDB68592BA8118B DUP8 MULMOD ADD ADD PUSH32 0x15742E99B9BFA323157FF8C586F5660EAC6783476144CDCADF2874BE45466B1A ADD SWAP1 POP DUP10 DUP9 DUP4 MULMOD DUP11 PUSH32 0x2E2419F9EC02EC394C9871C832963DC1B89D743C8C7B964029B2311687B1FE23 DUP6 MULMOD DUP12 PUSH32 0x2969F27EED31A480B9C36C764379DBCA2CC8FDD1415C3DDED62940BCDE0BD771 DUP8 MULMOD ADD ADD PUSH32 0x1AAC285387F65E82C895FC6887DDF40577107454C6EC0317284F033F27D0C785 ADD SWAP6 POP DUP10 DUP8 DUP4 MULMOD DUP11 PUSH32 0x176CC029695AD02582A70EFF08A6FD99D057E12E58E7D7B6B16CDFABC8EE2911 DUP6 MULMOD DUP12 PUSH32 0x143021EC686A3F330D5F9E654638065CE6CD79E28C5B3753326244EE65A1B1A7 DUP8 MULMOD ADD ADD PUSH32 0x25851C3C845D4790F9DDADBDB6057357832E2E7A49775F71EC75A96554D67C77 ADD SWAP5 POP DUP10 DUP2 DUP3 MULMOD SWAP4 POP DUP10 DUP2 DUP12 DUP7 DUP8 MULMOD MULMOD SWAP1 POP DUP10 DUP10 DUP7 MULMOD DUP11 PUSH32 0x16ED41E13BB9C0C66AE119424FDDBCBC9314DC9FDBDEEA55D6C64543DC4903E0 DUP9 MULMOD DUP12 PUSH32 0x109B7F411BA0E4C9B2B70CAF5C36A7B194BE7C11AD24378BFEDB68592BA8118B DUP5 MULMOD ADD ADD PUSH32 0x15A5821565CC2EC2CE78457DB197EDF353B7EBBA2C5523370DDCCC3D9F146A67 ADD SWAP4 POP DUP10 DUP9 DUP7 MULMOD DUP11 PUSH32 0x2E2419F9EC02EC394C9871C832963DC1B89D743C8C7B964029B2311687B1FE23 DUP9 MULMOD DUP12 PUSH32 0x2969F27EED31A480B9C36C764379DBCA2CC8FDD1415C3DDED62940BCDE0BD771 DUP5 MULMOD ADD ADD PUSH32 0x2411D57A4813B9980EFA7E31A1DB5966DCF64F36044277502F15485F28C71727 ADD SWAP3 POP DUP10 DUP8 DUP7 MULMOD DUP11 PUSH32 0x176CC029695AD02582A70EFF08A6FD99D057E12E58E7D7B6B16CDFABC8EE2911 DUP9 MULMOD DUP12 PUSH32 0x143021EC686A3F330D5F9E654638065CE6CD79E28C5B3753326244EE65A1B1A7 DUP5 MULMOD ADD ADD PUSH31 0x2E6F8D6520CD4713E335B8C0B6D2E647E9A98E12F4CD2558828B5EF6CB4C9B ADD SWAP2 POP DUP10 DUP5 DUP6 MULMOD SWAP1 POP DUP10 DUP5 DUP12 DUP4 DUP5 MULMOD MULMOD SWAP4 POP DUP10 DUP10 DUP4 MULMOD DUP11 PUSH32 0x16ED41E13BB9C0C66AE119424FDDBCBC9314DC9FDBDEEA55D6C64543DC4903E0 DUP6 MULMOD DUP12 PUSH32 0x109B7F411BA0E4C9B2B70CAF5C36A7B194BE7C11AD24378BFEDB68592BA8118B DUP8 MULMOD ADD ADD PUSH32 0x2FF7BC8F4380CDE997DA00B616B0FCD1AF8F0E91E2FE1ED7398834609E0315D2 ADD SWAP1 POP DUP10 DUP9 DUP4 MULMOD DUP11 PUSH32 0x2E2419F9EC02EC394C9871C832963DC1B89D743C8C7B964029B2311687B1FE23 DUP6 MULMOD DUP12 PUSH32 0x2969F27EED31A480B9C36C764379DBCA2CC8FDD1415C3DDED62940BCDE0BD771 DUP8 MULMOD ADD ADD PUSH31 0xB9831B948525595EE02724471BCD182E9521F6B7BB68F1E93BE4FEBB0D3CBE ADD SWAP6 POP DUP10 DUP8 DUP4 MULMOD DUP11 PUSH32 0x176CC029695AD02582A70EFF08A6FD99D057E12E58E7D7B6B16CDFABC8EE2911 DUP6 MULMOD DUP12 PUSH32 0x143021EC686A3F330D5F9E654638065CE6CD79E28C5B3753326244EE65A1B1A7 DUP8 MULMOD ADD ADD PUSH32 0xA2F53768B8EBF6A86913B0E57C04E011CA408648A4743A87D77ADBF0C9C3512 ADD SWAP5 POP DUP10 DUP2 DUP3 MULMOD SWAP4 POP DUP10 DUP2 DUP12 DUP7 DUP8 MULMOD MULMOD SWAP1 POP DUP10 DUP10 DUP7 MULMOD DUP11 PUSH32 0x16ED41E13BB9C0C66AE119424FDDBCBC9314DC9FDBDEEA55D6C64543DC4903E0 DUP9 MULMOD DUP12 PUSH32 0x109B7F411BA0E4C9B2B70CAF5C36A7B194BE7C11AD24378BFEDB68592BA8118B DUP5 MULMOD ADD ADD PUSH31 0x248156142FD0373A479F91FF239E960F599FF7E94BE69B7F2A290305E1198D ADD SWAP4 POP DUP10 DUP9 DUP7 MULMOD DUP11 PUSH32 0x2E2419F9EC02EC394C9871C832963DC1B89D743C8C7B964029B2311687B1FE23 DUP9 MULMOD DUP12 PUSH32 0x2969F27EED31A480B9C36C764379DBCA2CC8FDD1415C3DDED62940BCDE0BD771 DUP5 MULMOD ADD ADD PUSH32 0x171D5620B87BFB1328CF8C02AB3F0C9A397196AA6A542C2350EB512A2B2BCDA9 ADD SWAP3 POP DUP10 DUP8 DUP7 MULMOD DUP11 PUSH32 0x176CC029695AD02582A70EFF08A6FD99D057E12E58E7D7B6B16CDFABC8EE2911 DUP9 MULMOD DUP12 PUSH32 0x143021EC686A3F330D5F9E654638065CE6CD79E28C5B3753326244EE65A1B1A7 DUP5 MULMOD ADD ADD PUSH32 0x170A4F55536F7DC970087C7C10D6FAD760C952172DD54DD99D1045E4EC34A808 ADD SWAP2 POP DUP10 DUP5 DUP6 MULMOD SWAP1 POP DUP10 DUP5 DUP12 DUP4 DUP5 MULMOD MULMOD SWAP4 POP DUP10 DUP10 DUP4 MULMOD DUP11 PUSH32 0x16ED41E13BB9C0C66AE119424FDDBCBC9314DC9FDBDEEA55D6C64543DC4903E0 DUP6 MULMOD DUP12 PUSH32 0x109B7F411BA0E4C9B2B70CAF5C36A7B194BE7C11AD24378BFEDB68592BA8118B DUP8 MULMOD ADD ADD PUSH32 0x29ABA33F799FE66C2EF3134AEA04336ECC37E38C1CD211BA482ECA17E2DBFAE1 ADD SWAP1 POP DUP10 DUP9 DUP4 MULMOD DUP11 PUSH32 0x2E2419F9EC02EC394C9871C832963DC1B89D743C8C7B964029B2311687B1FE23 DUP6 MULMOD DUP12 PUSH32 0x2969F27EED31A480B9C36C764379DBCA2CC8FDD1415C3DDED62940BCDE0BD771 DUP8 MULMOD ADD ADD PUSH32 0x1E9BC179A4FDD758FDD1BB1945088D47E70D114A03F6A0E8B5BA650369E64973 ADD SWAP6 POP DUP10 DUP8 DUP4 MULMOD DUP11 PUSH32 0x176CC029695AD02582A70EFF08A6FD99D057E12E58E7D7B6B16CDFABC8EE2911 DUP6 MULMOD DUP12 PUSH32 0x143021EC686A3F330D5F9E654638065CE6CD79E28C5B3753326244EE65A1B1A7 DUP8 MULMOD ADD ADD PUSH32 0x1DD269799B660FAD58F7F4892DFB0B5AFEAAD869A9C4B44F9C9E1C43BDAF8F09 ADD SWAP5 POP DUP10 DUP2 DUP3 MULMOD SWAP4 POP DUP10 DUP2 DUP12 DUP7 DUP8 MULMOD MULMOD SWAP1 POP DUP10 DUP10 DUP7 MULMOD DUP11 PUSH32 0x16ED41E13BB9C0C66AE119424FDDBCBC9314DC9FDBDEEA55D6C64543DC4903E0 DUP9 MULMOD DUP12 PUSH32 0x109B7F411BA0E4C9B2B70CAF5C36A7B194BE7C11AD24378BFEDB68592BA8118B DUP5 MULMOD ADD ADD PUSH32 0x22CDBC8B70117AD1401181D02E15459E7CCD426FE869C7C95D1DD2CB0F24AF38 ADD SWAP4 POP DUP10 DUP9 DUP7 MULMOD DUP11 PUSH32 0x2E2419F9EC02EC394C9871C832963DC1B89D743C8C7B964029B2311687B1FE23 DUP9 MULMOD DUP12 PUSH32 0x2969F27EED31A480B9C36C764379DBCA2CC8FDD1415C3DDED62940BCDE0BD771 DUP5 MULMOD ADD ADD PUSH32 0xEF042E454771C533A9F57A55C503FCEFD3150F52ED94A7CD5BA93B9C7DACEFD ADD SWAP3 POP DUP10 DUP8 DUP7 MULMOD DUP11 PUSH32 0x176CC029695AD02582A70EFF08A6FD99D057E12E58E7D7B6B16CDFABC8EE2911 DUP9 MULMOD DUP12 PUSH32 0x143021EC686A3F330D5F9E654638065CE6CD79E28C5B3753326244EE65A1B1A7 DUP5 MULMOD ADD ADD PUSH32 0x11609E06AD6C8FE2F287F3036037E8851318E8B08A0359A03B304FFCA62E8284 ADD SWAP2 POP DUP10 DUP5 DUP6 MULMOD SWAP1 POP DUP10 DUP5 DUP12 DUP4 DUP5 MULMOD MULMOD SWAP4 POP DUP10 DUP10 DUP4 MULMOD DUP11 PUSH32 0x16ED41E13BB9C0C66AE119424FDDBCBC9314DC9FDBDEEA55D6C64543DC4903E0 DUP6 MULMOD DUP12 PUSH32 0x109B7F411BA0E4C9B2B70CAF5C36A7B194BE7C11AD24378BFEDB68592BA8118B DUP8 MULMOD ADD ADD PUSH32 0x1166D9E554616DBA9E753EEA427C17B7FECD58C076DFE42708B08F5B783AA9AF ADD SWAP1 POP DUP10 DUP9 DUP4 MULMOD DUP11 PUSH32 0x2E2419F9EC02EC394C9871C832963DC1B89D743C8C7B964029B2311687B1FE23 DUP6 MULMOD DUP12 PUSH32 0x2969F27EED31A480B9C36C764379DBCA2CC8FDD1415C3DDED62940BCDE0BD771 DUP8 MULMOD ADD ADD PUSH32 0x2DE52989431A859593413026354413DB177FBF4CD2AC0B56F855A888357EE466 ADD SWAP6 POP DUP10 DUP8 DUP4 MULMOD DUP11 PUSH32 0x176CC029695AD02582A70EFF08A6FD99D057E12E58E7D7B6B16CDFABC8EE2911 DUP6 MULMOD DUP12 PUSH32 0x143021EC686A3F330D5F9E654638065CE6CD79E28C5B3753326244EE65A1B1A7 DUP8 MULMOD ADD ADD PUSH32 0x3006EB4FFC7A85819A6DA492F3A8AC1DF51AEE5B17B8E89D74BF01CF5F71E9AD ADD SWAP5 POP DUP10 DUP2 DUP3 MULMOD SWAP4 POP DUP10 DUP2 DUP12 DUP7 DUP8 MULMOD MULMOD SWAP1 POP DUP10 DUP10 DUP7 MULMOD DUP11 PUSH32 0x16ED41E13BB9C0C66AE119424FDDBCBC9314DC9FDBDEEA55D6C64543DC4903E0 DUP9 MULMOD DUP12 PUSH32 0x109B7F411BA0E4C9B2B70CAF5C36A7B194BE7C11AD24378BFEDB68592BA8118B DUP5 MULMOD ADD ADD PUSH32 0x2AF41FBB61BA8A80FDCF6FFF9E3F6F422993FE8F0A4639F962344C8225145086 ADD SWAP4 POP DUP10 DUP9 DUP7 MULMOD DUP11 PUSH32 0x2E2419F9EC02EC394C9871C832963DC1B89D743C8C7B964029B2311687B1FE23 DUP9 MULMOD DUP12 PUSH32 0x2969F27EED31A480B9C36C764379DBCA2CC8FDD1415C3DDED62940BCDE0BD771 DUP5 MULMOD ADD ADD PUSH32 0x119E684DE476155FE5A6B41A8EBC85DB8718AB27889E85E781B214BACE4827C3 ADD SWAP3 POP DUP10 DUP8 DUP7 MULMOD DUP11 PUSH32 0x176CC029695AD02582A70EFF08A6FD99D057E12E58E7D7B6B16CDFABC8EE2911 DUP9 MULMOD DUP12 PUSH32 0x143021EC686A3F330D5F9E654638065CE6CD79E28C5B3753326244EE65A1B1A7 DUP5 MULMOD ADD ADD PUSH32 0x1835B786E2E8925E188BEA59AE363537B51248C23828F047CFF784B97B3FD800 ADD SWAP2 POP DUP10 DUP5 DUP6 MULMOD SWAP1 POP DUP10 DUP5 DUP12 DUP4 DUP5 MULMOD MULMOD SWAP4 POP DUP10 DUP10 DUP4 MULMOD DUP11 PUSH32 0x16ED41E13BB9C0C66AE119424FDDBCBC9314DC9FDBDEEA55D6C64543DC4903E0 DUP6 MULMOD DUP12 PUSH32 0x109B7F411BA0E4C9B2B70CAF5C36A7B194BE7C11AD24378BFEDB68592BA8118B DUP8 MULMOD ADD ADD PUSH32 0x28201A34C594DFA34D794996C6433A20D152BAC2A7905C926C40E285AB32EEB6 ADD SWAP1 POP DUP10 DUP9 DUP4 MULMOD DUP11 PUSH32 0x2E2419F9EC02EC394C9871C832963DC1B89D743C8C7B964029B2311687B1FE23 DUP6 MULMOD DUP12 PUSH32 0x2969F27EED31A480B9C36C764379DBCA2CC8FDD1415C3DDED62940BCDE0BD771 DUP8 MULMOD ADD ADD PUSH32 0x83EFD7A27D1751094E80FEFAF78B000864C82EB571187724A761F88C22CC4E7 ADD SWAP6 POP DUP10 DUP8 DUP4 MULMOD DUP11 PUSH32 0x176CC029695AD02582A70EFF08A6FD99D057E12E58E7D7B6B16CDFABC8EE2911 DUP6 MULMOD DUP12 PUSH32 0x143021EC686A3F330D5F9E654638065CE6CD79E28C5B3753326244EE65A1B1A7 DUP8 MULMOD ADD ADD PUSH32 0xB6F88A3577199526158E61CEEA27BE811C16DF7774DD8519E079564F61FD13B ADD SWAP5 POP DUP10 DUP2 DUP3 MULMOD SWAP4 POP DUP10 DUP2 DUP12 DUP7 DUP8 MULMOD MULMOD SWAP1 POP DUP10 DUP10 DUP7 MULMOD DUP11 PUSH32 0x16ED41E13BB9C0C66AE119424FDDBCBC9314DC9FDBDEEA55D6C64543DC4903E0 DUP9 MULMOD DUP12 PUSH32 0x109B7F411BA0E4C9B2B70CAF5C36A7B194BE7C11AD24378BFEDB68592BA8118B DUP5 MULMOD ADD ADD PUSH32 0xEC868E6D15E51D9644F66E1D6471A94589511CA00D29E1014390E6EE4254F5B ADD SWAP4 POP DUP10 DUP9 DUP7 MULMOD DUP11 PUSH32 0x2E2419F9EC02EC394C9871C832963DC1B89D743C8C7B964029B2311687B1FE23 DUP9 MULMOD DUP12 PUSH32 0x2969F27EED31A480B9C36C764379DBCA2CC8FDD1415C3DDED62940BCDE0BD771 DUP5 MULMOD ADD ADD PUSH32 0x2AF33E3F866771271AC0C9B3ED2E1142ECD3E74B939CD40D00D937AB84C98591 ADD SWAP3 POP DUP10 DUP8 DUP7 MULMOD DUP11 PUSH32 0x176CC029695AD02582A70EFF08A6FD99D057E12E58E7D7B6B16CDFABC8EE2911 DUP9 MULMOD DUP12 PUSH32 0x143021EC686A3F330D5F9E654638065CE6CD79E28C5B3753326244EE65A1B1A7 DUP5 MULMOD ADD ADD PUSH32 0xB520211F904B5E7D09B5D961C6ACE7734568C547DD6858B364CE5E47951F178 ADD SWAP2 POP DUP10 DUP5 DUP6 MULMOD SWAP1 POP DUP10 DUP5 DUP12 DUP4 DUP5 MULMOD MULMOD SWAP4 POP DUP10 DUP10 DUP4 MULMOD DUP11 PUSH32 0x16ED41E13BB9C0C66AE119424FDDBCBC9314DC9FDBDEEA55D6C64543DC4903E0 DUP6 MULMOD DUP12 PUSH32 0x109B7F411BA0E4C9B2B70CAF5C36A7B194BE7C11AD24378BFEDB68592BA8118B DUP8 MULMOD ADD ADD PUSH32 0xB2D722D0919A1AAD8DB58F10062A92EA0C56AC4270E822CCA228620188A1D40 ADD SWAP1 POP DUP10 DUP9 DUP4 MULMOD DUP11 PUSH32 0x2E2419F9EC02EC394C9871C832963DC1B89D743C8C7B964029B2311687B1FE23 DUP6 MULMOD DUP12 PUSH32 0x2969F27EED31A480B9C36C764379DBCA2CC8FDD1415C3DDED62940BCDE0BD771 DUP8 MULMOD ADD ADD PUSH32 0x1F790D4D7F8CF094D980CEB37C2453E957B54A9991CA38BBE0061D1ED6E562D4 ADD SWAP6 POP DUP10 DUP8 DUP4 MULMOD DUP11 PUSH32 0x176CC029695AD02582A70EFF08A6FD99D057E12E58E7D7B6B16CDFABC8EE2911 DUP6 MULMOD DUP12 PUSH32 0x143021EC686A3F330D5F9E654638065CE6CD79E28C5B3753326244EE65A1B1A7 DUP8 MULMOD ADD ADD PUSH32 0x171EB95DFBF7D1EAEA97CD385F780150885C16235A2A6A8DA92CEB01E504233 ADD SWAP5 POP DUP10 DUP2 DUP3 MULMOD SWAP4 POP DUP10 DUP2 DUP12 DUP7 DUP8 MULMOD MULMOD SWAP1 POP DUP10 DUP10 DUP7 MULMOD DUP11 PUSH32 0x16ED41E13BB9C0C66AE119424FDDBCBC9314DC9FDBDEEA55D6C64543DC4903E0 DUP9 MULMOD DUP12 PUSH32 0x109B7F411BA0E4C9B2B70CAF5C36A7B194BE7C11AD24378BFEDB68592BA8118B DUP5 MULMOD ADD ADD PUSH32 0xC2D0E3B5FD57549329BF6885DA66B9B790B40DEFD2C8650762305381B168873 ADD SWAP4 POP DUP10 DUP9 DUP7 MULMOD DUP11 PUSH32 0x2E2419F9EC02EC394C9871C832963DC1B89D743C8C7B964029B2311687B1FE23 DUP9 MULMOD DUP12 PUSH32 0x2969F27EED31A480B9C36C764379DBCA2CC8FDD1415C3DDED62940BCDE0BD771 DUP5 MULMOD ADD ADD PUSH32 0x1162FB28689C27154E5A8228B4E72B377CBCAFA589E283C35D3803054407A18D ADD SWAP3 POP DUP10 DUP8 DUP7 MULMOD DUP11 PUSH32 0x176CC029695AD02582A70EFF08A6FD99D057E12E58E7D7B6B16CDFABC8EE2911 DUP9 MULMOD DUP12 PUSH32 0x143021EC686A3F330D5F9E654638065CE6CD79E28C5B3753326244EE65A1B1A7 DUP5 MULMOD ADD ADD PUSH32 0x2F1459B65DEE441B64AD386A91E8310F282C5A92A89E19921623EF8249711BC0 ADD SWAP2 POP DUP10 DUP5 DUP6 MULMOD SWAP1 POP DUP10 DUP5 DUP12 DUP4 DUP5 MULMOD MULMOD SWAP4 POP DUP10 DUP10 DUP4 MULMOD DUP11 PUSH32 0x16ED41E13BB9C0C66AE119424FDDBCBC9314DC9FDBDEEA55D6C64543DC4903E0 DUP6 MULMOD DUP12 PUSH32 0x109B7F411BA0E4C9B2B70CAF5C36A7B194BE7C11AD24378BFEDB68592BA8118B DUP8 MULMOD ADD ADD PUSH32 0x1E6FF3216B688C3D996D74367D5CD4C1BC489D46754EB712C243F70D1B53CFBB ADD SWAP1 POP DUP10 DUP9 DUP4 MULMOD DUP11 PUSH32 0x2E2419F9EC02EC394C9871C832963DC1B89D743C8C7B964029B2311687B1FE23 DUP6 MULMOD DUP12 PUSH32 0x2969F27EED31A480B9C36C764379DBCA2CC8FDD1415C3DDED62940BCDE0BD771 DUP8 MULMOD ADD ADD PUSH32 0x1CA8BE73832B8D0681487D27D157802D741A6F36CDC2A0576881F9326478875 ADD SWAP6 POP DUP10 DUP8 DUP4 MULMOD DUP11 PUSH32 0x176CC029695AD02582A70EFF08A6FD99D057E12E58E7D7B6B16CDFABC8EE2911 DUP6 MULMOD DUP12 PUSH32 0x143021EC686A3F330D5F9E654638065CE6CD79E28C5B3753326244EE65A1B1A7 DUP8 MULMOD ADD ADD PUSH32 0x1F7735706FFE9FC586F976D5BDF223DC680286080B10CEA00B9B5DE315F9650E ADD SWAP5 POP DUP10 DUP2 DUP3 MULMOD SWAP4 POP DUP10 DUP2 DUP12 DUP7 DUP8 MULMOD MULMOD SWAP1 POP DUP10 DUP10 DUP7 MULMOD DUP11 PUSH32 0x16ED41E13BB9C0C66AE119424FDDBCBC9314DC9FDBDEEA55D6C64543DC4903E0 DUP9 MULMOD DUP12 PUSH32 0x109B7F411BA0E4C9B2B70CAF5C36A7B194BE7C11AD24378BFEDB68592BA8118B DUP5 MULMOD ADD ADD PUSH32 0x2522B60F4EA3307640A0C2DCE041FBA921AC10A3D5F096EF4745CA838285F019 ADD SWAP4 POP DUP10 DUP9 DUP7 MULMOD DUP11 PUSH32 0x2E2419F9EC02EC394C9871C832963DC1B89D743C8C7B964029B2311687B1FE23 DUP9 MULMOD DUP12 PUSH32 0x2969F27EED31A480B9C36C764379DBCA2CC8FDD1415C3DDED62940BCDE0BD771 DUP5 MULMOD ADD ADD PUSH32 0x23F0BEE001B1029D5255075DDC957F833418CAD4F52B6C3F8CE16C235572575B ADD SWAP3 POP DUP10 DUP8 DUP7 MULMOD DUP11 PUSH32 0x176CC029695AD02582A70EFF08A6FD99D057E12E58E7D7B6B16CDFABC8EE2911 DUP9 MULMOD DUP12 PUSH32 0x143021EC686A3F330D5F9E654638065CE6CD79E28C5B3753326244EE65A1B1A7 DUP5 MULMOD ADD ADD PUSH32 0x2BC1AE8B8DDBB81FCAAC2D44555ED5685D142633E9DF905F66D9401093082D59 ADD SWAP2 POP DUP10 DUP5 DUP6 MULMOD SWAP1 POP DUP10 DUP5 DUP12 DUP4 DUP5 MULMOD MULMOD SWAP4 POP DUP10 DUP10 DUP4 MULMOD DUP11 PUSH32 0x16ED41E13BB9C0C66AE119424FDDBCBC9314DC9FDBDEEA55D6C64543DC4903E0 DUP6 MULMOD DUP12 PUSH32 0x109B7F411BA0E4C9B2B70CAF5C36A7B194BE7C11AD24378BFEDB68592BA8118B DUP8 MULMOD ADD ADD PUSH32 0xF9406B8296564A37304507B8DBA3ED162371273A07B1FC98011FCD6AD72205F ADD SWAP1 POP DUP10 DUP9 DUP4 MULMOD DUP11 PUSH32 0x2E2419F9EC02EC394C9871C832963DC1B89D743C8C7B964029B2311687B1FE23 DUP6 MULMOD DUP12 PUSH32 0x2969F27EED31A480B9C36C764379DBCA2CC8FDD1415C3DDED62940BCDE0BD771 DUP8 MULMOD ADD ADD PUSH32 0x2360A8EB0CC7DEFA67B72998DE90714E17E75B174A52EE4ACB126C8CD995F0A8 ADD SWAP6 POP DUP10 DUP8 DUP4 MULMOD DUP11 PUSH32 0x176CC029695AD02582A70EFF08A6FD99D057E12E58E7D7B6B16CDFABC8EE2911 DUP6 MULMOD DUP12 PUSH32 0x143021EC686A3F330D5F9E654638065CE6CD79E28C5B3753326244EE65A1B1A7 DUP8 MULMOD ADD ADD PUSH32 0x15871A5CDDEAD976804C803CBAEF255EB4815A5E96DF8B006DCBBC2767F88948 ADD SWAP5 POP DUP10 DUP2 DUP3 MULMOD SWAP4 POP DUP10 DUP2 DUP12 DUP7 DUP8 MULMOD MULMOD SWAP1 POP DUP10 DUP10 DUP7 MULMOD DUP11 PUSH32 0x16ED41E13BB9C0C66AE119424FDDBCBC9314DC9FDBDEEA55D6C64543DC4903E0 DUP9 MULMOD DUP12 PUSH32 0x109B7F411BA0E4C9B2B70CAF5C36A7B194BE7C11AD24378BFEDB68592BA8118B DUP5 MULMOD ADD ADD PUSH32 0x193A56766998EE9E0A8652DD2F3B1DA0362F4F54F72379544F957CCDEEFB420F ADD SWAP4 POP DUP10 DUP9 DUP7 MULMOD DUP11 PUSH32 0x2E2419F9EC02EC394C9871C832963DC1B89D743C8C7B964029B2311687B1FE23 DUP9 MULMOD DUP12 PUSH32 0x2969F27EED31A480B9C36C764379DBCA2CC8FDD1415C3DDED62940BCDE0BD771 DUP5 MULMOD ADD ADD PUSH32 0x2A394A43934F86982F9BE56FF4FAB1703B2E63C8AD334834E4309805E777AE0F ADD SWAP3 POP DUP10 DUP8 DUP7 MULMOD DUP11 PUSH32 0x176CC029695AD02582A70EFF08A6FD99D057E12E58E7D7B6B16CDFABC8EE2911 DUP9 MULMOD DUP12 PUSH32 0x143021EC686A3F330D5F9E654638065CE6CD79E28C5B3753326244EE65A1B1A7 DUP5 MULMOD ADD ADD PUSH32 0x1859954CFEB8695F3E8B635DCB345192892CD11223443BA7B4166E8876C0D142 ADD SWAP2 POP DUP10 DUP5 DUP6 MULMOD SWAP1 POP DUP10 DUP5 DUP12 DUP4 DUP5 MULMOD MULMOD SWAP4 POP DUP10 DUP10 DUP4 MULMOD DUP11 PUSH32 0x16ED41E13BB9C0C66AE119424FDDBCBC9314DC9FDBDEEA55D6C64543DC4903E0 DUP6 MULMOD DUP12 PUSH32 0x109B7F411BA0E4C9B2B70CAF5C36A7B194BE7C11AD24378BFEDB68592BA8118B DUP8 MULMOD ADD ADD PUSH32 0x4E1181763050E58013444DBCB99F1902B11BC25D90BBDCA408D3819F4FED32B ADD SWAP1 POP DUP10 DUP9 DUP4 MULMOD DUP11 PUSH32 0x2E2419F9EC02EC394C9871C832963DC1B89D743C8C7B964029B2311687B1FE23 DUP6 MULMOD DUP12 PUSH32 0x2969F27EED31A480B9C36C764379DBCA2CC8FDD1415C3DDED62940BCDE0BD771 DUP8 MULMOD ADD ADD PUSH32 0xFDB253DEE83869D40C335EA64DE8C5BB10EB82DB08B5E8B1F5E5552BFD05F23 ADD SWAP6 POP DUP10 DUP8 DUP4 MULMOD DUP11 PUSH32 0x176CC029695AD02582A70EFF08A6FD99D057E12E58E7D7B6B16CDFABC8EE2911 DUP6 MULMOD DUP12 PUSH32 0x143021EC686A3F330D5F9E654638065CE6CD79E28C5B3753326244EE65A1B1A7 DUP8 MULMOD ADD ADD PUSH32 0x58CBE8A9A5027BDAA4EFB623ADEAD6275F08686F1C08984A9D7C5BAE9B4F1C0 ADD SWAP5 POP DUP10 DUP2 DUP3 MULMOD SWAP4 POP DUP10 DUP2 DUP12 DUP7 DUP8 MULMOD MULMOD SWAP1 POP DUP10 DUP10 DUP7 MULMOD DUP11 PUSH32 0x16ED41E13BB9C0C66AE119424FDDBCBC9314DC9FDBDEEA55D6C64543DC4903E0 DUP9 MULMOD DUP12 PUSH32 0x109B7F411BA0E4C9B2B70CAF5C36A7B194BE7C11AD24378BFEDB68592BA8118B DUP5 MULMOD ADD ADD PUSH32 0x1382EDCE9971E186497EADB1AEB1F52B23B4B83BEF023AB0D15228B4CCECA59A ADD SWAP4 POP DUP10 DUP9 DUP7 MULMOD DUP11 PUSH32 0x2E2419F9EC02EC394C9871C832963DC1B89D743C8C7B964029B2311687B1FE23 DUP9 MULMOD DUP12 PUSH32 0x2969F27EED31A480B9C36C764379DBCA2CC8FDD1415C3DDED62940BCDE0BD771 DUP5 MULMOD ADD ADD PUSH32 0x3464990F045C6EE0819CA51FD11B0BE7F61B8EB99F14B77E1E6634601D9E8B5 ADD SWAP3 POP DUP10 DUP8 DUP7 MULMOD DUP11 PUSH32 0x176CC029695AD02582A70EFF08A6FD99D057E12E58E7D7B6B16CDFABC8EE2911 DUP9 MULMOD DUP12 PUSH32 0x143021EC686A3F330D5F9E654638065CE6CD79E28C5B3753326244EE65A1B1A7 DUP5 MULMOD ADD ADD PUSH32 0x23F7BFC8720DC296FFF33B41F98FF83C6FCAB4605DB2EB5AAA5BC137AEB70A58 ADD SWAP2 POP DUP10 DUP5 DUP6 MULMOD SWAP1 POP DUP10 DUP5 DUP12 DUP4 DUP5 MULMOD MULMOD SWAP4 POP DUP10 DUP10 DUP4 MULMOD DUP11 PUSH32 0x16ED41E13BB9C0C66AE119424FDDBCBC9314DC9FDBDEEA55D6C64543DC4903E0 DUP6 MULMOD DUP12 PUSH32 0x109B7F411BA0E4C9B2B70CAF5C36A7B194BE7C11AD24378BFEDB68592BA8118B DUP8 MULMOD ADD ADD PUSH32 0xA59A158E3EEC2117E6E94E7F0E9DECF18C3FFD5E1531A9219636158BBAF62F2 ADD SWAP1 POP DUP10 DUP9 DUP4 MULMOD DUP11 PUSH32 0x2E2419F9EC02EC394C9871C832963DC1B89D743C8C7B964029B2311687B1FE23 DUP6 MULMOD DUP12 PUSH32 0x2969F27EED31A480B9C36C764379DBCA2CC8FDD1415C3DDED62940BCDE0BD771 DUP8 MULMOD ADD ADD PUSH32 0x6EC54C80381C052B58BF23B312FFD3CE2C4EBA065420AF8F4C23ED0075FD07B ADD SWAP6 POP DUP10 DUP8 DUP4 MULMOD DUP11 PUSH32 0x176CC029695AD02582A70EFF08A6FD99D057E12E58E7D7B6B16CDFABC8EE2911 DUP6 MULMOD DUP12 PUSH32 0x143021EC686A3F330D5F9E654638065CE6CD79E28C5B3753326244EE65A1B1A7 DUP8 MULMOD ADD ADD PUSH32 0x118872DC832E0EB5476B56648E867EC8B09340F7A7BCB1B4962F0FF9ED1F9D01 ADD SWAP5 POP DUP10 DUP2 DUP3 MULMOD SWAP4 POP DUP10 DUP2 DUP12 DUP7 DUP8 MULMOD MULMOD SWAP1 POP DUP10 DUP10 DUP7 MULMOD DUP11 PUSH32 0x16ED41E13BB9C0C66AE119424FDDBCBC9314DC9FDBDEEA55D6C64543DC4903E0 DUP9 MULMOD DUP12 PUSH32 0x109B7F411BA0E4C9B2B70CAF5C36A7B194BE7C11AD24378BFEDB68592BA8118B DUP5 MULMOD ADD ADD PUSH32 0x13D69FA127D834165AD5C7CBA7AD59ED52E0B0F0E42D7FEA95E1906B520921B1 ADD SWAP4 POP DUP10 DUP9 DUP7 MULMOD DUP11 PUSH32 0x2E2419F9EC02EC394C9871C832963DC1B89D743C8C7B964029B2311687B1FE23 DUP9 MULMOD DUP12 PUSH32 0x2969F27EED31A480B9C36C764379DBCA2CC8FDD1415C3DDED62940BCDE0BD771 DUP5 MULMOD ADD ADD PUSH32 0x169A177F63EA681270B1C6877A73D21BDE143942FB71DC55FD8A49F19F10C77B ADD SWAP3 POP DUP10 DUP8 DUP7 MULMOD DUP11 PUSH32 0x176CC029695AD02582A70EFF08A6FD99D057E12E58E7D7B6B16CDFABC8EE2911 DUP9 MULMOD DUP12 PUSH32 0x143021EC686A3F330D5F9E654638065CE6CD79E28C5B3753326244EE65A1B1A7 DUP5 MULMOD ADD ADD PUSH32 0x4EF51591C6EAD97EF42F287ADCE40D93ABEB032B922F66FFB7E9A5A7450544D ADD SWAP2 POP DUP10 DUP5 DUP6 MULMOD SWAP1 POP DUP10 DUP5 DUP12 DUP4 DUP5 MULMOD MULMOD SWAP4 POP DUP10 DUP10 DUP4 MULMOD DUP11 PUSH32 0x16ED41E13BB9C0C66AE119424FDDBCBC9314DC9FDBDEEA55D6C64543DC4903E0 DUP6 MULMOD DUP12 PUSH32 0x109B7F411BA0E4C9B2B70CAF5C36A7B194BE7C11AD24378BFEDB68592BA8118B DUP8 MULMOD ADD ADD PUSH32 0x256E175A1DC079390ECD7CA703FB2E3B19EC61805D4F03CED5F45EE6DD0F69EC ADD SWAP1 POP DUP10 DUP9 DUP4 MULMOD DUP11 PUSH32 0x2E2419F9EC02EC394C9871C832963DC1B89D743C8C7B964029B2311687B1FE23 DUP6 MULMOD DUP12 PUSH32 0x2969F27EED31A480B9C36C764379DBCA2CC8FDD1415C3DDED62940BCDE0BD771 DUP8 MULMOD ADD ADD PUSH32 0x30102D28636ABD5FE5F2AF412FF6004F75CC360D3205DD2DA002813D3E2CEEB2 ADD SWAP6 POP DUP10 DUP8 DUP4 MULMOD DUP11 PUSH32 0x176CC029695AD02582A70EFF08A6FD99D057E12E58E7D7B6B16CDFABC8EE2911 DUP6 MULMOD DUP12 PUSH32 0x143021EC686A3F330D5F9E654638065CE6CD79E28C5B3753326244EE65A1B1A7 DUP8 MULMOD ADD ADD PUSH32 0x10998E42DFCD3BBF1C0714BC73EB1BF40443A3FA99BEF4A31FD31BE182FCC792 ADD SWAP5 POP DUP10 DUP2 DUP3 MULMOD SWAP4 POP DUP10 DUP2 DUP12 DUP7 DUP8 MULMOD MULMOD SWAP1 POP DUP10 DUP10 DUP7 MULMOD DUP11 PUSH32 0x16ED41E13BB9C0C66AE119424FDDBCBC9314DC9FDBDEEA55D6C64543DC4903E0 DUP9 MULMOD DUP12 PUSH32 0x109B7F411BA0E4C9B2B70CAF5C36A7B194BE7C11AD24378BFEDB68592BA8118B DUP5 MULMOD ADD ADD PUSH32 0x193EDD8E9FCF3D7625FA7D24B598A1D89F3362EAF4D582EFECAD76F879E36860 ADD SWAP4 POP DUP10 DUP9 DUP7 MULMOD DUP11 PUSH32 0x2E2419F9EC02EC394C9871C832963DC1B89D743C8C7B964029B2311687B1FE23 DUP9 MULMOD DUP12 PUSH32 0x2969F27EED31A480B9C36C764379DBCA2CC8FDD1415C3DDED62940BCDE0BD771 DUP5 MULMOD ADD ADD PUSH32 0x18168AFD34F2D915D0368CE80B7B3347D1C7A561CE611425F2664D7AA51F0B5D ADD SWAP3 POP DUP10 DUP8 DUP7 MULMOD DUP11 PUSH32 0x176CC029695AD02582A70EFF08A6FD99D057E12E58E7D7B6B16CDFABC8EE2911 DUP9 MULMOD DUP12 PUSH32 0x143021EC686A3F330D5F9E654638065CE6CD79E28C5B3753326244EE65A1B1A7 DUP5 MULMOD ADD ADD PUSH32 0x29383C01EBD3B6AB0C017656EBE658B6A328EC77BC33626E29E2E95B33EA6111 ADD SWAP2 POP DUP10 DUP5 DUP6 MULMOD SWAP1 POP DUP10 DUP5 DUP12 DUP4 DUP5 MULMOD MULMOD SWAP4 POP DUP10 DUP10 DUP4 MULMOD DUP11 PUSH32 0x16ED41E13BB9C0C66AE119424FDDBCBC9314DC9FDBDEEA55D6C64543DC4903E0 DUP6 MULMOD DUP12 PUSH32 0x109B7F411BA0E4C9B2B70CAF5C36A7B194BE7C11AD24378BFEDB68592BA8118B DUP8 MULMOD ADD ADD PUSH32 0x10646D2F2603DE39A1F4AE5E7771A64A702DB6E86FB76AB600BF573F9010C711 ADD SWAP1 POP DUP10 DUP9 DUP4 MULMOD DUP11 PUSH32 0x2E2419F9EC02EC394C9871C832963DC1B89D743C8C7B964029B2311687B1FE23 DUP6 MULMOD DUP12 PUSH32 0x2969F27EED31A480B9C36C764379DBCA2CC8FDD1415C3DDED62940BCDE0BD771 DUP8 MULMOD ADD ADD PUSH32 0xBEB5E07D1B27145F575F1395A55BF132F90C25B40DA7B3864D0242DCB1117FB ADD SWAP6 POP DUP10 DUP8 DUP4 MULMOD DUP11 PUSH32 0x176CC029695AD02582A70EFF08A6FD99D057E12E58E7D7B6B16CDFABC8EE2911 DUP6 MULMOD DUP12 PUSH32 0x143021EC686A3F330D5F9E654638065CE6CD79E28C5B3753326244EE65A1B1A7 DUP8 MULMOD ADD ADD PUSH32 0x16D685252078C133DC0D3ECAD62B5C8830F95BB2E54B59ABDFFBF018D96FA336 ADD SWAP5 POP DUP10 DUP2 DUP3 MULMOD SWAP4 POP DUP10 DUP2 DUP12 DUP7 DUP8 MULMOD MULMOD SWAP1 POP DUP10 DUP10 DUP7 MULMOD DUP11 PUSH32 0x16ED41E13BB9C0C66AE119424FDDBCBC9314DC9FDBDEEA55D6C64543DC4903E0 DUP9 MULMOD DUP12 PUSH32 0x109B7F411BA0E4C9B2B70CAF5C36A7B194BE7C11AD24378BFEDB68592BA8118B DUP5 MULMOD ADD ADD PUSH32 0xA6ABD1D833938F33C74154E0404B4B40A555BBBEC21DDFAFD672DD62047F01A ADD SWAP4 POP DUP10 DUP9 DUP7 MULMOD DUP11 PUSH32 0x2E2419F9EC02EC394C9871C832963DC1B89D743C8C7B964029B2311687B1FE23 DUP9 MULMOD DUP12 PUSH32 0x2969F27EED31A480B9C36C764379DBCA2CC8FDD1415C3DDED62940BCDE0BD771 DUP5 MULMOD ADD ADD PUSH32 0x1A679F5D36EB7B5C8EA12A4C2DEDC8FEB12DFFEEC450317270A6F19B34CF1860 ADD SWAP3 POP DUP10 DUP8 DUP7 MULMOD DUP11 PUSH32 0x176CC029695AD02582A70EFF08A6FD99D057E12E58E7D7B6B16CDFABC8EE2911 DUP9 MULMOD DUP12 PUSH32 0x143021EC686A3F330D5F9E654638065CE6CD79E28C5B3753326244EE65A1B1A7 DUP5 MULMOD ADD ADD PUSH32 0x980FB233BD456C23974D50E0EBFDE4726A423EADA4E8F6FFBC7592E3F1B93D6 ADD SWAP2 POP DUP10 DUP5 DUP6 MULMOD SWAP1 POP DUP10 DUP5 DUP12 DUP4 DUP5 MULMOD MULMOD SWAP4 POP DUP10 DUP10 DUP4 MULMOD DUP11 PUSH32 0x16ED41E13BB9C0C66AE119424FDDBCBC9314DC9FDBDEEA55D6C64543DC4903E0 DUP6 MULMOD DUP12 PUSH32 0x109B7F411BA0E4C9B2B70CAF5C36A7B194BE7C11AD24378BFEDB68592BA8118B DUP8 MULMOD ADD ADD PUSH32 0x161B42232E61B84CBF1810AF93A38FC0CECE3D5628C9282003EBACB5C312C72B ADD SWAP1 POP DUP10 DUP9 DUP4 MULMOD DUP11 PUSH32 0x2E2419F9EC02EC394C9871C832963DC1B89D743C8C7B964029B2311687B1FE23 DUP6 MULMOD DUP12 PUSH32 0x2969F27EED31A480B9C36C764379DBCA2CC8FDD1415C3DDED62940BCDE0BD771 DUP8 MULMOD ADD ADD PUSH32 0xADA10A90C7F0520950F7D47A60D5E6A493F09787F1564E5D09203DB47DE1A0B ADD SWAP6 POP DUP10 DUP8 DUP4 MULMOD DUP11 PUSH32 0x176CC029695AD02582A70EFF08A6FD99D057E12E58E7D7B6B16CDFABC8EE2911 DUP6 MULMOD DUP12 PUSH32 0x143021EC686A3F330D5F9E654638065CE6CD79E28C5B3753326244EE65A1B1A7 DUP8 MULMOD ADD ADD PUSH32 0x1A730D372310BA82320345A29AC4238ED3F07A8A2B4E121BB50DDB9AF407F451 ADD SWAP5 POP DUP10 DUP2 DUP3 MULMOD SWAP4 POP DUP10 DUP2 DUP12 DUP7 DUP8 MULMOD MULMOD SWAP1 POP DUP10 DUP10 DUP7 MULMOD DUP11 PUSH32 0x16ED41E13BB9C0C66AE119424FDDBCBC9314DC9FDBDEEA55D6C64543DC4903E0 DUP9 MULMOD DUP12 PUSH32 0x109B7F411BA0E4C9B2B70CAF5C36A7B194BE7C11AD24378BFEDB68592BA8118B DUP5 MULMOD ADD ADD PUSH32 0x2C8120F268EF054F817064C369DDA7EA908377FEABA5C4DFFBDA10EF58E8C556 ADD SWAP4 POP DUP10 DUP9 DUP7 MULMOD DUP11 PUSH32 0x2E2419F9EC02EC394C9871C832963DC1B89D743C8C7B964029B2311687B1FE23 DUP9 MULMOD DUP12 PUSH32 0x2969F27EED31A480B9C36C764379DBCA2CC8FDD1415C3DDED62940BCDE0BD771 DUP5 MULMOD ADD ADD PUSH32 0x1C7C8824F758753FA57C00789C684217B930E95313BCB73E6E7B8649A4968F70 ADD SWAP3 POP DUP10 DUP8 DUP7 MULMOD DUP11 PUSH32 0x176CC029695AD02582A70EFF08A6FD99D057E12E58E7D7B6B16CDFABC8EE2911 DUP9 MULMOD DUP12 PUSH32 0x143021EC686A3F330D5F9E654638065CE6CD79E28C5B3753326244EE65A1B1A7 DUP5 MULMOD ADD ADD PUSH32 0x2CD9ED31F5F8691C8E39E4077A74FAA0F400AD8B491EB3F7B47B27FA3FD1CF77 ADD SWAP2 POP DUP10 DUP5 DUP6 MULMOD SWAP1 POP DUP10 DUP5 DUP12 DUP4 DUP5 MULMOD MULMOD SWAP4 POP DUP10 DUP10 DUP4 MULMOD DUP11 PUSH32 0x16ED41E13BB9C0C66AE119424FDDBCBC9314DC9FDBDEEA55D6C64543DC4903E0 DUP6 MULMOD DUP12 PUSH32 0x109B7F411BA0E4C9B2B70CAF5C36A7B194BE7C11AD24378BFEDB68592BA8118B DUP8 MULMOD ADD ADD PUSH32 0x23FF4F9D46813457CF60D92F57618399A5E022AC321CA550854AE23918A22EEA ADD SWAP1 POP DUP10 DUP9 DUP4 MULMOD DUP11 PUSH32 0x2E2419F9EC02EC394C9871C832963DC1B89D743C8C7B964029B2311687B1FE23 DUP6 MULMOD DUP12 PUSH32 0x2969F27EED31A480B9C36C764379DBCA2CC8FDD1415C3DDED62940BCDE0BD771 DUP8 MULMOD ADD ADD PUSH32 0x9945A5D147A4F66CEECE6405DDDD9D0AF5A2C5103529407DFF1EA58F180426D ADD SWAP6 POP DUP10 DUP8 DUP4 MULMOD DUP11 PUSH32 0x176CC029695AD02582A70EFF08A6FD99D057E12E58E7D7B6B16CDFABC8EE2911 DUP6 MULMOD DUP12 PUSH32 0x143021EC686A3F330D5F9E654638065CE6CD79E28C5B3753326244EE65A1B1A7 DUP8 MULMOD ADD ADD PUSH32 0x188D9C528025D4C2B67660C6B771B90F7C7DA6EAA29D3F268A6DD223EC6FC630 ADD SWAP5 POP DUP10 DUP2 DUP3 MULMOD SWAP4 POP DUP10 DUP2 DUP12 DUP7 DUP8 MULMOD MULMOD SWAP1 POP DUP10 DUP10 DUP7 MULMOD DUP11 PUSH32 0x16ED41E13BB9C0C66AE119424FDDBCBC9314DC9FDBDEEA55D6C64543DC4903E0 DUP9 MULMOD DUP12 PUSH32 0x109B7F411BA0E4C9B2B70CAF5C36A7B194BE7C11AD24378BFEDB68592BA8118B DUP5 MULMOD ADD ADD PUSH32 0x3050E37996596B7F81F68311431D8734DBA7D926D3633595E0C0D8DDF4F0F47F ADD SWAP4 POP DUP10 DUP9 DUP7 MULMOD DUP11 PUSH32 0x2E2419F9EC02EC394C9871C832963DC1B89D743C8C7B964029B2311687B1FE23 DUP9 MULMOD DUP12 PUSH32 0x2969F27EED31A480B9C36C764379DBCA2CC8FDD1415C3DDED62940BCDE0BD771 DUP5 MULMOD ADD ADD PUSH32 0x15AF1169396830A91600CA8102C35C426CEAE5461E3F95D89D829518D30AFD78 ADD SWAP3 POP DUP10 DUP8 DUP7 MULMOD DUP11 PUSH32 0x176CC029695AD02582A70EFF08A6FD99D057E12E58E7D7B6B16CDFABC8EE2911 DUP9 MULMOD DUP12 PUSH32 0x143021EC686A3F330D5F9E654638065CE6CD79E28C5B3753326244EE65A1B1A7 DUP5 MULMOD ADD ADD PUSH32 0x1DA6D09885432EA9A06D9F37F873D985DAE933E351466B2904284DA3320D8ACC ADD SWAP2 POP DUP10 DUP5 DUP6 MULMOD SWAP1 POP DUP10 DUP5 DUP12 DUP4 DUP5 MULMOD MULMOD SWAP4 POP DUP10 DUP10 DUP4 MULMOD DUP11 PUSH32 0x16ED41E13BB9C0C66AE119424FDDBCBC9314DC9FDBDEEA55D6C64543DC4903E0 DUP6 MULMOD DUP12 PUSH32 0x109B7F411BA0E4C9B2B70CAF5C36A7B194BE7C11AD24378BFEDB68592BA8118B DUP8 MULMOD ADD ADD PUSH32 0x2796EA90D269AF29F5F8ACF33921124E4E4FAD3DBE658945E546EE411DDAA9CB ADD SWAP1 POP DUP10 DUP9 DUP4 MULMOD DUP11 PUSH32 0x2E2419F9EC02EC394C9871C832963DC1B89D743C8C7B964029B2311687B1FE23 DUP6 MULMOD DUP12 PUSH32 0x2969F27EED31A480B9C36C764379DBCA2CC8FDD1415C3DDED62940BCDE0BD771 DUP8 MULMOD ADD ADD PUSH32 0x202D7DD1DA0F6B4B0325C8B3307742F01E15612EC8E9304A7CB0319E01D32D60 ADD SWAP6 POP DUP10 DUP8 DUP4 MULMOD DUP11 PUSH32 0x176CC029695AD02582A70EFF08A6FD99D057E12E58E7D7B6B16CDFABC8EE2911 DUP6 MULMOD DUP12 PUSH32 0x143021EC686A3F330D5F9E654638065CE6CD79E28C5B3753326244EE65A1B1A7 DUP8 MULMOD ADD ADD PUSH32 0x96D6790D05BB759156A952BA263D672A2D7F9C788F4C831A29DACE4C0F8BE5F ADD SWAP5 POP DUP10 DUP2 DUP3 MULMOD SWAP4 POP DUP10 DUP2 DUP12 DUP7 DUP8 MULMOD MULMOD SWAP1 POP DUP10 DUP10 DUP7 MULMOD DUP11 PUSH32 0x16ED41E13BB9C0C66AE119424FDDBCBC9314DC9FDBDEEA55D6C64543DC4903E0 DUP9 MULMOD DUP12 PUSH32 0x109B7F411BA0E4C9B2B70CAF5C36A7B194BE7C11AD24378BFEDB68592BA8118B DUP5 MULMOD ADD ADD PUSH32 0x54EFA1F65B0FCE283808965275D877B438DA23CE5B13E1963798CB1447D25A4 ADD SWAP4 POP DUP10 DUP9 DUP7 MULMOD DUP11 PUSH32 0x2E2419F9EC02EC394C9871C832963DC1B89D743C8C7B964029B2311687B1FE23 DUP9 MULMOD DUP12 PUSH32 0x2969F27EED31A480B9C36C764379DBCA2CC8FDD1415C3DDED62940BCDE0BD771 DUP5 MULMOD ADD ADD PUSH32 0x1B162F83D917E93EDB3308C29802DEB9D8AA690113B2E14864CCF6E18E4165F1 ADD SWAP3 POP DUP10 DUP8 DUP7 MULMOD DUP11 PUSH32 0x176CC029695AD02582A70EFF08A6FD99D057E12E58E7D7B6B16CDFABC8EE2911 DUP9 MULMOD DUP12 PUSH32 0x143021EC686A3F330D5F9E654638065CE6CD79E28C5B3753326244EE65A1B1A7 DUP5 MULMOD ADD ADD PUSH32 0x21E5241E12564DD6FD9F1CDD2A0DE39EEDFEFC1466CC568EC5CEB745A0506EDC ADD SWAP2 POP DUP10 DUP5 DUP6 MULMOD SWAP1 POP DUP10 DUP5 DUP12 DUP4 DUP5 MULMOD MULMOD SWAP4 POP DUP10 DUP4 DUP5 MULMOD SWAP1 POP DUP10 DUP4 DUP12 DUP4 DUP5 MULMOD MULMOD SWAP3 POP DUP10 DUP3 DUP4 MULMOD SWAP1 POP DUP10 DUP3 DUP12 DUP4 DUP5 MULMOD MULMOD SWAP2 POP DUP10 DUP10 DUP4 MULMOD DUP11 PUSH32 0x16ED41E13BB9C0C66AE119424FDDBCBC9314DC9FDBDEEA55D6C64543DC4903E0 DUP6 MULMOD DUP12 PUSH32 0x109B7F411BA0E4C9B2B70CAF5C36A7B194BE7C11AD24378BFEDB68592BA8118B DUP8 MULMOD ADD ADD PUSH32 0x1CFB5662E8CF5AC9226A80EE17B36ABECB73AB5F87E161927B4349E10E4BDF08 ADD SWAP1 POP DUP10 DUP9 DUP4 MULMOD DUP11 PUSH32 0x2E2419F9EC02EC394C9871C832963DC1B89D743C8C7B964029B2311687B1FE23 DUP6 MULMOD DUP12 PUSH32 0x2969F27EED31A480B9C36C764379DBCA2CC8FDD1415C3DDED62940BCDE0BD771 DUP8 MULMOD ADD ADD PUSH32 0xF21177E302A771BBAE6D8D1ECB373B62C99AF346220AC0129C53F666EB24100 ADD SWAP6 POP DUP10 DUP8 DUP4 MULMOD DUP11 PUSH32 0x176CC029695AD02582A70EFF08A6FD99D057E12E58E7D7B6B16CDFABC8EE2911 DUP6 MULMOD DUP12 PUSH32 0x143021EC686A3F330D5F9E654638065CE6CD79E28C5B3753326244EE65A1B1A7 DUP8 MULMOD ADD ADD PUSH32 0x1671522374606992AFFB0DD7F71B12BEC4236AEDE6290546BCEF7E1F515C2320 ADD SWAP5 POP DUP10 DUP2 DUP3 MULMOD SWAP4 POP DUP10 DUP2 DUP12 DUP7 DUP8 MULMOD MULMOD SWAP1 POP DUP10 DUP7 DUP8 MULMOD SWAP4 POP DUP10 DUP7 DUP12 DUP7 DUP8 MULMOD MULMOD SWAP6 POP DUP10 DUP6 DUP7 MULMOD SWAP4 POP DUP10 DUP6 DUP12 DUP7 DUP8 MULMOD MULMOD SWAP5 POP DUP10 DUP10 DUP7 MULMOD DUP11 PUSH32 0x16ED41E13BB9C0C66AE119424FDDBCBC9314DC9FDBDEEA55D6C64543DC4903E0 DUP9 MULMOD DUP12 PUSH32 0x109B7F411BA0E4C9B2B70CAF5C36A7B194BE7C11AD24378BFEDB68592BA8118B DUP5 MULMOD ADD ADD PUSH32 0xFA3EC5B9488259C2EB4CF24501BFAD9BE2EC9E42C5CC8CCD419D2A692CAD870 ADD SWAP4 POP DUP10 DUP9 DUP7 MULMOD DUP11 PUSH32 0x2E2419F9EC02EC394C9871C832963DC1B89D743C8C7B964029B2311687B1FE23 DUP9 MULMOD DUP12 PUSH32 0x2969F27EED31A480B9C36C764379DBCA2CC8FDD1415C3DDED62940BCDE0BD771 DUP5 MULMOD ADD ADD PUSH32 0x193C0E04E0BD298357CB266C1506080ED36EDCE85C648CC085E8C57B1AB54BBA ADD SWAP3 POP DUP10 DUP8 DUP7 MULMOD DUP11 PUSH32 0x176CC029695AD02582A70EFF08A6FD99D057E12E58E7D7B6B16CDFABC8EE2911 DUP9 MULMOD DUP12 PUSH32 0x143021EC686A3F330D5F9E654638065CE6CD79E28C5B3753326244EE65A1B1A7 DUP5 MULMOD ADD ADD PUSH32 0x102ADF8EF74735A27E9128306DCBC3C99F6F7291CD406578CE14EA2ADABA68F8 ADD SWAP2 POP DUP10 DUP5 DUP6 MULMOD SWAP1 POP DUP10 DUP5 DUP12 DUP4 DUP5 MULMOD MULMOD SWAP4 POP DUP10 DUP4 DUP5 MULMOD SWAP1 POP DUP10 DUP4 DUP12 DUP4 DUP5 MULMOD MULMOD SWAP3 POP DUP10 DUP3 DUP4 MULMOD SWAP1 POP DUP10 DUP3 DUP12 DUP4 DUP5 MULMOD MULMOD SWAP2 POP DUP10 DUP10 DUP4 MULMOD DUP11 PUSH32 0x16ED41E13BB9C0C66AE119424FDDBCBC9314DC9FDBDEEA55D6C64543DC4903E0 DUP6 MULMOD DUP12 PUSH32 0x109B7F411BA0E4C9B2B70CAF5C36A7B194BE7C11AD24378BFEDB68592BA8118B DUP8 MULMOD ADD ADD PUSH32 0xFE0AF7858E49859E2A54D6F1AD945B1316AA24BFBDD23AE40A6D0CB70C3EAB1 ADD SWAP1 POP DUP10 DUP9 DUP4 MULMOD DUP11 PUSH32 0x2E2419F9EC02EC394C9871C832963DC1B89D743C8C7B964029B2311687B1FE23 DUP6 MULMOD DUP12 PUSH32 0x2969F27EED31A480B9C36C764379DBCA2CC8FDD1415C3DDED62940BCDE0BD771 DUP8 MULMOD ADD ADD PUSH32 0x216F6717BBC7DEDB08536A2220843F4E2DA5F1DAA9EBDEFDE8A5EA7344798D22 ADD SWAP6 POP DUP10 DUP8 DUP4 MULMOD DUP11 PUSH32 0x176CC029695AD02582A70EFF08A6FD99D057E12E58E7D7B6B16CDFABC8EE2911 DUP6 MULMOD DUP12 PUSH32 0x143021EC686A3F330D5F9E654638065CE6CD79E28C5B3753326244EE65A1B1A7 DUP8 MULMOD ADD ADD PUSH32 0x1DA55CC900F0D21F4A3E694391918A1B3C23B2AC773C6B3EF88E2E4228325161 ADD SWAP5 POP DUP10 DUP2 DUP3 MULMOD SWAP4 POP DUP10 DUP2 DUP12 DUP7 DUP8 MULMOD MULMOD SWAP1 POP DUP10 DUP7 DUP8 MULMOD SWAP4 POP DUP10 DUP7 DUP12 DUP7 DUP8 MULMOD MULMOD SWAP6 POP DUP10 DUP6 DUP7 MULMOD SWAP4 POP DUP10 DUP6 DUP12 DUP7 DUP8 MULMOD MULMOD SWAP5 POP DUP10 DUP11 DUP11 DUP8 MULMOD DUP12 PUSH32 0x16ED41E13BB9C0C66AE119424FDDBCBC9314DC9FDBDEEA55D6C64543DC4903E0 DUP10 MULMOD DUP13 PUSH32 0x109B7F411BA0E4C9B2B70CAF5C36A7B194BE7C11AD24378BFEDB68592BA8118B DUP6 MULMOD ADD ADD MOD PUSH1 0x0 MSTORE PUSH1 0x20 PUSH1 0x0 RETURN JUMPDEST PUSH1 0x0 PUSH1 0x40 MLOAD SWAP1 POP SWAP1 JUMP JUMPDEST PUSH1 0x0 DUP1 REVERT JUMPDEST PUSH1 0x0 DUP1 REVERT JUMPDEST PUSH1 0x0 PUSH1 0x1F NOT PUSH1 0x1F DUP4 ADD AND SWAP1 POP SWAP2 SWAP1 POP JUMP JUMPDEST PUSH32 0x4E487B7100000000000000000000000000000000000000000000000000000000 PUSH1 0x0 MSTORE PUSH1 0x41 PUSH1 0x4 MSTORE PUSH1 0x24 PUSH1 0x0 REVERT JUMPDEST PUSH2 0x5C0C DUP3 PUSH2 0x5BC3 JUMP JUMPDEST DUP2 ADD DUP2 DUP2 LT PUSH8 0xFFFFFFFFFFFFFFFF DUP3 GT OR ISZERO PUSH2 0x5C2B JUMPI PUSH2 0x5C2A PUSH2 0x5BD4 JUMP JUMPDEST JUMPDEST DUP1 PUSH1 0x40 MSTORE POP POP POP JUMP JUMPDEST PUSH1 0x0 PUSH2 0x5C3E PUSH2 0x5BAF JUMP JUMPDEST SWAP1 POP PUSH2 0x5C4A DUP3 DUP3 PUSH2 0x5C03 JUMP JUMPDEST SWAP2 SWAP1 POP JUMP JUMPDEST PUSH1 0x0 PUSH8 0xFFFFFFFFFFFFFFFF DUP3 GT ISZERO PUSH2 0x5C6A JUMPI PUSH2 0x5C69 PUSH2 0x5BD4 JUMP JUMPDEST JUMPDEST PUSH1 0x20 DUP3 MUL SWAP1 POP SWAP2 SWAP1 POP JUMP JUMPDEST PUSH1 0x0 DUP1 REVERT JUMPDEST PUSH1 0x0 DUP2 SWAP1 POP SWAP2 SWAP1 POP JUMP JUMPDEST PUSH2 0x5C8D DUP2 PUSH2 0x5C7A JUMP JUMPDEST DUP2 EQ PUSH2 0x5C98 JUMPI PUSH1 0x0 DUP1 REVERT JUMPDEST POP JUMP JUMPDEST PUSH1 0x0 DUP2 CALLDATALOAD SWAP1 POP PUSH2 0x5CAA DUP2 PUSH2 0x5C84 JUMP JUMPDEST SWAP3 SWAP2 POP POP JUMP JUMPDEST PUSH1 0x0 PUSH2 0x5CC3 PUSH2 0x5CBE DUP5 PUSH2 0x5C4F JUMP JUMPDEST PUSH2 0x5C34 JUMP JUMPDEST SWAP1 POP DUP1 PUSH1 0x20 DUP5 MUL DUP4 ADD DUP6 DUP2 GT ISZERO PUSH2 0x5CDD JUMPI PUSH2 0x5CDC PUSH2 0x5C75 JUMP JUMPDEST JUMPDEST DUP4 JUMPDEST DUP2 DUP2 LT ISZERO PUSH2 0x5D06 JUMPI DUP1 PUSH2 0x5CF2 DUP9 DUP3 PUSH2 0x5C9B JUMP JUMPDEST DUP5 MSTORE PUSH1 0x20 DUP5 ADD SWAP4 POP POP PUSH1 0x20 DUP2 ADD SWAP1 POP PUSH2 0x5CDF JUMP JUMPDEST POP POP POP SWAP4 SWAP3 POP POP POP JUMP JUMPDEST PUSH1 0x0 DUP3 PUSH1 0x1F DUP4 ADD SLT PUSH2 0x5D25 JUMPI PUSH2 0x5D24 PUSH2 0x5BBE JUMP JUMPDEST JUMPDEST PUSH1 0x2 PUSH2 0x5D32 DUP5 DUP3 DUP6 PUSH2 0x5CB0 JUMP JUMPDEST SWAP2 POP POP SWAP3 SWAP2 POP POP JUMP JUMPDEST PUSH1 0x0 PUSH1 0x40 DUP3 DUP5 SUB SLT ISZERO PUSH2 0x5D51 JUMPI PUSH2 0x5D50 PUSH2 0x5BB9 JUMP JUMPDEST JUMPDEST PUSH1 0x0 PUSH2 0x5D5F DUP5 DUP3 DUP6 ADD PUSH2 0x5D10 JUMP JUMPDEST SWAP2 POP POP SWAP3 SWAP2 POP POP JUMP JUMPDEST PUSH2 0x5D71 DUP2 PUSH2 0x5C7A JUMP JUMPDEST DUP3 MSTORE POP POP JUMP JUMPDEST PUSH1 0x0 PUSH1 0x20 DUP3 ADD SWAP1 POP PUSH2 0x5D8C PUSH1 0x0 DUP4 ADD DUP5 PUSH2 0x5D68 JUMP JUMPDEST SWAP3 SWAP2 POP POP JUMP INVALID LOG2 PUSH5 0x6970667358 0x22 SLT KECCAK256 0xB4 0xA6 CALLDATASIZE 0xCE EXP RETURNDATACOPY PUSH10 0xFC028CAEA95D5216BC0E DIV CALLVALUE 0xDA PUSH0 SGT 0xC TLOAD SWAP6 0xB0 MOD 0xAC CALL 0xCA LOG3 SWAP11 PUSH5 0x736F6C6343 STOP ADDMOD BYTE STOP CALLER "
				},
				"gasEstimates": {
					"creation": {
						"codeDepositCost": "4801600",
						"executionCost": "5683",
						"totalCost": "4807283"
					},
					"external": {
						"hash(uint256[2])": "infinite"
					}
				},
				"methodIdentifiers": {
					"hash(uint256[2])": "561558fe"
				}
			},
			"storageLayout": {
				"storage": [],
				"types": null
			},
			"userdoc": {
				"kind": "user",
				"methods": {},
				"version": 1
			}
		}
	}
}