{
	"data": {
		"bytecode": {
			"linkReferences": {},
			"object": "6080604052604051806101800160405280604051806101c001604052807f013ef7196e97358e510c577b797bf6e3cd39a2c16b548d73bbe8f1b33c146fe581526020017f2405be5fc409b9bbe849cefa4670e2f2a885a05297a5bd61bbd1cda937472ec481526020017f0196c02e6d88030071206cdef1ec0d569b136b27d825a0ab9eb951820c93e5f681526020017f184175828d0d3652055c9bcca5d8cdf7e8fc2360647fe9cad0ed421955561f8c81526020017f2440ec222e2a1583c4dcde1937422ac002663b9648aa13bf91085826c7d29c0a81526020017f2358e1db3e0934ca48af49ee922c8a08e9525d6d4ab69538fda8cab11930322b81526020017f2a64fab9ec8500bf84dd3f79acdca3957477df7575323969ad5f43d12ca58b0381526020017f2084d6b65d520a69aec4f77119ba07aa4ba30844716b3a3bc851d69b50a8995781526020017f0b4bfd4e46ca962ce47287d8a6fcaac3de05dca8f56e676868a2cf9555fcfb5e81526020017f0390a10dd59148d792af91ba00d8634cef3edeb0e31c9de0e77da89432bfa9f781526020017f237015692fac4c78242204d6a991ff50ed1e999db38fa500932386aa9f8c69d781526020017f0f444648f9e0d2ea670e01e9aebfb2e99b7a7948f45402932084f424d5eec47181526020017f0b22f938508e2f9a1744f12d4cf18ea556c18aa543b2c40e9e95db3bd8fb711d81526020017f0b645ecebab2fd4a623a41a5830884d1cb3e596a8618960d0760e74de4ffcc2f8152508152602001604051806101c001604052807f0f4f987b1efdb56995efffd0b1b25eb3deebc1e06b38fd443ce1cb22fed3842681526020017f11e1a3e4ed0a9bd9dca060de44d12105ba8b5f89ef20dfa230eeb2a9fdce46ab81526020017f165d0638a737d6260b25608ae97698ef687aec5ab964d5d022ee37c7456dcb5781526020017f2287e284e930bf3c0618fb4af91a5774581579aa7051f96cb26afb844030c64681526020017f2b4613e8c07ef908a6adee2289eb6542814edf0cfdaf1b8d5610c5161913f5ff81526020017f0543e4cf7447121dd4c27d03a5a84733cc1eb51f9eacdfcc90005084b5e6d05981526020017f07e509c557d49250507bd434a77a23c92e4f6bffcbd541eeefd420b56cebe14681526020017f06b105f855e8a78ca522d71decae7cd39434a3d6872afe8aeb9b95140d14369b81526020017f18345c1764032ce292bf4c322d9b4ada01d197b0c029a6d56d3554d3575b9f4d81526020017f24506814b04e3ca0efd80b32ee03488fbafc4c4c2d9ef41f265fce3839a8cd4e81526020017f2da0fa88b6c7e6562539ea8717df39728b881def91795d75939d28948b6c2ba881526020017f022924f05a80eb024c3256ed1e7ee1356e07fa6f61597231ffb48a69a1b1e8e681526020017f2942e03f3396f75a58c3ab94abb01638e68b33232a00f1251d7cc69200bdfe3381526020017f144d0ff502082eda66045a529b01baf5368fb7cc1bf393b389b8ddb4209fc8ac8152508152602001604051806101c001604052807f1105fd4c15b8a58d7b97e20859463291dd46b582db02245e446bf439c7bbe8fe81526020017f1105cc789a725b7fec51c250d61a28b879670a441f6c3b517ace3ab51df7d53981526020017f130642d65fa756a54c5e1ceabd2c06d86b14d2ed7430e0e196268d295df6c76a81526020017f2206b6806756f52165d90c6d231b42f92c881f8bd777b05f8c44faf1555a8ca781526020017f0297b2b6bd8bbe44425c3eeecb10a403170c8b30fb3b82ddab710282ead16c8381526020017e4f23062ceb024a83e0ce73b6d6010a1aa93e268b487743d026d297ce0547ef81526020017f01c911561e000e67e8ab0f6723d51d1f5dec89542a2cda2dbe380783e03f276f81526020017f2acef5974f8e14cb7bddc41daa6f53580dd42a9df7017d01d2ca4b8f702600dd81526020017f14e87f2e58f15efda3cc2d3e9f83bbcfcdeb4974a54e5c55777011f9b792e9d881526020017f2a83478814788be4717b525824bb1ed69f4598d7b977590234806b68715a320981526020017f29bf95777f03da3719c1576cc963aa131ff8a8c7e7d7571bd6f499f6d02b3e4c81526020017f062e1a45181ed3c3c1bec6e2ad2f36468ff233142af4af31325cdfa1f2dd423e81526020017f27d2fc3c724c259029cd00dfcdee2dbfc356b420922ae33ceac7e8053cc71c2481526020017f1942605fda94bf8b67ce81303e3594a3ae946b7b129412c4979577d0b7cfe31b8152508152602001604051806101c001604052807f146fb822d3cb83ffdc1b4db22d6f94937a2424885d6d7039b56e54391e84535d81526020017f05aa08eda3c5c049dc1a5915df0c2b67c3619da9650af2bd09e7b2617d80412081526020017f02e455f0d4bda17e5d934aa338f0310c74550e1f8da686e30dc1560cb77bb4b481526020017f28618b94685412e5b97988cc831b8b4aeb3b545a8c8f8fb1fcf34ebe36cce92181526020017f0cae392659f88489291a63eef467d5e0bd7c42320216762705adcb574fa43a2681526020017f1bbd80d93947826138ab9feec5dbe6e3a5bb3f5e3d814bd53e72d211cc884fb981526020017f277d11d2b31a0054843d07c876991ec302c34cf7f493bd1db86b6e3ef73a4cea81526020017f1bae8bd1e005ad0ba9e4359677c814fe054041b10361ce387a7356281ca5f13781526020017f01918458b77ddc49e149dd542b09dde77a473f9c0af990678e4b6421b89746d681526020017f2cc7dbe4f27e8b13baaa5dfaa61f221b6d841787e41dc4b484e12e54b444200881526020017f13a01b8d34c04dbdfd35e59960387931050b32d0a17f05eb3dfd0a494e5f31bc81526020017f156db3b3ca7c27276bead97a9643b6a12666de3004c1478fee65d8fa04374ee281526020017f19846331d71e7b7512afbbde8d9fc48a75f86dd30e7ddc34e30b6e9fecdaea2e81526020017f0fbc61a5f6b54b4372627c40e3a9dbca5607c92614a0fb7405a30418698dcdf88152508152602001604051806101c001604052807f1bc1cdf66a14f07180056d51b17e14fdb0587dd43cb34be6716b1e252adb1cfa81526020017f2f1bd8c1d7195efb5bd5652c60cb5665222103196ec5fd17260f24147a5246d181526020017f1dbb2e3df7ee585ad22503c13ddcc0c89de2de8e99256ddc68cf582d79e038f781526020017f18bff4b4441669229b6cc7aadb911025f8eab818235854fc7f5f9ffb7ea5544981526020017f0f86bde52a992c0d79ef3627e1b8b59173f58d06a3afecff95f8f4fff637cf2281526020017f1fc41a0bb009782293fbec9b6eba20e2b8c663aa15a16abc6eed9d69e930861781526020017f2d0488f4ebe5a068b01133b98ebb80d78963f244b3aa8068ba6c80718b65d7c781526020017f19d4dcbc64b1fcc9dcf3db4c6ca7cef9900698f8bb6557ade9e5cf367beeb68881526020017f2feef8108cc2379d73513a82eea70cd81a181c2e33ca89d0330ca838745d668181526020017f036febce371368756a43cd14d3a6af46d362a5c35e72804e6fe78b527104045f81526020017f151ee45f65557c9fccff218169be14dc1b78cc4a90d3b0b9d506e5ec6d495b8481526020017f3023eec5f70baff57dd0415700fd8b546f2637b0cad1cd2b1df1741021425a8081526020017f07ad80c2f6f58260557ed72bbb230c6d289d83441306a803aabf029af042e59e81526020017f304f0fe42620f00d880b9f1a56f71db31c431fe3be02c54c665efe9d8771c5918152508152602001604051806101c001604052807f0f2001b0e2808cbe9fbe1ccdb7ed5af2c802913d179c5e1f5a220404b5d0d08681526020017f19e1e5b8bd9467181560627b0129b48bbca4d2a563ce06dba1396a8cd096d56981526020017f11fbeb4a7fcca72609e8e1afe73a7782b5110b95515c16ad922b02fcc9a674dd81526020017f05e9cb5667c5dcbe735ffbf57e7476411903f06314f24a60a24c3889df82298f81526020017f1ef7fd3c775a80711f137928f1ac39bbbb01a89943bc5c43739ec9173fe027f281526020017f14d7a93d5f26077e0a6eaaa4bd738bae57ff22aadf8a8473943b6f644f69725681526020017f14d5f3ffccf62b2b26972a6d7dfcb776332b20433ddbb4f9a828e40f7b4d32af81526020017f0b684a19560776462c22d8791f3e97bcfac812fa12ee8703030ff95c4bf2751881526020017f0d1eaf5b352c9588c6c20031067dd28a5a363b4aeedbb4aeed3aa978dbc8fddc81526020017f0e882683cb6b0d55e194c3d5708b62be8b91a9941142587ede47096e204c9faa81526020017f2651be7344e6be5368f137de2166acaeda517815aec590822b47f98f577858b581526020017f2d4172fa3f220bdd4d4b3d69455897b30a51f27586a9b369a9536c51d00093db81526020017f1a4c7436cd7c282eaf249163b2a726daa3fb2737e38da00f615a495036eee15081526020017f052f661471df979be9aead5b150e64f05734858cebf8abdd31500ebe9daf50598152508152602001604051806101c001604052807f23dd6bf92585d187ac2d4671cf13f94d985feb5b3719c40ab35592d2f647cb6581526020017f1fb85ef6f9fdc6083995ff6aad9ae22a98752a601abaf3d534cf980df6f795c981526020017f036e63661c990ad12eb950cd2e0584372457358ac5cc984ce91a87677c1672f681526020017f0c49edf60dbc9d2851dcc8c716e0c6d45d3497aa997c6eb957466cae69c0148e81526020017f215972553fb8fff61a3121aafee6a99b3b8357e1f28bbd0239a4f4465edf9e6281526020017f269241a97474c2eb2646670ae0caa1c92101a39b35992b7ec79e256ab1d32b0981526020017f22158165e2541a0a6527743827c084bc86de22b85ecfb896314ade24b266dcbc81526020017f0f46fdfd54e79b00e309b8dc467108870e7d88f634094b67a8cc39d8a0137d6381526020017f0729f76399befc2699e621290467ead8869b064300743ff00e5d8f29c1f4e10581526020017f15757e58bc3916c6838d401b015d3cb65334be4194b9a1b023db43def60463aa81526020017f0872d1decba9a9852e202eba96f8a1ab09c7db0fd986416415785e24f49917fc81526020017f1b044e4cdf43015374e1b202cfd5b7b1bc24c8000b03eb6ea6b47e27f798b4e181526020017f24719f2ee741477db930f10849677e3744c9a7bcd40725d59147122ae3c86ada81526020017f229383e070bf106140ea30a9f70bae89db9e249f47d7fc7298645e78d35d74b28152508152602001604051806101c001604052807f11c60f8708f714a35e9802644cf964dea7b833fca39c3222b8a41d69192b8ca581526020017f1e6227bddd81fd0e8f005549131313a938f2719603381817aa49d400a124a21f81526020017f0cac8a3d12db8c062984c3e0d60334aac8ebfa38427efe8b38b38d158aa677e681526020017f03273f6efecfc1cffb2e907fe7c96167b1ae08343f80a3aabbf770692ca8b5bf81526020017f101dbc5349e77ef96db2867138a099319784843d19ccd6671d156d33ca3d6ebc81526020017f218e0b68e696c429bd606de3a19b9ad4d9ebb49d46bb147071231ec5f65deba581526020017f0bf75f2284152eb39be5ed8fef968d1c3efc61ac1844cff901e2b78bc86e08c381526020017f250b05198a4e6d784d61b2aaea5a8c43e30e6d13163c6e3bd2d5d7a57f6a1c0181526020017f01dded98e05eea4b37305cd85f82652eeeff6b96b58425b45ce75ee38f86d20381526020017f1b3ed770919c526c1f28d432c5d325d48595eb2ec421336d6e664f40825776ef81526020017f2b0aba4b8ab317a7b430445baecf7f5987ced258efa0830622603934779d42d881526020017f0e6605839b92f86559928b0e5e58bd17ff393fc53dc2d5e6f3afe06b0d9072f081526020017f1220668f0b98e6bce306615f834b9675d2b55e943e11390044d0a4759b07a0c381526020017f11b84e82e20896a8e9147881f50da4e0f416841c54082d02b737a3a3a58409868152508152602001604051806101c001604052807f1c55d668f0fa8615d358a8e6ea0f77032084bd9731a10b3718ee42b6fdaefbe581526020017f0ac3e311875aa40fd753aad1507d6cb4e38d42ef65feb48ff137f1b21b461d0581526020017f28763f6f0d6b8fa547ae8369793636b291ee8750cc430cefe97bfd4baac96d2d81526020017f187b4a7cf2d4e3ffe2b0f9809d298b06821f9ef6731e24636d9a0f28794eeb8f81526020017f1422e102170d9718b1a52839ffe6b9c5d14a607c7ecbbef752de37ee5765166181526020017f14dfcf6fc14826c0fad5d5e96863a1ddeb61714b2980876766aa04484ccab2de81526020017f13de803188ad0eb01bd75707816728e4edd0889f66729cd6dd74f9c435193cba81526020017f03d0608a4af4381d7e8e55699bc86bbe7129ecc48139da64f482e369f724693381526020017f28efbf3fd955c09ee8a42f4bff0291c4ba84c475e56f1216e86cf2294c3d2c2f81526020017e4090e425df767152b89824be03c885a47d8dc4b8fb81dcd925c8ed2d104d4681526020017f23301a53fc52d7c64110826687c60087a060ddefd664e271e51dadd4fc906f6c81526020017f14b975b5a7edb7c1ff9d0a8bec341b8aa4f9a3010a84bf31be02c8b6a96de1c681526020017f0ae235220e7846e32c05a51710e86eb7a2003ecb46e14729a689c5143e3cc74281526020017f13a399d18336d73804247f99d7ca7b73ae52c795d0528dcf88424ec64cd05a408152508152602001604051806101c001604052807f177bd0aa638195181175a48f43dad85a5c8d2f01c8a86df160f6470b2196a6dd81526020017f1985d0e08910848c0ce0098a576cdb62d47c81e0feeb5e9283524c2fcfe1670381526020017f2ad1d5cd62c1e648c9a0e4bb7896a75c987f3a8bb8c35afb58145d9783225f9b81526020017e1c10259a73e31d020da03a89bcc36653383cfec8b42dbe1761aae9d0794b0281526020017f208a1cefd7f049abe5fe7f9e28181972b19e0c990235987e4c61af8e99897e8881526020017f2468be9041a6e586e2b38f770ffd557f8d69bd6178885d69d5ebfb3d61a97f2d81526020017f2ab4da8a56c29e6a298095d65b8d76fbf2eac0ce37ff65f026e9823a990f1f0081526020017f0862c458efe128fd0acb55a0d916fd18758c55de4421fb967620912c8a11370181526020017f13e27e5a7e766681d5e2803c7c9266a192dfb655fc5789be2b2cbfd86bc60f0a81526020017f066877adf78ef454dceb57055e6be1d9f5103ca0cf1f9c6032c0c6c1ed806bc781526020017f0f7dd0841e4174177419f1d9dfa7fb25b755a1568fd55dc62c16d6224e4477ed81526020017f0e8b506cbe28b71bbaf916e54990f3e1a61e3e34acb17084162ef7a15092404e81526020017f285b2d4c2b36020176cbe6f1b9cdf31f8d0fdf99c9a25505a15a860fd261600981526020017f2d8c936ef9b48c5d75fb413b7cac72cff186ab0f4cb9dfa9197dba85fef597388152508152602001604051806101c001604052807f0f4c67f52343b883391b284231b1ab9f514b667923d2efe404c79ebb142a7fc181526020017f2c8dd21aa0556db4187df9dbccfe619a938d4d6971ab20c8fb8499ff18f9b39381526020017f19cf5f8d82ef2fd726d4e61bfd25974d08a1d18f7940199b8ab90d7b9a56da2c81526020017f24803334cd560fc2ce2976b89a87d17ace733b3e70f773d169383635d9ab9c6681526020017f28a711d0889b002aa16bfd36ba33e294f44ac058a3b4a1e98cf2d0ea9ef3db3081526020017f12c90064eb460c56b0a0cab9a5e72acf3d85ba15017e0348a9d6a88db8e838d681526020017f07491a578400d71cf7f42b0bd2a1178b243a88a8c11c98e0de05d959b393eeb981526020017f1906102ab9146ea3953f8110734966b84ff8689ee9f44caf0d1b6b96bdad350781526020017f15a9dd087e3877b0bc59a6af17b72b6476a73de3f54fbfa2d43a2e76e4f1d0ba81526020017f10098ce1b8f6abdb6dcac4faf8eb9963a97ad0720a67e75835eaaab0a4d25f3b81526020017f30374184c976db1e962f5646efacf55116cfc3ef1bf2d13969407f94ada6384181526020017f06528f7a7e9e73b458fc680b8c59621d2da946c34455c8cb80ec70d77c01857181526020017f09ab55a91a7063b85c45a4308bce56e874aa3977ee6921d6f3541a3c92d9e2e581526020017f300718e2d685750add78894c11638ba2d2fd7954d11cd5b5c8aa0f7cd38766ca8152508152602001604051806101c001604052807f072d5adc75e4da51b8f796fc45a234d2f8ca4ca8708e0cd54174e9f63aff648681526020017f2fea19288315b9162b4b9947f38aa430d8cd885ed56b4bde5ce9c2714af7c30581526020017f026d3be9e7f7f9092b632bba1165848d93bf6f2f1bf756d1dc42879a72e47af081526020017f0bca1235cef12479afd16ddcc8dbb4ecf1aa1e589f13141509804a38a345297581526020017f092b3130bdb7f9be5f33d3ac5fdac9ac2d853deee532b4c93f3585022255686881526020017f0f8c32d7b52be36eefe7d264d66b3ee4c59255f16f9e239b46959dd40b4623cc81526020017f0b96504f8b767e15046db623894abede0fcd6437af458769b4f49eb493a37fcb81526020017f0bad1845ad553f1d7fecd0d97d73010d8fe475f3dea683e8eca65623d065353781526020017f11ede2d36debc21a2bd22d22400cb8b1cd14e846d5b6a273068f6137a600554581526020017f0a62374f4d0b8800bf6848c777d1259704de995e1469633e57a65e196e0070f081526020017f1ee504d746aa3bdafb86361d8f09d3a5509869996fe13bdad29f8fbd357f5ffd81526020017f1ff336222321debd2161b0b1dbb66ddf92fd56050f82e244315b57af052e26c081526020017f14fb8fd0381cc9122e8d11e02ff39bd9f2168fad1e9bff2c858c97fe6759e5ca81526020017e80ddd094a23483e51116d6aed63f579212f84448aa3ed4ed57ace80af12935815250815250600090600c6119be9291906119d1565b503480156119cb57600080fd5b50611ab6565b82600c600e028101928215611a11579160200282015b82811115611a105782518290600e611a00929190611a22565b50916020019190600e01906119e7565b5b509050611a1e9190611a62565b5090565b82600e8101928215611a51579160200282015b82811115611a50578251825591602001919060010190611a35565b5b509050611a5e9190611a86565b5090565b5b80821115611a825760008181611a799190611aa3565b50600e01611a63565b5090565b5b80821115611a9f576000816000905550600101611a87565b5090565b5080600e0190611ab39190611a86565b50565b6106e280611ac56000396000f3fe608060405234801561001057600080fd5b506004361061002b5760003560e01c8063a23f019914610030575b600080fd5b61004a60048036038101906100459190610566565b610060565b60405161005791906105ff565b60405180910390f35b60008060006001846100729190610649565b600c81106100835761008261067d565b5b600e0201600e806020026040519081016040528092919082600e80156100be576020028201915b8154815260200190600101908083116100aa575b5050505050905061045c565b7f30644e72e131a029b85045b68181585d2833e84879b9709143e1f593f000000181106100fb576000805260206000f35b50565b600060405183815284602082015285604082015260408160608360076107d05a03fa915081610131576000805260206000f35b825160408201526020830151606082015260408360808360066107d05a03fa915081610161576000805260206000f35b505050505050565b600060808601600087016080890151815260a0890151602082015261019c600088013560e08b015160c08c0151846100fe565b6101b660208801356101208b01516101008c0151846100fe565b6101d060408801356101608b01516101408c0151846100fe565b6101ea60608801356101a08b01516101808c0151846100fe565b833582527f30644e72e131a029b85045b68181585d97816a916871ca8d3c208c16d87cfd4760208501357f30644e72e131a029b85045b68181585d97816a916871ca8d3c208c16d87cfd4703066020830152843560408301526020850135606083015260408501356080830152606085013560a08301527f2d4d9aa7e302d9df41749d5507949d05dbea33fbb16c643b22f599a2be6df2e260c08301527f14bedd503c37ceb061d8ec60209fe345ce89830a19230301f076caff004d192660e08301527f0967032fcbf776d1afc985f88877f182d38480a653f2decaa9794cbc3bf3060c6101008301527f0e187847ad4c798374d0d6732bf501847dd68bc0e071241e0213bc7fc13db7ab6101208301527f304cfbd1e08a704a99f5e847d93f8c3caafddec46b7a0d379da69a4d112346a76101408301527f1739c1b1a457a8c7313123d24d2f9192f896b7c63eea05a9d57f06547ad0cec8610160830152600088015161018083015260206000018801516101a08301527f198e9393920d483a7260bfb731fb5d25f1aa493335a9e71297e485b7aef312c26101c08301527f1800deef121f1e76426a00665e5c4479674322d4f75edadd46debd5cd992f6ed6101e08301527f090689d0585ff075ec9e99ad690c3395bc4b313370b38ef355acdadcd122975b6102008301527f12c85ea5db8c6deb4aab71808dcb408fe3d1e7690c43d37b4ce6cc0166fa7daa61022083015285356102408301526020860135610260830152885161028083015260208901516102a083015260408901516102c083015260608901516102e08301526020826103008460086107d05a03fa8251811693505050509695505050505050565b604051610380810160405261047460008601356100ca565b61048160208601356100ca565b61048e60408601356100ca565b61049b60608601356100ca565b6104a860808601356100ca565b6104b6828287898b8d610169565b8060005260206000f35b600080fd5b600080fd5b6000819050826020600202820111156104e6576104e56104c5565b5b92915050565b600081905082604060020282011115610508576105076104c5565b5b92915050565b60008190508260206004028201111561052a576105296104c5565b5b92915050565b6000819050919050565b61054381610530565b811461054e57600080fd5b50565b6000813590506105608161053a565b92915050565b60008060008060006101a08688031215610583576105826104c0565b5b6000610591888289016104ca565b95505060406105a2888289016104ec565b94505060c06105b3888289016104ca565b9350506101006105c58882890161050e565b9250506101806105d788828901610551565b9150509295509295909350565b60008115159050919050565b6105f9816105e4565b82525050565b600060208201905061061460008301846105f0565b92915050565b7f4e487b7100000000000000000000000000000000000000000000000000000000600052601160045260246000fd5b600061065482610530565b915061065f83610530565b92508282039050818111156106775761067661061a565b5b92915050565b7f4e487b7100000000000000000000000000000000000000000000000000000000600052603260045260246000fdfea264697066735822122021828c1bcaeb093b9f218662227d52b603db4ee789ee29e23d042ca46c06632564736f6c634300081a0033",
			"opcodes": "PUSH1 0x80 PUSH1 0x40 MSTORE PUSH1 0x40 MLOAD DUP1 PUSH2 0x180 ADD PUSH1 0x40 MSTORE DUP1 PUSH1 0x40 MLOAD DUP1 PUSH2 0x1C0 ADD PUSH1 0x40 MSTORE DUP1 PUSH32 0x13EF7196E97358E510C577B797BF6E3CD39A2C16B548D73BBE8F1B33C146FE5 DUP2 MSTORE PUSH1 0x20 ADD PUSH32 0x2405BE5FC409B9BBE849CEFA4670E2F2A885A05297A5BD61BBD1CDA937472EC4 DUP2 MSTORE PUSH1 0x20 ADD PUSH32 0x196C02E6D88030071206CDEF1EC0D569B136B27D825A0AB9EB951820C93E5F6 DUP2 MSTORE PUSH1 0x20 ADD PUSH32 0x184175828D0D3652055C9BCCA5D8CDF7E8FC2360647FE9CAD0ED421955561F8C DUP2 MSTORE PUSH1 0x20 ADD PUSH32 0x2440EC222E2A1583C4DCDE1937422AC002663B9648AA13BF91085826C7D29C0A DUP2 MSTORE PUSH1 0x20 ADD PUSH32 0x2358E1DB3E0934CA48AF49EE922C8A08E9525D6D4AB69538FDA8CAB11930322B DUP2 MSTORE PUSH1 0x20 ADD PUSH32 0x2A64FAB9EC8500BF84DD3F79ACDCA3957477DF7575323969AD5F43D12CA58B03 DUP2 MSTORE PUSH1 0x20 ADD PUSH32 0x2084D6B65D520A69AEC4F77119BA07AA4BA30844716B3A3BC851D69B50A89957 DUP2 MSTORE PUSH1 0x20 ADD PUSH32 0xB4BFD4E46CA962CE47287D8A6FCAAC3DE05DCA8F56E676868A2CF9555FCFB5E DUP2 MSTORE PUSH1 0x20 ADD PUSH32 0x390A10DD59148D792AF91BA00D8634CEF3EDEB0E31C9DE0E77DA89432BFA9F7 DUP2 MSTORE PUSH1 0x20 ADD PUSH32 0x237015692FAC4C78242204D6A991FF50ED1E999DB38FA500932386AA9F8C69D7 DUP2 MSTORE PUSH1 0x20 ADD PUSH32 0xF444648F9E0D2EA670E01E9AEBFB2E99B7A7948F45402932084F424D5EEC471 DUP2 MSTORE PUSH1 0x20 ADD PUSH32 0xB22F938508E2F9A1744F12D4CF18EA556C18AA543B2C40E9E95DB3BD8FB711D DUP2 MSTORE PUSH1 0x20 ADD PUSH32 0xB645ECEBAB2FD4A623A41A5830884D1CB3E596A8618960D0760E74DE4FFCC2F DUP2 MSTORE POP DUP2 MSTORE PUSH1 0x20 ADD PUSH1 0x40 MLOAD DUP1 PUSH2 0x1C0 ADD PUSH1 0x40 MSTORE DUP1 PUSH32 0xF4F987B1EFDB56995EFFFD0B1B25EB3DEEBC1E06B38FD443CE1CB22FED38426 DUP2 MSTORE PUSH1 0x20 ADD PUSH32 0x11E1A3E4ED0A9BD9DCA060DE44D12105BA8B5F89EF20DFA230EEB2A9FDCE46AB DUP2 MSTORE PUSH1 0x20 ADD PUSH32 0x165D0638A737D6260B25608AE97698EF687AEC5AB964D5D022EE37C7456DCB57 DUP2 MSTORE PUSH1 0x20 ADD PUSH32 0x2287E284E930BF3C0618FB4AF91A5774581579AA7051F96CB26AFB844030C646 DUP2 MSTORE PUSH1 0x20 ADD PUSH32 0x2B4613E8C07EF908A6ADEE2289EB6542814EDF0CFDAF1B8D5610C5161913F5FF DUP2 MSTORE PUSH1 0x20 ADD PUSH32 0x543E4CF7447121DD4C27D03A5A84733CC1EB51F9EACDFCC90005084B5E6D059 DUP2 MSTORE PUSH1 0x20 ADD PUSH32 0x7E509C557D49250507BD434A77A23C92E4F6BFFCBD541EEEFD420B56CEBE146 DUP2 MSTORE PUSH1 0x20 ADD PUSH32 0x6B105F855E8A78CA522D71DECAE7CD39434A3D6872AFE8AEB9B95140D14369B DUP2 MSTORE PUSH1 0x20 ADD PUSH32 0x18345C1764032CE292BF4C322D9B4ADA01D197B0C029A6D56D3554D3575B9F4D DUP2 MSTORE PUSH1 0x20 ADD PUSH32 0x24506814B04E3CA0EFD80B32EE03488FBAFC4C4C2D9EF41F265FCE3839A8CD4E DUP2 MSTORE PUSH1 0x20 ADD PUSH32 0x2DA0FA88B6C7E6562539EA8717DF39728B881DEF91795D75939D28948B6C2BA8 DUP2 MSTORE PUSH1 0x20 ADD PUSH32 0x22924F05A80EB024C3256ED1E7EE1356E07FA6F61597231FFB48A69A1B1E8E6 DUP2 MSTORE PUSH1 0x20 ADD PUSH32 0x2942E03F3396F75A58C3AB94ABB01638E68B33232A00F1251D7CC69200BDFE33 DUP2 MSTORE PUSH1 0x20 ADD PUSH32 0x144D0FF502082EDA66045A529B01BAF5368FB7CC1BF393B389B8DDB4209FC8AC DUP2 MSTORE POP DUP2 MSTORE PUSH1 0x20 ADD PUSH1 0x40 MLOAD DUP1 PUSH2 0x1C0 ADD PUSH1 0x40 MSTORE DUP1 PUSH32 0x1105FD4C15B8A58D7B97E20859463291DD46B582DB02245E446BF439C7BBE8FE DUP2 MSTORE PUSH1 0x20 ADD PUSH32 0x1105CC789A725B7FEC51C250D61A28B879670A441F6C3B517ACE3AB51DF7D539 DUP2 MSTORE PUSH1 0x20 ADD PUSH32 0x130642D65FA756A54C5E1CEABD2C06D86B14D2ED7430E0E196268D295DF6C76A DUP2 MSTORE PUSH1 0x20 ADD PUSH32 0x2206B6806756F52165D90C6D231B42F92C881F8BD777B05F8C44FAF1555A8CA7 DUP2 MSTORE PUSH1 0x20 ADD PUSH32 0x297B2B6BD8BBE44425C3EEECB10A403170C8B30FB3B82DDAB710282EAD16C83 DUP2 MSTORE PUSH1 0x20 ADD PUSH31 0x4F23062CEB024A83E0CE73B6D6010A1AA93E268B487743D026D297CE0547EF DUP2 MSTORE PUSH1 0x20 ADD PUSH32 0x1C911561E000E67E8AB0F6723D51D1F5DEC89542A2CDA2DBE380783E03F276F DUP2 MSTORE PUSH1 0x20 ADD PUSH32 0x2ACEF5974F8E14CB7BDDC41DAA6F53580DD42A9DF7017D01D2CA4B8F702600DD DUP2 MSTORE PUSH1 0x20 ADD PUSH32 0x14E87F2E58F15EFDA3CC2D3E9F83BBCFCDEB4974A54E5C55777011F9B792E9D8 DUP2 MSTORE PUSH1 0x20 ADD PUSH32 0x2A83478814788BE4717B525824BB1ED69F4598D7B977590234806B68715A3209 DUP2 MSTORE PUSH1 0x20 ADD PUSH32 0x29BF95777F03DA3719C1576CC963AA131FF8A8C7E7D7571BD6F499F6D02B3E4C DUP2 MSTORE PUSH1 0x20 ADD PUSH32 0x62E1A45181ED3C3C1BEC6E2AD2F36468FF233142AF4AF31325CDFA1F2DD423E DUP2 MSTORE PUSH1 0x20 ADD PUSH32 0x27D2FC3C724C259029CD00DFCDEE2DBFC356B420922AE33CEAC7E8053CC71C24 DUP2 MSTORE PUSH1 0x20 ADD PUSH32 0x1942605FDA94BF8B67CE81303E3594A3AE946B7B129412C4979577D0B7CFE31B DUP2 MSTORE POP DUP2 MSTORE PUSH1 0x20 ADD PUSH1 0x40 MLOAD DUP1 PUSH2 0x1C0 ADD PUSH1 0x40 MSTORE DUP1 PUSH32 0x146FB822D3CB83FFDC1B4DB22D6F94937A2424885D6D7039B56E54391E84535D DUP2 MSTORE PUSH1 0x20 ADD PUSH32 0x5AA08EDA3C5C049DC1A5915DF0C2B67C3619DA9650AF2BD09E7B2617D804120 DUP2 MSTORE PUSH1 0x20 ADD PUSH32 0x2E455F0D4BDA17E5D934AA338F0310C74550E1F8DA686E30DC1560CB77BB4B4 DUP2 MSTORE PUSH1 0x20 ADD PUSH32 0x28618B94685412E5B97988CC831B8B4AEB3B545A8C8F8FB1FCF34EBE36CCE921 DUP2 MSTORE PUSH1 0x20 ADD PUSH32 0xCAE392659F88489291A63EEF467D5E0BD7C42320216762705ADCB574FA43A26 DUP2 MSTORE PUSH1 0x20 ADD PUSH32 0x1BBD80D93947826138AB9FEEC5DBE6E3A5BB3F5E3D814BD53E72D211CC884FB9 DUP2 MSTORE PUSH1 0x20 ADD PUSH32 0x277D11D2B31A0054843D07C876991EC302C34CF7F493BD1DB86B6E3EF73A4CEA DUP2 MSTORE PUSH1 0x20 ADD PUSH32 0x1BAE8BD1E005AD0BA9E4359677C814FE054041B10361CE387A7356281CA5F137 DUP2 MSTORE PUSH1 0x20 ADD PUSH32 0x1918458B77DDC49E149DD542B09DDE77A473F9C0AF990678E4B6421B89746D6 DUP2 MSTORE PUSH1 0x20 ADD PUSH32 0x2CC7DBE4F27E8B13BAAA5DFAA61F221B6D841787E41DC4B484E12E54B4442008 DUP2 MSTORE PUSH1 0x20 ADD PUSH32 0x13A01B8D34C04DBDFD35E59960387931050B32D0A17F05EB3DFD0A494E5F31BC DUP2 MSTORE PUSH1 0x20 ADD PUSH32 0x156DB3B3CA7C27276BEAD97A9643B6A12666DE3004C1478FEE65D8FA04374EE2 DUP2 MSTORE PUSH1 0x20 ADD PUSH32 0x19846331D71E7B7512AFBBDE8D9FC48A75F86DD30E7DDC34E30B6E9FECDAEA2E DUP2 MSTORE PUSH1 0x20 ADD PUSH32 0xFBC61A5F6B54B4372627C40E3A9DBCA5607C92614A0FB7405A30418698DCDF8 DUP2 MSTORE POP DUP2 MSTORE PUSH1 0x20 ADD PUSH1 0x40 MLOAD DUP1 PUSH2 0x1C0 ADD PUSH1 0x40 MSTORE DUP1 PUSH32 0x1BC1CDF66A14F07180056D51B17E14FDB0587DD43CB34BE6716B1E252ADB1CFA DUP2 MSTORE PUSH1 0x20 ADD PUSH32 0x2F1BD8C1D7195EFB5BD5652C60CB5665222103196EC5FD17260F24147A5246D1 DUP2 MSTORE PUSH1 0x20 ADD PUSH32 0x1DBB2E3DF7EE585AD22503C13DDCC0C89DE2DE8E99256DDC68CF582D79E038F7 DUP2 MSTORE PUSH1 0x20 ADD PUSH32 0x18BFF4B4441669229B6CC7AADB911025F8EAB818235854FC7F5F9FFB7EA55449 DUP2 MSTORE PUSH1 0x20 ADD PUSH32 0xF86BDE52A992C0D79EF3627E1B8B59173F58D06A3AFECFF95F8F4FFF637CF22 DUP2 MSTORE PUSH1 0x20 ADD PUSH32 0x1FC41A0BB009782293FBEC9B6EBA20E2B8C663AA15A16ABC6EED9D69E9308617 DUP2 MSTORE PUSH1 0x20 ADD PUSH32 0x2D0488F4EBE5A068B01133B98EBB80D78963F244B3AA8068BA6C80718B65D7C7 DUP2 MSTORE PUSH1 0x20 ADD PUSH32 0x19D4DCBC64B1FCC9DCF3DB4C6CA7CEF9900698F8BB6557ADE9E5CF367BEEB688 DUP2 MSTORE PUSH1 0x20 ADD PUSH32 0x2FEEF8108CC2379D73513A82EEA70CD81A181C2E33CA89D0330CA838745D6681 DUP2 MSTORE PUSH1 0x20 ADD PUSH32 0x36FEBCE371368756A43CD14D3A6AF46D362A5C35E72804E6FE78B527104045F DUP2 MSTORE PUSH1 0x20 ADD PUSH32 0x151EE45F65557C9FCCFF218169BE14DC1B78CC4A90D3B0B9D506E5EC6D495B84 DUP2 MSTORE PUSH1 0x20 ADD PUSH32 0x3023EEC5F70BAFF57DD0415700FD8B546F2637B0CAD1CD2B1DF1741021425A80 DUP2 MSTORE PUSH1 0x20 ADD PUSH32 0x7AD80C2F6F58260557ED72BBB230C6D289D83441306A803AABF029AF042E59E DUP2 MSTORE PUSH1 0x20 ADD PUSH32 0x304F0FE42620F00D880B9F1A56F71DB31C431FE3BE02C54C665EFE9D8771C591 DUP2 MSTORE POP DUP2 MSTORE PUSH1 0x20 ADD PUSH1 0x40 MLOAD DUP1 PUSH2 0x1C0 ADD PUSH1 0x40 MSTORE DUP1 PUSH32 0xF2001B0E2808CBE9FBE1CCDB7ED5AF2C802913D179C5E1F5A220404B5D0D086 DUP2 MSTORE PUSH1 0x20 ADD PUSH32 0x19E1E5B8BD9467181560627B0129B48BBCA4D2A563CE06DBA1396A8CD096D569 DUP2 MSTORE PUSH1 0x20 ADD PUSH32 0x11FBEB4A7FCCA72609E8E1AFE73A7782B5110B95515C16AD922B02FCC9A674DD DUP2 MSTORE PUSH1 0x20 ADD PUSH32 0x5E9CB5667C5DCBE735FFBF57E7476411903F06314F24A60A24C3889DF82298F DUP2 MSTORE PUSH1 0x20 ADD PUSH32 0x1EF7FD3C775A80711F137928F1AC39BBBB01A89943BC5C43739EC9173FE027F2 DUP2 MSTORE PUSH1 0x20 ADD PUSH32 0x14D7A93D5F26077E0A6EAAA4BD738BAE57FF22AADF8A8473943B6F644F697256 DUP2 MSTORE PUSH1 0x20 ADD PUSH32 0x14D5F3FFCCF62B2B26972A6D7DFCB776332B20433DDBB4F9A828E40F7B4D32AF DUP2 MSTORE PUSH1 0x20 ADD PUSH32 0xB684A19560776462C22D8791F3E97BCFAC812FA12EE8703030FF95C4BF27518 DUP2 MSTORE PUSH1 0x20 ADD PUSH32 0xD1EAF5B352C9588C6C20031067DD28A5A363B4AEEDBB4AEED3AA978DBC8FDDC DUP2 MSTORE PUSH1 0x20 ADD PUSH32 0xE882683CB6B0D55E194C3D5708B62BE8B91A9941142587EDE47096E204C9FAA DUP2 MSTORE PUSH1 0x20 ADD PUSH32 0x2651BE7344E6BE5368F137DE2166ACAEDA517815AEC590822B47F98F577858B5 DUP2 MSTORE PUSH1 0x20 ADD PUSH32 0x2D4172FA3F220BDD4D4B3D69455897B30A51F27586A9B369A9536C51D00093DB DUP2 MSTORE PUSH1 0x20 ADD PUSH32 0x1A4C7436CD7C282EAF249163B2A726DAA3FB2737E38DA00F615A495036EEE150 DUP2 MSTORE PUSH1 0x20 ADD PUSH32 0x52F661471DF979BE9AEAD5B150E64F05734858CEBF8ABDD31500EBE9DAF5059 DUP2 MSTORE POP DUP2 MSTORE PUSH1 0x20 ADD PUSH1 0x40 MLOAD DUP1 PUSH2 0x1C0 ADD PUSH1 0x40 MSTORE DUP1 PUSH32 0x23DD6BF92585D187AC2D4671CF13F94D985FEB5B3719C40AB35592D2F647CB65 DUP2 MSTORE PUSH1 0x20 ADD PUSH32 0x1FB85EF6F9FDC6083995FF6AAD9AE22A98752A601ABAF3D534CF980DF6F795C9 DUP2 MSTORE PUSH1 0x20 ADD PUSH32 0x36E63661C990AD12EB950CD2E0584372457358AC5CC984CE91A87677C1672F6 DUP2 MSTORE PUSH1 0x20 ADD PUSH32 0xC49EDF60DBC9D2851DCC8C716E0C6D45D3497AA997C6EB957466CAE69C0148E DUP2 MSTORE PUSH1 0x20 ADD PUSH32 0x215972553FB8FFF61A3121AAFEE6A99B3B8357E1F28BBD0239A4F4465EDF9E62 DUP2 MSTORE PUSH1 0x20 ADD PUSH32 0x269241A97474C2EB2646670AE0CAA1C92101A39B35992B7EC79E256AB1D32B09 DUP2 MSTORE PUSH1 0x20 ADD PUSH32 0x22158165E2541A0A6527743827C084BC86DE22B85ECFB896314ADE24B266DCBC DUP2 MSTORE PUSH1 0x20 ADD PUSH32 0xF46FDFD54E79B00E309B8DC467108870E7D88F634094B67A8CC39D8A0137D63 DUP2 MSTORE PUSH1 0x20 ADD PUSH32 0x729F76399BEFC2699E621290467EAD8869B064300743FF00E5D8F29C1F4E105 DUP2 MSTORE PUSH1 0x20 ADD PUSH32 0x15757E58BC3916C6838D401B015D3CB65334BE4194B9A1B023DB43DEF60463AA DUP2 MSTORE PUSH1 0x20 ADD PUSH32 0x872D1DECBA9A9852E202EBA96F8A1AB09C7DB0FD986416415785E24F49917FC DUP2 MSTORE PUSH1 0x20 ADD PUSH32 0x1B044E4CDF43015374E1B202CFD5B7B1BC24C8000B03EB6EA6B47E27F798B4E1 DUP2 MSTORE PUSH1 0x20 ADD PUSH32 0x24719F2EE741477DB930F10849677E3744C9A7BCD40725D59147122AE3C86ADA DUP2 MSTORE PUSH1 0x20 ADD PUSH32 0x229383E070BF106140EA30A9F70BAE89DB9E249F47D7FC7298645E78D35D74B2 DUP2 MSTORE POP DUP2 MSTORE PUSH1 0x20 ADD PUSH1 0x40 MLOAD DUP1 PUSH2 0x1C0 ADD PUSH1 0x40 MSTORE DUP1 PUSH32 0x11C60F8708F714A35E9802644CF964DEA7B833FCA39C3222B8A41D69192B8CA5 DUP2 MSTORE PUSH1 0x20 ADD PUSH32 0x1E6227BDDD81FD0E8F005549131313A938F2719603381817AA49D400A124A21F DUP2 MSTORE PUSH1 0x20 ADD PUSH32 0xCAC8A3D12DB8C062984C3E0D60334AAC8EBFA38427EFE8B38B38D158AA677E6 DUP2 MSTORE PUSH1 0x20 ADD PUSH32 0x3273F6EFECFC1CFFB2E907FE7C96167B1AE08343F80A3AABBF770692CA8B5BF DUP2 MSTORE PUSH1 0x20 ADD PUSH32 0x101DBC5349E77EF96DB2867138A099319784843D19CCD6671D156D33CA3D6EBC DUP2 MSTORE PUSH1 0x20 ADD PUSH32 0x218E0B68E696C429BD606DE3A19B9AD4D9EBB49D46BB147071231EC5F65DEBA5 DUP2 MSTORE PUSH1 0x20 ADD PUSH32 0xBF75F2284152EB39BE5ED8FEF968D1C3EFC61AC1844CFF901E2B78BC86E08C3 DUP2 MSTORE PUSH1 0x20 ADD PUSH32 0x250B05198A4E6D784D61B2AAEA5A8C43E30E6D13163C6E3BD2D5D7A57F6A1C01 DUP2 MSTORE PUSH1 0x20 ADD PUSH32 0x1DDED98E05EEA4B37305CD85F82652EEEFF6B96B58425B45CE75EE38F86D203 DUP2 MSTORE PUSH1 0x20 ADD PUSH32 0x1B3ED770919C526C1F28D432C5D325D48595EB2EC421336D6E664F40825776EF DUP2 MSTORE PUSH1 0x20 ADD PUSH32 0x2B0ABA4B8AB317A7B430445BAECF7F5987CED258EFA0830622603934779D42D8 DUP2 MSTORE PUSH1 0x20 ADD PUSH32 0xE6605839B92F86559928B0E5E58BD17FF393FC53DC2D5E6F3AFE06B0D9072F0 DUP2 MSTORE PUSH1 0x20 ADD PUSH32 0x1220668F0B98E6BCE306615F834B9675D2B55E943E11390044D0A4759B07A0C3 DUP2 MSTORE PUSH1 0x20 ADD PUSH32 0x11B84E82E20896A8E9147881F50DA4E0F416841C54082D02B737A3A3A5840986 DUP2 MSTORE POP DUP2 MSTORE PUSH1 0x20 ADD PUSH1 0x40 MLOAD DUP1 PUSH2 0x1C0 ADD PUSH1 0x40 MSTORE DUP1 PUSH32 0x1C55D668F0FA8615D358A8E6EA0F77032084BD9731A10B3718EE42B6FDAEFBE5 DUP2 MSTORE PUSH1 0x20 ADD PUSH32 0xAC3E311875AA40FD753AAD1507D6CB4E38D42EF65FEB48FF137F1B21B461D05 DUP2 MSTORE PUSH1 0x20 ADD PUSH32 0x28763F6F0D6B8FA547AE8369793636B291EE8750CC430CEFE97BFD4BAAC96D2D DUP2 MSTORE PUSH1 0x20 ADD PUSH32 0x187B4A7CF2D4E3FFE2B0F9809D298B06821F9EF6731E24636D9A0F28794EEB8F DUP2 MSTORE PUSH1 0x20 ADD PUSH32 0x1422E102170D9718B1A52839FFE6B9C5D14A607C7ECBBEF752DE37EE57651661 DUP2 MSTORE PUSH1 0x20 ADD PUSH32 0x14DFCF6FC14826C0FAD5D5E96863A1DDEB61714B2980876766AA04484CCAB2DE DUP2 MSTORE PUSH1 0x20 ADD PUSH32 0x13DE803188AD0EB01BD75707816728E4EDD0889F66729CD6DD74F9C435193CBA DUP2 MSTORE PUSH1 0x20 ADD PUSH32 0x3D0608A4AF4381D7E8E55699BC86BBE7129ECC48139DA64F482E369F7246933 DUP2 MSTORE PUSH1 0x20 ADD PUSH32 0x28EFBF3FD955C09EE8A42F4BFF0291C4BA84C475E56F1216E86CF2294C3D2C2F DUP2 MSTORE PUSH1 0x20 ADD PUSH31 0x4090E425DF767152B89824BE03C885A47D8DC4B8FB81DCD925C8ED2D104D46 DUP2 MSTORE PUSH1 0x20 ADD PUSH32 0x23301A53FC52D7C64110826687C60087A060DDEFD664E271E51DADD4FC906F6C DUP2 MSTORE PUSH1 0x20 ADD PUSH32 0x14B975B5A7EDB7C1FF9D0A8BEC341B8AA4F9A3010A84BF31BE02C8B6A96DE1C6 DUP2 MSTORE PUSH1 0x20 ADD PUSH32 0xAE235220E7846E32C05A51710E86EB7A2003ECB46E14729A689C5143E3CC742 DUP2 MSTORE PUSH1 0x20 ADD PUSH32 0x13A399D18336D73804247F99D7CA7B73AE52C795D0528DCF88424EC64CD05A40 DUP2 MSTORE POP DUP2 MSTORE PUSH1 0x20 ADD PUSH1 0x40 MLOAD DUP1 PUSH2 0x1C0 ADD PUSH1 0x40 MSTORE DUP1 PUSH32 0x177BD0AA638195181175A48F43DAD85A5C8D2F01C8A86DF160F6470B2196A6DD DUP2 MSTORE PUSH1 0x20 ADD PUSH32 0x1985D0E08910848C0CE0098A576CDB62D47C81E0FEEB5E9283524C2FCFE16703 DUP2 MSTORE PUSH1 0x20 ADD PUSH32 0x2AD1D5CD62C1E648C9A0E4BB7896A75C987F3A8BB8C35AFB58145D9783225F9B DUP2 MSTORE PUSH1 0x20 ADD PUSH31 0x1C10259A73E31D020DA03A89BCC36653383CFEC8B42DBE1761AAE9D0794B02 DUP2 MSTORE PUSH1 0x20 ADD PUSH32 0x208A1CEFD7F049ABE5FE7F9E28181972B19E0C990235987E4C61AF8E99897E88 DUP2 MSTORE PUSH1 0x20 ADD PUSH32 0x2468BE9041A6E586E2B38F770FFD557F8D69BD6178885D69D5EBFB3D61A97F2D DUP2 MSTORE PUSH1 0x20 ADD PUSH32 0x2AB4DA8A56C29E6A298095D65B8D76FBF2EAC0CE37FF65F026E9823A990F1F00 DUP2 MSTORE PUSH1 0x20 ADD PUSH32 0x862C458EFE128FD0ACB55A0D916FD18758C55DE4421FB967620912C8A113701 DUP2 MSTORE PUSH1 0x20 ADD PUSH32 0x13E27E5A7E766681D5E2803C7C9266A192DFB655FC5789BE2B2CBFD86BC60F0A DUP2 MSTORE PUSH1 0x20 ADD PUSH32 0x66877ADF78EF454DCEB57055E6BE1D9F5103CA0CF1F9C6032C0C6C1ED806BC7 DUP2 MSTORE PUSH1 0x20 ADD PUSH32 0xF7DD0841E4174177419F1D9DFA7FB25B755A1568FD55DC62C16D6224E4477ED DUP2 MSTORE PUSH1 0x20 ADD PUSH32 0xE8B506CBE28B71BBAF916E54990F3E1A61E3E34ACB17084162EF7A15092404E DUP2 MSTORE PUSH1 0x20 ADD PUSH32 0x285B2D4C2B36020176CBE6F1B9CDF31F8D0FDF99C9A25505A15A860FD2616009 DUP2 MSTORE PUSH1 0x20 ADD PUSH32 0x2D8C936EF9B48C5D75FB413B7CAC72CFF186AB0F4CB9DFA9197DBA85FEF59738 DUP2 MSTORE POP DUP2 MSTORE PUSH1 0x20 ADD PUSH1 0x40 MLOAD DUP1 PUSH2 0x1C0 ADD PUSH1 0x40 MSTORE DUP1 PUSH32 0xF4C67F52343B883391B284231B1AB9F514B667923D2EFE404C79EBB142A7FC1 DUP2 MSTORE PUSH1 0x20 ADD PUSH32 0x2C8DD21AA0556DB4187DF9DBCCFE619A938D4D6971AB20C8FB8499FF18F9B393 DUP2 MSTORE PUSH1 0x20 ADD PUSH32 0x19CF5F8D82EF2FD726D4E61BFD25974D08A1D18F7940199B8AB90D7B9A56DA2C DUP2 MSTORE PUSH1 0x20 ADD PUSH32 0x24803334CD560FC2CE2976B89A87D17ACE733B3E70F773D169383635D9AB9C66 DUP2 MSTORE PUSH1 0x20 ADD PUSH32 0x28A711D0889B002AA16BFD36BA33E294F44AC058A3B4A1E98CF2D0EA9EF3DB30 DUP2 MSTORE PUSH1 0x20 ADD PUSH32 0x12C90064EB460C56B0A0CAB9A5E72ACF3D85BA15017E0348A9D6A88DB8E838D6 DUP2 MSTORE PUSH1 0x20 ADD PUSH32 0x7491A578400D71CF7F42B0BD2A1178B243A88A8C11C98E0DE05D959B393EEB9 DUP2 MSTORE PUSH1 0x20 ADD PUSH32 0x1906102AB9146EA3953F8110734966B84FF8689EE9F44CAF0D1B6B96BDAD3507 DUP2 MSTORE PUSH1 0x20 ADD PUSH32 0x15A9DD087E3877B0BC59A6AF17B72B6476A73DE3F54FBFA2D43A2E76E4F1D0BA DUP2 MSTORE PUSH1 0x20 ADD PUSH32 0x10098CE1B8F6ABDB6DCAC4FAF8EB9963A97AD0720A67E75835EAAAB0A4D25F3B DUP2 MSTORE PUSH1 0x20 ADD PUSH32 0x30374184C976DB1E962F5646EFACF55116CFC3EF1BF2D13969407F94ADA63841 DUP2 MSTORE PUSH1 0x20 ADD PUSH32 0x6528F7A7E9E73B458FC680B8C59621D2DA946C34455C8CB80EC70D77C018571 DUP2 MSTORE PUSH1 0x20 ADD PUSH32 0x9AB55A91A7063B85C45A4308BCE56E874AA3977EE6921D6F3541A3C92D9E2E5 DUP2 MSTORE PUSH1 0x20 ADD PUSH32 0x300718E2D685750ADD78894C11638BA2D2FD7954D11CD5B5C8AA0F7CD38766CA DUP2 MSTORE POP DUP2 MSTORE PUSH1 0x20 ADD PUSH1 0x40 MLOAD DUP1 PUSH2 0x1C0 ADD PUSH1 0x40 MSTORE DUP1 PUSH32 0x72D5ADC75E4DA51B8F796FC45A234D2F8CA4CA8708E0CD54174E9F63AFF6486 DUP2 MSTORE PUSH1 0x20 ADD PUSH32 0x2FEA19288315B9162B4B9947F38AA430D8CD885ED56B4BDE5CE9C2714AF7C305 DUP2 MSTORE PUSH1 0x20 ADD PUSH32 0x26D3BE9E7F7F9092B632BBA1165848D93BF6F2F1BF756D1DC42879A72E47AF0 DUP2 MSTORE PUSH1 0x20 ADD PUSH32 0xBCA1235CEF12479AFD16DDCC8DBB4ECF1AA1E589F13141509804A38A3452975 DUP2 MSTORE PUSH1 0x20 ADD PUSH32 0x92B3130BDB7F9BE5F33D3AC5FDAC9AC2D853DEEE532B4C93F35850222556868 DUP2 MSTORE PUSH1 0x20 ADD PUSH32 0xF8C32D7B52BE36EEFE7D264D66B3EE4C59255F16F9E239B46959DD40B4623CC DUP2 MSTORE PUSH1 0x20 ADD PUSH32 0xB96504F8B767E15046DB623894ABEDE0FCD6437AF458769B4F49EB493A37FCB DUP2 MSTORE PUSH1 0x20 ADD PUSH32 0xBAD1845AD553F1D7FECD0D97D73010D8FE475F3DEA683E8ECA65623D0653537 DUP2 MSTORE PUSH1 0x20 ADD PUSH32 0x11EDE2D36DEBC21A2BD22D22400CB8B1CD14E846D5B6A273068F6137A6005545 DUP2 MSTORE PUSH1 0x20 ADD PUSH32 0xA62374F4D0B8800BF6848C777D1259704DE995E1469633E57A65E196E0070F0 DUP2 MSTORE PUSH1 0x20 ADD PUSH32 0x1EE504D746AA3BDAFB86361D8F09D3A5509869996FE13BDAD29F8FBD357F5FFD DUP2 MSTORE PUSH1 0x20 ADD PUSH32 0x1FF336222321DEBD2161B0B1DBB66DDF92FD56050F82E244315B57AF052E26C0 DUP2 MSTORE PUSH1 0x20 ADD PUSH32 0x14FB8FD0381CC9122E8D11E02FF39BD9F2168FAD1E9BFF2C858C97FE6759E5CA DUP2 MSTORE PUSH1 0x20 ADD PUSH31 0x80DDD094A23483E51116D6AED63F579212F84448AA3ED4ED57ACE80AF12935 DUP2 MSTORE POP DUP2 MSTORE POP PUSH1 0x0 SWAP1 PUSH1 0xC PUSH2 0x19BE SWAP3 SWAP2 SWAP1 PUSH2 0x19D1 JUMP JUMPDEST POP CALLVALUE DUP1 ISZERO PUSH2 0x19CB JUMPI PUSH1 0x0 DUP1 REVERT JUMPDEST POP PUSH2 0x1AB6 JUMP JUMPDEST DUP3 PUSH1 0xC PUSH1 0xE MUL DUP2 ADD SWAP3 DUP3 ISZERO PUSH2 0x1A11 JUMPI SWAP2 PUSH1 0x20 MUL DUP3 ADD JUMPDEST DUP3 DUP2 GT ISZERO PUSH2 0x1A10 JUMPI DUP3 MLOAD DUP3 SWAP1 PUSH1 0xE PUSH2 0x1A00 SWAP3 SWAP2 SWAP1 PUSH2 0x1A22 JUMP JUMPDEST POP SWAP2 PUSH1 0x20 ADD SWAP2 SWAP1 PUSH1 0xE ADD SWAP1 PUSH2 0x19E7 JUMP JUMPDEST JUMPDEST POP SWAP1 POP PUSH2 0x1A1E SWAP2 SWAP1 PUSH2 0x1A62 JUMP JUMPDEST POP SWAP1 JUMP JUMPDEST DUP3 PUSH1 0xE DUP2 ADD SWAP3 DUP3 ISZERO PUSH2 0x1A51 JUMPI SWAP2 PUSH1 0x20 MUL DUP3 ADD JUMPDEST DUP3 DUP2 GT ISZERO PUSH2 0x1A50 JUMPI DUP3 MLOAD DUP3 SSTORE SWAP2 PUSH1 0x20 ADD SWAP2 SWAP1 PUSH1 0x1 ADD SWAP1 PUSH2 0x1A35 JUMP JUMPDEST JUMPDEST POP SWAP1 POP PUSH2 0x1A5E SWAP2 SWAP1 PUSH2 0x1A86 JUMP JUMPDEST POP SWAP1 JUMP JUMPDEST JUMPDEST DUP1 DUP3 GT ISZERO PUSH2 0x1A82 JUMPI PUSH1 0x0 DUP2 DUP2 PUSH2 0x1A79 SWAP2 SWAP1 PUSH2 0x1AA3 JUMP JUMPDEST POP PUSH1 0xE ADD PUSH2 0x1A63 JUMP JUMPDEST POP SWAP1 JUMP JUMPDEST JUMPDEST DUP1 DUP3 GT ISZERO PUSH2 0x1A9F JUMPI PUSH1 0x0 DUP2 PUSH1 0x0 SWAP1 SSTORE POP PUSH1 0x1 ADD PUSH2 0x1A87 JUMP JUMPDEST POP SWAP1 JUMP JUMPDEST POP DUP1 PUSH1 0xE ADD SWAP1 PUSH2 0x1AB3 SWAP2 SWAP1 PUSH2 0x1A86 JUMP JUMPDEST POP JUMP JUMPDEST PUSH2 0x6E2 DUP1 PUSH2 0x1AC5 PUSH1 0x0 CODECOPY PUSH1 0x0 RETURN INVALID PUSH1 0x80 PUSH1 0x40 MSTORE CALLVALUE DUP1 ISZERO PUSH2 0x10 JUMPI PUSH1 0x0 DUP1 REVERT JUMPDEST POP PUSH1 0x4 CALLDATASIZE LT PUSH2 0x2B JUMPI PUSH1 0x0 CALLDATALOAD PUSH1 0xE0 SHR DUP1 PUSH4 0xA23F0199 EQ PUSH2 0x30 JUMPI JUMPDEST PUSH1 0x0 DUP1 REVERT JUMPDEST PUSH2 0x4A PUSH1 0x4 DUP1 CALLDATASIZE SUB DUP2 ADD SWAP1 PUSH2 0x45 SWAP2 SWAP1 PUSH2 0x566 JUMP JUMPDEST PUSH2 0x60 JUMP JUMPDEST PUSH1 0x40 MLOAD PUSH2 0x57 SWAP2 SWAP1 PUSH2 0x5FF JUMP JUMPDEST PUSH1 0x40 MLOAD DUP1 SWAP2 SUB SWAP1 RETURN JUMPDEST PUSH1 0x0 DUP1 PUSH1 0x0 PUSH1 0x1 DUP5 PUSH2 0x72 SWAP2 SWAP1 PUSH2 0x649 JUMP JUMPDEST PUSH1 0xC DUP2 LT PUSH2 0x83 JUMPI PUSH2 0x82 PUSH2 0x67D JUMP JUMPDEST JUMPDEST PUSH1 0xE MUL ADD PUSH1 0xE DUP1 PUSH1 0x20 MUL PUSH1 0x40 MLOAD SWAP1 DUP2 ADD PUSH1 0x40 MSTORE DUP1 SWAP3 SWAP2 SWAP1 DUP3 PUSH1 0xE DUP1 ISZERO PUSH2 0xBE JUMPI PUSH1 0x20 MUL DUP3 ADD SWAP2 JUMPDEST DUP2 SLOAD DUP2 MSTORE PUSH1 0x20 ADD SWAP1 PUSH1 0x1 ADD SWAP1 DUP1 DUP4 GT PUSH2 0xAA JUMPI JUMPDEST POP POP POP POP POP SWAP1 POP PUSH2 0x45C JUMP JUMPDEST PUSH32 0x30644E72E131A029B85045B68181585D2833E84879B9709143E1F593F0000001 DUP2 LT PUSH2 0xFB JUMPI PUSH1 0x0 DUP1 MSTORE PUSH1 0x20 PUSH1 0x0 RETURN JUMPDEST POP JUMP JUMPDEST PUSH1 0x0 PUSH1 0x40 MLOAD DUP4 DUP2 MSTORE DUP5 PUSH1 0x20 DUP3 ADD MSTORE DUP6 PUSH1 0x40 DUP3 ADD MSTORE PUSH1 0x40 DUP2 PUSH1 0x60 DUP4 PUSH1 0x7 PUSH2 0x7D0 GAS SUB STATICCALL SWAP2 POP DUP2 PUSH2 0x131 JUMPI PUSH1 0x0 DUP1 MSTORE PUSH1 0x20 PUSH1 0x0 RETURN JUMPDEST DUP3 MLOAD PUSH1 0x40 DUP3 ADD MSTORE PUSH1 0x20 DUP4 ADD MLOAD PUSH1 0x60 DUP3 ADD MSTORE PUSH1 0x40 DUP4 PUSH1 0x80 DUP4 PUSH1 0x6 PUSH2 0x7D0 GAS SUB STATICCALL SWAP2 POP DUP2 PUSH2 0x161 JUMPI PUSH1 0x0 DUP1 MSTORE PUSH1 0x20 PUSH1 0x0 RETURN JUMPDEST POP POP POP POP POP POP JUMP JUMPDEST PUSH1 0x0 PUSH1 0x80 DUP7 ADD PUSH1 0x0 DUP8 ADD PUSH1 0x80 DUP10 ADD MLOAD DUP2 MSTORE PUSH1 0xA0 DUP10 ADD MLOAD PUSH1 0x20 DUP3 ADD MSTORE PUSH2 0x19C PUSH1 0x0 DUP9 ADD CALLDATALOAD PUSH1 0xE0 DUP12 ADD MLOAD PUSH1 0xC0 DUP13 ADD MLOAD DUP5 PUSH2 0xFE JUMP JUMPDEST PUSH2 0x1B6 PUSH1 0x20 DUP9 ADD CALLDATALOAD PUSH2 0x120 DUP12 ADD MLOAD PUSH2 0x100 DUP13 ADD MLOAD DUP5 PUSH2 0xFE JUMP JUMPDEST PUSH2 0x1D0 PUSH1 0x40 DUP9 ADD CALLDATALOAD PUSH2 0x160 DUP12 ADD MLOAD PUSH2 0x140 DUP13 ADD MLOAD DUP5 PUSH2 0xFE JUMP JUMPDEST PUSH2 0x1EA PUSH1 0x60 DUP9 ADD CALLDATALOAD PUSH2 0x1A0 DUP12 ADD MLOAD PUSH2 0x180 DUP13 ADD MLOAD DUP5 PUSH2 0xFE JUMP JUMPDEST DUP4 CALLDATALOAD DUP3 MSTORE PUSH32 0x30644E72E131A029B85045B68181585D97816A916871CA8D3C208C16D87CFD47 PUSH1 0x20 DUP6 ADD CALLDATALOAD PUSH32 0x30644E72E131A029B85045B68181585D97816A916871CA8D3C208C16D87CFD47 SUB MOD PUSH1 0x20 DUP4 ADD MSTORE DUP5 CALLDATALOAD PUSH1 0x40 DUP4 ADD MSTORE PUSH1 0x20 DUP6 ADD CALLDATALOAD PUSH1 0x60 DUP4 ADD MSTORE PUSH1 0x40 DUP6 ADD CALLDATALOAD PUSH1 0x80 DUP4 ADD MSTORE PUSH1 0x60 DUP6 ADD CALLDATALOAD PUSH1 0xA0 DUP4 ADD MSTORE PUSH32 0x2D4D9AA7E302D9DF41749D5507949D05DBEA33FBB16C643B22F599A2BE6DF2E2 PUSH1 0xC0 DUP4 ADD MSTORE PUSH32 0x14BEDD503C37CEB061D8EC60209FE345CE89830A19230301F076CAFF004D1926 PUSH1 0xE0 DUP4 ADD MSTORE PUSH32 0x967032FCBF776D1AFC985F88877F182D38480A653F2DECAA9794CBC3BF3060C PUSH2 0x100 DUP4 ADD MSTORE PUSH32 0xE187847AD4C798374D0D6732BF501847DD68BC0E071241E0213BC7FC13DB7AB PUSH2 0x120 DUP4 ADD MSTORE PUSH32 0x304CFBD1E08A704A99F5E847D93F8C3CAAFDDEC46B7A0D379DA69A4D112346A7 PUSH2 0x140 DUP4 ADD MSTORE PUSH32 0x1739C1B1A457A8C7313123D24D2F9192F896B7C63EEA05A9D57F06547AD0CEC8 PUSH2 0x160 DUP4 ADD MSTORE PUSH1 0x0 DUP9 ADD MLOAD PUSH2 0x180 DUP4 ADD MSTORE PUSH1 0x20 PUSH1 0x0 ADD DUP9 ADD MLOAD PUSH2 0x1A0 DUP4 ADD MSTORE PUSH32 0x198E9393920D483A7260BFB731FB5D25F1AA493335A9E71297E485B7AEF312C2 PUSH2 0x1C0 DUP4 ADD MSTORE PUSH32 0x1800DEEF121F1E76426A00665E5C4479674322D4F75EDADD46DEBD5CD992F6ED PUSH2 0x1E0 DUP4 ADD MSTORE PUSH32 0x90689D0585FF075EC9E99AD690C3395BC4B313370B38EF355ACDADCD122975B PUSH2 0x200 DUP4 ADD MSTORE PUSH32 0x12C85EA5DB8C6DEB4AAB71808DCB408FE3D1E7690C43D37B4CE6CC0166FA7DAA PUSH2 0x220 DUP4 ADD MSTORE DUP6 CALLDATALOAD PUSH2 0x240 DUP4 ADD MSTORE PUSH1 0x20 DUP7 ADD CALLDATALOAD PUSH2 0x260 DUP4 ADD MSTORE DUP9 MLOAD PUSH2 0x280 DUP4 ADD MSTORE PUSH1 0x20 DUP10 ADD MLOAD PUSH2 0x2A0 DUP4 ADD MSTORE PUSH1 0x40 DUP10 ADD MLOAD PUSH2 0x2C0 DUP4 ADD MSTORE PUSH1 0x60 DUP10 ADD MLOAD PUSH2 0x2E0 DUP4 ADD MSTORE PUSH1 0x20 DUP3 PUSH2 0x300 DUP5 PUSH1 0x8 PUSH2 0x7D0 GAS SUB STATICCALL DUP3 MLOAD DUP2 AND SWAP4 POP POP POP POP SWAP7 SWAP6 POP POP POP POP POP POP JUMP JUMPDEST PUSH1 0x40 MLOAD PUSH2 0x380 DUP2 ADD PUSH1 0x40 MSTORE PUSH2 0x474 PUSH1 0x0 DUP7 ADD CALLDATALOAD PUSH2 0xCA JUMP JUMPDEST PUSH2 0x481 PUSH1 0x20 DUP7 ADD CALLDATALOAD PUSH2 0xCA JUMP JUMPDEST PUSH2 0x48E PUSH1 0x40 DUP7 ADD CALLDATALOAD PUSH2 0xCA JUMP JUMPDEST PUSH2 0x49B PUSH1 0x60 DUP7 ADD CALLDATALOAD PUSH2 0xCA JUMP JUMPDEST PUSH2 0x4A8 PUSH1 0x80 DUP7 ADD CALLDATALOAD PUSH2 0xCA JUMP JUMPDEST PUSH2 0x4B6 DUP3 DUP3 DUP8 DUP10 DUP12 DUP14 PUSH2 0x169 JUMP JUMPDEST DUP1 PUSH1 0x0 MSTORE PUSH1 0x20 PUSH1 0x0 RETURN JUMPDEST PUSH1 0x0 DUP1 REVERT JUMPDEST PUSH1 0x0 DUP1 REVERT JUMPDEST PUSH1 0x0 DUP2 SWAP1 POP DUP3 PUSH1 0x20 PUSH1 0x2 MUL DUP3 ADD GT ISZERO PUSH2 0x4E6 JUMPI PUSH2 0x4E5 PUSH2 0x4C5 JUMP JUMPDEST JUMPDEST SWAP3 SWAP2 POP POP JUMP JUMPDEST PUSH1 0x0 DUP2 SWAP1 POP DUP3 PUSH1 0x40 PUSH1 0x2 MUL DUP3 ADD GT ISZERO PUSH2 0x508 JUMPI PUSH2 0x507 PUSH2 0x4C5 JUMP JUMPDEST JUMPDEST SWAP3 SWAP2 POP POP JUMP JUMPDEST PUSH1 0x0 DUP2 SWAP1 POP DUP3 PUSH1 0x20 PUSH1 0x4 MUL DUP3 ADD GT ISZERO PUSH2 0x52A JUMPI PUSH2 0x529 PUSH2 0x4C5 JUMP JUMPDEST JUMPDEST SWAP3 SWAP2 POP POP JUMP JUMPDEST PUSH1 0x0 DUP2 SWAP1 POP SWAP2 SWAP1 POP JUMP JUMPDEST PUSH2 0x543 DUP2 PUSH2 0x530 JUMP JUMPDEST DUP2 EQ PUSH2 0x54E JUMPI PUSH1 0x0 DUP1 REVERT JUMPDEST POP JUMP JUMPDEST PUSH1 0x0 DUP2 CALLDATALOAD SWAP1 POP PUSH2 0x560 DUP2 PUSH2 0x53A JUMP JUMPDEST SWAP3 SWAP2 POP POP JUMP JUMPDEST PUSH1 0x0 DUP1 PUSH1 0x0 DUP1 PUSH1 0x0 PUSH2 0x1A0 DUP7 DUP9 SUB SLT ISZERO PUSH2 0x583 JUMPI PUSH2 0x582 PUSH2 0x4C0 JUMP JUMPDEST JUMPDEST PUSH1 0x0 PUSH2 0x591 DUP9 DUP3 DUP10 ADD PUSH2 0x4CA JUMP JUMPDEST SWAP6 POP POP PUSH1 0x40 PUSH2 0x5A2 DUP9 DUP3 DUP10 ADD PUSH2 0x4EC JUMP JUMPDEST SWAP5 POP POP PUSH1 0xC0 PUSH2 0x5B3 DUP9 DUP3 DUP10 ADD PUSH2 0x4CA JUMP JUMPDEST SWAP4 POP POP PUSH2 0x100 PUSH2 0x5C5 DUP9 DUP3 DUP10 ADD PUSH2 0x50E JUMP JUMPDEST SWAP3 POP POP PUSH2 0x180 PUSH2 0x5D7 DUP9 DUP3 DUP10 ADD PUSH2 0x551 JUMP JUMPDEST SWAP2 POP POP SWAP3 SWAP6 POP SWAP3 SWAP6 SWAP1 SWAP4 POP JUMP JUMPDEST PUSH1 0x0 DUP2 ISZERO ISZERO SWAP1 POP SWAP2 SWAP1 POP JUMP JUMPDEST PUSH2 0x5F9 DUP2 PUSH2 0x5E4 JUMP JUMPDEST DUP3 MSTORE POP POP JUMP JUMPDEST PUSH1 0x0 PUSH1 0x20 DUP3 ADD SWAP1 POP PUSH2 0x614 PUSH1 0x0 DUP4 ADD DUP5 PUSH2 0x5F0 JUMP JUMPDEST SWAP3 SWAP2 POP POP JUMP JUMPDEST PUSH32 0x4E487B7100000000000000000000000000000000000000000000000000000000 PUSH1 0x0 MSTORE PUSH1 0x11 PUSH1 0x4 MSTORE PUSH1 0x24 PUSH1 0x0 REVERT JUMPDEST PUSH1 0x0 PUSH2 0x654 DUP3 PUSH2 0x530 JUMP JUMPDEST SWAP2 POP PUSH2 0x65F DUP4 PUSH2 0x530 JUMP JUMPDEST SWAP3 POP DUP3 DUP3 SUB SWAP1 POP DUP2 DUP2 GT ISZERO PUSH2 0x677 JUMPI PUSH2 0x676 PUSH2 0x61A JUMP JUMPDEST JUMPDEST SWAP3 SWAP2 POP POP JUMP JUMPDEST PUSH32 0x4E487B7100000000000000000000000000000000000000000000000000000000 PUSH1 0x0 MSTORE PUSH1 0x32 PUSH1 0x4 MSTORE PUSH1 0x24 PUSH1 0x0 REVERT INVALID LOG2 PUSH5 0x6970667358 0x22 SLT KECCAK256 0x21 DUP3 DUP13 SHL 0xCA 0xEB MULMOD EXTCODESIZE SWAP16 0x21 DUP7 PUSH3 0x227D52 0xB6 SUB 0xDB 0x4E 0xE7 DUP10 0xEE 0x29 0xE2 RETURNDATASIZE DIV 0x2C LOG4 PUSH13 0x6632564736F6C634300081A00 CALLER "
		},
		"gasEstimates": {
			"creation": {
				"codeDepositCost": "352400",
				"executionCost": "infinite",
				"totalCost": "infinite"
			},
			"external": {
				"verifyProof(uint256[2],uint256[2][2],uint256[2],uint256[4],uint256)": "infinite"
			}
		},
		"methodIdentifiers": {
			"verifyProof(uint256[2],uint256[2][2],uint256[2],uint256[4],uint256)": "a23f0199"
		}
	},
	"abi": [
		{
			"inputs": [
				{
					"internalType": "uint256[2]",
					"name": "_pA",
					"type": "uint256[2]"
				},
				{
					"internalType": "uint256[2][2]",
					"name": "_pB",
					"type": "uint256[2][2]"
				},
				{
					"internalType": "uint256[2]",
					"name": "_pC",
					"type": "uint256[2]"
				},
				{
					"internalType": "uint256[4]",
					"name": "_pubSignals",
					"type": "uint256[4]"
				},
				{
					"internalType": "uint256",
					"name": "merkleTreeDepth",
					"type": "uint256"
				}
			],
			"name": "verifyProof",
			"outputs": [
				{
					"internalType": "bool",
					"name": "",
					"type": "bool"
				}
			],
			"stateMutability": "view",
			"type": "function"
		}
	]
}