{
	"data": {
		"bytecode": {
			"linkReferences": {
				"poseidon-solidity/PoseidonT3.sol": {
					"PoseidonT3": [
						{
							"length": 20,
							"start": 12525
						},
						{
							"length": 20,
							"start": 13375
						},
						{
							"length": 20,
							"start": 14080
						},
						{
							"length": 20,
							"start": 14247
						},
						{
							"length": 20,
							"start": 14552
						},
						{
							"length": 20,
							"start": 14719
						}
					]
				}
			},
			"object": "608060405260016006557f01876867f857f982d2202fc296888fb159d38bde6149df817f027eeb4698db77600d557f1aa76366126b963b95cf34f889bddfb84c20fe7d5ed998b75b02489b21ce283e600e5534801561005d57600080fd5b50604051615068380380615068833981810160405281019061007f91906102ab565b8380600360006101000a81548173ffffffffffffffffffffffffffffffffffffffff021916908373ffffffffffffffffffffffffffffffffffffffff1602179055505082601060006101000a81548173ffffffffffffffffffffffffffffffffffffffff021916908373ffffffffffffffffffffffffffffffffffffffff16021790555081600f60006101000a81548173ffffffffffffffffffffffffffffffffffffffff021916908373ffffffffffffffffffffffffffffffffffffffff16021790555080601160006101000a81548173ffffffffffffffffffffffffffffffffffffffff021916908373ffffffffffffffffffffffffffffffffffffffff16021790555050505050610312565b600080fd5b600073ffffffffffffffffffffffffffffffffffffffff82169050919050565b60006101be82610193565b9050919050565b60006101d0826101b3565b9050919050565b6101e0816101c5565b81146101eb57600080fd5b50565b6000815190506101fd816101d7565b92915050565b600061020e826101b3565b9050919050565b61021e81610203565b811461022957600080fd5b50565b60008151905061023b81610215565b92915050565b61024a816101b3565b811461025557600080fd5b50565b60008151905061026781610241565b92915050565b6000610278826101b3565b9050919050565b6102888161026d565b811461029357600080fd5b50565b6000815190506102a58161027f565b92915050565b600080600080608085870312156102c5576102c461018e565b5b60006102d3878288016101ee565b94505060206102e48782880161022c565b93505060406102f587828801610258565b925050606061030687828801610296565b91505092959194509250565b614d47806103216000396000f3fe608060405234801561001057600080fd5b50600436106101fb5760003560e01c806379d11d441161011a578063a9961c94116100ad578063d24924fe1161007c578063d24924fe14610646578063da3cda5214610664578063dabc4d5114610680578063fbd4987e146106b0578063fcf0b6ec146106cc576101fb565b8063a9961c941461059a578063af55ed64146105ca578063b4c609ea146105fa578063d0d898dd1461062a576101fb565b806390be89a9116100e957806390be89a9146104ec578063923fa6fe1461050a57806396324bd41461053a578063a849b7bc1461056a576101fb565b806379d11d44146104405780637ee35a0c1461045c5780638807d3581461048c57806390509d44146104bc576101fb565b8063372098d711610192578063575185ed11610161578063575185ed146103a65780635c3f3b60146103c45780636389e107146103f45780636cdd32fe14610424576101fb565b8063372098d71461030e5780634178c4d51461033e578063456f41881461035a578063568ee8261461038a576101fb565b806324600fc3116101ce57806324600fc3146102865780632b7ac3f3146102905780632c880363146102ae57806335381e26146102de576101fb565b8063042453711461020057806306dd84851461021c57806314d75e9d1461024c5780631783efc31461026a575b600080fd5b61021a600480360381019061021591906138bf565b6106e8565b005b6102366004803603810190610231919061391f565b610729565b604051610243919061396e565b60405180910390f35b610254610757565b604051610261919061396e565b60405180910390f35b610284600480360381019061027f919061391f565b61084d565b005b61028e61088c565b005b610298610999565b6040516102a59190613a08565b60405180910390f35b6102c860048036038101906102c39190613a61565b6109bf565b6040516102d5919061396e565b60405180910390f35b6102f860048036038101906102f39190613aa1565b610a05565b604051610305919061396e565b60405180910390f35b6103286004803603810190610323919061391f565b610d77565b604051610335919061396e565b60405180910390f35b61035860048036038101906103539190613af4565b610db6565b005b610374600480360381019061036f9190613ba1565b610dfb565b6040516103819190613bfd565b60405180910390f35b6103a4600480360381019061039f9190613c18565b611246565b005b6103ae611254565b6040516103bb919061396e565b60405180910390f35b6103de60048036038101906103d99190613c58565b611299565b6040516103eb919061396e565b60405180910390f35b61040e60048036038101906104099190613c85565b6112e0565b60405161041b919061396e565b60405180910390f35b61043e60048036038101906104399190613cb2565b6112ff565b005b61045a60048036038101906104559190613d7c565b611342565b005b61047660048036038101906104719190613c85565b6114b8565b604051610483919061396e565b60405180910390f35b6104a660048036038101906104a19190613df3565b6114d7565b6040516104b39190613bfd565b60405180910390f35b6104d660048036038101906104d1919061391f565b611593565b6040516104e39190613bfd565b60405180910390f35b6104f46115c1565b604051610501919061396e565b60405180910390f35b610524600480360381019061051f9190613c85565b61161d565b604051610531919061396e565b60405180910390f35b610554600480360381019061054f9190613c85565b6118b0565b604051610561919061396e565b60405180910390f35b610584600480360381019061057f9190613c85565b6118ce565b604051610591919061396e565b60405180910390f35b6105b460048036038101906105af9190613c85565b611b1c565b6040516105c19190613e62565b60405180910390f35b6105e460048036038101906105df9190613c85565b611b59565b6040516105f19190613bfd565b60405180910390f35b610614600480360381019061060f9190613fbe565b611b83565b604051610621919061396e565b60405180910390f35b610644600480360381019061063f9190613ba1565b611c98565b005b61064e611de7565b60405161065b919061396e565b60405180910390f35b61067e60048036038101906106799190613c85565b611ded565b005b61069a60048036038101906106959190613c85565b611df9565b6040516106a7919061396e565b60405180910390f35b6106ca60048036038101906106c5919061401a565b611e1c565b005b6106e660048036038101906106e1919061391f565b611f82565b005b60006106f5848484612091565b9050426004600086815260200190815260200160002060010160008381526020019081526020016000208190555050505050565b600061074f826000808681526020019081526020016000206121a890919063ffffffff16565b905092915050565b60008060065461271061076a91906140bb565b90506001600c600083815260200190815260200160002060006101000a81548160ff021916908315150217905550601160009054906101000a900473ffffffffffffffffffffffffffffffffffffffff1673ffffffffffffffffffffffffffffffffffffffff1663a2e338c060036032600c856040518563ffffffff1660e01b81526004016107fc94939291906141a0565b600060405180830381600087803b15801561081657600080fd5b505af115801561082a573d6000803e3d6000fd5b5050505060066000815480929190610841906141e5565b91905055508091505090565b60006108598383612222565b90504260046000858152602001908152602001600020600101600083815260200190815260200160002081905550505050565b60008061271190505b600c600082815260200190815260200160002060009054906101000a900460ff16156108e4576108c48161161d565b826108cf91906140bb565b915080806108dc906141e5565b915050610895565b50601060009054906101000a900473ffffffffffffffffffffffffffffffffffffffff1673ffffffffffffffffffffffffffffffffffffffff1663d5568f98600f60009054906101000a900473ffffffffffffffffffffffffffffffffffffffff16836040518363ffffffff1660e01b815260040161096492919061422d565b600060405180830381600087803b15801561097e57600080fd5b505af1158015610992573d6000803e3d6000fd5b5050505050565b600360009054906101000a900473ffffffffffffffffffffffffffffffffffffffff1681565b6000600560008154809291906109d4906141e5565b9190505590506109e48184612334565b81600460008381526020019081526020016000206000018190555092915050565b6000600c600084815260200190815260200160002060009054906101000a900460ff16610a67576040517f08c379a0000000000000000000000000000000000000000000000000000000008152600401610a5e906142b3565b60405180910390fd5b6000601160009054906101000a900473ffffffffffffffffffffffffffffffffffffffff1673ffffffffffffffffffffffffffffffffffffffff1663632487d1856040518263ffffffff1660e01b8152600401610ac4919061396e565b602060405180830381865afa158015610ae1573d6000803e3d6000fd5b505050506040513d601f19601f82011682018060405250810190610b0591906142e8565b90506000601160009054906101000a900473ffffffffffffffffffffffffffffffffffffffff1673ffffffffffffffffffffffffffffffffffffffff1663e72ed0b2866040518263ffffffff1660e01b8152600401610b64919061396e565b602060405180830381865afa158015610b81573d6000803e3d6000fd5b505050506040513d601f19601f82011682018060405250810190610ba591906142e8565b905060008073ffffffffffffffffffffffffffffffffffffffff16610be36001620186a089610bd49190614315565b610bde91906140bb565b611b1c565b73ffffffffffffffffffffffffffffffffffffffff1603610c64574260076000888152602001908152602001600020819055506001620186a087610c279190614315565b610c3191906140bb565b9050610c5f81600f60009054906101000a900473ffffffffffffffffffffffffffffffffffffffff16612334565b610cb7565b6000600760008881526020019081526020016000205490506000610c968242610c8d9190614357565b62015180610d77565b905080620186a089610ca89190614315565b610cb291906140bb565b925050505b601060009054906101000a900473ffffffffffffffffffffffffffffffffffffffff1673ffffffffffffffffffffffffffffffffffffffff16633184b9fd863086600c87610d059190614315565b610d0f91906140bb565b6040518463ffffffff1660e01b8152600401610d2d9392919061438b565b600060405180830381600087803b158015610d4757600080fd5b505af1158015610d5b573d6000803e3d6000fd5b50505050610d698188612222565b508093505050509392505050565b6000808284610d8691906143f1565b14610d92576001610d95565b60005b60ff168284610da49190614422565b610dae91906140bb565b905092915050565b6000610dc58686868686612413565b90504260046000888152602001908152602001600020600101600083815260200190815260200160002081905550505050505050565b600082600073ffffffffffffffffffffffffffffffffffffffff166001600083815260200190815260200160002060009054906101000a900473ffffffffffffffffffffffffffffffffffffffff1673ffffffffffffffffffffffffffffffffffffffff1603610e97576040517f029f057900000000000000000000000000000000000000000000000000000000815260040160405180910390fd5b600160ff1683600001351080610eb45750600c60ff168360000135115b15610eeb576040517fecf64f1200000000000000000000000000000000000000000000000000000000815260040160405180910390fd5b6000610ef6856114b8565b905060008103610f32576040517fc8b02e0100000000000000000000000000000000000000000000000000000000815260040160405180910390fd5b6000610f3d86611df9565b9050808560200135146110175760006004600088815260200190815260200160002060010160008760200135815260200190815260200160002054905060006004600089815260200190815260200160002060000154905060008203610fcf576040517f4d32958600000000000000000000000000000000000000000000000000000000815260040160405180910390fd5b8082610fdb91906140bb565b421115611014576040517f9581a99000000000000000000000000000000000000000000000000000000000815260040160405180910390fd5b50505b600360009054906101000a900473ffffffffffffffffffffffffffffffffffffffff1673ffffffffffffffffffffffffffffffffffffffff1663a23f019960405180604001604052808860a00160006008811061107757611076614453565b5b602002013581526020018860a00160016008811061109857611097614453565b5b6020020135815250604051806040016040528060405180604001604052808b60a0016002600881106110cd576110cc614453565b5b602002013581526020018b60a0016003600881106110ee576110ed614453565b5b6020020135815250815260200160405180604001604052808b60a00160046008811061111d5761111c614453565b5b602002013581526020018b60a00160056008811061113e5761113d614453565b5b602002013581525081525060405180604001604052808a60a00160066008811061116b5761116a614453565b5b602002013581526020018a60a00160076008811061118c5761118b614453565b5b602002013581525060405180608001604052808b6020013581526020018b6040013581526020016111c08c6060013561254b565b81526020016111d28c6080013561254b565b8152508a600001356040518663ffffffff1660e01b81526004016111fa9594939291906146af565b602060405180830381865afa158015611217573d6000803e3d6000fd5b505050506040513d601f19601f8201168201806040525081019061123b9190614731565b935050505092915050565b6112508282612582565b5050565b600060056000815480929190611269906141e5565b9190505590506112798133612334565b610e10600460008381526020019081526020016000206000018190555090565b6000600560008154809291906112ae906141e5565b9190505590506112be8183612334565b610e106004600083815260200190815260200160002060000181905550919050565b6000806000838152602001908152602001600020600101549050919050565b600061130d858585856126cd565b905042600460008781526020019081526020016000206001016000838152602001908152602001600020819055505050505050565b600e5484608001351461138a576040517f08c379a0000000000000000000000000000000000000000000000000000000008152600401611381906147aa565b60405180910390fd5b600c600084815260200190815260200160002060009054906101000a900460ff166113ea576040517f08c379a00000000000000000000000000000000000000000000000000000000081526004016113e1906142b3565b60405180910390fd5b600060076000858152602001908152602001600020549050600061141c82426114139190614357565b62015180610d77565b90506001811115611462576040517f08c379a000000000000000000000000000000000000000000000000000000000815260040161145990614816565b60405180910390fd5b600081620186a0876114749190614315565b61147e91906140bb565b905061148a8188611c98565b80600a868660405161149d929190614866565b90815260200160405180910390208190555050505050505050565b6000806000838152602001908152602001600020600001549050919050565b600080600a84846040516114ec929190614866565b90815260200160405180910390205490506000810361150f57600091505061158c565b6000620186a0866115209190614315565b8261152b9190614357565b9050600061155a6007600089815260200190815260200160002054426115519190614357565b62014a78610d77565b9050600061016d838361156d9190614357565b119050801561158357600094505050505061158c565b60019450505050505b9392505050565b60006115b98260008086815260200190815260200160002061280090919063ffffffff16565b905092915050565b60008061271190505b600c600082815260200190815260200160002060009054906101000a900460ff1615611619576115f9816118ce565b8261160491906140bb565b91508080611611906141e5565b9150506115ca565b5090565b60008061164b6007600085815260200190815260200160002054426116429190614357565b62014a78610d77565b905060006001620186a0856116609190614315565b61166a91906140bb565b90506000806009600087815260200190815260200160002054600161168f91906140bb565b905060006116a982866116a29190614357565b601e610d77565b9050600c8111156116b957600c90505b60008290505b858110156117e45760006116d2866114b8565b036116ea5784806116e2906141e5565b9550506117d7565b600061171582600860008c81526020019081526020016000205461170e9190614357565b601e610d77565b9050600c81111561172557600c90505b80836117319190614357565b600b60008881526020019081526020016000205461174e886114b8565b6117589190614357565b6117629190614315565b8561176d91906140bb565b9450858061177a906141e5565b965050600c831061179e5781600960008b8152602001908152602001600020819055505b600c6117b683896117af9190614357565b601e610d77565b10156117d5576117d282886117cb9190614357565b601e610d77565b92505b505b80806001019150506116bf565b50846008600089815260200190815260200160002081905550601160009054906101000a900473ffffffffffffffffffffffffffffffffffffffff1673ffffffffffffffffffffffffffffffffffffffff1663e72ed0b2886040518263ffffffff1660e01b8152600401611858919061396e565b602060405180830381865afa158015611875573d6000803e3d6000fd5b505050506040513d601f19601f8201168201806040525081019061189991906142e8565b836118a49190614315565b95505050505050919050565b60046020528060005260406000206000915090508060000154905081565b6000806118fc6007600085815260200190815260200160002054426118f39190614357565b62014a78610d77565b905060006001620186a0856119119190614315565b61191b91906140bb565b905060008060096000878152602001908152602001600020549050600061194e82866119479190614357565b601e610d77565b9050600c81111561195e57600c90505b60008290505b85811015611a68576000611977866114b8565b0361198f578480611987906141e5565b955050611a5b565b60006119ba82600860008c8152602001908152602001600020546119b39190614357565b601e610d77565b9050600c8111156119ca57600c90505b80836119d69190614357565b600b6000888152602001908152602001600020546119f3886114b8565b6119fd9190614357565b611a079190614315565b85611a1291906140bb565b94508580611a1f906141e5565b965050600c611a3a8389611a339190614357565b601e610d77565b1015611a5957611a568288611a4f9190614357565b601e610d77565b92505b505b8080600101915050611964565b50601160009054906101000a900473ffffffffffffffffffffffffffffffffffffffff1673ffffffffffffffffffffffffffffffffffffffff1663e72ed0b2886040518263ffffffff1660e01b8152600401611ac4919061396e565b602060405180830381865afa158015611ae1573d6000803e3d6000fd5b505050506040513d601f19601f82011682018060405250810190611b0591906142e8565b83611b109190614315565b95505050505050919050565b60006001600083815260200190815260200160002060009054906101000a900473ffffffffffffffffffffffffffffffffffffffff169050919050565b6000600c600083815260200190815260200160002060009054906101000a900460ff169050919050565b600080600a83604051611b9691906148e5565b90815260200160405180910390205490506000620186a085611bb89190614315565b82611bc39190614357565b90506000611bd282601e610d77565b600c611bde9190614357565b90506000601160009054906101000a900473ffffffffffffffffffffffffffffffffffffffff1673ffffffffffffffffffffffffffffffffffffffff1663e72ed0b2886040518263ffffffff1660e01b8152600401611c3d919061396e565b602060405180830381865afa158015611c5a573d6000803e3d6000fd5b505050506040513d601f19601f82011682018060405250810190611c7e91906142e8565b90508181611c8c9190614315565b94505050505092915050565b6004600083815260200190815260200160002060020160008260400135815260200190815260200160002060009054906101000a900460ff1615611d08576040517f208b15e800000000000000000000000000000000000000000000000000000000815260040160405180910390fd5b611d128282610dfb565b611d48576040517f4aa6bc4000000000000000000000000000000000000000000000000000000000815260040160405180910390fd5b60016004600084815260200190815260200160002060020160008360400135815260200190815260200160002060006101000a81548160ff02191690831515021790555080608001358160200135837f0c32e14cfe81a05d371c248d22de6b7ae849e981b76a1f8842e7b6da73fc405a8460000135856040013586606001358760a001604051611ddb9493929190614916565b60405180910390a45050565b60055481565b611df681612823565b50565b6000611e156000808481526020019081526020016000206129da565b9050919050565b600d54836080013514611e64576040517f08c379a0000000000000000000000000000000000000000000000000000000008152600401611e5b906147aa565b60405180910390fd5b611e6e8284611c98565b6000611e7a8383611b83565b9050601060009054906101000a900473ffffffffffffffffffffffffffffffffffffffff1673ffffffffffffffffffffffffffffffffffffffff1663d5568f9833836040518363ffffffff1660e01b8152600401611ed992919061422d565b600060405180830381600087803b158015611ef357600080fd5b505af1158015611f07573d6000803e3d6000fd5b505050506000600a83604051611f1d91906148e5565b9081526020016040518091039020549050600b60008281526020019081526020016000206000815480929190611f52906141e5565b91905055506000600a84604051611f6991906148e5565b9081526020016040518091039020819055505050505050565b813373ffffffffffffffffffffffffffffffffffffffff166001600083815260200190815260200160002060009054906101000a900473ffffffffffffffffffffffffffffffffffffffff1673ffffffffffffffffffffffffffffffffffffffff161461201b576040517fbb9bf27800000000000000000000000000000000000000000000000000000000815260040160405180910390fd5b600060046000858152602001908152602001600020600001549050826004600086815260200190815260200160002060000181905550837f264b2a8f6763c084235fe832ba903482b2ef1a521336881fc75b987c2dfd29c5828560405161208392919061495c565b60405180910390a250505050565b6000833373ffffffffffffffffffffffffffffffffffffffff166001600083815260200190815260200160002060009054906101000a900473ffffffffffffffffffffffffffffffffffffffff1673ffffffffffffffffffffffffffffffffffffffff161461212c576040517fbb9bf27800000000000000000000000000000000000000000000000000000000815260040160405180910390fd5b6000612137866114b8565b905061215f85856000808a81526020019081526020016000206129fd9092919063ffffffff16565b9250857f61e5e8054e3daf084a0c6c646c065e8bf5e7ca4d5567bda942309bd1652f349d8287878760405161219794939291906149f7565b60405180910390a250509392505050565b60008083600301600084815260200190815260200160002054036121f8576040517f7204756c00000000000000000000000000000000000000000000000000000000815260040160405180910390fd5b60018360030160008481526020019081526020016000205461221a9190614357565b905092915050565b6000823373ffffffffffffffffffffffffffffffffffffffff166001600083815260200190815260200160002060009054906101000a900473ffffffffffffffffffffffffffffffffffffffff1673ffffffffffffffffffffffffffffffffffffffff16146122bd576040517fbb9bf27800000000000000000000000000000000000000000000000000000000815260040160405180910390fd5b60006122c8856114b8565b90506122ee84600080888152602001908152602001600020612fe190919063ffffffff16565b9250847f19239b3f93cd10558aaf11423af70c77763bf54f52bcc75bfa74d4d13548cde982868660405161232493929190614a37565b60405180910390a2505092915050565b806001600084815260200190815260200160002060006101000a81548173ffffffffffffffffffffffffffffffffffffffff021916908373ffffffffffffffffffffffffffffffffffffffff160217905550817ff0adfb94eab6daf835deb69c5738fe636150c3dfd08094a76f39b963dc8cb05a60405160405180910390a28073ffffffffffffffffffffffffffffffffffffffff16600073ffffffffffffffffffffffffffffffffffffffff16837f0ba83579a0e79193ef649b9f5a8759d35af086ba62a3e207b52e4a8ae30d49e360405160405180910390a45050565b6000853373ffffffffffffffffffffffffffffffffffffffff166001600083815260200190815260200160002060009054906101000a900473ffffffffffffffffffffffffffffffffffffffff1673ffffffffffffffffffffffffffffffffffffffff16146124ae576040517fbb9bf27800000000000000000000000000000000000000000000000000000000815260040160405180910390fd5b60006124d4876000808b81526020019081526020016000206121a890919063ffffffff16565b9050612500878787876000808e815260200190815260200160002061324090949392919063ffffffff16565b9250877fea3588e4a2a0c93d6a0e69dfeaf7496f43ccccf02ad9ce0a5b7627cbca4b61b1828989876040516125389493929190614a6e565b60405180910390a2505095945050505050565b60006008826040516020016125609190614ad4565b6040516020818303038152906040528051906020012060001c901c9050919050565b813373ffffffffffffffffffffffffffffffffffffffff166001600083815260200190815260200160002060009054906101000a900473ffffffffffffffffffffffffffffffffffffffff1673ffffffffffffffffffffffffffffffffffffffff161461261b576040517fbb9bf27800000000000000000000000000000000000000000000000000000000815260040160405180910390fd5b816002600085815260200190815260200160002060006101000a81548173ffffffffffffffffffffffffffffffffffffffff021916908373ffffffffffffffffffffffffffffffffffffffff1602179055508173ffffffffffffffffffffffffffffffffffffffff163373ffffffffffffffffffffffffffffffffffffffff16847f1018365553cce55d9cb02ef73e18cc9311894f3fe1d1eafd235ac2d26cd8ba5860405160405180910390a4505050565b6000843373ffffffffffffffffffffffffffffffffffffffff166001600083815260200190815260200160002060009054906101000a900473ffffffffffffffffffffffffffffffffffffffff1673ffffffffffffffffffffffffffffffffffffffff1614612768576040517fbb9bf27800000000000000000000000000000000000000000000000000000000815260040160405180910390fd5b600061278e866000808a81526020019081526020016000206121a890919063ffffffff16565b90506127b88686866000808c81526020019081526020016000206137f6909392919063ffffffff16565b9250867f3108849c053c77b8073a11256dffb5ffd5b55e93e105a355e1c9061db890d8718288866040516127ee93929190614a37565b60405180910390a25050949350505050565b600080836003016000848152602001908152602001600020541415905092915050565b3373ffffffffffffffffffffffffffffffffffffffff166002600083815260200190815260200160002060009054906101000a900473ffffffffffffffffffffffffffffffffffffffff1673ffffffffffffffffffffffffffffffffffffffff16146128bb576040517f34c4245d00000000000000000000000000000000000000000000000000000000815260040160405180910390fd5b60006001600083815260200190815260200160002060009054906101000a900473ffffffffffffffffffffffffffffffffffffffff169050336001600084815260200190815260200160002060006101000a81548173ffffffffffffffffffffffffffffffffffffffff021916908373ffffffffffffffffffffffffffffffffffffffff1602179055506002600083815260200190815260200160002060006101000a81549073ffffffffffffffffffffffffffffffffffffffff02191690553373ffffffffffffffffffffffffffffffffffffffff168173ffffffffffffffffffffffffffffffffffffffff16837f0ba83579a0e79193ef649b9f5a8759d35af086ba62a3e207b52e4a8ae30d49e360405160405180910390a45050565b600081600201600083600101548152602001908152602001600020549050919050565b6000808460000154905060005b84849050811015612b89577f30644e72e131a029b85045b68181585d2833e84879b9709143e1f593f0000001858583818110612a4957612a48614453565b5b9050602002013510612a87576040517fc380a82e00000000000000000000000000000000000000000000000000000000815260040160405180910390fd5b6000858583818110612a9c57612a9b614453565b5b9050602002013503612ada576040517f29691be200000000000000000000000000000000000000000000000000000000815260040160405180910390fd5b612afd86868684818110612af157612af0614453565b5b90506020020135612800565b15612b34576040517f258a195a00000000000000000000000000000000000000000000000000000000815260040160405180910390fd5b80600183612b4291906140bb565b612b4c91906140bb565b866003016000878785818110612b6557612b64614453565b5b90506020020135815260200190815260200160002081905550806001019050612a0a565b506060848480806020026020016040519081016040528093929190818152602001838360200280828437600081840152601f19601f8201169050808301925050505050505090506000866001015490505b8585905083612be991906140bb565b816002612bf69190614c22565b1015612c0d5780612c06906141e5565b9050612bda565b808760010181905550600083905060008787905085612c2c91906140bb565b90506000600183901c90506000600180600185612c499190614357565b901c612c5591906140bb565b905060005b85811015612f685760008383612c709190614357565b905060008167ffffffffffffffff811115612c8e57612c8d613e93565b5b604051908082528060200260200182016040528015612cbc5781602001602082028036833780820191505090505b50905060005b82811015612e8f5760008860028884612cdb91906140bb565b612ce59190614315565b1015612d08578f6002016000868152602001908152602001600020549050612d48565b8a8960028985612d1891906140bb565b612d229190614315565b612d2c9190614357565b81518110612d3d57612d3c614453565b5b602002602001015190505b600088600160028a86612d5b91906140bb565b612d659190614315565b612d6f91906140bb565b1015612dc1578b8a600160028b87612d8791906140bb565b612d919190614315565b612d9b91906140bb565b612da59190614357565b81518110612db657612db5614453565b5b602002602001015190505b6000808214612e5d5773__$75f79a42d9bcbdbb69ad79ebd80f556f39$__63561558fe6040518060400160405280868152602001858152506040518263ffffffff1660e01b8152600401612e159190614cf6565b602060405180830381865af4158015612e32573d6000803e3d6000fd5b505050506040513d601f19601f82011682018060405250810190612e5691906142e8565b9050612e61565b8290505b80858581518110612e7557612e74614453565b5b602002602001018181525050836001019350505050612cc2565b50600180871603612ee0578860018a51612ea99190614357565b81518110612eba57612eb9614453565b5b60200260200101518e600201600085815260200190815260200160002081905550612f2d565b600189511115612f2c578860028a51612ef99190614357565b81518110612f0a57612f09614453565b5b60200260200101518e6002016000858152602001908152602001600020819055505b5b849650600185901c9450809850839550600180600186612f4d9190614357565b901c612f5991906140bb565b93508260010192505050612c5a565b508989905087612f7891906140bb565b8b6000018190555085600081518110612f9457612f93614453565b5b60200260200101518b60020160008781526020019081526020016000208190555085600081518110612fc957612fc8614453565b5b60200260200101519750505050505050509392505050565b60007f30644e72e131a029b85045b68181585d2833e84879b9709143e1f593f0000001821061303c576040517fc380a82e00000000000000000000000000000000000000000000000000000000815260040160405180910390fd5b60008203613076576040517f29691be200000000000000000000000000000000000000000000000000000000815260040160405180910390fd5b6130808383612800565b156130b7576040517f258a195a00000000000000000000000000000000000000000000000000000000815260040160405180910390fd5b6000836000015490506000846001015490506001826130d691906140bb565b8160026130e39190614c22565b10156130f657806130f3906141e5565b90505b808560010181905550600084905060005b828110156131ea576001808286901c16036131c45773__$75f79a42d9bcbdbb69ad79ebd80f556f39$__63561558fe60405180604001604052808a6002016000868152602001908152602001600020548152602001858152506040518263ffffffff1660e01b815260040161317c9190614cf6565b602060405180830381865af4158015613199573d6000803e3d6000fd5b505050506040513d601f19601f820116820180604052508101906131bd91906142e8565b91506131df565b81876002016000838152602001908152602001600020819055505b806001019050613107565b50826131f5906141e5565b92508286600001819055508086600201600084815260200190815260200160002081905550828660030160008781526020019081526020016000208190555080935050505092915050565b60007f30644e72e131a029b85045b68181585d2833e84879b9709143e1f593f0000001841061329b576040517fc380a82e00000000000000000000000000000000000000000000000000000000815260040160405180910390fd5b6132a58686612800565b6132db576040517f7204756c00000000000000000000000000000000000000000000000000000000815260040160405180910390fd5b6132e58685612800565b1561331c576040517f258a195a00000000000000000000000000000000000000000000000000000000815260040160405180910390fd5b600061332887876121a8565b905060008590506000879050600060018a600001546133479190614357565b90506000808b60010154905060005b81811015613735576001808289901c1603613536577f30644e72e131a029b85045b68181585d2833e84879b9709143e1f593f00000018a8a8581811061339f5761339e614453565b5b90506020020135106133dd576040517fc380a82e00000000000000000000000000000000000000000000000000000000815260040160405180910390fd5b73__$75f79a42d9bcbdbb69ad79ebd80f556f39$__63561558fe60405180604001604052808d8d8881811061341557613414614453565b5b905060200201358152602001898152506040518263ffffffff1660e01b81526004016134419190614cf6565b602060405180830381865af415801561345e573d6000803e3d6000fd5b505050506040513d601f19601f8201168201806040525081019061348291906142e8565b955073__$75f79a42d9bcbdbb69ad79ebd80f556f39$__63561558fe60405180604001604052808d8d888181106134bc576134bb614453565b5b905060200201358152602001888152506040518263ffffffff1660e01b81526004016134e89190614cf6565b602060405180830381865af4158015613505573d6000803e3d6000fd5b505050506040513d601f19601f8201168201806040525081019061352991906142e8565b945082600101925061372a565b8084901c8188901c1461370e577f30644e72e131a029b85045b68181585d2833e84879b9709143e1f593f00000018a8a8581811061357757613576614453565b5b90506020020135106135b5576040517fc380a82e00000000000000000000000000000000000000000000000000000000815260040160405180910390fd5b73__$75f79a42d9bcbdbb69ad79ebd80f556f39$__63561558fe60405180604001604052808981526020018d8d888181106135f3576135f2614453565b5b905060200201358152506040518263ffffffff1660e01b81526004016136199190614cf6565b602060405180830381865af4158015613636573d6000803e3d6000fd5b505050506040513d601f19601f8201168201806040525081019061365a91906142e8565b955073__$75f79a42d9bcbdbb69ad79ebd80f556f39$__63561558fe60405180604001604052808881526020018d8d8881811061369a57613699614453565b5b905060200201358152506040518263ffffffff1660e01b81526004016136c09190614cf6565b602060405180830381865af41580156136dd573d6000803e3d6000fd5b505050506040513d601f19601f8201168201806040525081019061370191906142e8565b9450826001019250613729565b858d6002016000858152602001908152602001600020819055505b5b806001019050613356565b5061373f8c6129da565b8414613777576040517f3fa930c600000000000000000000000000000000000000000000000000000000815260040160405180910390fd5b848c60020160008381526020019081526020016000208190555060008a146137c9578b60030160008c8152602001908152602001600020548c60030160008c8152602001908152602001600020819055505b60008c60030160008d81526020019081526020016000208190555084965050505050505095945050505050565b6000613806858560008686613240565b9050949350505050565b6000604051905090565b600080fd5b600080fd5b6000819050919050565b61383781613824565b811461384257600080fd5b50565b6000813590506138548161382e565b92915050565b600080fd5b600080fd5b600080fd5b60008083601f84011261387f5761387e61385a565b5b8235905067ffffffffffffffff81111561389c5761389b61385f565b5b6020830191508360208202830111156138b8576138b7613864565b5b9250929050565b6000806000604084860312156138d8576138d761381a565b5b60006138e686828701613845565b935050602084013567ffffffffffffffff8111156139075761390661381f565b5b61391386828701613869565b92509250509250925092565b600080604083850312156139365761393561381a565b5b600061394485828601613845565b925050602061395585828601613845565b9150509250929050565b61396881613824565b82525050565b6000602082019050613983600083018461395f565b92915050565b600073ffffffffffffffffffffffffffffffffffffffff82169050919050565b6000819050919050565b60006139ce6139c96139c484613989565b6139a9565b613989565b9050919050565b60006139e0826139b3565b9050919050565b60006139f2826139d5565b9050919050565b613a02816139e7565b82525050565b6000602082019050613a1d60008301846139f9565b92915050565b6000613a2e82613989565b9050919050565b613a3e81613a23565b8114613a4957600080fd5b50565b600081359050613a5b81613a35565b92915050565b60008060408385031215613a7857613a7761381a565b5b6000613a8685828601613a4c565b9250506020613a9785828601613845565b9150509250929050565b600080600060608486031215613aba57613ab961381a565b5b6000613ac886828701613845565b9350506020613ad986828701613845565b9250506040613aea86828701613a4c565b9150509250925092565b600080600080600060808688031215613b1057613b0f61381a565b5b6000613b1e88828901613845565b9550506020613b2f88828901613845565b9450506040613b4088828901613845565b935050606086013567ffffffffffffffff811115613b6157613b6061381f565b5b613b6d88828901613869565b92509250509295509295909350565b600080fd5b60006101a08284031215613b9857613b97613b7c565b5b81905092915050565b6000806101c08385031215613bb957613bb861381a565b5b6000613bc785828601613845565b9250506020613bd885828601613b81565b9150509250929050565b60008115159050919050565b613bf781613be2565b82525050565b6000602082019050613c126000830184613bee565b92915050565b60008060408385031215613c2f57613c2e61381a565b5b6000613c3d85828601613845565b9250506020613c4e85828601613a4c565b9150509250929050565b600060208284031215613c6e57613c6d61381a565b5b6000613c7c84828501613a4c565b91505092915050565b600060208284031215613c9b57613c9a61381a565b5b6000613ca984828501613845565b91505092915050565b60008060008060608587031215613ccc57613ccb61381a565b5b6000613cda87828801613845565b9450506020613ceb87828801613845565b935050604085013567ffffffffffffffff811115613d0c57613d0b61381f565b5b613d1887828801613869565b925092505092959194509250565b60008083601f840112613d3c57613d3b61385a565b5b8235905067ffffffffffffffff811115613d5957613d5861385f565b5b602083019150836001820283011115613d7557613d74613864565b5b9250929050565b6000806000806101e08587031215613d9757613d9661381a565b5b6000613da587828801613b81565b9450506101a0613db787828801613845565b9350506101c085013567ffffffffffffffff811115613dd957613dd861381f565b5b613de587828801613d26565b925092505092959194509250565b600080600060408486031215613e0c57613e0b61381a565b5b6000613e1a86828701613845565b935050602084013567ffffffffffffffff811115613e3b57613e3a61381f565b5b613e4786828701613d26565b92509250509250925092565b613e5c81613a23565b82525050565b6000602082019050613e776000830184613e53565b92915050565b600080fd5b6000601f19601f8301169050919050565b7f4e487b7100000000000000000000000000000000000000000000000000000000600052604160045260246000fd5b613ecb82613e82565b810181811067ffffffffffffffff82111715613eea57613ee9613e93565b5b80604052505050565b6000613efd613810565b9050613f098282613ec2565b919050565b600067ffffffffffffffff821115613f2957613f28613e93565b5b613f3282613e82565b9050602081019050919050565b82818337600083830152505050565b6000613f61613f5c84613f0e565b613ef3565b905082815260208101848484011115613f7d57613f7c613e7d565b5b613f88848285613f3f565b509392505050565b600082601f830112613fa557613fa461385a565b5b8135613fb5848260208601613f4e565b91505092915050565b60008060408385031215613fd557613fd461381a565b5b6000613fe385828601613845565b925050602083013567ffffffffffffffff8111156140045761400361381f565b5b61401085828601613f90565b9150509250929050565b60008060006101e084860312156140345761403361381a565b5b600061404286828701613b81565b9350506101a061405486828701613845565b9250506101c084013567ffffffffffffffff8111156140765761407561381f565b5b61408286828701613f90565b9150509250925092565b7f4e487b7100000000000000000000000000000000000000000000000000000000600052601160045260246000fd5b60006140c682613824565b91506140d183613824565b92508282019050808211156140e9576140e861408c565b5b92915050565b6000819050919050565b600061411461410f61410a846140ef565b6139a9565b613824565b9050919050565b614124816140f9565b82525050565b6000819050919050565b600061414f61414a6141458461412a565b6139a9565b613824565b9050919050565b61415f81614134565b82525050565b6000819050919050565b600061418a61418561418084614165565b6139a9565b613824565b9050919050565b61419a8161416f565b82525050565b60006080820190506141b5600083018761411b565b6141c26020830186614156565b6141cf6040830185614191565b6141dc606083018461395f565b95945050505050565b60006141f082613824565b91507fffffffffffffffffffffffffffffffffffffffffffffffffffffffffffffffff82036142225761422161408c565b5b600182019050919050565b60006040820190506142426000830185613e53565b61424f602083018461395f565b9392505050565b600082825260208201905092915050565b7f70726f6475637420646f65736e74206578697374000000000000000000000000600082015250565b600061429d601483614256565b91506142a882614267565b602082019050919050565b600060208201905081810360008301526142cc81614290565b9050919050565b6000815190506142e28161382e565b92915050565b6000602082840312156142fe576142fd61381a565b5b600061430c848285016142d3565b91505092915050565b600061432082613824565b915061432b83613824565b925082820261433981613824565b915082820484148315176143505761434f61408c565b5b5092915050565b600061436282613824565b915061436d83613824565b92508282039050818111156143855761438461408c565b5b92915050565b60006060820190506143a06000830186613e53565b6143ad6020830185613e53565b6143ba604083018461395f565b949350505050565b7f4e487b7100000000000000000000000000000000000000000000000000000000600052601260045260246000fd5b60006143fc82613824565b915061440783613824565b925082614417576144166143c2565b5b828206905092915050565b600061442d82613824565b915061443883613824565b925082614448576144476143c2565b5b828204905092915050565b7f4e487b7100000000000000000000000000000000000000000000000000000000600052603260045260246000fd5b600060029050919050565b600081905092915050565b6000819050919050565b6144ab81613824565b82525050565b60006144bd83836144a2565b60208301905092915050565b6000602082019050919050565b6144df81614482565b6144e9818461448d565b92506144f482614498565b8060005b8381101561452557815161450c87826144b1565b9650614517836144c9565b9250506001810190506144f8565b505050505050565b600060029050919050565b600081905092915050565b6000819050919050565b600081905092915050565b61456181614482565b61456b818461454d565b925061457682614498565b8060005b838110156145a757815161458e87826144b1565b9650614599836144c9565b92505060018101905061457a565b505050505050565b60006145bb8383614558565b60408301905092915050565b6000602082019050919050565b6145dd8161452d565b6145e78184614538565b92506145f282614543565b8060005b8381101561462357815161460a87826145af565b9650614615836145c7565b9250506001810190506145f6565b505050505050565b600060049050919050565b600081905092915050565b6000819050919050565b6000602082019050919050565b6146618161462b565b61466b8184614636565b925061467682614641565b8060005b838110156146a757815161468e87826144b1565b96506146998361464b565b92505060018101905061467a565b505050505050565b60006101a0820190506146c560008301886144d6565b6146d260408301876145d4565b6146df60c08301866144d6565b6146ed610100830185614658565b6146fb61018083018461395f565b9695505050505050565b61470e81613be2565b811461471957600080fd5b50565b60008151905061472b81614705565b92915050565b6000602082840312156147475761474661381a565b5b60006147558482850161471c565b91505092915050565b7f6e756c6c6966696572206e6f7420636f72726563740000000000000000000000600082015250565b6000614794601583614256565b915061479f8261475e565b602082019050919050565b600060208201905081810360008301526147c381614787565b9050919050565b7f746f6f206c617465206d616e0000000000000000000000000000000000000000600082015250565b6000614800600c83614256565b915061480b826147ca565b602082019050919050565b6000602082019050818103600083015261482f816147f3565b9050919050565b600081905092915050565b600061484d8385614836565b935061485a838584613f3f565b82840190509392505050565b6000614873828486614841565b91508190509392505050565b600081519050919050565b60005b838110156148a857808201518184015260208101905061488d565b60008484015250505050565b60006148bf8261487f565b6148c98185614836565b93506148d981856020860161488a565b80840191505092915050565b60006148f182846148b4565b915081905092915050565b82818337505050565b61491261010083836148fc565b5050565b60006101608201905061492c600083018761395f565b614939602083018661395f565b614946604083018561395f565b6149536060830184614905565b95945050505050565b6000604082019050614971600083018561395f565b61497e602083018461395f565b9392505050565b600082825260208201905092915050565b600080fd5b60006149a78385614985565b93507f07ffffffffffffffffffffffffffffffffffffffffffffffffffffffffffffff8311156149da576149d9614996565b5b6020830292506149eb8385846148fc565b82840190509392505050565b6000606082019050614a0c600083018761395f565b8181036020830152614a1f81858761499b565b9050614a2e604083018461395f565b95945050505050565b6000606082019050614a4c600083018661395f565b614a59602083018561395f565b614a66604083018461395f565b949350505050565b6000608082019050614a83600083018761395f565b614a90602083018661395f565b614a9d604083018561395f565b614aaa606083018461395f565b95945050505050565b6000819050919050565b614ace614ac982613824565b614ab3565b82525050565b6000614ae08284614abd565b60208201915081905092915050565b60008160011c9050919050565b6000808291508390505b6001851115614b4657808604811115614b2257614b2161408c565b5b6001851615614b315780820291505b8081029050614b3f85614aef565b9450614b06565b94509492505050565b600082614b5f5760019050614c1b565b81614b6d5760009050614c1b565b8160018114614b835760028114614b8d57614bbc565b6001915050614c1b565b60ff841115614b9f57614b9e61408c565b5b8360020a915084821115614bb657614bb561408c565b5b50614c1b565b5060208310610133831016604e8410600b8410161715614bf15782820a905083811115614bec57614beb61408c565b5b614c1b565b614bfe8484846001614afc565b92509050818404811115614c1557614c1461408c565b5b81810290505b9392505050565b6000614c2d82613824565b9150614c3883613824565b9250614c657fffffffffffffffffffffffffffffffffffffffffffffffffffffffffffffffff8484614b4f565b905092915050565b600081905092915050565b614c8181613824565b82525050565b6000614c938383614c78565b60208301905092915050565b614ca881614482565b614cb28184614c6d565b9250614cbd82614498565b8060005b83811015614cee578151614cd58782614c87565b9650614ce0836144c9565b925050600181019050614cc1565b505050505050565b6000604082019050614d0b6000830184614c9f565b9291505056fea26469706673582212206d8872f34b997578326ae09408adf5438bc14cb09257d64c18783a66febf219c64736f6c634300081a0033",
			"opcodes": "PUSH1 0x80 PUSH1 0x40 MSTORE PUSH1 0x1 PUSH1 0x6 SSTORE PUSH32 0x1876867F857F982D2202FC296888FB159D38BDE6149DF817F027EEB4698DB77 PUSH1 0xD SSTORE PUSH32 0x1AA76366126B963B95CF34F889BDDFB84C20FE7D5ED998B75B02489B21CE283E PUSH1 0xE SSTORE CALLVALUE DUP1 ISZERO PUSH2 0x5D JUMPI PUSH1 0x0 DUP1 REVERT JUMPDEST POP PUSH1 0x40 MLOAD PUSH2 0x5068 CODESIZE SUB DUP1 PUSH2 0x5068 DUP4 CODECOPY DUP2 DUP2 ADD PUSH1 0x40 MSTORE DUP2 ADD SWAP1 PUSH2 0x7F SWAP2 SWAP1 PUSH2 0x2AB JUMP JUMPDEST DUP4 DUP1 PUSH1 0x3 PUSH1 0x0 PUSH2 0x100 EXP DUP2 SLOAD DUP2 PUSH20 0xFFFFFFFFFFFFFFFFFFFFFFFFFFFFFFFFFFFFFFFF MUL NOT AND SWAP1 DUP4 PUSH20 0xFFFFFFFFFFFFFFFFFFFFFFFFFFFFFFFFFFFFFFFF AND MUL OR SWAP1 SSTORE POP POP DUP3 PUSH1 0x10 PUSH1 0x0 PUSH2 0x100 EXP DUP2 SLOAD DUP2 PUSH20 0xFFFFFFFFFFFFFFFFFFFFFFFFFFFFFFFFFFFFFFFF MUL NOT AND SWAP1 DUP4 PUSH20 0xFFFFFFFFFFFFFFFFFFFFFFFFFFFFFFFFFFFFFFFF AND MUL OR SWAP1 SSTORE POP DUP2 PUSH1 0xF PUSH1 0x0 PUSH2 0x100 EXP DUP2 SLOAD DUP2 PUSH20 0xFFFFFFFFFFFFFFFFFFFFFFFFFFFFFFFFFFFFFFFF MUL NOT AND SWAP1 DUP4 PUSH20 0xFFFFFFFFFFFFFFFFFFFFFFFFFFFFFFFFFFFFFFFF AND MUL OR SWAP1 SSTORE POP DUP1 PUSH1 0x11 PUSH1 0x0 PUSH2 0x100 EXP DUP2 SLOAD DUP2 PUSH20 0xFFFFFFFFFFFFFFFFFFFFFFFFFFFFFFFFFFFFFFFF MUL NOT AND SWAP1 DUP4 PUSH20 0xFFFFFFFFFFFFFFFFFFFFFFFFFFFFFFFFFFFFFFFF AND MUL OR SWAP1 SSTORE POP POP POP POP POP PUSH2 0x312 JUMP JUMPDEST PUSH1 0x0 DUP1 REVERT JUMPDEST PUSH1 0x0 PUSH20 0xFFFFFFFFFFFFFFFFFFFFFFFFFFFFFFFFFFFFFFFF DUP3 AND SWAP1 POP SWAP2 SWAP1 POP JUMP JUMPDEST PUSH1 0x0 PUSH2 0x1BE DUP3 PUSH2 0x193 JUMP JUMPDEST SWAP1 POP SWAP2 SWAP1 POP JUMP JUMPDEST PUSH1 0x0 PUSH2 0x1D0 DUP3 PUSH2 0x1B3 JUMP JUMPDEST SWAP1 POP SWAP2 SWAP1 POP JUMP JUMPDEST PUSH2 0x1E0 DUP2 PUSH2 0x1C5 JUMP JUMPDEST DUP2 EQ PUSH2 0x1EB JUMPI PUSH1 0x0 DUP1 REVERT JUMPDEST POP JUMP JUMPDEST PUSH1 0x0 DUP2 MLOAD SWAP1 POP PUSH2 0x1FD DUP2 PUSH2 0x1D7 JUMP JUMPDEST SWAP3 SWAP2 POP POP JUMP JUMPDEST PUSH1 0x0 PUSH2 0x20E DUP3 PUSH2 0x1B3 JUMP JUMPDEST SWAP1 POP SWAP2 SWAP1 POP JUMP JUMPDEST PUSH2 0x21E DUP2 PUSH2 0x203 JUMP JUMPDEST DUP2 EQ PUSH2 0x229 JUMPI PUSH1 0x0 DUP1 REVERT JUMPDEST POP JUMP JUMPDEST PUSH1 0x0 DUP2 MLOAD SWAP1 POP PUSH2 0x23B DUP2 PUSH2 0x215 JUMP JUMPDEST SWAP3 SWAP2 POP POP JUMP JUMPDEST PUSH2 0x24A DUP2 PUSH2 0x1B3 JUMP JUMPDEST DUP2 EQ PUSH2 0x255 JUMPI PUSH1 0x0 DUP1 REVERT JUMPDEST POP JUMP JUMPDEST PUSH1 0x0 DUP2 MLOAD SWAP1 POP PUSH2 0x267 DUP2 PUSH2 0x241 JUMP JUMPDEST SWAP3 SWAP2 POP POP JUMP JUMPDEST PUSH1 0x0 PUSH2 0x278 DUP3 PUSH2 0x1B3 JUMP JUMPDEST SWAP1 POP SWAP2 SWAP1 POP JUMP JUMPDEST PUSH2 0x288 DUP2 PUSH2 0x26D JUMP JUMPDEST DUP2 EQ PUSH2 0x293 JUMPI PUSH1 0x0 DUP1 REVERT JUMPDEST POP JUMP JUMPDEST PUSH1 0x0 DUP2 MLOAD SWAP1 POP PUSH2 0x2A5 DUP2 PUSH2 0x27F JUMP JUMPDEST SWAP3 SWAP2 POP POP JUMP JUMPDEST PUSH1 0x0 DUP1 PUSH1 0x0 DUP1 PUSH1 0x80 DUP6 DUP8 SUB SLT ISZERO PUSH2 0x2C5 JUMPI PUSH2 0x2C4 PUSH2 0x18E JUMP JUMPDEST JUMPDEST PUSH1 0x0 PUSH2 0x2D3 DUP8 DUP3 DUP9 ADD PUSH2 0x1EE JUMP JUMPDEST SWAP5 POP POP PUSH1 0x20 PUSH2 0x2E4 DUP8 DUP3 DUP9 ADD PUSH2 0x22C JUMP JUMPDEST SWAP4 POP POP PUSH1 0x40 PUSH2 0x2F5 DUP8 DUP3 DUP9 ADD PUSH2 0x258 JUMP JUMPDEST SWAP3 POP POP PUSH1 0x60 PUSH2 0x306 DUP8 DUP3 DUP9 ADD PUSH2 0x296 JUMP JUMPDEST SWAP2 POP POP SWAP3 SWAP6 SWAP2 SWAP5 POP SWAP3 POP JUMP JUMPDEST PUSH2 0x4D47 DUP1 PUSH2 0x321 PUSH1 0x0 CODECOPY PUSH1 0x0 RETURN INVALID PUSH1 0x80 PUSH1 0x40 MSTORE CALLVALUE DUP1 ISZERO PUSH2 0x10 JUMPI PUSH1 0x0 DUP1 REVERT JUMPDEST POP PUSH1 0x4 CALLDATASIZE LT PUSH2 0x1FB JUMPI PUSH1 0x0 CALLDATALOAD PUSH1 0xE0 SHR DUP1 PUSH4 0x79D11D44 GT PUSH2 0x11A JUMPI DUP1 PUSH4 0xA9961C94 GT PUSH2 0xAD JUMPI DUP1 PUSH4 0xD24924FE GT PUSH2 0x7C JUMPI DUP1 PUSH4 0xD24924FE EQ PUSH2 0x646 JUMPI DUP1 PUSH4 0xDA3CDA52 EQ PUSH2 0x664 JUMPI DUP1 PUSH4 0xDABC4D51 EQ PUSH2 0x680 JUMPI DUP1 PUSH4 0xFBD4987E EQ PUSH2 0x6B0 JUMPI DUP1 PUSH4 0xFCF0B6EC EQ PUSH2 0x6CC JUMPI PUSH2 0x1FB JUMP JUMPDEST DUP1 PUSH4 0xA9961C94 EQ PUSH2 0x59A JUMPI DUP1 PUSH4 0xAF55ED64 EQ PUSH2 0x5CA JUMPI DUP1 PUSH4 0xB4C609EA EQ PUSH2 0x5FA JUMPI DUP1 PUSH4 0xD0D898DD EQ PUSH2 0x62A JUMPI PUSH2 0x1FB JUMP JUMPDEST DUP1 PUSH4 0x90BE89A9 GT PUSH2 0xE9 JUMPI DUP1 PUSH4 0x90BE89A9 EQ PUSH2 0x4EC JUMPI DUP1 PUSH4 0x923FA6FE EQ PUSH2 0x50A JUMPI DUP1 PUSH4 0x96324BD4 EQ PUSH2 0x53A JUMPI DUP1 PUSH4 0xA849B7BC EQ PUSH2 0x56A JUMPI PUSH2 0x1FB JUMP JUMPDEST DUP1 PUSH4 0x79D11D44 EQ PUSH2 0x440 JUMPI DUP1 PUSH4 0x7EE35A0C EQ PUSH2 0x45C JUMPI DUP1 PUSH4 0x8807D358 EQ PUSH2 0x48C JUMPI DUP1 PUSH4 0x90509D44 EQ PUSH2 0x4BC JUMPI PUSH2 0x1FB JUMP JUMPDEST DUP1 PUSH4 0x372098D7 GT PUSH2 0x192 JUMPI DUP1 PUSH4 0x575185ED GT PUSH2 0x161 JUMPI DUP1 PUSH4 0x575185ED EQ PUSH2 0x3A6 JUMPI DUP1 PUSH4 0x5C3F3B60 EQ PUSH2 0x3C4 JUMPI DUP1 PUSH4 0x6389E107 EQ PUSH2 0x3F4 JUMPI DUP1 PUSH4 0x6CDD32FE EQ PUSH2 0x424 JUMPI PUSH2 0x1FB JUMP JUMPDEST DUP1 PUSH4 0x372098D7 EQ PUSH2 0x30E JUMPI DUP1 PUSH4 0x4178C4D5 EQ PUSH2 0x33E JUMPI DUP1 PUSH4 0x456F4188 EQ PUSH2 0x35A JUMPI DUP1 PUSH4 0x568EE826 EQ PUSH2 0x38A JUMPI PUSH2 0x1FB JUMP JUMPDEST DUP1 PUSH4 0x24600FC3 GT PUSH2 0x1CE JUMPI DUP1 PUSH4 0x24600FC3 EQ PUSH2 0x286 JUMPI DUP1 PUSH4 0x2B7AC3F3 EQ PUSH2 0x290 JUMPI DUP1 PUSH4 0x2C880363 EQ PUSH2 0x2AE JUMPI DUP1 PUSH4 0x35381E26 EQ PUSH2 0x2DE JUMPI PUSH2 0x1FB JUMP JUMPDEST DUP1 PUSH4 0x4245371 EQ PUSH2 0x200 JUMPI DUP1 PUSH4 0x6DD8485 EQ PUSH2 0x21C JUMPI DUP1 PUSH4 0x14D75E9D EQ PUSH2 0x24C JUMPI DUP1 PUSH4 0x1783EFC3 EQ PUSH2 0x26A JUMPI JUMPDEST PUSH1 0x0 DUP1 REVERT JUMPDEST PUSH2 0x21A PUSH1 0x4 DUP1 CALLDATASIZE SUB DUP2 ADD SWAP1 PUSH2 0x215 SWAP2 SWAP1 PUSH2 0x38BF JUMP JUMPDEST PUSH2 0x6E8 JUMP JUMPDEST STOP JUMPDEST PUSH2 0x236 PUSH1 0x4 DUP1 CALLDATASIZE SUB DUP2 ADD SWAP1 PUSH2 0x231 SWAP2 SWAP1 PUSH2 0x391F JUMP JUMPDEST PUSH2 0x729 JUMP JUMPDEST PUSH1 0x40 MLOAD PUSH2 0x243 SWAP2 SWAP1 PUSH2 0x396E JUMP JUMPDEST PUSH1 0x40 MLOAD DUP1 SWAP2 SUB SWAP1 RETURN JUMPDEST PUSH2 0x254 PUSH2 0x757 JUMP JUMPDEST PUSH1 0x40 MLOAD PUSH2 0x261 SWAP2 SWAP1 PUSH2 0x396E JUMP JUMPDEST PUSH1 0x40 MLOAD DUP1 SWAP2 SUB SWAP1 RETURN JUMPDEST PUSH2 0x284 PUSH1 0x4 DUP1 CALLDATASIZE SUB DUP2 ADD SWAP1 PUSH2 0x27F SWAP2 SWAP1 PUSH2 0x391F JUMP JUMPDEST PUSH2 0x84D JUMP JUMPDEST STOP JUMPDEST PUSH2 0x28E PUSH2 0x88C JUMP JUMPDEST STOP JUMPDEST PUSH2 0x298 PUSH2 0x999 JUMP JUMPDEST PUSH1 0x40 MLOAD PUSH2 0x2A5 SWAP2 SWAP1 PUSH2 0x3A08 JUMP JUMPDEST PUSH1 0x40 MLOAD DUP1 SWAP2 SUB SWAP1 RETURN JUMPDEST PUSH2 0x2C8 PUSH1 0x4 DUP1 CALLDATASIZE SUB DUP2 ADD SWAP1 PUSH2 0x2C3 SWAP2 SWAP1 PUSH2 0x3A61 JUMP JUMPDEST PUSH2 0x9BF JUMP JUMPDEST PUSH1 0x40 MLOAD PUSH2 0x2D5 SWAP2 SWAP1 PUSH2 0x396E JUMP JUMPDEST PUSH1 0x40 MLOAD DUP1 SWAP2 SUB SWAP1 RETURN JUMPDEST PUSH2 0x2F8 PUSH1 0x4 DUP1 CALLDATASIZE SUB DUP2 ADD SWAP1 PUSH2 0x2F3 SWAP2 SWAP1 PUSH2 0x3AA1 JUMP JUMPDEST PUSH2 0xA05 JUMP JUMPDEST PUSH1 0x40 MLOAD PUSH2 0x305 SWAP2 SWAP1 PUSH2 0x396E JUMP JUMPDEST PUSH1 0x40 MLOAD DUP1 SWAP2 SUB SWAP1 RETURN JUMPDEST PUSH2 0x328 PUSH1 0x4 DUP1 CALLDATASIZE SUB DUP2 ADD SWAP1 PUSH2 0x323 SWAP2 SWAP1 PUSH2 0x391F JUMP JUMPDEST PUSH2 0xD77 JUMP JUMPDEST PUSH1 0x40 MLOAD PUSH2 0x335 SWAP2 SWAP1 PUSH2 0x396E JUMP JUMPDEST PUSH1 0x40 MLOAD DUP1 SWAP2 SUB SWAP1 RETURN JUMPDEST PUSH2 0x358 PUSH1 0x4 DUP1 CALLDATASIZE SUB DUP2 ADD SWAP1 PUSH2 0x353 SWAP2 SWAP1 PUSH2 0x3AF4 JUMP JUMPDEST PUSH2 0xDB6 JUMP JUMPDEST STOP JUMPDEST PUSH2 0x374 PUSH1 0x4 DUP1 CALLDATASIZE SUB DUP2 ADD SWAP1 PUSH2 0x36F SWAP2 SWAP1 PUSH2 0x3BA1 JUMP JUMPDEST PUSH2 0xDFB JUMP JUMPDEST PUSH1 0x40 MLOAD PUSH2 0x381 SWAP2 SWAP1 PUSH2 0x3BFD JUMP JUMPDEST PUSH1 0x40 MLOAD DUP1 SWAP2 SUB SWAP1 RETURN JUMPDEST PUSH2 0x3A4 PUSH1 0x4 DUP1 CALLDATASIZE SUB DUP2 ADD SWAP1 PUSH2 0x39F SWAP2 SWAP1 PUSH2 0x3C18 JUMP JUMPDEST PUSH2 0x1246 JUMP JUMPDEST STOP JUMPDEST PUSH2 0x3AE PUSH2 0x1254 JUMP JUMPDEST PUSH1 0x40 MLOAD PUSH2 0x3BB SWAP2 SWAP1 PUSH2 0x396E JUMP JUMPDEST PUSH1 0x40 MLOAD DUP1 SWAP2 SUB SWAP1 RETURN JUMPDEST PUSH2 0x3DE PUSH1 0x4 DUP1 CALLDATASIZE SUB DUP2 ADD SWAP1 PUSH2 0x3D9 SWAP2 SWAP1 PUSH2 0x3C58 JUMP JUMPDEST PUSH2 0x1299 JUMP JUMPDEST PUSH1 0x40 MLOAD PUSH2 0x3EB SWAP2 SWAP1 PUSH2 0x396E JUMP JUMPDEST PUSH1 0x40 MLOAD DUP1 SWAP2 SUB SWAP1 RETURN JUMPDEST PUSH2 0x40E PUSH1 0x4 DUP1 CALLDATASIZE SUB DUP2 ADD SWAP1 PUSH2 0x409 SWAP2 SWAP1 PUSH2 0x3C85 JUMP JUMPDEST PUSH2 0x12E0 JUMP JUMPDEST PUSH1 0x40 MLOAD PUSH2 0x41B SWAP2 SWAP1 PUSH2 0x396E JUMP JUMPDEST PUSH1 0x40 MLOAD DUP1 SWAP2 SUB SWAP1 RETURN JUMPDEST PUSH2 0x43E PUSH1 0x4 DUP1 CALLDATASIZE SUB DUP2 ADD SWAP1 PUSH2 0x439 SWAP2 SWAP1 PUSH2 0x3CB2 JUMP JUMPDEST PUSH2 0x12FF JUMP JUMPDEST STOP JUMPDEST PUSH2 0x45A PUSH1 0x4 DUP1 CALLDATASIZE SUB DUP2 ADD SWAP1 PUSH2 0x455 SWAP2 SWAP1 PUSH2 0x3D7C JUMP JUMPDEST PUSH2 0x1342 JUMP JUMPDEST STOP JUMPDEST PUSH2 0x476 PUSH1 0x4 DUP1 CALLDATASIZE SUB DUP2 ADD SWAP1 PUSH2 0x471 SWAP2 SWAP1 PUSH2 0x3C85 JUMP JUMPDEST PUSH2 0x14B8 JUMP JUMPDEST PUSH1 0x40 MLOAD PUSH2 0x483 SWAP2 SWAP1 PUSH2 0x396E JUMP JUMPDEST PUSH1 0x40 MLOAD DUP1 SWAP2 SUB SWAP1 RETURN JUMPDEST PUSH2 0x4A6 PUSH1 0x4 DUP1 CALLDATASIZE SUB DUP2 ADD SWAP1 PUSH2 0x4A1 SWAP2 SWAP1 PUSH2 0x3DF3 JUMP JUMPDEST PUSH2 0x14D7 JUMP JUMPDEST PUSH1 0x40 MLOAD PUSH2 0x4B3 SWAP2 SWAP1 PUSH2 0x3BFD JUMP JUMPDEST PUSH1 0x40 MLOAD DUP1 SWAP2 SUB SWAP1 RETURN JUMPDEST PUSH2 0x4D6 PUSH1 0x4 DUP1 CALLDATASIZE SUB DUP2 ADD SWAP1 PUSH2 0x4D1 SWAP2 SWAP1 PUSH2 0x391F JUMP JUMPDEST PUSH2 0x1593 JUMP JUMPDEST PUSH1 0x40 MLOAD PUSH2 0x4E3 SWAP2 SWAP1 PUSH2 0x3BFD JUMP JUMPDEST PUSH1 0x40 MLOAD DUP1 SWAP2 SUB SWAP1 RETURN JUMPDEST PUSH2 0x4F4 PUSH2 0x15C1 JUMP JUMPDEST PUSH1 0x40 MLOAD PUSH2 0x501 SWAP2 SWAP1 PUSH2 0x396E JUMP JUMPDEST PUSH1 0x40 MLOAD DUP1 SWAP2 SUB SWAP1 RETURN JUMPDEST PUSH2 0x524 PUSH1 0x4 DUP1 CALLDATASIZE SUB DUP2 ADD SWAP1 PUSH2 0x51F SWAP2 SWAP1 PUSH2 0x3C85 JUMP JUMPDEST PUSH2 0x161D JUMP JUMPDEST PUSH1 0x40 MLOAD PUSH2 0x531 SWAP2 SWAP1 PUSH2 0x396E JUMP JUMPDEST PUSH1 0x40 MLOAD DUP1 SWAP2 SUB SWAP1 RETURN JUMPDEST PUSH2 0x554 PUSH1 0x4 DUP1 CALLDATASIZE SUB DUP2 ADD SWAP1 PUSH2 0x54F SWAP2 SWAP1 PUSH2 0x3C85 JUMP JUMPDEST PUSH2 0x18B0 JUMP JUMPDEST PUSH1 0x40 MLOAD PUSH2 0x561 SWAP2 SWAP1 PUSH2 0x396E JUMP JUMPDEST PUSH1 0x40 MLOAD DUP1 SWAP2 SUB SWAP1 RETURN JUMPDEST PUSH2 0x584 PUSH1 0x4 DUP1 CALLDATASIZE SUB DUP2 ADD SWAP1 PUSH2 0x57F SWAP2 SWAP1 PUSH2 0x3C85 JUMP JUMPDEST PUSH2 0x18CE JUMP JUMPDEST PUSH1 0x40 MLOAD PUSH2 0x591 SWAP2 SWAP1 PUSH2 0x396E JUMP JUMPDEST PUSH1 0x40 MLOAD DUP1 SWAP2 SUB SWAP1 RETURN JUMPDEST PUSH2 0x5B4 PUSH1 0x4 DUP1 CALLDATASIZE SUB DUP2 ADD SWAP1 PUSH2 0x5AF SWAP2 SWAP1 PUSH2 0x3C85 JUMP JUMPDEST PUSH2 0x1B1C JUMP JUMPDEST PUSH1 0x40 MLOAD PUSH2 0x5C1 SWAP2 SWAP1 PUSH2 0x3E62 JUMP JUMPDEST PUSH1 0x40 MLOAD DUP1 SWAP2 SUB SWAP1 RETURN JUMPDEST PUSH2 0x5E4 PUSH1 0x4 DUP1 CALLDATASIZE SUB DUP2 ADD SWAP1 PUSH2 0x5DF SWAP2 SWAP1 PUSH2 0x3C85 JUMP JUMPDEST PUSH2 0x1B59 JUMP JUMPDEST PUSH1 0x40 MLOAD PUSH2 0x5F1 SWAP2 SWAP1 PUSH2 0x3BFD JUMP JUMPDEST PUSH1 0x40 MLOAD DUP1 SWAP2 SUB SWAP1 RETURN JUMPDEST PUSH2 0x614 PUSH1 0x4 DUP1 CALLDATASIZE SUB DUP2 ADD SWAP1 PUSH2 0x60F SWAP2 SWAP1 PUSH2 0x3FBE JUMP JUMPDEST PUSH2 0x1B83 JUMP JUMPDEST PUSH1 0x40 MLOAD PUSH2 0x621 SWAP2 SWAP1 PUSH2 0x396E JUMP JUMPDEST PUSH1 0x40 MLOAD DUP1 SWAP2 SUB SWAP1 RETURN JUMPDEST PUSH2 0x644 PUSH1 0x4 DUP1 CALLDATASIZE SUB DUP2 ADD SWAP1 PUSH2 0x63F SWAP2 SWAP1 PUSH2 0x3BA1 JUMP JUMPDEST PUSH2 0x1C98 JUMP JUMPDEST STOP JUMPDEST PUSH2 0x64E PUSH2 0x1DE7 JUMP JUMPDEST PUSH1 0x40 MLOAD PUSH2 0x65B SWAP2 SWAP1 PUSH2 0x396E JUMP JUMPDEST PUSH1 0x40 MLOAD DUP1 SWAP2 SUB SWAP1 RETURN JUMPDEST PUSH2 0x67E PUSH1 0x4 DUP1 CALLDATASIZE SUB DUP2 ADD SWAP1 PUSH2 0x679 SWAP2 SWAP1 PUSH2 0x3C85 JUMP JUMPDEST PUSH2 0x1DED JUMP JUMPDEST STOP JUMPDEST PUSH2 0x69A PUSH1 0x4 DUP1 CALLDATASIZE SUB DUP2 ADD SWAP1 PUSH2 0x695 SWAP2 SWAP1 PUSH2 0x3C85 JUMP JUMPDEST PUSH2 0x1DF9 JUMP JUMPDEST PUSH1 0x40 MLOAD PUSH2 0x6A7 SWAP2 SWAP1 PUSH2 0x396E JUMP JUMPDEST PUSH1 0x40 MLOAD DUP1 SWAP2 SUB SWAP1 RETURN JUMPDEST PUSH2 0x6CA PUSH1 0x4 DUP1 CALLDATASIZE SUB DUP2 ADD SWAP1 PUSH2 0x6C5 SWAP2 SWAP1 PUSH2 0x401A JUMP JUMPDEST PUSH2 0x1E1C JUMP JUMPDEST STOP JUMPDEST PUSH2 0x6E6 PUSH1 0x4 DUP1 CALLDATASIZE SUB DUP2 ADD SWAP1 PUSH2 0x6E1 SWAP2 SWAP1 PUSH2 0x391F JUMP JUMPDEST PUSH2 0x1F82 JUMP JUMPDEST STOP JUMPDEST PUSH1 0x0 PUSH2 0x6F5 DUP5 DUP5 DUP5 PUSH2 0x2091 JUMP JUMPDEST SWAP1 POP TIMESTAMP PUSH1 0x4 PUSH1 0x0 DUP7 DUP2 MSTORE PUSH1 0x20 ADD SWAP1 DUP2 MSTORE PUSH1 0x20 ADD PUSH1 0x0 KECCAK256 PUSH1 0x1 ADD PUSH1 0x0 DUP4 DUP2 MSTORE PUSH1 0x20 ADD SWAP1 DUP2 MSTORE PUSH1 0x20 ADD PUSH1 0x0 KECCAK256 DUP2 SWAP1 SSTORE POP POP POP POP POP JUMP JUMPDEST PUSH1 0x0 PUSH2 0x74F DUP3 PUSH1 0x0 DUP1 DUP7 DUP2 MSTORE PUSH1 0x20 ADD SWAP1 DUP2 MSTORE PUSH1 0x20 ADD PUSH1 0x0 KECCAK256 PUSH2 0x21A8 SWAP1 SWAP2 SWAP1 PUSH4 0xFFFFFFFF AND JUMP JUMPDEST SWAP1 POP SWAP3 SWAP2 POP POP JUMP JUMPDEST PUSH1 0x0 DUP1 PUSH1 0x6 SLOAD PUSH2 0x2710 PUSH2 0x76A SWAP2 SWAP1 PUSH2 0x40BB JUMP JUMPDEST SWAP1 POP PUSH1 0x1 PUSH1 0xC PUSH1 0x0 DUP4 DUP2 MSTORE PUSH1 0x20 ADD SWAP1 DUP2 MSTORE PUSH1 0x20 ADD PUSH1 0x0 KECCAK256 PUSH1 0x0 PUSH2 0x100 EXP DUP2 SLOAD DUP2 PUSH1 0xFF MUL NOT AND SWAP1 DUP4 ISZERO ISZERO MUL OR SWAP1 SSTORE POP PUSH1 0x11 PUSH1 0x0 SWAP1 SLOAD SWAP1 PUSH2 0x100 EXP SWAP1 DIV PUSH20 0xFFFFFFFFFFFFFFFFFFFFFFFFFFFFFFFFFFFFFFFF AND PUSH20 0xFFFFFFFFFFFFFFFFFFFFFFFFFFFFFFFFFFFFFFFF AND PUSH4 0xA2E338C0 PUSH1 0x3 PUSH1 0x32 PUSH1 0xC DUP6 PUSH1 0x40 MLOAD DUP6 PUSH4 0xFFFFFFFF AND PUSH1 0xE0 SHL DUP2 MSTORE PUSH1 0x4 ADD PUSH2 0x7FC SWAP5 SWAP4 SWAP3 SWAP2 SWAP1 PUSH2 0x41A0 JUMP JUMPDEST PUSH1 0x0 PUSH1 0x40 MLOAD DUP1 DUP4 SUB DUP2 PUSH1 0x0 DUP8 DUP1 EXTCODESIZE ISZERO DUP1 ISZERO PUSH2 0x816 JUMPI PUSH1 0x0 DUP1 REVERT JUMPDEST POP GAS CALL ISZERO DUP1 ISZERO PUSH2 0x82A JUMPI RETURNDATASIZE PUSH1 0x0 DUP1 RETURNDATACOPY RETURNDATASIZE PUSH1 0x0 REVERT JUMPDEST POP POP POP POP PUSH1 0x6 PUSH1 0x0 DUP2 SLOAD DUP1 SWAP3 SWAP2 SWAP1 PUSH2 0x841 SWAP1 PUSH2 0x41E5 JUMP JUMPDEST SWAP2 SWAP1 POP SSTORE POP DUP1 SWAP2 POP POP SWAP1 JUMP JUMPDEST PUSH1 0x0 PUSH2 0x859 DUP4 DUP4 PUSH2 0x2222 JUMP JUMPDEST SWAP1 POP TIMESTAMP PUSH1 0x4 PUSH1 0x0 DUP6 DUP2 MSTORE PUSH1 0x20 ADD SWAP1 DUP2 MSTORE PUSH1 0x20 ADD PUSH1 0x0 KECCAK256 PUSH1 0x1 ADD PUSH1 0x0 DUP4 DUP2 MSTORE PUSH1 0x20 ADD SWAP1 DUP2 MSTORE PUSH1 0x20 ADD PUSH1 0x0 KECCAK256 DUP2 SWAP1 SSTORE POP POP POP POP JUMP JUMPDEST PUSH1 0x0 DUP1 PUSH2 0x2711 SWAP1 POP JUMPDEST PUSH1 0xC PUSH1 0x0 DUP3 DUP2 MSTORE PUSH1 0x20 ADD SWAP1 DUP2 MSTORE PUSH1 0x20 ADD PUSH1 0x0 KECCAK256 PUSH1 0x0 SWAP1 SLOAD SWAP1 PUSH2 0x100 EXP SWAP1 DIV PUSH1 0xFF AND ISZERO PUSH2 0x8E4 JUMPI PUSH2 0x8C4 DUP2 PUSH2 0x161D JUMP JUMPDEST DUP3 PUSH2 0x8CF SWAP2 SWAP1 PUSH2 0x40BB JUMP JUMPDEST SWAP2 POP DUP1 DUP1 PUSH2 0x8DC SWAP1 PUSH2 0x41E5 JUMP JUMPDEST SWAP2 POP POP PUSH2 0x895 JUMP JUMPDEST POP PUSH1 0x10 PUSH1 0x0 SWAP1 SLOAD SWAP1 PUSH2 0x100 EXP SWAP1 DIV PUSH20 0xFFFFFFFFFFFFFFFFFFFFFFFFFFFFFFFFFFFFFFFF AND PUSH20 0xFFFFFFFFFFFFFFFFFFFFFFFFFFFFFFFFFFFFFFFF AND PUSH4 0xD5568F98 PUSH1 0xF PUSH1 0x0 SWAP1 SLOAD SWAP1 PUSH2 0x100 EXP SWAP1 DIV PUSH20 0xFFFFFFFFFFFFFFFFFFFFFFFFFFFFFFFFFFFFFFFF AND DUP4 PUSH1 0x40 MLOAD DUP4 PUSH4 0xFFFFFFFF AND PUSH1 0xE0 SHL DUP2 MSTORE PUSH1 0x4 ADD PUSH2 0x964 SWAP3 SWAP2 SWAP1 PUSH2 0x422D JUMP JUMPDEST PUSH1 0x0 PUSH1 0x40 MLOAD DUP1 DUP4 SUB DUP2 PUSH1 0x0 DUP8 DUP1 EXTCODESIZE ISZERO DUP1 ISZERO PUSH2 0x97E JUMPI PUSH1 0x0 DUP1 REVERT JUMPDEST POP GAS CALL ISZERO DUP1 ISZERO PUSH2 0x992 JUMPI RETURNDATASIZE PUSH1 0x0 DUP1 RETURNDATACOPY RETURNDATASIZE PUSH1 0x0 REVERT JUMPDEST POP POP POP POP POP JUMP JUMPDEST PUSH1 0x3 PUSH1 0x0 SWAP1 SLOAD SWAP1 PUSH2 0x100 EXP SWAP1 DIV PUSH20 0xFFFFFFFFFFFFFFFFFFFFFFFFFFFFFFFFFFFFFFFF AND DUP2 JUMP JUMPDEST PUSH1 0x0 PUSH1 0x5 PUSH1 0x0 DUP2 SLOAD DUP1 SWAP3 SWAP2 SWAP1 PUSH2 0x9D4 SWAP1 PUSH2 0x41E5 JUMP JUMPDEST SWAP2 SWAP1 POP SSTORE SWAP1 POP PUSH2 0x9E4 DUP2 DUP5 PUSH2 0x2334 JUMP JUMPDEST DUP2 PUSH1 0x4 PUSH1 0x0 DUP4 DUP2 MSTORE PUSH1 0x20 ADD SWAP1 DUP2 MSTORE PUSH1 0x20 ADD PUSH1 0x0 KECCAK256 PUSH1 0x0 ADD DUP2 SWAP1 SSTORE POP SWAP3 SWAP2 POP POP JUMP JUMPDEST PUSH1 0x0 PUSH1 0xC PUSH1 0x0 DUP5 DUP2 MSTORE PUSH1 0x20 ADD SWAP1 DUP2 MSTORE PUSH1 0x20 ADD PUSH1 0x0 KECCAK256 PUSH1 0x0 SWAP1 SLOAD SWAP1 PUSH2 0x100 EXP SWAP1 DIV PUSH1 0xFF AND PUSH2 0xA67 JUMPI PUSH1 0x40 MLOAD PUSH32 0x8C379A000000000000000000000000000000000000000000000000000000000 DUP2 MSTORE PUSH1 0x4 ADD PUSH2 0xA5E SWAP1 PUSH2 0x42B3 JUMP JUMPDEST PUSH1 0x40 MLOAD DUP1 SWAP2 SUB SWAP1 REVERT JUMPDEST PUSH1 0x0 PUSH1 0x11 PUSH1 0x0 SWAP1 SLOAD SWAP1 PUSH2 0x100 EXP SWAP1 DIV PUSH20 0xFFFFFFFFFFFFFFFFFFFFFFFFFFFFFFFFFFFFFFFF AND PUSH20 0xFFFFFFFFFFFFFFFFFFFFFFFFFFFFFFFFFFFFFFFF AND PUSH4 0x632487D1 DUP6 PUSH1 0x40 MLOAD DUP3 PUSH4 0xFFFFFFFF AND PUSH1 0xE0 SHL DUP2 MSTORE PUSH1 0x4 ADD PUSH2 0xAC4 SWAP2 SWAP1 PUSH2 0x396E JUMP JUMPDEST PUSH1 0x20 PUSH1 0x40 MLOAD DUP1 DUP4 SUB DUP2 DUP7 GAS STATICCALL ISZERO DUP1 ISZERO PUSH2 0xAE1 JUMPI RETURNDATASIZE PUSH1 0x0 DUP1 RETURNDATACOPY RETURNDATASIZE PUSH1 0x0 REVERT JUMPDEST POP POP POP POP PUSH1 0x40 MLOAD RETURNDATASIZE PUSH1 0x1F NOT PUSH1 0x1F DUP3 ADD AND DUP3 ADD DUP1 PUSH1 0x40 MSTORE POP DUP2 ADD SWAP1 PUSH2 0xB05 SWAP2 SWAP1 PUSH2 0x42E8 JUMP JUMPDEST SWAP1 POP PUSH1 0x0 PUSH1 0x11 PUSH1 0x0 SWAP1 SLOAD SWAP1 PUSH2 0x100 EXP SWAP1 DIV PUSH20 0xFFFFFFFFFFFFFFFFFFFFFFFFFFFFFFFFFFFFFFFF AND PUSH20 0xFFFFFFFFFFFFFFFFFFFFFFFFFFFFFFFFFFFFFFFF AND PUSH4 0xE72ED0B2 DUP7 PUSH1 0x40 MLOAD DUP3 PUSH4 0xFFFFFFFF AND PUSH1 0xE0 SHL DUP2 MSTORE PUSH1 0x4 ADD PUSH2 0xB64 SWAP2 SWAP1 PUSH2 0x396E JUMP JUMPDEST PUSH1 0x20 PUSH1 0x40 MLOAD DUP1 DUP4 SUB DUP2 DUP7 GAS STATICCALL ISZERO DUP1 ISZERO PUSH2 0xB81 JUMPI RETURNDATASIZE PUSH1 0x0 DUP1 RETURNDATACOPY RETURNDATASIZE PUSH1 0x0 REVERT JUMPDEST POP POP POP POP PUSH1 0x40 MLOAD RETURNDATASIZE PUSH1 0x1F NOT PUSH1 0x1F DUP3 ADD AND DUP3 ADD DUP1 PUSH1 0x40 MSTORE POP DUP2 ADD SWAP1 PUSH2 0xBA5 SWAP2 SWAP1 PUSH2 0x42E8 JUMP JUMPDEST SWAP1 POP PUSH1 0x0 DUP1 PUSH20 0xFFFFFFFFFFFFFFFFFFFFFFFFFFFFFFFFFFFFFFFF AND PUSH2 0xBE3 PUSH1 0x1 PUSH3 0x186A0 DUP10 PUSH2 0xBD4 SWAP2 SWAP1 PUSH2 0x4315 JUMP JUMPDEST PUSH2 0xBDE SWAP2 SWAP1 PUSH2 0x40BB JUMP JUMPDEST PUSH2 0x1B1C JUMP JUMPDEST PUSH20 0xFFFFFFFFFFFFFFFFFFFFFFFFFFFFFFFFFFFFFFFF AND SUB PUSH2 0xC64 JUMPI TIMESTAMP PUSH1 0x7 PUSH1 0x0 DUP9 DUP2 MSTORE PUSH1 0x20 ADD SWAP1 DUP2 MSTORE PUSH1 0x20 ADD PUSH1 0x0 KECCAK256 DUP2 SWAP1 SSTORE POP PUSH1 0x1 PUSH3 0x186A0 DUP8 PUSH2 0xC27 SWAP2 SWAP1 PUSH2 0x4315 JUMP JUMPDEST PUSH2 0xC31 SWAP2 SWAP1 PUSH2 0x40BB JUMP JUMPDEST SWAP1 POP PUSH2 0xC5F DUP2 PUSH1 0xF PUSH1 0x0 SWAP1 SLOAD SWAP1 PUSH2 0x100 EXP SWAP1 DIV PUSH20 0xFFFFFFFFFFFFFFFFFFFFFFFFFFFFFFFFFFFFFFFF AND PUSH2 0x2334 JUMP JUMPDEST PUSH2 0xCB7 JUMP JUMPDEST PUSH1 0x0 PUSH1 0x7 PUSH1 0x0 DUP9 DUP2 MSTORE PUSH1 0x20 ADD SWAP1 DUP2 MSTORE PUSH1 0x20 ADD PUSH1 0x0 KECCAK256 SLOAD SWAP1 POP PUSH1 0x0 PUSH2 0xC96 DUP3 TIMESTAMP PUSH2 0xC8D SWAP2 SWAP1 PUSH2 0x4357 JUMP JUMPDEST PUSH3 0x15180 PUSH2 0xD77 JUMP JUMPDEST SWAP1 POP DUP1 PUSH3 0x186A0 DUP10 PUSH2 0xCA8 SWAP2 SWAP1 PUSH2 0x4315 JUMP JUMPDEST PUSH2 0xCB2 SWAP2 SWAP1 PUSH2 0x40BB JUMP JUMPDEST SWAP3 POP POP POP JUMPDEST PUSH1 0x10 PUSH1 0x0 SWAP1 SLOAD SWAP1 PUSH2 0x100 EXP SWAP1 DIV PUSH20 0xFFFFFFFFFFFFFFFFFFFFFFFFFFFFFFFFFFFFFFFF AND PUSH20 0xFFFFFFFFFFFFFFFFFFFFFFFFFFFFFFFFFFFFFFFF AND PUSH4 0x3184B9FD DUP7 ADDRESS DUP7 PUSH1 0xC DUP8 PUSH2 0xD05 SWAP2 SWAP1 PUSH2 0x4315 JUMP JUMPDEST PUSH2 0xD0F SWAP2 SWAP1 PUSH2 0x40BB JUMP JUMPDEST PUSH1 0x40 MLOAD DUP5 PUSH4 0xFFFFFFFF AND PUSH1 0xE0 SHL DUP2 MSTORE PUSH1 0x4 ADD PUSH2 0xD2D SWAP4 SWAP3 SWAP2 SWAP1 PUSH2 0x438B JUMP JUMPDEST PUSH1 0x0 PUSH1 0x40 MLOAD DUP1 DUP4 SUB DUP2 PUSH1 0x0 DUP8 DUP1 EXTCODESIZE ISZERO DUP1 ISZERO PUSH2 0xD47 JUMPI PUSH1 0x0 DUP1 REVERT JUMPDEST POP GAS CALL ISZERO DUP1 ISZERO PUSH2 0xD5B JUMPI RETURNDATASIZE PUSH1 0x0 DUP1 RETURNDATACOPY RETURNDATASIZE PUSH1 0x0 REVERT JUMPDEST POP POP POP POP PUSH2 0xD69 DUP2 DUP9 PUSH2 0x2222 JUMP JUMPDEST POP DUP1 SWAP4 POP POP POP POP SWAP4 SWAP3 POP POP POP JUMP JUMPDEST PUSH1 0x0 DUP1 DUP3 DUP5 PUSH2 0xD86 SWAP2 SWAP1 PUSH2 0x43F1 JUMP JUMPDEST EQ PUSH2 0xD92 JUMPI PUSH1 0x1 PUSH2 0xD95 JUMP JUMPDEST PUSH1 0x0 JUMPDEST PUSH1 0xFF AND DUP3 DUP5 PUSH2 0xDA4 SWAP2 SWAP1 PUSH2 0x4422 JUMP JUMPDEST PUSH2 0xDAE SWAP2 SWAP1 PUSH2 0x40BB JUMP JUMPDEST SWAP1 POP SWAP3 SWAP2 POP POP JUMP JUMPDEST PUSH1 0x0 PUSH2 0xDC5 DUP7 DUP7 DUP7 DUP7 DUP7 PUSH2 0x2413 JUMP JUMPDEST SWAP1 POP TIMESTAMP PUSH1 0x4 PUSH1 0x0 DUP9 DUP2 MSTORE PUSH1 0x20 ADD SWAP1 DUP2 MSTORE PUSH1 0x20 ADD PUSH1 0x0 KECCAK256 PUSH1 0x1 ADD PUSH1 0x0 DUP4 DUP2 MSTORE PUSH1 0x20 ADD SWAP1 DUP2 MSTORE PUSH1 0x20 ADD PUSH1 0x0 KECCAK256 DUP2 SWAP1 SSTORE POP POP POP POP POP POP POP JUMP JUMPDEST PUSH1 0x0 DUP3 PUSH1 0x0 PUSH20 0xFFFFFFFFFFFFFFFFFFFFFFFFFFFFFFFFFFFFFFFF AND PUSH1 0x1 PUSH1 0x0 DUP4 DUP2 MSTORE PUSH1 0x20 ADD SWAP1 DUP2 MSTORE PUSH1 0x20 ADD PUSH1 0x0 KECCAK256 PUSH1 0x0 SWAP1 SLOAD SWAP1 PUSH2 0x100 EXP SWAP1 DIV PUSH20 0xFFFFFFFFFFFFFFFFFFFFFFFFFFFFFFFFFFFFFFFF AND PUSH20 0xFFFFFFFFFFFFFFFFFFFFFFFFFFFFFFFFFFFFFFFF AND SUB PUSH2 0xE97 JUMPI PUSH1 0x40 MLOAD PUSH32 0x29F057900000000000000000000000000000000000000000000000000000000 DUP2 MSTORE PUSH1 0x4 ADD PUSH1 0x40 MLOAD DUP1 SWAP2 SUB SWAP1 REVERT JUMPDEST PUSH1 0x1 PUSH1 0xFF AND DUP4 PUSH1 0x0 ADD CALLDATALOAD LT DUP1 PUSH2 0xEB4 JUMPI POP PUSH1 0xC PUSH1 0xFF AND DUP4 PUSH1 0x0 ADD CALLDATALOAD GT JUMPDEST ISZERO PUSH2 0xEEB JUMPI PUSH1 0x40 MLOAD PUSH32 0xECF64F1200000000000000000000000000000000000000000000000000000000 DUP2 MSTORE PUSH1 0x4 ADD PUSH1 0x40 MLOAD DUP1 SWAP2 SUB SWAP1 REVERT JUMPDEST PUSH1 0x0 PUSH2 0xEF6 DUP6 PUSH2 0x14B8 JUMP JUMPDEST SWAP1 POP PUSH1 0x0 DUP2 SUB PUSH2 0xF32 JUMPI PUSH1 0x40 MLOAD PUSH32 0xC8B02E0100000000000000000000000000000000000000000000000000000000 DUP2 MSTORE PUSH1 0x4 ADD PUSH1 0x40 MLOAD DUP1 SWAP2 SUB SWAP1 REVERT JUMPDEST PUSH1 0x0 PUSH2 0xF3D DUP7 PUSH2 0x1DF9 JUMP JUMPDEST SWAP1 POP DUP1 DUP6 PUSH1 0x20 ADD CALLDATALOAD EQ PUSH2 0x1017 JUMPI PUSH1 0x0 PUSH1 0x4 PUSH1 0x0 DUP9 DUP2 MSTORE PUSH1 0x20 ADD SWAP1 DUP2 MSTORE PUSH1 0x20 ADD PUSH1 0x0 KECCAK256 PUSH1 0x1 ADD PUSH1 0x0 DUP8 PUSH1 0x20 ADD CALLDATALOAD DUP2 MSTORE PUSH1 0x20 ADD SWAP1 DUP2 MSTORE PUSH1 0x20 ADD PUSH1 0x0 KECCAK256 SLOAD SWAP1 POP PUSH1 0x0 PUSH1 0x4 PUSH1 0x0 DUP10 DUP2 MSTORE PUSH1 0x20 ADD SWAP1 DUP2 MSTORE PUSH1 0x20 ADD PUSH1 0x0 KECCAK256 PUSH1 0x0 ADD SLOAD SWAP1 POP PUSH1 0x0 DUP3 SUB PUSH2 0xFCF JUMPI PUSH1 0x40 MLOAD PUSH32 0x4D32958600000000000000000000000000000000000000000000000000000000 DUP2 MSTORE PUSH1 0x4 ADD PUSH1 0x40 MLOAD DUP1 SWAP2 SUB SWAP1 REVERT JUMPDEST DUP1 DUP3 PUSH2 0xFDB SWAP2 SWAP1 PUSH2 0x40BB JUMP JUMPDEST TIMESTAMP GT ISZERO PUSH2 0x1014 JUMPI PUSH1 0x40 MLOAD PUSH32 0x9581A99000000000000000000000000000000000000000000000000000000000 DUP2 MSTORE PUSH1 0x4 ADD PUSH1 0x40 MLOAD DUP1 SWAP2 SUB SWAP1 REVERT JUMPDEST POP POP JUMPDEST PUSH1 0x3 PUSH1 0x0 SWAP1 SLOAD SWAP1 PUSH2 0x100 EXP SWAP1 DIV PUSH20 0xFFFFFFFFFFFFFFFFFFFFFFFFFFFFFFFFFFFFFFFF AND PUSH20 0xFFFFFFFFFFFFFFFFFFFFFFFFFFFFFFFFFFFFFFFF AND PUSH4 0xA23F0199 PUSH1 0x40 MLOAD DUP1 PUSH1 0x40 ADD PUSH1 0x40 MSTORE DUP1 DUP9 PUSH1 0xA0 ADD PUSH1 0x0 PUSH1 0x8 DUP2 LT PUSH2 0x1077 JUMPI PUSH2 0x1076 PUSH2 0x4453 JUMP JUMPDEST JUMPDEST PUSH1 0x20 MUL ADD CALLDATALOAD DUP2 MSTORE PUSH1 0x20 ADD DUP9 PUSH1 0xA0 ADD PUSH1 0x1 PUSH1 0x8 DUP2 LT PUSH2 0x1098 JUMPI PUSH2 0x1097 PUSH2 0x4453 JUMP JUMPDEST JUMPDEST PUSH1 0x20 MUL ADD CALLDATALOAD DUP2 MSTORE POP PUSH1 0x40 MLOAD DUP1 PUSH1 0x40 ADD PUSH1 0x40 MSTORE DUP1 PUSH1 0x40 MLOAD DUP1 PUSH1 0x40 ADD PUSH1 0x40 MSTORE DUP1 DUP12 PUSH1 0xA0 ADD PUSH1 0x2 PUSH1 0x8 DUP2 LT PUSH2 0x10CD JUMPI PUSH2 0x10CC PUSH2 0x4453 JUMP JUMPDEST JUMPDEST PUSH1 0x20 MUL ADD CALLDATALOAD DUP2 MSTORE PUSH1 0x20 ADD DUP12 PUSH1 0xA0 ADD PUSH1 0x3 PUSH1 0x8 DUP2 LT PUSH2 0x10EE JUMPI PUSH2 0x10ED PUSH2 0x4453 JUMP JUMPDEST JUMPDEST PUSH1 0x20 MUL ADD CALLDATALOAD DUP2 MSTORE POP DUP2 MSTORE PUSH1 0x20 ADD PUSH1 0x40 MLOAD DUP1 PUSH1 0x40 ADD PUSH1 0x40 MSTORE DUP1 DUP12 PUSH1 0xA0 ADD PUSH1 0x4 PUSH1 0x8 DUP2 LT PUSH2 0x111D JUMPI PUSH2 0x111C PUSH2 0x4453 JUMP JUMPDEST JUMPDEST PUSH1 0x20 MUL ADD CALLDATALOAD DUP2 MSTORE PUSH1 0x20 ADD DUP12 PUSH1 0xA0 ADD PUSH1 0x5 PUSH1 0x8 DUP2 LT PUSH2 0x113E JUMPI PUSH2 0x113D PUSH2 0x4453 JUMP JUMPDEST JUMPDEST PUSH1 0x20 MUL ADD CALLDATALOAD DUP2 MSTORE POP DUP2 MSTORE POP PUSH1 0x40 MLOAD DUP1 PUSH1 0x40 ADD PUSH1 0x40 MSTORE DUP1 DUP11 PUSH1 0xA0 ADD PUSH1 0x6 PUSH1 0x8 DUP2 LT PUSH2 0x116B JUMPI PUSH2 0x116A PUSH2 0x4453 JUMP JUMPDEST JUMPDEST PUSH1 0x20 MUL ADD CALLDATALOAD DUP2 MSTORE PUSH1 0x20 ADD DUP11 PUSH1 0xA0 ADD PUSH1 0x7 PUSH1 0x8 DUP2 LT PUSH2 0x118C JUMPI PUSH2 0x118B PUSH2 0x4453 JUMP JUMPDEST JUMPDEST PUSH1 0x20 MUL ADD CALLDATALOAD DUP2 MSTORE POP PUSH1 0x40 MLOAD DUP1 PUSH1 0x80 ADD PUSH1 0x40 MSTORE DUP1 DUP12 PUSH1 0x20 ADD CALLDATALOAD DUP2 MSTORE PUSH1 0x20 ADD DUP12 PUSH1 0x40 ADD CALLDATALOAD DUP2 MSTORE PUSH1 0x20 ADD PUSH2 0x11C0 DUP13 PUSH1 0x60 ADD CALLDATALOAD PUSH2 0x254B JUMP JUMPDEST DUP2 MSTORE PUSH1 0x20 ADD PUSH2 0x11D2 DUP13 PUSH1 0x80 ADD CALLDATALOAD PUSH2 0x254B JUMP JUMPDEST DUP2 MSTORE POP DUP11 PUSH1 0x0 ADD CALLDATALOAD PUSH1 0x40 MLOAD DUP7 PUSH4 0xFFFFFFFF AND PUSH1 0xE0 SHL DUP2 MSTORE PUSH1 0x4 ADD PUSH2 0x11FA SWAP6 SWAP5 SWAP4 SWAP3 SWAP2 SWAP1 PUSH2 0x46AF JUMP JUMPDEST PUSH1 0x20 PUSH1 0x40 MLOAD DUP1 DUP4 SUB DUP2 DUP7 GAS STATICCALL ISZERO DUP1 ISZERO PUSH2 0x1217 JUMPI RETURNDATASIZE PUSH1 0x0 DUP1 RETURNDATACOPY RETURNDATASIZE PUSH1 0x0 REVERT JUMPDEST POP POP POP POP PUSH1 0x40 MLOAD RETURNDATASIZE PUSH1 0x1F NOT PUSH1 0x1F DUP3 ADD AND DUP3 ADD DUP1 PUSH1 0x40 MSTORE POP DUP2 ADD SWAP1 PUSH2 0x123B SWAP2 SWAP1 PUSH2 0x4731 JUMP JUMPDEST SWAP4 POP POP POP POP SWAP3 SWAP2 POP POP JUMP JUMPDEST PUSH2 0x1250 DUP3 DUP3 PUSH2 0x2582 JUMP JUMPDEST POP POP JUMP JUMPDEST PUSH1 0x0 PUSH1 0x5 PUSH1 0x0 DUP2 SLOAD DUP1 SWAP3 SWAP2 SWAP1 PUSH2 0x1269 SWAP1 PUSH2 0x41E5 JUMP JUMPDEST SWAP2 SWAP1 POP SSTORE SWAP1 POP PUSH2 0x1279 DUP2 CALLER PUSH2 0x2334 JUMP JUMPDEST PUSH2 0xE10 PUSH1 0x4 PUSH1 0x0 DUP4 DUP2 MSTORE PUSH1 0x20 ADD SWAP1 DUP2 MSTORE PUSH1 0x20 ADD PUSH1 0x0 KECCAK256 PUSH1 0x0 ADD DUP2 SWAP1 SSTORE POP SWAP1 JUMP JUMPDEST PUSH1 0x0 PUSH1 0x5 PUSH1 0x0 DUP2 SLOAD DUP1 SWAP3 SWAP2 SWAP1 PUSH2 0x12AE SWAP1 PUSH2 0x41E5 JUMP JUMPDEST SWAP2 SWAP1 POP SSTORE SWAP1 POP PUSH2 0x12BE DUP2 DUP4 PUSH2 0x2334 JUMP JUMPDEST PUSH2 0xE10 PUSH1 0x4 PUSH1 0x0 DUP4 DUP2 MSTORE PUSH1 0x20 ADD SWAP1 DUP2 MSTORE PUSH1 0x20 ADD PUSH1 0x0 KECCAK256 PUSH1 0x0 ADD DUP2 SWAP1 SSTORE POP SWAP2 SWAP1 POP JUMP JUMPDEST PUSH1 0x0 DUP1 PUSH1 0x0 DUP4 DUP2 MSTORE PUSH1 0x20 ADD SWAP1 DUP2 MSTORE PUSH1 0x20 ADD PUSH1 0x0 KECCAK256 PUSH1 0x1 ADD SLOAD SWAP1 POP SWAP2 SWAP1 POP JUMP JUMPDEST PUSH1 0x0 PUSH2 0x130D DUP6 DUP6 DUP6 DUP6 PUSH2 0x26CD JUMP JUMPDEST SWAP1 POP TIMESTAMP PUSH1 0x4 PUSH1 0x0 DUP8 DUP2 MSTORE PUSH1 0x20 ADD SWAP1 DUP2 MSTORE PUSH1 0x20 ADD PUSH1 0x0 KECCAK256 PUSH1 0x1 ADD PUSH1 0x0 DUP4 DUP2 MSTORE PUSH1 0x20 ADD SWAP1 DUP2 MSTORE PUSH1 0x20 ADD PUSH1 0x0 KECCAK256 DUP2 SWAP1 SSTORE POP POP POP POP POP POP JUMP JUMPDEST PUSH1 0xE SLOAD DUP5 PUSH1 0x80 ADD CALLDATALOAD EQ PUSH2 0x138A JUMPI PUSH1 0x40 MLOAD PUSH32 0x8C379A000000000000000000000000000000000000000000000000000000000 DUP2 MSTORE PUSH1 0x4 ADD PUSH2 0x1381 SWAP1 PUSH2 0x47AA JUMP JUMPDEST PUSH1 0x40 MLOAD DUP1 SWAP2 SUB SWAP1 REVERT JUMPDEST PUSH1 0xC PUSH1 0x0 DUP5 DUP2 MSTORE PUSH1 0x20 ADD SWAP1 DUP2 MSTORE PUSH1 0x20 ADD PUSH1 0x0 KECCAK256 PUSH1 0x0 SWAP1 SLOAD SWAP1 PUSH2 0x100 EXP SWAP1 DIV PUSH1 0xFF AND PUSH2 0x13EA JUMPI PUSH1 0x40 MLOAD PUSH32 0x8C379A000000000000000000000000000000000000000000000000000000000 DUP2 MSTORE PUSH1 0x4 ADD PUSH2 0x13E1 SWAP1 PUSH2 0x42B3 JUMP JUMPDEST PUSH1 0x40 MLOAD DUP1 SWAP2 SUB SWAP1 REVERT JUMPDEST PUSH1 0x0 PUSH1 0x7 PUSH1 0x0 DUP6 DUP2 MSTORE PUSH1 0x20 ADD SWAP1 DUP2 MSTORE PUSH1 0x20 ADD PUSH1 0x0 KECCAK256 SLOAD SWAP1 POP PUSH1 0x0 PUSH2 0x141C DUP3 TIMESTAMP PUSH2 0x1413 SWAP2 SWAP1 PUSH2 0x4357 JUMP JUMPDEST PUSH3 0x15180 PUSH2 0xD77 JUMP JUMPDEST SWAP1 POP PUSH1 0x1 DUP2 GT ISZERO PUSH2 0x1462 JUMPI PUSH1 0x40 MLOAD PUSH32 0x8C379A000000000000000000000000000000000000000000000000000000000 DUP2 MSTORE PUSH1 0x4 ADD PUSH2 0x1459 SWAP1 PUSH2 0x4816 JUMP JUMPDEST PUSH1 0x40 MLOAD DUP1 SWAP2 SUB SWAP1 REVERT JUMPDEST PUSH1 0x0 DUP2 PUSH3 0x186A0 DUP8 PUSH2 0x1474 SWAP2 SWAP1 PUSH2 0x4315 JUMP JUMPDEST PUSH2 0x147E SWAP2 SWAP1 PUSH2 0x40BB JUMP JUMPDEST SWAP1 POP PUSH2 0x148A DUP2 DUP9 PUSH2 0x1C98 JUMP JUMPDEST DUP1 PUSH1 0xA DUP7 DUP7 PUSH1 0x40 MLOAD PUSH2 0x149D SWAP3 SWAP2 SWAP1 PUSH2 0x4866 JUMP JUMPDEST SWAP1 DUP2 MSTORE PUSH1 0x20 ADD PUSH1 0x40 MLOAD DUP1 SWAP2 SUB SWAP1 KECCAK256 DUP2 SWAP1 SSTORE POP POP POP POP POP POP POP POP JUMP JUMPDEST PUSH1 0x0 DUP1 PUSH1 0x0 DUP4 DUP2 MSTORE PUSH1 0x20 ADD SWAP1 DUP2 MSTORE PUSH1 0x20 ADD PUSH1 0x0 KECCAK256 PUSH1 0x0 ADD SLOAD SWAP1 POP SWAP2 SWAP1 POP JUMP JUMPDEST PUSH1 0x0 DUP1 PUSH1 0xA DUP5 DUP5 PUSH1 0x40 MLOAD PUSH2 0x14EC SWAP3 SWAP2 SWAP1 PUSH2 0x4866 JUMP JUMPDEST SWAP1 DUP2 MSTORE PUSH1 0x20 ADD PUSH1 0x40 MLOAD DUP1 SWAP2 SUB SWAP1 KECCAK256 SLOAD SWAP1 POP PUSH1 0x0 DUP2 SUB PUSH2 0x150F JUMPI PUSH1 0x0 SWAP2 POP POP PUSH2 0x158C JUMP JUMPDEST PUSH1 0x0 PUSH3 0x186A0 DUP7 PUSH2 0x1520 SWAP2 SWAP1 PUSH2 0x4315 JUMP JUMPDEST DUP3 PUSH2 0x152B SWAP2 SWAP1 PUSH2 0x4357 JUMP JUMPDEST SWAP1 POP PUSH1 0x0 PUSH2 0x155A PUSH1 0x7 PUSH1 0x0 DUP10 DUP2 MSTORE PUSH1 0x20 ADD SWAP1 DUP2 MSTORE PUSH1 0x20 ADD PUSH1 0x0 KECCAK256 SLOAD TIMESTAMP PUSH2 0x1551 SWAP2 SWAP1 PUSH2 0x4357 JUMP JUMPDEST PUSH3 0x14A78 PUSH2 0xD77 JUMP JUMPDEST SWAP1 POP PUSH1 0x0 PUSH2 0x16D DUP4 DUP4 PUSH2 0x156D SWAP2 SWAP1 PUSH2 0x4357 JUMP JUMPDEST GT SWAP1 POP DUP1 ISZERO PUSH2 0x1583 JUMPI PUSH1 0x0 SWAP5 POP POP POP POP POP PUSH2 0x158C JUMP JUMPDEST PUSH1 0x1 SWAP5 POP POP POP POP POP JUMPDEST SWAP4 SWAP3 POP POP POP JUMP JUMPDEST PUSH1 0x0 PUSH2 0x15B9 DUP3 PUSH1 0x0 DUP1 DUP7 DUP2 MSTORE PUSH1 0x20 ADD SWAP1 DUP2 MSTORE PUSH1 0x20 ADD PUSH1 0x0 KECCAK256 PUSH2 0x2800 SWAP1 SWAP2 SWAP1 PUSH4 0xFFFFFFFF AND JUMP JUMPDEST SWAP1 POP SWAP3 SWAP2 POP POP JUMP JUMPDEST PUSH1 0x0 DUP1 PUSH2 0x2711 SWAP1 POP JUMPDEST PUSH1 0xC PUSH1 0x0 DUP3 DUP2 MSTORE PUSH1 0x20 ADD SWAP1 DUP2 MSTORE PUSH1 0x20 ADD PUSH1 0x0 KECCAK256 PUSH1 0x0 SWAP1 SLOAD SWAP1 PUSH2 0x100 EXP SWAP1 DIV PUSH1 0xFF AND ISZERO PUSH2 0x1619 JUMPI PUSH2 0x15F9 DUP2 PUSH2 0x18CE JUMP JUMPDEST DUP3 PUSH2 0x1604 SWAP2 SWAP1 PUSH2 0x40BB JUMP JUMPDEST SWAP2 POP DUP1 DUP1 PUSH2 0x1611 SWAP1 PUSH2 0x41E5 JUMP JUMPDEST SWAP2 POP POP PUSH2 0x15CA JUMP JUMPDEST POP SWAP1 JUMP JUMPDEST PUSH1 0x0 DUP1 PUSH2 0x164B PUSH1 0x7 PUSH1 0x0 DUP6 DUP2 MSTORE PUSH1 0x20 ADD SWAP1 DUP2 MSTORE PUSH1 0x20 ADD PUSH1 0x0 KECCAK256 SLOAD TIMESTAMP PUSH2 0x1642 SWAP2 SWAP1 PUSH2 0x4357 JUMP JUMPDEST PUSH3 0x14A78 PUSH2 0xD77 JUMP JUMPDEST SWAP1 POP PUSH1 0x0 PUSH1 0x1 PUSH3 0x186A0 DUP6 PUSH2 0x1660 SWAP2 SWAP1 PUSH2 0x4315 JUMP JUMPDEST PUSH2 0x166A SWAP2 SWAP1 PUSH2 0x40BB JUMP JUMPDEST SWAP1 POP PUSH1 0x0 DUP1 PUSH1 0x9 PUSH1 0x0 DUP8 DUP2 MSTORE PUSH1 0x20 ADD SWAP1 DUP2 MSTORE PUSH1 0x20 ADD PUSH1 0x0 KECCAK256 SLOAD PUSH1 0x1 PUSH2 0x168F SWAP2 SWAP1 PUSH2 0x40BB JUMP JUMPDEST SWAP1 POP PUSH1 0x0 PUSH2 0x16A9 DUP3 DUP7 PUSH2 0x16A2 SWAP2 SWAP1 PUSH2 0x4357 JUMP JUMPDEST PUSH1 0x1E PUSH2 0xD77 JUMP JUMPDEST SWAP1 POP PUSH1 0xC DUP2 GT ISZERO PUSH2 0x16B9 JUMPI PUSH1 0xC SWAP1 POP JUMPDEST PUSH1 0x0 DUP3 SWAP1 POP JUMPDEST DUP6 DUP2 LT ISZERO PUSH2 0x17E4 JUMPI PUSH1 0x0 PUSH2 0x16D2 DUP7 PUSH2 0x14B8 JUMP JUMPDEST SUB PUSH2 0x16EA JUMPI DUP5 DUP1 PUSH2 0x16E2 SWAP1 PUSH2 0x41E5 JUMP JUMPDEST SWAP6 POP POP PUSH2 0x17D7 JUMP JUMPDEST PUSH1 0x0 PUSH2 0x1715 DUP3 PUSH1 0x8 PUSH1 0x0 DUP13 DUP2 MSTORE PUSH1 0x20 ADD SWAP1 DUP2 MSTORE PUSH1 0x20 ADD PUSH1 0x0 KECCAK256 SLOAD PUSH2 0x170E SWAP2 SWAP1 PUSH2 0x4357 JUMP JUMPDEST PUSH1 0x1E PUSH2 0xD77 JUMP JUMPDEST SWAP1 POP PUSH1 0xC DUP2 GT ISZERO PUSH2 0x1725 JUMPI PUSH1 0xC SWAP1 POP JUMPDEST DUP1 DUP4 PUSH2 0x1731 SWAP2 SWAP1 PUSH2 0x4357 JUMP JUMPDEST PUSH1 0xB PUSH1 0x0 DUP9 DUP2 MSTORE PUSH1 0x20 ADD SWAP1 DUP2 MSTORE PUSH1 0x20 ADD PUSH1 0x0 KECCAK256 SLOAD PUSH2 0x174E DUP9 PUSH2 0x14B8 JUMP JUMPDEST PUSH2 0x1758 SWAP2 SWAP1 PUSH2 0x4357 JUMP JUMPDEST PUSH2 0x1762 SWAP2 SWAP1 PUSH2 0x4315 JUMP JUMPDEST DUP6 PUSH2 0x176D SWAP2 SWAP1 PUSH2 0x40BB JUMP JUMPDEST SWAP5 POP DUP6 DUP1 PUSH2 0x177A SWAP1 PUSH2 0x41E5 JUMP JUMPDEST SWAP7 POP POP PUSH1 0xC DUP4 LT PUSH2 0x179E JUMPI DUP2 PUSH1 0x9 PUSH1 0x0 DUP12 DUP2 MSTORE PUSH1 0x20 ADD SWAP1 DUP2 MSTORE PUSH1 0x20 ADD PUSH1 0x0 KECCAK256 DUP2 SWAP1 SSTORE POP JUMPDEST PUSH1 0xC PUSH2 0x17B6 DUP4 DUP10 PUSH2 0x17AF SWAP2 SWAP1 PUSH2 0x4357 JUMP JUMPDEST PUSH1 0x1E PUSH2 0xD77 JUMP JUMPDEST LT ISZERO PUSH2 0x17D5 JUMPI PUSH2 0x17D2 DUP3 DUP9 PUSH2 0x17CB SWAP2 SWAP1 PUSH2 0x4357 JUMP JUMPDEST PUSH1 0x1E PUSH2 0xD77 JUMP JUMPDEST SWAP3 POP JUMPDEST POP JUMPDEST DUP1 DUP1 PUSH1 0x1 ADD SWAP2 POP POP PUSH2 0x16BF JUMP JUMPDEST POP DUP5 PUSH1 0x8 PUSH1 0x0 DUP10 DUP2 MSTORE PUSH1 0x20 ADD SWAP1 DUP2 MSTORE PUSH1 0x20 ADD PUSH1 0x0 KECCAK256 DUP2 SWAP1 SSTORE POP PUSH1 0x11 PUSH1 0x0 SWAP1 SLOAD SWAP1 PUSH2 0x100 EXP SWAP1 DIV PUSH20 0xFFFFFFFFFFFFFFFFFFFFFFFFFFFFFFFFFFFFFFFF AND PUSH20 0xFFFFFFFFFFFFFFFFFFFFFFFFFFFFFFFFFFFFFFFF AND PUSH4 0xE72ED0B2 DUP9 PUSH1 0x40 MLOAD DUP3 PUSH4 0xFFFFFFFF AND PUSH1 0xE0 SHL DUP2 MSTORE PUSH1 0x4 ADD PUSH2 0x1858 SWAP2 SWAP1 PUSH2 0x396E JUMP JUMPDEST PUSH1 0x20 PUSH1 0x40 MLOAD DUP1 DUP4 SUB DUP2 DUP7 GAS STATICCALL ISZERO DUP1 ISZERO PUSH2 0x1875 JUMPI RETURNDATASIZE PUSH1 0x0 DUP1 RETURNDATACOPY RETURNDATASIZE PUSH1 0x0 REVERT JUMPDEST POP POP POP POP PUSH1 0x40 MLOAD RETURNDATASIZE PUSH1 0x1F NOT PUSH1 0x1F DUP3 ADD AND DUP3 ADD DUP1 PUSH1 0x40 MSTORE POP DUP2 ADD SWAP1 PUSH2 0x1899 SWAP2 SWAP1 PUSH2 0x42E8 JUMP JUMPDEST DUP4 PUSH2 0x18A4 SWAP2 SWAP1 PUSH2 0x4315 JUMP JUMPDEST SWAP6 POP POP POP POP POP POP SWAP2 SWAP1 POP JUMP JUMPDEST PUSH1 0x4 PUSH1 0x20 MSTORE DUP1 PUSH1 0x0 MSTORE PUSH1 0x40 PUSH1 0x0 KECCAK256 PUSH1 0x0 SWAP2 POP SWAP1 POP DUP1 PUSH1 0x0 ADD SLOAD SWAP1 POP DUP2 JUMP JUMPDEST PUSH1 0x0 DUP1 PUSH2 0x18FC PUSH1 0x7 PUSH1 0x0 DUP6 DUP2 MSTORE PUSH1 0x20 ADD SWAP1 DUP2 MSTORE PUSH1 0x20 ADD PUSH1 0x0 KECCAK256 SLOAD TIMESTAMP PUSH2 0x18F3 SWAP2 SWAP1 PUSH2 0x4357 JUMP JUMPDEST PUSH3 0x14A78 PUSH2 0xD77 JUMP JUMPDEST SWAP1 POP PUSH1 0x0 PUSH1 0x1 PUSH3 0x186A0 DUP6 PUSH2 0x1911 SWAP2 SWAP1 PUSH2 0x4315 JUMP JUMPDEST PUSH2 0x191B SWAP2 SWAP1 PUSH2 0x40BB JUMP JUMPDEST SWAP1 POP PUSH1 0x0 DUP1 PUSH1 0x9 PUSH1 0x0 DUP8 DUP2 MSTORE PUSH1 0x20 ADD SWAP1 DUP2 MSTORE PUSH1 0x20 ADD PUSH1 0x0 KECCAK256 SLOAD SWAP1 POP PUSH1 0x0 PUSH2 0x194E DUP3 DUP7 PUSH2 0x1947 SWAP2 SWAP1 PUSH2 0x4357 JUMP JUMPDEST PUSH1 0x1E PUSH2 0xD77 JUMP JUMPDEST SWAP1 POP PUSH1 0xC DUP2 GT ISZERO PUSH2 0x195E JUMPI PUSH1 0xC SWAP1 POP JUMPDEST PUSH1 0x0 DUP3 SWAP1 POP JUMPDEST DUP6 DUP2 LT ISZERO PUSH2 0x1A68 JUMPI PUSH1 0x0 PUSH2 0x1977 DUP7 PUSH2 0x14B8 JUMP JUMPDEST SUB PUSH2 0x198F JUMPI DUP5 DUP1 PUSH2 0x1987 SWAP1 PUSH2 0x41E5 JUMP JUMPDEST SWAP6 POP POP PUSH2 0x1A5B JUMP JUMPDEST PUSH1 0x0 PUSH2 0x19BA DUP3 PUSH1 0x8 PUSH1 0x0 DUP13 DUP2 MSTORE PUSH1 0x20 ADD SWAP1 DUP2 MSTORE PUSH1 0x20 ADD PUSH1 0x0 KECCAK256 SLOAD PUSH2 0x19B3 SWAP2 SWAP1 PUSH2 0x4357 JUMP JUMPDEST PUSH1 0x1E PUSH2 0xD77 JUMP JUMPDEST SWAP1 POP PUSH1 0xC DUP2 GT ISZERO PUSH2 0x19CA JUMPI PUSH1 0xC SWAP1 POP JUMPDEST DUP1 DUP4 PUSH2 0x19D6 SWAP2 SWAP1 PUSH2 0x4357 JUMP JUMPDEST PUSH1 0xB PUSH1 0x0 DUP9 DUP2 MSTORE PUSH1 0x20 ADD SWAP1 DUP2 MSTORE PUSH1 0x20 ADD PUSH1 0x0 KECCAK256 SLOAD PUSH2 0x19F3 DUP9 PUSH2 0x14B8 JUMP JUMPDEST PUSH2 0x19FD SWAP2 SWAP1 PUSH2 0x4357 JUMP JUMPDEST PUSH2 0x1A07 SWAP2 SWAP1 PUSH2 0x4315 JUMP JUMPDEST DUP6 PUSH2 0x1A12 SWAP2 SWAP1 PUSH2 0x40BB JUMP JUMPDEST SWAP5 POP DUP6 DUP1 PUSH2 0x1A1F SWAP1 PUSH2 0x41E5 JUMP JUMPDEST SWAP7 POP POP PUSH1 0xC PUSH2 0x1A3A DUP4 DUP10 PUSH2 0x1A33 SWAP2 SWAP1 PUSH2 0x4357 JUMP JUMPDEST PUSH1 0x1E PUSH2 0xD77 JUMP JUMPDEST LT ISZERO PUSH2 0x1A59 JUMPI PUSH2 0x1A56 DUP3 DUP9 PUSH2 0x1A4F SWAP2 SWAP1 PUSH2 0x4357 JUMP JUMPDEST PUSH1 0x1E PUSH2 0xD77 JUMP JUMPDEST SWAP3 POP JUMPDEST POP JUMPDEST DUP1 DUP1 PUSH1 0x1 ADD SWAP2 POP POP PUSH2 0x1964 JUMP JUMPDEST POP PUSH1 0x11 PUSH1 0x0 SWAP1 SLOAD SWAP1 PUSH2 0x100 EXP SWAP1 DIV PUSH20 0xFFFFFFFFFFFFFFFFFFFFFFFFFFFFFFFFFFFFFFFF AND PUSH20 0xFFFFFFFFFFFFFFFFFFFFFFFFFFFFFFFFFFFFFFFF AND PUSH4 0xE72ED0B2 DUP9 PUSH1 0x40 MLOAD DUP3 PUSH4 0xFFFFFFFF AND PUSH1 0xE0 SHL DUP2 MSTORE PUSH1 0x4 ADD PUSH2 0x1AC4 SWAP2 SWAP1 PUSH2 0x396E JUMP JUMPDEST PUSH1 0x20 PUSH1 0x40 MLOAD DUP1 DUP4 SUB DUP2 DUP7 GAS STATICCALL ISZERO DUP1 ISZERO PUSH2 0x1AE1 JUMPI RETURNDATASIZE PUSH1 0x0 DUP1 RETURNDATACOPY RETURNDATASIZE PUSH1 0x0 REVERT JUMPDEST POP POP POP POP PUSH1 0x40 MLOAD RETURNDATASIZE PUSH1 0x1F NOT PUSH1 0x1F DUP3 ADD AND DUP3 ADD DUP1 PUSH1 0x40 MSTORE POP DUP2 ADD SWAP1 PUSH2 0x1B05 SWAP2 SWAP1 PUSH2 0x42E8 JUMP JUMPDEST DUP4 PUSH2 0x1B10 SWAP2 SWAP1 PUSH2 0x4315 JUMP JUMPDEST SWAP6 POP POP POP POP POP POP SWAP2 SWAP1 POP JUMP JUMPDEST PUSH1 0x0 PUSH1 0x1 PUSH1 0x0 DUP4 DUP2 MSTORE PUSH1 0x20 ADD SWAP1 DUP2 MSTORE PUSH1 0x20 ADD PUSH1 0x0 KECCAK256 PUSH1 0x0 SWAP1 SLOAD SWAP1 PUSH2 0x100 EXP SWAP1 DIV PUSH20 0xFFFFFFFFFFFFFFFFFFFFFFFFFFFFFFFFFFFFFFFF AND SWAP1 POP SWAP2 SWAP1 POP JUMP JUMPDEST PUSH1 0x0 PUSH1 0xC PUSH1 0x0 DUP4 DUP2 MSTORE PUSH1 0x20 ADD SWAP1 DUP2 MSTORE PUSH1 0x20 ADD PUSH1 0x0 KECCAK256 PUSH1 0x0 SWAP1 SLOAD SWAP1 PUSH2 0x100 EXP SWAP1 DIV PUSH1 0xFF AND SWAP1 POP SWAP2 SWAP1 POP JUMP JUMPDEST PUSH1 0x0 DUP1 PUSH1 0xA DUP4 PUSH1 0x40 MLOAD PUSH2 0x1B96 SWAP2 SWAP1 PUSH2 0x48E5 JUMP JUMPDEST SWAP1 DUP2 MSTORE PUSH1 0x20 ADD PUSH1 0x40 MLOAD DUP1 SWAP2 SUB SWAP1 KECCAK256 SLOAD SWAP1 POP PUSH1 0x0 PUSH3 0x186A0 DUP6 PUSH2 0x1BB8 SWAP2 SWAP1 PUSH2 0x4315 JUMP JUMPDEST DUP3 PUSH2 0x1BC3 SWAP2 SWAP1 PUSH2 0x4357 JUMP JUMPDEST SWAP1 POP PUSH1 0x0 PUSH2 0x1BD2 DUP3 PUSH1 0x1E PUSH2 0xD77 JUMP JUMPDEST PUSH1 0xC PUSH2 0x1BDE SWAP2 SWAP1 PUSH2 0x4357 JUMP JUMPDEST SWAP1 POP PUSH1 0x0 PUSH1 0x11 PUSH1 0x0 SWAP1 SLOAD SWAP1 PUSH2 0x100 EXP SWAP1 DIV PUSH20 0xFFFFFFFFFFFFFFFFFFFFFFFFFFFFFFFFFFFFFFFF AND PUSH20 0xFFFFFFFFFFFFFFFFFFFFFFFFFFFFFFFFFFFFFFFF AND PUSH4 0xE72ED0B2 DUP9 PUSH1 0x40 MLOAD DUP3 PUSH4 0xFFFFFFFF AND PUSH1 0xE0 SHL DUP2 MSTORE PUSH1 0x4 ADD PUSH2 0x1C3D SWAP2 SWAP1 PUSH2 0x396E JUMP JUMPDEST PUSH1 0x20 PUSH1 0x40 MLOAD DUP1 DUP4 SUB DUP2 DUP7 GAS STATICCALL ISZERO DUP1 ISZERO PUSH2 0x1C5A JUMPI RETURNDATASIZE PUSH1 0x0 DUP1 RETURNDATACOPY RETURNDATASIZE PUSH1 0x0 REVERT JUMPDEST POP POP POP POP PUSH1 0x40 MLOAD RETURNDATASIZE PUSH1 0x1F NOT PUSH1 0x1F DUP3 ADD AND DUP3 ADD DUP1 PUSH1 0x40 MSTORE POP DUP2 ADD SWAP1 PUSH2 0x1C7E SWAP2 SWAP1 PUSH2 0x42E8 JUMP JUMPDEST SWAP1 POP DUP2 DUP2 PUSH2 0x1C8C SWAP2 SWAP1 PUSH2 0x4315 JUMP JUMPDEST SWAP5 POP POP POP POP POP SWAP3 SWAP2 POP POP JUMP JUMPDEST PUSH1 0x4 PUSH1 0x0 DUP4 DUP2 MSTORE PUSH1 0x20 ADD SWAP1 DUP2 MSTORE PUSH1 0x20 ADD PUSH1 0x0 KECCAK256 PUSH1 0x2 ADD PUSH1 0x0 DUP3 PUSH1 0x40 ADD CALLDATALOAD DUP2 MSTORE PUSH1 0x20 ADD SWAP1 DUP2 MSTORE PUSH1 0x20 ADD PUSH1 0x0 KECCAK256 PUSH1 0x0 SWAP1 SLOAD SWAP1 PUSH2 0x100 EXP SWAP1 DIV PUSH1 0xFF AND ISZERO PUSH2 0x1D08 JUMPI PUSH1 0x40 MLOAD PUSH32 0x208B15E800000000000000000000000000000000000000000000000000000000 DUP2 MSTORE PUSH1 0x4 ADD PUSH1 0x40 MLOAD DUP1 SWAP2 SUB SWAP1 REVERT JUMPDEST PUSH2 0x1D12 DUP3 DUP3 PUSH2 0xDFB JUMP JUMPDEST PUSH2 0x1D48 JUMPI PUSH1 0x40 MLOAD PUSH32 0x4AA6BC4000000000000000000000000000000000000000000000000000000000 DUP2 MSTORE PUSH1 0x4 ADD PUSH1 0x40 MLOAD DUP1 SWAP2 SUB SWAP1 REVERT JUMPDEST PUSH1 0x1 PUSH1 0x4 PUSH1 0x0 DUP5 DUP2 MSTORE PUSH1 0x20 ADD SWAP1 DUP2 MSTORE PUSH1 0x20 ADD PUSH1 0x0 KECCAK256 PUSH1 0x2 ADD PUSH1 0x0 DUP4 PUSH1 0x40 ADD CALLDATALOAD DUP2 MSTORE PUSH1 0x20 ADD SWAP1 DUP2 MSTORE PUSH1 0x20 ADD PUSH1 0x0 KECCAK256 PUSH1 0x0 PUSH2 0x100 EXP DUP2 SLOAD DUP2 PUSH1 0xFF MUL NOT AND SWAP1 DUP4 ISZERO ISZERO MUL OR SWAP1 SSTORE POP DUP1 PUSH1 0x80 ADD CALLDATALOAD DUP2 PUSH1 0x20 ADD CALLDATALOAD DUP4 PUSH32 0xC32E14CFE81A05D371C248D22DE6B7AE849E981B76A1F8842E7B6DA73FC405A DUP5 PUSH1 0x0 ADD CALLDATALOAD DUP6 PUSH1 0x40 ADD CALLDATALOAD DUP7 PUSH1 0x60 ADD CALLDATALOAD DUP8 PUSH1 0xA0 ADD PUSH1 0x40 MLOAD PUSH2 0x1DDB SWAP5 SWAP4 SWAP3 SWAP2 SWAP1 PUSH2 0x4916 JUMP JUMPDEST PUSH1 0x40 MLOAD DUP1 SWAP2 SUB SWAP1 LOG4 POP POP JUMP JUMPDEST PUSH1 0x5 SLOAD DUP2 JUMP JUMPDEST PUSH2 0x1DF6 DUP2 PUSH2 0x2823 JUMP JUMPDEST POP JUMP JUMPDEST PUSH1 0x0 PUSH2 0x1E15 PUSH1 0x0 DUP1 DUP5 DUP2 MSTORE PUSH1 0x20 ADD SWAP1 DUP2 MSTORE PUSH1 0x20 ADD PUSH1 0x0 KECCAK256 PUSH2 0x29DA JUMP JUMPDEST SWAP1 POP SWAP2 SWAP1 POP JUMP JUMPDEST PUSH1 0xD SLOAD DUP4 PUSH1 0x80 ADD CALLDATALOAD EQ PUSH2 0x1E64 JUMPI PUSH1 0x40 MLOAD PUSH32 0x8C379A000000000000000000000000000000000000000000000000000000000 DUP2 MSTORE PUSH1 0x4 ADD PUSH2 0x1E5B SWAP1 PUSH2 0x47AA JUMP JUMPDEST PUSH1 0x40 MLOAD DUP1 SWAP2 SUB SWAP1 REVERT JUMPDEST PUSH2 0x1E6E DUP3 DUP5 PUSH2 0x1C98 JUMP JUMPDEST PUSH1 0x0 PUSH2 0x1E7A DUP4 DUP4 PUSH2 0x1B83 JUMP JUMPDEST SWAP1 POP PUSH1 0x10 PUSH1 0x0 SWAP1 SLOAD SWAP1 PUSH2 0x100 EXP SWAP1 DIV PUSH20 0xFFFFFFFFFFFFFFFFFFFFFFFFFFFFFFFFFFFFFFFF AND PUSH20 0xFFFFFFFFFFFFFFFFFFFFFFFFFFFFFFFFFFFFFFFF AND PUSH4 0xD5568F98 CALLER DUP4 PUSH1 0x40 MLOAD DUP4 PUSH4 0xFFFFFFFF AND PUSH1 0xE0 SHL DUP2 MSTORE PUSH1 0x4 ADD PUSH2 0x1ED9 SWAP3 SWAP2 SWAP1 PUSH2 0x422D JUMP JUMPDEST PUSH1 0x0 PUSH1 0x40 MLOAD DUP1 DUP4 SUB DUP2 PUSH1 0x0 DUP8 DUP1 EXTCODESIZE ISZERO DUP1 ISZERO PUSH2 0x1EF3 JUMPI PUSH1 0x0 DUP1 REVERT JUMPDEST POP GAS CALL ISZERO DUP1 ISZERO PUSH2 0x1F07 JUMPI RETURNDATASIZE PUSH1 0x0 DUP1 RETURNDATACOPY RETURNDATASIZE PUSH1 0x0 REVERT JUMPDEST POP POP POP POP PUSH1 0x0 PUSH1 0xA DUP4 PUSH1 0x40 MLOAD PUSH2 0x1F1D SWAP2 SWAP1 PUSH2 0x48E5 JUMP JUMPDEST SWAP1 DUP2 MSTORE PUSH1 0x20 ADD PUSH1 0x40 MLOAD DUP1 SWAP2 SUB SWAP1 KECCAK256 SLOAD SWAP1 POP PUSH1 0xB PUSH1 0x0 DUP3 DUP2 MSTORE PUSH1 0x20 ADD SWAP1 DUP2 MSTORE PUSH1 0x20 ADD PUSH1 0x0 KECCAK256 PUSH1 0x0 DUP2 SLOAD DUP1 SWAP3 SWAP2 SWAP1 PUSH2 0x1F52 SWAP1 PUSH2 0x41E5 JUMP JUMPDEST SWAP2 SWAP1 POP SSTORE POP PUSH1 0x0 PUSH1 0xA DUP5 PUSH1 0x40 MLOAD PUSH2 0x1F69 SWAP2 SWAP1 PUSH2 0x48E5 JUMP JUMPDEST SWAP1 DUP2 MSTORE PUSH1 0x20 ADD PUSH1 0x40 MLOAD DUP1 SWAP2 SUB SWAP1 KECCAK256 DUP2 SWAP1 SSTORE POP POP POP POP POP POP JUMP JUMPDEST DUP2 CALLER PUSH20 0xFFFFFFFFFFFFFFFFFFFFFFFFFFFFFFFFFFFFFFFF AND PUSH1 0x1 PUSH1 0x0 DUP4 DUP2 MSTORE PUSH1 0x20 ADD SWAP1 DUP2 MSTORE PUSH1 0x20 ADD PUSH1 0x0 KECCAK256 PUSH1 0x0 SWAP1 SLOAD SWAP1 PUSH2 0x100 EXP SWAP1 DIV PUSH20 0xFFFFFFFFFFFFFFFFFFFFFFFFFFFFFFFFFFFFFFFF AND PUSH20 0xFFFFFFFFFFFFFFFFFFFFFFFFFFFFFFFFFFFFFFFF AND EQ PUSH2 0x201B JUMPI PUSH1 0x40 MLOAD PUSH32 0xBB9BF27800000000000000000000000000000000000000000000000000000000 DUP2 MSTORE PUSH1 0x4 ADD PUSH1 0x40 MLOAD DUP1 SWAP2 SUB SWAP1 REVERT JUMPDEST PUSH1 0x0 PUSH1 0x4 PUSH1 0x0 DUP6 DUP2 MSTORE PUSH1 0x20 ADD SWAP1 DUP2 MSTORE PUSH1 0x20 ADD PUSH1 0x0 KECCAK256 PUSH1 0x0 ADD SLOAD SWAP1 POP DUP3 PUSH1 0x4 PUSH1 0x0 DUP7 DUP2 MSTORE PUSH1 0x20 ADD SWAP1 DUP2 MSTORE PUSH1 0x20 ADD PUSH1 0x0 KECCAK256 PUSH1 0x0 ADD DUP2 SWAP1 SSTORE POP DUP4 PUSH32 0x264B2A8F6763C084235FE832BA903482B2EF1A521336881FC75B987C2DFD29C5 DUP3 DUP6 PUSH1 0x40 MLOAD PUSH2 0x2083 SWAP3 SWAP2 SWAP1 PUSH2 0x495C JUMP JUMPDEST PUSH1 0x40 MLOAD DUP1 SWAP2 SUB SWAP1 LOG2 POP POP POP POP JUMP JUMPDEST PUSH1 0x0 DUP4 CALLER PUSH20 0xFFFFFFFFFFFFFFFFFFFFFFFFFFFFFFFFFFFFFFFF AND PUSH1 0x1 PUSH1 0x0 DUP4 DUP2 MSTORE PUSH1 0x20 ADD SWAP1 DUP2 MSTORE PUSH1 0x20 ADD PUSH1 0x0 KECCAK256 PUSH1 0x0 SWAP1 SLOAD SWAP1 PUSH2 0x100 EXP SWAP1 DIV PUSH20 0xFFFFFFFFFFFFFFFFFFFFFFFFFFFFFFFFFFFFFFFF AND PUSH20 0xFFFFFFFFFFFFFFFFFFFFFFFFFFFFFFFFFFFFFFFF AND EQ PUSH2 0x212C JUMPI PUSH1 0x40 MLOAD PUSH32 0xBB9BF27800000000000000000000000000000000000000000000000000000000 DUP2 MSTORE PUSH1 0x4 ADD PUSH1 0x40 MLOAD DUP1 SWAP2 SUB SWAP1 REVERT JUMPDEST PUSH1 0x0 PUSH2 0x2137 DUP7 PUSH2 0x14B8 JUMP JUMPDEST SWAP1 POP PUSH2 0x215F DUP6 DUP6 PUSH1 0x0 DUP1 DUP11 DUP2 MSTORE PUSH1 0x20 ADD SWAP1 DUP2 MSTORE PUSH1 0x20 ADD PUSH1 0x0 KECCAK256 PUSH2 0x29FD SWAP1 SWAP3 SWAP2 SWAP1 PUSH4 0xFFFFFFFF AND JUMP JUMPDEST SWAP3 POP DUP6 PUSH32 0x61E5E8054E3DAF084A0C6C646C065E8BF5E7CA4D5567BDA942309BD1652F349D DUP3 DUP8 DUP8 DUP8 PUSH1 0x40 MLOAD PUSH2 0x2197 SWAP5 SWAP4 SWAP3 SWAP2 SWAP1 PUSH2 0x49F7 JUMP JUMPDEST PUSH1 0x40 MLOAD DUP1 SWAP2 SUB SWAP1 LOG2 POP POP SWAP4 SWAP3 POP POP POP JUMP JUMPDEST PUSH1 0x0 DUP1 DUP4 PUSH1 0x3 ADD PUSH1 0x0 DUP5 DUP2 MSTORE PUSH1 0x20 ADD SWAP1 DUP2 MSTORE PUSH1 0x20 ADD PUSH1 0x0 KECCAK256 SLOAD SUB PUSH2 0x21F8 JUMPI PUSH1 0x40 MLOAD PUSH32 0x7204756C00000000000000000000000000000000000000000000000000000000 DUP2 MSTORE PUSH1 0x4 ADD PUSH1 0x40 MLOAD DUP1 SWAP2 SUB SWAP1 REVERT JUMPDEST PUSH1 0x1 DUP4 PUSH1 0x3 ADD PUSH1 0x0 DUP5 DUP2 MSTORE PUSH1 0x20 ADD SWAP1 DUP2 MSTORE PUSH1 0x20 ADD PUSH1 0x0 KECCAK256 SLOAD PUSH2 0x221A SWAP2 SWAP1 PUSH2 0x4357 JUMP JUMPDEST SWAP1 POP SWAP3 SWAP2 POP POP JUMP JUMPDEST PUSH1 0x0 DUP3 CALLER PUSH20 0xFFFFFFFFFFFFFFFFFFFFFFFFFFFFFFFFFFFFFFFF AND PUSH1 0x1 PUSH1 0x0 DUP4 DUP2 MSTORE PUSH1 0x20 ADD SWAP1 DUP2 MSTORE PUSH1 0x20 ADD PUSH1 0x0 KECCAK256 PUSH1 0x0 SWAP1 SLOAD SWAP1 PUSH2 0x100 EXP SWAP1 DIV PUSH20 0xFFFFFFFFFFFFFFFFFFFFFFFFFFFFFFFFFFFFFFFF AND PUSH20 0xFFFFFFFFFFFFFFFFFFFFFFFFFFFFFFFFFFFFFFFF AND EQ PUSH2 0x22BD JUMPI PUSH1 0x40 MLOAD PUSH32 0xBB9BF27800000000000000000000000000000000000000000000000000000000 DUP2 MSTORE PUSH1 0x4 ADD PUSH1 0x40 MLOAD DUP1 SWAP2 SUB SWAP1 REVERT JUMPDEST PUSH1 0x0 PUSH2 0x22C8 DUP6 PUSH2 0x14B8 JUMP JUMPDEST SWAP1 POP PUSH2 0x22EE DUP5 PUSH1 0x0 DUP1 DUP9 DUP2 MSTORE PUSH1 0x20 ADD SWAP1 DUP2 MSTORE PUSH1 0x20 ADD PUSH1 0x0 KECCAK256 PUSH2 0x2FE1 SWAP1 SWAP2 SWAP1 PUSH4 0xFFFFFFFF AND JUMP JUMPDEST SWAP3 POP DUP5 PUSH32 0x19239B3F93CD10558AAF11423AF70C77763BF54F52BCC75BFA74D4D13548CDE9 DUP3 DUP7 DUP7 PUSH1 0x40 MLOAD PUSH2 0x2324 SWAP4 SWAP3 SWAP2 SWAP1 PUSH2 0x4A37 JUMP JUMPDEST PUSH1 0x40 MLOAD DUP1 SWAP2 SUB SWAP1 LOG2 POP POP SWAP3 SWAP2 POP POP JUMP JUMPDEST DUP1 PUSH1 0x1 PUSH1 0x0 DUP5 DUP2 MSTORE PUSH1 0x20 ADD SWAP1 DUP2 MSTORE PUSH1 0x20 ADD PUSH1 0x0 KECCAK256 PUSH1 0x0 PUSH2 0x100 EXP DUP2 SLOAD DUP2 PUSH20 0xFFFFFFFFFFFFFFFFFFFFFFFFFFFFFFFFFFFFFFFF MUL NOT AND SWAP1 DUP4 PUSH20 0xFFFFFFFFFFFFFFFFFFFFFFFFFFFFFFFFFFFFFFFF AND MUL OR SWAP1 SSTORE POP DUP2 PUSH32 0xF0ADFB94EAB6DAF835DEB69C5738FE636150C3DFD08094A76F39B963DC8CB05A PUSH1 0x40 MLOAD PUSH1 0x40 MLOAD DUP1 SWAP2 SUB SWAP1 LOG2 DUP1 PUSH20 0xFFFFFFFFFFFFFFFFFFFFFFFFFFFFFFFFFFFFFFFF AND PUSH1 0x0 PUSH20 0xFFFFFFFFFFFFFFFFFFFFFFFFFFFFFFFFFFFFFFFF AND DUP4 PUSH32 0xBA83579A0E79193EF649B9F5A8759D35AF086BA62A3E207B52E4A8AE30D49E3 PUSH1 0x40 MLOAD PUSH1 0x40 MLOAD DUP1 SWAP2 SUB SWAP1 LOG4 POP POP JUMP JUMPDEST PUSH1 0x0 DUP6 CALLER PUSH20 0xFFFFFFFFFFFFFFFFFFFFFFFFFFFFFFFFFFFFFFFF AND PUSH1 0x1 PUSH1 0x0 DUP4 DUP2 MSTORE PUSH1 0x20 ADD SWAP1 DUP2 MSTORE PUSH1 0x20 ADD PUSH1 0x0 KECCAK256 PUSH1 0x0 SWAP1 SLOAD SWAP1 PUSH2 0x100 EXP SWAP1 DIV PUSH20 0xFFFFFFFFFFFFFFFFFFFFFFFFFFFFFFFFFFFFFFFF AND PUSH20 0xFFFFFFFFFFFFFFFFFFFFFFFFFFFFFFFFFFFFFFFF AND EQ PUSH2 0x24AE JUMPI PUSH1 0x40 MLOAD PUSH32 0xBB9BF27800000000000000000000000000000000000000000000000000000000 DUP2 MSTORE PUSH1 0x4 ADD PUSH1 0x40 MLOAD DUP1 SWAP2 SUB SWAP1 REVERT JUMPDEST PUSH1 0x0 PUSH2 0x24D4 DUP8 PUSH1 0x0 DUP1 DUP12 DUP2 MSTORE PUSH1 0x20 ADD SWAP1 DUP2 MSTORE PUSH1 0x20 ADD PUSH1 0x0 KECCAK256 PUSH2 0x21A8 SWAP1 SWAP2 SWAP1 PUSH4 0xFFFFFFFF AND JUMP JUMPDEST SWAP1 POP PUSH2 0x2500 DUP8 DUP8 DUP8 DUP8 PUSH1 0x0 DUP1 DUP15 DUP2 MSTORE PUSH1 0x20 ADD SWAP1 DUP2 MSTORE PUSH1 0x20 ADD PUSH1 0x0 KECCAK256 PUSH2 0x3240 SWAP1 SWAP5 SWAP4 SWAP3 SWAP2 SWAP1 PUSH4 0xFFFFFFFF AND JUMP JUMPDEST SWAP3 POP DUP8 PUSH32 0xEA3588E4A2A0C93D6A0E69DFEAF7496F43CCCCF02AD9CE0A5B7627CBCA4B61B1 DUP3 DUP10 DUP10 DUP8 PUSH1 0x40 MLOAD PUSH2 0x2538 SWAP5 SWAP4 SWAP3 SWAP2 SWAP1 PUSH2 0x4A6E JUMP JUMPDEST PUSH1 0x40 MLOAD DUP1 SWAP2 SUB SWAP1 LOG2 POP POP SWAP6 SWAP5 POP POP POP POP POP JUMP JUMPDEST PUSH1 0x0 PUSH1 0x8 DUP3 PUSH1 0x40 MLOAD PUSH1 0x20 ADD PUSH2 0x2560 SWAP2 SWAP1 PUSH2 0x4AD4 JUMP JUMPDEST PUSH1 0x40 MLOAD PUSH1 0x20 DUP2 DUP4 SUB SUB DUP2 MSTORE SWAP1 PUSH1 0x40 MSTORE DUP1 MLOAD SWAP1 PUSH1 0x20 ADD KECCAK256 PUSH1 0x0 SHR SWAP1 SHR SWAP1 POP SWAP2 SWAP1 POP JUMP JUMPDEST DUP2 CALLER PUSH20 0xFFFFFFFFFFFFFFFFFFFFFFFFFFFFFFFFFFFFFFFF AND PUSH1 0x1 PUSH1 0x0 DUP4 DUP2 MSTORE PUSH1 0x20 ADD SWAP1 DUP2 MSTORE PUSH1 0x20 ADD PUSH1 0x0 KECCAK256 PUSH1 0x0 SWAP1 SLOAD SWAP1 PUSH2 0x100 EXP SWAP1 DIV PUSH20 0xFFFFFFFFFFFFFFFFFFFFFFFFFFFFFFFFFFFFFFFF AND PUSH20 0xFFFFFFFFFFFFFFFFFFFFFFFFFFFFFFFFFFFFFFFF AND EQ PUSH2 0x261B JUMPI PUSH1 0x40 MLOAD PUSH32 0xBB9BF27800000000000000000000000000000000000000000000000000000000 DUP2 MSTORE PUSH1 0x4 ADD PUSH1 0x40 MLOAD DUP1 SWAP2 SUB SWAP1 REVERT JUMPDEST DUP2 PUSH1 0x2 PUSH1 0x0 DUP6 DUP2 MSTORE PUSH1 0x20 ADD SWAP1 DUP2 MSTORE PUSH1 0x20 ADD PUSH1 0x0 KECCAK256 PUSH1 0x0 PUSH2 0x100 EXP DUP2 SLOAD DUP2 PUSH20 0xFFFFFFFFFFFFFFFFFFFFFFFFFFFFFFFFFFFFFFFF MUL NOT AND SWAP1 DUP4 PUSH20 0xFFFFFFFFFFFFFFFFFFFFFFFFFFFFFFFFFFFFFFFF AND MUL OR SWAP1 SSTORE POP DUP2 PUSH20 0xFFFFFFFFFFFFFFFFFFFFFFFFFFFFFFFFFFFFFFFF AND CALLER PUSH20 0xFFFFFFFFFFFFFFFFFFFFFFFFFFFFFFFFFFFFFFFF AND DUP5 PUSH32 0x1018365553CCE55D9CB02EF73E18CC9311894F3FE1D1EAFD235AC2D26CD8BA58 PUSH1 0x40 MLOAD PUSH1 0x40 MLOAD DUP1 SWAP2 SUB SWAP1 LOG4 POP POP POP JUMP JUMPDEST PUSH1 0x0 DUP5 CALLER PUSH20 0xFFFFFFFFFFFFFFFFFFFFFFFFFFFFFFFFFFFFFFFF AND PUSH1 0x1 PUSH1 0x0 DUP4 DUP2 MSTORE PUSH1 0x20 ADD SWAP1 DUP2 MSTORE PUSH1 0x20 ADD PUSH1 0x0 KECCAK256 PUSH1 0x0 SWAP1 SLOAD SWAP1 PUSH2 0x100 EXP SWAP1 DIV PUSH20 0xFFFFFFFFFFFFFFFFFFFFFFFFFFFFFFFFFFFFFFFF AND PUSH20 0xFFFFFFFFFFFFFFFFFFFFFFFFFFFFFFFFFFFFFFFF AND EQ PUSH2 0x2768 JUMPI PUSH1 0x40 MLOAD PUSH32 0xBB9BF27800000000000000000000000000000000000000000000000000000000 DUP2 MSTORE PUSH1 0x4 ADD PUSH1 0x40 MLOAD DUP1 SWAP2 SUB SWAP1 REVERT JUMPDEST PUSH1 0x0 PUSH2 0x278E DUP7 PUSH1 0x0 DUP1 DUP11 DUP2 MSTORE PUSH1 0x20 ADD SWAP1 DUP2 MSTORE PUSH1 0x20 ADD PUSH1 0x0 KECCAK256 PUSH2 0x21A8 SWAP1 SWAP2 SWAP1 PUSH4 0xFFFFFFFF AND JUMP JUMPDEST SWAP1 POP PUSH2 0x27B8 DUP7 DUP7 DUP7 PUSH1 0x0 DUP1 DUP13 DUP2 MSTORE PUSH1 0x20 ADD SWAP1 DUP2 MSTORE PUSH1 0x20 ADD PUSH1 0x0 KECCAK256 PUSH2 0x37F6 SWAP1 SWAP4 SWAP3 SWAP2 SWAP1 PUSH4 0xFFFFFFFF AND JUMP JUMPDEST SWAP3 POP DUP7 PUSH32 0x3108849C053C77B8073A11256DFFB5FFD5B55E93E105A355E1C9061DB890D871 DUP3 DUP9 DUP7 PUSH1 0x40 MLOAD PUSH2 0x27EE SWAP4 SWAP3 SWAP2 SWAP1 PUSH2 0x4A37 JUMP JUMPDEST PUSH1 0x40 MLOAD DUP1 SWAP2 SUB SWAP1 LOG2 POP POP SWAP5 SWAP4 POP POP POP POP JUMP JUMPDEST PUSH1 0x0 DUP1 DUP4 PUSH1 0x3 ADD PUSH1 0x0 DUP5 DUP2 MSTORE PUSH1 0x20 ADD SWAP1 DUP2 MSTORE PUSH1 0x20 ADD PUSH1 0x0 KECCAK256 SLOAD EQ ISZERO SWAP1 POP SWAP3 SWAP2 POP POP JUMP JUMPDEST CALLER PUSH20 0xFFFFFFFFFFFFFFFFFFFFFFFFFFFFFFFFFFFFFFFF AND PUSH1 0x2 PUSH1 0x0 DUP4 DUP2 MSTORE PUSH1 0x20 ADD SWAP1 DUP2 MSTORE PUSH1 0x20 ADD PUSH1 0x0 KECCAK256 PUSH1 0x0 SWAP1 SLOAD SWAP1 PUSH2 0x100 EXP SWAP1 DIV PUSH20 0xFFFFFFFFFFFFFFFFFFFFFFFFFFFFFFFFFFFFFFFF AND PUSH20 0xFFFFFFFFFFFFFFFFFFFFFFFFFFFFFFFFFFFFFFFF AND EQ PUSH2 0x28BB JUMPI PUSH1 0x40 MLOAD PUSH32 0x34C4245D00000000000000000000000000000000000000000000000000000000 DUP2 MSTORE PUSH1 0x4 ADD PUSH1 0x40 MLOAD DUP1 SWAP2 SUB SWAP1 REVERT JUMPDEST PUSH1 0x0 PUSH1 0x1 PUSH1 0x0 DUP4 DUP2 MSTORE PUSH1 0x20 ADD SWAP1 DUP2 MSTORE PUSH1 0x20 ADD PUSH1 0x0 KECCAK256 PUSH1 0x0 SWAP1 SLOAD SWAP1 PUSH2 0x100 EXP SWAP1 DIV PUSH20 0xFFFFFFFFFFFFFFFFFFFFFFFFFFFFFFFFFFFFFFFF AND SWAP1 POP CALLER PUSH1 0x1 PUSH1 0x0 DUP5 DUP2 MSTORE PUSH1 0x20 ADD SWAP1 DUP2 MSTORE PUSH1 0x20 ADD PUSH1 0x0 KECCAK256 PUSH1 0x0 PUSH2 0x100 EXP DUP2 SLOAD DUP2 PUSH20 0xFFFFFFFFFFFFFFFFFFFFFFFFFFFFFFFFFFFFFFFF MUL NOT AND SWAP1 DUP4 PUSH20 0xFFFFFFFFFFFFFFFFFFFFFFFFFFFFFFFFFFFFFFFF AND MUL OR SWAP1 SSTORE POP PUSH1 0x2 PUSH1 0x0 DUP4 DUP2 MSTORE PUSH1 0x20 ADD SWAP1 DUP2 MSTORE PUSH1 0x20 ADD PUSH1 0x0 KECCAK256 PUSH1 0x0 PUSH2 0x100 EXP DUP2 SLOAD SWAP1 PUSH20 0xFFFFFFFFFFFFFFFFFFFFFFFFFFFFFFFFFFFFFFFF MUL NOT AND SWAP1 SSTORE CALLER PUSH20 0xFFFFFFFFFFFFFFFFFFFFFFFFFFFFFFFFFFFFFFFF AND DUP2 PUSH20 0xFFFFFFFFFFFFFFFFFFFFFFFFFFFFFFFFFFFFFFFF AND DUP4 PUSH32 0xBA83579A0E79193EF649B9F5A8759D35AF086BA62A3E207B52E4A8AE30D49E3 PUSH1 0x40 MLOAD PUSH1 0x40 MLOAD DUP1 SWAP2 SUB SWAP1 LOG4 POP POP JUMP JUMPDEST PUSH1 0x0 DUP2 PUSH1 0x2 ADD PUSH1 0x0 DUP4 PUSH1 0x1 ADD SLOAD DUP2 MSTORE PUSH1 0x20 ADD SWAP1 DUP2 MSTORE PUSH1 0x20 ADD PUSH1 0x0 KECCAK256 SLOAD SWAP1 POP SWAP2 SWAP1 POP JUMP JUMPDEST PUSH1 0x0 DUP1 DUP5 PUSH1 0x0 ADD SLOAD SWAP1 POP PUSH1 0x0 JUMPDEST DUP5 DUP5 SWAP1 POP DUP2 LT ISZERO PUSH2 0x2B89 JUMPI PUSH32 0x30644E72E131A029B85045B68181585D2833E84879B9709143E1F593F0000001 DUP6 DUP6 DUP4 DUP2 DUP2 LT PUSH2 0x2A49 JUMPI PUSH2 0x2A48 PUSH2 0x4453 JUMP JUMPDEST JUMPDEST SWAP1 POP PUSH1 0x20 MUL ADD CALLDATALOAD LT PUSH2 0x2A87 JUMPI PUSH1 0x40 MLOAD PUSH32 0xC380A82E00000000000000000000000000000000000000000000000000000000 DUP2 MSTORE PUSH1 0x4 ADD PUSH1 0x40 MLOAD DUP1 SWAP2 SUB SWAP1 REVERT JUMPDEST PUSH1 0x0 DUP6 DUP6 DUP4 DUP2 DUP2 LT PUSH2 0x2A9C JUMPI PUSH2 0x2A9B PUSH2 0x4453 JUMP JUMPDEST JUMPDEST SWAP1 POP PUSH1 0x20 MUL ADD CALLDATALOAD SUB PUSH2 0x2ADA JUMPI PUSH1 0x40 MLOAD PUSH32 0x29691BE200000000000000000000000000000000000000000000000000000000 DUP2 MSTORE PUSH1 0x4 ADD PUSH1 0x40 MLOAD DUP1 SWAP2 SUB SWAP1 REVERT JUMPDEST PUSH2 0x2AFD DUP7 DUP7 DUP7 DUP5 DUP2 DUP2 LT PUSH2 0x2AF1 JUMPI PUSH2 0x2AF0 PUSH2 0x4453 JUMP JUMPDEST JUMPDEST SWAP1 POP PUSH1 0x20 MUL ADD CALLDATALOAD PUSH2 0x2800 JUMP JUMPDEST ISZERO PUSH2 0x2B34 JUMPI PUSH1 0x40 MLOAD PUSH32 0x258A195A00000000000000000000000000000000000000000000000000000000 DUP2 MSTORE PUSH1 0x4 ADD PUSH1 0x40 MLOAD DUP1 SWAP2 SUB SWAP1 REVERT JUMPDEST DUP1 PUSH1 0x1 DUP4 PUSH2 0x2B42 SWAP2 SWAP1 PUSH2 0x40BB JUMP JUMPDEST PUSH2 0x2B4C SWAP2 SWAP1 PUSH2 0x40BB JUMP JUMPDEST DUP7 PUSH1 0x3 ADD PUSH1 0x0 DUP8 DUP8 DUP6 DUP2 DUP2 LT PUSH2 0x2B65 JUMPI PUSH2 0x2B64 PUSH2 0x4453 JUMP JUMPDEST JUMPDEST SWAP1 POP PUSH1 0x20 MUL ADD CALLDATALOAD DUP2 MSTORE PUSH1 0x20 ADD SWAP1 DUP2 MSTORE PUSH1 0x20 ADD PUSH1 0x0 KECCAK256 DUP2 SWAP1 SSTORE POP DUP1 PUSH1 0x1 ADD SWAP1 POP PUSH2 0x2A0A JUMP JUMPDEST POP PUSH1 0x60 DUP5 DUP5 DUP1 DUP1 PUSH1 0x20 MUL PUSH1 0x20 ADD PUSH1 0x40 MLOAD SWAP1 DUP2 ADD PUSH1 0x40 MSTORE DUP1 SWAP4 SWAP3 SWAP2 SWAP1 DUP2 DUP2 MSTORE PUSH1 0x20 ADD DUP4 DUP4 PUSH1 0x20 MUL DUP1 DUP3 DUP5 CALLDATACOPY PUSH1 0x0 DUP2 DUP5 ADD MSTORE PUSH1 0x1F NOT PUSH1 0x1F DUP3 ADD AND SWAP1 POP DUP1 DUP4 ADD SWAP3 POP POP POP POP POP POP POP SWAP1 POP PUSH1 0x0 DUP7 PUSH1 0x1 ADD SLOAD SWAP1 POP JUMPDEST DUP6 DUP6 SWAP1 POP DUP4 PUSH2 0x2BE9 SWAP2 SWAP1 PUSH2 0x40BB JUMP JUMPDEST DUP2 PUSH1 0x2 PUSH2 0x2BF6 SWAP2 SWAP1 PUSH2 0x4C22 JUMP JUMPDEST LT ISZERO PUSH2 0x2C0D JUMPI DUP1 PUSH2 0x2C06 SWAP1 PUSH2 0x41E5 JUMP JUMPDEST SWAP1 POP PUSH2 0x2BDA JUMP JUMPDEST DUP1 DUP8 PUSH1 0x1 ADD DUP2 SWAP1 SSTORE POP PUSH1 0x0 DUP4 SWAP1 POP PUSH1 0x0 DUP8 DUP8 SWAP1 POP DUP6 PUSH2 0x2C2C SWAP2 SWAP1 PUSH2 0x40BB JUMP JUMPDEST SWAP1 POP PUSH1 0x0 PUSH1 0x1 DUP4 SWAP1 SHR SWAP1 POP PUSH1 0x0 PUSH1 0x1 DUP1 PUSH1 0x1 DUP6 PUSH2 0x2C49 SWAP2 SWAP1 PUSH2 0x4357 JUMP JUMPDEST SWAP1 SHR PUSH2 0x2C55 SWAP2 SWAP1 PUSH2 0x40BB JUMP JUMPDEST SWAP1 POP PUSH1 0x0 JUMPDEST DUP6 DUP2 LT ISZERO PUSH2 0x2F68 JUMPI PUSH1 0x0 DUP4 DUP4 PUSH2 0x2C70 SWAP2 SWAP1 PUSH2 0x4357 JUMP JUMPDEST SWAP1 POP PUSH1 0x0 DUP2 PUSH8 0xFFFFFFFFFFFFFFFF DUP2 GT ISZERO PUSH2 0x2C8E JUMPI PUSH2 0x2C8D PUSH2 0x3E93 JUMP JUMPDEST JUMPDEST PUSH1 0x40 MLOAD SWAP1 DUP1 DUP3 MSTORE DUP1 PUSH1 0x20 MUL PUSH1 0x20 ADD DUP3 ADD PUSH1 0x40 MSTORE DUP1 ISZERO PUSH2 0x2CBC JUMPI DUP2 PUSH1 0x20 ADD PUSH1 0x20 DUP3 MUL DUP1 CALLDATASIZE DUP4 CALLDATACOPY DUP1 DUP3 ADD SWAP2 POP POP SWAP1 POP JUMPDEST POP SWAP1 POP PUSH1 0x0 JUMPDEST DUP3 DUP2 LT ISZERO PUSH2 0x2E8F JUMPI PUSH1 0x0 DUP9 PUSH1 0x2 DUP9 DUP5 PUSH2 0x2CDB SWAP2 SWAP1 PUSH2 0x40BB JUMP JUMPDEST PUSH2 0x2CE5 SWAP2 SWAP1 PUSH2 0x4315 JUMP JUMPDEST LT ISZERO PUSH2 0x2D08 JUMPI DUP16 PUSH1 0x2 ADD PUSH1 0x0 DUP7 DUP2 MSTORE PUSH1 0x20 ADD SWAP1 DUP2 MSTORE PUSH1 0x20 ADD PUSH1 0x0 KECCAK256 SLOAD SWAP1 POP PUSH2 0x2D48 JUMP JUMPDEST DUP11 DUP10 PUSH1 0x2 DUP10 DUP6 PUSH2 0x2D18 SWAP2 SWAP1 PUSH2 0x40BB JUMP JUMPDEST PUSH2 0x2D22 SWAP2 SWAP1 PUSH2 0x4315 JUMP JUMPDEST PUSH2 0x2D2C SWAP2 SWAP1 PUSH2 0x4357 JUMP JUMPDEST DUP2 MLOAD DUP2 LT PUSH2 0x2D3D JUMPI PUSH2 0x2D3C PUSH2 0x4453 JUMP JUMPDEST JUMPDEST PUSH1 0x20 MUL PUSH1 0x20 ADD ADD MLOAD SWAP1 POP JUMPDEST PUSH1 0x0 DUP9 PUSH1 0x1 PUSH1 0x2 DUP11 DUP7 PUSH2 0x2D5B SWAP2 SWAP1 PUSH2 0x40BB JUMP JUMPDEST PUSH2 0x2D65 SWAP2 SWAP1 PUSH2 0x4315 JUMP JUMPDEST PUSH2 0x2D6F SWAP2 SWAP1 PUSH2 0x40BB JUMP JUMPDEST LT ISZERO PUSH2 0x2DC1 JUMPI DUP12 DUP11 PUSH1 0x1 PUSH1 0x2 DUP12 DUP8 PUSH2 0x2D87 SWAP2 SWAP1 PUSH2 0x40BB JUMP JUMPDEST PUSH2 0x2D91 SWAP2 SWAP1 PUSH2 0x4315 JUMP JUMPDEST PUSH2 0x2D9B SWAP2 SWAP1 PUSH2 0x40BB JUMP JUMPDEST PUSH2 0x2DA5 SWAP2 SWAP1 PUSH2 0x4357 JUMP JUMPDEST DUP2 MLOAD DUP2 LT PUSH2 0x2DB6 JUMPI PUSH2 0x2DB5 PUSH2 0x4453 JUMP JUMPDEST JUMPDEST PUSH1 0x20 MUL PUSH1 0x20 ADD ADD MLOAD SWAP1 POP JUMPDEST PUSH1 0x0 DUP1 DUP3 EQ PUSH2 0x2E5D JUMPI PUSH20 0x0 PUSH4 0x561558FE PUSH1 0x40 MLOAD DUP1 PUSH1 0x40 ADD PUSH1 0x40 MSTORE DUP1 DUP7 DUP2 MSTORE PUSH1 0x20 ADD DUP6 DUP2 MSTORE POP PUSH1 0x40 MLOAD DUP3 PUSH4 0xFFFFFFFF AND PUSH1 0xE0 SHL DUP2 MSTORE PUSH1 0x4 ADD PUSH2 0x2E15 SWAP2 SWAP1 PUSH2 0x4CF6 JUMP JUMPDEST PUSH1 0x20 PUSH1 0x40 MLOAD DUP1 DUP4 SUB DUP2 DUP7 GAS DELEGATECALL ISZERO DUP1 ISZERO PUSH2 0x2E32 JUMPI RETURNDATASIZE PUSH1 0x0 DUP1 RETURNDATACOPY RETURNDATASIZE PUSH1 0x0 REVERT JUMPDEST POP POP POP POP PUSH1 0x40 MLOAD RETURNDATASIZE PUSH1 0x1F NOT PUSH1 0x1F DUP3 ADD AND DUP3 ADD DUP1 PUSH1 0x40 MSTORE POP DUP2 ADD SWAP1 PUSH2 0x2E56 SWAP2 SWAP1 PUSH2 0x42E8 JUMP JUMPDEST SWAP1 POP PUSH2 0x2E61 JUMP JUMPDEST DUP3 SWAP1 POP JUMPDEST DUP1 DUP6 DUP6 DUP2 MLOAD DUP2 LT PUSH2 0x2E75 JUMPI PUSH2 0x2E74 PUSH2 0x4453 JUMP JUMPDEST JUMPDEST PUSH1 0x20 MUL PUSH1 0x20 ADD ADD DUP2 DUP2 MSTORE POP POP DUP4 PUSH1 0x1 ADD SWAP4 POP POP POP POP PUSH2 0x2CC2 JUMP JUMPDEST POP PUSH1 0x1 DUP1 DUP8 AND SUB PUSH2 0x2EE0 JUMPI DUP9 PUSH1 0x1 DUP11 MLOAD PUSH2 0x2EA9 SWAP2 SWAP1 PUSH2 0x4357 JUMP JUMPDEST DUP2 MLOAD DUP2 LT PUSH2 0x2EBA JUMPI PUSH2 0x2EB9 PUSH2 0x4453 JUMP JUMPDEST JUMPDEST PUSH1 0x20 MUL PUSH1 0x20 ADD ADD MLOAD DUP15 PUSH1 0x2 ADD PUSH1 0x0 DUP6 DUP2 MSTORE PUSH1 0x20 ADD SWAP1 DUP2 MSTORE PUSH1 0x20 ADD PUSH1 0x0 KECCAK256 DUP2 SWAP1 SSTORE POP PUSH2 0x2F2D JUMP JUMPDEST PUSH1 0x1 DUP10 MLOAD GT ISZERO PUSH2 0x2F2C JUMPI DUP9 PUSH1 0x2 DUP11 MLOAD PUSH2 0x2EF9 SWAP2 SWAP1 PUSH2 0x4357 JUMP JUMPDEST DUP2 MLOAD DUP2 LT PUSH2 0x2F0A JUMPI PUSH2 0x2F09 PUSH2 0x4453 JUMP JUMPDEST JUMPDEST PUSH1 0x20 MUL PUSH1 0x20 ADD ADD MLOAD DUP15 PUSH1 0x2 ADD PUSH1 0x0 DUP6 DUP2 MSTORE PUSH1 0x20 ADD SWAP1 DUP2 MSTORE PUSH1 0x20 ADD PUSH1 0x0 KECCAK256 DUP2 SWAP1 SSTORE POP JUMPDEST JUMPDEST DUP5 SWAP7 POP PUSH1 0x1 DUP6 SWAP1 SHR SWAP5 POP DUP1 SWAP9 POP DUP4 SWAP6 POP PUSH1 0x1 DUP1 PUSH1 0x1 DUP7 PUSH2 0x2F4D SWAP2 SWAP1 PUSH2 0x4357 JUMP JUMPDEST SWAP1 SHR PUSH2 0x2F59 SWAP2 SWAP1 PUSH2 0x40BB JUMP JUMPDEST SWAP4 POP DUP3 PUSH1 0x1 ADD SWAP3 POP POP POP PUSH2 0x2C5A JUMP JUMPDEST POP DUP10 DUP10 SWAP1 POP DUP8 PUSH2 0x2F78 SWAP2 SWAP1 PUSH2 0x40BB JUMP JUMPDEST DUP12 PUSH1 0x0 ADD DUP2 SWAP1 SSTORE POP DUP6 PUSH1 0x0 DUP2 MLOAD DUP2 LT PUSH2 0x2F94 JUMPI PUSH2 0x2F93 PUSH2 0x4453 JUMP JUMPDEST JUMPDEST PUSH1 0x20 MUL PUSH1 0x20 ADD ADD MLOAD DUP12 PUSH1 0x2 ADD PUSH1 0x0 DUP8 DUP2 MSTORE PUSH1 0x20 ADD SWAP1 DUP2 MSTORE PUSH1 0x20 ADD PUSH1 0x0 KECCAK256 DUP2 SWAP1 SSTORE POP DUP6 PUSH1 0x0 DUP2 MLOAD DUP2 LT PUSH2 0x2FC9 JUMPI PUSH2 0x2FC8 PUSH2 0x4453 JUMP JUMPDEST JUMPDEST PUSH1 0x20 MUL PUSH1 0x20 ADD ADD MLOAD SWAP8 POP POP POP POP POP POP POP POP SWAP4 SWAP3 POP POP POP JUMP JUMPDEST PUSH1 0x0 PUSH32 0x30644E72E131A029B85045B68181585D2833E84879B9709143E1F593F0000001 DUP3 LT PUSH2 0x303C JUMPI PUSH1 0x40 MLOAD PUSH32 0xC380A82E00000000000000000000000000000000000000000000000000000000 DUP2 MSTORE PUSH1 0x4 ADD PUSH1 0x40 MLOAD DUP1 SWAP2 SUB SWAP1 REVERT JUMPDEST PUSH1 0x0 DUP3 SUB PUSH2 0x3076 JUMPI PUSH1 0x40 MLOAD PUSH32 0x29691BE200000000000000000000000000000000000000000000000000000000 DUP2 MSTORE PUSH1 0x4 ADD PUSH1 0x40 MLOAD DUP1 SWAP2 SUB SWAP1 REVERT JUMPDEST PUSH2 0x3080 DUP4 DUP4 PUSH2 0x2800 JUMP JUMPDEST ISZERO PUSH2 0x30B7 JUMPI PUSH1 0x40 MLOAD PUSH32 0x258A195A00000000000000000000000000000000000000000000000000000000 DUP2 MSTORE PUSH1 0x4 ADD PUSH1 0x40 MLOAD DUP1 SWAP2 SUB SWAP1 REVERT JUMPDEST PUSH1 0x0 DUP4 PUSH1 0x0 ADD SLOAD SWAP1 POP PUSH1 0x0 DUP5 PUSH1 0x1 ADD SLOAD SWAP1 POP PUSH1 0x1 DUP3 PUSH2 0x30D6 SWAP2 SWAP1 PUSH2 0x40BB JUMP JUMPDEST DUP2 PUSH1 0x2 PUSH2 0x30E3 SWAP2 SWAP1 PUSH2 0x4C22 JUMP JUMPDEST LT ISZERO PUSH2 0x30F6 JUMPI DUP1 PUSH2 0x30F3 SWAP1 PUSH2 0x41E5 JUMP JUMPDEST SWAP1 POP JUMPDEST DUP1 DUP6 PUSH1 0x1 ADD DUP2 SWAP1 SSTORE POP PUSH1 0x0 DUP5 SWAP1 POP PUSH1 0x0 JUMPDEST DUP3 DUP2 LT ISZERO PUSH2 0x31EA JUMPI PUSH1 0x1 DUP1 DUP3 DUP7 SWAP1 SHR AND SUB PUSH2 0x31C4 JUMPI PUSH20 0x0 PUSH4 0x561558FE PUSH1 0x40 MLOAD DUP1 PUSH1 0x40 ADD PUSH1 0x40 MSTORE DUP1 DUP11 PUSH1 0x2 ADD PUSH1 0x0 DUP7 DUP2 MSTORE PUSH1 0x20 ADD SWAP1 DUP2 MSTORE PUSH1 0x20 ADD PUSH1 0x0 KECCAK256 SLOAD DUP2 MSTORE PUSH1 0x20 ADD DUP6 DUP2 MSTORE POP PUSH1 0x40 MLOAD DUP3 PUSH4 0xFFFFFFFF AND PUSH1 0xE0 SHL DUP2 MSTORE PUSH1 0x4 ADD PUSH2 0x317C SWAP2 SWAP1 PUSH2 0x4CF6 JUMP JUMPDEST PUSH1 0x20 PUSH1 0x40 MLOAD DUP1 DUP4 SUB DUP2 DUP7 GAS DELEGATECALL ISZERO DUP1 ISZERO PUSH2 0x3199 JUMPI RETURNDATASIZE PUSH1 0x0 DUP1 RETURNDATACOPY RETURNDATASIZE PUSH1 0x0 REVERT JUMPDEST POP POP POP POP PUSH1 0x40 MLOAD RETURNDATASIZE PUSH1 0x1F NOT PUSH1 0x1F DUP3 ADD AND DUP3 ADD DUP1 PUSH1 0x40 MSTORE POP DUP2 ADD SWAP1 PUSH2 0x31BD SWAP2 SWAP1 PUSH2 0x42E8 JUMP JUMPDEST SWAP2 POP PUSH2 0x31DF JUMP JUMPDEST DUP2 DUP8 PUSH1 0x2 ADD PUSH1 0x0 DUP4 DUP2 MSTORE PUSH1 0x20 ADD SWAP1 DUP2 MSTORE PUSH1 0x20 ADD PUSH1 0x0 KECCAK256 DUP2 SWAP1 SSTORE POP JUMPDEST DUP1 PUSH1 0x1 ADD SWAP1 POP PUSH2 0x3107 JUMP JUMPDEST POP DUP3 PUSH2 0x31F5 SWAP1 PUSH2 0x41E5 JUMP JUMPDEST SWAP3 POP DUP3 DUP7 PUSH1 0x0 ADD DUP2 SWAP1 SSTORE POP DUP1 DUP7 PUSH1 0x2 ADD PUSH1 0x0 DUP5 DUP2 MSTORE PUSH1 0x20 ADD SWAP1 DUP2 MSTORE PUSH1 0x20 ADD PUSH1 0x0 KECCAK256 DUP2 SWAP1 SSTORE POP DUP3 DUP7 PUSH1 0x3 ADD PUSH1 0x0 DUP8 DUP2 MSTORE PUSH1 0x20 ADD SWAP1 DUP2 MSTORE PUSH1 0x20 ADD PUSH1 0x0 KECCAK256 DUP2 SWAP1 SSTORE POP DUP1 SWAP4 POP POP POP POP SWAP3 SWAP2 POP POP JUMP JUMPDEST PUSH1 0x0 PUSH32 0x30644E72E131A029B85045B68181585D2833E84879B9709143E1F593F0000001 DUP5 LT PUSH2 0x329B JUMPI PUSH1 0x40 MLOAD PUSH32 0xC380A82E00000000000000000000000000000000000000000000000000000000 DUP2 MSTORE PUSH1 0x4 ADD PUSH1 0x40 MLOAD DUP1 SWAP2 SUB SWAP1 REVERT JUMPDEST PUSH2 0x32A5 DUP7 DUP7 PUSH2 0x2800 JUMP JUMPDEST PUSH2 0x32DB JUMPI PUSH1 0x40 MLOAD PUSH32 0x7204756C00000000000000000000000000000000000000000000000000000000 DUP2 MSTORE PUSH1 0x4 ADD PUSH1 0x40 MLOAD DUP1 SWAP2 SUB SWAP1 REVERT JUMPDEST PUSH2 0x32E5 DUP7 DUP6 PUSH2 0x2800 JUMP JUMPDEST ISZERO PUSH2 0x331C JUMPI PUSH1 0x40 MLOAD PUSH32 0x258A195A00000000000000000000000000000000000000000000000000000000 DUP2 MSTORE PUSH1 0x4 ADD PUSH1 0x40 MLOAD DUP1 SWAP2 SUB SWAP1 REVERT JUMPDEST PUSH1 0x0 PUSH2 0x3328 DUP8 DUP8 PUSH2 0x21A8 JUMP JUMPDEST SWAP1 POP PUSH1 0x0 DUP6 SWAP1 POP PUSH1 0x0 DUP8 SWAP1 POP PUSH1 0x0 PUSH1 0x1 DUP11 PUSH1 0x0 ADD SLOAD PUSH2 0x3347 SWAP2 SWAP1 PUSH2 0x4357 JUMP JUMPDEST SWAP1 POP PUSH1 0x0 DUP1 DUP12 PUSH1 0x1 ADD SLOAD SWAP1 POP PUSH1 0x0 JUMPDEST DUP2 DUP2 LT ISZERO PUSH2 0x3735 JUMPI PUSH1 0x1 DUP1 DUP3 DUP10 SWAP1 SHR AND SUB PUSH2 0x3536 JUMPI PUSH32 0x30644E72E131A029B85045B68181585D2833E84879B9709143E1F593F0000001 DUP11 DUP11 DUP6 DUP2 DUP2 LT PUSH2 0x339F JUMPI PUSH2 0x339E PUSH2 0x4453 JUMP JUMPDEST JUMPDEST SWAP1 POP PUSH1 0x20 MUL ADD CALLDATALOAD LT PUSH2 0x33DD JUMPI PUSH1 0x40 MLOAD PUSH32 0xC380A82E00000000000000000000000000000000000000000000000000000000 DUP2 MSTORE PUSH1 0x4 ADD PUSH1 0x40 MLOAD DUP1 SWAP2 SUB SWAP1 REVERT JUMPDEST PUSH20 0x0 PUSH4 0x561558FE PUSH1 0x40 MLOAD DUP1 PUSH1 0x40 ADD PUSH1 0x40 MSTORE DUP1 DUP14 DUP14 DUP9 DUP2 DUP2 LT PUSH2 0x3415 JUMPI PUSH2 0x3414 PUSH2 0x4453 JUMP JUMPDEST JUMPDEST SWAP1 POP PUSH1 0x20 MUL ADD CALLDATALOAD DUP2 MSTORE PUSH1 0x20 ADD DUP10 DUP2 MSTORE POP PUSH1 0x40 MLOAD DUP3 PUSH4 0xFFFFFFFF AND PUSH1 0xE0 SHL DUP2 MSTORE PUSH1 0x4 ADD PUSH2 0x3441 SWAP2 SWAP1 PUSH2 0x4CF6 JUMP JUMPDEST PUSH1 0x20 PUSH1 0x40 MLOAD DUP1 DUP4 SUB DUP2 DUP7 GAS DELEGATECALL ISZERO DUP1 ISZERO PUSH2 0x345E JUMPI RETURNDATASIZE PUSH1 0x0 DUP1 RETURNDATACOPY RETURNDATASIZE PUSH1 0x0 REVERT JUMPDEST POP POP POP POP PUSH1 0x40 MLOAD RETURNDATASIZE PUSH1 0x1F NOT PUSH1 0x1F DUP3 ADD AND DUP3 ADD DUP1 PUSH1 0x40 MSTORE POP DUP2 ADD SWAP1 PUSH2 0x3482 SWAP2 SWAP1 PUSH2 0x42E8 JUMP JUMPDEST SWAP6 POP PUSH20 0x0 PUSH4 0x561558FE PUSH1 0x40 MLOAD DUP1 PUSH1 0x40 ADD PUSH1 0x40 MSTORE DUP1 DUP14 DUP14 DUP9 DUP2 DUP2 LT PUSH2 0x34BC JUMPI PUSH2 0x34BB PUSH2 0x4453 JUMP JUMPDEST JUMPDEST SWAP1 POP PUSH1 0x20 MUL ADD CALLDATALOAD DUP2 MSTORE PUSH1 0x20 ADD DUP9 DUP2 MSTORE POP PUSH1 0x40 MLOAD DUP3 PUSH4 0xFFFFFFFF AND PUSH1 0xE0 SHL DUP2 MSTORE PUSH1 0x4 ADD PUSH2 0x34E8 SWAP2 SWAP1 PUSH2 0x4CF6 JUMP JUMPDEST PUSH1 0x20 PUSH1 0x40 MLOAD DUP1 DUP4 SUB DUP2 DUP7 GAS DELEGATECALL ISZERO DUP1 ISZERO PUSH2 0x3505 JUMPI RETURNDATASIZE PUSH1 0x0 DUP1 RETURNDATACOPY RETURNDATASIZE PUSH1 0x0 REVERT JUMPDEST POP POP POP POP PUSH1 0x40 MLOAD RETURNDATASIZE PUSH1 0x1F NOT PUSH1 0x1F DUP3 ADD AND DUP3 ADD DUP1 PUSH1 0x40 MSTORE POP DUP2 ADD SWAP1 PUSH2 0x3529 SWAP2 SWAP1 PUSH2 0x42E8 JUMP JUMPDEST SWAP5 POP DUP3 PUSH1 0x1 ADD SWAP3 POP PUSH2 0x372A JUMP JUMPDEST DUP1 DUP5 SWAP1 SHR DUP2 DUP9 SWAP1 SHR EQ PUSH2 0x370E JUMPI PUSH32 0x30644E72E131A029B85045B68181585D2833E84879B9709143E1F593F0000001 DUP11 DUP11 DUP6 DUP2 DUP2 LT PUSH2 0x3577 JUMPI PUSH2 0x3576 PUSH2 0x4453 JUMP JUMPDEST JUMPDEST SWAP1 POP PUSH1 0x20 MUL ADD CALLDATALOAD LT PUSH2 0x35B5 JUMPI PUSH1 0x40 MLOAD PUSH32 0xC380A82E00000000000000000000000000000000000000000000000000000000 DUP2 MSTORE PUSH1 0x4 ADD PUSH1 0x40 MLOAD DUP1 SWAP2 SUB SWAP1 REVERT JUMPDEST PUSH20 0x0 PUSH4 0x561558FE PUSH1 0x40 MLOAD DUP1 PUSH1 0x40 ADD PUSH1 0x40 MSTORE DUP1 DUP10 DUP2 MSTORE PUSH1 0x20 ADD DUP14 DUP14 DUP9 DUP2 DUP2 LT PUSH2 0x35F3 JUMPI PUSH2 0x35F2 PUSH2 0x4453 JUMP JUMPDEST JUMPDEST SWAP1 POP PUSH1 0x20 MUL ADD CALLDATALOAD DUP2 MSTORE POP PUSH1 0x40 MLOAD DUP3 PUSH4 0xFFFFFFFF AND PUSH1 0xE0 SHL DUP2 MSTORE PUSH1 0x4 ADD PUSH2 0x3619 SWAP2 SWAP1 PUSH2 0x4CF6 JUMP JUMPDEST PUSH1 0x20 PUSH1 0x40 MLOAD DUP1 DUP4 SUB DUP2 DUP7 GAS DELEGATECALL ISZERO DUP1 ISZERO PUSH2 0x3636 JUMPI RETURNDATASIZE PUSH1 0x0 DUP1 RETURNDATACOPY RETURNDATASIZE PUSH1 0x0 REVERT JUMPDEST POP POP POP POP PUSH1 0x40 MLOAD RETURNDATASIZE PUSH1 0x1F NOT PUSH1 0x1F DUP3 ADD AND DUP3 ADD DUP1 PUSH1 0x40 MSTORE POP DUP2 ADD SWAP1 PUSH2 0x365A SWAP2 SWAP1 PUSH2 0x42E8 JUMP JUMPDEST SWAP6 POP PUSH20 0x0 PUSH4 0x561558FE PUSH1 0x40 MLOAD DUP1 PUSH1 0x40 ADD PUSH1 0x40 MSTORE DUP1 DUP9 DUP2 MSTORE PUSH1 0x20 ADD DUP14 DUP14 DUP9 DUP2 DUP2 LT PUSH2 0x369A JUMPI PUSH2 0x3699 PUSH2 0x4453 JUMP JUMPDEST JUMPDEST SWAP1 POP PUSH1 0x20 MUL ADD CALLDATALOAD DUP2 MSTORE POP PUSH1 0x40 MLOAD DUP3 PUSH4 0xFFFFFFFF AND PUSH1 0xE0 SHL DUP2 MSTORE PUSH1 0x4 ADD PUSH2 0x36C0 SWAP2 SWAP1 PUSH2 0x4CF6 JUMP JUMPDEST PUSH1 0x20 PUSH1 0x40 MLOAD DUP1 DUP4 SUB DUP2 DUP7 GAS DELEGATECALL ISZERO DUP1 ISZERO PUSH2 0x36DD JUMPI RETURNDATASIZE PUSH1 0x0 DUP1 RETURNDATACOPY RETURNDATASIZE PUSH1 0x0 REVERT JUMPDEST POP POP POP POP PUSH1 0x40 MLOAD RETURNDATASIZE PUSH1 0x1F NOT PUSH1 0x1F DUP3 ADD AND DUP3 ADD DUP1 PUSH1 0x40 MSTORE POP DUP2 ADD SWAP1 PUSH2 0x3701 SWAP2 SWAP1 PUSH2 0x42E8 JUMP JUMPDEST SWAP5 POP DUP3 PUSH1 0x1 ADD SWAP3 POP PUSH2 0x3729 JUMP JUMPDEST DUP6 DUP14 PUSH1 0x2 ADD PUSH1 0x0 DUP6 DUP2 MSTORE PUSH1 0x20 ADD SWAP1 DUP2 MSTORE PUSH1 0x20 ADD PUSH1 0x0 KECCAK256 DUP2 SWAP1 SSTORE POP JUMPDEST JUMPDEST DUP1 PUSH1 0x1 ADD SWAP1 POP PUSH2 0x3356 JUMP JUMPDEST POP PUSH2 0x373F DUP13 PUSH2 0x29DA JUMP JUMPDEST DUP5 EQ PUSH2 0x3777 JUMPI PUSH1 0x40 MLOAD PUSH32 0x3FA930C600000000000000000000000000000000000000000000000000000000 DUP2 MSTORE PUSH1 0x4 ADD PUSH1 0x40 MLOAD DUP1 SWAP2 SUB SWAP1 REVERT JUMPDEST DUP5 DUP13 PUSH1 0x2 ADD PUSH1 0x0 DUP4 DUP2 MSTORE PUSH1 0x20 ADD SWAP1 DUP2 MSTORE PUSH1 0x20 ADD PUSH1 0x0 KECCAK256 DUP2 SWAP1 SSTORE POP PUSH1 0x0 DUP11 EQ PUSH2 0x37C9 JUMPI DUP12 PUSH1 0x3 ADD PUSH1 0x0 DUP13 DUP2 MSTORE PUSH1 0x20 ADD SWAP1 DUP2 MSTORE PUSH1 0x20 ADD PUSH1 0x0 KECCAK256 SLOAD DUP13 PUSH1 0x3 ADD PUSH1 0x0 DUP13 DUP2 MSTORE PUSH1 0x20 ADD SWAP1 DUP2 MSTORE PUSH1 0x20 ADD PUSH1 0x0 KECCAK256 DUP2 SWAP1 SSTORE POP JUMPDEST PUSH1 0x0 DUP13 PUSH1 0x3 ADD PUSH1 0x0 DUP14 DUP2 MSTORE PUSH1 0x20 ADD SWAP1 DUP2 MSTORE PUSH1 0x20 ADD PUSH1 0x0 KECCAK256 DUP2 SWAP1 SSTORE POP DUP5 SWAP7 POP POP POP POP POP POP POP SWAP6 SWAP5 POP POP POP POP POP JUMP JUMPDEST PUSH1 0x0 PUSH2 0x3806 DUP6 DUP6 PUSH1 0x0 DUP7 DUP7 PUSH2 0x3240 JUMP JUMPDEST SWAP1 POP SWAP5 SWAP4 POP POP POP POP JUMP JUMPDEST PUSH1 0x0 PUSH1 0x40 MLOAD SWAP1 POP SWAP1 JUMP JUMPDEST PUSH1 0x0 DUP1 REVERT JUMPDEST PUSH1 0x0 DUP1 REVERT JUMPDEST PUSH1 0x0 DUP2 SWAP1 POP SWAP2 SWAP1 POP JUMP JUMPDEST PUSH2 0x3837 DUP2 PUSH2 0x3824 JUMP JUMPDEST DUP2 EQ PUSH2 0x3842 JUMPI PUSH1 0x0 DUP1 REVERT JUMPDEST POP JUMP JUMPDEST PUSH1 0x0 DUP2 CALLDATALOAD SWAP1 POP PUSH2 0x3854 DUP2 PUSH2 0x382E JUMP JUMPDEST SWAP3 SWAP2 POP POP JUMP JUMPDEST PUSH1 0x0 DUP1 REVERT JUMPDEST PUSH1 0x0 DUP1 REVERT JUMPDEST PUSH1 0x0 DUP1 REVERT JUMPDEST PUSH1 0x0 DUP1 DUP4 PUSH1 0x1F DUP5 ADD SLT PUSH2 0x387F JUMPI PUSH2 0x387E PUSH2 0x385A JUMP JUMPDEST JUMPDEST DUP3 CALLDATALOAD SWAP1 POP PUSH8 0xFFFFFFFFFFFFFFFF DUP2 GT ISZERO PUSH2 0x389C JUMPI PUSH2 0x389B PUSH2 0x385F JUMP JUMPDEST JUMPDEST PUSH1 0x20 DUP4 ADD SWAP2 POP DUP4 PUSH1 0x20 DUP3 MUL DUP4 ADD GT ISZERO PUSH2 0x38B8 JUMPI PUSH2 0x38B7 PUSH2 0x3864 JUMP JUMPDEST JUMPDEST SWAP3 POP SWAP3 SWAP1 POP JUMP JUMPDEST PUSH1 0x0 DUP1 PUSH1 0x0 PUSH1 0x40 DUP5 DUP7 SUB SLT ISZERO PUSH2 0x38D8 JUMPI PUSH2 0x38D7 PUSH2 0x381A JUMP JUMPDEST JUMPDEST PUSH1 0x0 PUSH2 0x38E6 DUP7 DUP3 DUP8 ADD PUSH2 0x3845 JUMP JUMPDEST SWAP4 POP POP PUSH1 0x20 DUP5 ADD CALLDATALOAD PUSH8 0xFFFFFFFFFFFFFFFF DUP2 GT ISZERO PUSH2 0x3907 JUMPI PUSH2 0x3906 PUSH2 0x381F JUMP JUMPDEST JUMPDEST PUSH2 0x3913 DUP7 DUP3 DUP8 ADD PUSH2 0x3869 JUMP JUMPDEST SWAP3 POP SWAP3 POP POP SWAP3 POP SWAP3 POP SWAP3 JUMP JUMPDEST PUSH1 0x0 DUP1 PUSH1 0x40 DUP4 DUP6 SUB SLT ISZERO PUSH2 0x3936 JUMPI PUSH2 0x3935 PUSH2 0x381A JUMP JUMPDEST JUMPDEST PUSH1 0x0 PUSH2 0x3944 DUP6 DUP3 DUP7 ADD PUSH2 0x3845 JUMP JUMPDEST SWAP3 POP POP PUSH1 0x20 PUSH2 0x3955 DUP6 DUP3 DUP7 ADD PUSH2 0x3845 JUMP JUMPDEST SWAP2 POP POP SWAP3 POP SWAP3 SWAP1 POP JUMP JUMPDEST PUSH2 0x3968 DUP2 PUSH2 0x3824 JUMP JUMPDEST DUP3 MSTORE POP POP JUMP JUMPDEST PUSH1 0x0 PUSH1 0x20 DUP3 ADD SWAP1 POP PUSH2 0x3983 PUSH1 0x0 DUP4 ADD DUP5 PUSH2 0x395F JUMP JUMPDEST SWAP3 SWAP2 POP POP JUMP JUMPDEST PUSH1 0x0 PUSH20 0xFFFFFFFFFFFFFFFFFFFFFFFFFFFFFFFFFFFFFFFF DUP3 AND SWAP1 POP SWAP2 SWAP1 POP JUMP JUMPDEST PUSH1 0x0 DUP2 SWAP1 POP SWAP2 SWAP1 POP JUMP JUMPDEST PUSH1 0x0 PUSH2 0x39CE PUSH2 0x39C9 PUSH2 0x39C4 DUP5 PUSH2 0x3989 JUMP JUMPDEST PUSH2 0x39A9 JUMP JUMPDEST PUSH2 0x3989 JUMP JUMPDEST SWAP1 POP SWAP2 SWAP1 POP JUMP JUMPDEST PUSH1 0x0 PUSH2 0x39E0 DUP3 PUSH2 0x39B3 JUMP JUMPDEST SWAP1 POP SWAP2 SWAP1 POP JUMP JUMPDEST PUSH1 0x0 PUSH2 0x39F2 DUP3 PUSH2 0x39D5 JUMP JUMPDEST SWAP1 POP SWAP2 SWAP1 POP JUMP JUMPDEST PUSH2 0x3A02 DUP2 PUSH2 0x39E7 JUMP JUMPDEST DUP3 MSTORE POP POP JUMP JUMPDEST PUSH1 0x0 PUSH1 0x20 DUP3 ADD SWAP1 POP PUSH2 0x3A1D PUSH1 0x0 DUP4 ADD DUP5 PUSH2 0x39F9 JUMP JUMPDEST SWAP3 SWAP2 POP POP JUMP JUMPDEST PUSH1 0x0 PUSH2 0x3A2E DUP3 PUSH2 0x3989 JUMP JUMPDEST SWAP1 POP SWAP2 SWAP1 POP JUMP JUMPDEST PUSH2 0x3A3E DUP2 PUSH2 0x3A23 JUMP JUMPDEST DUP2 EQ PUSH2 0x3A49 JUMPI PUSH1 0x0 DUP1 REVERT JUMPDEST POP JUMP JUMPDEST PUSH1 0x0 DUP2 CALLDATALOAD SWAP1 POP PUSH2 0x3A5B DUP2 PUSH2 0x3A35 JUMP JUMPDEST SWAP3 SWAP2 POP POP JUMP JUMPDEST PUSH1 0x0 DUP1 PUSH1 0x40 DUP4 DUP6 SUB SLT ISZERO PUSH2 0x3A78 JUMPI PUSH2 0x3A77 PUSH2 0x381A JUMP JUMPDEST JUMPDEST PUSH1 0x0 PUSH2 0x3A86 DUP6 DUP3 DUP7 ADD PUSH2 0x3A4C JUMP JUMPDEST SWAP3 POP POP PUSH1 0x20 PUSH2 0x3A97 DUP6 DUP3 DUP7 ADD PUSH2 0x3845 JUMP JUMPDEST SWAP2 POP POP SWAP3 POP SWAP3 SWAP1 POP JUMP JUMPDEST PUSH1 0x0 DUP1 PUSH1 0x0 PUSH1 0x60 DUP5 DUP7 SUB SLT ISZERO PUSH2 0x3ABA JUMPI PUSH2 0x3AB9 PUSH2 0x381A JUMP JUMPDEST JUMPDEST PUSH1 0x0 PUSH2 0x3AC8 DUP7 DUP3 DUP8 ADD PUSH2 0x3845 JUMP JUMPDEST SWAP4 POP POP PUSH1 0x20 PUSH2 0x3AD9 DUP7 DUP3 DUP8 ADD PUSH2 0x3845 JUMP JUMPDEST SWAP3 POP POP PUSH1 0x40 PUSH2 0x3AEA DUP7 DUP3 DUP8 ADD PUSH2 0x3A4C JUMP JUMPDEST SWAP2 POP POP SWAP3 POP SWAP3 POP SWAP3 JUMP JUMPDEST PUSH1 0x0 DUP1 PUSH1 0x0 DUP1 PUSH1 0x0 PUSH1 0x80 DUP7 DUP9 SUB SLT ISZERO PUSH2 0x3B10 JUMPI PUSH2 0x3B0F PUSH2 0x381A JUMP JUMPDEST JUMPDEST PUSH1 0x0 PUSH2 0x3B1E DUP9 DUP3 DUP10 ADD PUSH2 0x3845 JUMP JUMPDEST SWAP6 POP POP PUSH1 0x20 PUSH2 0x3B2F DUP9 DUP3 DUP10 ADD PUSH2 0x3845 JUMP JUMPDEST SWAP5 POP POP PUSH1 0x40 PUSH2 0x3B40 DUP9 DUP3 DUP10 ADD PUSH2 0x3845 JUMP JUMPDEST SWAP4 POP POP PUSH1 0x60 DUP7 ADD CALLDATALOAD PUSH8 0xFFFFFFFFFFFFFFFF DUP2 GT ISZERO PUSH2 0x3B61 JUMPI PUSH2 0x3B60 PUSH2 0x381F JUMP JUMPDEST JUMPDEST PUSH2 0x3B6D DUP9 DUP3 DUP10 ADD PUSH2 0x3869 JUMP JUMPDEST SWAP3 POP SWAP3 POP POP SWAP3 SWAP6 POP SWAP3 SWAP6 SWAP1 SWAP4 POP JUMP JUMPDEST PUSH1 0x0 DUP1 REVERT JUMPDEST PUSH1 0x0 PUSH2 0x1A0 DUP3 DUP5 SUB SLT ISZERO PUSH2 0x3B98 JUMPI PUSH2 0x3B97 PUSH2 0x3B7C JUMP JUMPDEST JUMPDEST DUP2 SWAP1 POP SWAP3 SWAP2 POP POP JUMP JUMPDEST PUSH1 0x0 DUP1 PUSH2 0x1C0 DUP4 DUP6 SUB SLT ISZERO PUSH2 0x3BB9 JUMPI PUSH2 0x3BB8 PUSH2 0x381A JUMP JUMPDEST JUMPDEST PUSH1 0x0 PUSH2 0x3BC7 DUP6 DUP3 DUP7 ADD PUSH2 0x3845 JUMP JUMPDEST SWAP3 POP POP PUSH1 0x20 PUSH2 0x3BD8 DUP6 DUP3 DUP7 ADD PUSH2 0x3B81 JUMP JUMPDEST SWAP2 POP POP SWAP3 POP SWAP3 SWAP1 POP JUMP JUMPDEST PUSH1 0x0 DUP2 ISZERO ISZERO SWAP1 POP SWAP2 SWAP1 POP JUMP JUMPDEST PUSH2 0x3BF7 DUP2 PUSH2 0x3BE2 JUMP JUMPDEST DUP3 MSTORE POP POP JUMP JUMPDEST PUSH1 0x0 PUSH1 0x20 DUP3 ADD SWAP1 POP PUSH2 0x3C12 PUSH1 0x0 DUP4 ADD DUP5 PUSH2 0x3BEE JUMP JUMPDEST SWAP3 SWAP2 POP POP JUMP JUMPDEST PUSH1 0x0 DUP1 PUSH1 0x40 DUP4 DUP6 SUB SLT ISZERO PUSH2 0x3C2F JUMPI PUSH2 0x3C2E PUSH2 0x381A JUMP JUMPDEST JUMPDEST PUSH1 0x0 PUSH2 0x3C3D DUP6 DUP3 DUP7 ADD PUSH2 0x3845 JUMP JUMPDEST SWAP3 POP POP PUSH1 0x20 PUSH2 0x3C4E DUP6 DUP3 DUP7 ADD PUSH2 0x3A4C JUMP JUMPDEST SWAP2 POP POP SWAP3 POP SWAP3 SWAP1 POP JUMP JUMPDEST PUSH1 0x0 PUSH1 0x20 DUP3 DUP5 SUB SLT ISZERO PUSH2 0x3C6E JUMPI PUSH2 0x3C6D PUSH2 0x381A JUMP JUMPDEST JUMPDEST PUSH1 0x0 PUSH2 0x3C7C DUP5 DUP3 DUP6 ADD PUSH2 0x3A4C JUMP JUMPDEST SWAP2 POP POP SWAP3 SWAP2 POP POP JUMP JUMPDEST PUSH1 0x0 PUSH1 0x20 DUP3 DUP5 SUB SLT ISZERO PUSH2 0x3C9B JUMPI PUSH2 0x3C9A PUSH2 0x381A JUMP JUMPDEST JUMPDEST PUSH1 0x0 PUSH2 0x3CA9 DUP5 DUP3 DUP6 ADD PUSH2 0x3845 JUMP JUMPDEST SWAP2 POP POP SWAP3 SWAP2 POP POP JUMP JUMPDEST PUSH1 0x0 DUP1 PUSH1 0x0 DUP1 PUSH1 0x60 DUP6 DUP8 SUB SLT ISZERO PUSH2 0x3CCC JUMPI PUSH2 0x3CCB PUSH2 0x381A JUMP JUMPDEST JUMPDEST PUSH1 0x0 PUSH2 0x3CDA DUP8 DUP3 DUP9 ADD PUSH2 0x3845 JUMP JUMPDEST SWAP5 POP POP PUSH1 0x20 PUSH2 0x3CEB DUP8 DUP3 DUP9 ADD PUSH2 0x3845 JUMP JUMPDEST SWAP4 POP POP PUSH1 0x40 DUP6 ADD CALLDATALOAD PUSH8 0xFFFFFFFFFFFFFFFF DUP2 GT ISZERO PUSH2 0x3D0C JUMPI PUSH2 0x3D0B PUSH2 0x381F JUMP JUMPDEST JUMPDEST PUSH2 0x3D18 DUP8 DUP3 DUP9 ADD PUSH2 0x3869 JUMP JUMPDEST SWAP3 POP SWAP3 POP POP SWAP3 SWAP6 SWAP2 SWAP5 POP SWAP3 POP JUMP JUMPDEST PUSH1 0x0 DUP1 DUP4 PUSH1 0x1F DUP5 ADD SLT PUSH2 0x3D3C JUMPI PUSH2 0x3D3B PUSH2 0x385A JUMP JUMPDEST JUMPDEST DUP3 CALLDATALOAD SWAP1 POP PUSH8 0xFFFFFFFFFFFFFFFF DUP2 GT ISZERO PUSH2 0x3D59 JUMPI PUSH2 0x3D58 PUSH2 0x385F JUMP JUMPDEST JUMPDEST PUSH1 0x20 DUP4 ADD SWAP2 POP DUP4 PUSH1 0x1 DUP3 MUL DUP4 ADD GT ISZERO PUSH2 0x3D75 JUMPI PUSH2 0x3D74 PUSH2 0x3864 JUMP JUMPDEST JUMPDEST SWAP3 POP SWAP3 SWAP1 POP JUMP JUMPDEST PUSH1 0x0 DUP1 PUSH1 0x0 DUP1 PUSH2 0x1E0 DUP6 DUP8 SUB SLT ISZERO PUSH2 0x3D97 JUMPI PUSH2 0x3D96 PUSH2 0x381A JUMP JUMPDEST JUMPDEST PUSH1 0x0 PUSH2 0x3DA5 DUP8 DUP3 DUP9 ADD PUSH2 0x3B81 JUMP JUMPDEST SWAP5 POP POP PUSH2 0x1A0 PUSH2 0x3DB7 DUP8 DUP3 DUP9 ADD PUSH2 0x3845 JUMP JUMPDEST SWAP4 POP POP PUSH2 0x1C0 DUP6 ADD CALLDATALOAD PUSH8 0xFFFFFFFFFFFFFFFF DUP2 GT ISZERO PUSH2 0x3DD9 JUMPI PUSH2 0x3DD8 PUSH2 0x381F JUMP JUMPDEST JUMPDEST PUSH2 0x3DE5 DUP8 DUP3 DUP9 ADD PUSH2 0x3D26 JUMP JUMPDEST SWAP3 POP SWAP3 POP POP SWAP3 SWAP6 SWAP2 SWAP5 POP SWAP3 POP JUMP JUMPDEST PUSH1 0x0 DUP1 PUSH1 0x0 PUSH1 0x40 DUP5 DUP7 SUB SLT ISZERO PUSH2 0x3E0C JUMPI PUSH2 0x3E0B PUSH2 0x381A JUMP JUMPDEST JUMPDEST PUSH1 0x0 PUSH2 0x3E1A DUP7 DUP3 DUP8 ADD PUSH2 0x3845 JUMP JUMPDEST SWAP4 POP POP PUSH1 0x20 DUP5 ADD CALLDATALOAD PUSH8 0xFFFFFFFFFFFFFFFF DUP2 GT ISZERO PUSH2 0x3E3B JUMPI PUSH2 0x3E3A PUSH2 0x381F JUMP JUMPDEST JUMPDEST PUSH2 0x3E47 DUP7 DUP3 DUP8 ADD PUSH2 0x3D26 JUMP JUMPDEST SWAP3 POP SWAP3 POP POP SWAP3 POP SWAP3 POP SWAP3 JUMP JUMPDEST PUSH2 0x3E5C DUP2 PUSH2 0x3A23 JUMP JUMPDEST DUP3 MSTORE POP POP JUMP JUMPDEST PUSH1 0x0 PUSH1 0x20 DUP3 ADD SWAP1 POP PUSH2 0x3E77 PUSH1 0x0 DUP4 ADD DUP5 PUSH2 0x3E53 JUMP JUMPDEST SWAP3 SWAP2 POP POP JUMP JUMPDEST PUSH1 0x0 DUP1 REVERT JUMPDEST PUSH1 0x0 PUSH1 0x1F NOT PUSH1 0x1F DUP4 ADD AND SWAP1 POP SWAP2 SWAP1 POP JUMP JUMPDEST PUSH32 0x4E487B7100000000000000000000000000000000000000000000000000000000 PUSH1 0x0 MSTORE PUSH1 0x41 PUSH1 0x4 MSTORE PUSH1 0x24 PUSH1 0x0 REVERT JUMPDEST PUSH2 0x3ECB DUP3 PUSH2 0x3E82 JUMP JUMPDEST DUP2 ADD DUP2 DUP2 LT PUSH8 0xFFFFFFFFFFFFFFFF DUP3 GT OR ISZERO PUSH2 0x3EEA JUMPI PUSH2 0x3EE9 PUSH2 0x3E93 JUMP JUMPDEST JUMPDEST DUP1 PUSH1 0x40 MSTORE POP POP POP JUMP JUMPDEST PUSH1 0x0 PUSH2 0x3EFD PUSH2 0x3810 JUMP JUMPDEST SWAP1 POP PUSH2 0x3F09 DUP3 DUP3 PUSH2 0x3EC2 JUMP JUMPDEST SWAP2 SWAP1 POP JUMP JUMPDEST PUSH1 0x0 PUSH8 0xFFFFFFFFFFFFFFFF DUP3 GT ISZERO PUSH2 0x3F29 JUMPI PUSH2 0x3F28 PUSH2 0x3E93 JUMP JUMPDEST JUMPDEST PUSH2 0x3F32 DUP3 PUSH2 0x3E82 JUMP JUMPDEST SWAP1 POP PUSH1 0x20 DUP2 ADD SWAP1 POP SWAP2 SWAP1 POP JUMP JUMPDEST DUP3 DUP2 DUP4 CALLDATACOPY PUSH1 0x0 DUP4 DUP4 ADD MSTORE POP POP POP JUMP JUMPDEST PUSH1 0x0 PUSH2 0x3F61 PUSH2 0x3F5C DUP5 PUSH2 0x3F0E JUMP JUMPDEST PUSH2 0x3EF3 JUMP JUMPDEST SWAP1 POP DUP3 DUP2 MSTORE PUSH1 0x20 DUP2 ADD DUP5 DUP5 DUP5 ADD GT ISZERO PUSH2 0x3F7D JUMPI PUSH2 0x3F7C PUSH2 0x3E7D JUMP JUMPDEST JUMPDEST PUSH2 0x3F88 DUP5 DUP3 DUP6 PUSH2 0x3F3F JUMP JUMPDEST POP SWAP4 SWAP3 POP POP POP JUMP JUMPDEST PUSH1 0x0 DUP3 PUSH1 0x1F DUP4 ADD SLT PUSH2 0x3FA5 JUMPI PUSH2 0x3FA4 PUSH2 0x385A JUMP JUMPDEST JUMPDEST DUP2 CALLDATALOAD PUSH2 0x3FB5 DUP5 DUP3 PUSH1 0x20 DUP7 ADD PUSH2 0x3F4E JUMP JUMPDEST SWAP2 POP POP SWAP3 SWAP2 POP POP JUMP JUMPDEST PUSH1 0x0 DUP1 PUSH1 0x40 DUP4 DUP6 SUB SLT ISZERO PUSH2 0x3FD5 JUMPI PUSH2 0x3FD4 PUSH2 0x381A JUMP JUMPDEST JUMPDEST PUSH1 0x0 PUSH2 0x3FE3 DUP6 DUP3 DUP7 ADD PUSH2 0x3845 JUMP JUMPDEST SWAP3 POP POP PUSH1 0x20 DUP4 ADD CALLDATALOAD PUSH8 0xFFFFFFFFFFFFFFFF DUP2 GT ISZERO PUSH2 0x4004 JUMPI PUSH2 0x4003 PUSH2 0x381F JUMP JUMPDEST JUMPDEST PUSH2 0x4010 DUP6 DUP3 DUP7 ADD PUSH2 0x3F90 JUMP JUMPDEST SWAP2 POP POP SWAP3 POP SWAP3 SWAP1 POP JUMP JUMPDEST PUSH1 0x0 DUP1 PUSH1 0x0 PUSH2 0x1E0 DUP5 DUP7 SUB SLT ISZERO PUSH2 0x4034 JUMPI PUSH2 0x4033 PUSH2 0x381A JUMP JUMPDEST JUMPDEST PUSH1 0x0 PUSH2 0x4042 DUP7 DUP3 DUP8 ADD PUSH2 0x3B81 JUMP JUMPDEST SWAP4 POP POP PUSH2 0x1A0 PUSH2 0x4054 DUP7 DUP3 DUP8 ADD PUSH2 0x3845 JUMP JUMPDEST SWAP3 POP POP PUSH2 0x1C0 DUP5 ADD CALLDATALOAD PUSH8 0xFFFFFFFFFFFFFFFF DUP2 GT ISZERO PUSH2 0x4076 JUMPI PUSH2 0x4075 PUSH2 0x381F JUMP JUMPDEST JUMPDEST PUSH2 0x4082 DUP7 DUP3 DUP8 ADD PUSH2 0x3F90 JUMP JUMPDEST SWAP2 POP POP SWAP3 POP SWAP3 POP SWAP3 JUMP JUMPDEST PUSH32 0x4E487B7100000000000000000000000000000000000000000000000000000000 PUSH1 0x0 MSTORE PUSH1 0x11 PUSH1 0x4 MSTORE PUSH1 0x24 PUSH1 0x0 REVERT JUMPDEST PUSH1 0x0 PUSH2 0x40C6 DUP3 PUSH2 0x3824 JUMP JUMPDEST SWAP2 POP PUSH2 0x40D1 DUP4 PUSH2 0x3824 JUMP JUMPDEST SWAP3 POP DUP3 DUP3 ADD SWAP1 POP DUP1 DUP3 GT ISZERO PUSH2 0x40E9 JUMPI PUSH2 0x40E8 PUSH2 0x408C JUMP JUMPDEST JUMPDEST SWAP3 SWAP2 POP POP JUMP JUMPDEST PUSH1 0x0 DUP2 SWAP1 POP SWAP2 SWAP1 POP JUMP JUMPDEST PUSH1 0x0 PUSH2 0x4114 PUSH2 0x410F PUSH2 0x410A DUP5 PUSH2 0x40EF JUMP JUMPDEST PUSH2 0x39A9 JUMP JUMPDEST PUSH2 0x3824 JUMP JUMPDEST SWAP1 POP SWAP2 SWAP1 POP JUMP JUMPDEST PUSH2 0x4124 DUP2 PUSH2 0x40F9 JUMP JUMPDEST DUP3 MSTORE POP POP JUMP JUMPDEST PUSH1 0x0 DUP2 SWAP1 POP SWAP2 SWAP1 POP JUMP JUMPDEST PUSH1 0x0 PUSH2 0x414F PUSH2 0x414A PUSH2 0x4145 DUP5 PUSH2 0x412A JUMP JUMPDEST PUSH2 0x39A9 JUMP JUMPDEST PUSH2 0x3824 JUMP JUMPDEST SWAP1 POP SWAP2 SWAP1 POP JUMP JUMPDEST PUSH2 0x415F DUP2 PUSH2 0x4134 JUMP JUMPDEST DUP3 MSTORE POP POP JUMP JUMPDEST PUSH1 0x0 DUP2 SWAP1 POP SWAP2 SWAP1 POP JUMP JUMPDEST PUSH1 0x0 PUSH2 0x418A PUSH2 0x4185 PUSH2 0x4180 DUP5 PUSH2 0x4165 JUMP JUMPDEST PUSH2 0x39A9 JUMP JUMPDEST PUSH2 0x3824 JUMP JUMPDEST SWAP1 POP SWAP2 SWAP1 POP JUMP JUMPDEST PUSH2 0x419A DUP2 PUSH2 0x416F JUMP JUMPDEST DUP3 MSTORE POP POP JUMP JUMPDEST PUSH1 0x0 PUSH1 0x80 DUP3 ADD SWAP1 POP PUSH2 0x41B5 PUSH1 0x0 DUP4 ADD DUP8 PUSH2 0x411B JUMP JUMPDEST PUSH2 0x41C2 PUSH1 0x20 DUP4 ADD DUP7 PUSH2 0x4156 JUMP JUMPDEST PUSH2 0x41CF PUSH1 0x40 DUP4 ADD DUP6 PUSH2 0x4191 JUMP JUMPDEST PUSH2 0x41DC PUSH1 0x60 DUP4 ADD DUP5 PUSH2 0x395F JUMP JUMPDEST SWAP6 SWAP5 POP POP POP POP POP JUMP JUMPDEST PUSH1 0x0 PUSH2 0x41F0 DUP3 PUSH2 0x3824 JUMP JUMPDEST SWAP2 POP PUSH32 0xFFFFFFFFFFFFFFFFFFFFFFFFFFFFFFFFFFFFFFFFFFFFFFFFFFFFFFFFFFFFFFFF DUP3 SUB PUSH2 0x4222 JUMPI PUSH2 0x4221 PUSH2 0x408C JUMP JUMPDEST JUMPDEST PUSH1 0x1 DUP3 ADD SWAP1 POP SWAP2 SWAP1 POP JUMP JUMPDEST PUSH1 0x0 PUSH1 0x40 DUP3 ADD SWAP1 POP PUSH2 0x4242 PUSH1 0x0 DUP4 ADD DUP6 PUSH2 0x3E53 JUMP JUMPDEST PUSH2 0x424F PUSH1 0x20 DUP4 ADD DUP5 PUSH2 0x395F JUMP JUMPDEST SWAP4 SWAP3 POP POP POP JUMP JUMPDEST PUSH1 0x0 DUP3 DUP3 MSTORE PUSH1 0x20 DUP3 ADD SWAP1 POP SWAP3 SWAP2 POP POP JUMP JUMPDEST PUSH32 0x70726F6475637420646F65736E74206578697374000000000000000000000000 PUSH1 0x0 DUP3 ADD MSTORE POP JUMP JUMPDEST PUSH1 0x0 PUSH2 0x429D PUSH1 0x14 DUP4 PUSH2 0x4256 JUMP JUMPDEST SWAP2 POP PUSH2 0x42A8 DUP3 PUSH2 0x4267 JUMP JUMPDEST PUSH1 0x20 DUP3 ADD SWAP1 POP SWAP2 SWAP1 POP JUMP JUMPDEST PUSH1 0x0 PUSH1 0x20 DUP3 ADD SWAP1 POP DUP2 DUP2 SUB PUSH1 0x0 DUP4 ADD MSTORE PUSH2 0x42CC DUP2 PUSH2 0x4290 JUMP JUMPDEST SWAP1 POP SWAP2 SWAP1 POP JUMP JUMPDEST PUSH1 0x0 DUP2 MLOAD SWAP1 POP PUSH2 0x42E2 DUP2 PUSH2 0x382E JUMP JUMPDEST SWAP3 SWAP2 POP POP JUMP JUMPDEST PUSH1 0x0 PUSH1 0x20 DUP3 DUP5 SUB SLT ISZERO PUSH2 0x42FE JUMPI PUSH2 0x42FD PUSH2 0x381A JUMP JUMPDEST JUMPDEST PUSH1 0x0 PUSH2 0x430C DUP5 DUP3 DUP6 ADD PUSH2 0x42D3 JUMP JUMPDEST SWAP2 POP POP SWAP3 SWAP2 POP POP JUMP JUMPDEST PUSH1 0x0 PUSH2 0x4320 DUP3 PUSH2 0x3824 JUMP JUMPDEST SWAP2 POP PUSH2 0x432B DUP4 PUSH2 0x3824 JUMP JUMPDEST SWAP3 POP DUP3 DUP3 MUL PUSH2 0x4339 DUP2 PUSH2 0x3824 JUMP JUMPDEST SWAP2 POP DUP3 DUP3 DIV DUP5 EQ DUP4 ISZERO OR PUSH2 0x4350 JUMPI PUSH2 0x434F PUSH2 0x408C JUMP JUMPDEST JUMPDEST POP SWAP3 SWAP2 POP POP JUMP JUMPDEST PUSH1 0x0 PUSH2 0x4362 DUP3 PUSH2 0x3824 JUMP JUMPDEST SWAP2 POP PUSH2 0x436D DUP4 PUSH2 0x3824 JUMP JUMPDEST SWAP3 POP DUP3 DUP3 SUB SWAP1 POP DUP2 DUP2 GT ISZERO PUSH2 0x4385 JUMPI PUSH2 0x4384 PUSH2 0x408C JUMP JUMPDEST JUMPDEST SWAP3 SWAP2 POP POP JUMP JUMPDEST PUSH1 0x0 PUSH1 0x60 DUP3 ADD SWAP1 POP PUSH2 0x43A0 PUSH1 0x0 DUP4 ADD DUP7 PUSH2 0x3E53 JUMP JUMPDEST PUSH2 0x43AD PUSH1 0x20 DUP4 ADD DUP6 PUSH2 0x3E53 JUMP JUMPDEST PUSH2 0x43BA PUSH1 0x40 DUP4 ADD DUP5 PUSH2 0x395F JUMP JUMPDEST SWAP5 SWAP4 POP POP POP POP JUMP JUMPDEST PUSH32 0x4E487B7100000000000000000000000000000000000000000000000000000000 PUSH1 0x0 MSTORE PUSH1 0x12 PUSH1 0x4 MSTORE PUSH1 0x24 PUSH1 0x0 REVERT JUMPDEST PUSH1 0x0 PUSH2 0x43FC DUP3 PUSH2 0x3824 JUMP JUMPDEST SWAP2 POP PUSH2 0x4407 DUP4 PUSH2 0x3824 JUMP JUMPDEST SWAP3 POP DUP3 PUSH2 0x4417 JUMPI PUSH2 0x4416 PUSH2 0x43C2 JUMP JUMPDEST JUMPDEST DUP3 DUP3 MOD SWAP1 POP SWAP3 SWAP2 POP POP JUMP JUMPDEST PUSH1 0x0 PUSH2 0x442D DUP3 PUSH2 0x3824 JUMP JUMPDEST SWAP2 POP PUSH2 0x4438 DUP4 PUSH2 0x3824 JUMP JUMPDEST SWAP3 POP DUP3 PUSH2 0x4448 JUMPI PUSH2 0x4447 PUSH2 0x43C2 JUMP JUMPDEST JUMPDEST DUP3 DUP3 DIV SWAP1 POP SWAP3 SWAP2 POP POP JUMP JUMPDEST PUSH32 0x4E487B7100000000000000000000000000000000000000000000000000000000 PUSH1 0x0 MSTORE PUSH1 0x32 PUSH1 0x4 MSTORE PUSH1 0x24 PUSH1 0x0 REVERT JUMPDEST PUSH1 0x0 PUSH1 0x2 SWAP1 POP SWAP2 SWAP1 POP JUMP JUMPDEST PUSH1 0x0 DUP2 SWAP1 POP SWAP3 SWAP2 POP POP JUMP JUMPDEST PUSH1 0x0 DUP2 SWAP1 POP SWAP2 SWAP1 POP JUMP JUMPDEST PUSH2 0x44AB DUP2 PUSH2 0x3824 JUMP JUMPDEST DUP3 MSTORE POP POP JUMP JUMPDEST PUSH1 0x0 PUSH2 0x44BD DUP4 DUP4 PUSH2 0x44A2 JUMP JUMPDEST PUSH1 0x20 DUP4 ADD SWAP1 POP SWAP3 SWAP2 POP POP JUMP JUMPDEST PUSH1 0x0 PUSH1 0x20 DUP3 ADD SWAP1 POP SWAP2 SWAP1 POP JUMP JUMPDEST PUSH2 0x44DF DUP2 PUSH2 0x4482 JUMP JUMPDEST PUSH2 0x44E9 DUP2 DUP5 PUSH2 0x448D JUMP JUMPDEST SWAP3 POP PUSH2 0x44F4 DUP3 PUSH2 0x4498 JUMP JUMPDEST DUP1 PUSH1 0x0 JUMPDEST DUP4 DUP2 LT ISZERO PUSH2 0x4525 JUMPI DUP2 MLOAD PUSH2 0x450C DUP8 DUP3 PUSH2 0x44B1 JUMP JUMPDEST SWAP7 POP PUSH2 0x4517 DUP4 PUSH2 0x44C9 JUMP JUMPDEST SWAP3 POP POP PUSH1 0x1 DUP2 ADD SWAP1 POP PUSH2 0x44F8 JUMP JUMPDEST POP POP POP POP POP POP JUMP JUMPDEST PUSH1 0x0 PUSH1 0x2 SWAP1 POP SWAP2 SWAP1 POP JUMP JUMPDEST PUSH1 0x0 DUP2 SWAP1 POP SWAP3 SWAP2 POP POP JUMP JUMPDEST PUSH1 0x0 DUP2 SWAP1 POP SWAP2 SWAP1 POP JUMP JUMPDEST PUSH1 0x0 DUP2 SWAP1 POP SWAP3 SWAP2 POP POP JUMP JUMPDEST PUSH2 0x4561 DUP2 PUSH2 0x4482 JUMP JUMPDEST PUSH2 0x456B DUP2 DUP5 PUSH2 0x454D JUMP JUMPDEST SWAP3 POP PUSH2 0x4576 DUP3 PUSH2 0x4498 JUMP JUMPDEST DUP1 PUSH1 0x0 JUMPDEST DUP4 DUP2 LT ISZERO PUSH2 0x45A7 JUMPI DUP2 MLOAD PUSH2 0x458E DUP8 DUP3 PUSH2 0x44B1 JUMP JUMPDEST SWAP7 POP PUSH2 0x4599 DUP4 PUSH2 0x44C9 JUMP JUMPDEST SWAP3 POP POP PUSH1 0x1 DUP2 ADD SWAP1 POP PUSH2 0x457A JUMP JUMPDEST POP POP POP POP POP POP JUMP JUMPDEST PUSH1 0x0 PUSH2 0x45BB DUP4 DUP4 PUSH2 0x4558 JUMP JUMPDEST PUSH1 0x40 DUP4 ADD SWAP1 POP SWAP3 SWAP2 POP POP JUMP JUMPDEST PUSH1 0x0 PUSH1 0x20 DUP3 ADD SWAP1 POP SWAP2 SWAP1 POP JUMP JUMPDEST PUSH2 0x45DD DUP2 PUSH2 0x452D JUMP JUMPDEST PUSH2 0x45E7 DUP2 DUP5 PUSH2 0x4538 JUMP JUMPDEST SWAP3 POP PUSH2 0x45F2 DUP3 PUSH2 0x4543 JUMP JUMPDEST DUP1 PUSH1 0x0 JUMPDEST DUP4 DUP2 LT ISZERO PUSH2 0x4623 JUMPI DUP2 MLOAD PUSH2 0x460A DUP8 DUP3 PUSH2 0x45AF JUMP JUMPDEST SWAP7 POP PUSH2 0x4615 DUP4 PUSH2 0x45C7 JUMP JUMPDEST SWAP3 POP POP PUSH1 0x1 DUP2 ADD SWAP1 POP PUSH2 0x45F6 JUMP JUMPDEST POP POP POP POP POP POP JUMP JUMPDEST PUSH1 0x0 PUSH1 0x4 SWAP1 POP SWAP2 SWAP1 POP JUMP JUMPDEST PUSH1 0x0 DUP2 SWAP1 POP SWAP3 SWAP2 POP POP JUMP JUMPDEST PUSH1 0x0 DUP2 SWAP1 POP SWAP2 SWAP1 POP JUMP JUMPDEST PUSH1 0x0 PUSH1 0x20 DUP3 ADD SWAP1 POP SWAP2 SWAP1 POP JUMP JUMPDEST PUSH2 0x4661 DUP2 PUSH2 0x462B JUMP JUMPDEST PUSH2 0x466B DUP2 DUP5 PUSH2 0x4636 JUMP JUMPDEST SWAP3 POP PUSH2 0x4676 DUP3 PUSH2 0x4641 JUMP JUMPDEST DUP1 PUSH1 0x0 JUMPDEST DUP4 DUP2 LT ISZERO PUSH2 0x46A7 JUMPI DUP2 MLOAD PUSH2 0x468E DUP8 DUP3 PUSH2 0x44B1 JUMP JUMPDEST SWAP7 POP PUSH2 0x4699 DUP4 PUSH2 0x464B JUMP JUMPDEST SWAP3 POP POP PUSH1 0x1 DUP2 ADD SWAP1 POP PUSH2 0x467A JUMP JUMPDEST POP POP POP POP POP POP JUMP JUMPDEST PUSH1 0x0 PUSH2 0x1A0 DUP3 ADD SWAP1 POP PUSH2 0x46C5 PUSH1 0x0 DUP4 ADD DUP9 PUSH2 0x44D6 JUMP JUMPDEST PUSH2 0x46D2 PUSH1 0x40 DUP4 ADD DUP8 PUSH2 0x45D4 JUMP JUMPDEST PUSH2 0x46DF PUSH1 0xC0 DUP4 ADD DUP7 PUSH2 0x44D6 JUMP JUMPDEST PUSH2 0x46ED PUSH2 0x100 DUP4 ADD DUP6 PUSH2 0x4658 JUMP JUMPDEST PUSH2 0x46FB PUSH2 0x180 DUP4 ADD DUP5 PUSH2 0x395F JUMP JUMPDEST SWAP7 SWAP6 POP POP POP POP POP POP JUMP JUMPDEST PUSH2 0x470E DUP2 PUSH2 0x3BE2 JUMP JUMPDEST DUP2 EQ PUSH2 0x4719 JUMPI PUSH1 0x0 DUP1 REVERT JUMPDEST POP JUMP JUMPDEST PUSH1 0x0 DUP2 MLOAD SWAP1 POP PUSH2 0x472B DUP2 PUSH2 0x4705 JUMP JUMPDEST SWAP3 SWAP2 POP POP JUMP JUMPDEST PUSH1 0x0 PUSH1 0x20 DUP3 DUP5 SUB SLT ISZERO PUSH2 0x4747 JUMPI PUSH2 0x4746 PUSH2 0x381A JUMP JUMPDEST JUMPDEST PUSH1 0x0 PUSH2 0x4755 DUP5 DUP3 DUP6 ADD PUSH2 0x471C JUMP JUMPDEST SWAP2 POP POP SWAP3 SWAP2 POP POP JUMP JUMPDEST PUSH32 0x6E756C6C6966696572206E6F7420636F72726563740000000000000000000000 PUSH1 0x0 DUP3 ADD MSTORE POP JUMP JUMPDEST PUSH1 0x0 PUSH2 0x4794 PUSH1 0x15 DUP4 PUSH2 0x4256 JUMP JUMPDEST SWAP2 POP PUSH2 0x479F DUP3 PUSH2 0x475E JUMP JUMPDEST PUSH1 0x20 DUP3 ADD SWAP1 POP SWAP2 SWAP1 POP JUMP JUMPDEST PUSH1 0x0 PUSH1 0x20 DUP3 ADD SWAP1 POP DUP2 DUP2 SUB PUSH1 0x0 DUP4 ADD MSTORE PUSH2 0x47C3 DUP2 PUSH2 0x4787 JUMP JUMPDEST SWAP1 POP SWAP2 SWAP1 POP JUMP JUMPDEST PUSH32 0x746F6F206C617465206D616E0000000000000000000000000000000000000000 PUSH1 0x0 DUP3 ADD MSTORE POP JUMP JUMPDEST PUSH1 0x0 PUSH2 0x4800 PUSH1 0xC DUP4 PUSH2 0x4256 JUMP JUMPDEST SWAP2 POP PUSH2 0x480B DUP3 PUSH2 0x47CA JUMP JUMPDEST PUSH1 0x20 DUP3 ADD SWAP1 POP SWAP2 SWAP1 POP JUMP JUMPDEST PUSH1 0x0 PUSH1 0x20 DUP3 ADD SWAP1 POP DUP2 DUP2 SUB PUSH1 0x0 DUP4 ADD MSTORE PUSH2 0x482F DUP2 PUSH2 0x47F3 JUMP JUMPDEST SWAP1 POP SWAP2 SWAP1 POP JUMP JUMPDEST PUSH1 0x0 DUP2 SWAP1 POP SWAP3 SWAP2 POP POP JUMP JUMPDEST PUSH1 0x0 PUSH2 0x484D DUP4 DUP6 PUSH2 0x4836 JUMP JUMPDEST SWAP4 POP PUSH2 0x485A DUP4 DUP6 DUP5 PUSH2 0x3F3F JUMP JUMPDEST DUP3 DUP5 ADD SWAP1 POP SWAP4 SWAP3 POP POP POP JUMP JUMPDEST PUSH1 0x0 PUSH2 0x4873 DUP3 DUP5 DUP7 PUSH2 0x4841 JUMP JUMPDEST SWAP2 POP DUP2 SWAP1 POP SWAP4 SWAP3 POP POP POP JUMP JUMPDEST PUSH1 0x0 DUP2 MLOAD SWAP1 POP SWAP2 SWAP1 POP JUMP JUMPDEST PUSH1 0x0 JUMPDEST DUP4 DUP2 LT ISZERO PUSH2 0x48A8 JUMPI DUP1 DUP3 ADD MLOAD DUP2 DUP5 ADD MSTORE PUSH1 0x20 DUP2 ADD SWAP1 POP PUSH2 0x488D JUMP JUMPDEST PUSH1 0x0 DUP5 DUP5 ADD MSTORE POP POP POP POP JUMP JUMPDEST PUSH1 0x0 PUSH2 0x48BF DUP3 PUSH2 0x487F JUMP JUMPDEST PUSH2 0x48C9 DUP2 DUP6 PUSH2 0x4836 JUMP JUMPDEST SWAP4 POP PUSH2 0x48D9 DUP2 DUP6 PUSH1 0x20 DUP7 ADD PUSH2 0x488A JUMP JUMPDEST DUP1 DUP5 ADD SWAP2 POP POP SWAP3 SWAP2 POP POP JUMP JUMPDEST PUSH1 0x0 PUSH2 0x48F1 DUP3 DUP5 PUSH2 0x48B4 JUMP JUMPDEST SWAP2 POP DUP2 SWAP1 POP SWAP3 SWAP2 POP POP JUMP JUMPDEST DUP3 DUP2 DUP4 CALLDATACOPY POP POP POP JUMP JUMPDEST PUSH2 0x4912 PUSH2 0x100 DUP4 DUP4 PUSH2 0x48FC JUMP JUMPDEST POP POP JUMP JUMPDEST PUSH1 0x0 PUSH2 0x160 DUP3 ADD SWAP1 POP PUSH2 0x492C PUSH1 0x0 DUP4 ADD DUP8 PUSH2 0x395F JUMP JUMPDEST PUSH2 0x4939 PUSH1 0x20 DUP4 ADD DUP7 PUSH2 0x395F JUMP JUMPDEST PUSH2 0x4946 PUSH1 0x40 DUP4 ADD DUP6 PUSH2 0x395F JUMP JUMPDEST PUSH2 0x4953 PUSH1 0x60 DUP4 ADD DUP5 PUSH2 0x4905 JUMP JUMPDEST SWAP6 SWAP5 POP POP POP POP POP JUMP JUMPDEST PUSH1 0x0 PUSH1 0x40 DUP3 ADD SWAP1 POP PUSH2 0x4971 PUSH1 0x0 DUP4 ADD DUP6 PUSH2 0x395F JUMP JUMPDEST PUSH2 0x497E PUSH1 0x20 DUP4 ADD DUP5 PUSH2 0x395F JUMP JUMPDEST SWAP4 SWAP3 POP POP POP JUMP JUMPDEST PUSH1 0x0 DUP3 DUP3 MSTORE PUSH1 0x20 DUP3 ADD SWAP1 POP SWAP3 SWAP2 POP POP JUMP JUMPDEST PUSH1 0x0 DUP1 REVERT JUMPDEST PUSH1 0x0 PUSH2 0x49A7 DUP4 DUP6 PUSH2 0x4985 JUMP JUMPDEST SWAP4 POP PUSH32 0x7FFFFFFFFFFFFFFFFFFFFFFFFFFFFFFFFFFFFFFFFFFFFFFFFFFFFFFFFFFFFFF DUP4 GT ISZERO PUSH2 0x49DA JUMPI PUSH2 0x49D9 PUSH2 0x4996 JUMP JUMPDEST JUMPDEST PUSH1 0x20 DUP4 MUL SWAP3 POP PUSH2 0x49EB DUP4 DUP6 DUP5 PUSH2 0x48FC JUMP JUMPDEST DUP3 DUP5 ADD SWAP1 POP SWAP4 SWAP3 POP POP POP JUMP JUMPDEST PUSH1 0x0 PUSH1 0x60 DUP3 ADD SWAP1 POP PUSH2 0x4A0C PUSH1 0x0 DUP4 ADD DUP8 PUSH2 0x395F JUMP JUMPDEST DUP2 DUP2 SUB PUSH1 0x20 DUP4 ADD MSTORE PUSH2 0x4A1F DUP2 DUP6 DUP8 PUSH2 0x499B JUMP JUMPDEST SWAP1 POP PUSH2 0x4A2E PUSH1 0x40 DUP4 ADD DUP5 PUSH2 0x395F JUMP JUMPDEST SWAP6 SWAP5 POP POP POP POP POP JUMP JUMPDEST PUSH1 0x0 PUSH1 0x60 DUP3 ADD SWAP1 POP PUSH2 0x4A4C PUSH1 0x0 DUP4 ADD DUP7 PUSH2 0x395F JUMP JUMPDEST PUSH2 0x4A59 PUSH1 0x20 DUP4 ADD DUP6 PUSH2 0x395F JUMP JUMPDEST PUSH2 0x4A66 PUSH1 0x40 DUP4 ADD DUP5 PUSH2 0x395F JUMP JUMPDEST SWAP5 SWAP4 POP POP POP POP JUMP JUMPDEST PUSH1 0x0 PUSH1 0x80 DUP3 ADD SWAP1 POP PUSH2 0x4A83 PUSH1 0x0 DUP4 ADD DUP8 PUSH2 0x395F JUMP JUMPDEST PUSH2 0x4A90 PUSH1 0x20 DUP4 ADD DUP7 PUSH2 0x395F JUMP JUMPDEST PUSH2 0x4A9D PUSH1 0x40 DUP4 ADD DUP6 PUSH2 0x395F JUMP JUMPDEST PUSH2 0x4AAA PUSH1 0x60 DUP4 ADD DUP5 PUSH2 0x395F JUMP JUMPDEST SWAP6 SWAP5 POP POP POP POP POP JUMP JUMPDEST PUSH1 0x0 DUP2 SWAP1 POP SWAP2 SWAP1 POP JUMP JUMPDEST PUSH2 0x4ACE PUSH2 0x4AC9 DUP3 PUSH2 0x3824 JUMP JUMPDEST PUSH2 0x4AB3 JUMP JUMPDEST DUP3 MSTORE POP POP JUMP JUMPDEST PUSH1 0x0 PUSH2 0x4AE0 DUP3 DUP5 PUSH2 0x4ABD JUMP JUMPDEST PUSH1 0x20 DUP3 ADD SWAP2 POP DUP2 SWAP1 POP SWAP3 SWAP2 POP POP JUMP JUMPDEST PUSH1 0x0 DUP2 PUSH1 0x1 SHR SWAP1 POP SWAP2 SWAP1 POP JUMP JUMPDEST PUSH1 0x0 DUP1 DUP3 SWAP2 POP DUP4 SWAP1 POP JUMPDEST PUSH1 0x1 DUP6 GT ISZERO PUSH2 0x4B46 JUMPI DUP1 DUP7 DIV DUP2 GT ISZERO PUSH2 0x4B22 JUMPI PUSH2 0x4B21 PUSH2 0x408C JUMP JUMPDEST JUMPDEST PUSH1 0x1 DUP6 AND ISZERO PUSH2 0x4B31 JUMPI DUP1 DUP3 MUL SWAP2 POP JUMPDEST DUP1 DUP2 MUL SWAP1 POP PUSH2 0x4B3F DUP6 PUSH2 0x4AEF JUMP JUMPDEST SWAP5 POP PUSH2 0x4B06 JUMP JUMPDEST SWAP5 POP SWAP5 SWAP3 POP POP POP JUMP JUMPDEST PUSH1 0x0 DUP3 PUSH2 0x4B5F JUMPI PUSH1 0x1 SWAP1 POP PUSH2 0x4C1B JUMP JUMPDEST DUP2 PUSH2 0x4B6D JUMPI PUSH1 0x0 SWAP1 POP PUSH2 0x4C1B JUMP JUMPDEST DUP2 PUSH1 0x1 DUP2 EQ PUSH2 0x4B83 JUMPI PUSH1 0x2 DUP2 EQ PUSH2 0x4B8D JUMPI PUSH2 0x4BBC JUMP JUMPDEST PUSH1 0x1 SWAP2 POP POP PUSH2 0x4C1B JUMP JUMPDEST PUSH1 0xFF DUP5 GT ISZERO PUSH2 0x4B9F JUMPI PUSH2 0x4B9E PUSH2 0x408C JUMP JUMPDEST JUMPDEST DUP4 PUSH1 0x2 EXP SWAP2 POP DUP5 DUP3 GT ISZERO PUSH2 0x4BB6 JUMPI PUSH2 0x4BB5 PUSH2 0x408C JUMP JUMPDEST JUMPDEST POP PUSH2 0x4C1B JUMP JUMPDEST POP PUSH1 0x20 DUP4 LT PUSH2 0x133 DUP4 LT AND PUSH1 0x4E DUP5 LT PUSH1 0xB DUP5 LT AND OR ISZERO PUSH2 0x4BF1 JUMPI DUP3 DUP3 EXP SWAP1 POP DUP4 DUP2 GT ISZERO PUSH2 0x4BEC JUMPI PUSH2 0x4BEB PUSH2 0x408C JUMP JUMPDEST JUMPDEST PUSH2 0x4C1B JUMP JUMPDEST PUSH2 0x4BFE DUP5 DUP5 DUP5 PUSH1 0x1 PUSH2 0x4AFC JUMP JUMPDEST SWAP3 POP SWAP1 POP DUP2 DUP5 DIV DUP2 GT ISZERO PUSH2 0x4C15 JUMPI PUSH2 0x4C14 PUSH2 0x408C JUMP JUMPDEST JUMPDEST DUP2 DUP2 MUL SWAP1 POP JUMPDEST SWAP4 SWAP3 POP POP POP JUMP JUMPDEST PUSH1 0x0 PUSH2 0x4C2D DUP3 PUSH2 0x3824 JUMP JUMPDEST SWAP2 POP PUSH2 0x4C38 DUP4 PUSH2 0x3824 JUMP JUMPDEST SWAP3 POP PUSH2 0x4C65 PUSH32 0xFFFFFFFFFFFFFFFFFFFFFFFFFFFFFFFFFFFFFFFFFFFFFFFFFFFFFFFFFFFFFFFF DUP5 DUP5 PUSH2 0x4B4F JUMP JUMPDEST SWAP1 POP SWAP3 SWAP2 POP POP JUMP JUMPDEST PUSH1 0x0 DUP2 SWAP1 POP SWAP3 SWAP2 POP POP JUMP JUMPDEST PUSH2 0x4C81 DUP2 PUSH2 0x3824 JUMP JUMPDEST DUP3 MSTORE POP POP JUMP JUMPDEST PUSH1 0x0 PUSH2 0x4C93 DUP4 DUP4 PUSH2 0x4C78 JUMP JUMPDEST PUSH1 0x20 DUP4 ADD SWAP1 POP SWAP3 SWAP2 POP POP JUMP JUMPDEST PUSH2 0x4CA8 DUP2 PUSH2 0x4482 JUMP JUMPDEST PUSH2 0x4CB2 DUP2 DUP5 PUSH2 0x4C6D JUMP JUMPDEST SWAP3 POP PUSH2 0x4CBD DUP3 PUSH2 0x4498 JUMP JUMPDEST DUP1 PUSH1 0x0 JUMPDEST DUP4 DUP2 LT ISZERO PUSH2 0x4CEE JUMPI DUP2 MLOAD PUSH2 0x4CD5 DUP8 DUP3 PUSH2 0x4C87 JUMP JUMPDEST SWAP7 POP PUSH2 0x4CE0 DUP4 PUSH2 0x44C9 JUMP JUMPDEST SWAP3 POP POP PUSH1 0x1 DUP2 ADD SWAP1 POP PUSH2 0x4CC1 JUMP JUMPDEST POP POP POP POP POP POP JUMP JUMPDEST PUSH1 0x0 PUSH1 0x40 DUP3 ADD SWAP1 POP PUSH2 0x4D0B PUSH1 0x0 DUP4 ADD DUP5 PUSH2 0x4C9F JUMP JUMPDEST SWAP3 SWAP2 POP POP JUMP INVALID LOG2 PUSH5 0x6970667358 0x22 SLT KECCAK256 PUSH14 0x8872F34B997578326AE09408ADF5 NUMBER DUP12 0xC1 0x4C 0xB0 SWAP3 JUMPI 0xD6 0x4C XOR PUSH25 0x3A66FEBF219C64736F6C634300081A00330000000000000000 "
		},
		"gasEstimates": {
			"creation": {
				"codeDepositCost": "3956600",
				"executionCost": "infinite",
				"totalCost": "infinite"
			},
			"external": {
				"acceptGroupAdmin(uint256)": "55562",
				"addMember(uint256,uint256)": "infinite",
				"addMembers(uint256,uint256[])": "infinite",
				"calculateAvailableFunds(uint256)": "infinite",
				"calculateRefund(uint256,string)": "infinite",
				"cancelSubscription((uint256,uint256,uint256,uint256,uint256,uint256[8]),uint256,string)": "infinite",
				"createGroup()": "infinite",
				"createGroup(address)": "infinite",
				"createGroup(address,uint256)": "infinite",
				"createProduct()": "infinite",
				"createSubscription(uint256,uint256,address)": "infinite",
				"getAvailableFundsForPackage(uint256)": "infinite",
				"getGroupAdmin(uint256)": "2910",
				"getMerkleTreeDepth(uint256)": "infinite",
				"getMerkleTreeRoot(uint256)": "infinite",
				"getMerkleTreeSize(uint256)": "infinite",
				"getRoundedNum(uint256,uint256)": "infinite",
				"groupCounter()": "2473",
				"groups(uint256)": "infinite",
				"hasMember(uint256,uint256)": "infinite",
				"indexOf(uint256,uint256)": "infinite",
				"packageExists(uint256,string)": "infinite",
				"productExists(uint256)": "2889",
				"removeMember(uint256,uint256,uint256[])": "infinite",
				"startSubscription((uint256,uint256,uint256,uint256,uint256,uint256[8]),uint256,string)": "infinite",
				"updateGroupAdmin(uint256,address)": "29294",
				"updateGroupMerkleTreeDuration(uint256,uint256)": "infinite",
				"updateMember(uint256,uint256,uint256,uint256[])": "infinite",
				"validateProof(uint256,(uint256,uint256,uint256,uint256,uint256,uint256[8]))": "infinite",
				"verifier()": "infinite",
				"verifyProof(uint256,(uint256,uint256,uint256,uint256,uint256,uint256[8]))": "infinite",
				"viewAvailableFunds()": "infinite",
				"withdrawFunds()": "infinite"
			}
		},
		"methodIdentifiers": {
			"acceptGroupAdmin(uint256)": "da3cda52",
			"addMember(uint256,uint256)": "1783efc3",
			"addMembers(uint256,uint256[])": "04245371",
			"calculateAvailableFunds(uint256)": "a849b7bc",
			"calculateRefund(uint256,string)": "b4c609ea",
			"cancelSubscription((uint256,uint256,uint256,uint256,uint256,uint256[8]),uint256,string)": "fbd4987e",
			"createGroup()": "575185ed",
			"createGroup(address)": "5c3f3b60",
			"createGroup(address,uint256)": "2c880363",
			"createProduct()": "14d75e9d",
			"createSubscription(uint256,uint256,address)": "35381e26",
			"getAvailableFundsForPackage(uint256)": "923fa6fe",
			"getGroupAdmin(uint256)": "a9961c94",
			"getMerkleTreeDepth(uint256)": "6389e107",
			"getMerkleTreeRoot(uint256)": "dabc4d51",
			"getMerkleTreeSize(uint256)": "7ee35a0c",
			"getRoundedNum(uint256,uint256)": "372098d7",
			"groupCounter()": "d24924fe",
			"groups(uint256)": "96324bd4",
			"hasMember(uint256,uint256)": "90509d44",
			"indexOf(uint256,uint256)": "06dd8485",
			"packageExists(uint256,string)": "8807d358",
			"productExists(uint256)": "af55ed64",
			"removeMember(uint256,uint256,uint256[])": "6cdd32fe",
			"startSubscription((uint256,uint256,uint256,uint256,uint256,uint256[8]),uint256,string)": "79d11d44",
			"updateGroupAdmin(uint256,address)": "568ee826",
			"updateGroupMerkleTreeDuration(uint256,uint256)": "fcf0b6ec",
			"updateMember(uint256,uint256,uint256,uint256[])": "4178c4d5",
			"validateProof(uint256,(uint256,uint256,uint256,uint256,uint256,uint256[8]))": "d0d898dd",
			"verifier()": "2b7ac3f3",
			"verifyProof(uint256,(uint256,uint256,uint256,uint256,uint256,uint256[8]))": "456f4188",
			"viewAvailableFunds()": "90be89a9",
			"withdrawFunds()": "24600fc3"
		}
	},
	"abi": [
		{
			"inputs": [
				{
					"internalType": "contract ISemaphoreVerifier",
					"name": "_verifier",
					"type": "address"
				},
				{
					"internalType": "contract IPalo",
					"name": "_fundsContract",
					"type": "address"
				},
				{
					"internalType": "address",
					"name": "_providerAddress",
					"type": "address"
				},
				{
					"internalType": "contract IproductsContract",
					"name": "_productsContract",
					"type": "address"
				}
			],
			"stateMutability": "nonpayable",
			"type": "constructor"
		},
		{
			"inputs": [],
			"name": "LeafAlreadyExists",
			"type": "error"
		},
		{
			"inputs": [],
			"name": "LeafCannotBeZero",
			"type": "error"
		},
		{
			"inputs": [],
			"name": "LeafDoesNotExist",
			"type": "error"
		},
		{
			"inputs": [],
			"name": "LeafGreaterThanSnarkScalarField",
			"type": "error"
		},
		{
			"inputs": [],
			"name": "Semaphore__CallerIsNotTheGroupAdmin",
			"type": "error"
		},
		{
			"inputs": [],
			"name": "Semaphore__CallerIsNotThePendingGroupAdmin",
			"type": "error"
		},
		{
			"inputs": [],
			"name": "Semaphore__GroupDoesNotExist",
			"type": "error"
		},
		{
			"inputs": [],
			"name": "Semaphore__GroupHasNoMembers",
			"type": "error"
		},
		{
			"inputs": [],
			"name": "Semaphore__InvalidProof",
			"type": "error"
		},
		{
			"inputs": [],
			"name": "Semaphore__MerkleTreeDepthIsNotSupported",
			"type": "error"
		},
		{
			"inputs": [],
			"name": "Semaphore__MerkleTreeRootIsExpired",
			"type": "error"
		},
		{
			"inputs": [],
			"name": "Semaphore__MerkleTreeRootIsNotPartOfTheGroup",
			"type": "error"
		},
		{
			"inputs": [],
			"name": "Semaphore__YouAreUsingTheSameNullifierTwice",
			"type": "error"
		},
		{
			"inputs": [],
			"name": "WrongSiblingNodes",
			"type": "error"
		},
		{
			"anonymous": false,
			"inputs": [
				{
					"indexed": true,
					"internalType": "uint256",
					"name": "groupId",
					"type": "uint256"
				},
				{
					"indexed": true,
					"internalType": "address",
					"name": "oldAdmin",
					"type": "address"
				},
				{
					"indexed": true,
					"internalType": "address",
					"name": "newAdmin",
					"type": "address"
				}
			],
			"name": "GroupAdminPending",
			"type": "event"
		},
		{
			"anonymous": false,
			"inputs": [
				{
					"indexed": true,
					"internalType": "uint256",
					"name": "groupId",
					"type": "uint256"
				},
				{
					"indexed": true,
					"internalType": "address",
					"name": "oldAdmin",
					"type": "address"
				},
				{
					"indexed": true,
					"internalType": "address",
					"name": "newAdmin",
					"type": "address"
				}
			],
			"name": "GroupAdminUpdated",
			"type": "event"
		},
		{
			"anonymous": false,
			"inputs": [
				{
					"indexed": true,
					"internalType": "uint256",
					"name": "groupId",
					"type": "uint256"
				}
			],
			"name": "GroupCreated",
			"type": "event"
		},
		{
			"anonymous": false,
			"inputs": [
				{
					"indexed": true,
					"internalType": "uint256",
					"name": "groupId",
					"type": "uint256"
				},
				{
					"indexed": false,
					"internalType": "uint256",
					"name": "oldMerkleTreeDuration",
					"type": "uint256"
				},
				{
					"indexed": false,
					"internalType": "uint256",
					"name": "newMerkleTreeDuration",
					"type": "uint256"
				}
			],
			"name": "GroupMerkleTreeDurationUpdated",
			"type": "event"
		},
		{
			"anonymous": false,
			"inputs": [
				{
					"indexed": true,
					"internalType": "uint256",
					"name": "groupId",
					"type": "uint256"
				},
				{
					"indexed": false,
					"internalType": "uint256",
					"name": "index",
					"type": "uint256"
				},
				{
					"indexed": false,
					"internalType": "uint256",
					"name": "identityCommitment",
					"type": "uint256"
				},
				{
					"indexed": false,
					"internalType": "uint256",
					"name": "merkleTreeRoot",
					"type": "uint256"
				}
			],
			"name": "MemberAdded",
			"type": "event"
		},
		{
			"anonymous": false,
			"inputs": [
				{
					"indexed": true,
					"internalType": "uint256",
					"name": "groupId",
					"type": "uint256"
				},
				{
					"indexed": false,
					"internalType": "uint256",
					"name": "index",
					"type": "uint256"
				},
				{
					"indexed": false,
					"internalType": "uint256",
					"name": "identityCommitment",
					"type": "uint256"
				},
				{
					"indexed": false,
					"internalType": "uint256",
					"name": "merkleTreeRoot",
					"type": "uint256"
				}
			],
			"name": "MemberRemoved",
			"type": "event"
		},
		{
			"anonymous": false,
			"inputs": [
				{
					"indexed": true,
					"internalType": "uint256",
					"name": "groupId",
					"type": "uint256"
				},
				{
					"indexed": false,
					"internalType": "uint256",
					"name": "index",
					"type": "uint256"
				},
				{
					"indexed": false,
					"internalType": "uint256",
					"name": "identityCommitment",
					"type": "uint256"
				},
				{
					"indexed": false,
					"internalType": "uint256",
					"name": "newIdentityCommitment",
					"type": "uint256"
				},
				{
					"indexed": false,
					"internalType": "uint256",
					"name": "merkleTreeRoot",
					"type": "uint256"
				}
			],
			"name": "MemberUpdated",
			"type": "event"
		},
		{
			"anonymous": false,
			"inputs": [
				{
					"indexed": true,
					"internalType": "uint256",
					"name": "groupId",
					"type": "uint256"
				},
				{
					"indexed": false,
					"internalType": "uint256",
					"name": "startIndex",
					"type": "uint256"
				},
				{
					"indexed": false,
					"internalType": "uint256[]",
					"name": "identityCommitments",
					"type": "uint256[]"
				},
				{
					"indexed": false,
					"internalType": "uint256",
					"name": "merkleTreeRoot",
					"type": "uint256"
				}
			],
			"name": "MembersAdded",
			"type": "event"
		},
		{
			"anonymous": false,
			"inputs": [
				{
					"indexed": true,
					"internalType": "uint256",
					"name": "groupId",
					"type": "uint256"
				},
				{
					"indexed": false,
					"internalType": "uint256",
					"name": "merkleTreeDepth",
					"type": "uint256"
				},
				{
					"indexed": true,
					"internalType": "uint256",
					"name": "merkleTreeRoot",
					"type": "uint256"
				},
				{
					"indexed": false,
					"internalType": "uint256",
					"name": "nullifier",
					"type": "uint256"
				},
				{
					"indexed": false,
					"internalType": "uint256",
					"name": "message",
					"type": "uint256"
				},
				{
					"indexed": true,
					"internalType": "uint256",
					"name": "scope",
					"type": "uint256"
				},
				{
					"indexed": false,
					"internalType": "uint256[8]",
					"name": "points",
					"type": "uint256[8]"
				}
			],
			"name": "ProofValidated",
			"type": "event"
		},
		{
			"inputs": [
				{
					"internalType": "uint256",
					"name": "groupId",
					"type": "uint256"
				}
			],
			"name": "acceptGroupAdmin",
			"outputs": [],
			"stateMutability": "nonpayable",
			"type": "function"
		},
		{
			"inputs": [
				{
					"internalType": "uint256",
					"name": "groupId",
					"type": "uint256"
				},
				{
					"internalType": "uint256",
					"name": "identityCommitment",
					"type": "uint256"
				}
			],
			"name": "addMember",
			"outputs": [],
			"stateMutability": "nonpayable",
			"type": "function"
		},
		{
			"inputs": [
				{
					"internalType": "uint256",
					"name": "groupId",
					"type": "uint256"
				},
				{
					"internalType": "uint256[]",
					"name": "identityCommitments",
					"type": "uint256[]"
				}
			],
			"name": "addMembers",
			"outputs": [],
			"stateMutability": "nonpayable",
			"type": "function"
		},
		{
			"inputs": [
				{
					"internalType": "uint256",
					"name": "productId",
					"type": "uint256"
				}
			],
			"name": "calculateAvailableFunds",
			"outputs": [
				{
					"internalType": "uint256",
					"name": "",
					"type": "uint256"
				}
			],
			"stateMutability": "view",
			"type": "function"
		},
		{
			"inputs": [
				{
					"internalType": "uint256",
					"name": "productId",
					"type": "uint256"
				},
				{
					"internalType": "string",
					"name": "ens",
					"type": "string"
				}
			],
			"name": "calculateRefund",
			"outputs": [
				{
					"internalType": "uint256",
					"name": "amount",
					"type": "uint256"
				}
			],
			"stateMutability": "view",
			"type": "function"
		},
		{
			"inputs": [
				{
					"components": [
						{
							"internalType": "uint256",
							"name": "merkleTreeDepth",
							"type": "uint256"
						},
						{
							"internalType": "uint256",
							"name": "merkleTreeRoot",
							"type": "uint256"
						},
						{
							"internalType": "uint256",
							"name": "nullifier",
							"type": "uint256"
						},
						{
							"internalType": "uint256",
							"name": "message",
							"type": "uint256"
						},
						{
							"internalType": "uint256",
							"name": "scope",
							"type": "uint256"
						},
						{
							"internalType": "uint256[8]",
							"name": "points",
							"type": "uint256[8]"
						}
					],
					"internalType": "struct ISemaphore.SemaphoreProof",
					"name": "proof",
					"type": "tuple"
				},
				{
					"internalType": "uint256",
					"name": "productId",
					"type": "uint256"
				},
				{
					"internalType": "string",
					"name": "ens",
					"type": "string"
				}
			],
			"name": "cancelSubscription",
			"outputs": [],
			"stateMutability": "nonpayable",
			"type": "function"
		},
		{
			"inputs": [
				{
					"internalType": "address",
					"name": "admin",
					"type": "address"
				},
				{
					"internalType": "uint256",
					"name": "merkleTreeDuration",
					"type": "uint256"
				}
			],
			"name": "createGroup",
			"outputs": [
				{
					"internalType": "uint256",
					"name": "groupId",
					"type": "uint256"
				}
			],
			"stateMutability": "nonpayable",
			"type": "function"
		},
		{
			"inputs": [],
			"name": "createGroup",
			"outputs": [
				{
					"internalType": "uint256",
					"name": "groupId",
					"type": "uint256"
				}
			],
			"stateMutability": "nonpayable",
			"type": "function"
		},
		{
			"inputs": [
				{
					"internalType": "address",
					"name": "admin",
					"type": "address"
				}
			],
			"name": "createGroup",
			"outputs": [
				{
					"internalType": "uint256",
					"name": "groupId",
					"type": "uint256"
				}
			],
			"stateMutability": "nonpayable",
			"type": "function"
		},
		{
			"inputs": [],
			"name": "createProduct",
			"outputs": [
				{
					"internalType": "uint256",
					"name": "",
					"type": "uint256"
				}
			],
			"stateMutability": "nonpayable",
			"type": "function"
		},
		{
			"inputs": [
				{
					"internalType": "uint256",
					"name": "_commitment",
					"type": "uint256"
				},
				{
					"internalType": "uint256",
					"name": "productId",
					"type": "uint256"
				},
				{
					"internalType": "address",
					"name": "userWallet",
					"type": "address"
				}
			],
			"name": "createSubscription",
			"outputs": [
				{
					"internalType": "uint256",
					"name": "",
					"type": "uint256"
				}
			],
			"stateMutability": "nonpayable",
			"type": "function"
		},
		{
			"inputs": [
				{
					"internalType": "uint256",
					"name": "productId",
					"type": "uint256"
				}
			],
			"name": "getAvailableFundsForPackage",
			"outputs": [
				{
					"internalType": "uint256",
					"name": "",
					"type": "uint256"
				}
			],
			"stateMutability": "nonpayable",
			"type": "function"
		},
		{
			"inputs": [
				{
					"internalType": "uint256",
					"name": "groupId",
					"type": "uint256"
				}
			],
			"name": "getGroupAdmin",
			"outputs": [
				{
					"internalType": "address",
					"name": "",
					"type": "address"
				}
			],
			"stateMutability": "view",
			"type": "function"
		},
		{
			"inputs": [
				{
					"internalType": "uint256",
					"name": "groupId",
					"type": "uint256"
				}
			],
			"name": "getMerkleTreeDepth",
			"outputs": [
				{
					"internalType": "uint256",
					"name": "",
					"type": "uint256"
				}
			],
			"stateMutability": "view",
			"type": "function"
		},
		{
			"inputs": [
				{
					"internalType": "uint256",
					"name": "groupId",
					"type": "uint256"
				}
			],
			"name": "getMerkleTreeRoot",
			"outputs": [
				{
					"internalType": "uint256",
					"name": "",
					"type": "uint256"
				}
			],
			"stateMutability": "view",
			"type": "function"
		},
		{
			"inputs": [
				{
					"internalType": "uint256",
					"name": "groupId",
					"type": "uint256"
				}
			],
			"name": "getMerkleTreeSize",
			"outputs": [
				{
					"internalType": "uint256",
					"name": "",
					"type": "uint256"
				}
			],
			"stateMutability": "view",
			"type": "function"
		},
		{
			"inputs": [
				{
					"internalType": "uint256",
					"name": "num1",
					"type": "uint256"
				},
				{
					"internalType": "uint256",
					"name": "num2",
					"type": "uint256"
				}
			],
			"name": "getRoundedNum",
			"outputs": [
				{
					"internalType": "uint256",
					"name": "",
					"type": "uint256"
				}
			],
			"stateMutability": "pure",
			"type": "function"
		},
		{
			"inputs": [],
			"name": "groupCounter",
			"outputs": [
				{
					"internalType": "uint256",
					"name": "",
					"type": "uint256"
				}
			],
			"stateMutability": "view",
			"type": "function"
		},
		{
			"inputs": [
				{
					"internalType": "uint256",
					"name": "",
					"type": "uint256"
				}
			],
			"name": "groups",
			"outputs": [
				{
					"internalType": "uint256",
					"name": "merkleTreeDuration",
					"type": "uint256"
				}
			],
			"stateMutability": "view",
			"type": "function"
		},
		{
			"inputs": [
				{
					"internalType": "uint256",
					"name": "groupId",
					"type": "uint256"
				},
				{
					"internalType": "uint256",
					"name": "identityCommitment",
					"type": "uint256"
				}
			],
			"name": "hasMember",
			"outputs": [
				{
					"internalType": "bool",
					"name": "",
					"type": "bool"
				}
			],
			"stateMutability": "view",
			"type": "function"
		},
		{
			"inputs": [
				{
					"internalType": "uint256",
					"name": "groupId",
					"type": "uint256"
				},
				{
					"internalType": "uint256",
					"name": "identityCommitment",
					"type": "uint256"
				}
			],
			"name": "indexOf",
			"outputs": [
				{
					"internalType": "uint256",
					"name": "",
					"type": "uint256"
				}
			],
			"stateMutability": "view",
			"type": "function"
		},
		{
			"inputs": [
				{
					"internalType": "uint256",
					"name": "productId",
					"type": "uint256"
				},
				{
					"internalType": "string",
					"name": "ens",
					"type": "string"
				}
			],
			"name": "packageExists",
			"outputs": [
				{
					"internalType": "bool",
					"name": "",
					"type": "bool"
				}
			],
			"stateMutability": "view",
			"type": "function"
		},
		{
			"inputs": [
				{
					"internalType": "uint256",
					"name": "prodId",
					"type": "uint256"
				}
			],
			"name": "productExists",
			"outputs": [
				{
					"internalType": "bool",
					"name": "",
					"type": "bool"
				}
			],
			"stateMutability": "view",
			"type": "function"
		},
		{
			"inputs": [
				{
					"internalType": "uint256",
					"name": "groupId",
					"type": "uint256"
				},
				{
					"internalType": "uint256",
					"name": "identityCommitment",
					"type": "uint256"
				},
				{
					"internalType": "uint256[]",
					"name": "merkleProofSiblings",
					"type": "uint256[]"
				}
			],
			"name": "removeMember",
			"outputs": [],
			"stateMutability": "nonpayable",
			"type": "function"
		},
		{
			"inputs": [
				{
					"components": [
						{
							"internalType": "uint256",
							"name": "merkleTreeDepth",
							"type": "uint256"
						},
						{
							"internalType": "uint256",
							"name": "merkleTreeRoot",
							"type": "uint256"
						},
						{
							"internalType": "uint256",
							"name": "nullifier",
							"type": "uint256"
						},
						{
							"internalType": "uint256",
							"name": "message",
							"type": "uint256"
						},
						{
							"internalType": "uint256",
							"name": "scope",
							"type": "uint256"
						},
						{
							"internalType": "uint256[8]",
							"name": "points",
							"type": "uint256[8]"
						}
					],
					"internalType": "struct ISemaphore.SemaphoreProof",
					"name": "proof",
					"type": "tuple"
				},
				{
					"internalType": "uint256",
					"name": "productId",
					"type": "uint256"
				},
				{
					"internalType": "string",
					"name": "ens",
					"type": "string"
				}
			],
			"name": "startSubscription",
			"outputs": [],
			"stateMutability": "nonpayable",
			"type": "function"
		},
		{
			"inputs": [
				{
					"internalType": "uint256",
					"name": "groupId",
					"type": "uint256"
				},
				{
					"internalType": "address",
					"name": "newAdmin",
					"type": "address"
				}
			],
			"name": "updateGroupAdmin",
			"outputs": [],
			"stateMutability": "nonpayable",
			"type": "function"
		},
		{
			"inputs": [
				{
					"internalType": "uint256",
					"name": "groupId",
					"type": "uint256"
				},
				{
					"internalType": "uint256",
					"name": "newMerkleTreeDuration",
					"type": "uint256"
				}
			],
			"name": "updateGroupMerkleTreeDuration",
			"outputs": [],
			"stateMutability": "nonpayable",
			"type": "function"
		},
		{
			"inputs": [
				{
					"internalType": "uint256",
					"name": "groupId",
					"type": "uint256"
				},
				{
					"internalType": "uint256",
					"name": "identityCommitment",
					"type": "uint256"
				},
				{
					"internalType": "uint256",
					"name": "newIdentityCommitment",
					"type": "uint256"
				},
				{
					"internalType": "uint256[]",
					"name": "merkleProofSiblings",
					"type": "uint256[]"
				}
			],
			"name": "updateMember",
			"outputs": [],
			"stateMutability": "nonpayable",
			"type": "function"
		},
		{
			"inputs": [
				{
					"internalType": "uint256",
					"name": "groupId",
					"type": "uint256"
				},
				{
					"components": [
						{
							"internalType": "uint256",
							"name": "merkleTreeDepth",
							"type": "uint256"
						},
						{
							"internalType": "uint256",
							"name": "merkleTreeRoot",
							"type": "uint256"
						},
						{
							"internalType": "uint256",
							"name": "nullifier",
							"type": "uint256"
						},
						{
							"internalType": "uint256",
							"name": "message",
							"type": "uint256"
						},
						{
							"internalType": "uint256",
							"name": "scope",
							"type": "uint256"
						},
						{
							"internalType": "uint256[8]",
							"name": "points",
							"type": "uint256[8]"
						}
					],
					"internalType": "struct ISemaphore.SemaphoreProof",
					"name": "proof",
					"type": "tuple"
				}
			],
			"name": "validateProof",
			"outputs": [],
			"stateMutability": "nonpayable",
			"type": "function"
		},
		{
			"inputs": [],
			"name": "verifier",
			"outputs": [
				{
					"internalType": "contract ISemaphoreVerifier",
					"name": "",
					"type": "address"
				}
			],
			"stateMutability": "view",
			"type": "function"
		},
		{
			"inputs": [
				{
					"internalType": "uint256",
					"name": "groupId",
					"type": "uint256"
				},
				{
					"components": [
						{
							"internalType": "uint256",
							"name": "merkleTreeDepth",
							"type": "uint256"
						},
						{
							"internalType": "uint256",
							"name": "merkleTreeRoot",
							"type": "uint256"
						},
						{
							"internalType": "uint256",
							"name": "nullifier",
							"type": "uint256"
						},
						{
							"internalType": "uint256",
							"name": "message",
							"type": "uint256"
						},
						{
							"internalType": "uint256",
							"name": "scope",
							"type": "uint256"
						},
						{
							"internalType": "uint256[8]",
							"name": "points",
							"type": "uint256[8]"
						}
					],
					"internalType": "struct ISemaphore.SemaphoreProof",
					"name": "proof",
					"type": "tuple"
				}
			],
			"name": "verifyProof",
			"outputs": [
				{
					"internalType": "bool",
					"name": "",
					"type": "bool"
				}
			],
			"stateMutability": "view",
			"type": "function"
		},
		{
			"inputs": [],
			"name": "viewAvailableFunds",
			"outputs": [
				{
					"internalType": "uint256",
					"name": "totalAmount",
					"type": "uint256"
				}
			],
			"stateMutability": "view",
			"type": "function"
		},
		{
			"inputs": [],
			"name": "withdrawFunds",
			"outputs": [],
			"stateMutability": "nonpayable",
			"type": "function"
		}
	]
}